:020000040000FA
:100000000C94F7000C942C010C942C010C94DD0D35
:100010000C94DD0D0C94DD0D0C942C010C942C0132
:100020000C942C010C942C010C942C010C942C019C
:100030000C942C010C942C010C942C010C942C018C
:100040000C943B0D0C942C010C94AB0D0C94850D71
:100050000C942C010C942C010C942C010C942C016C
:100060000C942C010C942C010D0A0041542B434993
:100070005053454E443D0041542B43575141500D80
:100080000A0041542B43574C41500D0A0041542B58
:100090004357434F554E5452595F4445463D302CCB
:1000A000224B52222C312C31330D0A0041542B4764
:1000B0004D520D0A0041542B434950434C4F534578
:1000C0000D0A0041542B43495053544152543D2290
:1000D000544350222C223139322E3136382E3335CA
:1000E0002E3231222C393939310D0A0041542B433B
:1000F00049504D55583D300D0A0041542B43494657
:1001000053520D0A0041542B43574A41503D22534C
:100110004B5F5769466947494741353044435F3231
:100120002E3447222C2232303131303530373936B7
:10013000220D0A0041542B43574D4F44453D310D8C
:100140000A0041542B5253540D0A00206F6E6C6903
:100150006E653D0020736B69703D00206F6B746F9E
:100160003D002073656E646661696C3D00207265B8
:1001700073796E633D00206573707273743D002067
:1001800064726F703D005B434E545D2075703D009E
:1001900000000000240027002A00000000080002E0
:1001A0000100000304070000000000000000000040
:1001B0000000230026002900000000002500280080
:1001C0002B000404040404040404020202020202D8
:1001D000030303030303010204081020408001020B
:1001E00004081020010204081020830E0D151124AC
:1001F0001FBECFEFD8E0DEBFCDBF84B714BE0FB6B1
:10020000F894A895809160008861809360001092B6
:1002100060000FBE12E0A0E0B1E0E2EFF2E302C046
:1002200005900D92A435B107D9F725E0A4E5B2E019
:1002300001C01D92A030B207E1F710E0C6EFD0E098
:1002400004C02197FE010E943C16C53FD107C9F7A3
:100250000E942E0F0C946C190C940000833081F0D6
:1002600028F4813099F08230A9F008958730A9F000
:100270008830C9F08430B1F4809180008F7D03C054
:10028000809180008F7780938000089584B58F7768
:1002900084BD089584B58F7DFBCF8091B0008F77AA
:1002A0008093B00008958091B0008F7DF9CFCF93F7
:1002B000DF9390E0FC01EA52FE4F24918E539E4F53
:1002C000FC0184918823C9F090E0880F991FFC01FC
:1002D000E057FE4FA591B491FC01E854FE4FC59143
:1002E000D49161110DC09FB7F8948C912095822311
:1002F0008C938881282328839FBFDF91CF91089515
:10030000623051F49FB7F8943C91822F80958323FB
:100310008C93E8812E2BEFCF8FB7F894EC912E2B96
:100320002C938FBFEACF2FB7F8946091C0037091E0
:10033000C1038091C2039091C3032FBF0895EF9230
:10034000FF920F931F93CF93DF938C017B01D0E03B
:10035000C0E0F701EC0FFD1F6491662361F0D80146
:10036000ED91FC910190F081E02DC8010995892B58
:1003700011F02196EECFCE01DF91CF911F910F9119
:10038000FF90EF900895AF92BF92CF92DF92EF92DD
:10039000FF920F931F93CF93DF936C017B018B012F
:1003A000040F151FEB015E01AE18BF08C017D1077F
:1003B00059F06991D601ED91FC910190F081E02D09
:1003C000C6010995892B79F7C501DF91CF911F915E
:1003D0000F91FF90EF90DF90CF90BF90AF90089576
:1003E000FC01538D448D252F30E0842F90E0821B3B
:1003F000930B541710F0CF96089501970895FC01C0
:10040000918D828D981761F0A28DAE0FBF2FB11D17
:100410005D968C91928D9F5F9F73928F90E008956F
:100420008FEF9FEF0895FC01918D828D981731F029
:10043000828DE80FF11D858D90E008958FEF9FEF7D
:100440000895FC01918D228D892F90E0805C9F4F53
:10045000821B91098F739927089584E494E00E9488
:10046000210221E0892B09F420E0822F089580E009
:1004700090E0892B29F00E942D0281110C9400003C
:100480000895FC01A48DA80FB92FB11DA35ABF4F29
:100490002C91848D90E001968F739927848FA68983
:1004A000B7892C93A089B1898C91837080648C93D7
:1004B000938D848D981306C00288F389E02D808186
:1004C0008F7D80830895EF92FF920F931F93CF93B8
:1004D000DF93EC0181E0888F9B8D8C8D98131AC07F
:1004E000E889F989808185FF15C09FB7F894EE8966
:1004F000FF896083E889F9898081837080648083C3
:100500009FBF81E090E0DF91CF911F910F91FF900D
:10051000EF900895F62E0B8D10E00F5F1F4F0F73B5
:100520001127E02E8C8D8E110CC00FB607FCFACF70
:10053000E889F989808185FFF5CFCE010E944102CB
:10054000F1CFEB8DEC0FFD2FF11DE35AFF4FF08241
:100550009FB7F8940B8FEA89FB8980818062CFCFA7
:10056000CF93DF93EC01888D8823B9F0AA89BB89EA
:10057000E889F9898C9185FD03C0808186FD0DC0D5
:100580000FB607FCF7CF8C9185FFF2CF808185FFF6
:10059000EDCFCE010E944102E9CFDF91CF910895C6
:1005A00020912E0330912F032817390771F4909171
:1005B0002C0380912D03981741F0E0912C03F0E07B
:1005C000E451FD4F808190E008958FEF9FEF0895F3
:1005D0000895EF92FF920F931F93CF93DF93DC0167
:1005E0005C96ED90FC905D97E114F10479F481E064
:1005F00090E013969C938E93129790E080E0DF91A9
:10060000CF911F910F91FF90EF9008955196ED912A
:10061000FC91529750968C915097982F90950FB7C8
:100620005E962C915E97122F127021FD6095F894C2
:100630002081112319F1282B2083E7012197F1F75D
:1006400028E0462F50E0308160FF1AC0382B3083FD
:10065000E7012197F1F7BA0175956795215089F760
:10066000112381F08081892380830FBF5C968D9157
:100670009C910197F1F781E090E0C1CF2923DCCF75
:100680003923E5CF9081892BEFCF20912E03309134
:100690002F032817390761F480912D0320912C0333
:1006A00090E0805C9F4F821B91098F73992708957A
:1006B00090E080E0089520912E0330912F032817B9
:1006C0003907B9F490912C0380912D03981789F084
:1006D000E0912C03F0E0E451FD4F808120912C0348
:1006E00030E02F5F3F4F2F73332720932C0390E090
:1006F00008958FEF9FEF089590E080E00895282FF0
:10070000DB01FC0191918D913FE9390F3A3108F4F9
:1007100090523FE9380F3A3108F48052981306C0DE
:100720008E2F821B841770F381E0089580E0089576
:10073000AC01FB0130E020E0CA01022E02C0969518
:1007400087950A94E2F790E380FD91E391932F5F00
:100750003F4F2A30310581F7FB0112860895109230
:10076000DC031092CA031092C9038091B5039091E3
:10077000B6038F3F980729F001969093B6038093B4
:10078000B50381E08093D80386E08093D7030E946D
:1007900093016093D3037093D4038093D503909314
:1007A000D603109209011092080108958091CA039E
:1007B0008F3F19F08F5F8093CA038091CA03833003
:1007C00010F00C94AF0308958091DA0381110FC0EB
:1007D00081E08093DA038091B3039091B4038F3F5B
:1007E000980729F001969093B4038093B30308957A
:1007F000CF92DF92EF92FF920E9493016B017C01F6
:100800000E9493016C197D098E099F096837710553
:100810008105910558F481EE94E00E944503892BEF
:1008200079F381EE94E00E945B03F5CF1092B5025C
:100830001092B40210929303FF90EF90DF90CF904C
:100840000895CF93DF93382FDC01E0E02A2F231B9C
:10085000261718F42D91E227F9CFDC01A60FB11D60
:10086000CE2FD0E084E0D595C7958A95E1F7C15F9A
:10087000DE4F88818C93EF70F0E0E15FFE4F808166
:1008800011968C93119712961C9282E0860FDF913D
:10089000CF910895CF93DF93EB018093D7030E940C
:1008A00093016093D3037093D4038093D503909303
:1008B000D603D0930901C0930801DF91CF91089529
:1008C000CF92DF92EF92FF920F931F93CF93C82F97
:1008D0000E9493012091BA022223B1F00091B60246
:1008E0001091B7022091B8023091B9026B017C01DE
:1008F000C01AD10AE20AF30A97018601083E1340A2
:100900002105310508F465C021E02093BA02609307
:10091000B6027093B7028093B8029093B902109216
:10092000DD031092DE031092DF031092E00380914A
:100930003203C230D9F48330C8F483E080933203A9
:10094000109231038091E203823020F18091D9032B
:10095000811120C064EF71E087E0CF911F910F916A
:10096000FF90EF90DF90CF900C944A049091310368
:100970009E3F18F49F5F90933103E82FF0E0E45D11
:10098000FE4F2081909131039217E0F28530D0F62E
:100990008F5FD4CF80913203E82FF0E0EE0FFF1F7E
:1009A000E05EFE4F60817181813039F040F082302D
:1009B00061F41092E3038AE0D0CF0E94F803109212
:1009C000DB036CE271E083E0C8CF1092E30380E0C8
:1009D000C4CFCF911F910F91FF90EF90DF90CF90F8
:1009E0000895E091C503AE2FB0E035E0E39FF0013C
:1009F0001124EC53FD4F91838083628343832483CE
:100A00001196A770BB27A093C5038091C4038830BB
:100A100018F48F5F8093C40308959091AC039923D9
:100A200091F021E030E002C0220F331F8A95E2F7F7
:100A30008091AA039091AB032823392381E0232BD3
:100A400019F080E0089581E008958F929F92AF920F
:100A5000BF92EF92FF920F931F93CF93DF93CDB787
:100A6000DEB7A1970FB6F894DEBF0FBECDBF7C01F5
:100A7000FA01CB0119A2223008F42AE08E010F5DA1
:100A80001F4F822E912CB12CA12CBF01A5019401E6
:100A90000E94FF15F901CA016A3074F5605DD80142
:100AA0006E938D01232B242B252B79F790E080E08A
:100AB000109789F0FD0101900020E9F73197AF010F
:100AC0004A1B5B0BD701ED91FC910280F381E02D75
:100AD000B801C7010995A1960FB6F894DEBF0FBE05
:100AE000CDBFDF91CF911F910F91FF90EF90BF90FD
:100AF000AF909F908F900895695CD1CFAB0170E06B
:100B000060E02AE00C9425058A3091F58091B402CA
:100B1000882329F01092B5021092B40208954091F2
:100B2000B5024423B9F150E0FA01EC5AFD4F1082AE
:100B30001092B5028091BF02882381F080919303C7
:100B4000811128C04F5F5F4F64E572E083E393E05B
:100B50000E94421681E08093930308954F5F5F4F98
:100B600064E572E084EE93E00E9442160C94550A0C
:100B70008D3081F0E091B502EF3520F081E0809377
:100B8000B402089591E09E0F9093B502F0E0EC5A04
:100B9000FD4F8083089581EE94E00E944503892BE8
:100BA00039F081EE94E00E945B030E948405F3CF4C
:100BB00008954F925F926F927F929F92AF92BF92F1
:100BC000CF92DF92EF92FF920F931F93CF93DF9319
:100BD0001F92CDB7DEB79E012F5F344040910001D8
:100BE000509101012417350720F43093010120931F
:100BF0000001D090DC03D11002C0D12CE0C0FC0178
:100C000001900020E9F731977F01E81AF90A9E2C3C
:100C10002FEF2E0D2F3388F75C018091C9038823B5
:100C200071F10E9493014090C0025090C102609007
:100C3000C2027090C3026419750986099709603D64
:100C400077408105910568F48091AD039091AE03E2
:100C50008F3F980791F201969093AE038093AD0376
:100C6000CCCF1092C9038091AF039091B0038F3F16
:100C7000980729F001969093B0038093AF0381E029
:100C80008093BF020E9493014090BB025090BC022F
:100C90006090BD027090BE026419750986099709BB
:100CA000603571058105910518F40E94CB05EACFE6
:100CB0006BE670E081EE94E00E949F01FF24B70193
:100CC0006F5F7F4F81EE94E00E947E0568E670E0E2
:100CD00081EE94E00E949F010E9493012B013C0150
:100CE00000E0C12C0E9493016419750986099709D7
:100CF0006C3271408105910508F073C081EE94E07B
:100D00000E944503892B71F381EE94E00E945B03FE
:100D1000182F8E3309F482C00E9484058FEB810F57
:100D20008A3108F4105EEC2DF0E0E85CFE4F808123
:100D3000C394811729F0CC24C394123609F0C12C36
:100D4000EC2DF0E0E85CFE4F8081882309F480C040
:100D5000E02FF0E0EE5CFE4F80810F5F811721F005
:100D600001E0153609F000E0E02FF0E0EE5CFE4F08
:100D700080818111C3CF12E00E9493016093BB0276
:100D80007093BC028093BD029093BE021092BF028A
:100D9000113009F46CC011115DC01092CA030E9499
:100DA00093016093CB037093CC038093CD03909316
:100DB000CE0310929C0310929B0310929A038D2DE8
:100DC0000F90DF91CF911F910F91FF90EF90DF90E7
:100DD000CF90BF90AF909F907F906F905F904F901B
:100DE000089513E000E063E281EE94E00E94E902DE
:100DF0000F5F0915C0F36AE081EE94E00E94E902FA
:100E00008091B1039091B2038F3F980709F4B4CF5A
:100E100001969093B2038093B103AECF10E0A70187
:100E2000B50181EE94E00E94C3016AE081EE94E096
:100E30000E94E90281E08093C9030E9493016093BC
:100E4000C0027093C1028093C2029093C30294CFF8
:100E500011E092CF0E94D603123091F480919C034E
:100E60008F3F09F4CACE8F5F80939C03C6CE8091DA
:100E70009A038F3F09F4C1CE8F5F80939A03BDCE52
:100E800080919B038F3F09F4B8CE8F5F80939B03C3
:100E9000B4CE0F931F93CF93DF93CDB7DEB7689790
:100EA0000FB6F894DEBF0FBECDBF1F922F93242F35
:100EB000042E000C330B3F934F93262F062E000C6D
:100EC000330B3F936F939F938F9387E791E09F93AB
:100ED0008F931F9288E18F938E010F5F1F4F1F9397
:100EE0000F930E9487160FB6F894DEBF0FBECDBFDA
:100EF00018161906C4F49C012D5F3F4F29313105A6
:100F000090F4682FC8010E942104C8010E94D905ED
:100F100068960FB6F894DEBF0FBECDBFDF91CF91BC
:100F20001F910F91089580E0F3CF6F927F928F927F
:100F30009F92AF92BF92CF92DF92EF92FF920F9368
:100F40001F93CF93DF93CDB7DEB72E970FB6F894EC
:100F5000DEBF0FBECDBFDC010D900020E9F79D0183
:100F600021503109281B390B122F4FEF420F4F33FD
:100F700008F0B6C0FC014081423539F0433429F015
:100F8000443519F04D3409F0ABC0DC01FC0170E0D0
:100F900060E04FEF5FEF01910C3209F4AB016F5F3E
:100FA0007F4F6117C0F34F3F540709F499C03327AF
:100FB000241B350B2330310509F092C0FC01E40FEE
:100FC000F51F218130ED320F3A3038F03FEB320F10
:100FD000363008F085C039EC320F628120ED260FE3
:100FE0002A3038F02FEB260F263008F079C029EC94
:100FF000260F4F5FFC0160E05E2F581B541718F45A
:1010000051916527F9CF70E1379FA0011124242B5E
:10101000261366C09E012F5F3F4FA90140505540E7
:1010200060910001709101014617570720F4509319
:101030000101409300019A838983DD24D3948D912B
:10104000882309F425C28C32D1F7FD013197108233
:1010500086E08D1508F444C0ED2DF0E0EE0FFF1F83
:10106000E20FF31FB183A083D394E9CF94E5B6E0F8
:10107000CB2EB91639F0ADE413E0C12EBA1611F03B
:10108000A4E0CA2EB2E0BD1558F5AB81BC81109723
:1010900039F18C91882321F17D0120E030E0A90114
:1010A000D701ED917D01EE2381F180ED8E0F8A3025
:1010B000B8F4AAE0B0E00E94EC152E2FEE0F330B2F
:1010C00020533109032E000C440B550B260F371FFC
:1010D000481F591F21153105B1E04B07510500F399
:1010E0002E960FB6F894DEBF0FBECDBFDF91CF9125
:1010F0001F910F91FF90EF90DF90CF90BF90AF9036
:101100009F908F907F906F90089589012091C403E4
:1011100084EC92E0E0E02E1751F00596DC01159783
:101120004D915C910417150779F4E7FF0FC0CD14BA
:10113000D9F023E04FE36FE3C8010E94F10423E0FC
:101140004FE36FE3C8010DC0EF5FE5CF25E0E2029A
:10115000F0011124EC53FD4F248143816281808191
:1011600091810E944907BCCF64E5B612A2C0ED810F
:10117000FE818181811193C02081213469F0243462
:10118000E9F41092AC031092AB031092AA031092F0
:1011900097031092960303C081E08093AC037FE332
:1011A000E72EEFE3FE2ED12C2D2D4E2D6F2DC801F5
:1011B0000E94F1042D2D4E2D6F2DC4CF233519F033
:1011C000283509F06CC0AF81B885C984DA84FD0187
:1011D00001900020E9F7CF0103978A179B0709F0D8
:1011E0005EC0FC9011968C913FEC380F353008F0C2
:1011F00056C0F1E4FF1609F454C162E4F6124FC080
:1012000034ED380F233571F4D6018C918053823040
:1012100008F045C011968C91811141C051E4F52E22
:10122000353010F062E4F62E832F65E00E94301610
:1012300041E3E42EE90E8091AC038823B9F181E00B
:1012400090E002C0880F991F3A95E2F74091AA03F7
:101250005091AB0360919603709197032335B1F4DD
:10126000F6012081482B592B5093AB034093AA03DE
:10127000203339F0862B972B909397038093960316
:1012800092CF8095909586239723F6CF8095909561
:10129000482359235093AB034093AA03F4CF9FE311
:1012A000E92E2FE3F22E33E0D32E7ECF84E0D82E2A
:1012B0007BCFFDE4BF128AC0A090A603B090A70325
:1012C0006090940370909503D12CC12C8824839452
:1012D000912CFC2C8C2D0E940D05882339F1C40122
:1012E0000C2C02C0880F991F0A94E2F79C012A2156
:1012F0003B21232BD9F09C0126213721232BB1F44C
:10130000682A792A709295036092940384E071E4CC
:10131000E72E8F1510F482E4E82E8F2D65E00E94F1
:10132000301661E3F62EF90ED12C1AC02FEFC21A37
:10133000D20A6AE0C616D10461F6F12CE12C8E2D9A
:101340000E940D058111F394E3947AE0E712F7CF40
:10135000F11010C0EFE3FE2EFFE3EF2EA5E0DA2E32
:101360002D2D4F2D6E2DC8010E94F1042D2D4F2DD6
:101370006E2DE8CE0E9475152F2D30E050E040E034
:101380000E94CD15E62EF12C8F2D0E940D0588238D
:10139000C1F08FEF8E0DE11013C021E030E00F2C73
:1013A00002C0220F331F0A94E2F7809194039091B8
:1013B0009503822793279093950380939403A6CF58
:1013C000E82EF3948AE0F812DFCFC4CFAD81BE815E
:1013D000FD0101900020E9F7CF0103978A179B07D1
:1013E00009F04FC0EC9011968C912FEC280F25300E
:1013F00008F047C0F1E4EF1629F022E4E21241C000
:1014000024ED280F822F65E00E94301651E3D52E7F
:10141000D90E81E090E002C0880F991F2A95E2F76B
:1014200062E5B61218C02091A8033091A9032823C1
:101430003923FF24F394232BD9F42091A603309170
:10144000A703AC0142235323822B932B452B59F046
:1014500092E0F92E0DC0809590952091A6033091D1
:10146000A703822393239093A7038093A603F12CD1
:101470002F2D4D2D6E2DC8010E94F1042F2D4D2DC5
:1014800077CF2FE3D22E3FE3E32E43E0F42EF0CFCD
:10149000E981FA81B08072E5B712E8CDF5E0CF2E90
:1014A000F1CD233509F0C0CEAFCECF93DF9365E801
:1014B00071E084EE93E00E946D16009759F06AE3A4
:1014C00070E00E944B16009779F10196DF91CF9161
:1014D0000C94950744E050E06BE871E084EE93E0F3
:1014E0000E945F16892BB9F560E971E084EE93E004
:1014F0000E946D16892BD9F081E08093E30310924E
:10150000E2031092E1030E9493016093DD03709364
:10151000DE038093DF039093E0038091DC0368ECAB
:1015200070E0882309F479C0DF91CF91089567E9CD
:1015300071E084EE93E00E946D16892BA9F310925E
:10154000E3038091DC038111EFCF1092E103DF917F
:10155000CF910C946004D091DC03D1110EC1C091E5
:101560000A01CB3008F009C162EA71E084EE93E031
:101570000E946D16892B59F08DEF8C0F8330A0F6E9
:101580006CED75E08C2FDF91CF910C944A04C23042
:1015900009F045C047E050E067EA71E084EE93E06F
:1015A0000E945F16892B09F4BFCF68E172E084EED8
:1015B00093E00E946D16892B41F46FEA71E084EE8E
:1015C00093E00E946D16892B69F08091E2038A3FB7
:1015D00018F48F5F8093E2031092E3031092E1030B
:1015E00080E0B5CF60E172E084EE93E00E94561691
:1015F000892B09F011C21092E2031092DB031092C2
:10160000E1030E9493016093DD037093DE038093F6
:10161000DF039093E0036CE271E083E0B4CFCA3063
:10162000E9F460E172E084EE93E00E945616892BA3
:1016300089F06FEA71E084EE93E00E946D16892BC9
:1016400049F465EB71E084EE93E00E946D16892BFE
:1016500009F4E2C164EF71E082E095CFC33009F094
:101660005DC043E050E06BEB71E084EE93E00E94DC
:101670005F16892B09F4D0C184EE93E04AE0DC01C7
:101680002D91222309F4BEC120532A30C8F423E04F
:10169000843E920731F0FC013197208120532A309B
:1016A00078F0FC0130E090E020E0819150ED580F9F
:1016B0005A3040F4249F800D112420ED280FF5CFDF
:1016C000CD01DDCF911101C0322F8E3211F49F5F19
:1016D000EBCF9330A9F7332399F381E08093E303B1
:1016E0001092DB031092DA038091DD039091DE0308
:1016F000A091DF03B091E003892B8A2B8B2B51F44F
:101700000E9493016093DD037093DE038093DF03F7
:101710009093E00368EC70E084E035CFC430A9F426
:1017200060E172E084EE93E00E945616892B49F046
:101730006FEB71E084EE93E00E946D16892B09F443
:101740006BC168EC70E085E01ECFC83009F070C155
:1017500060E172E084EE93E00E945616892B49F016
:101760006FEA71E084EE93E00E946D16892B09F414
:1017700053C16CE271E089E006CF67ED71E084EE61
:1017800093E00E946D16892B41F06AE971E084EEC6
:1017900093E00E946D16892B41F544EE53E0CA0197
:1017A000FA0120814F5F5F4F2032C9F32930B9F32E
:1017B0002053253020F421812C3209F40296FC01BB
:1017C00001900020E9F73197E81BF90B2E2FE80F65
:1017D000F92FF11D222309F48CC03291303219F017
:1017E0003B7F3930B1F52150F5CF8091D803882364
:1017F00091F086E08093D7030E9493016093D30316
:101800007093D4038093D5039093D603109209016B
:101810001092080189CE81E08093DC030E9493013D
:101820006093CF037093D0038093D1039093D2033E
:101830000E9493016093CB037093CC038093CD03FC
:101840009093CE031092CA031092C9031092C8035A
:101850006BCE47E06AE971E0273031F0263009F0BD
:1018600048C046E06DED71E00E947F03882309F4D3
:1018700040C0C1E0C093DC030E9493016093CF039A
:101880007093D0038093D1039093D2030E9493016D
:101890006093CB037093CC038093CD039093CE03DE
:1018A0001092CA031092C9031092D8031092C80371
:1018B0001092E2031092DB03C093E3038091DD03F7
:1018C0009091DE03A091DF03B091E003892B8A2B76
:1018D0008B2B51F40E9493016093DD037093DE0320
:1018E0008093DF039093E0031092C5031092C4032A
:1018F0001BCE64EE71E084EE93E00E946D16892B9E
:10190000A9F46BEE71E084EE93E00E946D16892BD2
:1019100069F462EF71E084EE93E00E946D16892B0A
:1019200029F4D11127C084EE93E0D0CD1092DC03CE
:101930001092CA031092C9031092D8031092C803E0
:101940001092C5031092C40383E08093D7030E94D2
:1019500093016093D3037093D4038093D503909342
:10196000D6038CE291E090930901809308011092D4
:10197000DB03DACD69EF71E084EE93E00E946D162F
:10198000892B21F0DF91CF910C94AF0347E050E019
:101990006BE072E084EE93E00E945F16892B19F4ED
:1019A0001092C903C1CD49E050E063E172E084EEDA
:1019B00093E00E945F16892B91F41092C9038091E5
:1019C000C6039091C7038F3F980729F00196909323
:1019D000C7038093C603DF91CF910C94D6036FEABF
:1019E00071E084EE93E00E946D16892B09F09CCD86
:1019F00062EA71E084EE93E00E946D16892B09F093
:101A000093CD91CF6DE172E084EE93E00E94561683
:101A1000892B11F40E94E40361ED71E084EE93E000
:101A20000E946D16892B09F4A8CE1092E30320C002
:101A3000C93091F747E050E069EC71E084EE93E043
:101A40000E945F16892B09F46FCD60E172E084EE8D
:101A500093E00E945616892B41F06FEA71E084EE04
:101A600093E00E946D16892BB9F281E08093D9032F
:101A700068EE73E0F1CD1F920F920FB60F92112412
:101A80002F933F938F939F93AF93BF938091C00306
:101A90009091C103A091C203B091C3033091BF03E1
:101AA00023E0230F2D3758F50196A11DB11D20937A
:101AB000BF038093C0039093C103A093C203B0936C
:101AC000C3038091BB039091BC03A091BD03B0916F
:101AD000BE030196A11DB11D8093BB039093BC036F
:101AE000A093BD03B093BE03BF91AF919F918F911F
:101AF0003F912F910F900FBE0F901F90189526E8E1
:101B0000230F0296A11DB11DD2CF1F920F920FB6C7
:101B10000F9211242F933F934F935F936F937F9373
:101B20008F939F93AF93BF93EF93FF9384E494E0DD
:101B30000E944102FF91EF91BF91AF919F918F91D0
:101B40007F916F915F914F913F912F910F900FBEB9
:101B50000F901F9018951F920F920FB60F9211249D
:101B60002F938F939F93EF93FF93E0915404F09101
:101B700055048081E0915A04F0915B0482FD1BC002
:101B8000908180915D048F5F8F7320915E04821736
:101B900041F0E0915D04F0E0EC5BFB4F958F8093AA
:101BA0005D04FF91EF919F918F912F910F900FBE48
:101BB0000F901F9018958081F4CF1F920F920FB64F
:101BC0000F9211242F933F934F935F936F937F93C3
:101BD0008F939F93AF93BF93EF93FF93E0912E0367
:101BE000F0912F03309749F0A685B7858585968DAE
:101BF00091FF14C09C918923A1F4FF91EF91BF91B3
:101C0000AF919F918F917F916F915F914F913F9194
:101C10002F910F900FBE0F901F9018959C918923C4
:101C200061F7A389B4899C918589809589238C93D8
:101C3000868997890197F1F7608D718DA685B785A3
:101C4000558538E020E0CB010197F1F7822F90E035
:101C500095958795282F4C91452309F020683150A0
:101C600091F7868D81FD209580912D0390E001965E
:101C70008F73992730912C03381799F0A0912D0379
:101C8000B0E0A451BD4F2C9380932D03828D938D92
:101C90000197F1F7A389B4898C919589892B8C934D
:101CA000ACCF868D8160868FF1CF1F93CF93DF936A
:101CB000282F30E0F901E656FE4F8491F901EA52EF
:101CC000FE4FD491F901EE53FE4FC491CC23A9F0FD
:101CD000162F81110E942E01EC2FF0E0EE0FFF1F56
:101CE000E854FE4FA591B4918FB7F894EC9111117F
:101CF00008C0D095DE23DC938FBFDF91CF911F9179
:101D00000895DE2BF8CF109247041092460488EE17
:101D100093E0A0E0B0E08093480490934904A0933E
:101D20004A04B0934B0427E531E0309345042093F7
:101D3000440425EC30E0309351042093500424EC0B
:101D400030E0309353042093520420EC30E0309381
:101D500055042093540421EC30E030935704209331
:101D6000560422EC30E0309359042093580426ECBA
:101D700030E030935B0420935A0410925D0410927B
:101D80005E0410925F04109260041092E4041092BA
:101D9000E3048093E5049093E604A093E704B093F2
:101DA000E80489E691E09093E2048093E1041092C4
:101DB000F8041092F7041092FA041092F9041092A9
:101DC000FC041092FB041092FE041092FD0460913A
:101DD000FF046E7F6D7F6093FF046695617081E004
:101DE000682787E00E94550E61E087E00E94570156
:101DF000EDEDF1E0E491E093F104E9ECF1E0E49140
:101E0000F0E0EE0FFF1FE854FE4F85919491909300
:101E1000F3048093F20460E088E00E94570180910F
:101E2000FF0481FD04C061E088E00E94550E88E057
:101E30008093ED04EEEDF1E0E491E093EE04EAEC42
:101E4000F1E0E491F0E0EE0FFF1FE255FE4F8591C7
:101E500094919093F0048093EF040895CF93DF93CF
:101E6000CDB7DEB7C057D1090FB6F894DEBF0FBEAD
:101E7000CDBF789484B5826084BD84B5816084BD13
:101E800085B5826085BD85B5816085BD80916E0018
:101E9000816080936E001092810080918100826049
:101EA0008093810080918100816080938100809186
:101EB00080008160809380008091B1008460809375
:101EC000B1008091B00081608093B00080917A0071
:101ED000846080937A0080917A00826080937A0097
:101EE00080917A00816080937A0080917A00806886
:101EF00080937A001092C100E0915404F09155044F
:101F000082E08083E0915004F09151041082E091CE
:101F10005204F091530480E1808310925C04E091BC
:101F20005804F091590486E08083E0915604F091C2
:101F30005704808180618083E0915604F0915704BA
:101F4000808188608083E0915604F09157048081FD
:101F500080688083E0915604F091570480818F7DE2
:101F600080831092FC041092FB041092FA041092E9
:101F7000F9041092F8041092F7048DE991E090931F
:101F8000FE048093FD049091ED04963108F047C063
:101F90002DEB30E03093F8042093F7042BE931E087
:101FA0003093FA042093F9042CE231E03093FC04DE
:101FB0002093FB042091680084E0983048F031E0E1
:101FC0009E3008F430E081E001C0880F3A95EAF7CE
:101FD000822B809368002DE630E0983050F02BE69D
:101FE00030E09E3030F02CE630E0963110F030E0FA
:101FF00020E03093F5042093F404292F30E098304A
:1020000008F046C281E001C0880F9A95EAF78093F4
:10201000F6048091FD049091FE040197F1F7809100
:10202000FB049091FC04892B49F1E0912E03F0917F
:102030002F0324E0E13EF20709F1309739F0A3893C
:10204000B4899C918589809589238C938091FF0424
:102050008E7F8093FF0410922D0310922C0381EE4B
:1020600094E090932F0380932E03E091F404F09179
:10207000F50480819091F604892B808381E480931C
:102080007C0080917A00806480937A0080917A004D
:1020900086FDFCCF4091780050917900052E000C10
:1020A000660B770B3FB7F8948091BB039091BC030C
:1020B000A091BD03B091BE0326B5A89B05C02F3FDC
:1020C00019F00196A11DB11D3FBFBA2FA92F982F5E
:1020D0008827820F911DA11DB11DE2E0880F991F75
:1020E000AA1FBB1FEA95D1F78A019B010827192770
:1020F0002A273B27481759076A077B0721F0C901A0
:10210000B8010E94C4151092AC031092AB03109258
:10211000AA03109297031092960386E091E09093A1
:102120009503809394031092D7030E9493016093C8
:10213000D3037093D4038093D5039093D60384EF95
:1021400091E090930901809308011E0137E5230E69
:10215000311CAE01445B5F4FA4965FAF4EAFA497B6
:1021600098EE892E93E0992EA12CB12CCE018F5B95
:102170009F4FA6969FAF8EAFA697DE0111967D0169
:102180000E9493012B013C018091DC03882309F418
:102190008CC1809132038823C9F08091CF03909144
:1021A000D003A091D103B091D203A3019201281BC7
:1021B000390B4A0B5B0BDA01C90180339547A10546
:1021C000B10524F010923203109231030E94CB0526
:1021D00080919303882369F080E6E3E3F3E0A4EEC3
:1021E000B3E001900D928A95E1F7109293030E945B
:1021F000550A3091AC03A9963FAFA997C090AA03A6
:10220000D090AB0360919403709195034091960335
:102210005091970330E020E010E000E0E22FA99613
:102220008FADA997882309F4EBC2C601022E02C024
:10223000969587950A94E2F780FFE2C2CA010E2EB6
:1022400002C0969587950A94E2F7817049F081E083
:1022500090E002C0880F991FEA95E2F7082B192B2E
:102260002F5F3F4F2A303105C9F61093A903009321
:10227000A803A9969FADA997992309F4C3C2A8966C
:10228000DFAECEAEA897809106019091070180172E
:10229000910709F0BEC22091A6033091A703809157
:1022A0000401909105012817390709F0B2C2809105
:1022B000020190910301A8962EAD3FADA897821719
:1022C000930709F0A6C21092A503E091A503EE239F
:1022D000A9F08091A1039091A203A091A303B091D2
:1022E000A403B301A201481B590B6A0B7B0BE1E06D
:1022F00044365105610571050CF4E0E09091DC0372
:102300009923E1F08091CB039091CC03A091CD0370
:10231000B091CE03A3019201281B390B4A0B5B0B32
:10232000203137424105510508F483C210929C03C5
:1023300010929B0310929A030E94AF038091B703FF
:102340009091B803A091B903B091BA03A30192018F
:10235000281B390B4A0B5B0BDA01C90180369A4EF8
:10236000A105B10508F487C04092B7035092B803A5
:102370006092B9037092BA0366E871E084E494E075
:102380000E949F01C301B201A50194010E94FF15A3
:10239000BA01A9012AE084E494E00E9425056FE7D0
:1023A00071E084E494E00E949F016091B503709114
:1023B000B60384E494E00E947E0566E771E084E45D
:1023C00094E00E949F016091B3037091B40384E490
:1023D00094E00E947E056DE671E084E494E00E9442
:1023E0009F016091B1037091B20384E494E00E9474
:1023F0007E0562E671E084E494E00E949F016091B2
:10240000C6037091C70384E494E00E947E056BE5E7
:1024100071E084E494E00E949F016091AF037091A9
:10242000B00384E494E00E947E0564E571E084E4F6
:1024300094E00E949F016091AD037091AE0384E42B
:1024400094E00E947E056BE471E084E494E00E94D5
:102450009F014091DC0350E070E060E02AE084E4FA
:1024600094E00E94250542E050E061E572E084E4DA
:1024700094E00E94C30180E090E0892B09F480CEB3
:102480000E942D02882309F47BCE0E94000075CEA5
:102490009E3040F42850310981E001C0880F2A9510
:1024A000EAF7B5CD2E503109F7CF8091300388235C
:1024B00059F077FC09C0109230030E94F8036CEDCC
:1024C00075E081E00E944A048091300381117ECE44
:1024D0008091D3039091D403A091D503B091D603FA
:1024E000B301A201481B590B6A0B7B0B80910801B9
:1024F00090910901B0E0A0E0481759076A077B07EF
:1025000008F464CE8091D703853039F48091E303D9
:10251000811103C082E08093D7031091D70312305A
:1025200091F48091E103882309F445C01092E103FE
:102530008091E2038A3F18F48F5F8093E20381E089
:102540000E94600443CE1B3008F040C0E12FF0E051
:10255000E455FD4E0C943C16B712C012E6120E1351
:1025600042135B137813A513BE13D713F31362E45E
:1025700071E081EE94E00E949F011092E10326C079
:1025800064E371E081EE94E00E949F0181E080931A
:102590000A014092D3035092D4036092D503709203
:1025A000D60340E253E050930901409308011F5FB6
:1025B0001093D7030BCE65E071E081EE94E00E94AA
:1025C0009F0181E08093E1030E94930110930A012F
:1025D0004092D3035092D4036092D5037092D603F5
:1025E000E12FF0E0EE0FFF1FE35CFE4F8081918151
:1025F0009093090180930801EEEFE10FE930B8F6FE
:10260000F0E0EB5FFC4E0C943C16F11325135913CC
:1026100072138F13BC13D513EE13F1136AEF70E02E
:1026200081EE94E00E949F0183E080930A01409232
:10263000D3035092D4036092D5037092D60384ECF6
:1026400099E090930901809308018091DB038F5FEB
:102650008093DB03833008F4C9C01092DB030E942F
:10266000E40382E08093D70380E00E9460048091BD
:10267000D703833009F0AACD68EE73E082E00E94B0
:102680004A04A4CD6CEE70E081EE94E00E949F01BC
:1026900084E080930A014092D3035092D403609265
:1026A000D5037092D60380EB94E090930901809358
:1026B000080185E09CC063EC70E081EE94E00E942C
:1026C0009F0185E080930A014092D3035092D40386
:1026D0006092D5037092D603A0E4BFE1B0930901E4
:1026E000A09308018091D803882319F386E07FC066
:1026F00065EB70E081EE94E00E949F0186E080939C
:102700000A014092D3035092D4036092D503709291
:10271000D60320E233E03093090120930801809131
:10272000C8038F5F8093C803833008F463C010929E
:10273000D7031092D8031092C80328EC30E03093EE
:1027400009012093080182E0FBCE6CEA70E081EE83
:1027500094E00E949F0187E080930A014092D30396
:102760005092D4036092D5037092D6034CED55E09D
:10277000509309014093080188E039C06DE870E08A
:1027800081EE94E00E949F0188E080930A014092CC
:10279000D3035092D4036092D5037092D6038CED8C
:1027A00095E0909309018093080189E020C062E8D8
:1027B00070E081EE94E00E949F0189E080930A011D
:1027C0004092D3035092D4036092D5037092D60303
:1027D000A8E2B3E2B0930901A093080181E08093DD
:1027E000D90382E004C067E770E0C3CE83E0809342
:1027F000D703ECCC83E08093D7031092DB03E6CCC5
:10280000CB011DCDAFEFBFEFA896BFAFAEAFA8977E
:102810003ACD8091A503811158CD81E08093A50325
:102820004092A1035092A2036092A3037092A4036A
:102830004CCD20919D0330919E0340919F03509178
:10284000A003D301C201821B930BA40BB50B883EDE
:102850009340A105B10518F4EE2309F46FCD409122
:10286000A6035091A703AB965FAF4EAFAB97B101F4
:10287000C8010E949803BE01645B7F4FAB968EAD8A
:102880009FADAB970E94980350919803AC965FAFB1
:10289000AC9780919903AD968FAFAD97A9969FADF8
:1028A000A997992309F47EC0BE016F5B7F4FC601D3
:1028B0000E9498030E949301A696AFADA697AF938E
:1028C000A596BFADA597BF9325E232E03F932F9326
:1028D000A50194010E94FF155F934F933F932F939F
:1028E000A4962FADA4972F93A3963FADA3973F93A4
:1028F0003F922F92AD964FADAD974F93AC965FAD93
:10290000AC975F9388E292E09F938F931F9280E44D
:102910008F93FF92EF920E9487160FB6F894DEBF56
:102920000FBECDBF181619060CF068C09C012D5FB4
:102930003F4F2134310508F061C0682FC7010E9464
:102940002104C7010E94D905D82E0E9493016093EB
:102950009D0370939E0380939F039093A003DD20BB
:1029600009F44EC080919803909199030196909339
:102970009903809398031093070100930601AB9687
:102980002EAD3FADAB973093050120930401A8967F
:102990004EAD5FADA8975093030140930201109292
:1029A000A503CCCC0E94930125E232E03F932F9304
:1029B000A50194010E94FF155F934F933F932F93BE
:1029C000A496BFADA497BF93A3962FADA3972F93C3
:1029D0003F922F92AD963FADAD973F93AC964FADE2
:1029E000AC974F938EE392E09F938F931F9280E476
:1029F0008F93FF92EF920E9487168FCFD12CA5CF95
:102A000060577E4F8F4F9F4F6093A1037093A20337
:102A10008093A3039093A40391CC89E691E09093D3
:102A2000E2048093E10480912E0390912F03815E54
:102A3000944071F4E091F404F091F5049081809158
:102A4000F60480958923808310922F0310922E0321
:102A500008958F929F92AF92BF92CF92DF92EF92A2
:102A6000FF92CF93DF93EC01688179818A819B810A
:102A7000611571058105910521F464E279ED8BE51D
:102A800097E02DE133EF41E050E00E94CD15490180
:102A90005A019B01AC01A7EAB1E40E94EC156B015D
:102AA0007C01ACEEB4EFA50194010E94FA15C60EAC
:102AB000D71EE81EF91EF7FE06C081E0C81AD1082D
:102AC000E10880E8F80AC882D982EA82FB82C7015D
:102AD000B6019F77DF91CF91FF90EF90DF90CF907D
:102AE000BF90AF909F908F9008958F929F92AF92DA
:102AF000BF92CF92DF92EF92FF9260910B017091A3
:102B00000C0180910D0190910E01611571058105F7
:102B1000910521F464E279ED8BE597E02DE133EF47
:102B200041E050E00E94CD1549015A019B01AC01E2
:102B3000A7EAB1E40E94EC156B017C01ACEEB4EFA6
:102B4000A50194010E94FA15C60ED71EE81EF91EB3
:102B5000F7FE06C081E0C81AD108E10880E8F80A4B
:102B6000C0920B01D0920C01E0920D01F0920E0187
:102B7000C701B6019F77FF90EF90DF90CF90BF9095
:102B8000AF909F908F90089560930B0170930C010C
:102B900080930D0190930E010895052E97FB1EF46E
:102BA00000940E94E41557FD07D00E94FF1507FC12
:102BB00003D04EF40C94E415509540953095219532
:102BC0003F4F4F4F5F4F0895909580957095619559
:102BD0007F4F8F4F9F4F08950E942116A59F900D04
:102BE000B49F900DA49F800D911D11240895B7FFEF
:102BF0000C94EC150E94EC15821B930B0895A1E236
:102C00001A2EAA1BBB1BFD010DC0AA1FBB1FEE1F66
:102C1000FF1FA217B307E407F50720F0A21BB30BB1
:102C2000E40BF50B661F771F881F991F1A9469F72D
:102C300060957095809590959B01AC01BD01CF0189
:102C40000895A29FB001B39FC001A39F700D811D85
:102C50001124911DB29F700D811D1124911D0895A5
:102C6000991B79E004C0991F961708F0961B881FDE
:102C70007A95C9F780950895EE0FFF1F0590F4919E
:102C8000E02D0994FB01DC0102C001900D9241503E
:102C90005040D8F70895FC018191861721F08823D0
:102CA000D9F7992708953197CF010895FB01DC01E9
:102CB0008D91019080190110D9F3990B0895FB01B2
:102CC000DC014150504030F08D910190801919F491
:102CD0000020B9F7881B990B0895FB0151915523EA
:102CE000A9F0BF01DC014D9145174111E1F759F4FD
:102CF000CD010190002049F04D9140154111C9F3DB
:102D0000FB014111EFCF81E090E001970895AEE023
:102D1000B0E0EDE8F6E10C9443190D891E898F8926
:102D2000988D26E02C831A83098397FF02C080E0E8
:102D300090E801979E838D83AE01455E5F4F698D5C
:102D40007A8DCE0101960E94B7164D815E8157FDA6
:102D50000AC02F813885421753070CF49A01020FDD
:102D6000131FF80110822E96E4E00C945F19ABE07B
:102D7000B0E0EDEBF6E10C9435197C013B018A01E2
:102D8000FC0117821682838181FFC8C1CE010196A2
:102D90005C01F7019381F30193FD859193FF81918C
:102DA0003F01882309F453C1853239F493FD85919D
:102DB00093FF81913F01853229F4B70190E00E9491
:102DC000A718E7CF912C212C312CFFE1F31538F017
:102DD0008B3211F190F4803209F1833229F137FC02
:102DE0003CC020ED280F2A3050F536FE20C08AE086
:102DF000989E200D1124922E06C08D3291F08033C2
:102E000071F7689430F8F30193FD859193FF8191F8
:102E10003F018111DACF21C0689431F8689432F80B
:102E2000F2CF689433F8EFCF689434F8ECCFEAE04F
:102E30002E9E200D1124222E689435F8E4CF8E3278
:102E400029F436FC04C1689436F8DDCF8C3619F4C9
:102E5000689437F8D8CF8836B1F2982F9F7D955473
:102E60009330E0F08336A1F18337C1F1833509F067
:102E700063C02801F2E04F0E511CF801C080D180E0
:102E8000692D70E036FC02C06FEF7FEFC6010E9433
:102E900091184C01689437F882010AC00C5F1F4FEB
:102EA000FFE3F98388248394912C6501E89437F833
:102EB00033FE2DC0522C8114910471F5552009F474
:102EC00068CFB70180E290E00E94A7185A94F6CF2D
:102ED000F801808189830E5F1F4FE4CF2801F2E063
:102EE0004F0E511CF801C080D180692D70E036FC76
:102EF00002C06FEF7FEFC6010E949C184C01820157
:102F0000D5CFB70180E290E00E94A7182A94281438
:102F1000190409F0B0F7CECFF60137FC859137FEE2
:102F200081916F01B70190E00E94A71851105A9447
:102F3000F1E08F1A9108BFCF843619F0893609F075
:102F400077C0F80137FE6BC0608171818281938107
:102F50000C5F1F4FF32DFF763F2E97FF09C0909512
:102F60008095709561957F4F8F4F9F4F689437F88C
:102F70002AE030E0A5010E94D718C82ECA188C2C70
:102F8000432C36FE0CC0E89440F8C91440F434FEDB
:102F900005C032FC03C0F32DFE7E4F2E892C44FE6B
:102FA00095C0FE01EC0DF11D8081803309F087C0D2
:102FB000242D297E422E842D8870582E43FC95C0E6
:102FC00040FE8FC09C2C821418F42C0C922C981864
:102FD00044FE91C0B70180E390E00E94A71842FE32
:102FE00009C088E790E041FE02C088E590E0B701A3
:102FF0000E94A718C91408F48AC0CA94D12C9FEF64
:10300000C91AD90ACA0CDB1CF60182916F01B701FB
:1030100090E00E94A718AC14BD04B1F74FCF6081B7
:103020007181072E000C880B990B0E5F1F4F92CFFA
:10303000D32CE894D4F82AE030E0853739F1232DF9
:10304000297FD22E8F3601F148F48835A9F0F70197
:10305000868197812B96E2E10C945119803749F0D3
:103060008837A9F7D4FE02C06894D2F820E130E096
:103070000DC06894D4F8F6CF34FE03C0822F86606A
:10308000D82E20E132E002C028E030E0F801D7FE7F
:103090000FC060817181828193810C5F1F4FA501F8
:1030A0000E94D718C82ECA183D2CE89437F867CF6D
:1030B0006081718190E080E00E5F1F4FF0CF42FC95
:1030C00002C0839478CF8394839475CF842D8678BF
:1030D00009F471CFF6CFB70180E290E00E94A71803
:1030E00083948214C0F3512C73CF522C581882143D
:1030F00008F46ECFF8CF842D867809F47BCF8BE26D
:1031000041FE80E247FC8DE2B70190E071CFB7014C
:1031100080E390E00E94A7189A946CCF8FEF9FEF06
:1031200099CFFC010590615070400110D8F780954F
:1031300090958E0F9F1F0895FC0161507040019083
:103140000110D8F7809590958E0F9F1F08950F93CB
:103150001F93CF93DF93182F092FEB018B8181FDF4
:1031600009C01FEF0FEF812F902FDF91CF911F919B
:103170000F91089582FF14C02E813F818C819D8123
:10318000281739073CF4E881F981CF01019699832A
:10319000888310838E819F8101969F838E83E3CFE6
:1031A000E885F985812F0995892BA1F3DACFFA01FA
:1031B000AA27283051F1203181F1E8946F936E7F76
:1031C0006E5F7F4F8F4F9F4FAF4FB1E03ED0B4E067
:1031D0003CD0670F781F891F9A1FA11D680F791FA8
:1031E0008A1F911DA11D6A0F711D811D911DA11DB9
:1031F00020D009F468943F912AE0269F11243019C9
:10320000305D3193DEF6CF010895462F4770405D63
:103210004193B3E00FD0C9F7F6CF462F4F70405D12
:103220004A3318F0495D31FD4052419302D0A9F76D
:10323000EACFB4E0A6959795879577956795BA9567
:10324000C9F700976105710508959B01AC010A2E2D
:1032500006945795479537952795BA95C9F7620F04
:10326000731F841F951FA01D08952F923F924F92A8
:103270005F926F927F928F929F92AF92BF92CF9206
:10328000DF92EF92FF920F931F93CF93DF93CDB70F
:10329000DEB7CA1BDB0B0FB6F894DEBF0FBECDBF87
:1032A00009942A88398848885F846E847D848C8458
:1032B0009B84AA84B984C884DF80EE80FD800C8161
:1032C0001B81AA81B981CE0FD11D0FB6F894DEBF44
:1032D0000FBECDBFED01089510E0C6EFD0E004C0F1
:1032E000FE010E943C162196C73FD107C9F7F8940A
:1032F000FFCFFFFFFEFFFFFFFFFFF401FF01000014
:103300000030313233343536373839414243444561
:103310004600000000008813983A307560EA010208
:10332000020202FF6572726F72006275737900C4E7
:103330000920033075C409B004401F2003DC05DCFC
:10334000052823B80B000000006302C301F001B0A0
:10335000022102FF01130200000000E902C3017C08
:1033600003E80245035B03D002412C25752C25633D
:1033700025632C25752C002B4950442C00574946B9
:103380004900474F5420495000444953434F4E4E43
:103390004543540062757379002B43574A41503AB4
:1033A000004552524F52006E6F2061700041542B05
:1033B000006E6F206368616E6765002B43574C4158
:1033C000503A006E6F20697000414C524541004CEC
:1033D000494E4B454400434C4F53454400556E6C99
:1033E000696E6B00554E4C494E4B006C696E6B20FC
:1033F0006973206E6F742076616C69640053454E6A
:1034000044204F4B0053454E44204641494C003028
:103410002E302E302E3000503100532C25752C25A7
:10342000732C25732C256C752C25732C25732C007F
:10343000532C25752C25732C25732C256C752C2568
:06344000732C000D0A00D0
:107E0000112484B714BE81FFF0D085E080938100F7
:107E100082E08093C00088E18093C10086E0809377
:107E2000C20080E18093C4008EE0C9D0259A86E02C
:107E300020E33CEF91E0309385002093840096BBD3
:107E4000B09BFECF1D9AA8958150A9F7CC24DD24C4
:107E500088248394B5E0AB2EA1E19A2EF3E0BF2EE7
:107E6000A2D0813461F49FD0082FAFD0023811F036
:107E7000013811F484E001C083E08DD089C08234E0
:107E800011F484E103C0853419F485E0A6D080C0E4
:107E9000853579F488D0E82EFF2485D0082F10E0AE
:107EA000102F00270E291F29000F111F8ED06801E7
:107EB0006FC0863521F484E090D080E0DECF843638
:107EC00009F040C070D06FD0082F6DD080E0C81688
:107ED00080E7D80618F4F601B7BEE895C0E0D1E017
:107EE00062D089930C17E1F7F0E0CF16F0E7DF06D8
:107EF00018F0F601B7BEE89568D007B600FCFDCFD4
:107F0000A601A0E0B1E02C9130E011968C91119780
:107F100090E0982F8827822B932B1296FA010C0160
:107F200087BEE89511244E5F5F4FF1E0A038BF0790
:107F300051F7F601A7BEE89507B600FCFDCF97BE46
:107F4000E89526C08437B1F42ED02DD0F82E2BD052
:107F50003CD0F601EF2C8F010F5F1F4F84911BD097
:107F6000EA94F801C1F70894C11CD11CFA94CF0C13
:107F7000D11C0EC0853739F428D08EE10CD085E9AC
:107F80000AD08FE07ACF813511F488E018D01DD067
:107F900080E101D065CF982F8091C00085FFFCCF94
:107FA0009093C60008958091C00087FFFCCF809118
:107FB000C00084FD01C0A8958091C6000895E0E648
:107FC000F0E098E1908380830895EDDF803219F02E
:107FD00088E0F5DFFFCF84E1DECF1F93182FE3DFCA
:107FE0001150E9F7F2DF1F91089580E0E8DFEE27F6
:047FF000FF270994CA
:027FFE00040479
:00000001FF
