:200000000C94AC0B0C94E30B0C94E30B0C94101C0C94101C0C94101C0C94E30B0C94E30BED
:200020000C94E30B0C94E30B0C94E30B0C94E30B0C94E30B0C94E30B0C94E30B0C94E30B50
:200040000C946E1B0C94E30B0C94DE1B0C94B81B0C94E30B0C94E30B0C94E30B0C94E30BA5
:200060000C94E30B0C94E30BEBB094EC9DB4ED8AB8EBA5BC20EB8498EC96B420EBB284EBF4
:20008000A0B8EB8BA4005B44524F502D4F56465D20ECA484EC9DB42000EBB094EC9DB4EDFF
:2000A0008AB820EBB284EBA6BC202B20ECA48420ECA1B0EBA6BD20ECB488EAB8B0ED999492
:2000C000005B4C41444445525D2031EB8BA820ECA1B0ECB9983A20EC8B9CEBA6ACEC96BCCB
:2000E00020EB939CEBA088EC9DB82000ECB48820EBB0B1EC98A4ED9484EBA19C20EB909836
:20010000ED9280EC9DB4ED959CEB8BA428ECA285ECB0A9EC97AD29005B4C41444445525D2E
:20012000202020EB8C80EC8BA02034EB8BA820ECA1B0ECB998EBA5BC20005B4C4144444524
:20014000525D202020ED9584EC9A9420EBB680ED92883A20EBA19CEC9AB0EC82ACEC9DB419
:20016000EB939C204D4F5346455420EC8AA4EC9C84ECB99828EC98883A20324E373030301F
:200180002F414F33343030202B2031306B29005B4C41444445525D20E29AA035EB8BA82066
:2001A000EBAFB8EC8BA4ED96893A20ECA084EC9B9020EC9EACED88ACEC9E85EC9D80202A6C
:2001C0002AEBB680ED928820EBAFB8EBB3B4EC9CA0EBA19C20EBAFB8EAB5ACED98842A2A9F
:2001E000EC9DB4EB8BA400ECB48820EC89ACEAB3A02041542B52535420EBA78C20EB9098B8
:20020000ED9280EC9DB4ED959CEB8BA4005B4C41444445525D202020ECA780EAB888EC9DE0
:200220008020005B4C41444445525D202020E2869220556E6F20413220EBA5BC2045535007
:2002400020EC9D982052535420EC979020EBACBCEBA6ACEAB3A0204553505F5253545F570E
:200260004952454420EBA5BC203120EBA19C20EBB094EABF9420EB8BA4EC8B9C20EAB5AC11
:20028000EC9B8CEB9DBC005B4C41444445525D20E29AA034EB8BA820EBAFB8EC8BA4ED9605
:2002A000893A20ED9598EB939CEC9BA8EC96B420EBA6ACEC858BEC84A0EC9DB420EBB0B0B1
:2002C000EC84A0EB9098ECA78020EC958AEC9598EB8BA4284553505F5253545F574952458C
:2002E000443D302900ECB48820EC89ACEAB3A02041542B5253542028EBAAA8EB938820EC0E
:20030000868CED9484ED8AB820EBA6ACEC858B29005B4C41444445525D2033EB8BA820EC34
:20032000A1B0ECB9983A2000ECB48820EC89ACEAB3A02041542B435751415020EBA19C206B
:20034000EAB2B0ED95A9EC9D8420EBAA85EC8B9CECA081EC9CBCEBA19C20EB818AEC9D8034
:2003600020EB92A420EB8BA4EC8B9C20EBB699EB8A94EB8BA4005B4C41444445525D2032BC
:20038000EB8BA820ECA1B0ECB9983A2000EB8BA8005B4C41444445525D20E28691E28691B7
:2003A00020EB8BA820EC8381EC8AB920E2869220005B4C41444445525D20E286912033EBCB
:2003C0008BA82841542B5253542920ECA781ED968920E2809420415420EAB384ECB8B5EC4F
:2003E0009DB420EC9EA0EAB2BCEC9CBCEBA9B420EC9584EB9E9820EB8BA8EC9D8020EC9D48
:2004000098EBAFB8EAB08020EC9786EB8BA400ED9A8C20EB8884ECA0812900EB8BA82800EF
:2004200020C2B720ED9884EC9EAC2000EC9786EC9D8C00ED9A8C20C2B720EAB2B0ED95A943
:20044000EC9CA0ECA78020007320C2B720EC97B0EC868D2000292043574A4150EC868CEC1B
:200460009A94200043574A4150204641494C00415420EAB384ECB8B520EC9EA0EAB98000E1
:2004800043574A415020EBACB4EC9D91EB8BB5005B4C41444445525D20EC8BA4ED8CA8284F
:2004A000005B4C41444445525D2031ECB48820EC9588EC979020EB93A4EC96B4EC98A8205F
:2004C000ECA491EBB3B520EC8BA4ED8CA820EC8BA0ED98B820E2809420EC84B8ECA7802047
:2004E000EC958AEB8A94EB8BA4005B54582D44524F505D20005B54585D2000EBB094EC9DAC
:20050000B4ED8AB8EBA19C20EC8AA4ED8AB8EBA6BC20EBB3B5EAB5AC28EC849CEBB284EB1C
:200520008A9420EC9DB420ECA484EC9D8420EBB284EBA6B0EB8BA429005B54582D5245531C
:20054000594E435D20ED9484EBA1ACED9484ED8AB820EB8693ECB9A820E2869220EB8D940C
:20056000EBAFB820005B54582D52454A4543545D2043495053454E4420EAB1B0EBB68028E1
:200580004552524F522920E2809420EB8D94EBAFB8EBA5BC20EB84A3ECA78020EC958AEB6D
:2005A0008A94EB8BA4005B54582D425553595D2045535020EAB08020EBB094EC8198EB8B23
:2005C000A428EAB1B0EBB6802920E2809420EC8BA4ED8CA8EBA19C20EC84B8ECA78020ECB9
:2005E000958AEB8A94EB8BA42E20EB8BA4EC9D8C20ECA3BCEAB8B0EC979020EB8BA4EC8BBB
:200600009C20EBB3B4EB82B8EB8BA4000D0A0041542B43495053454E443D005B54582D57E8
:200620004149545D20E298852053454E44204F4B20EC8381ED959C20ECB488EAB3BC20E28B
:20064000869220EB8C80EAB8B0EBA5BC20ED91BCEB8BA42853454E445F4741505F4D5320B1
:20066000EC8B9CECA08820EB8F99EC9E91EC9CBCEBA19C20EBB3B5EAB78029005B54582DA8
:20068000574149545D20EC959E20ECA084EC86A1EC9D982053454E44204F4B20EBA5BC2095
:2006A000EC9584ECA78120EBAABB20EBB4A4EB8BA420E2809420EC9DB4EBB28820ECA3BC31
:2006C000EAB8B0EB8A9420EAB1B4EB8488EB9BB4EB8BA4005B434B53554D204E475D2000F5
:2006E0005B42414420534C4F545D207269643D0020E28692206F636375706965643D005B5F
:2007000053494D5D20ED959C20EAB1B8EC9D8C3A20005B53494D5D20EBB094EABF8020EC4E
:200720008B9CEBAEAC20ECB9B8EC9DB420EC9786EB8BA420E2869220726573756C743D3505
:20074000005B424144204649454C44535D207269643D005B445550207269645D20005B4EDE
:2007600045545D20E298852045535020EAB08020495020EBA5BC20EC9E83EC9788EB8BA4AB
:2007800020E2809420EBAAA8EB938820EBA6ACEC858BEC9CBCEBA19C20EBB3B8EB8BA42E5D
:2007A00020EB8884ECA08120EC82ACEAB1B42000ED9A8C20EC97B0EC868D20EC8BA4ED8C53
:2007C000A820E2869220EC98A4ED9484EB9DBCEC9DB820ECA084ED99982E20EB82A1EC9D52
:2007E0008020EC868CECBC93EBB680ED84B020EB8BABEB8A94EB8BA428434950434C4F5345
:200800004529005B4E45545D20ECA084EC86A120005B4E45545D20ECA084EC86A120EC8BEF
:20082000A4ED8CA82000EB81940020C2B72036EB8BA828EC9B8CECB998EB8F85292000EB1B
:20084000AFB8EBB0B0EC84A020E2809420413220EBA5BC204553502052535420EC9790204D
:20086000EBACBCEBA6ACEAB3A0204553505F5253545F57495245443D31005B424F4F545D17
:2008800020EC82ACEB8BA4EBA6AC2034EB8BA82845535020ED9598EB939CEBA6ACEC858BB8
:2008A000EC84A0292000EC9B8CECB998EB8F8520002A2AEBB88CEB9DBCEC9AB4EC9584EC7E
:2008C0009B8328ECA084EC9B90EBB680ECA1B1292A2A2000EC99B8EBB680EBA6ACEC858B18
:2008E00028EBB284ED8ABC2F445452292000ECA084EC9B90EC9DB8EAB08028504F52292036
:2009000000EBB688EBAA852028EBB680ED8AB8EBA19CEB8D94EAB080204D4355535220ECF8
:200920009D8420ECA780EC9AB0EAB3A020EB8498EC96B4EC9994EB8BA429005B424F4F54A8
:200940005D20EBA6ACEC858B20EC9B90EC9DB83A20000A5B5041524B494E47204E4F444558
:200960005D2070726F746F207631202F20313020736C6F7473202F206465763D5031005B13
:200980004C41444445525D2034EB8BA83A2045535020EBA6ACEC858B20ED95B4ECA09C20A3
:2009A000E2809420EBB680ED8C85EC9D8420EAB8B0EB8BA4EBA0B8EB8BA4EAB08020435738
:2009C0004D4F444520EBB680ED84B020EB8BA4EC8B9C005B4E45545D2031302043575141D7
:2009E000502028EAB2B0ED95A920ED95B4ECA09C20E2809420EC82ACEB8BA4EBA6AC203271
:200A0000EB8BA8290041542B43575141500D0A005B4E45545D20392043574C41502028EC79
:200A2000A3BCEBB38020415020EBAAA9EBA19D20E2809420ECA784EB8BA8290041542B436A
:200A4000574C41500D0A005B4E45545D2038204357434F554E5452592028ECB184EB8490FE
:200A60002031322F313320EC9AB0ED9A8C20EC8B9CEB8F8420E2809420ECA784EB8BA82932
:200A80000041542B4357434F554E5452595F4445463D302C224B52222C312C31330D0A001C
:200AA0005B4E45545D203720474D522028ED8E8CEC9BA8EC96B420ED8C9020E2809420EC3B
:200AC000A784EB8BA8290041542B474D520D0A005B4E45545D203620434950434C4F534580
:200AE0002028EB82A1EC9D8020EC868CECBC9320EB8BABEAB8B0290041542B434950434C57
:200B00004F53450D0A005B4E45545D20352043495053544152540041542B434950535441D5
:200B200052543D22544350222C223139322E3136382E33352E3231222C393939310D0A0088
:200B40005B4E45545D2034204349504D55583D300041542B4349504D55583D300D0A005BCA
:200B60004E45545D20332043494653522028495020EBA5BC20EC8BA4ECA09CEBA19C20EB64
:200B8000B09BEC9598EB8A94EAB080290041542B43494653520D0A005B4E45545D20322046
:200BA00043574A41502028EC9D91EB8BB5EAB98CECA78020ECB59CEB8C80203330ECB488F2
:200BC00020EAB8B0EB8BA4EBA6B0EB8BA4290041542B43574A41503D22534B5F5769466905
:200BE00047494741353044435F322E3447222C2232303131303530373936220D0A005B4E66
:200C000045545D20312043574D4F44453D310041542B43574D4F44453D310D0A005B4E454E
:200C2000545D2030205253540041542B5253540D0A00ED9A8C20EC8BA4ED8CA820E2869241
:200C40002041542B52535420EBA19C20ECA084ECB2B420ECB488EAB8B0ED999428EC82ACFB
:200C6000EB8BA4EBA6AC20EC8381EC8AB929005B4E45545D20434950434C4F534520005B29
:200C80004E45545D2043494653522033ED9A8CEC9790EB8F8420495020EAB08020EC9786E6
:200CA000EB8BA420E286922043574A415020EBB680ED84B020EB8BA4EC8B9C005B4E45547A
:200CC0005D20495020EAB08020EC9786EB8BA420E2869220434950535441525420EBA5BC71
:200CE00020EBB3B4EB82B4ECA78020EC958AEAB3A02043574A415020EBA19C20EB9098EBEB
:200D00008F8CEC9584EAB084EB8BA400EB8BA829005B4C41444445525D20E2869320333032
:200D2000ECB48820EC97B0EC868D20EC98A8EB9DBCEC9DB820E2809420EC82ACEB8BA4EB13
:200D4000A6ACEBA5BC2030EB8BA8EC9CBCEBA19C20EB82B4EBA6B0EB8BA42028ECA781EC37
:200D6000A08420005D20E2869220EBA781ED81ACEBA5BC20EB8BA4EC8B9C20EC84B8EC9A04
:200D8000B4EB8BA400202F20455350EBA6ACEC858B2000202F2053454E444641494C200000
:200DA000202F2053454E444F4BEC8381ED959C20002920C2B720EB8884ECA0815BEAB1B442
:200DC000EB8488EB9C802000202F20EAB1B0EBB6802000202F20EBACB4EC9D91EB8BB520DB
:200DE000006D7320EB8F99EC958820ED959C20ECA484EB8F8420EBAABB20EB8298EAB094A4
:200E0000EB8BA420286275737920005B4E45545D20E2988520ECA095ECA78020EAB090EC45
:200E2000A7803A2000206F6E6C696E653D0020736B69703D00206F6B746F3D002073656EBB
:200E4000646661696C3D0020726573796E633D00206573707273743D002064726F703D0054
:200E60005B434E545D2075703D0073002075703D00206C696E65733D002072783D00205BA4
:200E8000455350EBA6ACEC858BEC9CA0ECA780ECA4915D0020EC82ACEB8BA4EBA6AC3D00AA
:200EA0005B444941475D206F66666C696E6520737465703D00ED9A8C2028EC849CEBB284C1
:200EC000EC9D982027EBB284EBA6B0ECA4842720EAB3BC20EBA79EEC9584EC95BC20ED9560
:200EE0009CEB8BA42900204220C2B720ED9484EBA1ACED9484ED8AB820EC9EACEB8F99EA34
:200F0000B8B020005B52414D5D20ECB59CECA08020EC97ACEC9CA020000000000024002766
:200F2000002A0000000008000201000003040700000000000000005B4E45545D20EC86A19C
:200F4000EC8BA020EC98A4EBA59820EC9D91EB8BB528EBA19CEAB7B8EBA78C2C20ECB9B439
:200F6000EC9AB4ED84B0EB8A942073656E644C696E6520EC9DB420EC84BCEB8BA4293A2075
:200F8000005B4E45545D20E298852053454E44204641494C20E2809420ED8E98EC9DB4EB9C
:200FA000A19CEB939CEAB98CECA78020EC8DBCEB8A94EB8DB020ECA084EC86A1EC9DB42072
:200FC000EC8BA4ED8CA8ED9688EB8BA42E20EC8BA4ED8CA8EBA19C20EC84BCEB8BA4005B3D
:200FE0004E45545D206C696E6B206973206E6F742076616C696420E2869220ECA689EC8B76
:201000009C20EC98A4ED9484EB9DBCEC9DB82C20EB82A1EC9D8020EC868CECBC9320EB8B10
:20102000ABEAB8B028434950434C4F534529005B4E45545D206F6E6C696E652028434F4EA4
:201040004E45435429202B20ECBA90EC8B9C20EBB984EC9B80005B4E45545D206F6E6C69C9
:201060006E652028414C524541445920434F4E4E454354454420C2B720ECB488EAB8B0204D
:20108000EAB2BDED95A929005B4E45545D20414C524541445920434F4E4E4543544544200F
:2010A000E2809420EB82A1EC9D8020EC868CECBC9320EC9D98EC8BAC20ECA491EC9DB4EBDD
:2010C000AF80EBA19C20EBAFBFECA78020EC958AEB8A94EB8BA420E2869220434950434C3A
:2010E0004F5345005B4E45545D206E6F20697020E2809420495020EAB08020EC9786EB8BCC
:20110000A42E20434950535441525420EC9EACEC8B9CEB8F84EBA5BC20ECA091EAB3A02026
:2011200043574A415020EBA19C20EB9098EB8F8CEC9584EAB084EB8BA4005B4E45545D20BD
:201140002020322E3447487A20EC9DB8EAB080202F20ECA084ED8C8CEAB08020EB8BBFEB59
:201160008A94EAB080202F205353494420ECB2A0EC9E90EAB08020EBA79EEB8A94EAB08090
:20118000EBA5BC20EBB490EB9DBC2E005B4E45545D20EC84A4ECA095ED959C2053534944DD
:2011A00020EAB08020EBAAA9EBA19DEC9790202A2AEC9786EB8BA42A2A20E2869220EBB992
:2011C00084EBB28820EBACB8ECA09CEAB08020EC9584EB8B88EB8BA42E005B4E45545D208B
:2011E000202032EC889CEC9C843A20EBB984EBB080EBB288ED98B820202033EC889CEC9C37
:20120000843A20504D46283830322E313177292F5750413320ECA084ED9998EBAAA8EB93C8
:201220009C20EB8184EAB8B0005B4E45545D20202031EC889CEC9C843A20EC9C8420ECA44E
:2012400084EC9D98202A2AEBA788ECA780EBA78920EC88ABEC9E9028ECB184EB8490292A39
:201260002A20EBA5BC20EBB490EB9DBC2E2031322F313320EC9DB4EBA9B420EAB3B5EC9C62
:20128000A0EAB8B0EBA5BC20312F362F313120EBA19C20EBB094EABF94EB9DBC005B4E45C3
:2012A000545D20EC84A4ECA095ED959C205353494420EAB08020EBAAA9EBA19DEC979020C3
:2012C0002A2AEC9E88EB8BA42A2A20E2869220415020EB8A9420EBB3B4EC9DB8EB8BA42E4B
:2012E00020EAB2B0ED95A9EBA78C20EAB1B0EBB680EB909CEB8BA42E005B4E45545D20E2AD
:201300009480E2948020415020EC8AA4ECBA9420ED8C90ECA09520E29480E29480E2948052
:20132000E29480E29480E29480E29480E29480E29480E29480E29480E29480E29480E2949B
:2013400080E29480E29480E29480E29480E29480E29480E29480E29480E29480E29480E28F
:201360009480E29480005B4E45545D202020E2869220EAB3B5EC9CA0EAB8B020ECB184EB52
:201380008490EC9D8420312F362F313120EBA19C20EBB094EABEB8EB8A9420EAB283EC9D1D
:2013A000B420ED9995ECA09520ED95B4EBB295EC9DB4EB8BA4005B4E45545D204357434F53
:2013C000554E54525920EBAFB8ECA780EC9B90284552524F522920E2809420EC9DB420ED74
:2013E0008E8CEC9BA8EC96B4EBA19CEB8A9420ECB184EB84902031322F313320EC9D84209A
:20140000ECBD94EB939CEBA19C20EBAABB20EC97B0EB8BA42E005B4E45545D20E298852064
:201420004357434F554E54525920EAB08020EBA8B9EC9788EB8BA420E2809420EAB79CECB4
:20144000A09CEB8F84EBA994EC9DB820317E31332E20ECB184EB849020313220EAB2B0ED6C
:2014600095A9EC9DB420EC97B4EBA0B8EC9D8420EC889820EC9E88EB8BA4005B4E45545D33
:20148000204349504D55583D3020ECA081EC9AA9EB90A820E28692204349505354415254C6
:2014A000005B4E45545D20E2988520495020ED9995EBB3B43A20005B4C41444445525D204A
:2014C00032EB8BA83A20EAB2B0ED95A920ED95B4ECA09C20EC9984EBA38C20E2869220EA06
:2014E000B9A8EB8197ED959C20EC8381ED839CEC9790EC849C2043574A415020EC9EACEC58
:201500008B9CEB8F84005B4E45545D2043574A4150204F4B20E2809420EAB2B0ED95A9EB20
:201520009090EB8BA42E20495020EBA5BC20EC8BA4ECA09CEBA19C20EBB09BEC9598EB8AAF
:2015400094ECA78020434946535220EBA19C20ED9995EC9DB8ED959CEB8BA400ED9A8C201E
:2015600028EAB5ACED989520ED8E8CEC9BA8EC96B4EB8A9420EC82ACEC9CA0EBA5BC20EC8F
:20158000A3BCECA78020EC958AEB8A94EB8BA429005B4E45545D20E298852043574A41500F
:2015A00020EC8BA4ED8CA82000ECA091EC868D20EC8BA4ED8CA800EAB7B82053534944206B
:2015C000EC9D9820415020EBA5BC20EBAABB20ECB0BEEC9598EB8BA400EBB984EBB080EB82
:2015E000B288ED98B8EAB08020ED8B80EBA0B8EB8BA400ECA091EC868D20EC8B9CEAB08478
:20160000ECB488EAB3BC005B4E45545D20E298852043574A415020EC8BA4ED8CA820EC820C
:20162000ACEC9CA03A20005B4E45545D206275737920E280942045535020EAB08020EC9501
:201640009E20EBAA85EBA0B9EC9D8420ECB298EBA6AC20ECA491EC9DB4EB8BA42E20ECA05C
:2016600084ECA784ED9598ECA78020EC958AEB8A94EB8BA4005B4E45545D20574946492046
:20168000444953434F4E4E45435420E2809420495020EBA5BC20EC9E83EC9788EB8BA400D3
:2016A0005B4E45545D205749464920474F5420495020E2809420495020ED9995EBB3B42EEF
:2016C0002039ECB48820EB8C80EAB8B0ECB0BDEC9D8420EB819DEAB98CECA78020EAB8B0DD
:2016E000EB8BA4EBA6ACECA78020EC958AEAB3A020EBB094EBA19C20EB8BA4EC9D8C20EB47
:201700008BA8EAB384EBA19C00222028005C780022005B41545D2000000000002300260037
:20172000290000000000250028002B000404040404040404020202020202030303030303CA
:201740000102040810204080010204081020010204081020B61C4A2511241FBECFEFD8E043
:20176000DEBFCDBF84B780932B0514BE0FB6F894A895809160008861809360001092600093
:201780000FBE12E0A0E0B1E0E4E9F3E502C005900D92AA36B107D9F725E0AAE6B2E001C08E
:2017A0001D92AB32B207E1F71BE0CBEADBE004C02197FE010E948D26CA3AD107C9F70E9493
:2017C000611D0C94BD290C940000833081F028F4813099F08230A9F008958730A9F08830FB
:2017E000C9F08430B1F4809180008F7D03C0809180008F7780938000089584B58F7784BD30
:20180000089584B58F7DFBCF8091B0008F778093B00008958091B0008F7DF9CFCF93DF938C
:2018200090E0FC01E05CF84E2491845D984EFC0184918823C9F090E0880F991FFC01E75EC6
:20184000F04FA591B491FC01EE5DF84EC591D49161110DC09FB7F8948C91209582238C93CE
:201860008881282328839FBFDF91CF910895623051F49FB7F8943C91822F809583238C938D
:20188000E8812E2BEFCF8FB7F894EC912E2B2C938FBFEACF2FB7F8946091E6037091E70323
:2018A0008091E8039091E9032FBF0895EF92FF920F931F93CF93DF938C017B01D0E0C0E001
:2018C000F701EC0FFD1F6491662361F0D801ED91FC910190F081E02DC8010995892B11F01B
:2018E0002196EECFCE01DF91CF911F910F91FF90EF900895AF92BF92CF92DF92EF92FF9264
:201900000F931F93CF93DF936C017B018B01040F151FEB015E01AE18BF08C017D10759F013
:201920006991D601ED91FC910190F081E02DC6010995892B79F7C501DF91CF911F910F914D
:20194000FF90EF90DF90CF90BF90AF900895FC01538D448D252F30E0842F90E0821B930B10
:20196000541710F0CF96089501970895FC01918D828D981761F0A28DAE0FBF2FB11D5D9600
:201980008C91928D9F5F9F73928F90E008958FEF9FEF0895FC01918D828D981731F0828D1B
:2019A000E80FF11D858D90E008958FEF9FEF0895FC01918D228D892F90E0805C9F4F821B01
:2019C00091098F73992708958FE694E00E94D80C21E0892B09F420E0822F089580E090E0CF
:2019E000892B29F00E94E40C81110C9400000895FC01A48DA80FB92FB11DA35ABF4F2C9156
:201A0000848D90E001968F739927848FA689B7892C93A089B1898C91837080648C93938D15
:201A2000848D981306C00288F389E02D80818F7D80830895EF92FF920F931F93CF93DF932A
:201A4000EC0181E0888F9B8D8C8D98131AC0E889F989808185FF15C09FB7F894EE89FF892D
:201A60006083E889F98980818370806480839FBF81E090E0DF91CF911F910F91FF90EF9058
:201A80000895F62E0B8D10E00F5F1F4F0F731127E02E8C8D8E110CC00FB607FCFACFE889D3
:201AA000F989808185FFF5CFCE010E94F80CF1CFEB8DEC0FFD2FF11DE35AFF4FF0829FB726
:201AC000F8940B8FEA89FB8980818062CFCF682F8FE694E00C941A0DCF93DF93EC01888D4B
:201AE0008823B9F0AA89BB89E889F9898C9185FD03C0808186FD0DC00FB607FCF7CF8C91CA
:201B000085FFF2CF808185FFEDCFCE010E94F80CE9CFDF91CF9108952091440330914503A4
:201B20002817390771F49091420380914303981741F0E0914203F0E0EE5FFC4F808190E095
:201B400008958FEF9FEF08950895EF92FF920F931F93CF93DF93DC015C96ED90FC905D979C
:201B6000E114F10479F481E090E013969C938E93129790E080E0DF91CF911F910F91FF901C
:201B8000EF9008955196ED91FC91529750968C915097982F90950FB75E962C915E97122FCB
:201BA000127021FD6095F8942081112319F1282B2083E7012197F1F728E0462F50E0308149
:201BC00060FF1AC0382B3083E7012197F1F7BA0175956795215089F7112381F0808189232A
:201BE00080830FBF5C968D919C910197F1F781E090E0C1CF2923DCCF3923E5CF9081892B2A
:201C0000EFCF20914403309145032817390761F4809143032091420390E0805C9F4F821B0D
:201C200091098F739927089590E080E00895209144033091450328173907B9F490914203AB
:201C400080914303981789F0E0914203F0E0EE5FFC4F80812091420330E02F5F3F4F2F7322
:201C600033272093420390E008958FEF9FEF089590E080E00895282FDB01FC0191918D917F
:201C80003FE9390F3A3108F490523FE9380F3A3108F48052981306C08E2F821B841770F31A
:201CA00081E0089580E00895AC01FB0130E020E0CA01022E02C0969587950A94E2F790E382
:201CC00080FD91E391932F5F3F4F2A30310581F7FB0112860895109203041092F0031092BA
:201CE000EF038091CA039091CB038F3F980729F001969093CB038093CA0381E08093FE03C2
:201D000086E08093FD030E944A0C6093F9037093FA038093FB039093FC03109209011092E2
:201D200008010895CF93DF93382FDC01E0E02A2F231B261718F42D91E227F9CFDC01A60F24
:201D4000B11DCE2FD0E084E0D595C7958A95E1F7CE5BDE4F88818C93EF70F0E0EE5BFE4FA4
:201D6000808111968C93119712961C9282E0860FDF91CF910895CF93DF93EB018093FD0367
:201D80000E944A0C6093F9037093FA038093FB039093FC03D0930901C0930801DF91CF9190
:201DA0000895E091EB03AE2FB0E035E0E39FF0011124E652FD4F9183808362834383248310
:201DC0001196A770BB27A093EB038091EA03883018F48F5F8093EA0308959091C303992352
:201DE00091F021E030E002C0220F331F8A95E2F78091C1039091C2032823392381E0232B03
:201E000019F080E0089581E00895FB0101900020E9F73197AF01461B570BDC01ED91FC910E
:201E20000280F381E02D099467E771E08FE694E00C94050FCF93DF93BC018FE694E00E94AA
:201E4000560CEC010E94140F8C0F9D1FDF91CF9108958F929F92AF92BF92EF92FF920F9312
:201E60001F93CF93DF93CDB7DEB7A1970FB6F894DEBF0FBECDBF7C01FA01CB0119A22230F3
:201E800008F42AE08E010F5D1F4F822E912CB12CA12CBF01A50194010E943C26F901CA01F8
:201EA0006A300CF5605DD8016E938D01232B242B252B79F790E080E0109721F0BD01C701F7
:201EC0000E94050FA1960FB6F894DEBF0FBECDBFDF91CF911F910F91FF90EF90BF90AF9012
:201EE0009F908F900895695CDECF482F50E070E060E02AE08FE694E00C94290F8091F0037F
:201F00008F3F19F08F5F8093F00361E178E08FE694E00E94560C8091F0030E94750F8FE2D4
:201F20000E94670D83E00E94750F0E94140F8091F003833080F063E078E08FE694E00E94F0
:201F4000560C8091F0030E94750F80EB97E00E941A0F0C946B0E0895AB0170E060E02AE04C
:201F60000C94290FCF93DF93BC018FE694E00E94AC0FEC010E94140F8C0F9D1FDF91CF91D9
:201F8000089581E0809301048091C8039091C9038F3F980729F001969093C9038093C80378
:201FA0006EE577E08FE694E00E94560C8091C8039091C9030C94B20FCF92DF92EF92FF927C
:201FC000CF93DF930E944A0C6B017C01D0E0C0E00E944A0C6C197D098E099F0968377105A5
:201FE0008105910578F48CE095E00E94010E892B79F38CE095E00E94170ECF3FDC0799F382
:202000002196F1CF1092CB021092CA021092AA0361EC70E08FE694E00E94560CBE018FE65F
:2020200094E00E94AC0F89E990E0DF91CF91FF90EF90DF90CF900C941A0F8F929F92AF92E5
:20204000BF92CF92DF92EF92FF92CF93DF93C82F0E944A0C6B017C018091D002882319F107
:202060008091CC029091CD02A091CE02B091CF02A7019601281B390B4A0B5B0BDA01C90158
:20208000883E9340A105B10570F481EA94E0DF91CF91FF90EF90DF90CF90BF90AF909F909F
:2020A0008F900C941A0F81E08093D002C092CC02D092CD02E092CE02F092CF0260E974E06F
:2020C0008FE694E00E94560C60E874E0C13031F06FE674E0C23011F064E674E08FE694E042
:2020E0000E94560C65E574E08FE694E00E94560C8091460390914703A0914803B091490383
:20210000A7019601281B390B4A0B5B0BCA01B90128EE822E23E0922EA12CB12CA50194014B
:202120000E943C26BA01A9012AE08FE694E00E94290F68E474E08FE694E00E94560C8091CB
:2021400009040E94750F63E374E08FE694E00E94560C8091040490910504A0910604B09106
:2021600007040097A105B10509F45CC0A7019601281B390B4A0B5B0BCA01B901A501940107
:202180000E943C26BA01A9012AE08FE694E00E94290F83E70E94670D60E274E08FE694E00A
:2021A0000E94560C8091D6030E94750F6BE174E08FE694E00E94560C8091D5030E94750F6F
:2021C0008FE094E00E941A0F109204041092050410920604109207048091D603C23049F589
:2021E000833038F583E08093D6031092D50381EB93E00E941A0F809109048230F0F18091CA
:20220000FF0381113AC064EF71E087E0DF91CF91FF90EF90DF90CF90BF90AF909F908F909D
:202220000C94BB0E6CE274E08FE694E00E94560CB3CF9091D5039E3F18F49F5F9093D50349
:20224000E82FF0E0E55EFE4F20819091D503921790F2853080F68F5F8093D6031092D503C3
:2022600061E973E08FE694E00E94560C8091D6030E94750F8DE893E0BCCF8091D603E82F50
:20228000F0E0EE0FFF1FE15FFE4FC081D181823009F445C0F0F48823E1F18130C1F18FE844
:2022A00091E00E941A0F8AE391E00E941A0F68E171E08FE694E00E94560CCE0168EE73E03A
:2022C0000E9479268FE694E00E94AC0F8CEE90E04FC08330E1F1843011F787E892E00E94BA
:2022E0001A0F83E292E00E941A0F6DE072E08FE694E00E94560CCE0168EE73E00E947926CE
:202300008FE694E00E94AC0F87EE91E031C00E94DC0F109202046CE271E083E077CF66E7D6
:2023200073E08FE694E00E94560CCE0168EE73E00E9479268FE694E00E94AC0F88E293E081
:202340000E941A0F10920A04BE018AE05FCF61E173E08FE694E00E94560CCE0168EE73E0B1
:202360000E9479268FE694E00E94AC0F85EE92E00E941A0F10920A04BE0180E047CFCF93DF
:20238000DF93D0E0C0E0009731F0BC018FE694E00E94050FEC010E94140F8C0F9D1FDF91EE
:2023A000CF9108954091D0035091D1036091D2037091D3034F5F5F4F6F4F7F4F4093D0039C
:2023C0005093D1036093D2037093D3038A3009F03FC08091CA02882391F066E870E08FE6D7
:2023E00094E00E94560C80E60E94750F88E690E00E941A0F1092CB021092CA0208954091E5
:20240000CB024423B9F150E0FA01E659FD4F10821092CB028091D502882381F08091AA0365
:20242000811128C04F5F5F4F6AE672E08AE493E00E94932681E08093AA0308954F5F5F4FCE
:202440006AE672E08BE094E00E9493260C943B178D3081F0E091CB02EF3520F081E080939A
:20246000CA02089591E09E0F9093CB02F0E0E659FD4F808308958CE095E00E94010E892BA4
:2024800039F08CE095E00E94170E0E94D211F3CF08953F924F925F926F927F928F929F9280
:2024A000AF92BF92CF92DF92EF92FF920F931F93CF93DF931F92CDB7DEB79E012B52354023
:2024C00040910601509107012417350720F4309307012093060100910304011102C000E0DF
:2024E0003EC1FC0101900020E9F731977F01E81AF90A9E2C2FEF2E0D2F3388F76C01809180
:20250000EF038823B1F10E944A0C4090D6025090D7026090D8027090D902641975098609F4
:202520009709603D77408105910588F48091C4039091C5038F3F980729F001969093C50346
:202540008093C4038CE796E00E941A0FC8CF1092EF038091C6039091C7038F3F980729F077
:2025600001969093C7038093C6038BE196E00E941A0F81E08093D5020E944A0C4090D10268
:202580005090D2026090D3027090D4026419750986099709603571058105910518F40E94ED
:2025A0003B12EACF6FE076E08CE095E00E94560CFF2457018FEFA81AB80AB5018CE095E077
:2025C0000E94AC0F6CE076E08CE095E00E94560C0E944A0C2B013C01812C312C0E944A0CB4
:2025E00064197509860997096C3271408105910508F044C08CE095E00E94010E892B71F3A0
:202600008CE095E00E94170E182F8E3309F45FC00E94D2118FEB810F8A3108F4105EE32D2A
:20262000F0E0E95DFE4F80813394811729F033243394123609F0312CE32DF0E0E95DFE4F8F
:202640008081882309F49FC0E82DF0E0EF5DFE4F80818394811729F088248394153609F024
:20266000812CE82DF0E0EF5DFE4F80818111C2CF12E085E695E00E941A0F42C013E0F12C5C
:2026800063E28CE095E00E94A50DF394F914C0F36AE08CE095E00E94A50D8091DB039091EA
:2026A000DC038F3F980729F001969093DC038093DB0369E375E08FE694E00E94560CB501E7
:2026C0008FE694E00E94AC0F8BEF94E0D4CF10E0A701B6018CE095E00E947A0C6AE08CE015
:2026E00095E00E94A50D81E08093EF030E944A0C6093D6027093D7028093D8029093D90221
:202700000E944A0C6093D1027093D2028093D3029093D4021092D5026AEE74E0111102C03A
:2027200065EF74E08FE694E00E94560CC6010E94BF111130C9F111112AC01092F0030E948D
:202740004A0C6093F1037093F2038093F3039093F4031092B1031092B2031092B303802F6D
:202760000F90DF91CF911F910F91FF90EF90DF90CF90BF90AF909F908F907F906F905F90E5
:202780004F903F90089511E086EA95E074CF0E947E0F123091F48091B1038F3F09F49FCEE2
:2027A0008F5F8093B1039BCE8091B3038F3F09F496CE8F5F8093B30392CE8091B2038F3F5A
:2027C00009F48DCE8F5F8093B20389CE0F931F93CF93DF93CDB7DEB768970FB6F894DEBF66
:2027E0000FBECDBF1F922F93242F042E000C330B3F934F93262F062E000C330B3F936F93E3
:202800009F938F938AE791E09F938F931F9288E18F938E010F5F1F4F1F930F930E94D82693
:202820000FB6F894DEBF0FBECDBF18161906C4F49C012D5F3F4F2931310590F4682FC80121
:202840000E94920EC8010E94491268960FB6F894DEBF0FBECDBFDF91CF911F910F9108956E
:2028600080E0F3CF6F927F928F929F92AF92BF92CF92DF92EF92FF920F931F93CF93DF9334
:20288000CDB7DEB72E970FB6F894DEBF0FBECDBFDC010D900020E9F79D0121503109281B0D
:2028A000390B122F4FEF420F4F3308F056C0FC014081423539F0433429F0443519F04D3483
:2028C00009F04BC0DC01FC0170E060E04FEF5FEF01910C3209F4AB016F5F7F4F6117C0F3BE
:2028E0008C014F3F540781F13327241B350B2330310551F5FC01E40FF51F818120ED280FFE
:202900002A3030F09FEB980F9630F0F429EC280F928180ED890F8A3030F08FEB890F86305C
:2029200098F489EC890F4F5FF80190E03E2F301B341718F431919327F9CF40E1249F90011F
:202940001124822B8917F1F064ED76E08FE694E00E94560CC8010E94BF112E960FB6F89430
:20296000DEBF0FBECDBFDF91CF911F910F91FF90EF90DF90CF90BF90AF909F908F907F907A
:202980006F900895CE0101969C012C52354040910601509107012417350720F4309307018E
:2029A000209306011A830983DD24D3942D91222309F454C22C32D1F7FD0131971082E6E072
:2029C000ED1558F2ED2DF0E0EE0FFF1FE80FF91FB183A083D394EACFF4E516E0C12EBF168D
:2029E00039F02DE403E0C02EB21611F0B4E0CB2E42E04D1508F0B1CFAB81BC81109709F46D
:202A0000ACCF8C91882309F4A8CF7D0120E030E0A901D701FD917D01FF23E9F080ED8F0FDD
:202A20008A3008F09ACFAAE0B0E00E9429262F2FFF0F330B20533109032E000C440B550B2D
:202A4000260F371F481F591F21153105B1E04B075105F8F282CF89012091EA038AED92E01B
:202A6000F12C2F1551F00596DC0115974D915C9104171507C1F4F7FE18C0CD1471F161E484
:202A800077E08FE694E00E94560CC8010E94B20F23E04FE36FE3C8010E94D10E23E04FE3C0
:202AA0006FE3C80117C0F394DCCF63E577E08FE694E00E94560CC8010E94B20F2F2D45E0B9
:202AC0002402F0011124E652FD4F248143816281808191810E94E61340CF84E5B812A2C088
:202AE000ED81FE818181811193C02081213469F02434E9F41092C3031092C2031092C10349
:202B00001092AE031092AD0303C081E08093C303EFE3EE2EFFE3FF2ED12C2D2D4E2D6F2DA8
:202B2000C8010E94D10E2D2D4E2D6F2DBACF233519F0283509F06CC0AF81B885C984DA8456
:202B4000FD0101900020E9F7CF0103978A179B0709F05EC0FC9011968C913FEC380F3530FB
:202B600008F056C0F1E4FF1609F481C142E4F4124FC034ED380F233571F4D6018C918053F7
:202B8000823008F045C011968C91811141C061E4F62E353010F072E4F72E832F65E00E944D
:202BA0006D2651E3E52EE90E8091C3038823B9F181E090E002C0880F991F3A95E2F74091BD
:202BC000C1035091C2036091AD037091AE032335B1F4F6012081482B592B5093C203409331
:202BE000C103203339F0862B972B9093AE038093AD0392CF8095909586239723F6CF8095B3
:202C00009095482359235093C2034093C103F4CF2FE3E22E3FE3F32E43E0D42E7ECF94E05B
:202C2000D92E7BCFFDE4BF12AEC0A090BD03B090BE036090AB037090AC03D12CC12C88244F
:202C40008394912CEC2C8C2D0E94ED0E882309F446C0C4010C2C02C0880F991F0A94E2F7FF
:202C60009C012A213B21232BD1F19C0126213721232BA9F5682A792A7092AC036092AB0352
:202C800094E082E4D82E9E1510F0E1E4DE2E8E2D65E00E946D2671E3F72EF90E6FEF76E067
:202CA0008FE694E00E94560C8D2D0E94670D8F2D0E94670D60EF76E08FE694E00E94560CF3
:202CC0008091AB039091AC0302C096958795EA94E2F7817099270E94B20FE12C4AC02FEFBC
:202CE000C21AD20A4AE0C416D10409F0ABCFF12CE12C8E2D0E94ED0E8111F394E3948AE054
:202D0000E812F7CFFF2059F10E94B2252F2D30E050E040E00E940A26F62EE12C8E2D0E94F5
:202D2000ED0E8823C1F08FEF8F0DF11013C021E030E00E2C02C0220F331F0A94E2F7809136
:202D4000AB039091AC03822793279093AC038093AB0396CFF82EE3949AE0E912DFCF82E177
:202D600097E00E941A0FFFE3FF2EAFE3DA2EB5E0EB2E2E2D4F2D6D2DC8010E94D10E2E2DA4
:202D80004F2D6D2D8ECEAD81BE81FD0101900020E9F7CF0103978A179B07C9F511968C9196
:202DA00011972FEC280F253090F5EC90F1E4EF1629F022E4E2122BC024ED280F822F65E0AD
:202DC0000E946D2631E3D32ED90E81E090E002C0880F991F2A95E2F742E5B41231C02091B9
:202DE000BF033091C00328233923FF24F394232BE9F42091BD033091BE03AC014223532396
:202E0000822B932B452B21F192E0F92E0FC060EE76E08FE694E00E94560CC8010E94B20FA0
:202E20004FE3D42E5FE3E52E63E0F62E2F2D4D2D6E2DC8010E94D10E2F2D4D2D6E2D31CE77
:202E4000809590952091BD033091BE03822393239093BE038093BD03F12CE8CFE981FA817A
:202E6000B08082E5B812B8CDA5E0CA2EC1CD233509F093CE82CEBF92CF92DF92EF92FF922A
:202E80000F931F93CF93DF9380916B0490916C04A0916D04B0916E040196A11DB11D80936E
:202EA0006B0490936C04A0936D04B0936E0462E177E18FE694E00E94560C0BE014E0F80157
:202EC00001900020E9F78F010C501440B02E60E177E18FE694E00E94560C9BE0E92E94E0B7
:202EE000F92E6701D0E0DB1528F5F601C1916F0180EE8C0F8F3528F48C2F0E94670DDF5FD5
:202F0000F2CF6DE077E18FE694E00E94560CEC2FF0E084E0F595E7958A95E1F7EE5BFE4F7C
:202F200080810E94670DCF70EC2FF0E0EE5BFE4F8081E3CF69E077E18FE694E00E94560C79
:202F4000802F0E94750F89E20E94670D0E94140F68E871E08BE094E00E94BE26009791F038
:202F60006AE370E00E949C260097D9F10196DF91CF911F910F91FF90EF90DF90CF90BF900D
:202F80000C94321444E050E06EE871E08BE094E00E94B026892B09F04DC063E971E08BE037
:202FA00094E00E94BE26892B31F181E080930A0410920904109208040E944A0C609304046F
:202FC00070930504809306049093070480EA96E10E941A0F8091030468EC70E0882309F48A
:202FE000DDC0DF91CF911F910F91FF90EF90DF90CF90BF9008956AE971E08BE094E00E9427
:20300000BE26892B71F310920A0485E796E10E941A0F809103048111E4CF10920804DF91DB
:20302000CF911F910F91FF90EF90DF90CF90BF900C941D10809103048111B9C1C0910A0168
:20304000CB3008F0B4C165EA71E08BE094E00E94BE26892BC1F087E296E10E941A0F8091E2
:203060000A019DEF980F933008F0BBCF6CED75E0DF91CF911F910F91FF90EF90DF90CF9023
:20308000BF900C94BB0EC23009F08AC047E050E06AEA71E08BE094E00E94B026892BA1F5A6
:2030A00067E076E18FE694E00E94560C80911204823321F17CF48133A1F08BE094E0DF9193
:2030C000CF911F910F91FF90EF90DF90CF90BF900C94BF118333A9F0843379F789EA95E146
:2030E00002C083EF95E1DF91CF911F910F91FF90EF90DF90CF90BF900C941A0F89ED95E126
:20310000F2CF87EB95E1EFCF60E372E08BE094E00E94BE26892B41F462EB71E08BE094E0E8
:203120000E94BE26892BD9F0809109048A3F18F48F5F8093090410920A041092080461E9E3
:2031400075E18FE694E00E94560C809109040E94750F8CE595E10E941A0F80E060CF68E25D
:2031600072E08BE094E00E94A726892B09F098C286E095E10E941A0F1092090410920204AA
:20318000109208040E944A0C609304047093050480930604909307046CE271E083E068CFFE
:2031A000CA3009F568E272E08BE094E00E94A726892B89F062EB71E08BE094E00E94BE26FD
:2031C000892B49F468EB71E08BE094E00E94BE26892B09F465C287EB94E10E941A0F64EF18
:2031E00071E082E045CFC33009F05AC243E050E06EEB71E08BE094E00E94B026892B09F4FB
:203200004FC28BE094E04AE001C0CD01DC012D91222309F437C220532A30B8F7F4E08B3024
:203220009F0731F0FC013197208120532A3068F3FC0130E090E020E0819150ED580F5A307C
:2032400030F4249F800D112420ED280FF5CF911101C0322F8E3211F49F5FEDCF9330A9F618
:20326000332399F281E080930A0410920204109201048091040490910504A0910604B091DD
:203280000704892B8A2B8B2B51F40E944A0C6093040470930504809306049093070461EA2A
:2032A00074E18FE694E00E94560C8BE094E00E94BF1168EC70E084E0DBCE883069F568E26A
:2032C00072E08BE094E00E94A726892BB1F062EB71E08BE094E00E94BE26892BB1F469EE46
:2032E00071E08BE094E00E94BE26892B09F45FC010920A0484EE90E14EC086E194E10E9429
:203300001A0F6CE271E089E0B3CE86EB93E10E941A0F86E693E1F3CF893009F747E050E099
:203320006CEC71E08BE094E00E94B026892B69F464ED71E08BE094E00E94BE26892B09F4C4
:2033400050CE81E0809300044CCE68E272E08BE094E00E94A726892B49F062EB71E08BE0DD
:2033600094E00E94BE26892B09F4B9CF81E08093FF0389EF92E10E941A0F8091000488232E
:2033800079F08DE992E10E941A0F89E292E10E941A0F8AED91E10E941A0F68EE73E021CF1A
:2033A0008CE891E10E941A0F8AE391E1F4CF6FEE71E08BE094E00E94BE26892B09F442C0F4
:2033C0006DE971E08BE094E00E94BE26892BD1F18091FE038823B1F088E890E10E941A0F61
:2033E00086E08093FD030E944A0C6093F9037093FA038093FB039093FC03109209011092EC
:203400000801EFCD81E0809303040E944A0C6093F5037093F6038093F7039093F8030E94C0
:203420004A0C6093F1037093F2038093F3039093F4031092F0031092EF031092EE0386E50D
:2034400090E151CEC701F7012081FFEFEF1AFF0A2032C1F32930B1F32053253028F4FC0197
:2034600021812C3209F40296FC0101900020E9F73197E81BF90B2E2FE80FF92FF11D22238B
:2034800009F45AC03291303219F03B7F393011F42150F5CF47E06DE971E0273031F02630EE
:2034A00009F04AC046E065EF71E00E943B0E882309F442C0C1E0C09303040E944A0C6093C3
:2034C000F5037093F6038093F7039093F8030E944A0C6093F1037093F2038093F3039093CA
:2034E000F4031092F0031092EF031092FE031092EE031092090410920204C0930A048091AD
:20350000040490910504A0910604B0910704892B8A2B8B2B51F40E944A0C60930404709398
:20352000050480930604909307041092EB031092EA038FE290E1D7CD6CEF71E08BE094E007
:203540000E94BE26892BB9F463E072E08BE094E00E94BE26892B79F46AE072E08BE094E0EE
:203560000E94BE26892B39F480910304811127C08BE094E0FCCC109203041092F0031092CC
:20358000EF031092FE031092EE031092EB031092EA0383E08093FD030E944A0C6093F90387
:2035A0007093FA038093FB039093FC038CE291E090930901809308011092020412CD61E1E7
:2035C00072E08BE094E00E94BE26892B79F08FED9FE00E941A0FDF91CF911F910F91FF90A2
:2035E000EF90DF90CF90BF900C946B0E47E050E063E272E08BE094E00E94B026892B19F410
:203600001092EF03EECC49E050E06BE272E08BE094E00E94B026892BE9F41092EF038091D7
:20362000EC039091ED038F3F980729F001969093ED038093EC0381E89FE00E941A0FDF9135
:20364000CF911F910F91FF90EF90DF90CF90BF900C947E0F62EB71E08BE094E00E94BE265F
:20366000892B49F465EA71E08BE094E00E94BE26892B09F47DCF67E37FE08FE694E00E9423
:20368000560C1BCD65E372E08BE094E00E94A726892B31F480910104811102C00E94C10F43
:2036A00080910A01843009F008CE68E272E08BE094E00E94A726892B49F062EC71E08BE08A
:2036C00094E00E94BE26892B09F409CE8BE794E10E941A0F68EC70E085E0CACC1F920F92C5
:2036E0000FB60F9211242F933F938F939F93AF93BF938091E6039091E703A091E803B09151
:20370000E9033091E50323E0230F2D3758F50196A11DB11D2093E5038093E6039093E70367
:20372000A093E803B093E9038091E1039091E203A091E303B091E4030196A11DB11D8093CC
:20374000E1039093E203A093E303B093E403BF91AF919F918F913F912F910F900FBE0F90BF
:203760001F90189526E8230F0296A11DB11DD2CF1F920F920FB60F9211242F933F934F9385
:203780005F936F937F938F939F93AF93BF93EF93FF938FE694E00E94F80CFF91EF91BF9138
:2037A000AF919F918F917F916F915F914F913F912F910F900FBE0F901F9018951F920F9250
:2037C0000FB60F9211242F938F939F93EF93FF93E0917F04F09180048081E0918504F091AF
:2037E000860482FD1BC09081809188048F5F8F7320918904821741F0E0918804F0E0E15938
:20380000FB4F958F80938804FF91EF919F918F912F910F900FBE0F901F9018958081F4CF50
:203820001F920F920FB60F9211242F933F934F935F936F937F938F939F93AF93BF93EF93B5
:20384000FF93E0914403F0914503309749F0A685B7858585968D91FF14C09C918923A1F4EF
:20386000FF91EF91BF91AF919F918F917F916F915F914F913F912F910F900FBE0F901F902E
:2038800018959C91892361F7A389B4899C918589809589238C93868997890197F1F7608D2A
:2038A000718DA685B785558538E020E0CB010197F1F7822F90E095958795282F4C91452362
:2038C00009F02068315091F7868D81FD20958091430390E001968F739927309142033817A3
:2038E00099F0A0914303B0E0AE5FBC4F2C9380934303828D938D0197F1F7A389B4898C91D3
:203900009589892B8C93ACCF868D8160868FF1CF1F93CF93DF93282F30E0F901ED5DF04F02
:203920008491F901E05CF84ED491F901E45DF84EC491CC23A9F0162F81110E94E50BEC2FAF
:20394000F0E0EE0FFF1FEE5DF84EA591B4918FB7F894EC91111108C0D095DE23DC938FBF14
:20396000DF91CF911F910895DE2BF8CF109272041092710488EE93E0A0E0B0E080937304A8
:2039800090937404A0937504B093760427E531E03093700420936F0425EC30E030937C0445
:2039A00020937B0424EC30E030937E0420937D0420EC30E03093800420937F0421EC30E086
:2039C000309382042093810422EC30E0309384042093830426EC30E0309386042093850418
:2039E000109288041092890410928A0410928B0410920F0510920E0580931005909311053D
:203A0000A0931205B093130589E691E090930D0580930C0510922305109222051092250569
:203A2000109224051092270510922605109229051092280560912A056E7F6D7F60932A0566
:203A40006695617081E0682787E00E94881C61E087E00E940E0CE7E4F7E1E491E0931C05ED
:203A6000E3E3F7E1E491F0E0EE0FFF1FEE5DF84E8591949190931E0580931D0560E088E059
:203A80000E940E0C80912A0581FD04C061E088E00E94881C88E080931805E8E4F7E1E49148
:203AA000E0931905E4E3F7E1E491F0E0EE0FFF1FE85EF84E8591949190931B0580931A053A
:203AC0000895CF93DF93CDB7DEB7C057D1090FB6F894DEBF0FBECDBF789484B5826084BDBC
:203AE00084B5816084BD85B5826085BD85B5816085BD80916E00816080936E0010928100AC
:203B0000809181008260809381008091810081608093810080918000816080938000809180
:203B2000B10084608093B1008091B00081608093B00080917A00846080937A0080917A0040
:203B4000826080937A0080917A00816080937A0080917A00806880937A001092C100E09129
:203B60007F04F091800482E08083E0917B04F0917C041082E0917D04F0917E0480E180837C
:203B800010928704E0918304F091840486E08083E0918104F0918204808180618083E0913B
:203BA0008104F0918204808188608083E0918104F0918204808180688083E0918104F0912D
:203BC000820480818F7D80831092270510922605109225051092240510922305109222058A
:203BE0008DE991E0909329058093280590911805963108F047C02DEB30E030932305209383
:203C000022052BE931E030932505209324052CE231E030932705209326052091680084E026
:203C2000983048F031E09E3008F430E081E001C0880F3A95EAF7822B809368002DE630E0E5
:203C4000983050F02BE630E09E3030F02CE630E0963110F030E020E03093200520931F0595
:203C6000292F30E0983008F0ABC381E001C0880F9A95EAF78093210580912805909129051F
:203C80000197F1F78091260590912705892B49F1E0914403F091450325E0EC30F20709F198
:203CA000309739F0A389B4899C918589809589238C9380912A058E7F80932A051092430319
:203CC000109242038CE095E09093450380934403E0911F05F0912005808190912105892B20
:203CE000808381E480937C0080917A00806480937A0080917A0086FDFCCF409178005091CE
:203D00007900052E000C660B770B3FB7F8948091E1039091E203A091E303B091E40326B561
:203D2000A89B05C02F3F19F00196A11DB11D3FBFBA2FA92F982F8827820F911DA11DB11DE1
:203D4000E2E0880F991FAA1FBB1FEA95D1F78A019B01082719272A273B27481759076A07EF
:203D60007B0721F0C901B8010E9401261092C3031092C2031092C1031092AE031092AD038A
:203D800086E091E09093AC038093AB031092FD030E944A0C6093F9037093FA038093FB031F
:203DA0009093FC0384EF91E0909309018093080182E599E00E941A0F6BE379E08FE694E079
:203DC0000E94560C80912B05811107C381E099E00E941A0F6AE778E08FE694E00E94560C07
:203DE0006FE378E08FE694E00E94560C6AE278E08FE694E00E94560C86E298E00E941A0FF0
:203E00001E0137E5230E311CAE01445B5F4FA4965FAF4EAFA49798EE892E93E0992EA12C29
:203E2000B12CCE018F5B9F4FA6969FAF8EAFA697DE0111967D010E944A0C2B013C01809184
:203E40000304882309F4F2C28091D603882339F18091F5039091F603A091F703B091F803B6
:203E6000A3019201281B390B4A0B5B0BDA01C90180339547A105B10594F061E17DE08FE6A1
:203E800094E00E94560C8091D6030E94750F8CE09DE00E941A0F1092D6031092D5030E944F
:203EA0003B128091AA03882369F080E6EAE4F3E0ABE0B4E001900D928A95E1F71092AA0357
:203EC0000E943B173091C303A9963FAFA997C090C103D090C2036091AB037091AC034091A1
:203EE000AD035091AE0330E020E010E000E0E22FA9968FADA997882309F4BFC4C601022EB2
:203F000002C0969587950A94E2F780FFB6C4CA010E2E02C0969587950A94E2F7817049F077
:203F200081E090E002C0880F991FEA95E2F7082B192B2F5F3F4F2A303105C9F61093C003FF
:203F40000093BF03A9969FADA997992309F497C4A896DFAECEAEA89780910401909105016A
:203F60008017910709F092C42091BD033091BE0380910201909103012817390709F086C4D5
:203F80008091000190910101A8962EAD3FADA8978217930709F07AC41092BC03E091BC03AD
:203FA000EE23A9F08091B8039091B903A091BA03B091BB03B301A201481B590B6A0B7B0BA8
:203FC000E1E044365105610571050CF4E0E090910304992309F48FC08091F1039091F20369
:203FE000A091F303B091F403A3019201281B390B4A0B5B0B203137424105510508F456C46D
:204000006BE07EE08FE694E00E94560C8091F1039091F203A091F303B091F403B301A20139
:20402000481B590B6A0B7B0B2AE08FE694E00E94290F61EE7DE08FE694E00E94560C809147
:20404000B3030E94750F63ED7DE08FE694E00E94560C8091B2030E94750F68EC7DE08FE6D8
:2040600094E00E94560C8091B1030E94750F61EB7DE08FE694E00E94560C6091C40370918E
:20408000C5038FE694E00E94AC0F60EA7DE08FE694E00E94560C6091C6037091C7038FE684
:2040A00094E00E94AC0F63E97DE08FE694E00E94560C6091EC037091ED038FE694E00E943D
:2040C000AC0F65E87DE08FE694E00E94560C6091C8037091C9038FE694E00E94AC0F84E655
:2040E0009DE00E941A0F1092B1031092B2031092B3030E946B0E8091CC039091CD03A09156
:20410000CE03B091CF03A3019201281B390B4A0B5B0BDA01C90180369A4EA105B10508F4A7
:2041200081C04092CC035092CD036092CE037092CF0360E67EE08FE694E00E94560CC301FF
:20414000B201A50194010E943C26BA01A9012AE08FE694E00E94290F69E57EE08FE694E0A6
:204160000E94560C6091CA037091CB038FE694E00E94AC0F60E57EE08FE694E00E94560CD8
:204180006091C8037091C9038FE694E00E94AC0F67E47EE08FE694E00E94560C6091DB03EB
:2041A0007091DC038FE694E00E94AC0F6CE37EE08FE694E00E94560C6091EC037091ED036E
:2041C0008FE694E00E94AC0F65E37EE08FE694E00E94560C6091C6037091C7038FE694E098
:2041E0000E94AC0F6EE27EE08FE694E00E94560C6091C4037091C5038FE694E00E94AC0F00
:2042000065E27EE08FE694E00E94560C4091030450E070E060E02AE08FE694E00E94290FA7
:204220000E94140F80910304811180C08091D7039091D803A091D903B091DA03A301920186
:20424000281B390B4A0B5B0BDA01C901883B9B40A105B10508F46AC04092D7035092D803EE
:204260006092D9037092DA0360EA7EE08FE694E00E94560C8091FD030E94750F64E97EE01A
:204280008FE694E00E94560C8091D6030E94750F8FE20E94670D8091D5030E94750F80917A
:2042A000D403882331F06EE77EE08FE694E00E94560C69E77EE08FE694E00E94560C40914F
:2042C000D0035091D1036091D2037091D3032AE08FE694E00E94290F61E77EE08FE694E05D
:2042E0000E94560C40916B0450916C0460916D0470916E042AE08FE694E00E94290F6CE635
:204300007EE08FE694E00E94560CC301B201A50194010E943C26BA01A9012AE08FE694E044
:204320000E94290F8AE69EE00E941A0F8091DD039091DE03A091DF03B091E003A301920189
:20434000281B390B4A0B5B0BDA01C90180369A4EA105B10540F14092DD035092DE036092E4
:20436000DF037092E00364E07FE08FE694E00E94560C60910601709107018FE694E00E945A
:20438000AC0F66EE7EE08FE694E00E94560C6091DB037091DC038FE694E00E94AC0F85EB5E
:2043A0009EE00E941A0F80E090E0892B09F443CD0E94E40C882309F43ECD0E94000038CD37
:2043C0009E3040F42850310981E001C0880F2A95EAF750CC2E503109F7CF80FF06C06EEE95
:2043E00078E08FE694E00E94560C80912B0581FF06C064ED78E08FE694E00E94560C80914A
:204400002B0582FF06C061EB78E08FE694E00E94560C80912B0583FF06C066EA78E08FE6EE
:2044200094E00E94560C0E94140FD4CC8091D403882379F077FC0DC01092D4030E94DC0F5D
:204440006CED75E081E00E94BB0E8FE799E00E941A0F8091D403811122CD8091F903909191
:20446000FA03A091FB03B091FC03B301A201481B590B6A0B7B0B8091080190910901B0E0E2
:20448000A0E0481759076A077B0708F408CD8091FD03853059F480910A04811107C08CEB17
:2044A0009CE00E941A0F82E08093FD031091FD03123091F480910804882309F455C010925C
:2044C0000804809109048A3F18F48F5F8093090481E00E941D10E3CC1B3008F060C0E12F7D
:2044E000F0E0EB58FD4D0C948D2680229122CF22F7223B235C238123C423E52306242A24C5
:2045000069E27CE08CE095E00E94560C6DE17CE08FE694E00E94560C0E94140F1092080405
:204520003EC06FE07CE08CE095E00E94560C6EEF7BE08FE694E00E94560C0E94140F81E022
:2045400080930A014092F9035092FA036092FB037092FC0340E253E0509309014093080181
:204560001F5F1093FD039BCC6FEC7BE08CE095E00E94560C68E97BE08FE694E00E94560C7F
:204580000E94140F81E0809308040E944A0C609346037093470380934803909349031093E5
:2045A0000A014092F9035092FA036092FB037092FC03E12FF0E0EE0FFF1FE45DFE4F8081C8
:2045C00091819093090180930801EEEFE10FE93038F6F0E0E251FD4D0C948D262824162347
:2045E0005A237B23A023E3230424252428246DE87BE08CE095E00E94560C6FE57BE08FE661
:2046000094E00E94560C0E94140F83E080930A014092F9035092FA036092FB037092FC033E
:2046200084EC99E09093090180930801809102048F5F80930204833008F415C110920204FD
:2046400080910104811102C00E94C10F8FE79CE00E941A0F82E08093FD0380E00E941D101D
:204660008091FD03833009F01ACC68EE73E082E00E94BB0E14CC61E57BE08CE095E00E941D
:20468000560C60E47BE08FE694E00E94560C0E94140F84E080930A014092F9035092FA0338
:2046A0006092FB037092FC0380EB94E0909309018093080185E0D8C067E17BE08CE095E060
:2046C0000E94560C66E07BE08FE694E00E94560C0E94140F85E080930A014092F903509250
:2046E000FA036092FB037092FC03A0E4BFE1B0930901A09308018091FE038823D9F286E031
:20470000B3C068EF7AE08CE095E00E94560C60ED7AE08FE694E00E94560C0E94140F86E0D1
:2047200080930A014092F9035092FA036092FB037092FC0320E233E030930901209308011F
:204740008091EE038F5F8093EE03833008F48FC06FE67CE08FE694E00E94560C8091EE03C7
:204760000E94750F82E39CE00E941A0F1092FD031092FE031092EE0328EC30E0309309019E
:204780002093080182E0A5CE67EC7AE08CE095E00E94560C60EA7AE08FE694E00E94560C65
:2047A0000E94140F87E080930A014092F9035092FA036092FB037092FC034CED55E05093C0
:2047C00009014093080188E04FC061E87AE08CE095E00E94560C67E47AE08FE694E00E94C4
:2047E000560C0E94140F88E080930A014092F9035092FA036092FB037092FC038CED95E080
:20480000909309018093080189E02EC06CE37AE08CE095E00E94560C60E17AE08FE694E0E6
:204820000E94560C0E94140F89E080930A014092F9035092FA036092FB037092FC03A8E200
:20484000B3E2B0930901A093080181E08093FF0382E00AC065E07AE08CE095E00E94560C14
:2048600063ED79E055CE83E08093FD0318CB83E08093FD031092020412CBCB0149CBAFEF9A
:20488000BFEFA896BFAFAEAFA89766CB8091BC03811184CB81E08093BC034092B80350929E
:2048A000B9036092BA037092BB0378CB2091B4033091B5034091B6035091B703D301C201ED
:2048C000821B930BA40BB50B883E9340A105B10518F4EE2309F40FCC4091BD035091BE0311
:2048E000AB965FAF4EAFAB97B101C8010E94540EBE01645B7F4FAB968EAD9FADAB970E94B3
:20490000540E5091AF03AC965FAFAC978091B003AD968FAFAD97A9969FADA997992309F402
:204920007EC0BE016F5B7F4FC6010E94540E0E944A0CA696AFADA697AF93A596BFADA59725
:20494000BF932DE332E03F932F93A50194010E943C265F934F933F932F93A4962FADA49757
:204960002F93A3963FADA3973F933F922F92AD964FADAD974F93AC965FADAC975F9380E466
:2049800092E09F938F931F9280E48F93FF92EF920E94D8260FB6F894DEBF0FBECDBF1816F3
:2049A00019060CF068C09C012D5F3F4F2134310508F061C0682FC7010E94920EC7010E944E
:2049C0004912D82E0E944A0C6093B4037093B5038093B6039093B703DD2009F44EC0809157
:2049E000AF039091B00301969093B0038093AF031093050100930401AB962EAD3FADAB9774
:204A00003093030120930201A8964EAD5FADA89750930101409300011092BC036CCB0E94A2
:204A20004A0C2DE332E03F932F93A50194010E943C265F934F933F932F93A496BFADA497E2
:204A4000BF93A3962FADA3972F933F922F92AD963FADAD973F93AC964FADAC974F9386E54E
:204A600092E09F938F931F9280E48F93FF92EF920E94D8268FCFD12CA5CF60577E4F8F4F56
:204A80009F4F6093B8037093B9038093BA039093BB0331CB89E691E090930D0580930C05D5
:204AA00080914403909145038C50954071F4E0911F05F091200590818091210580958923DB
:204AC0008083109245031092440308958F929F92AF92BF92CF92DF92EF92FF92CF93DF93C7
:204AE000EC01688179818A819B81611571058105910521F464E279ED8BE597E02DE133EFDF
:204B000041E050E00E940A2649015A019B01AC01A7EAB1E40E9429266B017C01ACEEB4EF47
:204B2000A50194010E943726C60ED71EE81EF91EF7FE06C081E0C81AD108E10880E8F80A2B
:204B4000C882D982EA82FB82C701B6019F77DF91CF91FF90EF90DF90CF90BF90AF909F90C9
:204B60008F9008958F929F92AF92BF92CF92DF92EF92FF9260910B0170910C0180910D0187
:204B800090910E01611571058105910521F464E279ED8BE597E02DE133EF41E050E00E9412
:204BA0000A2649015A019B01AC01A7EAB1E40E9429266B017C01ACEEB4EFA50194010E94BD
:204BC0003726C60ED71EE81EF91EF7FE06C081E0C81AD108E10880E8F80AC0920B01D092A8
:204BE0000C01E0920D01F0920E01C701B6019F77FF90EF90DF90CF90BF90AF909F908F904A
:204C0000089560930B0170930C0180930D0190930E010895052E97FB1EF400940E942126A4
:204C200057FD07D00E943C2607FC03D04EF40C94212650954095309521953F4F4F4F5F4F37
:204C4000089590958095709561957F4F8F4F9F4F08950E945E26A59F900DB49F900DA49F11
:204C6000800D911D11240895B7FF0C9429260E942926821B930B0895A1E21A2EAA1BBB1B53
:204C8000FD010DC0AA1FBB1FEE1FFF1FA217B307E407F50720F0A21BB30BE40BF50B661F22
:204CA000771F881F991F1A9469F760957095809590959B01AC01BD01CF010895A29FB00157
:204CC000B39FC001A39F700D811D1124911DB29F700D811D1124911D0895991B79E004C0C4
:204CE000991F961708F0961B881F7A95C9F780950895AA1BBB1B51E107C0AA1FBB1FA6178A
:204D0000B70710F0A61BB70B881F991F5A95A9F780959095BC01CD010895EE0FFF1F059052
:204D2000F491E02D0994FB01DC0102C001900D9241505040D8F70895FC018191861721F02F
:204D40008823D9F7992708953197CF010895FB01DC018D91019080190110D9F3990B089507
:204D6000FB01DC014150504030F08D910190801919F40020B9F7881B990B0895FB01519132
:204D80005523A9F0BF01DC014D9145174111E1F759F4CD010190002049F04D914015411177
:204DA000C9F3FB014111EFCF81E090E001970895AEE0B0E0EEEDF6E20C9494290D891E89BA
:204DC0008F89988D26E02C831A83098397FF02C080E090E801979E838D83AE01455E5F4FBF
:204DE000698D7A8DCE0101960E9408274D815E8157FD0AC02F813885421753070CF49A01F9
:204E0000020F131FF80110822E96E4E00C94B029ABE0B0E0EEE0F7E20C9486297C013B01F9
:204E20008A01FC0117821682838181FFC8C1CE0101965C01F7019381F30193FD859193FFB1
:204E400081913F01882309F453C1853239F493FD859193FF81913F01853229F4B70190E0DA
:204E60000E94F828E7CF912C212C312CFFE1F31538F08B3211F190F4803209F1833229F185
:204E800037FC3CC020ED280F2A3050F536FE20C08AE0989E200D1124922E06C08D3291F024
:204EA000803371F7689430F8F30193FD859193FF81913F018111DACF21C0689431F86894F8
:204EC00032F8F2CF689433F8EFCF689434F8ECCFEAE02E9E200D1124222E689435F8E4CFFB
:204EE0008E3229F436FC04C1689436F8DDCF8C3619F4689437F8D8CF8836B1F2982F9F7D23
:204F000095549330E0F08336A1F18337C1F1833509F063C02801F2E04F0E511CF801C0808C
:204F2000D180692D70E036FC02C06FEF7FEFC6010E94E2284C01689437F882010AC00C5FD7
:204F40001F4FFFE3F98388248394912C6501E89437F833FE2DC0522C8114910471F5552053
:204F600009F468CFB70180E290E00E94F8285A94F6CFF801808189830E5F1F4FE4CF280141
:204F8000F2E04F0E511CF801C080D180692D70E036FC02C06FEF7FEFC6010E94ED284C017A
:204FA0008201D5CFB70180E290E00E94F8282A942814190409F0B0F7CECFF60137FC8591EA
:204FC00037FE81916F01B70190E00E94F82851105A94F1E08F1A9108BFCF843619F08936BE
:204FE00009F077C0F80137FE6BC060817181828193810C5F1F4FF32DFF763F2E97FF09C004
:2050000090958095709561957F4F8F4F9F4F689437F82AE030E0A5010E942829C82ECA180B
:205020008C2C432C36FE0CC0E89440F8C91440F434FE05C032FC03C0F32DFE7E4F2E892CCE
:2050400044FE95C0FE01EC0DF11D8081803309F087C0242D297E422E842D8870582E43FCE9
:2050600095C040FE8FC09C2C821418F42C0C922C981844FE91C0B70180E390E00E94F8285E
:2050800042FE09C088E790E041FE02C088E590E0B7010E94F828C91408F48AC0CA94D12C52
:2050A0009FEFC91AD90ACA0CDB1CF60182916F01B70190E00E94F828AC14BD04B1F74FCF24
:2050C00060817181072E000C880B990B0E5F1F4F92CFD32CE894D4F82AE030E0853739F102
:2050E000232D297FD22E8F3601F148F48835A9F0F701868197812B96E2E10C94A2298037B2
:2051000049F08837A9F7D4FE02C06894D2F820E130E00DC06894D4F8F6CF34FE03C0822F8C
:205120008660D82E20E132E002C028E030E0F801D7FE0FC060817181828193810C5F1F4F36
:20514000A5010E942829C82ECA183D2CE89437F867CF6081718190E080E00E5F1F4FF0CF57
:2051600042FC02C0839478CF8394839475CF842D867809F471CFF6CFB70180E290E00E9482
:20518000F82883948214C0F3512C73CF522C5818821408F46ECFF8CF842D867809F47BCF56
:2051A0008BE241FE80E247FC8DE2B70190E071CFB70180E390E00E94F8289A946CCF8FEF93
:2051C0009FEF99CFFC010590615070400110D8F7809590958E0F9F1F0895FC016150704076
:2051E00001900110D8F7809590958E0F9F1F08950F931F93CF93DF93182F092FEB018B816D
:2052000081FD09C01FEF0FEF812F902FDF91CF911F910F91089582FF14C02E813F818C813E
:205220009D81281739073CF4E881F981CF0101969983888310838E819F8101969F838E83A4
:20524000E3CFE885F985812F0995892BA1F3DACFFA01AA27283051F1203181F1E8946F93CB
:205260006E7F6E5F7F4F8F4F9F4FAF4FB1E03ED0B4E03CD0670F781F891F9A1FA11D680FFA
:20528000791F8A1F911DA11D6A0F711D811D911DA11D20D009F468943F912AE0269F112493
:2052A0003019305D3193DEF6CF010895462F4770405D4193B3E00FD0C9F7F6CF462F4F704B
:2052C000405D4A3318F0495D31FD4052419302D0A9F7EACFB4E0A695979587957795679528
:2052E000BA95C9F700976105710508959B01AC010A2E06945795479537952795BA95C9F715
:20530000620F731F841F951FA01D08952F923F924F925F926F927F928F929F92AF92BF927F
:20532000CF92DF92EF92FF920F931F93CF93DF93CDB7DEB7CA1BDB0B0FB6F894DEBF0FBEC2
:20534000CDBF09942A88398848885F846E847D848C849B84AA84B984C884DF80EE80FD80DB
:205360000C811B81AA81B981CE0FD11D0FB6F894DEBF0FBECDBFED0108951BE0CBEADBE097
:2053800004C0FE010E948D262196CC3AD107C9F7F894FFCFFEFFFFFFFFFFFFFFF401FF015A
:2053A000000000000000008813983A307560EA0102020202FF6572726F720062757379009C
:2053C000C40920033075C409B004401F2003DC05DC052823B80B3031323334353637383958
:2053E00041424344454600000000001A0D7A0CA70C6C0DD80CB60CCA0C00000000A50D7A97
:205400000C380EA40D010E170E8C0D0D0A00412C25752C256325632C25752C002B49504468
:205420002C005749464900474F5420495000444953434F4E4E4543540062757379002B4353
:20544000574A41503A004552524F52006E6F2061700041542B006E6F206368616E67650065
:205460002B43574C41503A00534B5F5769466947494741353044435F322E3447006E6F20A9
:20548000697000414C524541004C494E4B454400434C4F53454400556E6C696E6B00554E49
:2054A0004C494E4B006C696E6B206973206E6F742076616C69640053454E44204F4B00533C
:2054C000454E44204641494C00302E302E302E3000503100532C25752C25732C25732C25FC
:2054E0006C752C25732C25732C00532C25752C25732C25732C256C752C25732C0000FFFF56
:20550000FFFFFFFFFFFFFFFFFFFFFFFFFFFFFFFFFFFFFFFFFFFFFFFFFFFFFFFFFFFFFFFFAB
:20552000FFFFFFFFFFFFFFFFFFFFFFFFFFFFFFFFFFFFFFFFFFFFFFFFFFFFFFFFFFFFFFFF8B
:20554000FFFFFFFFFFFFFFFFFFFFFFFFFFFFFFFFFFFFFFFFFFFFFFFFFFFFFFFFFFFFFFFF6B
:20556000FFFFFFFFFFFFFFFFFFFFFFFFFFFFFFFFFFFFFFFFFFFFFFFFFFFFFFFFFFFFFFFF4B
:207E0000112484B714BE81FFF0D085E08093810082E08093C00088E18093C10086E08093FC
:207E2000C20080E18093C4008EE0C9D0259A86E020E33CEF91E0309385002093840096BBAD
:207E4000B09BFECF1D9AA8958150A9F7CC24DD2488248394B5E0AB2EA1E19A2EF3E0BF2E79
:207E6000A2D0813461F49FD0082FAFD0023811F0013811F484E001C083E08DD089C0823404
:207E800011F484E103C0853419F485E0A6D080C0853579F488D0E82EFF2485D0082F10E0A0
:207EA000102F00270E291F29000F111F8ED068016FC0863521F484E090D080E0DECF84364D
:207EC00009F040C070D06FD0082F6DD080E0C81680E7D80618F4F601B7BEE895C0E0D1E0ED
:207EE00062D089930C17E1F7F0E0CF16F0E7DF0618F0F601B7BEE89568D007B600FCFDCF1A
:207F0000A601A0E0B1E02C9130E011968C91119790E0982F8827822B932B1296FA010C016F
:207F200087BEE89511244E5F5F4FF1E0A038BF0751F7F601A7BEE89507B600FCFDCF97BE85
:207F4000E89526C08437B1F42ED02DD0F82E2BD03CD0F601EF2C8F010F5F1F4F84911BD0B8
:207F6000EA94F801C1F70894C11CD11CFA94CF0CD11C0EC0853739F428D08EE10CD085E9AE
:207F80000AD08FE07ACF813511F488E018D01DD080E101D065CF982F8091C00085FFFCCF0A
:207FA0009093C60008958091C00087FFFCCF8091C00084FD01C0A8958091C6000895E0E68F
:207FC000F0E098E1908380830895EDDF803219F088E0F5DFFFCF84E1DECF1F93182FE3DF47
:207FE0001150E9F7F2DF1F91089580E0E8DFEE27FF270994FFFFFFFFFFFFFFFFFFFF040425
:00000001FF
