:200000000C94710C0C94A80C0C94A80C0C94941B0C94941B0C94941B0C94A80C0C94A80C86
:200020000C94A80C0C94A80C0C94A80C0C94A80C0C94A80C0C94A80C0C94A80C0C94A80C20
:200040000C94F21A0C94A80C0C94621B0C943C1B0C94A80C0C94A80C0C94A80C0C94A80C3C
:200060000C94A80C0C94A80C5B41434B515D20EAB080EB939D20ECB0B820E2809420EAB067
:2000800080EC9EA520EC98A4EB9E98EB909C20EBB3B4EBA5982041434B20EBA5BC20EBB27F
:2000A00084EBA6B0EB8BA400EBB094EC9DB4ED8AB8EBA5BC20EB8498EC96B420EBB284EBF1
:2000C000A0B8EB8BA4005B44524F502D4F56465D20ECA484EC9DB42000EBB094EC9DB4EDBF
:2000E0008AB820EBB284EBA6BC202B20ECA48420ECA1B0EBA6BD20ECB488EAB8B0ED999452
:20010000005B4C41444445525D2031EB8BA820ECA1B0ECB9983A20EC8B9CEBA6ACEC96BC8A
:2001200020EB939CEBA088EC9DB82000ECB48820EBB0B1EC98A4ED9484EBA19C20EB9098F5
:20014000ED9280EC9DB4ED959CEB8BA428ECA285ECB0A9EC97AD29005B4C41444445525DEE
:20016000202020EB8C80EC8BA02034EB8BA820ECA1B0ECB998EBA5BC20005B4C41444445E4
:20018000525D202020ED9584EC9A9420EBB680ED92883A20EBA19CEC9AB0EC82ACEC9DB4D9
:2001A000EB939C204D4F5346455420EC8AA4EC9C84ECB99828EC98883A20324E37303030DF
:2001C0002F414F33343030202B2031306B29005B4C41444445525D20E29AA035EB8BA82026
:2001E000EBAFB8EC8BA4ED96893A20ECA084EC9B9020EC9EACED88ACEC9E85EC9D80202A2C
:200200002AEBB680ED928820EBAFB8EBB3B4EC9CA0EBA19C20EBAFB8EAB5ACED98842A2A5E
:20022000EC9DB4EB8BA400ECB48820EC89ACEAB3A02041542B52535420EBA78C20EB909877
:20024000ED9280EC9DB4ED959CEB8BA4005B4C41444445525D202020ECA780EAB888EC9DA0
:200260008020005B4C41444445525D202020E2869220556E6F20413220EBA5BC20455350C7
:2002800020EC9D982052535420EC979020EBACBCEBA6ACEAB3A0204553505F5253545F57CE
:2002A0004952454420EBA5BC203120EBA19C20EBB094EABF9420EB8BA4EC8B9C20EAB5ACD1
:2002C000EC9B8CEB9DBC005B4C41444445525D20E29AA034EB8BA820EBAFB8EC8BA4ED96C5
:2002E000893A20ED9598EB939CEC9BA8EC96B420EBA6ACEC858BEC84A0EC9DB420EBB0B071
:20030000EC84A0EB9098ECA78020EC958AEC9598EB8BA4284553505F5253545F574952454B
:20032000443D302900ECB48820EC89ACEAB3A02041542B5253542028EBAAA8EB938820ECCD
:20034000868CED9484ED8AB820EBA6ACEC858B29005B4C41444445525D2033EB8BA820ECF4
:20036000A1B0ECB9983A2000ECB48820EC89ACEAB3A02041542B435751415020EBA19C202B
:20038000EAB2B0ED95A9EC9D8420EBAA85EC8B9CECA081EC9CBCEBA19C20EB818AEC9D80F4
:2003A00020EB92A420EB8BA4EC8B9C20EBB699EB8A94EB8BA4005B4C41444445525D20327C
:2003C000EB8BA820ECA1B0ECB9983A2000EB8BA8005B4C41444445525D20E28691E2869177
:2003E00020EB8BA820EC8381EC8AB920E2869220005B4C41444445525D20E286912033EB8B
:200400008BA82841542B5253542920ECA781ED968920E2809420415420EAB384ECB8B5EC0E
:200420009DB420EC9EA0EAB2BCEC9CBCEBA9B420EC9584EB9E9820EB8BA8EC9D8020EC9D07
:2004400098EBAFB8EAB08020EC9786EB8BA400ED9A8C20EB8884ECA0812900EB8BA82800AF
:2004600020C2B720ED9884EC9EAC2000EC9786EC9D8C00ED9A8C20C2B720EAB2B0ED95A903
:20048000EC9CA0ECA78020007320C2B720EC97B0EC868D2000292043574A4150EC868CECDB
:2004A0009A94200043574A4150204641494C00415420EAB384ECB8B520EC9EA0EAB98000A1
:2004C00043574A415020EBACB4EC9D91EB8BB5005B4C41444445525D20EC8BA4ED8CA8280F
:2004E000005B4C41444445525D2031ECB48820EC9588EC979020EB93A4EC96B4EC98A8201F
:20050000ECA491EBB3B520EC8BA4ED8CA820EC8BA0ED98B820E2809420EC84B8ECA7802006
:20052000EC958AEB8A94EB8BA4005B434B53554D204E475D20005B42414420534C4F545D9C
:20054000207269643D0020E28692206F636375706965643D005B53494D5D20ED959C20EA53
:20056000B1B8EC9D8C3A20005B53494D5D20EBB094EABF8020EC8B9CEBAEAC20ECB9B8ECA9
:200580009DB420EC9786EB8BA420E2869220726573756C743D35005B424144204649454C1A
:2005A00044535D207269643D005B445550207269645D20005B4E45545D20E2988520455315
:2005C0005020EAB08020495020EBA5BC20EC9E83EC9788EB8BA420E2809420EBAAA8EB9329
:2005E0008820EBA6ACEC858BEC9CBCEBA19C20EBB3B8EB8BA42E20EB8884ECA08120EC823E
:20060000ACEAB1B42000ED9A8C20EC97B0EC868D20EC8BA4ED8CA820E2869220EC98A4EDAF
:200620009484EB9DBCEC9DB820ECA084ED99982E20EB82A1EC9D8020EC868CECBC93EBB670
:2006400080ED84B020EB8BABEB8A94EB8BA428434950434C4F534529005B4E45545D20EC47
:20066000A084EC86A120005B4E45545D20ECA084EC86A120EC8BA4ED8CA82000EB819400C5
:2006800020C2B72036EB8BA828EC9B8CECB998EB8F85292000EBAFB8EBB0B0EC84A020E2DE
:2006A000809420413220EBA5BC204553502052535420EC979020EBACBCEBA6ACEAB3A020C6
:2006C0004553505F5253545F57495245443D31005B424F4F545D20EC82ACEB8BA4EBA6AC15
:2006E0002034EB8BA82845535020ED9598EB939CEBA6ACEC858BEC84A0292000EC9B8CEC93
:20070000B998EB8F8520002A2AEBB88CEB9DBCEC9AB4EC9584EC9B8328ECA084EC9B90EB1F
:20072000B680ECA1B1292A2A2000EC99B8EBB680EBA6ACEC858B28EBB284ED8ABC2F4454CE
:2007400052292000ECA084EC9B90EC9DB8EAB08028504F52292000EBB688EBAA852028EBA4
:20076000B680ED8AB8EBA19CEB8D94EAB080204D4355535220EC9D8420ECA780EC9AB0EA9C
:20078000B3A020EB8498EC96B4EC9994EB8BA429005B424F4F545D20EBA6ACEC858B20ECFC
:2007A0009B90EC9DB83A20000A5B5041524B494E47204E4F44455D2070726F746F20763144
:2007C000202F20313020736C6F7473202F206465763D5031005B4C41444445525D2034EBE5
:2007E0008BA83A2045535020EBA6ACEC858B20ED95B4ECA09C20E2809420EBB680ED8C8558
:20080000EC9D8420EAB8B0EB8BA4EBA0B8EB8BA4EAB0802043574D4F444520EBB680ED8437
:20082000B020EB8BA4EC8B9C005B4E45545D2031302043575141502028EAB2B0ED95A92020
:20084000ED95B4ECA09C20E2809420EC82ACEB8BA4EBA6AC2032EB8BA8290041542B4357A0
:200860005141500D0A005B4E45545D20392043574C41502028ECA3BCEBB38020415020EB83
:20088000AAA9EBA19D20E2809420ECA784EB8BA8290041542B43574C41500D0A005B4E450C
:2008A000545D2038204357434F554E5452592028ECB184EB84902031322F313320EC9AB06D
:2008C000ED9A8C20EC8B9CEB8F8420E2809420ECA784EB8BA8290041542B4357434F554EB1
:2008E0005452595F4445463D302C224B52222C312C31330D0A005B4E45545D203720474DA3
:20090000522028ED8E8CEC9BA8EC96B420ED8C9020E2809420ECA784EB8BA8290041542B54
:20092000474D520D0A005B4E45545D203620434950434C4F53452028EB82A1EC9D8020ECE8
:20094000868CECBC9320EB8BABEAB8B0290041542B434950434C4F53450D0A005B4E455423
:200960005D20352043495053544152540041542B43495053544152543D22544350222C225B
:200980003139322E3136382E302E3239222C393939310D0A005B4E45545D203420434950C7
:2009A0004D55583D300041542B4349504D55583D300D0A005B4E45545D203320434946537F
:2009C000522028495020EBA5BC20EC8BA4ECA09CEBA19C20EBB09BEC9598EB8A94EAB0805B
:2009E000290041542B43494653520D0A005B4E45545D20322043574A41502028EC9D91EBAD
:200A00008BB5EAB98CECA78020ECB59CEB8C80203330ECB48820EAB8B0EB8BA4EBA6B0EB9D
:200A20008BA4290041542B43574A41503D2233465F333032222C223034323437313932321E
:200A4000322121220D0A005B4E45545D20312043574D4F44453D310041542B43574D4F4472
:200A6000453D310D0A005B4E45545D2030205253540041542B5253540D0A00ED9A8C20ECB5
:200A80008BA4ED8CA820E286922041542B52535420EBA19C20ECA084ECB2B420ECB488EA17
:200AA000B8B0ED999428EC82ACEB8BA4EBA6AC20EC8381EC8AB929005B4E45545D20434968
:200AC00050434C4F534520005B4E45545D2043494653522033ED9A8CEC9790EB8F8420491A
:200AE0005020EAB08020EC9786EB8BA420E286922043574A415020EBB680ED84B020EB8B82
:200B0000A4EC8B9C005B4E45545D2043494653522033ED9A8C20EC868CECA78420E2809437
:200B200020EAB7B8EB9FACEB8298206275737920EAB1B0EBB680EC9880EB8BA42E2049508D
:200B400020EC868CEC8BA4EBA19C20EC84B8ECA78020EC958AEB8A94EB8BA4005B4E455449
:200B60005D20495020EAB08020EC9786EB8BA420E2869220434950535441525420EBA5BCD2
:200B800020EBB3B4EB82B4ECA78020EC958AEAB3A02043574A415020EBA19C20EB9098EB4C
:200BA0008F8CEC9584EAB084EB8BA400EB8BA829005B4C41444445525D20E2869320333094
:200BC000ECB48820EC97B0EC868D20EC98A8EB9DBCEC9DB820E2809420EC82ACEB8BA4EB75
:200BE000A6ACEBA5BC2030EB8BA8EC9CBCEBA19C20EB82B4EBA6B0EB8BA42028ECA781EC99
:200C0000A08420005B54582D44524F505D20005B54585D2000EBB094EC9DB4ED8AB8EBA1FF
:200C20009C20EC8AA4ED8AB8EBA6BC20EBB3B5EAB5AC28EC849CEBB284EB8A9420EC9DB4E9
:200C400020ECA484EC9D8420EBB284EBA6B0EB8BA429005B54582D524553594E435D20ED1C
:200C60009484EBA1ACED9484ED8AB820EB8693ECB9A820E2869220EB8D94EBAFB820005B6C
:200C800054582D52454A4543545D2043495053454E4420EAB1B0EBB680284552524F5229D4
:200CA00020E2809420EB8D94EBAFB8EBA5BC20EB84A3ECA78020EC958AEB8A94EB8BA400C1
:200CC0005B54582D425553595D2045535020EAB08020EBB094EC8198EB8BA428EAB1B0EB32
:200CE000B6802920E2809420EC8BA4ED8CA8EBA19C20EC84B8ECA78020EC958AEB8A94EB81
:200D00008BA42E20EB8BA4EC9D8C20ECA3BCEAB8B0EC979020EB8BA4EC8B9C20EBB3B4EBAD
:200D200082B8EB8BA4000D0A0041542B43495053454E443D005B54582D574149545D20E27D
:200D40009885E2988520543220ECB488EAB3BC20E280942053454E44204F4B20EAB08020BC
:200D6000EB819DEB82B420EC958820EC98A8EB8BA420E2869220EBA781ED81ACEBA5BC20E7
:200D8000EB8BA4EC8B9C20EC84B8EC9AB4EB8BA4005B54582D574149545D20EC959E20EC79
:200DA000A084EC86A1EC9D982053454E44204F4B20EBA5BC20EC9584ECA78120EBAABB20A2
:200DC000EBB4A4EB8BA420E2809420EC9DB4EBB28820ECA3BCEAB8B0EB8A9420EAB1B4EBFE
:200DE0008488EB9BB4EB8BA4005B54582D574149545D20E2988520543120ECB488EAB3BC68
:200E000020E2809420EAB7B8EB9E98EB8F8420EAB384EC868D20EAB8B0EB8BA4EBA6B0EB2C
:200E20008BA428EB9190EB93A4EAB8B0ECA78020EC958AEB8A94EB8BA429005B41434B51D6
:200E40005D20ECBA90EC8B9CEC9790EC849C20EBB080EBA0A4EB829820EBA78CEB93A420BE
:200E6000EC889820EC9786EB8BA420E2809420EBB284EBA6B0EB8BA40020723D30002072E0
:200E80003D3100206475653D002061636B3D002074783D005B534C4F545D206E3D005D2032
:200EA000E2869220EBA781ED81ACEBA5BC20EB8BA4EC8B9C20EC84B8EC9AB4EB8BA4002096
:200EC0002F20455350EBA6ACEC858B2000202F2053454E444641494C2000202F2053454E58
:200EE000444F4BEC8381ED959C20002920C2B720EB8884ECA0815BEAB1B4EB8488EB9C8058
:200F00002000202F20EAB1B0EBB6802000202F20EBACB4EC9D91EB8BB520006D7320EB8F1D
:200F200099EC958820ED959C20ECA484EB8F8420EBAABB20EB8298EAB094EB8BA420286218
:200F400075737920005B4E45545D20E2988520ECA095ECA78020EAB090ECA7803A20002027
:200F60006F6E6C696E653D0020736B69703D0020636B73756D6E673D002073736F76663DB8
:200F80000020736D6973733D00206F6F773D0020736C6F743D002061636B64726F703D00B3
:200FA0002061636B713D0020737475636B3D00206F6B746F3D002073656E646661696C3DF0
:200FC0000020726573796E633D00206573707273743D002064726F703D005B434E545D2053
:200FE00075703D0073002075703D00206C696E65733D002072783D00205B455350EBA6ACBB
:20100000EC858BEC9CA0ECA780ECA4915D0020EC82ACEB8BA4EBA6AC3D005B444941475D80
:20102000206F66666C696E6520737465703D00ED9A8C2028EC849CEBB284EC9D982027EBB9
:20104000B284EBA6B0ECA4842720EAB3BC20EBA79EEC9584EC95BC20ED959CEB8BA4290052
:20106000204220C2B720ED9484EBA1ACED9484ED8AB820EC9EACEB8F99EAB8B020005B525C
:20108000414D5D20ECB59CECA08020EC97ACEC9CA0200000000000240027002A00000000F0
:2010A0000800020100000304070000000000000000222028005C780022005B4E45545D20F8
:2010C000EC86A1EC8BA020EC98A4EBA59820EC9D91EB8BB528EBA19CEAB7B8EBA78C2C20FE
:2010E000ECB9B4EC9AB4ED84B0EB8A942073656E644C696E6520EC9DB420EC84BCEB8BA41E
:20110000293A20005B4E45545D20E298852053454E44204641494C20E2809420ED8E98ECD3
:201120009DB4EBA19CEB939CEAB98CECA78020EC8DBCEB8A94EB8DB020ECA084EC86A1EC25
:201140009DB420EC8BA4ED8CA8ED9688EB8BA42E20EC8BA4ED8CA8EBA19C20EC84BCEB8B49
:20116000A4005B4E45545D206C696E6B206973206E6F742076616C696420E2869220ECA6F5
:2011800089EC8B9C20EC98A4ED9484EB9DBCEC9DB82C20EB82A1EC9D8020EC868CECBC9325
:2011A00020EB8BABEAB8B028434950434C4F534529005B4E45545D206F6E6C696E6520286D
:2011C000434F4E4E45435429202B20ECBA90EC8B9C20EBB984EC9B80005B4E45545D206FAB
:2011E0006E6C696E652028414C524541445920434F4E4E454354454420C2B720ECB488EA11
:20120000B8B020EAB2BDED95A929005B4E45545D20414C524541445920434F4E4E454354AE
:20122000454420E2809420EB82A1EC9D8020EC868CECBC9320EC9D98EC8BAC20ECA491ECEE
:201240009DB4EBAF80EBA19C20EBAFBFECA78020EC958AEB8A94EB8BA420E286922043495B
:2012600050434C4F5345005B4E45545D206E6F20697020E2809420495020EAB08020EC9767
:2012800086EB8BA42E20434950535441525420EC9EACEC8B9CEB8F84EBA5BC20ECA091EA1C
:2012A000B3A02043574A415020EBA19C20EB9098EB8F8CEC9584EAB084EB8BA4005B4E459A
:2012C000545D202020322E3447487A20EC9DB8EAB080202F20ECA084ED8C8CEAB08020EB3C
:2012E0008BBFEB8A94EAB080202F205353494420ECB2A0EC9E90EAB08020EBA79EEB8A94F4
:20130000EAB080EBA5BC20EBB490EB9DBC2E005B4E45545D20EC84A4ECA095ED959C205321
:2013200053494420EAB08020EBAAA9EBA19DEC9790202A2AEC9786EB8BA42A2A20E28692F4
:2013400020EBB984EBB28820EBACB8ECA09CEAB08020EC9584EB8B88EB8BA42E005B4E4516
:20136000545D20202032EC889CEC9C843A20EBB984EBB080EBB288ED98B820202033EC8808
:201380009CEC9C843A20504D46283830322E313177292F5750413320ECA084ED9998EBAA49
:2013A000A8EB939C20EB8184EAB8B0005B4E45545D20202031EC889CEC9C843A20EC9C8457
:2013C00020ECA484EC9D98202A2AEBA788ECA780EBA78920EC88ABEC9E9028ECB184EB84EB
:2013E00090292A2A20EBA5BC20EBB490EB9DBC2E2031322F313320EC9DB4EBA9B420EAB33B
:20140000B5EC9CA0EAB8B0EBA5BC20312F362F313120EBA19C20EBB094EABF94EB9DBC00F2
:201420005B4E45545D20EC84A4ECA095ED959C205353494420EAB08020EBAAA9EBA19DEC9A
:201440009790202A2AEC9E88EB8BA42A2A20E2869220415020EB8A9420EBB3B4EC9DB8EBDF
:201460008BA42E20EAB2B0ED95A9EBA78C20EAB1B0EBB680EB909CEB8BA42E005B4E45542D
:201480005D20E29480E2948020415020EC8AA4ECBA9420ED8C90ECA09520E29480E2948068
:2014A000E29480E29480E29480E29480E29480E29480E29480E29480E29480E29480E2941A
:2014C00080E29480E29480E29480E29480E29480E29480E29480E29480E29480E29480E20E
:2014E0009480E29480E29480005B4E45545D202020E2869220EAB3B5EC9CA0EAB8B020ECFB
:20150000B184EB8490EC9D8420312F362F313120EBA19C20EBB094EABEB8EB8A9420EAB287
:2015200083EC9DB420ED9995ECA09520ED95B4EBB295EC9DB4EB8BA4005B4E45545D2043AE
:2015400057434F554E54525920EBAFB8ECA780EC9B90284552524F522920E2809420EC9DCA
:20156000B420ED8E8CEC9BA8EC96B4EBA19CEB8A9420ECB184EB84902031322F313320EC98
:201580009D8420ECBD94EB939CEBA19C20EBAABB20EC97B0EB8BA42E005B4E45545D20E2DF
:2015A0009885204357434F554E54525920EAB08020EBA8B9EC9788EB8BA420E2809420EA35
:2015C000B79CECA09CEB8F84EBA994EC9DB820317E31332E20ECB184EB849020313220EAFB
:2015E000B2B0ED95A9EC9DB420EC97B4EBA0B8EC9D8420EC889820EC9E88EB8BA4005B4E59
:2016000045545D204349504D55583D3020ECA081EC9AA9EB90A820E2869220434950535435
:20162000415254005B4E45545D20E2988520495020ED9995EBB3B43A20005B4C41444445B0
:20164000525D2032EB8BA83A20EAB2B0ED95A920ED95B4ECA09C20EC9984EBA38C20E28651
:201660009220EAB9A8EB8197ED959C20EC8381ED839CEC9790EC849C2043574A415020EC70
:201680009EACEC8B9CEB8F84005B4E45545D2043574A4150204F4B20E2809420EAB2B0ED92
:2016A00095A9EB9090EB8BA42E20495020EBA5BC20EC8BA4ECA09CEBA19C20EBB09BEC9512
:2016C00098EB8A94ECA78020434946535220EBA19C20ED9995EC9DB8ED959CEB8BA400EDD6
:2016E0009A8C2028EAB5ACED989520ED8E8CEC9BA8EC96B4EB8A9420EC82ACEC9CA0EBA590
:20170000BC20ECA3BCECA78020EC958AEB8A94EB8BA429005B4E45545D20E29885204357A0
:201720004A415020EC8BA4ED8CA82000ECA091EC868D20EC8BA4ED8CA800EAB7B8205353BB
:20174000494420EC9D9820415020EBA5BC20EBAABB20ECB0BEEC9598EB8BA400EBB984EB6E
:20176000B080EBB288ED98B8EAB08020ED8B80EBA0B8EB8BA400ECA091EC868D20EC8B9CF9
:20178000EAB084ECB488EAB3BC005B4E45545D20E298852043574A415020EC8BA4ED8CA8FB
:2017A00020EC82ACEC9CA03A20005B4E45545D206275737920E280942045535020EAB08093
:2017C00020EC959E20EBAA85EBA0B9EC9D8420ECB298EBA6AC20ECA491EC9DB4EB8BA42EE6
:2017E00020ECA084ECA784ED9598ECA78020EC958AEB8A94EB8BA4005B4E45545D205749C8
:20180000464920444953434F4E4E45435420E2809420495020EBA5BC20EC9E83EC9788EBD1
:201820008BA4005B4E45545D205749464920474F5420495020E2809420495020ED9995EBD3
:20184000B3B42E2039ECB48820EB8C80EAB8B0ECB0BDEC9D8420EB819DEAB98CECA7802018
:20186000EAB8B0EB8BA4EBA6ACECA78020EC958AEAB3A020EBB094EBA19C20EB8BA4EC9D0A
:201880008C20EB8BA8EAB384EBA19C006D73005B534C4F542D4F4F575D202B005B41545DA1
:2018A00020000000000023002600290000000000250028002B0004040404040404040202FA
:2018C0000202020203030303030301020408102040800102040810200102040810203A1C1B
:2018E000C92811241FBECFEFD8E0DEBFCDBF84B780933C0514BE0FB6F894A89580916000E6
:20190000886180936000109260000FBE12E0A0E0B1E0E2E9FAE502C005900D92AC35B10760
:20192000D9F725E0ACE5B2E001C01D92AC33B207E1F71CE0C0E7DCE004C02197FE010E9453
:201940000C2ACF36D107C9F70E94E51C0C943C2D0C940000833081F028F4813099F082303C
:20196000A9F008958730A9F08830C9F08430B1F4809180008F7D03C0809180008F7780930D
:201980008000089584B58F7784BD089584B58F7DFBCF8091B0008F778093B00008958091C6
:2019A000B0008F7DF9CFCF93DF9390E0FC01E653F74E24918A54974EFC0184918823C9F0F6
:2019C00090E0880F991FFC01ED56FF4EA591B491FC01E455F74EC591D49161110DC09FB775
:2019E000F8948C91209582238C938881282328839FBFDF91CF910895623051F49FB7F89442
:201A00003C91822F809583238C93E8812E2BEFCF8FB7F894EC912E2B2C938FBFEACF2FB79A
:201A2000F8946091F1037091F2038091F3039091F4032FBF0895EF92FF920F931F93CF93CD
:201A4000DF938C017B01D0E0C0E0F701EC0FFD1F6491662361F0D801ED91FC910190F081F7
:201A6000E02DC8010995892B11F02196EECFCE01DF91CF911F910F91FF90EF900895AF92EE
:201A8000BF92CF92DF92EF92FF920F931F93CF93DF936C017B018B01040F151FEB015E01E2
:201AA000AE18BF08C017D10759F06991D601ED91FC910190F081E02DC6010995892B79F72D
:201AC000C501DF91CF911F910F91FF90EF90DF90CF90BF90AF900895FC01538D448D252F17
:201AE00030E0842F90E0821B930B541710F0CF96089501970895FC01918D828D981761F0AC
:201B0000A28DAE0FBF2FB11D5D968C91928D9F5F9F73928F90E008958FEF9FEF0895FC010A
:201B2000918D828D981731F0828DE80FF11D858D90E008958FEF9FEF0895FC01918D228D02
:201B4000892F90E0805C9F4F821B91098F739927089580E894E00E949D0D21E0892B09F423
:201B600020E0822F089580E090E0892B29F00E94A90D81110C9400000895FC01A48DA80F6E
:201B8000B92FB11DA35ABF4F2C91848D90E001968F739927848FA689B7892C93A089B18949
:201BA0008C91837080648C93938D848D981306C00288F389E02D80818F7D80830895EF922F
:201BC000FF920F931F93CF93DF93EC0181E0888F9B8D8C8D98131AC0E889F989808185FFA9
:201BE00015C09FB7F894EE89FF896083E889F98980818370806480839FBF81E090E0DF91DF
:201C0000CF911F910F91FF90EF900895F62E0B8D10E00F5F1F4F0F731127E02E8C8D8E1161
:201C20000CC00FB607FCFACFE889F989808185FFF5CFCE010E94BD0DF1CFEB8DEC0FFD2F71
:201C4000F11DE35AFF4FF0829FB7F8940B8FEA89FB8980818062CFCF682F80E894E00C9472
:201C6000DF0DCF93DF93EC01888D8823B9F0AA89BB89E889F9898C9185FD03C0808186FDFE
:201C80000DC00FB607FCF7CF8C9185FFF2CF808185FFEDCFCE010E94BD0DE9CFDF91CF9183
:201CA000089520910703309108032817390771F49091050380910603981741F0E091050380
:201CC000F0E0EB53FD4F808190E008958FEF9FEF08950895EF92FF920F931F93CF93DF931C
:201CE000DC015C96ED90FC905D97E114F10479F481E090E013969C938E93129790E080E07E
:201D0000DF91CF911F910F91FF90EF9008955196ED91FC91529750968C915097982F909547
:201D20000FB75E962C915E97122F127021FD6095F8942081112319F1282B2083E701219760
:201D4000F1F728E0462F50E0308160FF1AC0382B3083E7012197F1F7BA0175956795215034
:201D600089F7112381F08081892380830FBF5C968D919C910197F1F781E090E0C1CF292356
:201D8000DCCF3923E5CF9081892BEFCF20910703309108032817390761F4809106032091DF
:201DA000050390E0805C9F4F821B91098F739927089590E080E00895209107033091080357
:201DC00028173907B9F49091050380910603981789F0E0910503F0E0EB53FD4F80812091E7
:201DE000050330E02F5F3F4F2F7333272093050390E008958FEF9FEF089590E080E00895D5
:201E0000282FDB01FC0191918D913FE9390F3A3108F490523FE9380F3A3108F48052981346
:201E200006C08E2F821B841770F381E0089580E00895AC01FB0130E020E0CA01022E02C013
:201E4000969587950A94E2F790E380FD91E391932F5F3F4F2A30310581F7FB0112860895E7
:201E60001092700410925C0410925B0410925A041092CE031092AD038091D5039091D603A1
:201E80008F3F980729F001969093D6038093D50381E080936A0486E0809369040E940F0DB8
:201EA0006093650470936604809367049093680410920901109208010895CF93DF93382F1D
:201EC000DC01E0E02A2F231B261718F42D91E227F9CFDC01A60FB11DCE2FD0E084E0D5951B
:201EE000C7958A95E1F7CE5BDE4F88818C93EF70F0E0EE5BFE4F808111968C931197129635
:201F00001C9282E0860FDF91CF910895CF93DF93EB01809369040E940F0D60936504709352
:201F200066048093670490936804D0930901C0930801DF91CF910895E091F603AE2FB0E01D
:201F400035E0E39FF0011124E358FC4F918380836283438324831196A770BB27A093F60309
:201F60008091F503883018F48F5F8093F5030895BC014091F5032DE733E090E0491771F020
:201F80002B5F3F4FF90135970190F081E02DE617F70711F4892F08959F5FF0CF8FEF089527
:201FA0009091BF03992391F021E030E002C0220F331F8A95E2F78091BD039091BE032823B5
:201FC000392381E0232B19F080E0089581E00895FB0101900020E9F73197AF01461B570B2A
:201FE000DC01ED91FC910280F381E02D099467E771E080E894E00C94E80FCF93DF93BC01B6
:2020000080E894E00E941B0DEC010E94F70F8C0F9D1FDF91CF910895CF93DF93EC0130913F
:20202000CE039091AD0320E0321779F0E92FE20FE370F0E0EE0FFF1FEB55FC4F40815181E7
:202040004C175D0771F12F5FEFCF3430D1F4892F90E00196837099278093AD0383E0809337
:20206000CE038091CC039091CD038F3F980729F001969093CD038093CC0388E690E00E944C
:20208000FD0F8091CE03E091AD03E80FE370F0E0EE0FFF1FEB55FC4FD183C0838F5F8093D9
:2020A000CE03DF91CF9108958F929F92AF92BF92EF92FF920F931F93CF93DF93CDB7DEB7AB
:2020C000A1970FB6F894DEBF0FBECDBF7C01FA01CB0119A2223008F42AE08E010F5D1F4FC1
:2020E000822E912CB12CA12CBF01A50194010E94BB29F901CA016A300CF5605DD8016E9351
:202100008D01232B242B252B79F790E080E0109721F0BD01C7010E94E80FA1960FB6F894A5
:20212000DEBF0FBECDBFDF91CF911F910F91FF90EF90BF90AF909F908F900895695CDECF90
:202140002AE00C945410482F50E070E060E02AE080E894E00C94541080915C048F3F19F008
:202160008F5F80935C0467E676E080E894E00E941B0D80915C040E94A3108FE20E942C0EA2
:2021800083E00E94A3100E94F70F80915C04833080F069E576E080E894E00E941B0D8091F0
:2021A0005C040E94A31086E096E00E94FD0F0C94300F0895AB0170E060E02AE00C9454101A
:2021C000CF93DF93BC0180E894E00E94DA10EC010E94F70F8C0F9D1FDF91CF91089581E04C
:2021E00080936D048091D3039091D4038F3F980729F001969093D4038093D30364EB75E0D8
:2022000080E894E00E941B0D8091D3039091D4030C94E010CF92DF92EF92FF92CF93DF93F1
:202220000E940F0D6B017C01D0E0C0E00E940F0D6C197D098E099F0968377105810591056E
:2022400078F48DE195E00E94C60E892B79F38DE195E00E94DC0ECF3FDC0799F32196F1CF36
:202260001092BF021092BE0210926F0361E071E080E894E00E941B0DBE0180E894E00E9410
:20228000DA1089ED90E0DF91CF91FF90EF90DF90CF900C94FD0F8F929F92AF92BF92CF92D1
:2022A000DF92EF92FF92CF93DF93C82F0E940F0D6B017C018091C402882319F18091C002CA
:2022C0009091C102A091C202B091C302A7019601281B390B4A0B5B0BDA01C901883E934060
:2022E000A105B10570F481EE94E0DF91CF91FF90EF90DF90CF90BF90AF909F908F900C9413
:20230000FD0F81E08093C402C092C002D092C102E092C202F092C30260ED74E080E894E044
:202320000E941B0D60EC74E0C13031F06FEA74E0C23011F064EA74E080E894E00E941B0D39
:2023400065E974E080E894E00E941B0D8091090390910A03A0910B03B0910C03A70196011C
:20236000281B390B4A0B5B0BCA01B90128EE822E23E0922EA12CB12CA50194010E94BB29A2
:20238000BA01A90180E894E00E94A01068E874E080E894E00E941B0D809176040E94A31080
:2023A00063E774E080E894E00E941B0D8091710490917204A0917304B09174040097A1051E
:2023C000B10509F45BC0A7019601281B390B4A0B5B0BCA01B901A50194010E94BB29BA01AD
:2023E000A90180E894E00E94A01083E70E942C0E60E674E080E894E00E941B0D8091E1038A
:202400000E94A3106BE574E080E894E00E941B0D8091E0030E94A3108FE494E00E94FD0F3F
:20242000109271041092720410927304109274048091E103C23049F5833038F583E08093BF
:20244000E1031092E00381EF93E00E94FD0F809176048230F0F180916B0481113AC064EF05
:2024600071E087E0DF91CF91FF90EF90DF90CF90BF90AF909F908F900C94860F6CE674E041
:2024800080E894E00E941B0DB3CF9091E0039E3F18F49F5F9093E003E82FF0E0E55EFE4FAC
:2024A00020819091E003921790F2853080F68F5F8093E1031092E00361ED73E080E894E03A
:2024C0000E941B0D8091E1030E94A3108DEC93E0BCCF8091E103E82FF0E0EE0FFF1FE15F3A
:2024E000FE4FC081D181823009F445C0F0F48823E1F18130C1F18FEC91E00E94FD0F8AE779
:2025000091E00E94FD0F68E571E080E894E00E941B0DCE0168EE73E00E94F82980E894E041
:202520000E94DA108CE291E04FC08330E1F1843011F787EC92E00E94FD0F83E692E00E94D0
:20254000FD0F6DE472E080E894E00E941B0DCE0168EE73E00E94F82980E894E00E94DA1083
:2025600087E292E031C00E940A1110926E046CE271E083E077CF66EB73E080E894E00E9454
:202580001B0DCE0168EE73E00E94F82980E894E00E94DA1088E693E00E94FD0F10927704C4
:2025A000BE018AE05FCF61E573E080E894E00E941B0DCE0168EE73E00E94F82980E894E06E
:2025C0000E94DA1085E293E00E94FD0F10927704BE0180E047CFCF93DF93D0E0C0E00097DA
:2025E00031F0BC0180E894E00E94E80FEC010E94F70F8C0F9D1FDF91CF9108956F927F921D
:202600008F929F92AF92BF92CF92DF92EF92FF920F931F93CF93DF93CDB7DEB72E970FB627
:20262000F894DEBF0FBECDBFDC010D900020E9F79D0121503109281B390B122F4FEF420FFE
:202640004F3308F062C0FC014081423539F0433429F0443519F04D3409F057C0DC01FC0103
:2026600070E060E04FEF5FEF01910C3209F4AB016F5F7F4F6117C0F38C014F3F540781F116
:202680003327241B350B2330310551F5FC01E40FF51F818120ED280F2A3030F09FEB980F9D
:2026A0009630F0F429EC280F928180ED890F8A3030F08FEB890F863098F489EC890F4F5F23
:2026C000F80190E03E2F301B341718F431919327F9CF40E1249F90011124822B891751F105
:2026E0008091C2039091C3038F3F980729F001969093C3038093C2036AE275E080E894E0C2
:202700000E941B0DC8010E94EB122E960FB6F894DEBF0FBECDBFDF91CF911F910F91FF90CD
:20272000EF90DF90CF90BF90AF909F908F907F906F900895CE0101969C012D5335404091FC
:202740000601509107012417350720F430930701209306011A830983AA24A3942D91222348
:2027600009F413C22C32D1F7FD0131971082E6E0EA1558F2EA2DF0E0EE0FFF1FE80FF91FE9
:20278000B183A083A394EACFF4E5BF1641F02DE4A3E09A2EB21629F0E4E09E2E02C0F6E0AE
:2027A0009F2E42E04A1508F0B0CFEB81FC81309709F4ABCF8081882309F4A7CFC12CD12C24
:2027C00076011191112301F180ED810F8A3008F09CCFAAE0B0E0A70196010E94A829C12EE5
:2027E000110FDD08A0E3CA1AD1080D2C000CEE08FF08C60ED71EE81EF91EC114D104B1E031
:20280000EB06F104F0F281CF8601C6010E94B80F882E87FD15C069EA75E080E894E00E94B4
:202820001B0DC6010E94E010282D45E02402F0011124E358FC4F808191810E940C1065CFC6
:202840009A1489F067E975E080E894E00E941B0DC6010E94E01023E04FE36FE3C6010E94BD
:202860009C0FC601EACF84E5B8128AC0ED81FE818181811152C12081213469F0243491F4F0
:202880001092BF031092BE031092BD03109273031092720303C081E08093BF034FE33FE393
:2028A00020E06CC0233519F0283509F036C1EF81F885E984FA84DF010D900020E9F7CD011B
:2028C00003978E179F0709F028C1308181815FEC580F553008F021C1313409F45FC1323485
:2028E00009F01BC154ED580F233561F4F70180818053823008F011C1818181110EC131E4EE
:20290000553008F032E4852F65E00E94EC2941E3490F8091BF03882381F181E090E002C075
:20292000880F991F5A95E2F76091BD037091BE03E0917203F09173032335B1F4D7012C919E
:20294000682B792B7093BE036093BD03203339F08E2B9F2B9093730380937203A1CF809524
:2029600090958E239F23F6CF80959095682379237093BE036093BD03F4CF24E0632FA8C061
:20298000BDE4BB12AAC0A090B903B090BA036090700370907103D12CC12C88248394912C35
:2029A000FC2C8C2D0E94D00F882309F446C0C4010C2C02C0880F991F0A94E2F79C012A219A
:2029C0003B21232BD1F19C0126213721232BA9F5682A792A7092710360927003F4E082E419
:2029E000D82EFF1510F031E4D32E8F2D65E00E94EC2921E3E22EE90E65E575E080E894E069
:202A00000E941B0D8D2D0E942C0E8E2D0E942C0E66E475E080E894E00E941B0D80917003F6
:202A20009091710302C096958795FA94E2F7817099270E94E01020E049C0EFEFCE1ADE0A97
:202A4000FAE0CF16D10409F0ABCFF12CE12C8E2D0E94D00F8111F394E3942AE0E212F7CFB5
:202A6000FF2059F10E9431292F2D30E050E040E00E948929E62EF12C8F2D0E94D00F8823C8
:202A8000C1F08FEF8E0DE11013C021E030E00F2C02C0220F331F0A94E2F7809170039091FB
:202AA000710382279327909371038093700396CFE82EF3944AE0F412DFCF88E695E00E94BD
:202AC000FD0F4FE3E42E5FE3D52E25E04E2D6D2DC8010E949C0FC801B0CEED81FE81DF011D
:202AE0000D900020E9F7CD0103978E179F0761F481812FEC280F253038F43081313489F0CD
:202B000024ED280F323469F066E375E080E894E00E941B0DC8010E94E0104FE33FE323E0B8
:202B20002DCF822F65E00E94EC2941E3490F81E090E002C0880F991F2A95E2F7B2E5BB1292
:202B400017C06091BB037091BC036823792321E0672B09F013CF6091B9037091BA03FC0132
:202B6000E623F723862B972BEF2B51F022E006CF809590956091B9037091BA038623972385
:202B80009093BA038093B9038BCEE981FA81B080E2E5BE12F9CD75E0972E03CE233509F07F
:202BA000B2CEA4CEBF92CF92DF92EF92FF920F931F93CF93DF9380917C0490917D04A09162
:202BC0007E04B0917F040196A11DB11D80937C0490937D04A0937E04B0937F046CE978E12C
:202BE00080E894E00E941B0D07EF13E0F80101900020E9F78F01085F1340B02E68EB70E1F0
:202C000080E894E00E941B0D97EFE92E93E0F92E6701D0E0DB1528F5F601C1916F0180EE8B
:202C20008C0F8F3528F48C2F0E942C0EDF5FF2CF65EB70E180E894E00E941B0DEC2FF0E051
:202C400084E0F595E7958A95E1F7EE5BFE4F80810E942C0ECF70EC2FF0E0EE5BFE4F8081DF
:202C6000E3CF61EB70E180E894E00E941B0D802F0E94A31089E20E942C0E0E94F70F6AE71B
:202C800071E087EF93E00E943D2AEC01892BE1F1C0907A04D0907B04F12CE12CF8E5CF16E5
:202CA000F2E0DF06E104F104E0F480917804909179048F3F980729F00196909379048093B4
:202CC00078046FE878E180E894E00E941B0DB701A60180E894E00E94A0108CE898E10E9406
:202CE000FD0F6AE370E0CE010E941B2A0097D9F10196DF91CF911F910F91FF90EF90DF90E0
:202D0000CF90BF900C94FE1244E050E060E871E087EF93E00E942F2A892B09F04DC065E87D
:202D200071E087EF93E00E943D2A892B31F181E08093770410927604109275040E940F0D96
:202D40006093710470937204809373049093740483E298E10E94FD0F8091700468EC70E0B8
:202D6000882309F4E3C0DF91CF911F910F91FF90EF90DF90CF90BF9008956CE871E087EF05
:202D800093E00E943D2A892B71F31092770488EF97E10E94FD0F809170048111E4CF109279
:202DA0007504DF91CF911F910F91FF90EF90DF90CF90BF900C944B11809170048111C1C1BA
:202DC000C0910A01CB3008F0BCC167E971E087EF93E00E943D2A892BF1F08AEA97E10E9471
:202DE000FD0F80910A01833081F491E090936F046CED75E0DF91CF911F910F91FF90EF90A0
:202E0000DF90CF90BF900C94860F9CEF980F923008F0A9CFEDCFC23009F08AC047E050E0B4
:202E20006CE971E087EF93E00E942F2A892BA1F56AE877E180E894E00E941B0D8091FE035C
:202E4000823321F17CF48133A1F087EF93E0DF91CF911F910F91FF90EF90DF90CF90BF90C2
:202E60000C94EB128333A9F0843379F78CE297E102C086E797E1DF91CF911F910F91FF9003
:202E8000EF90DF90CF90BF900C94FD0F8CE597E1F2CF8AE397E1EFCF64E172E087EF93E01D
:202EA0000E943D2A892B41F464EA71E087EF93E00E943D2A892BD9F0809176048A3F18F4B2
:202EC0008F5F80937604109277041092750464E177E180E894E00E941B0D809176040E94CF
:202EE000A3108FED96E10E94FD0F80E05ACF6CE072E087EF93E00E94262A892B09F0A4C269
:202F000089E896E10E94FD0F1092760410926E04109275040E940F0D609371047093720431
:202F200080937304909374046CE271E083E062CFCA3009F56CE072E087EF93E00E94262AC8
:202F4000892B89F064EA71E087EF93E00E943D2A892B49F46AEA71E087EF93E00E943D2A2B
:202F6000892B09F471C28AE396E10E94FD0F64EF71E082E03FCFC33009F066C243E050E060
:202F800060EB71E087EF93E00E942F2A892B09F45BC287EF93E04AE001C0CD01DC012D91A6
:202FA000222309F443C220532A30B8F733E0873F930731F0FC013197208120532A3068F32C
:202FC000FC0130E090E020E0819150ED580F5A3030F4249F800D112420ED280FF5CF9111E1
:202FE00001C0322F8E3211F49F5FEDCF9330A9F6332399F281E08093770410926E04109248
:203000006D0410926F048091710490917204A0917304B0917404892B8A2B8B2B51F40E94A6
:203020000F0D6093710470937204809373049093740464E276E180E894E00E941B0D87EFB5
:2030400093E00E94EB1268EC70E084E0D3CE883069F56CE072E087EF93E00E94262A892B72
:20306000B1F064EA71E087EF93E00E943D2A892BB1F46DEC71E087EF93E00E943D2A892B75
:2030800009F45FC01092770487E692E14EC089E995E10E94FD0F6CE271E089E0ABCE89E386
:2030A00095E10E94FD0F89EE94E1F3CF893009F747E050E06EEB71E087EF93E00E942F2AA0
:2030C000892B69F466EC71E087EF93E00E943D2A892B09F448CE81E080936C0444CE6CE041
:2030E00072E087EF93E00E94262A892B49F064EA71E087EF93E00E943D2A892B09F4B9CFEC
:2031000081E080936B048CE794E10E94FD0F80916C04882379F080E294E10E94FD0F8CEAA6
:2031200093E10E94FD0F8DE593E10E94FD0F68EE73E01FCF8FE093E10E94FD0F8DEB92E1C6
:20314000F4CF63ED71E087EF93E00E943D2A892B09F444C06FE871E087EF93E00E943D2ACA
:20316000892BE1F180916A048823B1F08BE092E10E94FD0F86E0809369040E940F0D6093DB
:2031800065047093660480936704909368041092090110920801E7CD81E0809370040E94B7
:2031A0000F0D609361047093620480936304909364040E940F0D60935D0470935E048093A3
:2031C0005F049093600410925C0410925B0410925A041092590489ED91E14DCEC701F70140
:2031E0002081FFEFEF1AFF0A2032C1F32930B1F32053253028F4FC0121812C3209F40296B5
:20320000FC0101900020E9F73197E81BF90B2E2FE80FF92FF11D222309F45CC03291303244
:2032200019F03B7F393011F42150F5CF47E06FE871E0273031F0263009F04CC046E069ED0A
:2032400071E00E94000F882309F444C0C1E0C09370040E940F0D60936104709362048093C6
:203260006304909364040E940F0D60935D0470935E0480935F049093600410925C04109244
:203280005B0410925A0410926A04109259041092760410926E04C09377048091710490911B
:2032A0007204A0917304B0917404892B8A2B8B2B51F40E940F0D6093710470937204809321
:2032C0007304909374041092F6031092F50382EB91E1D1CD60EE71E087EF93E00E943D2A99
:2032E000892BB9F467EE71E087EF93E00E943D2A892B79F46EEE71E087EF93E00E943D2A15
:20330000892B39F480917004811129C087EF93E0F0CC1092700410925C0410925B0410926C
:203320005A0410926A04109259041092F6031092F50383E0809369040E940F0D60936504EE
:203340007093660480936704909368048CE291E0909309018093080110926E0404CD65EF92
:2033600071E087EF93E00E943D2A892B79F082E691E10E94FD0FDF91CF911F910F91FF90B6
:20338000EF90DF90CF90BF900C94300F47E050E067E072E087EF93E00E942F2A892B29F40D
:2033A00010925B0410925A04DECC49E050E06FE072E087EF93E00E942F2A892BF9F4109241
:2033C0005B0410925A0480915704909158048F3F980729F00196909358048093570484E037
:2033E00091E10E94FD0FDF91CF911F910F91FF90EF90DF90CF90BF900C94AC1064EA71E067
:2034000087EF93E00E943D2A892B49F467E971E087EF93E00E943D2A892B09F477CF6AEBEA
:2034200070E180E894E00E941B0D0FCD69E172E087EF93E00E94262A892B31F480916D04E7
:20344000811102C00E94EF1080910A01843009F0FECD6CE072E087EF93E00E94262A892BB6
:2034600049F064EB71E087EF93E00E943D2A892B09F4FFCD8EEF95E10E94FD0F68EC70E0BF
:2034800085E0B8CCCF93DF93D82F8091DB039091DC03A091DD03B091DE030196A11DB11D23
:2034A0008093DB039093DC03A093DD03B093DE03DA3009F053C08091BE028823A1F066EC6D
:2034C00070E080E894E00E941B0D80E60E94A31088EA90E00E94FD0F1092BF021092BE02E6
:2034E000DF91CF9108954091BF024423C9F350E0FA01E45AFD4F10821092BF028091780374
:203500008823C1F080916F038111EACF4F5F5F4F6CE572E08FE093E00E94122A8091BC02F3
:203520009091BD0290930E0380930D0381E080936F03D6CF4F5F5F4F6CE572E087EF93E0E1
:203540000E94122A8091BC029091BD0290937B0480937A04DF91CF910C94D215DD3009F44A
:20356000BFCFC091BF02CF3520F081E08093BE02B7CFC1110CC00E940F0D2091B403309158
:20358000B503621B730B7093BD026093BC0281E08C0F8093BF02EC2FF0E0E45AFD4FD0836D
:2035A0009FCF8DE195E00E94C60E892B39F08DE195E00E94DC0E0E94421AF3CF80913B05E7
:2035C00080FF0FC08E7F80933B058091C4039091C5038F3F980729F001969093C503809361
:2035E000C40308951F920F920FB60F9211242F933F938F939F93AF93BF938091F1039091D8
:20360000F203A091F303B091F4033091F00323E0230F2D3758F50196A11DB11D2093F003F3
:203620008093F1039093F203A093F303B093F4038091EC039091ED03A091EE03B091EF03A2
:203640000196A11DB11D8093EC039093ED03A093EE03B093EF03BF91AF919F918F913F9129
:203660002F910F900FBE0F901F90189526E8230F0296A11DB11DD2CF1F920F920FB60F9266
:2036800011242F933F934F935F936F937F938F939F93AF93BF93EF93FF9380E894E00E94FF
:2036A000BD0DFF91EF91BF91AF919F918F917F916F915F914F913F912F910F900FBE0F90D5
:2036C0001F9018951F920F920FB60F9211242F938F939F93EF93FF93E0919004F09191045C
:2036E0008081E0919604F091970482FD1BC09081809199048F5F8F7320919A04821741F080
:20370000E0919904F0E0E058FB4F958F80939904FF91EF919F918F912F910F900FBE0F904A
:203720001F9018958081F4CF1F920F920FB60F9211242F933F934F935F936F937F938F93DE
:203740009F93AF93BF93EF93FF93E0910703F0910803309749F0A685B7858585968D91FF64
:2037600014C09C918923A1F4FF91EF91BF91AF919F918F917F916F915F914F913F912F91A7
:203780000F900FBE0F901F9018959C91892361F7A389B4899C918589809589238C938689FE
:2037A00097890197F1F7608D718DA685B785558538E020E0CB010197F1F7822F90E095958E
:2037C0008795282F4C91452309F02068315091F7868D81FD20958091060390E001968F733E
:2037E000992730910503381799F0A0910603B0E0AB53BD4F2C9380930603828D938D0197F2
:20380000F1F7A389B4898C919589892B8C93ACCF868D8160868FF1CF1F93CF93DF93282F28
:2038200030E0F901E356FF4E8491F901E653F74ED491F901EA54F74EC491CC23A9F0162F67
:2038400081110E94AA0CEC2FF0E0EE0FFF1FE455F74EA591B4918FB7F894EC91111108C046
:20386000D095DE23DC938FBFDF91CF911F910895DE2BF8CF109283041092820488EE93E0FE
:20388000A0E0B0E08093840490938504A0938604B093870427E531E03093810420938004AA
:2038A00025EC30E030938D0420938C0424EC30E030938F0420938E0420EC30E03093910421
:2038C0002093900421EC30E0309393042093920422EC30E0309395042093940426EC30E0FA
:2038E00030939704209396041092990410929A0410929B0410929C041092200510921F058E
:203900008093210590932205A0932305B093240589E691E090931E0580931D051092340527
:20392000109233051092360510923505109238051092370510923A051092390560913B0545
:203940006E7F6D7F60933B056695617081E0682787E00E940C1C61E087E00E94D30CE1ED77
:20396000F8E1E491E0932D05EDEBF8E1E491F0E0EE0FFF1FE455F74E8591949190932F0533
:2039800080932E0560E088E00E94D30C80913B0581FD04C061E088E00E940C1C88E0809337
:2039A0002905E2EDF8E1E491E0932A05EEEBF8E1E491F0E0EE0FFF1FEE55F74E8591949145
:2039C00090932C0580932B050895CF93DF93CDB7DEB7C45ED1090FB6F894DEBF0FBECDBF83
:2039E000789484B5826084BD84B5816084BD85B5826085BD85B5816085BD80916E008160E9
:203A000080936E001092810080918100826080938100809181008160809381008091800062
:203A20008160809380008091B10084608093B1008091B00081608093B00080917A008460D4
:203A400080937A0080917A00826080937A0080917A00816080937A0080917A008068809360
:203A60007A001092C100E0919004F091910482E08083E0918C04F0918D041082E0918E0441
:203A8000F0918F0480E1808310929804E0919404F091950486E08083E0919204F0919304C5
:203AA000808180618083E0919204F0919304808188608083E0919204F0919304808180680E
:203AC0008083E0919204F091930480818F7D8083109238051092370510923605109235053E
:203AE00010923405109233058DE991E090933A058093390590912905963108F047C02DEB4A
:203B000030E030933405209333052BE931E030933605209335052CE231E0309338052093CC
:203B200037052091680084E0983048F031E09E3008F430E081E001C0880F3A95EAF7822BCB
:203B4000809368002DE630E0983050F02BE630E09E3030F02CE630E0963110F030E020E0B7
:203B60003093310520933005292F30E0983008F011C281E001C0880F9A95EAF78093320556
:203B80008091390590913A050197F1F78091370590913805892B49F1E0910703F091080356
:203BA00025E0ED31F20709F1309739F0A389B4899C918589809589238C9380913B058E7F1D
:203BC00080933B0510920603109205038DE195E09093080380930703E0913005F0913105B2
:203BE000808190913205892B80830E940F0D6093B4037093B5038093B6039093B70381E484
:203C000080937C0080917A00806480937A0080917A0086FDFCCF4091780050917900052E6A
:203C2000000C660B770B3FB7F8948091EC039091ED03A091EE03B091EF0326B5A89B05C0BA
:203C40002F3F19F00196A11DB11D3FBFBA2FA92F982F8827820F911DA11DB11DF2E0880F61
:203C6000991FAA1FBB1FFA95D1F78A019B01082719272A273B27481759076A077B0721F086
:203C8000C901B8010E9480291092BF031092BE031092BD03109273031092720386E091E027
:203CA0009093710380937003109269040E940F0D6093650470936604809367049093680444
:203CC00084EF91E0909309018093080188EA97E00E94FD0F61E977E080E894E00E941B0DD9
:203CE00080913C05811163C187E597E00E94FD0F60ED76E080E894E00E941B0D65E976E03E
:203D000080E894E00E941B0D60E876E080E894E00E941B0D8CE796E00E94FD0FAE014B53D5
:203D20005F4FC053DF4F59834883C05DD040CE0186549F4FCE52DF4F99838883C25DD04085
:203D4000FE01EE55FF4FCA52DF4FF983E883C65DD040ED53F540C152DF4FF983E883CF5DA6
:203D6000D0409E012F5F3F4FCC52DF4F39832883C45DD0400E940F0D6B017C018091700468
:203D8000882309F43DC18091E103882339F18091610490916204A0916304B0916404A701CD
:203DA0009601281B390B4A0B5B0BDA01C90180339547A105B10594F061EB7BE080E894E093
:203DC0000E941B0D8091E1030E94A3108CEA9BE00E94FD0F1092E1031092E0030E94D11A98
:203DE00080916F038823A9F080E6EFE0F3E0A7EFB3E001900D928A95E1F780910D03909162
:203E00000E0390937B0480937A0410926F030E94D215B090BF030091BD031091BE0360911B
:203E2000700370917103409172035091730330E020E0C752DF4F19821882C95DD040E22F2A
:203E4000BB2009F40AC3C801022E02C0969587950A94E2F780FF01C3CA010E2E02C096950D
:203E600087950A94E2F78170A9F081E090E002C0880F991FEA95E2F7C752DF4FE881F981C1
:203E8000C95DD040E82BF92BC752DF4FF983E883C95DD0402F5F3F4F2A30310581F6C75215
:203EA000DF4F28813981C95DD0403093BC032093BB03BB2009F4D3C2C552DF4F198308836F
:203EC000CB5DD0408091040190910501C752DF4FE881F981C95DD0408E179F0709F0C8C23F
:203EE0002091B9033091BA0380910201909103012817390709F0BCC2809100019091010173
:203F0000C552DF4F28813981CB5DD0408217930709F0AEC21092B8034090B4035090B503A9
:203F20006090B6037090B7034091C8035091C9036091CA037091CB03A09070042091C6032A
:203F40003091C703E091B303D701C60184199509A609B709803BF4E09F07A105B10508F4D9
:203F60008FC2F0EB4F0EF4E05F1E611C711CAA2039F0E11105C02F3F320711F02F5F3F4FEF
:203F80004F5F5F4F6F4F7F4F805B9440A109B109E0E0E0CF9E3040F42850310981E001C0E1
:203FA000880F2A95EAF7EACD2E503109F7CF80FF06C064E477E080E894E00E941B0D8091FA
:203FC0003C0581FF06C06AE277E080E894E00E941B0D80913C0582FF06C067E077E080E872
:203FE00094E00E941B0D80913C0583FF06C06CEF76E080E894E00E941B0D0E94F70F78CEA4
:204000008091DF03882379F0F7FC0DC01092DF030E940A116CED75E081E00E94860F85EDE0
:2040200097E00E94FD0F8091DF038111D7CE8091650490916604A0916704B0916804B7012B
:20404000A601481B590B6A0B7B0B8091080190910901B0E0A0E0481759076A077B0708F4F4
:20406000BDCE80916904853059F480917704811107C08CE59BE00E94FD0F82E080936904D4
:2040800010916904123091F480917504882309F455C010927504809176048A3F18F48F5F9B
:2040A0008093760481E00E944B1198CE1B3008F060C0E12FF0E0E15AFF4D0C940C2A6A2084
:2040C0007B20B920E1202B214C217121B421D521F6211A2262E77AE08DE195E00E941B0DB2
:2040E00066E67AE080E894E00E941B0D0E94F70F109275043EC068E57AE08DE195E00E9487
:204100001B0D67E47AE080E894E00E941B0D0E94F70F81E080930A01C0926504D09266047E
:20412000E0926704F092680480E293E090930901809308011F5F1093690450CE64E27AE04A
:204140008DE195E00E941B0D6DEE79E080E894E00E941B0D0E94F70F81E0809375040E9421
:204160000F0D6093090370930A0380930B0390930C0310930A01C0926504D0926604E0921A
:204180006704F0926804E12FF0E0EE0FFF1FEF5DFE4F808191819093090180930801EEEFF9
:2041A000E10FE93038F6F0E0E852FF4D0C940C2A182200214A216B219021D321F421152259
:2041C000182262EE79E08DE195E00E941B0D64EB79E080E894E00E941B0D0E94F70F83E0F6
:2041E00080930A01C0926504D0926604E0926704F092680484EC99E090930901809308011D
:2042000080916E048F5F80936E04833008F41BC180916F0410926E0410926F0481118FC788
:2042200080916D04811102C00E94EF1088EC9AE00E94FD0F82E08093690480E00E944B112B
:2042400080916904833009F0C9CD68EE73E082E00E94860FC3CD66EA79E08DE195E00E949E
:204260001B0D65E979E080E894E00E941B0D0E94F70F84E080930A01C0926504D092660418
:20428000E0926704F092680480EB94E0909309018093080185E0D8C06DE679E08DE195E09F
:2042A0000E941B0D6CE579E080E894E00E941B0D0E94F70F85E080930A01C0926504D0929C
:2042C0006604E0926704F092680480E49FE1909309018093080180916A048823D9F286E021
:2042E000B3C06EE479E08DE195E00E941B0D66E279E080E894E00E941B0D0E94F70F86E09E
:2043000080930A01C0926504D0926604E0926704F092680480E293E090930901809308010F
:20432000809159048F5F80935904833008F48FC068EB7AE080E894E00E941B0D80915904F2
:204340000E94A3108BE79AE00E94FD0F1092690410926A041092590428EC30E0309309015F
:204360002093080182E09FCE6DE179E08DE195E00E941B0D66EF78E080E894E00E941B0D0B
:204380000E94F70F87E080930A01C0926504D0926604E0926704F09268044CED55E050934D
:2043A00009014093080188E04FC067ED78E08DE195E00E941B0D6DE978E080E894E00E941B
:2043C0001B0D0E94F70F88E080930A01C0926504D0926604E0926704F09268048CED95E047
:2043E000909309018093080189E02EC062E978E08DE195E00E941B0D66E678E080E894E04D
:204400000E941B0D0E94F70F89E080930A01C0926504D0926604E0926704F0926804E8E287
:20442000F3E2F0930901E093080181E080936B0482E00AC06BE578E08DE195E00E941B0D3A
:2044400069E278E04FCE83E080936904C7CC83E08093690410926E04C1CCCB01FECC4FEFCE
:204460005FEFC552DF4F59834883CB5DD0402ACD8091B803811150CD81E08093B8034CCD10
:204480004092B4035092B5036092B6037092B703E093B3033093C7032093C6034093C803C2
:2044A0005093C9036093CA037093CB0388539F4FAF4FBF4F89359240A105B10508F06AC2D7
:2044C00081E0E827AA2009F490C080915D0490915E04A0915F04B0916004A7019601281BA5
:2044E000390B4A0B5B0BDA01C90180319742A105B1050CF451C265E47FE080E894E00E94F9
:204500001B0D80915D0490915E04A0915F04B0916004B701A601481B590B6A0B7B0B80E8BC
:2045200094E00E94A0106BE17FE080E894E00E941B0D8091B2030E94A3106DE07FE080E835
:2045400094E00E941B0D8091B1030E94A31062E07FE080E894E00E941B0D8091B0030E9456
:20456000A3106BEE7EE080E894E00E941B0D6091C0037091C10380E894E00E94DA106AEDF3
:204580007EE080E894E00E941B0D6091D1037091D20380E894E00E94DA106DEC7EE080E8F5
:2045A00094E00E941B0D609157047091580480E894E00E94DA106FEB7EE080E894E00E9476
:2045C0001B0D6091D3037091D40380E894E00E94DA108EE99EE00E94FD0F1092B003109212
:2045E000B1031092B2030E94300F8091D7039091D803A091D903B091DA03A7019601281B3B
:20460000390B4A0B5B0BDA01C90180369A4EA105B10508F4F2C0C092D703D092D803E09273
:20462000D903F092DA036AED7FE080E894E00E941B0DC701B60128EE33E040E050E00E9449
:20464000BB29BA01A90180E894E00E94A01063ED7FE080E894E00E941B0D6091D5037091C4
:20466000D60380E894E00E94DA106AEC7FE080E894E00E941B0D6091D3037091D40380E897
:2046800094E00E94DA1061EC7FE080E894E00E941B0D6091E6037091E70380E894E00E9485
:2046A000DA1066EB7FE080E894E00E941B0D609157047091580480E894E00E94DA106FEA50
:2046C0007FE080E894E00E941B0D6091D1037091D20380E894E00E94DA1067EA7FE080E8BA
:2046E00094E00E941B0D6091CF037091D00380E894E00E94DA1060EA7FE080E894E00E9456
:204700001B0D8091CE030E94A31066E97FE080E894E00E941B0D6091CC037091CD0380E8ED
:2047200094E00E94DA106FE87FE080E894E00E941B0D4091C8035091C9036091CA03709115
:20474000CB0380E894E00E94A01069E87FE080E894E00E941B0D609178047091790480E8B4
:2047600094E00E94DA1061E87FE080E894E00E941B0D6091C6037091C70380E894E00E94E8
:20478000DA1069E77FE080E894E00E941B0D6091C4037091C50380E894E00E94DA106FE69C
:2047A0007FE080E894E00E941B0D6091C2037091C30380E894E00E94DA1068E67FE080E8FA
:2047C00094E00E941B0D6091C0037091C10380E894E00E94DA106FE57FE080E894E00E9489
:2047E0001B0D4091700450E070E060E02AE080E894E00E9454100E94F70F809170048111E1
:204800007FC08091E2039091E303A091E403B091E503A7019601281B390B4A0B5B0BDA01BF
:20482000C901883B9B40A105B10508F469C0C092E203D092E303E092E403F092E5036AE102
:2048400070E180E894E00E941B0D809169040E94A3106EE070E180E894E00E941B0D809138
:20486000E1030E94A3108FE20E942C0E8091E0030E94A3108091DF03882331F068EF7FE0F4
:2048800080E894E00E941B0D63EF7FE080E894E00E941B0D4091DB035091DC036091DD03DB
:2048A0007091DE0380E894E00E94A0106BEE7FE080E894E00E941B0D40917C0450917D04D7
:2048C00060917E0470917F0480E894E00E94A01066EE7FE080E894E00E941B0DC701B601DB
:2048E00028EE33E040E050E00E94BB29BA01A90180E894E00E94A01084EE9FE00E94FD0F87
:204900008091E8039091E903A091EA03B091EB03A7019601281B390B4A0B5B0BDA01C9011B
:2049200080369A4EA105B10540F1C092E803D092E903E092EA03F092EB036EE770E180E8E4
:2049400094E00E941B0D609106017091070180E894E00E94DA1060E670E180E894E00E949B
:204960001B0D6091E6037091E70380E894E00E94DA108FE290E10E94FD0F80E090E0892BCE
:2049800009F4F8C90E94A90D882309F4EAC90E940000E7C9E0E096CDEE2309F426CE40915E
:2049A000B9035091BA03C352DF4F59834883CD5DD0400E940F0D9B01AC01241935094609A8
:2049C0005709CF51DF4F288339834A835B83C15ED040BE016B537F4FC752DF4F8881998133
:2049E000C95DD0400E94190FBE0166547F4FC352DF4F88819981CD5DD0400E94190FA090D6
:204A0000AE039090AF03BB2009F457C0BE016E557F4FC8010E94190F0E940F0DC952DF4F3A
:204A20003881C75DD0403F93CA52DF4F4881C65DD0404F9321E232E03F932F9328EE33E0BD
:204A400040E050E00E94BB295F934F933F932F93CD52DF4F5881C35DD0405F93CE52DF4F82
:204A60008881C25DD0408F93CF52DF4F9881C15DD0409F93C053DF4FE881C05DD040EF93BB
:204A80009F92AF9284E292E09F938F931F9280E48F9321E030E02C0F3D1F3F932F930E9463
:204AA000572A0FB6F894DEBF0FBECDBF18161906F4F1312C212C10E07FC10E940F0D21E261
:204AC00032E03F932F9328EE33E040E050E00E94BB295F934F933F932F93CD52DF4F5881A3
:204AE000C35DD0405F93CE52DF4F8881C25DD0408F93CF52DF4F9881C15DD0409F93C05311
:204B0000DF4FE881C05DD040EF939F92AF928AE392E09F938F931F9280E48F9321E030E062
:204B20002C0F3D1F3F932F930E94572ABACF9C012D5F3F4F2134310508F0BBCF682FCE0174
:204B400001960E945D0FCC52DF4FE881F981C45DD04001900020E9F73197CC52DF4F8881A2
:204B60009981C45DD040E81BF90BEE2309F4A1CF1F0133241091CE03112309F4BAC0A090A1
:204B8000AD03B12CF501EE0FFF1FEB55FC4F808191810E94B80F87FF1CC09FEFA91AB90AFA
:204BA000E3E0AE22BB24A092AD0311501093CE038091CC039091CD038F3F980729F00196DE
:204BC0009093CD038093CC038BE39EE00E94FD0FD1CF10E035E0932E48E1842E0AE080912A
:204BE000CE03181708F085C0E091AD03E10FE370F0E0EE0FFF1FEB55FC4F808191810E94E9
:204C0000B80F87FD76C0292D382F3203F0011124E358FC4F84811F928F938381282F082E0C
:204C2000000C330B3F938F938281282F082E000C330B3F938F9381818F9380818F934DE4F0
:204C400052E05F934F931F928F92C952DF4F9881C75DD0409F93CA52DF4FE881C65DD040CE
:204C6000EF930E94572A0FB6F894DEBF0FBECDBF18161906F4F59C012D5F3F4F29313105CB
:204C8000C0F5682FCE018E559F4F0E945D0FCA52DF4FE881F981C65DD04001900020E9F729
:204CA0003197AF01CA52DF4F88819981C65DD040481B590B5527C10101965A01A80EB91E58
:204CC000E1EAAE16B104A8F4E1E0F0E0EC0FFD1FE20DF31D0083BE016E557F4F21E030E069
:204CE0002C0F3D1F820F931F0E94122A1F5F150176CF8091060190910701C152DF4F4881D8
:204D00005981CF5DD0404817590720F4509307014093060100917004002309F489C1C101B4
:204D20000197803A910508F047C000915B04002309F45BC00E940F0D8090790390907A037A
:204D4000A0907B03B0907C03DC01CB0188199909AA09BB0980345FE19507A105B10570F532
:204D6000803D9740A105B105B8F080915A04811113C081E080935A048091D1039091D2031A
:204D80008F3F980729F001969093D2038093D10389EE9DE00E94FD0F8091C0039091C103BC
:204DA0008F3F980729F001969093C1038093C00381E99DE00E94FD0F00E03AC110925B04A8
:204DC00010925A048091CF039091D0038F3F980729F001969093D0038093CF0385E39DE01F
:204DE0000E94FD0F0E94300FE7CF81E0809378030E940F0D8090740390907503A0907603F9
:204E0000B0907703681979098A099B09603571058105910518F40E94D11AEACF69E27DE07D
:204E20008DE195E00E941B0D41014FEF841A940AB4018DE195E00E94DA1066E27DE08DE1D2
:204E400095E00E941B0D0E940F0D2B013C01B12CA12C0E940F0D64197509860997096C32BC
:204E600071408105910508F06BC08DE195E00E94C60E892B71F38DE195E00E94DC0EC85248
:204E8000DF4F8883C85DD0408E3309F45DC10E94421AC852DF4F8881C85DD04081548A31B4
:204EA00058F4C852DF4F8881C85DD040805EC852DF4F8883C85DD040EA2DF0E0E35CFE4F47
:204EC0008081C852DF4F9881C85DD040A394891751F0AA24A394C852DF4FE881C85DD04038
:204EE000E23609F0A12CEA2DF0E0E35CFE4F8081882309F447C1EB2DF0E0E95CFE4F808135
:204F0000C852DF4FF881C85DD040B3948F1751F0BB24B394C852DF4F2881C85DD0402536C6
:204F200009F0B12CEB2DF0E0E95CFE4F808181119CCF8FE79CE00E94FD0F82E0B82E2FC04C
:204F4000B12CA12C63E28DE195E00E946A0E3FEFA31AB30A2A143B04A9F76AE08DE195E073
:204F60000E946A0E8091E6039091E7038F3F980729F001969093E7038093E60363E57CE048
:204F800080E894E00E941B0DB40180E894E00E94DA1085E19CE00E94FD0F93E0B92E0E94C2
:204FA0000F0D60937403709375038093760390937703109278036FE07CE0BB2011F064E0DF
:204FC0007CE080E894E00E941B0DCE0101960E94EB1251E0B51629F1B11016C010925C041B
:204FE0000E940F0D60935D0470935E0480935F04909360041092B0031092B1031092B2033B
:20500000111191C001E014C00E94AC1082E0B81281C08091B0038F3F59F08F5F8093B0030E
:2050200007C08091B2038F3F19F08F5F8093B20381E08093B30364E97EE080E894E00E9403
:205040001B0D4091C8035091C9036091CA037091CB0380E894E00E94A0106FE87EE080E807
:2050600094E00E941B0DB10180E894E00E94DA1069E87EE080E894E00E941B0D812F0E9431
:20508000A31063E87EE080E894E00E941B0DCF51DF4F488159816A817B81C15ED04080E89F
:2050A00094E00E94A0108EE79EE0011102C089E79EE00E94FD0F0E940F0D002309F495CA8A
:2050C0008091AE039091AF0301969093AF038093AE03C752DF4FE881F981C95DD040F09328
:2050E0000501E0930401C352DF4F28813981CD5DD0403093030120930201C552DF4F4881C7
:205100005981CB5DD04050930101409300011092B8036BCA8091B1038F3F09F489CF8F5F5C
:205120008093B10385CF8091AD03810F83708093AD038091CE03811B8093CE0363CF85E054
:205140009BE00E94FD0F72C8A101BE016F5F7F4F8DE195E00E943F0D6AE08DE195E00E944F
:205160006A0E81E080935B0410925A040E940F0D6093790370937A0380937B0390937C0304
:20518000B12C0DCF80EC9CE00E94FD0FBB24B39406CF89E691E090931E0580931D05809159
:2051A0000703909108038D51954071F4E0913005F091310590818091320580958923808327
:2051C000109208031092070308958F929F92AF92BF92CF92DF92EF92FF92CF93DF93EC0150
:2051E000688179818A819B81611571058105910521F464E279ED8BE597E02DE133EF41E0A4
:2052000050E00E94892949015A019B01AC01A7EAB1E40E94A8296B017C01ACEEB4EFA501B7
:2052200094010E94B629C60ED71EE81EF91EF7FE06C081E0C81AD108E10880E8F80AC882FE
:20524000D982EA82FB82C701B6019F77DF91CF91FF90EF90DF90CF90BF90AF909F908F90ED
:2052600008958F929F92AF92BF92CF92DF92EF92FF9260910B0170910C0180910D0190917E
:205280000E01611571058105910521F464E279ED8BE597E02DE133EF41E050E00E9489297A
:2052A00049015A019B01AC01A7EAB1E40E94A8296B017C01ACEEB4EFA50194010E94B62985
:2052C000C60ED71EE81EF91EF7FE06C081E0C81AD108E10880E8F80AC0920B01D0920C01F1
:2052E000E0920D01F0920E01C701B6019F77FF90EF90DF90CF90BF90AF909F908F900895B3
:2053000060930B0170930C0180930D0190930E010895052E97FB1EF400940E94A02957FD64
:2053200007D00E94BB2907FC03D04EF40C94A02950954095309521953F4F4F4F5F4F0895E3
:2053400090958095709561957F4F8F4F9F4F08950E94DD29A59F900DB49F900DA49F800D98
:20536000911D11240895B7FF0C94A8290E94A829821B930B0895A1E21A2EAA1BBB1BFD01D7
:205380000DC0AA1FBB1FEE1FFF1FA217B307E407F50720F0A21BB30BE40BF50B661F771F83
:2053A000881F991F1A9469F760957095809590959B01AC01BD01CF010895A29FB001B39F94
:2053C000C001A39F700D811D1124911DB29F700D811D1124911D0895991B79E004C0991F57
:2053E000961708F0961B881F7A95C9F780950895AA1BBB1B51E107C0AA1FBB1FA617B7077D
:2054000010F0A61BB70B881F991F5A95A9F780959095BC01CD010895EE0FFF1F0590F49184
:20542000E02D0994FB01DC0102C001900D9241505040D8F70895FC018191861721F0882302
:20544000D9F7992708953197CF010895FB01DC018D91019080190110D9F3990B0895FB01AF
:20546000DC014150504030F08D910190801919F40020B9F7881B990B0895FB0151915523AF
:20548000A9F0BF01DC014D9145174111E1F759F4CD010190002049F04D9140154111C9F32C
:2054A000FB014111EFCF81E090E001970895AEE0B0E0EDE5FAE20C94132D0D891E898F89D9
:2054C000988D26E02C831A83098397FF02C080E090E801979E838D83AE01455E5F4F698DDA
:2054E0007A8DCE0101960E94872A4D815E8157FD0AC02F813885421753070CF49A01020F55
:20550000131FF80110822E96E4E00C942F2DABE0B0E0EDE8FAE20C94052D7C013B018A0168
:20552000FC0117821682838181FFC8C1CE0101965C01F7019381F30193FD859193FF819123
:205540003F01882309F453C1853239F493FD859193FF81913F01853229F4B70190E00E9443
:20556000772CE7CF912C212C312CFFE1F31538F08B3211F190F4803209F1833229F137FC6A
:205580003CC020ED280F2A3050F536FE20C08AE0989E200D1124922E06C08D3291F080339D
:2055A00071F7689430F8F30193FD859193FF81913F018111DACF21C0689431F8689432F87A
:2055C000F2CF689433F8EFCF689434F8ECCFEAE02E9E200D1124222E689435F8E4CF8E325E
:2055E00029F436FC04C1689436F8DDCF8C3619F4689437F8D8CF8836B1F2982F9F7D9554F3
:205600009330E0F08336A1F18337C1F1833509F063C02801F2E04F0E511CF801C080D1801D
:20562000692D70E036FC02C06FEF7FEFC6010E94612C4C01689437F882010AC00C5F1F4F30
:20564000FFE3F98388248394912C6501E89437F833FE2DC0522C8114910471F5552009F4BD
:2056600068CFB70180E290E00E94772C5A94F6CFF801808189830E5F1F4FE4CF2801F2E0E2
:205680004F0E511CF801C080D180692D70E036FC02C06FEF7FEFC6010E946C2C4C0182013F
:2056A000D5CFB70180E290E00E94772C2A942814190409F0B0F7CECFF60137FC859137FEAE
:2056C00081916F01B70190E00E94772C51105A94F1E08F1A9108BFCF843619F0893609F070
:2056E00077C0F80137FE6BC060817181828193810C5F1F4FF32DFF763F2E97FF09C09095D1
:205700008095709561957F4F8F4F9F4F689437F82AE030E0A5010E94A72CC82ECA188C2CEF
:20572000432C36FE0CC0E89440F8C91440F434FE05C032FC03C0F32DFE7E4F2E892C44FE3D
:2057400095C0FE01EC0DF11D8081803309F087C0242D297E422E842D8870582E43FC95C0CF
:2057600040FE8FC09C2C821418F42C0C922C981844FE91C0B70180E390E00E94772C42FEE9
:2057800009C088E790E041FE02C088E590E0B7010E94772CC91408F48AC0CA94D12C9FEF7A
:2057A000C91AD90ACA0CDB1CF60182916F01B70190E00E94772CAC14BD04B1F74FCF608147
:2057C0007181072E000C880B990B0E5F1F4F92CFD32CE894D4F82AE030E0853739F1232D8C
:2057E000297FD22E8F3601F148F48835A9F0F701868197812B96E2E10C94212D803749F03F
:205800008837A9F7D4FE02C06894D2F820E130E00DC06894D4F8F6CF34FE03C0822F8660D8
:20582000D82E20E132E002C028E030E0F801D7FE0FC060817181828193810C5F1F4FA5016F
:205840000E94A72CC82ECA183D2CE89437F867CF6081718190E080E00E5F1F4FF0CF42FC36
:2058600002C0839478CF8394839475CF842D867809F471CFF6CFB70180E290E00E94772C16
:2058800083948214C0F3512C73CF522C5818821408F46ECFF8CF842D867809F47BCF8BE202
:2058A00041FE80E247FC8DE2B70190E071CFB70180E390E00E94772C9A946CCF8FEF9FEFE8
:2058C00099CFFC010590615070400110D8F7809590958E0F9F1F0895FC016150704001906C
:2058E0000110D8F7809590958E0F9F1F08950F931F93CF93DF93182F092FEB018B8181FD79
:2059000009C01FEF0FEF812F902FDF91CF911F910F91089582FF14C02E813F818C819D8197
:20592000281739073CF4E881F981CF0101969983888310838E819F8101969F838E83E3CF09
:20594000E885F985812F0995892BA1F3DACFFA01AA27283051F1203181F1E8946F936E7F89
:205960006E5F7F4F8F4F9F4FAF4FB1E03ED0B4E03CD0670F781F891F9A1FA11D680F791F48
:205980008A1F911DA11D6A0F711D811D911DA11D20D009F468943F912AE0269F11243019DB
:2059A000305D3193DEF6CF010895462F4770405D4193B3E00FD0C9F7F6CF462F4F70405DF0
:2059C0004A3318F0495D31FD4052419302D0A9F7EACFB4E0A6959795879577956795BA956F
:2059E000C9F700976105710508959B01AC010A2E06945795479537952795BA95C9F7620FEC
:205A0000731F841F951FA01D08952F923F924F925F926F927F928F929F92AF92BF92CF9288
:205A2000DF92EF92FF920F931F93CF93DF93CDB7DEB7CA1BDB0B0FB6F894DEBF0FBECDBF90
:205A400009942A88398848885F846E847D848C849B84AA84B984C884DF80EE80FD800C81D3
:205A60001B81AA81B981CE0FD11D0FB6F894DEBF0FBECDBFED0108951CE0C0E7DCE004C065
:205A8000FE010E940C2A2196C137D107C9F7F894FFCFFEFFFFFFFFFFFFFFF401FF010000A2
:205AA00000000000008813983A307560EA0102020202FFC40920033075C409B004401F20ED
:205AC00003DC05DC052823B80B6572726F7200627573790030313233343536373839414276
:205AE000434445460000000000DF0D3F0D6C0D310E9D0D7B0D8F0D000000006A0E3F0DFD15
:205B00000E690EC60EDC0E510E0D0A002B4950442C005749464900474F5420495000444939
:205B200053434F4E4E4543540062757379002B43574A41503A004552524F52006E6F206183
:205B4000700041542B006E6F206368616E6765002B43574C41503A0033465F333032006EFB
:205B60006F20697000414C524541004C494E4B454400434C4F53454400556E6C696E6B0076
:205B8000554E4C494E4B006C696E6B206973206E6F742076616C69640053454E44204F4B05
:205BA0000053454E44204641494C00302E302E302E3000503100532C25752C25732C257313
:205BC0002C256C752C25732C25732C00532C25752C25732C25732C256C752C25732C0041DB
:205BE0002C25752C256325632C25752C0000732C25732C256C752C25732C00412C25752C25
:205C0000256325632C25752C0000454400556E6C696E6B00554E4C494E4B006C696E6B20E9
:205C20006973206E6F742076616C69640053454E44204F4B0053454E44204641494C00306D
:205C40002E302E302E3000412C25752C256325632C25752C00503100532C25752C25732C6B
:205C600025732C256C752C25732C25732C00532C25752C25732C25732C256C752C25732CE3
:205C80000000FFFFFFFFFFFFFFFFFFFFFFFFFFFFFFFFFFFFFFFFFFFFFFFFFFFFFFFFFFFF22
:205CA000FFFFFFFFFFFFFFFFFFFFFFFFFFFFFFFFFFFFFFFFFFFFFFFFFFFFFFFFFFFFFFFF04
:205CC000FFFFFFFFFFFFFFFFFFFFFFFFFFFFFFFFFFFFFFFFFFFFFFFFFFFFFFFFFFFFFFFFE4
:205CE000FFFFFFFFFFFFFFFFFFFFFFFFFFFFFFFFFFFFFFFFFFFFFFFFFFFFFFFFFFFFFFFFC4
:205D0000FFFFFFFFFFFFFFFFFFFFFFFFFFFFFFFFFFFFFFFFFFFFFFFFFFFFFFFFFFFFFFFFA3
:207E0000112484B714BE81FFF0D085E08093810082E08093C00088E18093C10086E08093FC
:207E2000C20080E18093C4008EE0C9D0259A86E020E33CEF91E0309385002093840096BBAD
:207E4000B09BFECF1D9AA8958150A9F7CC24DD2488248394B5E0AB2EA1E19A2EF3E0BF2E79
:207E6000A2D0813461F49FD0082FAFD0023811F0013811F484E001C083E08DD089C0823404
:207E800011F484E103C0853419F485E0A6D080C0853579F488D0E82EFF2485D0082F10E0A0
:207EA000102F00270E291F29000F111F8ED068016FC0863521F484E090D080E0DECF84364D
:207EC00009F040C070D06FD0082F6DD080E0C81680E7D80618F4F601B7BEE895C0E0D1E0ED
:207EE00062D089930C17E1F7F0E0CF16F0E7DF0618F0F601B7BEE89568D007B600FCFDCF1A
:207F0000A601A0E0B1E02C9130E011968C91119790E0982F8827822B932B1296FA010C016F
:207F200087BEE89511244E5F5F4FF1E0A038BF0751F7F601A7BEE89507B600FCFDCF97BE85
:207F4000E89526C08437B1F42ED02DD0F82E2BD03CD0F601EF2C8F010F5F1F4F84911BD0B8
:207F6000EA94F801C1F70894C11CD11CFA94CF0CD11C0EC0853739F428D08EE10CD085E9AE
:207F80000AD08FE07ACF813511F488E018D01DD080E101D065CF982F8091C00085FFFCCF0A
:207FA0009093C60008958091C00087FFFCCF8091C00084FD01C0A8958091C6000895E0E68F
:207FC000F0E098E1908380830895EDDF803219F088E0F5DFFFCF84E1DECF1F93182FE3DF47
:207FE0001150E9F7F2DF1F91089580E0E8DFEE27FF270994FFFFFFFFFFFFFFFFFFFF040425
:00000001FF
