:200000000C94780C0C94AF0C0C94AF0C0C949B1B0C949B1B0C949B1B0C94AF0C0C94AF0C4E
:200020000C94AF0C0C94AF0C0C94AF0C0C94AF0C0C94AF0C0C94AF0C0C94AF0C0C94AF0CE8
:200040000C94F91A0C94AF0C0C94691B0C94431B0C94AF0C0C94AF0C0C94AF0C0C94AF0C04
:200060000C94AF0C0C94AF0C5B41434B515D20EAB080EB939D20ECB0B820E2809420EAB059
:2000800080EC9EA520EC98A4EB9E98EB909C20EBB3B4EBA5982041434B20EBA5BC20EBB27F
:2000A00084EBA6B0EB8BA400EBB094EC9DB4ED8AB8EBA5BC20EB8498EC96B420EBB284EBF1
:2000C000A0B8EB8BA4005B44524F502D4F56465D20ECA484EC9DB42000EBB094EC9DB4EDBF
:2000E0008AB820EBB284EBA6BC202B20ECA48420ECA1B0EBA6BD20ECB488EAB8B0ED999452
:20010000005B4C41444445525D2031EB8BA820ECA1B0ECB9983A20EC8B9CEBA6ACEC96BC8A
:2001200020EB939CEBA088EC9DB82000ECB48820EBB0B1EC98A4ED9484EBA19C20EB9098F5
:20014000ED9280EC9DB4ED959CEB8BA428ECA285ECB0A9EC97AD29005B4C41444445525DEE
:20016000202020EB8C80EC8BA02034EB8BA820ECA1B0ECB998EBA5BC20005B4C41444445E4
:20018000525D202020ED9584EC9A9420EBB680ED92883A20EBA19CEC9AB0EC82ACEC9DB4D9
:2001A000EB939C204D4F5346455420EC8AA4EC9C84ECB99828EC98883A20324E37303030DF
:2001C0002F414F33343030202B2031306B29005B4C41444445525D20E29AA035EB8BA82026
:2001E000EBAFB8EC8BA4ED96893A20ECA084EC9B9020EC9EACED88ACEC9E85EC9D80202A2C
:200200002AEBB680ED928820EBAFB8EBB3B4EC9CA0EBA19C20EBAFB8EAB5ACED98842A2A5E
:20022000EC9DB4EB8BA400ECB48820EC89ACEAB3A02041542B52535420EBA78C20EB909877
:20024000ED9280EC9DB4ED959CEB8BA4005B4C41444445525D202020ECA780EAB888EC9DA0
:200260008020005B4C41444445525D202020E2869220556E6F20413220EBA5BC20455350C7
:2002800020EC9D982052535420EC979020EBACBCEBA6ACEAB3A0204553505F5253545F57CE
:2002A0004952454420EBA5BC203120EBA19C20EBB094EABF9420EB8BA4EC8B9C20EAB5ACD1
:2002C000EC9B8CEB9DBC005B4C41444445525D20E29AA034EB8BA820EBAFB8EC8BA4ED96C5
:2002E000893A20ED9598EB939CEC9BA8EC96B420EBA6ACEC858BEC84A0EC9DB420EBB0B071
:20030000EC84A0EB9098ECA78020EC958AEC9598EB8BA4284553505F5253545F574952454B
:20032000443D302900ECB48820EC89ACEAB3A02041542B5253542028EBAAA8EB938820ECCD
:20034000868CED9484ED8AB820EBA6ACEC858B29005B4C41444445525D2033EB8BA820ECF4
:20036000A1B0ECB9983A2000ECB48820EC89ACEAB3A02041542B435751415020EBA19C202B
:20038000EAB2B0ED95A9EC9D8420EBAA85EC8B9CECA081EC9CBCEBA19C20EB818AEC9D80F4
:2003A00020EB92A420EB8BA4EC8B9C20EBB699EB8A94EB8BA4005B4C41444445525D20327C
:2003C000EB8BA820ECA1B0ECB9983A2000EB8BA8005B4C41444445525D20E28691E2869177
:2003E00020EB8BA820EC8381EC8AB920E2869220005B4C41444445525D20E286912033EB8B
:200400008BA82841542B5253542920ECA781ED968920E2809420415420EAB384ECB8B5EC0E
:200420009DB420EC9EA0EAB2BCEC9CBCEBA9B420EC9584EB9E9820EB8BA8EC9D8020EC9D07
:2004400098EBAFB8EAB08020EC9786EB8BA400ED9A8C20EB8884ECA0812900EB8BA82800AF
:2004600020C2B720ED9884EC9EAC2000EC9786EC9D8C00ED9A8C20C2B720EAB2B0ED95A903
:20048000EC9CA0ECA78020007320C2B720EC97B0EC868D2000292043574A4150EC868CECDB
:2004A0009A94200043574A4150204641494C00415420EAB384ECB8B520EC9EA0EAB98000A1
:2004C00043574A415020EBACB4EC9D91EB8BB5005B4C41444445525D20EC8BA4ED8CA8280F
:2004E000005B4C41444445525D2031ECB48820EC9588EC979020EB93A4EC96B4EC98A8201F
:20050000ECA491EBB3B520EC8BA4ED8CA820EC8BA0ED98B820E2809420EC84B8ECA7802006
:20052000EC958AEB8A94EB8BA4005B434B53554D204E475D20005B42414420534C4F545D9C
:20054000207269643D0020E28692206F636375706965643D005B53494D5D20ED959C20EA53
:20056000B1B8EC9D8C3A20005B53494D5D20EBB094EABF8020EC8B9CEBAEAC20ECB9B8ECA9
:200580009DB420EC9786EB8BA420E2869220726573756C743D35005B424144204649454C1A
:2005A00044535D207269643D005B445550207269645D20005B4E45545D20E2988520455315
:2005C0005020EAB08020495020EBA5BC20EC9E83EC9788EB8BA420E2809420EBAAA8EB9329
:2005E0008820EBA6ACEC858BEC9CBCEBA19C20EBB3B8EB8BA42E20EB8884ECA08120EC823E
:20060000ACEAB1B42000ED9A8C20EC97B0EC868D20EC8BA4ED8CA820E2869220EC98A4EDAF
:200620009484EB9DBCEC9DB820ECA084ED99982E20EB82A1EC9D8020EC868CECBC93EBB670
:2006400080ED84B020EB8BABEB8A94EB8BA428434950434C4F534529005B4E45545D20EC47
:20066000A084EC86A120005B4E45545D20ECA084EC86A120EC8BA4ED8CA82000EB819400C5
:2006800020C2B72036EB8BA828EC9B8CECB998EB8F85292000EBAFB8EBB0B0EC84A020E2DE
:2006A000809420413220EBA5BC204553502052535420EC979020EBACBCEBA6ACEAB3A020C6
:2006C0004553505F5253545F57495245443D31005B424F4F545D20EC82ACEB8BA4EBA6AC15
:2006E0002034EB8BA82845535020ED9598EB939CEBA6ACEC858BEC84A0292000EC9B8CEC93
:20070000B998EB8F8520002A2AEBB88CEB9DBCEC9AB4EC9584EC9B8328ECA084EC9B90EB1F
:20072000B680ECA1B1292A2A2000EC99B8EBB680EBA6ACEC858B28EBB284ED8ABC2F4454CE
:2007400052292000ECA084EC9B90EC9DB8EAB08028504F52292000EBB688EBAA852028EBA4
:20076000B680ED8AB8EBA19CEB8D94EAB080204D4355535220EC9D8420ECA780EC9AB0EA9C
:20078000B3A020EB8498EC96B4EC9994EB8BA429005B424F4F545D20EBA6ACEC858B20ECFC
:2007A0009B90EC9DB83A20000A5B5041524B494E47204E4F44455D2070726F746F20763144
:2007C000202F20313020736C6F7473202F206465763D5031005B4C41444445525D2034EBE5
:2007E0008BA83A2045535020EBA6ACEC858B20ED95B4ECA09C20E2809420EBB680ED8C8558
:20080000EC9D8420EAB8B0EB8BA4EBA0B8EB8BA4EAB0802043574D4F444520EBB680ED8437
:20082000B020EB8BA4EC8B9C005B4E45545D2031302043575141502028EAB2B0ED95A92020
:20084000ED95B4ECA09C20E2809420EC82ACEB8BA4EBA6AC2032EB8BA8290041542B4357A0
:200860005141500D0A005B4E45545D20392043574C41502028ECA3BCEBB38020415020EB83
:20088000AAA9EBA19D20E2809420ECA784EB8BA8290041542B43574C41500D0A005B4E450C
:2008A000545D2038204357434F554E5452592028ECB184EB84902031322F313320EC9AB06D
:2008C000ED9A8C20EC8B9CEB8F8420E2809420ECA784EB8BA8290041542B4357434F554EB1
:2008E0005452595F4445463D302C224B52222C312C31330D0A005B4E45545D203720474DA3
:20090000522028ED8E8CEC9BA8EC96B420ED8C9020E2809420ECA784EB8BA8290041542B54
:20092000474D520D0A005B4E45545D203620434950434C4F53452028EB82A1EC9D8020ECE8
:20094000868CECBC9320EB8BABEAB8B0290041542B434950434C4F53450D0A005B4E455423
:200960005D20352043495053544152540041542B43495053544152543D22544350222C225B
:200980003139322E3136382E33352E3831222C393939310D0A005B4E45545D2034204349E1
:2009A000504D55583D300041542B4349504D55583D300D0A005B4E45545D20332043494682
:2009C00053522028495020EBA5BC20EC8BA4ECA09CEBA19C20EBB09BEC9598EB8A94EAB088
:2009E00080290041542B43494653520D0A005B4E45545D20322043574A41502028EC9D9118
:200A0000EB8BB5EAB98CECA78020ECB59CEB8C80203330ECB48820EAB8B0EB8BA4EBA6B09D
:200A2000EB8BA4290041542B43574A41503D22534B5F5769466947494741353044435F32DE
:200A40002E3447222C2232303131303530373936220D0A005B4E45545D20312043574D4FFF
:200A600044453D310041542B43574D4F44453D310D0A005B4E45545D203020525354004132
:200A8000542B5253540D0A00ED9A8C20EC8BA4ED8CA820E286922041542B52535420EBA1B9
:200AA0009C20ECA084ECB2B420ECB488EAB8B0ED999428EC82ACEB8BA4EBA6AC20EC8381BB
:200AC000EC8AB929005B4E45545D20434950434C4F534520005B4E45545D20434946535257
:200AE0002033ED9A8CEC9790EB8F8420495020EAB08020EC9786EB8BA420E2869220435775
:200B00004A415020EBB680ED84B020EB8BA4EC8B9C005B4E45545D2043494653522033EDD5
:200B20009A8C20EC868CECA78420E2809420EAB7B8EB9FACEB8298206275737920EAB1B042
:200B4000EBB680EC9880EB8BA42E20495020EC868CEC8BA4EBA19C20EC84B8ECA78020ECA7
:200B6000958AEB8A94EB8BA4005B4E45545D20495020EAB08020EC9786EB8BA420E2869244
:200B800020434950535441525420EBA5BC20EBB3B4EB82B4ECA78020EC958AEAB3A02043EE
:200BA000574A415020EBA19C20EB9098EB8F8CEC9584EAB084EB8BA400EB8BA829005B4C57
:200BC00041444445525D20E28693203330ECB48820EC97B0EC868D20EC98A8EB9DBCEC9D27
:200BE000B820E2809420EC82ACEB8BA4EBA6ACEBA5BC2030EB8BA8EC9CBCEBA19C20EB82E3
:200C0000B4EBA6B0EB8BA42028ECA781ECA08420005B54582D44524F505D20005B54585DEF
:200C20002000EBB094EC9DB4ED8AB8EBA19C20EC8AA4ED8AB8EBA6BC20EBB3B5EAB5AC2835
:200C4000EC849CEBB284EB8A9420EC9DB420ECA484EC9D8420EBB284EBA6B0EB8BA42900FB
:200C60005B54582D524553594E435D20ED9484EBA1ACED9484ED8AB820EB8693ECB9A820ED
:200C8000E2869220EB8D94EBAFB820005B54582D52454A4543545D2043495053454E442028
:200CA000EAB1B0EBB680284552524F522920E2809420EB8D94EBAFB8EBA5BC20EB84A3ECEF
:200CC000A78020EC958AEB8A94EB8BA4005B54582D425553595D2045535020EAB08020EB7E
:200CE000B094EC8198EB8BA428EAB1B0EBB6802920E2809420EC8BA4ED8CA8EBA19C20EC2E
:200D000084B8ECA78020EC958AEB8A94EB8BA42E20EB8BA4EC9D8C20ECA3BCEAB8B0EC9779
:200D20009020EB8BA4EC8B9C20EBB3B4EB82B8EB8BA4000D0A0041542B43495053454E4448
:200D40003D005B54582D574149545D20E29885E2988520543220ECB488EAB3BC20E2809415
:200D60002053454E44204F4B20EAB08020EB819DEB82B420EC958820EC98A8EB8BA420E25A
:200D8000869220EBA781ED81ACEBA5BC20EB8BA4EC8B9C20EC84B8EC9AB4EB8BA4005B540A
:200DA000582D574149545D20EC959E20ECA084EC86A1EC9D982053454E44204F4B20EBA5C5
:200DC000BC20EC9584ECA78120EBAABB20EBB4A4EB8BA420E2809420EC9DB4EBB28820EC8D
:200DE000A3BCEAB8B0EB8A9420EAB1B4EB8488EB9BB4EB8BA4005B54582D574149545D2099
:200E0000E2988520543120ECB488EAB3BC20E2809420EAB7B8EB9E98EB8F8420EAB384ECB2
:200E2000868D20EAB8B0EB8BA4EBA6B0EB8BA428EB9190EB93A4EAB8B0ECA78020EC958AD2
:200E4000EB8A94EB8BA429005B41434B515D20ECBA90EC8B9CEC9790EC849C20EBB080EBC0
:200E6000A0A4EB829820EBA78CEB93A420EC889820EC9786EB8BA420E2809420EBB284EB18
:200E8000A6B0EB8BA40020723D300020723D3100206475653D002061636B3D002074783D73
:200EA000005B534C4F545D206E3D005D20E2869220EBA781ED81ACEBA5BC20EB8BA4EC8BAC
:200EC0009C20EC84B8EC9AB4EB8BA400202F20455350EBA6ACEC858B2000202F2053454ED5
:200EE000444641494C2000202F2053454E444F4BEC8381ED959C20002920C2B720EB888438
:200F0000ECA0815BEAB1B4EB8488EB9C802000202F20EAB1B0EBB6802000202F20EBACB447
:200F2000EC9D91EB8BB520006D7320EB8F99EC958820ED959C20ECA484EB8F8420EBAABB50
:200F400020EB8298EAB094EB8BA420286275737920005B4E45545D20E2988520ECA095EC0E
:200F6000A78020EAB090ECA7803A2000206F6E6C696E653D0020736B69703D0020636B733C
:200F8000756D6E673D002073736F76663D0020736D6973733D00206F6F773D0020736C6F23
:200FA000743D002061636B64726F703D002061636B713D0020737475636B3D00206F6B744D
:200FC0006F3D002073656E646661696C3D0020726573796E633D00206573707273743D00D3
:200FE0002064726F703D005B434E545D2075703D0073002075703D00206C696E65733D00D3
:201000002072783D00205B455350EBA6ACEC858BEC9CA0ECA780ECA4915D0020EC82ACEB0F
:201020008BA4EBA6AC3D005B444941475D206F66666C696E6520737465703D00ED9A8C20EB
:2010400028EC849CEBB284EC9D982027EBB284EBA6B0ECA4842720EAB3BC20EBA79EEC95EC
:2010600084EC95BC20ED959CEB8BA42900204220C2B720ED9484EBA1ACED9484ED8AB82082
:20108000EC9EACEB8F99EAB8B020005B52414D5D20ECB59CECA08020EC97ACEC9CA02000FD
:2010A00000000000240027002A000000000800020100000304070000000000000000222060
:2010C00028005C780022005B4E45545D20EC86A1EC8BA020EC98A4EBA59820EC9D91EB8BE9
:2010E000B528EBA19CEAB7B8EBA78C2C20ECB9B4EC9AB4ED84B0EB8A942073656E644C69EC
:201100006E6520EC9DB420EC84BCEB8BA4293A20005B4E45545D20E298852053454E44208E
:201120004641494C20E2809420ED8E98EC9DB4EBA19CEB939CEAB98CECA78020EC8DBCEB49
:201140008A94EB8DB020ECA084EC86A1EC9DB420EC8BA4ED8CA8ED9688EB8BA42E20EC8B83
:20116000A4ED8CA8EBA19C20EC84BCEB8BA4005B4E45545D206C696E6B206973206E6F7442
:201180002076616C696420E2869220ECA689EC8B9C20EC98A4ED9484EB9DBCEC9DB82C2099
:2011A000EB82A1EC9D8020EC868CECBC9320EB8BABEAB8B028434950434C4F534529005B2E
:2011C0004E45545D206F6E6C696E652028434F4E4E45435429202B20ECBA90EC8B9C20EBEC
:2011E000B984EC9B80005B4E45545D206F6E6C696E652028414C524541445920434F4E4ECF
:20120000454354454420C2B720ECB488EAB8B020EAB2BDED95A929005B4E45545D20414C1D
:20122000524541445920434F4E4E454354454420E2809420EB82A1EC9D8020EC868CECBC73
:201240009320EC9D98EC8BAC20ECA491EC9DB4EBAF80EBA19C20EBAFBFECA78020EC958A20
:20126000EB8A94EB8BA420E2869220434950434C4F5345005B4E45545D206E6F206970200A
:20128000E2809420495020EAB08020EC9786EB8BA42E20434950535441525420EC9EACEC28
:2012A0008B9CEB8F84EBA5BC20ECA091EAB3A02043574A415020EBA19C20EB9098EB8F8C2D
:2012C000EC9584EAB084EB8BA4005B4E45545D202020322E3447487A20EC9DB8EAB080209A
:2012E0002F20ECA084ED8C8CEAB08020EB8BBFEB8A94EAB080202F205353494420ECB2A0F8
:20130000EC9E90EAB08020EBA79EEB8A94EAB080EBA5BC20EBB490EB9DBC2E005B4E4554D7
:201320005D20EC84A4ECA095ED959C205353494420EAB08020EBAAA9EBA19DEC9790202A6C
:201340002AEC9786EB8BA42A2A20E2869220EBB984EBB28820EBACB8ECA09CEAB08020ECA8
:201360009584EB8B88EB8BA42E005B4E45545D20202032EC889CEC9C843A20EBB984EBB0A4
:2013800080EBB288ED98B820202033EC889CEC9C843A20504D46283830322E313177292F5E
:2013A0005750413320ECA084ED9998EBAAA8EB939C20EB8184EAB8B0005B4E45545D20202C
:2013C0002031EC889CEC9C843A20EC9C8420ECA484EC9D98202A2AEBA788ECA780EBA78929
:2013E00020EC88ABEC9E9028ECB184EB8490292A2A20EBA5BC20EBB490EB9DBC2E2031321F
:201400002F313320EC9DB4EBA9B420EAB3B5EC9CA0EAB8B0EBA5BC20312F362F313120EB0A
:20142000A19C20EBB094EABF94EB9DBC005B4E45545D20EC84A4ECA095ED959C205353497E
:201440004420EAB08020EBAAA9EBA19DEC9790202A2AEC9E88EB8BA42A2A20E28692204105
:201460005020EB8A9420EBB3B4EC9DB8EB8BA42E20EAB2B0ED95A9EBA78C20EAB1B0EBB637
:2014800080EB909CEB8BA42E005B4E45545D20E29480E2948020415020EC8AA4ECBA94207D
:2014A000ED8C90ECA09520E29480E29480E29480E29480E29480E29480E29480E29480E250
:2014C0009480E29480E29480E29480E29480E29480E29480E29480E29480E29480E294805C
:2014E000E29480E29480E29480E29480E29480E29480E29480005B4E45545D202020E286CB
:201500009220EAB3B5EC9CA0EAB8B020ECB184EB8490EC9D8420312F362F313120EBA19C71
:2015200020EBB094EABEB8EB8A9420EAB283EC9DB420ED9995ECA09520ED95B4EBB295ECA7
:201540009DB4EB8BA4005B4E45545D204357434F554E54525920EBAFB8ECA780EC9B9028CF
:201560004552524F522920E2809420EC9DB420ED8E8CEC9BA8EC96B4EBA19CEB8A9420EC7C
:20158000B184EB84902031322F313320EC9D8420ECBD94EB939CEBA19C20EBAABB20EC9722
:2015A000B0EB8BA42E005B4E45545D20E29885204357434F554E54525920EAB08020EBA89A
:2015C000B9EC9788EB8BA420E2809420EAB79CECA09CEB8F84EBA994EC9DB820317E3133F8
:2015E0002E20ECB184EB849020313220EAB2B0ED95A9EC9DB420EC97B4EBA0B8EC9D84205F
:20160000EC889820EC9E88EB8BA4005B4E45545D204349504D55583D3020ECA081EC9AA914
:20162000EB90A820E28692204349505354415254005B4E45545D20E2988520495020ED99C6
:2016400095EBB3B43A20005B4C41444445525D2032EB8BA83A20EAB2B0ED95A920ED95B44E
:20166000ECA09C20EC9984EBA38C20E2869220EAB9A8EB8197ED959C20EC8381ED839CEC51
:201680009790EC849C2043574A415020EC9EACEC8B9CEB8F84005B4E45545D2043574A4137
:2016A00050204F4B20E2809420EAB2B0ED95A9EB9090EB8BA42E20495020EBA5BC20EC8B64
:2016C000A4ECA09CEBA19C20EBB09BEC9598EB8A94ECA78020434946535220EBA19C20ED9F
:2016E0009995EC9DB8ED959CEB8BA400ED9A8C2028EAB5ACED989520ED8E8CEC9BA8EC96AB
:20170000B4EB8A9420EC82ACEC9CA0EBA5BC20ECA3BCECA78020EC958AEB8A94EB8BA42969
:20172000005B4E45545D20E298852043574A415020EC8BA4ED8CA82000ECA091EC868D209E
:20174000EC8BA4ED8CA800EAB7B8205353494420EC9D9820415020EBA5BC20EBAABB20ECC7
:20176000B0BEEC9598EB8BA400EBB984EBB080EBB288ED98B8EAB08020ED8B80EBA0B8EBC3
:201780008BA400ECA091EC868D20EC8B9CEAB084ECB488EAB3BC005B4E45545D20E298856E
:2017A0002043574A415020EC8BA4ED8CA820EC82ACEC9CA03A20005B4E45545D2062757373
:2017C0007920E280942045535020EAB08020EC959E20EBAA85EBA0B9EC9D8420ECB298EB2D
:2017E000A6AC20ECA491EC9DB4EB8BA42E20ECA084ECA784ED9598ECA78020EC958AEB8ABD
:2018000094EB8BA4005B4E45545D205749464920444953434F4E4E45435420E280942049A3
:201820005020EBA5BC20EC9E83EC9788EB8BA4005B4E45545D205749464920474F54204939
:201840005020E2809420495020ED9995EBB3B42E2039ECB48820EB8C80EAB8B0ECB0BDEC7F
:201860009D8420EB819DEAB98CECA78020EAB8B0EB8BA4EBA6ACECA78020EC958AEAB3A098
:2018800020EBB094EBA19C20EB8BA4EC9D8C20EB8BA8EAB384EBA19C006D73005B534C4FD2
:2018A000542D4F4F575D202B005B41545D20000000000023002600290000000000250028DE
:2018C000002B0004040404040404040202020202020303030303030102040810204080019F
:2018E000020408102001020408102000411CD02811241FBECFEFD8E0DEBFCDBF84B7809317
:201900004A0514BE0FB6F894A89580916000886180936000109260000FBE12E0A0E0B1E079
:20192000E0EAFAE502C005900D92AA36B107D9F725E0AAE6B2E001C01D92AA34B207E1F79A
:201940001CE0C7E7DCE004C02197FE010E94132AC637D107C9F70E94EC1C0C94432D0C94D8
:201960000000833081F028F4813099F08230A9F008958730A9F08830C9F08430B1F48091DA
:2019800080008F7D03C0809180008F7780938000089584B58F7784BD089584B58F7DFBCF05
:2019A0008091B0008F778093B00008958091B0008F7DF9CFCF93DF9390E0FC01E952F74EAA
:2019C00024918D53974EFC0184918823C9F090E0880F991FFC01E056FF4EA591B491FC0160
:2019E000E754F74EC591D49161110DC09FB7F8948C91209582238C938881282328839FBF98
:201A0000DF91CF910895623051F49FB7F8943C91822F809583238C93E8812E2BEFCF8FB782
:201A2000F894EC912E2B2C938FBFEACF2FB7F8946091FF03709100048091010490910204D7
:201A40002FBF0895EF92FF920F931F93CF93DF938C017B01D0E0C0E0F701EC0FFD1F649164
:201A6000662361F0D801ED91FC910190F081E02DC8010995892B11F02196EECFCE01DF91CA
:201A8000CF911F910F91FF90EF900895AF92BF92CF92DF92EF92FF920F931F93CF93DF934D
:201AA0006C017B018B01040F151FEB015E01AE18BF08C017D10759F06991D601ED91FC91BE
:201AC0000190F081E02DC6010995892B79F7C501DF91CF911F910F91FF90EF90DF90CF90AC
:201AE000BF90AF900895FC01538D448D252F30E0842F90E0821B930B541710F0CF960895DE
:201B000001970895FC01918D828D981761F0A28DAE0FBF2FB11D5D968C91928D9F5F9F737F
:201B2000928F90E008958FEF9FEF0895FC01918D828D981731F0828DE80FF11D858D90E03E
:201B400008958FEF9FEF0895FC01918D228D892F90E0805C9F4F821B91098F7399270895ED
:201B60008EE894E00E94A40D21E0892B09F420E0822F089580E090E0892B29F00E94B00D2C
:201B800081110C9400000895FC01A48DA80FB92FB11DA35ABF4F2C91848D90E001968F73F9
:201BA0009927848FA689B7892C93A089B1898C91837080648C93938D848D981306C0028882
:201BC000F389E02D80818F7D80830895EF92FF920F931F93CF93DF93EC0181E0888F9B8D08
:201BE0008C8D98131AC0E889F989808185FF15C09FB7F894EE89FF896083E889F989808142
:201C00008370806480839FBF81E090E0DF91CF911F910F91FF90EF900895F62E0B8D10E044
:201C20000F5F1F4F0F731127E02E8C8D8E110CC00FB607FCFACFE889F989808185FFF5CFAF
:201C4000CE010E94C40DF1CFEB8DEC0FFD2FF11DE35AFF4FF0829FB7F8940B8FEA89FB8965
:201C600080818062CFCF682F8EE894E00C94E60DCF93DF93EC01888D8823B9F0AA89BB892E
:201C8000E889F9898C9185FD03C0808186FD0DC00FB607FCF7CF8C9185FFF2CF808185FF29
:201CA000EDCFCE010E94C40DE9CFDF91CF91089520911503309116032817390771F4909159
:201CC000130380911403981741F0E0911303F0E0ED52FD4F808190E008958FEF9FEF08954D
:201CE0000895EF92FF920F931F93CF93DF93DC015C96ED90FC905D97E114F10479F481E089
:201D000090E013969C938E93129790E080E0DF91CF911F910F91FF90EF9008955196ED91B1
:201D2000FC91529750968C915097982F90950FB75E962C915E97122F127021FD6095F89489
:201D40002081112319F1282B2083E7012197F1F728E0462F50E0308160FF1AC0382B308379
:201D6000E7012197F1F7BA0175956795215089F7112381F08081892380830FBF5C968D91F6
:201D80009C910197F1F781E090E0C1CF2923DCCF3923E5CF9081892BEFCF20911503309121
:201DA00016032817390761F4809114032091130390E0805C9F4F821B91098F739927089577
:201DC00090E080E00895209115033091160328173907B9F49091130380911403981789F040
:201DE000E0911303F0E0ED52FD4F80812091130330E02F5F3F4F2F7333272093130390E0D8
:201E000008958FEF9FEF089590E080E00895282FDB01FC0191918D913FE9390F3A3108F4C8
:201E200090523FE9380F3A3108F48052981306C08E2F821B841770F381E0089580E0089554
:201E4000AC01FB0130E020E0CA01022E02C0969587950A94E2F790E380FD91E391932F5F38
:201E60003F4F2A30310581F7FB011286089510927E0410926A0410926904109268041092A8
:201E8000DC031092BB038091E3039091E4038F3F980729F001969093E4038093E30381E083
:201EA0008093780486E0809377040E94160D6093730470937404809375049093760410922A
:201EC0000901109208010895CF93DF93382FDC01E0E02A2F231B261718F42D91E227F9CF69
:201EE000DC01A60FB11DCE2FD0E084E0D595C7958A95E1F7CE5BDE4F88818C93EF70F0E007
:201F0000EE5BFE4F808111968C93119712961C9282E0860FDF91CF910895CF93DF93EB0142
:201F2000809377040E94160D60937304709374048093750490937604D0930901C093080177
:201F4000DF91CF910895E0910404AE2FB0E035E0E39FF0011124E557FC4F918380836283EE
:201F6000438324831196A770BB27A093040480910304883018F48F5F809303040895BC01DB
:201F8000409103042BE833E090E0491771F02B5F3F4FF90135970190F081E02DE617F7072A
:201FA00011F4892F08959F5FF0CF8FEF08959091CD03992391F021E030E002C0220F331F6B
:201FC0008A95E2F78091CB039091CC032823392381E0232B19F080E0089581E00895FB01E4
:201FE00001900020E9F73197AF01461B570BDC01ED91FC910280F381E02D099467E771E0EE
:202000008EE894E00C94EF0FCF93DF93BC018EE894E00E94220DEC010E94FE0F8C0F9D1FF9
:20202000DF91CF910895CF93DF93EC013091DC039091BB0320E0321779F0E92FE20FE370E5
:20204000F0E0EE0FFF1FED54FC4F408151814C175D0771F12F5FEFCF3430D1F4892F90E0B0
:202060000196837099278093BB0383E08093DC038091DA039091DB038F3F980729F00196E6
:202080009093DB038093DA0388E690E00E9404108091DC03E091BB03E80FE370F0E0EE0F85
:2020A000FF1FED54FC4FD183C0838F5F8093DC03DF91CF9108958F929F92AF92BF92EF922D
:2020C000FF920F931F93CF93DF93CDB7DEB7A1970FB6F894DEBF0FBECDBF7C01FA01CB016B
:2020E00019A2223008F42AE08E010F5D1F4F822E912CB12CA12CBF01A50194010E94C229C5
:20210000F901CA016A300CF5605DD8016E938D01232B242B252B79F790E080E0109721F055
:20212000BD01C7010E94EF0FA1960FB6F894DEBF0FBECDBFDF91CF911F910F91FF90EF90CD
:20214000BF90AF909F908F900895695CDECF2AE00C945B10482F50E070E060E02AE08EE8C8
:2021600094E00C945B1080916A048F3F19F08F5F80936A0467E676E08EE894E00E94220DBD
:2021800080916A040E94AA108FE20E94330E83E00E94AA100E94FE0F80916A04833080F000
:2021A00069E576E08EE894E00E94220D80916A040E94AA1086E096E00E9404100C94370F6D
:2021C0000895AB0170E060E02AE00C945B10CF93DF93BC018EE894E00E94E110EC010E9474
:2021E000FE0F8C0F9D1FDF91CF91089581E080937B048091E1039091E2038F3F980729F09A
:2022000001969093E2038093E10364EB75E08EE894E00E94220D8091E1039091E2030C942E
:20222000E710CF92DF92EF92FF92CF93DF930E94160D6B017C01D0E0C0E00E94160D6C19A7
:202240007D098E099F09683771058105910578F48BE295E00E94CD0E892B79F38BE295E0BB
:202260000E94E30ECF3FDC0799F32196F1CF1092CD021092CC0210927D0361E071E08EE8CC
:2022800094E00E94220DBE018EE894E00E94E11089ED90E0DF91CF91FF90EF90DF90CF902B
:2022A0000C9404108F929F92AF92BF92CF92DF92EF92FF92CF93DF93C82F0E94160D6B01A6
:2022C0007C018091D202882319F18091CE029091CF02A091D002B091D102A7019601281B7B
:2022E000390B4A0B5B0BDA01C901883E9340A105B10570F481EE94E0DF91CF91FF90EF9020
:20230000DF90CF90BF90AF909F908F900C94041081E08093D202C092CE02D092CF02E09250
:20232000D002F092D10260ED74E08EE894E00E94220D60EC74E0C13031F06FEA74E0C230C9
:2023400011F064EA74E08EE894E00E94220D65E974E08EE894E00E94220D80911703909176
:202360001803A0911903B0911A03A7019601281B390B4A0B5B0BCA01B90128EE822E23E0C8
:20238000922EA12CB12CA50194010E94C229BA01A9018EE894E00E94A71068E874E08EE849
:2023A00094E00E94220D809184040E94AA1063E774E08EE894E00E94220D80917F049091D5
:2023C0008004A0918104B09182040097A105B10509F45BC0A7019601281B390B4A0B5B0B70
:2023E000CA01B901A50194010E94C229BA01A9018EE894E00E94A71083E70E94330E60E655
:2024000074E08EE894E00E94220D8091EF030E94AA106BE574E08EE894E00E94220D8091DE
:20242000EE030E94AA108FE494E00E94041010927F04109280041092810410928204809107
:20244000EF03C23049F5833038F583E08093EF031092EE0381EF93E00E940410809184044D
:202460008230F0F18091790481113AC064EF71E087E0DF91CF91FF90EF90DF90CF90BF90A9
:20248000AF909F908F900C948D0F6CE674E08EE894E00E94220DB3CF9091EE039E3F18F495
:2024A0009F5F9093EE03E82FF0E0E55EFE4F20819091EE03921790F2853080F68F5F809389
:2024C000EF031092EE0361ED73E08EE894E00E94220D8091EF030E94AA108DEC93E0BCCF45
:2024E0008091EF03E82FF0E0EE0FFF1FE15FFE4FC081D181823009F445C0F0F48823E1F1A2
:202500008130C1F18FEC91E00E9404108AE791E00E94041068E571E08EE894E00E94220DC5
:20252000CE0168EE73E00E94FF298EE894E00E94E1108CE291E04FC08330E1F1843011F7AD
:2025400087EC92E00E94041083E692E00E9404106DE472E08EE894E00E94220DCE0168EECC
:2025600073E00E94FF298EE894E00E94E11087E292E031C00E94111110927C046CE271E070
:2025800083E077CF66EB73E08EE894E00E94220DCE0168EE73E00E94FF298EE894E00E9465
:2025A000E11088E693E00E94041010928504BE018AE05FCF61E573E08EE894E00E94220DBD
:2025C000CE0168EE73E00E94FF298EE894E00E94E11085E293E00E94041010928504BE01C2
:2025E00080E047CFCF93DF93D0E0C0E0009731F0BC018EE894E00E94EF0FEC010E94FE0FA6
:202600008C0F9D1FDF91CF9108956F927F928F929F92AF92BF92CF92DF92EF92FF920F937A
:202620001F93CF93DF93CDB7DEB72E970FB6F894DEBF0FBECDBFDC010D900020E9F79D01D7
:2026400021503109281B390B122F4FEF420F4F3308F062C0FC014081423539F0433429F0EE
:20266000443519F04D3409F057C0DC01FC0170E060E04FEF5FEF01910C3209F4AB016F5F0A
:202680007F4F6117C0F38C014F3F540781F13327241B350B2330310551F5FC01E40FF51FAD
:2026A000818120ED280F2A3030F09FEB980F9630F0F429EC280F928180ED890F8A3030F041
:2026C0008FEB890F863098F489EC890F4F5FF80190E03E2F301B341718F431919327F9CF2F
:2026E00040E1249F90011124822B891751F18091D0039091D1038F3F980729F00196909388
:20270000D1038093D0036AE275E08EE894E00E94220DC8010E94F2122E960FB6F894DEBF82
:202720000FBECDBFDF91CF911F910F91FF90EF90DF90CF90BF90AF909F908F907F906F905A
:202740000895CE0101969C012B54354040910601509107012417350720F43093070120931B
:2027600006011A830983AA24A3942D91222309F413C22C32D1F7FD0131971082E6E0EA150C
:2027800058F2EA2DF0E0EE0FFF1FE80FF91FB183A083A394EACFF4E5BF1641F02DE4A3E024
:2027A0009A2EB21629F0E4E09E2E02C0F6E09F2E42E04A1508F0B0CFEB81FC81309709F4D6
:2027C000ABCF8081882309F4A7CFC12CD12C76011191112301F180ED810F8A3008F09CCF1D
:2027E000AAE0B0E0A70196010E94AF29C12E110FDD08A0E3CA1AD1080D2C000CEE08FF0890
:20280000C60ED71EE81EF91EC114D104B1E0EB06F104F0F281CF8601C6010E94BF0F882E0B
:2028200087FD15C069EA75E08EE894E00E94220DC6010E94E710282D45E02402F0011124B6
:20284000E557FC4F808191810E94131065CF9A1489F067E975E08EE894E00E94220DC60197
:202860000E94E71023E04FE36FE3C6010E94A30FC601EACF84E5B8128AC0ED81FE81818131
:20288000811152C12081213469F0243491F41092CD031092CC031092CB031092810310924C
:2028A000800303C081E08093CD034FE33FE320E06CC0233519F0283509F036C1EF81F88573
:2028C000E984FA84DF010D900020E9F7CD0103978E179F0709F028C1308181815FEC580F96
:2028E000553008F021C1313409F45FC1323409F01BC154ED580F233561F4F701808180539B
:20290000823008F011C1818181110EC131E4553008F032E4852F65E00E94F32941E3490FFD
:202920008091CD03882381F181E090E002C0880F991F5A95E2F76091CB037091CC03E091EF
:202940008003F09181032335B1F4D7012C91682B792B7093CC036093CB03203339F08E2B5E
:202960009F2B9093810380938003A1CF809590958E239F23F6CF809590956823792370930A
:20298000CC036093CB03F4CF24E0632FA8C0BDE4BB12AAC0A090C703B090C80360907E0398
:2029A00070907F03D12CC12C88248394912CFC2C8C2D0E94D70F882309F446C0C4010C2C17
:2029C00002C0880F991F0A94E2F79C012A213B21232BD1F19C0126213721232BA9F5682A61
:2029E000792A70927F0360927E03F4E082E4D82EFF1510F031E4D32E8F2D65E00E94F32914
:202A000021E3E22EE90E65E575E08EE894E00E94220D8D2D0E94330E8E2D0E94330E66E4CC
:202A200075E08EE894E00E94220D80917E0390917F0302C096958795FA94E2F78170992730
:202A40000E94E71020E049C0EFEFCE1ADE0AFAE0CF16D10409F0ABCFF12CE12C8E2D0E9498
:202A6000D70F8111F394E3942AE0E212F7CFFF2059F10E9438292F2D30E050E040E00E9452
:202A80009029E62EF12C8F2D0E94D70F8823C1F08FEF8E0DE11013C021E030E00F2C02C0C1
:202AA000220F331F0A94E2F780917E0390917F038227932790937F0380937E0396CFE82ED0
:202AC000F3944AE0F412DFCF88E695E00E9404104FE3E42E5FE3D52E25E04E2D6D2DC8018C
:202AE0000E94A30FC801B0CEED81FE81DF010D900020E9F7CD0103978E179F0761F48181C7
:202B00002FEC280F253038F43081313489F024ED280F323469F066E375E08EE894E00E9422
:202B2000220DC8010E94E7104FE33FE323E02DCF822F65E00E94F32941E3490F81E090E0B0
:202B400002C0880F991F2A95E2F7B2E5BB1217C06091C9037091CA036823792321E0672B4C
:202B600009F013CF6091C7037091C803FC01E623F723862B972BEF2B51F022E006CF809519
:202B800090956091C7037091C803862397239093C8038093C7038BCEE981FA81B080E2E526
:202BA000BE12F9CD75E0972E03CE233509F0B2CEA4CEBF92CF92DF92EF92FF920F931F93C8
:202BC000CF93DF9380918A0490918B04A0918C04B0918D040196A11DB11D80938A04909358
:202BE0008B04A0938C04B0938D0469EA78E18EE894E00E94220D05E014E0F80101900020C5
:202C0000E9F78F0106501440B02E65EC70E18EE894E00E94220D95E0E92E94E0F92E6701D0
:202C2000D0E0DB1528F5F601C1916F0180EE8C0F8F3528F48C2F0E94330EDF5FF2CF62EC4A
:202C400070E18EE894E00E94220DEC2FF0E084E0F595E7958A95E1F7EE5BFE4F80810E94E3
:202C6000330ECF70EC2FF0E0EE5BFE4F8081E3CF6EEB70E18EE894E00E94220D802F0E94EA
:202C8000AA1089E20E94330E0E94FE0F6AE771E085E094E00E94442AEC01892BE1F1C0902F
:202CA0008804D0908904F12CE12CF8E5CF16F2E0DF06E104F104E0F4809186049091870403
:202CC0008F3F980729F0019690938704809386046CE978E18EE894E00E94220DB701A601C4
:202CE0008EE894E00E94A71089E998E10E9404106AE370E0CE010E94222A0097D9F101969E
:202D0000DF91CF911F910F91FF90EF90DF90CF90BF900C94051344E050E060E871E085E05E
:202D200094E00E94362A892B09F04DC065E871E085E094E00E94442A892B31F181E0809392
:202D4000850410928404109283040E94160D60937F0470938004809381049093820480E331
:202D600098E10E94041080917E0468EC70E0882309F4E3C0DF91CF911F910F91FF90EF9074
:202D8000DF90CF90BF9008956CE871E085E094E00E94442A892B71F31092850485E098E1CA
:202DA0000E94041080917E048111E4CF10928304DF91CF911F910F91FF90EF90DF90CF9060
:202DC000BF900C94521180917E048111C1C1C0910A01CB3008F0BCC167E971E085E094E0B4
:202DE0000E94442A892BF1F087EB97E10E94041080910A01833081F491E090937D046CEDDC
:202E000075E0DF91CF911F910F91FF90EF90DF90CF90BF900C948D0F9CEF980F923008F0EA
:202E2000A9CFEDCFC23009F08AC047E050E06CE971E085E094E00E94362A892BA1F567E9B7
:202E400077E18EE894E00E94220D80910C04823321F17CF48133A1F085E094E0DF91CF9119
:202E60001F910F91FF90EF90DF90CF90BF900C94F2128333A9F0843379F789E397E102C017
:202E800083E897E1DF91CF911F910F91FF90EF90DF90CF90BF900C94041089E697E1F2CFA8
:202EA00087E497E1EFCF62E272E085E094E00E94442A892B41F464EA71E085E094E00E94EF
:202EC000442A892BD9F0809184048A3F18F48F5F80938404109285041092830461E277E121
:202EE0008EE894E00E94220D809184040E94AA108CEE96E10E94041080E05ACF6AE172E055
:202F000085E094E00E942D2A892B09F0A4C286E996E10E9404101092840410927C04109242
:202F200083040E94160D60937F047093800480938104909382046CE271E083E062CFCA30DA
:202F400009F56AE172E085E094E00E942D2A892B89F064EA71E085E094E00E94442A892B9B
:202F600049F46AEA71E085E094E00E94442A892B09F471C287E496E10E94041064EF71E066
:202F800082E03FCFC33009F066C243E050E060EB71E085E094E00E94362A892B09F45BC215
:202FA00085E094E04AE001C0CD01DC012D91222309F443C220532A30B8F734E085309307BE
:202FC00031F0FC013197208120532A3068F3FC0130E090E020E0819150ED580F5A3030F461
:202FE000249F800D112420ED280FF5CF911101C0322F8E3211F49F5FEDCF9330A9F6332349
:2030000099F281E08093850410927C0410927B0410927D0480917F0490918004A0918104D3
:20302000B0918204892B8A2B8B2B51F40E94160D60937F0470938004809381049093820462
:2030400061E376E18EE894E00E94220D85E094E00E94F21268EC70E084E0D3CE883069F5DC
:203060006AE172E085E094E00E942D2A892BB1F064EA71E085E094E00E94442A892BB1F4AB
:203080006BED71E085E094E00E94442A892B09F45FC01092850484E792E14EC086EA95E1D1
:2030A0000E9404106CE271E089E0ABCE86E495E10E94041086EF94E1F3CF893009F747E0B7
:2030C00050E06EEB71E085E094E00E94362A892B69F466EC71E085E094E00E94442A892BEA
:2030E00009F448CE81E080937A0444CE6AE172E085E094E00E942D2A892B49F064EA71E0BE
:2031000085E094E00E94442A892B09F4B9CF81E08093790489E894E10E94041080917A0471
:20312000882379F08DE294E10E94041089EB93E10E9404108AE693E10E94041068EE73E000
:203140001FCF8CE193E10E9404108AEC92E1F4CF61EE71E085E094E00E94442A892B09F404
:2031600044C06FE871E085E094E00E94442A892BE1F1809178048823B1F088E192E10E94DD
:20318000041086E0809377040E94160D6093730470937404809375049093760410920901A8
:2031A00010920801E7CD81E080937E040E94160D60936F04709370048093710490937204F7
:2031C0000E94160D60936B0470936C0480936D0490936E0410926A0410926904109268040F
:2031E0001092670486EE91E14DCEC701F7012081FFEFEF1AFF0A2032C1F32930B1F32053EA
:20320000253028F4FC0121812C3209F40296FC0101900020E9F73197E81BF90B2E2FE80FFA
:20322000F92FF11D222309F45CC03291303219F03B7F393011F42150F5CF47E06FE871E0A0
:20324000273031F0263009F04CC046E067EE71E00E94070F882309F444C0C1E0C0937E04F5
:203260000E94160D60936F047093700480937104909372040E94160D60936B0470936C04F1
:2032800080936D0490936E0410926A04109269041092680410927804109267041092840493
:2032A00010927C04C093850480917F0490918004A0918104B0918204892B8A2B8B2B51F4F6
:2032C0000E94160D60937F0470938004809381049093820410920404109203048FEB91E1AC
:2032E000D1CD6EEE71E085E094E00E94442A892BB9F465EF71E085E094E00E94442A892BF7
:2033000079F46CEF71E085E094E00E94442A892B39F480917E04811129C085E094E0F0CC27
:2033200010927E0410926A04109269041092680410927804109267041092040410920304BE
:2033400083E0809377040E94160D609373047093740480937504909376048CE291E09093A7
:2033600009018093080110927C0404CD63E072E085E094E00E94442A892B79F08FE691E1B2
:203380000E940410DF91CF911F910F91FF90EF90DF90CF90BF900C94370F47E050E065E1A9
:2033A00072E085E094E00E94362A892B29F41092690410926804DECC49E050E06DE172E04F
:2033C00085E094E00E94362A892BF9F4109269041092680480916504909166048F3F9807E2
:2033E00029F00196909366048093650481E191E10E940410DF91CF911F910F91FF90EF905C
:20340000DF90CF90BF900C94B31064EA71E085E094E00E94442A892B49F467E971E085E0AD
:2034200094E00E94442A892B09F477CF67EC70E18EE894E00E94220D0FCD67E272E085E0D6
:2034400094E00E942D2A892B31F480917B04811102C00E94F61080910A01843009F0FECD06
:203460006AE172E085E094E00E942D2A892B49F064EB71E085E094E00E94442A892B09F4B6
:20348000FFCD8BE096E10E94041068EC70E085E0B8CCCF93DF93D82F8091E9039091EA0355
:2034A000A091EB03B091EC030196A11DB11D8093E9039093EA03A093EB03B093EC03DA302E
:2034C00009F053C08091CC028823A1F066EC70E08EE894E00E94220D80E60E94AA1088EA34
:2034E00090E00E9404101092CD021092CC02DF91CF9108954091CD024423C9F350E0FA016A
:20350000E659FD4F10821092CD02809186038823C1F080917D038111EACF4F5F5F4F6AE69F
:2035200072E08DE193E00E94192A8091CA029091CB0290931C0380931B0381E080937D0341
:20354000D6CF4F5F5F4F6AE672E085E094E00E94192A8091CA029091CB029093890480937C
:203560008804DF91CF910C94D915DD3009F4BFCFC091CD02CF3520F081E08093CC02B7CFCD
:20358000C1110CC00E94160D2091C2033091C303621B730B7093CB026093CA0281E08C0F45
:2035A0008093CD02EC2FF0E0E659FD4FD0839FCF8BE295E00E94CD0E892B39F08BE295E0D4
:2035C0000E94E30E0E94491AF3CF8091490580FF0FC08E7F809349058091D2039091D30399
:2035E0008F3F980729F001969093D3038093D20308951F920F920FB60F9211242F933F93AF
:203600008F939F93AF93BF938091FF0390910004A0910104B09102043091FE0323E0230F16
:203620002D3758F50196A11DB11D2093FE038093FF0390930004A0930104B0930204809134
:20364000FA039091FB03A091FC03B091FD030196A11DB11D8093FA039093FB03A093FC0357
:20366000B093FD03BF91AF919F918F913F912F910F900FBE0F901F90189526E8230F029658
:20368000A11DB11DD2CF1F920F920FB60F9211242F933F934F935F936F937F938F939F9340
:2036A000AF93BF93EF93FF938EE894E00E94C40DFF91EF91BF91AF919F918F917F916F9105
:2036C0005F914F913F912F910F900FBE0F901F9018951F920F920FB60F9211242F938F9352
:2036E0009F93EF93FF93E0919E04F0919F048081E091A404F091A50482FD1BC0908180918D
:20370000A7048F5F8F732091A804821741F0E091A704F0E0E257FB4F958F8093A704FF9106
:20372000EF919F918F912F910F900FBE0F901F9018958081F4CF1F920F920FB60F921124E1
:203740002F933F934F935F936F937F938F939F93AF93BF93EF93FF93E0911503F0911603CE
:20376000309749F0A685B7858585968D91FF14C09C918923A1F4FF91EF91BF91AF919F9113
:203780008F917F916F915F914F913F912F910F900FBE0F901F9018959C91892361F7A389D5
:2037A000B4899C918589809589238C93868997890197F1F7608D718DA685B785558538E0BE
:2037C00020E0CB010197F1F7822F90E095958795282F4C91452309F02068315091F7868DFD
:2037E00081FD20958091140390E001968F73992730911303381799F0A0911403B0E0AD521F
:20380000BD4F2C9380931403828D938D0197F1F7A389B4898C919589892B8C93ACCF868DFF
:203820008160868FF1CF1F93CF93DF93282F30E0F901E655FF4E8491F901E952F74ED4916F
:20384000F901ED53F74EC491CC23A9F0162F81110E94B10CEC2FF0E0EE0FFF1FE754F74E50
:20386000A591B4918FB7F894EC91111108C0D095DE23DC938FBFDF91CF911F910895DE2B4B
:20388000F8CF109291041092900488EE93E0A0E0B0E08093920490939304A0939404B0938A
:2038A000950427E531E030938F0420938E0425EC30E030939B0420939A0424EC30E0309300
:2038C0009D0420939C0420EC30E030939F0420939E0421EC30E03093A1042093A00422EC33
:2038E00030E03093A3042093A20426EC30E03093A5042093A4041092A7041092A8041092CF
:20390000A9041092AA0410922E0510922D0580932F0590933005A0933105B093320589E610
:2039200091E090932C0580932B05109242051092410510924405109243051092460510924A
:2039400045051092480510924705609149056E7F6D7F609349056695617081E0682787E0C4
:203960000E94131C61E087E00E94DA0CEEEDF8E1E491E0933B05EAECF8E1E491F0E0EE0F79
:20398000FF1FE754F74E8591949190933D0580933C0560E088E00E94DA0C8091490581FD88
:2039A00004C061E088E00E94131C88E080933705EFEDF8E1E491E0933805EBECF8E1E49113
:2039C000F0E0EE0FFF1FE155F74E8591949190933A05809339050895CF93DF93CDB7DEB709
:2039E000C45ED1090FB6F894DEBF0FBECDBF789484B5826084BD84B5816084BD85B58260A5
:203A000085BD85B5816085BD80916E00816080936E001092810080918100826080938100FB
:203A200080918100816080938100809180008160809380008091B10084608093B1008091FF
:203A4000B00081608093B00080917A00846080937A0080917A00826080937A0080917A0091
:203A6000816080937A0080917A00806880937A001092C100E0919E04F0919F0482E08083D9
:203A8000E0919A04F0919B041082E0919C04F0919D0480E180831092A604E091A204F091EA
:203AA000A30486E08083E091A004F091A104808180618083E091A004F091A10480818860B2
:203AC0008083E091A004F091A104808180688083E091A004F091A10480818F7D80831092CF
:203AE000460510924505109244051092430510924205109241058DE991E09093480580937F
:203B0000470590913705963108F047C02DEB30E030934205209341052BE931E030934405DA
:203B2000209343052CE231E030934605209345052091680084E0983048F031E09E3008F408
:203B400030E081E001C0880F3A95EAF7822B809368002DE630E0983050F02BE630E09E30AA
:203B600030F02CE630E0963110F030E020E030933F0520933E05292F30E0983008F011C234
:203B800081E001C0880F9A95EAF78093400580914705909148050197F1F78091450590913D
:203BA0004605892B49F1E0911503F091160325E0EB32F20709F1309739F0A389B4899C910E
:203BC0008589809589238C93809149058E7F8093490510921403109213038BE295E09093B4
:203BE000160380931503E0913E05F0913F05808190914005892B80830E94160D6093C2036D
:203C00007093C3038093C4039093C50381E480937C0080917A00806480937A0080917A009B
:203C200086FDFCCF4091780050917900052E000C660B770B3FB7F8948091FA039091FB03B2
:203C4000A091FC03B091FD0326B5A89B05C02F3F19F00196A11DB11D3FBFBA2FA92F982FF0
:203C60008827820F911DA11DB11DF2E0880F991FAA1FBB1FFA95D1F78A019B010827192719
:203C80002A273B27481759076A077B0721F0C901B8010E9487291092CD031092CC03109254
:203CA000CB03109281031092800386E091E090937F0380937E03109277040E94160D609306
:203CC000730470937404809375049093760484EF91E0909309018093080188EA97E00E9411
:203CE000041061E977E08EE894E00E94220D80914A05811163C187E597E00E94041060ED58
:203D000076E08EE894E00E94220D65E976E08EE894E00E94220D60E876E08EE894E00E9409
:203D2000220D8CE796E00E940410AE014B535F4FC053DF4F59834883C05DD040CE018654FC
:203D40009F4FCE52DF4F99838883C25DD040FE01EE55FF4FCA52DF4FF983E883C65DD040DD
:203D6000EB54F540C152DF4FF983E883CF5DD0409E012F5F3F4FCC52DF4F39832883C45DDC
:203D8000D0400E94160D6B017C0180917E04882309F43DC18091EF03882339F180916F04D0
:203DA00090917004A0917104B0917204A7019601281B390B4A0B5B0BDA01C901803395475C
:203DC000A105B10594F06EEB7BE08EE894E00E94220D8091EF030E94AA1089EB9BE00E94A4
:203DE00004101092EF031092EE030E94D81A80917D038823A9F080E6EDE1F3E0A5E0B4E0FF
:203E000001900D928A95E1F780911B0390911C03909389048093880410927D030E94D9150B
:203E2000B090CD030091CB031091CC0360917E0370917F03409180035091810330E020E0E5
:203E4000C752DF4F19821882C95DD040E22FBB2009F40AC3C801022E02C0969587950A945A
:203E6000E2F780FF01C3CA010E2E02C0969587950A94E2F78170A9F081E090E002C0880FEB
:203E8000991FEA95E2F7C752DF4FE881F981C95DD040E82BF92BC752DF4FF983E883C95D27
:203EA000D0402F5F3F4F2A30310581F6C752DF4F28813981C95DD0403093CA032093C903E0
:203EC000BB2009F4D3C2C552DF4F19830883CB5DD0408091040190910501C752DF4FE881E4
:203EE000F981C95DD0408E179F0709F0C8C22091C7033091C80380910201909103012817C5
:203F0000390709F0BCC28091000190910101C552DF4F28813981CB5DD0408217930709F0A9
:203F2000AEC21092C6034090C2035090C3036090C4037090C5034091D6035091D703609196
:203F4000D8037091D903A0907E042091D4033091D503E091C103D701C60184199509A60918
:203F6000B709803BF4E09F07A105B10508F48FC2F0EB4F0EF4E05F1E611C711CAA2039F01D
:203F8000E11105C02F3F320711F02F5F3F4F4F5F5F4F6F4F7F4F805B9440A109B109E0E0EB
:203FA000E0CF9E3040F42850310981E001C0880F2A95EAF7EACD2E503109F7CF80FF06C0CB
:203FC00064E477E08EE894E00E94220D80914A0581FF06C06AE277E08EE894E00E94220D83
:203FE00080914A0582FF06C067E077E08EE894E00E94220D80914A0583FF06C06CEF76E068
:204000008EE894E00E94220D0E94FE0F78CE8091ED03882379F0F7FC0DC01092ED030E94E7
:2040200011116CED75E081E00E948D0F85ED97E00E9404108091ED038111D7CE80917304B2
:2040400090917404A0917504B0917604B701A601481B590B6A0B7B0B8091080190910901FC
:20406000B0E0A0E0481759076A077B0708F4BDCE80917704853059F480918504811107C076
:2040800089E69BE00E94041082E08093770410917704123091F480918304882309F455C058
:2040A00010928304809184048A3F18F48F5F8093840481E00E94521198CE1B3008F060C0B1
:2040C000E12FF0E0EA59FF4D0C94132A71208220C020E820322153217821BB21DC21FD2122
:2040E00021226FE77AE08BE295E00E94220D63E77AE08EE894E00E94220D0E94FE0F10926A
:2041000083043EC065E67AE08BE295E00E94220D64E57AE08EE894E00E94220D0E94FE0FB5
:2041200081E080930A01C0927304D0927404E0927504F092760480E293E090930901809361
:2041400008011F5F1093770450CE65E27AE08BE295E00E94220D6EEE79E08EE894E00E9407
:20416000220D0E94FE0F81E0809383040E94160D60931703709318038093190390931A0307
:2041800010930A01C0927304D0927404E0927504F0927604E12FF0E0EE0FFF1FEF5DFE4F53
:2041A000808191819093090180930801EEEFE10FE93038F6F0E0E152FF4D0C94132A1F2222
:2041C0000721512172219721DA21FB211C221F2263EE79E08BE295E00E94220D65EB79E05E
:2041E0008EE894E00E94220D0E94FE0F83E080930A01C0927304D0927404E0927504F092C4
:20420000760484EC99E0909309018093080180917C048F5F80937C04833008F41BC1809144
:204220007D0410927C0410927D0481118FC780917B04811102C00E94F61085ED9AE00E94B6
:20424000041082E08093770480E00E94521180917704833009F0C9CD68EE73E082E00E947A
:204260008D0FC3CD67EA79E08BE295E00E94220D66E979E08EE894E00E94220D0E94FE0FA3
:2042800084E080930A01C0927304D0927404E0927504F092760480EB94E0909309018093F3
:2042A000080185E0D8C06DE679E08BE295E00E94220D6CE579E08EE894E00E94220D0E9492
:2042C000FE0F85E080930A01C0927304D0927404E0927504F092760480E49FE190930901B3
:2042E00080930801809178048823D9F286E0B3C06EE479E08BE295E00E94220D66E279E0C7
:204300008EE894E00E94220D0E94FE0F86E080930A01C0927304D0927404E0927504F0929F
:20432000760480E293E09093090180930801809167048F5F80936704833008F48FC065ECAE
:204340007AE08EE894E00E94220D809167040E94AA1088E89AE00E94041010927704109211
:2043600078041092670428EC30E0309309012093080182E09FCE6DE179E08BE295E00E940D
:20438000220D66EF78E08EE894E00E94220D0E94FE0F87E080930A01C0927304D0927404AF
:2043A000E0927504F09276044CED55E0509309014093080188E04FC067ED78E08BE295E0DA
:2043C0000E94220D6DE978E08EE894E00E94220D0E94FE0F88E080930A01C0927304D09243
:2043E0007404E0927504F09276048CED95E0909309018093080189E02EC062E978E08BE2C0
:2044000095E00E94220D66E678E08EE894E00E94220D0E94FE0F89E080930A01C0927304F8
:20442000D0927404E0927504F0927604E8E2F3E2F0930901E093080181E08093790482E0C0
:204440000AC06BE578E08BE295E00E94220D69E278E04FCE83E080937704C7CC83E080937D
:20446000770410927C04C1CCCB01FECC4FEF5FEFC552DF4F59834883CB5DD0402ACD8091C4
:20448000C603811150CD81E08093C6034CCD4092C2035092C3036092C4037092C503E09319
:2044A000C1033093D5032093D4034093D6035093D7036093D8037093D90388539F4FAF4F36
:2044C000BF4F89359240A105B10508F06AC281E0E827AA2009F490C080916B0490916C0426
:2044E000A0916D04B0916E04A7019601281B390B4A0B5B0BDA01C90180319742A105B1055B
:204500000CF451C262E57FE08EE894E00E94220D80916B0490916C04A0916D04B0916E04C1
:20452000B701A601481B590B6A0B7B0B8EE894E00E94A71068E27FE08EE894E00E94220DB3
:204540008091C0030E94AA106AE17FE08EE894E00E94220D8091BF030E94AA106FE07FE0E9
:204560008EE894E00E94220D8091BE030E94AA1068EF7EE08EE894E00E94220D6091CE0320
:204580007091CF038EE894E00E94E11067EE7EE08EE894E00E94220D6091DF037091E003A6
:2045A0008EE894E00E94E1106AED7EE08EE894E00E94220D60916504709166048EE894E05F
:2045C0000E94E1106CEC7EE08EE894E00E94220D6091E1037091E2038EE894E00E94E1109F
:2045E0008BEA9EE00E9404101092BE031092BF031092C0030E94370F8091E5039091E603FB
:20460000A091E703B091E803A7019601281B390B4A0B5B0BDA01C90180369A4EA105B10533
:2046200008F4F2C0C092E503D092E603E092E703F092E80367EE7FE08EE894E00E94220D0F
:20464000C701B60128EE33E040E050E00E94C229BA01A9018EE894E00E94A71060EE7FE080
:204660008EE894E00E94220D6091E3037091E4038EE894E00E94E11067ED7FE08EE894E0A6
:204680000E94220D6091E1037091E2038EE894E00E94E1106EEC7FE08EE894E00E94220D9D
:2046A0006091F4037091F5038EE894E00E94E11063EC7FE08EE894E00E94220D60916504D9
:2046C000709166048EE894E00E94E1106CEB7FE08EE894E00E94220D6091DF037091E003CA
:2046E0008EE894E00E94E11064EB7FE08EE894E00E94220D6091DD037091DE038EE894E037
:204700000E94E1106DEA7FE08EE894E00E94220D8091DC030E94AA1063EA7FE08EE894E0B3
:204720000E94220D6091DA037091DB038EE894E00E94E1106CE97FE08EE894E00E94220D0F
:204740004091D6035091D7036091D8037091D9038EE894E00E94A71066E97FE08EE894E070
:204760000E94220D60918604709187048EE894E00E94E1106EE87FE08EE894E00E94220D74
:204780006091D4037091D5038EE894E00E94E11066E87FE08EE894E00E94220D6091D203CD
:2047A0007091D3038EE894E00E94E1106CE77FE08EE894E00E94220D6091D0037091D1039F
:2047C0008EE894E00E94E11065E77FE08EE894E00E94220D6091CE037091CF038EE894E077
:2047E0000E94E1106CE67FE08EE894E00E94220D40917E0450E070E060E02AE08EE894E0B3
:204800000E945B100E94FE0F80917E0481117FC08091F0039091F103A091F203B091F30302
:20482000A7019601281B390B4A0B5B0BDA01C901883B9B40A105B10508F469C0C092F003EE
:20484000D092F103E092F203F092F30367E270E18EE894E00E94220D809177040E94AA10E6
:204860006BE170E18EE894E00E94220D8091EF030E94AA108FE20E94330E8091EE030E9489
:20488000AA108091ED03882331F065E070E18EE894E00E94220D60E070E18EE894E00E9423
:2048A000220D4091E9035091EA036091EB037091EC038EE894E00E94A71068EF7FE08EE800
:2048C00094E00E94220D40918A0450918B0460918C0470918D048EE894E00E94A71063EF1C
:2048E0007FE08EE894E00E94220DC701B60128EE33E040E050E00E94C229BA01A9018EE83E
:2049000094E00E94A71081EF9FE00E9404108091F6039091F703A091F803B091F903A701EF
:204920009601281B390B4A0B5B0BDA01C90180369A4EA105B10540F1C092F603D092F70327
:20494000E092F803F092F9036BE870E18EE894E00E94220D60910601709107018EE894E022
:204960000E94E1106DE670E18EE894E00E94220D6091F4037091F5038EE894E00E94E110E7
:204980008CE390E10E94041080E090E0892B09F4F8C90E94B00D882309F4EAC90E940000E3
:2049A000E7C9E0E096CDEE2309F426CE4091C7035091C803C352DF4F59834883CD5DD040B7
:2049C0000E94160D9B01AC012419350946095709CF51DF4F288339834A835B83C15ED04010
:2049E000BE016B537F4FC752DF4F88819981C95DD0400E94200FBE0166547F4FC352DF4F71
:204A000088819981CD5DD0400E94200FA090BC039090BD03BB2009F457C0BE016E557F4F5A
:204A2000C8010E94200F0E94160DC952DF4F3881C75DD0403F93CA52DF4F4881C65DD040C9
:204A40004F932FE232E03F932F9328EE33E040E050E00E94C2295F934F933F932F93CD5230
:204A6000DF4F5881C35DD0405F93CE52DF4F8881C25DD0408F93CF52DF4F9881C15DD040CF
:204A80009F93C053DF4FE881C05DD040EF939F92AF9282E392E09F938F931F9280E48F93B7
:204AA00021E030E02C0F3D1F3F932F930E945E2A0FB6F894DEBF0FBECDBF18161906F4F117
:204AC000312C212C10E07FC10E94160D2FE232E03F932F9328EE33E040E050E00E94C2297A
:204AE0005F934F933F932F93CD52DF4F5881C35DD0405F93CE52DF4F8881C25DD0408F935E
:204B0000CF52DF4F9881C15DD0409F93C053DF4FE881C05DD040EF939F92AF9288E492E024
:204B20009F938F931F9280E48F9321E030E02C0F3D1F3F932F930E945E2ABACF9C012D5FD2
:204B40003F4F2134310508F0BBCF682FCE0101960E94640FCC52DF4FE881F981C45DD04048
:204B600001900020E9F73197CC52DF4F88819981C45DD040E81BF90BEE2309F4A1CF1F0197
:204B800033241091DC03112309F4BAC0A090BB03B12CF501EE0FFF1FED54FC4F8081918118
:204BA0000E94BF0F87FF1CC09FEFA91AB90AE3E0AE22BB24A092BB0311501093DC038091B9
:204BC000DA039091DB038F3F980729F001969093DB038093DA0388E49EE00E940410D1CFAB
:204BE00010E035E0932E48E1842E0AE08091DC03181708F085C0E091BB03E10FE370F0E08C
:204C0000EE0FFF1FED54FC4F808191810E94BF0F87FD76C0292D382F3203F0011124E5575C
:204C2000FC4F84811F928F938381282F082E000C330B3F938F938281282F082E000C330BA8
:204C40003F938F9381818F9380818F934BE552E05F934F931F928F92C952DF4F9881C75D8B
:204C6000D0409F93CA52DF4FE881C65DD040EF930E945E2A0FB6F894DEBF0FBECDBF1816EB
:204C80001906F4F59C012D5F3F4F29313105C0F5682FCE018E559F4F0E94640FCA52DF4F7A
:204CA000E881F981C65DD04001900020E9F73197AF01CA52DF4F88819981C65DD040481BD2
:204CC000590B5527C10101965A01A80EB91EE1EAAE16B104A8F4E1E0F0E0EC0FFD1FE20D3C
:204CE000F31D0083BE016E557F4F21E030E02C0F3D1F820F931F0E94192A1F5F150176CF28
:204D00008091060190910701C152DF4F48815981CF5DD0404817590720F4509307014093A1
:204D2000060100917E04002309F489C1C1010197803A910508F047C000916904002309F428
:204D40005BC00E94160D8090870390908803A0908903B0908A03DC01CB0188199909AA0906
:204D6000BB0980345FE19507A105B10570F5803D9740A105B105B8F080916804811113C0A4
:204D800081E0809368048091DF039091E0038F3F980729F001969093E0038093DF0386EFAF
:204DA0009DE00E9404108091CE039091CF038F3F980729F001969093CF038093CE038EE97E
:204DC0009DE00E94041000E03AC110926904109268048091DD039091DE038F3F980729F02F
:204DE00001969093DE038093DD0382E49DE00E9404100E94370FE7CF81E0809386030E944F
:204E0000160D8090820390908303A0908403B0908503681979098A099B09603571058105EA
:204E2000910518F40E94D81AEACF66E37DE08BE295E00E94220D41014FEF841A940AB401B9
:204E40008BE295E00E94E11063E37DE08BE295E00E94220D0E94160D2B013C01B12CA12CAF
:204E60000E94160D64197509860997096C3271408105910508F06BC08BE295E00E94CD0E56
:204E8000892B71F38BE295E00E94E30EC852DF4F8883C85DD0408E3309F45DC10E94491A1C
:204EA000C852DF4F8881C85DD04081548A3158F4C852DF4F8881C85DD040805EC852DF4FE4
:204EC0008883C85DD040EA2DF0E0E35CFE4F8081C852DF4F9881C85DD040A394891751F070
:204EE000AA24A394C852DF4FE881C85DD040E23609F0A12CEA2DF0E0E35CFE4F80818823CA
:204F000009F447C1EB2DF0E0E95CFE4F8081C852DF4FF881C85DD040B3948F1751F0BB240E
:204F2000B394C852DF4F2881C85DD040253609F0B12CEB2DF0E0E95CFE4F808181119CCF5B
:204F40008CE89CE00E94041082E0B82E2FC0B12CA12C63E28BE295E00E94710E3FEFA31A97
:204F6000B30A2A143B04A9F76AE08BE295E00E94710E8091F4039091F5038F3F980729F063
:204F800001969093F5038093F40360E67CE08EE894E00E94220DB4018EE894E00E94E110C6
:204FA00082E29CE00E94041093E0B92E0E94160D60938203709383038093840390938503F6
:204FC000109286036CE17CE0BB2011F061E17CE08EE894E00E94220DCE0101960E94F212BC
:204FE00051E0B51629F1B11016C010926A040E94160D60936B0470936C0480936D049093B3
:205000006E041092BE031092BF031092C003111191C001E014C00E94B31082E0B81281C0F8
:205020008091BE038F3F59F08F5F8093BE0307C08091C0038F3F19F08F5F8093C00381E02E
:205040008093C10361EA7EE08EE894E00E94220D4091D6035091D7036091D8037091D90307
:205060008EE894E00E94A7106CE97EE08EE894E00E94220DB1018EE894E00E94E11066E901
:205080007EE08EE894E00E94220D812F0E94AA1060E97EE08EE894E00E94220DCF51DF4F3B
:2050A000488159816A817B81C15ED0408EE894E00E94A7108BE89EE0011102C086E89EE043
:2050C0000E9404100E94160D002309F495CA8091BC039091BD0301969093BD038093BC03D9
:2050E000C752DF4FE881F981C95DD040F0930501E0930401C352DF4F28813981CD5DD0406F
:205100003093030120930201C552DF4F48815981CB5DD04050930101409300011092C603CE
:205120006BCA8091BF038F3F09F489CF8F5F8093BF0385CF8091BB03810F83708093BB030A
:205140008091DC03811B8093DC0363CF82E19BE00E94041072C8A101BE016F5F7F4F8BE267
:2051600095E00E94460D6AE08BE295E00E94710E81E080936904109268040E94160D6093D1
:205180008703709388038093890390938A03B12C0DCF8DEC9CE00E940410BB24B39406CF49
:2051A00089E691E090932C0580932B0580911503909116038B52954071F4E0913E05F091C9
:2051C0003F05908180914005809589238083109216031092150308958F929F92AF92BF926A
:2051E000CF92DF92EF92FF92CF93DF93EC01688179818A819B81611571058105910521F4E3
:2052000064E279ED8BE597E02DE133EF41E050E00E94902949015A019B01AC01A7EAB1E40B
:205220000E94AF296B017C01ACEEB4EFA50194010E94BD29C60ED71EE81EF91EF7FE06C06A
:2052400081E0C81AD108E10880E8F80AC882D982EA82FB82C701B6019F77DF91CF91FF905D
:20526000EF90DF90CF90BF90AF909F908F9008958F929F92AF92BF92CF92DF92EF92FF92A0
:2052800060910B0170910C0180910D0190910E01611571058105910521F464E279ED8BE57B
:2052A00097E02DE133EF41E050E00E94902949015A019B01AC01A7EAB1E40E94AF296B01A1
:2052C0007C01ACEEB4EFA50194010E94BD29C60ED71EE81EF91EF7FE06C081E0C81AD10894
:2052E000E10880E8F80AC0920B01D0920C01E0920D01F0920E01C701B6019F77FF90EF90DA
:20530000DF90CF90BF90AF909F908F90089560930B0170930C0180930D0190930E01089547
:20532000052E97FB1EF400940E94A72957FD07D00E94C22907FC03D04EF40C94A72950956B
:205340004095309521953F4F4F4F5F4F089590958095709561957F4F8F4F9F4F08950E9478
:20536000E429A59F900DB49F900DA49F800D911D11240895B7FF0C94AF290E94AF29821BBA
:20538000930B0895A1E21A2EAA1BBB1BFD010DC0AA1FBB1FEE1FFF1FA217B307E407F50779
:2053A00020F0A21BB30BE40BF50B661F771F881F991F1A9469F760957095809590959B011B
:2053C000AC01BD01CF010895A29FB001B39FC001A39F700D811D1124911DB29F700D811D44
:2053E0001124911D0895991B79E004C0991F961708F0961B881F7A95C9F780950895AA1B61
:20540000BB1B51E107C0AA1FBB1FA617B70710F0A61BB70B881F991F5A95A9F780959095F4
:20542000BC01CD010895EE0FFF1F0590F491E02D0994FB01DC0102C001900D924150504079
:20544000D8F70895FC018191861721F08823D9F7992708953197CF010895FB01DC018D911F
:20546000019080190110D9F3990B0895FB01DC014150504030F08D910190801919F4002055
:20548000B9F7881B990B0895FB0151915523A9F0BF01DC014D9145174111E1F759F4CD016D
:2054A0000190002049F04D9140154111C9F3FB014111EFCF81E090E001970895AEE0B0E091
:2054C000E4E6FAE20C941A2D0D891E898F89988D26E02C831A83098397FF02C080E090E8B7
:2054E00001979E838D83AE01455E5F4F698D7A8DCE0101960E948E2A4D815E8157FD0AC05B
:205500002F813885421753070CF49A01020F131FF80110822E96E4E00C94362DABE0B0E05C
:20552000E4E9FAE20C940C2D7C013B018A01FC0117821682838181FFC8C1CE0101965C01A7
:20554000F7019381F30193FD859193FF81913F01882309F453C1853239F493FD859193FFE9
:2055600081913F01853229F4B70190E00E947E2CE7CF912C212C312CFFE1F31538F08B32A7
:2055800011F190F4803209F1833229F137FC3CC020ED280F2A3050F536FE20C08AE0989E44
:2055A000200D1124922E06C08D3291F0803371F7689430F8F30193FD859193FF81913F0106
:2055C0008111DACF21C0689431F8689432F8F2CF689433F8EFCF689434F8ECCFEAE02E9E45
:2055E000200D1124222E689435F8E4CF8E3229F436FC04C1689436F8DDCF8C3619F46894A8
:2056000037F8D8CF8836B1F2982F9F7D95549330E0F08336A1F18337C1F1833509F063C069
:205620002801F2E04F0E511CF801C080D180692D70E036FC02C06FEF7FEFC6010E94682C78
:205640004C01689437F882010AC00C5F1F4FFFE3F98388248394912C6501E89437F833FE8C
:205660002DC0522C8114910471F5552009F468CFB70180E290E00E947E2C5A94F6CFF80104
:20568000808189830E5F1F4FE4CF2801F2E04F0E511CF801C080D180692D70E036FC02C046
:2056A0006FEF7FEFC6010E94732C4C018201D5CFB70180E290E00E947E2C2A9428141904B5
:2056C00009F0B0F7CECFF60137FC859137FE81916F01B70190E00E947E2C51105A94F1E002
:2056E0008F1A9108BFCF843619F0893609F077C0F80137FE6BC060817181828193810C5F7A
:205700001F4FF32DFF763F2E97FF09C090958095709561957F4F8F4F9F4F689437F82AE0B6
:2057200030E0A5010E94AE2CC82ECA188C2C432C36FE0CC0E89440F8C91440F434FE05C07C
:2057400032FC03C0F32DFE7E4F2E892C44FE95C0FE01EC0DF11D8081803309F087C0242DA8
:20576000297E422E842D8870582E43FC95C040FE8FC09C2C821418F42C0C922C981844FE70
:2057800091C0B70180E390E00E947E2C42FE09C088E790E041FE02C088E590E0B7010E94C1
:2057A0007E2CC91408F48AC0CA94D12C9FEFC91AD90ACA0CDB1CF60182916F01B70190E0FE
:2057C0000E947E2CAC14BD04B1F74FCF60817181072E000C880B990B0E5F1F4F92CFD32CB0
:2057E000E894D4F82AE030E0853739F1232D297FD22E8F3601F148F48835A9F0F701868121
:2058000097812B96E2E10C94282D803749F08837A9F7D4FE02C06894D2F820E130E00DC070
:205820006894D4F8F6CF34FE03C0822F8660D82E20E132E002C028E030E0F801D7FE0FC0BF
:2058400060817181828193810C5F1F4FA5010E94AE2CC82ECA183D2CE89437F867CF608160
:20586000718190E080E00E5F1F4FF0CF42FC02C0839478CF8394839475CF842D867809F450
:2058800071CFF6CFB70180E290E00E947E2C83948214C0F3512C73CF522C5818821408F48E
:2058A0006ECFF8CF842D867809F47BCF8BE241FE80E247FC8DE2B70190E071CFB70180E3AB
:2058C00090E00E947E2C9A946CCF8FEF9FEF99CFFC010590615070400110D8F78095909522
:2058E0008E0F9F1F0895FC016150704001900110D8F7809590958E0F9F1F08950F931F935B
:20590000CF93DF93182F092FEB018B8181FD09C01FEF0FEF812F902FDF91CF911F910F915A
:20592000089582FF14C02E813F818C819D81281739073CF4E881F981CF01019699838883BB
:2059400010838E819F8101969F838E83E3CFE885F985812F0995892BA1F3DACFFA01AA2713
:20596000283051F1203181F1E8946F936E7F6E5F7F4F8F4F9F4FAF4FB1E03ED0B4E03CD0BB
:20598000670F781F891F9A1FA11D680F791F8A1F911DA11D6A0F711D811D911DA11D20D0B6
:2059A00009F468943F912AE0269F11243019305D3193DEF6CF010895462F4770405D4193A2
:2059C000B3E00FD0C9F7F6CF462F4F70405D4A3318F0495D31FD4052419302D0A9F7EACF15
:2059E000B4E0A6959795879577956795BA95C9F700976105710508959B01AC010A2E06944E
:205A00005795479537952795BA95C9F7620F731F841F951FA01D08952F923F924F925F920F
:205A20006F927F928F929F92AF92BF92CF92DF92EF92FF920F931F93CF93DF93CDB7DEB74B
:205A4000CA1BDB0B0FB6F894DEBF0FBECDBF09942A88398848885F846E847D848C849B844F
:205A6000AA84B984C884DF80EE80FD800C811B81AA81B981CE0FD11D0FB6F894DEBF0FBE11
:205A8000CDBFED0108951CE0C7E7DCE004C0FE010E94132A2196C837D107C9F7F894FFCF3F
:205AA000FEFFFFFFFFFFFFFFF401FF01000000000000008813983A307560EA010202020295
:205AC000FFC40920033075C409B004401F2003DC05DC052823B80B6572726F7200627573EB
:205AE0007900303132333435363738394142434445460000000000E60D460D730D380EA4DB
:205B00000D820D960D00000000710E460D040F700ECD0EE30E580E0D0A002B4950442C0066
:205B20005749464900474F5420495000444953434F4E4E4543540062757379002B43574AD7
:205B400041503A004552524F52006E6F2061700041542B006E6F206368616E6765002B4391
:205B6000574C41503A00534B5F5769466947494741353044435F322E3447006E6F20697037
:205B800000414C524541004C494E4B454400434C4F53454400556E6C696E6B00554E4C4986
:205BA0004E4B006C696E6B206973206E6F742076616C69640053454E44204F4B0053454E37
:205BC00044204641494C00302E302E302E3000503100532C25752C25732C25732C256C75A7
:205BE0002C25732C25732C00532C25752C25732C25732C256C752C25732C00412C25752CFB
:205C0000256325632C25752C0000454400556E6C696E6B00554E4C494E4B006C696E6B20E9
:205C20006973206E6F742076616C69640053454E44204F4B0053454E44204641494C00306D
:205C40002E302E302E3000412C25752C256325632C25752C00503100532C25752C25732C6B
:205C600025732C256C752C25732C25732C00532C25752C25732C25732C256C752C25732CE3
:205C80000000FFFFFFFFFFFFFFFFFFFFFFFFFFFFFFFFFFFFFFFFFFFFFFFFFFFFFFFFFFFF22
:205CA000FFFFFFFFFFFFFFFFFFFFFFFFFFFFFFFFFFFFFFFFFFFFFFFFFFFFFFFFFFFFFFFF04
:205CC000FFFFFFFFFFFFFFFFFFFFFFFFFFFFFFFFFFFFFFFFFFFFFFFFFFFFFFFFFFFFFFFFE4
:205CE000FFFFFFFFFFFFFFFFFFFFFFFFFFFFFFFFFFFFFFFFFFFFFFFFFFFFFFFFFFFFFFFFC4
:205D0000FFFFFFFFFFFFFFFFFFFFFFFFFFFFFFFFFFFFFFFFFFFFFFFFFFFFFFFFFFFFFFFFA3
:207E0000112484B714BE81FFF0D085E08093810082E08093C00088E18093C10086E08093FC
:207E2000C20080E18093C4008EE0C9D0259A86E020E33CEF91E0309385002093840096BBAD
:207E4000B09BFECF1D9AA8958150A9F7CC24DD2488248394B5E0AB2EA1E19A2EF3E0BF2E79
:207E6000A2D0813461F49FD0082FAFD0023811F0013811F484E001C083E08DD089C0823404
:207E800011F484E103C0853419F485E0A6D080C0853579F488D0E82EFF2485D0082F10E0A0
:207EA000102F00270E291F29000F111F8ED068016FC0863521F484E090D080E0DECF84364D
:207EC00009F040C070D06FD0082F6DD080E0C81680E7D80618F4F601B7BEE895C0E0D1E0ED
:207EE00062D089930C17E1F7F0E0CF16F0E7DF0618F0F601B7BEE89568D007B600FCFDCF1A
:207F0000A601A0E0B1E02C9130E011968C91119790E0982F8827822B932B1296FA010C016F
:207F200087BEE89511244E5F5F4FF1E0A038BF0751F7F601A7BEE89507B600FCFDCF97BE85
:207F4000E89526C08437B1F42ED02DD0F82E2BD03CD0F601EF2C8F010F5F1F4F84911BD0B8
:207F6000EA94F801C1F70894C11CD11CFA94CF0CD11C0EC0853739F428D08EE10CD085E9AE
:207F80000AD08FE07ACF813511F488E018D01DD080E101D065CF982F8091C00085FFFCCF0A
:207FA0009093C60008958091C00087FFFCCF8091C00084FD01C0A8958091C6000895E0E68F
:207FC000F0E098E1908380830895EDDF803219F088E0F5DFFFCF84E1DECF1F93182FE3DF47
:207FE0001150E9F7F2DF1F91089580E0E8DFEE27FF270994FFFFFFFFFFFFFFFFFFFF040425
:00000001FF
