:200000000C94C40D0C94FB0D0C94FB0D0C94E1210C94E1210C94E1210C94FB0D0C94FB0DE9
:200020000C94FB0D0C94FB0D0C94FB0D0C94FB0D0C94FB0D0C94FB0D0C94FB0D0C94FB0D80
:200040000C943F210C94FB0D0C94AF210C9489210C94FB0D0C94FB0D0C94FB0D0C94FB0D9E
:200060000C94FB0D0C94FB0DEBB094EC9DB4ED8AB8EBA5BC20EB8498EC96B420EBB284EBC0
:20008000A0B8EB8BA4005B44524F502D4F56465D20ECA484EC9DB42000EBB094EC9DB4EDFF
:2000A0008AB820EBB284EBA6BC202B20ECA48420ECA1B0EBA6BD20ECB488EAB8B0ED999492
:2000C000005B4C41444445525D2031EB8BA820ECA1B0ECB9983A20EC8B9CEBA6ACEC96BCCB
:2000E00020EB939CEBA088EC9DB82000ECB48820EBB0B1EC98A4ED9484EBA19C20EB909836
:20010000ED9280EC9DB4ED959CEB8BA428ECA285ECB0A9EC97AD29005B4C41444445525D2E
:20012000202020EB8C80EC8BA02034EB8BA820ECA1B0ECB998EBA5BC20005B4C4144444524
:20014000525D202020ED9584EC9A9420EBB680ED92883A20EBA19CEC9AB0EC82ACEC9DB419
:20016000EB939C204D4F5346455420EC8AA4EC9C84ECB99828EC98883A20324E373030301F
:200180002F414F33343030202B2031306B29005B4C41444445525D20E29AA035EB8BA82066
:2001A000EBAFB8EC8BA4ED96893A20ECA084EC9B9020EC9EACED88ACEC9E85EC9D80202A6C
:2001C0002AEBB680ED928820EBAFB8EBB3B4EC9CA0EBA19C20EBAFB8EAB5ACED98842A2A9F
:2001E000EC9DB4EB8BA428EBB0B0ECA09CEAB08020EC9584EB8B88EB8BA42900ECB4882045
:20020000EC89ACEAB3A02041542B52535420EBA5BC20EB9098ED9280EC9DB4ED959CEB8B38
:20022000A42028EC9DB4EAB283EC9DB420ECA095EC838120EAB2BDEBA19CEB8BA429005BC9
:200240004C41444445525D202020E2869220005B4C41444445525D202020EC9CA0EC9DBCEA
:20026000ED9598EAB28C20ED9280EBA6ACEB8A9420ED8E8CEC9BA8EC96B42068616E67206D
:20028000EC9D8020EC86A1EC8898EC8BA020EBA19CECA78120EC9EACEC84A4EAB384EBA18C
:2002A0009C20ECA09CEAB1B0ED9688EB8BA4005B4C41444445525D202020ECA084EC9B90FF
:2002C000C2B7454EC2B75253542D4C4F5720EC8381ED839CEBA9B42052535420ED9580ECF6
:2002E0009D8420ED9D94EB93A4EC96B4EB8F8420EB8F99EC9DBCED9598EAB3A02C005B4CA7
:2003000041444445525D2034EB8BA820EAB1B4EB8488EB9C803A20ED9598EB939CEC9BA884
:20032000EC96B420EBA6ACEC858BEC9D80202A2AEC84A4EAB384EC838120EBB0B0ECA09CF9
:200340002A2AEB8BA428EBAFB8EBB0B0EC84A0EC9DB420EC9584EB8B88EB8BA42900ECB417
:200360008820EC89ACEAB3A02041542B5253542028EBAAA8EB938820EC868CED9484ED8A79
:20038000B820EBA6ACEC858B29005B4C41444445525D2033EB8BA820ECA1B0ECB9983A205A
:2003A00000ECB48820EC89ACEAB3A02041542B435751415020EBA19C20EAB2B0ED95A9EC70
:2003C0009D8420EBAA85EC8B9CECA081EC9CBCEBA19C20EB818AEC9D8020EB92A420EB8B40
:2003E000A4EC8B9C20EBB699EB8A94EB8BA4005B4C41444445525D2032EB8BA820ECA1B098
:20040000ECB9983A2000EB8BA8005B4C41444445525D20E28691E2869120EB8BA820EC83E4
:2004200081EC8AB920E2869220005B4C41444445525D20E286912033EB8BA82841542B52AA
:2004400053542920ECA781ED968920E2809420415420EAB384ECB8B5EC9DB420EC9EA0EAB6
:20046000B2BCEC9CBCEBA9B420EC9584EB9E9820EB8BA8EC9D8020EC9D98EBAFB8EAB08048
:2004800020EC9786EB8BA400ED9A8C20EB8884ECA0812900EB8BA8280020C2B720ED9884B1
:2004A000EC9EAC2000EC9786EC9D8C00ED9A8C20C2B720EAB2B0ED95A9EC9CA0ECA780202A
:2004C000007320C2B720EC97B0EC868D2000292043574A4150EC868CEC9A94200043574AC4
:2004E0004150204641494C00415420EAB384ECB8B520EC9EA0EAB9800043574A415020EB13
:20050000ACB4EC9D91EB8BB5005B4C41444445525D20EC8BA4ED8CA828005B4C4144444599
:20052000525D2031ECB48820EC9588EC979020EB93A4EC96B4EC98A820ECA491EBB3B520FF
:20054000EC8BA4ED8CA820EC8BA0ED98B820E2809420EC84B8ECA78020EC958AEB8A94EB5B
:200560008BA4005B54582D44524F505D20005B54585D2000EBB094EC9DB4ED8AB8EBA19C1F
:2005800020EC8AA4ED8AB8EBA6BC20EBB3B5EAB5AC28EC849CEBB284EB8A9420EC9DB4200C
:2005A000ECA484EC9D8420EBB284EBA6B0EB8BA429005B54582D524553594E435D20ED944F
:2005C00084EBA1ACED9484ED8AB820EB8693ECB9A820E2869220EB8D94EBAFB820005B5453
:2005E000582D52454A4543545D2043495053454E4420EAB1B0EBB680284552524F522920AF
:20060000E2809420EB8D94EBAFB8EBA5BC20EB84A3ECA78020EC958AEB8A94EB8BA4005B2C
:2006200054582D425553595D2045535020EAB08020EBB094EC8198EB8BA428EAB1B0EBB67D
:20064000802920E2809420EC8BA4ED8CA8EBA19C20EC84B8ECA78020EC958AEB8A94EB8B52
:20066000A42E20EB8BA4EC9D8C20ECA3BCEAB8B0EC979020EB8BA4EC8B9C20EBB3B4EB825D
:20068000B8EB8BA4000D0A0041542B43495053454E443D005B54582D574149545D20E2980E
:2006A00085E2988520543220ECB488EAB3BC20E280942053454E44204F4B20EAB08020EB10
:2006C000819DEB82B420EC958820EC98A8EB8BA420E2869220EBA781ED81ACEBA5BC20EB8E
:2006E0008BA4EC8B9C20EC84B8EC9AB4EB8BA4005B54582D574149545D20EC959E20ECA06B
:2007000084EC86A1EC9D982053454E44204F4B20EBA5BC20EC9584ECA78120EBAABB20EBFD
:20072000B4A4EB8BA420E2809420EC9DB4EBB28820ECA3BCEAB8B0EB8A9420EAB1B4EB840B
:2007400088EB9BB4EB8BA4005B54582D574149545D20E2988520543120ECB488EAB3BC2072
:20076000E2809420EAB7B8EB9E98EB8F8420EAB384EC868D20EAB8B0EB8BA4EBA6B0EB8B68
:20078000A428EB9190EB93A4EAB8B0ECA78020EC958AEB8A94EB8BA429005B4241442053EE
:2007A0004C4F545D207269643D0020E28692206F636375706965643D005B53494D5D20EDE0
:2007C000959C20EAB1B8EC9D8C3A20005B53494D5D20EBB094EABF8020EC8B9CEBAEAC2055
:2007E000ECB9B8EC9DB420EC9786EB8BA420E2869220726573756C743D35005B424144208F
:200800004649454C44535D207269643D005B445550207269645D20005B5245475D205120E1
:20082000EC8898EC8BA020E2809420EB8BA4EC9D8C20EC86A1EC8BA020ECB0BDEC9790203A
:20084000EB93B1EBA19DEC9D8420EB8BA4EC8B9C20EBB3B4EB82B8EB8BA40020E2809420FF
:20086000ECBD9CEBB0B1EC9DB420EAB1B0ECA088206172673D0020E2809420EB93B1EBA1A3
:200880009D20EC9786EC9D8C0020E2809420EC9DB8EC9E9020ED95B4EB8F8520EC8BA4ED6F
:2008A0008CA800206172673D005B475D206964783D005B475D20EAB1B0ECA08820696478E9
:2008C0003D005B434B53554D204E475D20005B4C325D20EAB1B0ECA08820E280942037ECBD
:2008E0009E90EBA6AC20ECB488EAB3BC3A20005B4C325D20005B4E45545D20E29885204519
:20090000535020EAB08020495020EBA5BC20EC9E83EC9788EB8BA420E2809420EBAAA8EB25
:20092000938820EBA6ACEC858BEC9CBCEBA19C20EBB3B8EB8BA42E20EB8884ECA08120ECE9
:2009400082ACEAB1B42000ED9A8C20EC97B0EC868D20EC8BA4ED8CA820E2869220EC98A4D7
:20096000ED9484EB9DBCEC9DB820ECA084ED99982E20EB82A1EC9D8020EC868CECBC93EBF6
:20098000B680ED84B020EB8BABEB8A94EB8BA428434950434C4F534529005B4E45545D203A
:2009A000ECA084EC86A120005B4E45545D20ECA084EC86A120EC8BA4ED8CA82000EB819496
:2009C0000020C2B72036EB8BA828EC9B8CECB998EB8F85292000EBAFB8EBB0B0EC84A0207D
:2009E000E2809420413220EBA5BC204553502052535420EC979020EBACBCEBA6ACEAB3A0C1
:200A0000204553505F5253545F57495245443D31005B424F4F545D20EC82ACEB8BA4EBA65D
:200A2000AC2034EB8BA82845535020ED9598EB939CEBA6ACEC858BEC84A0292000EC9B8C8F
:200A4000ECB998EB8F8520002A2AEBB88CEB9DBCEC9AB4EC9584EC9B8328ECA084EC9B90DB
:200A6000EBB680ECA1B1292A2A2000EC99B8EBB680EBA6ACEC858B28EBB284ED8ABC2F44F4
:200A80005452292000ECA084EC9B90EC9DB8EAB08028504F52292000EC958C20EC8898202A
:200AA000EC9786EC9D8C20E2809420EC9DB420EBB680ED8AB8EBA19CEB8D94EAB080204D7A
:200AC0004355535220EC9D8420ECA780EC9AB0EAB3A020EB8498EC96B4EC98A8EB8BA40063
:200AE0005B424F4F545D20EBA6ACEC858B20EC9B90EC9DB83A2000206D6F64756C657320A6
:200B00002F206465763D5031002073656E736F7273202F20002073706F7473202F20000A1B
:200B20005B5041524B494E47204E4F44455D2070726F746F207631202F2000ED958000EC33
:200B40009588EC9DBDEC9D8C000A5B53454E535D20000A5B4E45545D20EB8C80EC83812032
:200B60003139322E3136382E302E32393A38383838005B4C41444445525D2034EB8BA83AEB
:200B80002045535020EBA6ACEC858B20ED95B4ECA09C20E2809420EBB680ED8C85EC9D8414
:200BA00020EAB8B0EB8BA4EBA0B8EB8BA4EAB0802043574D4F444520EBB680ED84B020EBE6
:200BC0008BA4EC8B9C005B4E45545D2031302043575141502028EAB2B0ED95A920ED95B402
:200BE000ECA09C20E2809420EC82ACEB8BA4EBA6AC2032EB8BA8290041542B435751415051
:200C00000D0A005B4E45545D20392043574C41502028ECA3BCEBB38020415020EBAAA9EB83
:200C2000A19D20E2809420ECA784EB8BA8290041542B43574C41500D0A005B4E45545D20D5
:200C400038204357434F554E5452592028ECB184EB84902031322F313320EC9AB0ED9A8C87
:200C600020EC8B9CEB8F8420E2809420ECA784EB8BA8290041542B4357434F554E54525921
:200C80005F4445463D302C224B52222C312C31330D0A005B4E45545D203720474D52202864
:200CA000ED8E8CEC9BA8EC96B420ED8C9020E2809420ECA784EB8BA8290041542B474D5265
:200CC0000D0A005B4E45545D203620434950434C4F53452028EB82A1EC9D8020EC868CEC2D
:200CE000BC9320EB8BABEAB8B0290041542B434950434C4F53450D0A005B4E45545D2035CC
:200D00002043495053544152540041542B43495053544152543D22544350222C22313932CD
:200D20002E3136382E302E3239222C383838380D0A005B4E45545D2034204349504D5558C1
:200D40003D300041542B4349504D55583D300D0A005B4E45545D203320434946535220283B
:200D6000495020EBA5BC20EC8BA4ECA09CEBA19C20EBB09BEC9598EB8A94EAB080290041E7
:200D8000542B43494653520D0A005B4E45545D20322043574A41502028EC9D91EB8BB5EA49
:200DA000B98CECA78020ECB59CEB8C80203330ECB48820EAB8B0EB8BA4EBA6B0EB8BA429CC
:200DC0000041542B43574A41503D2233465F333032222C223034323437313932323221215F
:200DE000220D0A005B4E45545D20312043574D4F44453D310041542B43574D4F44453D3190
:200E00000D0A005B4E45545D2030205253540041542B5253540D0A00ED9A8C20EC8BA4EDA8
:200E20008CA820E286922041542B52535420EBA19C20ECA084ECB2B420ECB488EAB8B0ED3A
:200E4000999428EC82ACEB8BA4EBA6AC20EC8381EC8AB929005B4E45545D20434950434C3A
:200E60004F534520005B4E45545D2043494653522033ED9A8CEC9790EB8F8420495020EAFB
:200E8000B08020EC9786EB8BA420E286922043574A415020EBB680ED84B020EB8BA4EC8B1D
:200EA0009C005B4E45545D2043494653522033ED9A8C20EC868CECA78420E2809420EAB7EE
:200EC000B8EB9FACEB8298206275737920EAB1B0EBB680EC9880EB8BA42E20495020EC8619
:200EE0008CEC8BA4EBA19C20EC84B8ECA78020EC958AEB8A94EB8BA4005B4E45545D204972
:200F00005020EAB08020EC9786EB8BA420E2869220434950535441525420EBA5BC20EBB336
:200F2000B4EB82B4ECA78020EC958AEAB3A02043574A415020EBA19C20EB9098EB8F8CEC5F
:200F40009584EAB084EB8BA400EB8BA829005B4C41444445525D20E28693203330ECB488CF
:200F600020EC97B0EC868D20EC98A8EB9DBCEC9DB820E2809420EC82ACEB8BA4EBA6ACEBBC
:200F8000A5BC2030EB8BA8EC9CBCEBA19C20EB82B4EBA6B0EB8BA42028ECA781ECA08420EE
:200FA0000002095B41434B515D20ECBA90EC8B9CEC9790EC849C20EBB080EBA0A4EB829857
:200FC00020EBA78CEB93A420EC889820EC9786EB8BA420E2809420EBB284EBA6B0EB8BA490
:200FE00000EC8BA4ED8CA82000ECA084EC86A1200042005B5245475D20EB93B1EBA19D20E2
:20100000005B5245475D20EB93B1EBA19D20EBB0B0ECB998EBA5BC20EBA78CEB93A4ECA7DB
:201020008020EBAABBED9688EB8BA420E2809420EC9E98EBA6B020EB93B1EBA19DEC9D847D
:2010400020EB82B4EBB3B4EB82B4ECA78020EC958AEB8A94EB8BA40020723D300020723DAD
:201060003100206475653D002061636B3D002074783D005B534C4F545D206E3D005D20E2AB
:20108000869220EBA781ED81ACEBA5BC20EB8BA4EC8B9C20EC84B8EC9AB4EB8BA400202F67
:2010A00020455350EBA6ACEC858B2000202F2053454E444641494C2000202F2053454E4461
:2010C0004F4BEC8381ED959C20002920C2B720EB8884ECA0815BEAB1B4EB8488EB9C80209A
:2010E00000202F20EAB1B0EBB6802000202F20EBACB4EC9D91EB8BB520006D7320EB8F99C3
:20110000EC958820ED959C20ECA484EB8F8420EBAABB20EB8298EAB094EB8BA4202862755A
:20112000737920005B4E45545D20E2988520ECA095ECA78020EAB090ECA7803A2000206F4B
:201140006E6C696E653D0020736B69703D00206269676F6B6C6F73743D00206F6B6C6F73B5
:20116000743D00206269676F6B73743D002062696764726F703D002062696766696C6C3DF4
:20118000002070656E6466696C6C3D002070656E6464726F703D00206F6B73747265616D65
:2011A0003D0020636B73756D6E673D002073736F76663D0020736D6973733D00206F6F770E
:2011C0003D0020736C6F743D002061636B7374616C653D002061636B64726F703D0020614C
:2011E000636B713D0020737475636B3D00206F6B746F3D002073656E646661696C3D00200F
:20120000726573796E633D002068777273743D00206573707273743D002064726F703D0058
:201220005B434E545D2075703D0073002075703D00206C696E65733D002072783D00205BE0
:20124000455350EBA6ACEC858BEC9CA0ECA780ECA4915D0020EC82ACEB8BA4EBA6AC3D00E6
:201260005B444941475D206F66666C696E6520737465703D00ED9A8C2028EC849CEBB284FD
:20128000EC9D982027EBB284EBA6B0ECA4842720EAB3BC20EBA79EEC9584EC95BC20ED959C
:2012A0009CEB8BA42900204220C2B720ED9484EBA1ACED9484ED8AB820EC9EACEB8F99EA70
:2012C000B8B020005B52414D5D20ECB59CECA08020EC97ACEC9CA0200000000000240027A3
:2012E000002A000000000800020100000304070000000000000000222028005C780022004B
:201300005B4E45545D20EC86A1EC8BA020EC98A4EBA59820EC9D91EB8BB528EBA19CEAB71E
:20132000B8EBA78C2C20ECB9B4EC9AB4ED84B0EB8A942073656E644C696E6520EC9DB420FF
:20134000EC84BCEB8BA4293A20005B4E45545D20E298852053454E44204641494C20E280FE
:201360009420ED8E98EC9DB4EBA19CEB939CEAB98CECA78020EC8DBCEB8A94EB8DB020EC53
:20138000A084EC86A1EC9DB420EC8BA4ED8CA8ED9688EB8BA42E20EC8BA4ED8CA8EBA19CA6
:2013A00020EC84BCEB8BA4005B4E45545D206C696E6B206973206E6F742076616C6964209D
:2013C000E2869220ECA689EC8B9C20EC98A4ED9484EB9DBCEC9DB82C20EB82A1EC9D802070
:2013E000EC868CECBC9320EB8BABEAB8B028434950434C4F534529005B4E45545D206F6EE2
:201400006C696E652028434F4E4E45435429202B20ECBA90EC8B9C20EBB984EC9B80005B4B
:201420004E45545D206F6E6C696E652028414C524541445920434F4E4E454354454420C2E4
:20144000B720ECB488EAB8B020EAB2BDED95A929005B4E45545D20414C524541445920434A
:201460004F4E4E454354454420E2809420EB82A1EC9D8020EC868CECBC9320EC9D98EC8BBE
:20148000AC20ECA491EC9DB4EBAF80EBA19C20EBAFBFECA78020EC958AEB8A94EB8BA420E6
:2014A000E2869220434950434C4F5345005B4E45545D206E6F20697020E28094204950203C
:2014C000EAB08020EC9786EB8BA42E20434950535441525420EC9EACEC8B9CEB8F84EBA500
:2014E000BC20ECA091EAB3A02043574A415020EBA19C20EB9098EB8F8CEC9584EAB084EB92
:201500008BA4005B4E45545D202020322E3447487A20EC9DB8EAB080202F20ECA084ED8C8D
:201520008CEAB08020EB8BBFEB8A94EAB080202F205353494420ECB2A0EC9E90EAB0802039
:20154000EBA79EEB8A94EAB080EBA5BC20EBB490EB9DBC2E005B4E45545D20EC84A4ECA0CC
:2015600095ED959C205353494420EAB08020EBAAA9EBA19DEC9790202A2AEC9786EB8BA4FA
:201580002A2A20E2869220EBB984EBB28820EBACB8ECA09CEAB08020EC9584EB8B88EB8B26
:2015A000A42E005B4E45545D20202032EC889CEC9C843A20EBB984EBB080EBB288ED98B80D
:2015C00020202033EC889CEC9C843A20504D46283830322E313177292F5750413320ECA037
:2015E00084ED9998EBAAA8EB939C20EB8184EAB8B0005B4E45545D20202031EC889CEC9CC8
:20160000843A20EC9C8420ECA484EC9D98202A2AEBA788ECA780EBA78920EC88ABEC9E9076
:2016200028ECB184EB8490292A2A20EBA5BC20EBB490EB9DBC2E2031322F313320EC9DB445
:20164000EBA9B420EAB3B5EC9CA0EAB8B0EBA5BC20312F362F313120EBA19C20EBB094EA42
:20166000BF94EB9DBC005B4E45545D20EC84A4ECA095ED959C205353494420EAB08020EB29
:20168000AAA9EBA19DEC9790202A2AEC9E88EB8BA42A2A20E2869220415020EB8A9420EBC8
:2016A000B3B4EC9DB8EB8BA42E20EAB2B0ED95A9EBA78C20EAB1B0EBB680EB909CEB8BA4C8
:2016C0002E005B4E45545D20E29480E2948020415020EC8AA4ECBA9420ED8C90ECA09520A2
:2016E000E29480E29480E29480E29480E29480E29480E29480E29480E29480E29480E294D8
:2017000080E29480E29480E29480E29480E29480E29480E29480E29480E29480E29480E2CB
:201720009480E29480E29480E29480E29480005B4E45545D202020E2869220EAB3B5EC9CCA
:20174000A0EAB8B020ECB184EB8490EC9D8420312F362F313120EBA19C20EBB094EABEB80C
:20176000EB8A9420EAB283EC9DB420ED9995ECA09520ED95B4EBB295EC9DB4EB8BA4005B4E
:201780004E45545D204357434F554E54525920EBAFB8ECA780EC9B90284552524F52292080
:2017A000E2809420EC9DB420ED8E8CEC9BA8EC96B4EBA19CEB8A9420ECB184EB8490203188
:2017C000322F313320EC9D8420ECBD94EB939CEBA19C20EBAABB20EC97B0EB8BA42E005B12
:2017E0004E45545D20E29885204357434F554E54525920EAB08020EBA8B9EC9788EB8BA4CD
:2018000020E2809420EAB79CECA09CEB8F84EBA994EC9DB820317E31332E20ECB184EB84B5
:201820009020313220EAB2B0ED95A9EC9DB420EC97B4EBA0B8EC9D8420EC889820EC9E88BC
:20184000EB8BA4005B4E45545D204349504D55583D3020ECA081EC9AA9EB90A820E28692D3
:20186000204349505354415254005B4E45545D20E2988520495020ED9995EBB3B43A200080
:201880005B4C41444445525D2032EB8BA83A20EAB2B0ED95A920ED95B4ECA09C20EC9984FC
:2018A000EBA38C20E2869220EAB9A8EB8197ED959C20EC8381ED839CEC9790EC849C2043CA
:2018C000574A415020EC9EACEC8B9CEB8F84005B4E45545D2043574A4150204F4B20E280FF
:2018E0009420EAB2B0ED95A9EB9090EB8BA42E20495020EBA5BC20EC8BA4ECA09CEBA19CBA
:2019000020EBB09BEC9598EB8A94ECA78020434946535220EBA19C20ED9995EC9DB8ED955F
:201920009CEB8BA400ED9A8C2028EAB5ACED989520ED8E8CEC9BA8EC96B4EB8A9420EC820E
:20194000ACEC9CA0EBA5BC20ECA3BCECA78020EC958AEB8A94EB8BA429005B4E45545D20B3
:20196000E298852043574A415020EC8BA4ED8CA82000ECA091EC868D20EC8BA4ED8CA800DF
:20198000EAB7B8205353494420EC9D9820415020EBA5BC20EBAABB20ECB0BEEC9598EB8BC4
:2019A000A400EBB984EBB080EBB288ED98B8EAB08020ED8B80EBA0B8EB8BA400ECA091EC46
:2019C000868D20EC8B9CEAB084ECB488EAB3BC005B4E45545D20E298852043574A415020AF
:2019E000EC8BA4ED8CA820EC82ACEC9CA03A20005B4E45545D206275737920E280942045F2
:201A0000535020EAB08020EC959E20EBAA85EBA0B9EC9D8420ECB298EBA6AC20ECA491EC5F
:201A20009DB4EB8BA42E20ECA084ECA784ED9598ECA78020EC958AEB8A94EB8BA4005B4EA2
:201A400045545D205749464920444953434F4E4E45435420E2809420495020EBA5BC20ECF0
:201A60009E83EC9788EB8BA4005B4E45545D205749464920474F5420495020E280942049F0
:201A80005020ED9995EBB3B42E2039ECB48820EB8C80EAB8B0ECB0BDEC9D8420EB819DEAD8
:201AA000B98CECA78020EAB8B0EB8BA4EBA6ACECA78020EC958AEAB3A020EBB094EBA19C13
:201AC00020EB8BA4EC9D8C20EB8BA8EAB384EBA19C006D73005B534C4F542D4F4F575D2014
:201AE0002B005B41545D2000413100495000000242310049500000094C44004F4700000DF9
:201B00004C32004F4C0000FF5B41434B515D20EAB080EB939D20ECB0B820E2809420EAB03C
:201B200080EC9EA520EC98A4EB9E98EB909C20EBB3B4EBA5982041434B20EBA5BC20EBB2C4
:201B400084EBA6B0EB8BA4000000000023002600290000000000250028002B0004040404AC
:201B60000404040402020202020203030303030301020408102040800102040810200102F6
:201B8000040810205922CB2F11241FBECFEFD8E0DEBFCDBF84B78093BE0514BE0FB6F894AF
:201BA000A89580916000886180936000109260000FBE12E0A0E0B1E0E6EAF8E602C0059044
:201BC0000D92AE37B107D9F725E0AEE7B2E001C01D92AE3BB207E1F71DE0C3ECDDE004C0B6
:201BE0002197FE010E941631C23CD107C9F70E9404230C9446340C94000028E030E080FD97
:201C000002C030E020E081FD246082FD226083FD2160265B3E4FF9018081FB018083118253
:201C2000089521E030E0A90102C0440F551F8A95E2F7CA012091FB043091FC0424233923EC
:201C4000232B69F420910105222359F02091FD043091FE042423392381E0232B19F080E064
:201C6000089581E00895833081F028F4813099F08230A9F008958730A9F08830C9F08430F2
:201C8000B1F4809180008F7D03C0809180008F7780938000089584B58F7784BD089584B522
:201CA0008F7DFBCF8091B0008F778093B00008958091B0008F7DF9CF1F93CF93DF93282FB5
:201CC00030E0F901ED51FD4E8491F901E059F44ED491F901E45AF44EC491CC23A9F0162FE6
:201CE00081110E94330EEC2FF0E0EE0FFF1FEE5AF44EA591B4918FB7F894EC91111108C02B
:201D0000D095DE23DC938FBFDF91CF911F910895DE2BF8CFCF93DF9390E0FC01E059F44EF7
:201D20002491845A944EFC0184918823C9F090E0880F991FFC01E752FD4EA591B491FC0100
:201D4000EE5AF44EC591D49161110DC09FB7F8948C91209582238C938881282328839FBF2A
:201D6000DF91CF910895623051F49FB7F8943C91822F809583238C93E8812E2BEFCF8FB71F
:201D8000F894EC912E2B2C938FBFEACF2FB7F8946091E8037091E9038091EA039091EB03D3
:201DA0002FBF089521E0672B682B692B09F420E0622F8DE00E945C0E81E00895EF92FF92C7
:201DC0000F931F93CF93DF938C017B01D0E0C0E0F701EC0FFD1F6491662361F0D801ED914D
:201DE000FC910190F081E02DC8010995892B11F02196EECFCE01DF91CF911F910F91FF9039
:201E0000EF900895AF92BF92CF92DF92EF92FF920F931F93CF93DF936C017B018B01040F80
:201E2000151FEB015E01AE18BF08C017D10759F06991D601ED91FC910190F081E02DC601EC
:201E40000995892B79F7C501DF91CF911F910F91FF90EF90DF90CF90BF90AF900895FC01D6
:201E6000538D448D252F30E0842F90E0821B930B541710F0CF96089501970895FC01918D32
:201E8000828D981761F0A28DAE0FBF2FB11D5D968C91928D9F5F9F73928F90E008958FEFA0
:201EA0009FEF0895FC01918D828D981731F0828DE80FF11D858D90E008958FEF9FEF089521
:201EC000FC01918D228D892F90E0805C9F4F821B91098F739927089582E095E00E94600FC8
:201EE00021E0892B09F420E0822F089580E090E0892B29F00E946C0F81110C940000089559
:201F0000FC01A48DA80FB92FB11DA35ABF4F2C91848D90E001968F739927848FA689B78902
:201F20002C93A089B1898C91837080648C93938D848D981306C00288F389E02D80818F7DAA
:201F400080830895EF92FF920F931F93CF93DF93EC0181E0888F9B8D8C8D98131AC0E8890B
:201F6000F989808185FF15C09FB7F894EE89FF896083E889F98980818370806480839FBF95
:201F800081E090E0DF91CF911F910F91FF90EF900895F62E0B8D10E00F5F1F4F0F73112763
:201FA000E02E8C8D8E110CC00FB607FCFACFE889F989808185FFF5CFCE010E94800FF1CF02
:201FC000EB8DEC0FFD2FF11DE35AFF4FF0829FB7F8940B8FEA89FB8980818062CFCF682FCC
:201FE00082E095E00C94A20FCF93DF93EC01888D8823B9F0AA89BB89E889F9898C9185FD86
:2020000003C0808186FD0DC00FB607FCF7CF8C9185FFF2CF808185FFEDCFCE010E94800F7B
:20202000E9CFDF91CF91089520913403309135032817390771F4909132038091330398176A
:2020400041F0E0913203F0E0EE50FD4F808190E008958FEF9FEF08950895EF92FF920F9347
:202060001F93CF93DF93DC015C96ED90FC905D97E114F10479F481E090E013969C938E93ED
:20208000129790E080E0DF91CF911F910F91FF90EF9008955196ED91FC91529750968C911E
:2020A0005097982F90950FB75E962C915E97122F127021FD6095F8942081112319F1282B4D
:2020C0002083E7012197F1F728E0462F50E0308160FF1AC0382B3083E7012197F1F7BA01E5
:2020E00075956795215089F7112381F08081892380830FBF5C968D919C910197F1F781E0A8
:2021000090E0C1CF2923DCCF3923E5CF9081892BEFCF20913403309135032817390761F480
:20212000809133032091320390E0805C9F4F821B91098F739927089590E080E00895209184
:2021400034033091350328173907B9F49091320380913303981789F0E0913203F0E0EE50AA
:20216000FD4F80812091320330E02F5F3F4F2F7333272093320390E008958FEF9FEF089566
:2021800090E080E00895282FDB01FC0191918D913FE9390F3A3108F490523FE9380F3A31CF
:2021A00008F48052981306C08E2F821B841770F381E0089580E00895FB0180839183FC017D
:2021C00081E09191992391F09C32D9F7DF0111971C92841750F4A82FB0E0AA0FBB1FA60FDD
:2021E000B71FED93FC938F5FECCF8FEF08951F93CF93DF93EB01009729F1FC012081222330
:2022000009F120E030E0A90111911123E9F080ED810F8A30B8F4AAE0B0E00E94AA30412FF2
:20222000110F550B405351099A01550F440B550B260F371F481F591F2115310581E04807FD
:20224000510510F380E003C03983288381E0DF91CF911F91089528E0829FC0011124DB0122
:2022600030E020E08551954EFC01E20FF31FE491ED93EE2339F02F5F3F4F23303105A1F729
:20228000FB011382089510926A041092530410925204109251041092EF041092F0048091DC
:2022A000C8039091C9038F3F980729F001969093C9038093C80381E08093640486E0809327
:2022C00063040E94C60E60935F04709360048093610490936204109209011092080108956F
:2022E000CF93DF93382FDC01E0E02A2F231B261718F42D91E227F9CFDC01A60FB11DCE2F3A
:20230000D0E084E0D595C7958A95E1F7C65BDE4F88818C93EF70F0E0E65BFE4F8081119611
:202320008C93119712961C9282E0860FDF91CF910895CF93DF93EB01809363040E94C60E6C
:2023400060935F04709360048093610490936204D0930901C0930801DF91CF910895AF9248
:20236000BF92CF92DF92EF92FF920F931F93CF93DF93CDB7DEB728970FB6F894DEBF0FBE6D
:20238000CDBF5C016B0198EEE92E9AE1F92E10E000E0F70184918D833196E491EE831F826E
:2023A000B501CE0105960E943031892B11F5BE016F5F7F4F802F0E942B1189818F3409F58D
:2023C000000F111FF801E658FB4FD182C08281E028960FB6F894DEBF0FBECDBFDF91CF9172
:2023E0001F910F91FF90EF90DF90CF90BF90AF9008950F5F1F4FF8E0EF0EF11C043011057E
:2024000041F680E0E5CFFB0101900020E9F73197AF01461B570BDC01ED91FC910280F381CB
:20242000E02D09946FE771E082E095E00C940312CF93DF93BC0182E095E00E94DE0EEC01DC
:202440000E9412128C0F9D1FDF91CF910895EF92FF920F931F93CF93DF93EC014091EF0407
:202460002091F00430E010E000E05CE0E52EF12C0417C8F4C901800F911FB7010E940231FE
:20248000FC01EE0FFF1FE952FB4F808191810F5F1F4F8C179D0761F7DF91CF911F910F91F1
:2024A000FF90EF9008954C30D9F4C90101966CE070E00E9402318093F0048BE08093EF04DE
:2024C0008091F1049091F2048F3F980729F001969093F2048093F10488E09BE10E941812F1
:2024E0002091EF048091F004820F9927991F6CE070E00E940231FC01EE0FFF1FE952FB4F1C
:20250000D183C0832F5F2093EF04C6CFDC01822FE091D5042E2F30E095E0E99FF0011124F3
:20252000EB57FB4FB183A0836283438384832F5F3F4F2F7033272093D5049091D6049031A9
:2025400018F49F5F9093D604CD010C9427128F929F92AF92BF92EF92FF920F931F93CF9321
:20256000DF93CDB7DEB7A1970FB6F894DEBF0FBECDBF7C01FA01CB0119A2223008F42AE0FA
:202580008E010F5D1F4F822E912CB12CA12CBF01A50194010E94BD30F901CA016A300CF5D1
:2025A000605DD8016E938D01232B242B252B79F790E080E0109721F0BD01C7010E940312D4
:2025C000A1960FB6F894DEBF0FBECDBFDF91CF911F910F91FF90EF90BF90AF909F908F9073
:2025E0000895695CDECF2AE00C94A712482F50E070E060E02AE082E095E00C94A7128091E7
:2026000053048F3F19F08F5F8093530468EA79E082E095E00E94DE0E809153040E94F61212
:202620008FE20E94EF0F83E00E94F6120E94121280915304833080F06AE979E082E095E0A8
:202640000E94DE0E809153040E94F61287E499E00E9418120C9443110895AB0170E060E05D
:202660002AE00C94A712CF93DF93BC0182E095E00E942D13EC010E9412128C0F9D1FDF9133
:20268000CF91089581E0809367048091C6039091C7038F3F980729F001969093C70380937C
:2026A000C60365EF78E082E095E00E94DE0E8091C6039091C7030C943313CF92DF92EF9242
:2026C000FF92CF93DF930E94C60E6B017C01D0E0C0E00E94C60E6C197D098E099F09683787
:2026E00071058105910578F48FE995E00E948910892B79F38FE995E00E949F10CF3FDC0765
:2027000099F32196F1CF1092E2021092E10210929C0361EC70E082E095E00E94DE0EBE01A9
:2027200082E095E00E942D1389E990E0DF91CF91FF90EF90DF90CF900C9418128F929F9236
:20274000AF92BF92CF92DF92EF92FF92CF93DF93C82F0E94C60E6B017C018091E702882334
:2027600019F18091E3029091E402A091E502B091E602A7019601281B390B4A0B5B0BDA01B5
:20278000C901883E9340A105B10570F48AE195E0DF91CF91FF90EF90DF90CF90BF90AF90FC
:2027A0009F908F900C94181281E08093E702C092E302D092E402E092E502F092E60269E019
:2027C00075E082E095E00E94DE0E69EF74E0C13031F068EE74E0C23011F06DED74E082E0D4
:2027E00095E00E94DE0E6EEC74E082E095E00E94DE0E8091360390913703A0913803B09171
:202800003903A7019601281B390B4A0B5B0BCA01B90128EE822E23E0922EA12CB12CA5019D
:2028200094010E94BD30BA01A90182E095E00E94F31261EC74E082E095E00E94DE0E80917A
:2028400070040E94F6126CEA74E082E095E00E94DE0E80916B0490916C04A0916D04B09157
:202860006E040097A105B10509F45BC0A7019601281B390B4A0B5B0BCA01B901A50194019A
:202880000E94BD30BA01A90182E095E00E94F31283E70E94EF0F69E974E082E095E00E949D
:2028A000DE0E8091D8030E94F61264E974E082E095E00E94DE0E8091D7030E94F61288E88B
:2028C00094E00E94181210926B0410926C0410926D0410926E048091D803C23049F583309F
:2028E00038F583E08093D8031092D7038AE294E00E941812809170048230F0F180916504A0
:2029000081113AC064EF71E087E0DF91CF91FF90EF90DF90CF90BF90AF909F908F900C94F8
:20292000991165EA74E082E095E00E94DE0EB3CF9091D7039E3F18F49F5F9093D703E82F6D
:20294000F0E0ED5DFE4F20819091D703921790F2853080F68F5F8093D8031092D7036AE07C
:2029600074E082E095E00E94DE0E8091D8030E94F61286E094E0BCCF8091D803E82FF0E0D0
:20298000EE0FFF1FE95EFE4FC081D181823009F44BC0F8F4882309F441C08130E9F18FE8A4
:2029A00091E00E9418128AE391E00E94181268E171E082E095E00E94DE0ECE0168EE73E0B9
:2029C0000E94EE3082E095E00E942D138CEE90E054C0833009F440C0843009F78EEF92E02D
:2029E0000E9418128FEA92E00E9418128FE492E00E9418126FE372E082E095E00E94DE0E9A
:202A0000CE0168EE73E00E94EE3082E095E00E942D138CEF91E031C00E945D1310926804C8
:202A20006CE271E083E071CF6FEE73E082E095E00E94DE0ECE0168EE73E00E94EE3082E0A5
:202A400095E00E942D1381EA93E00E94181210927104BE018AE059CF6AE873E082E095E091
:202A60000E94DE0ECE0168EE73E00E94EE3082E095E00E942D138EE593E00E941812109283
:202A80007104BE0180E041CFCF93DF93AB01BC012AE082E095E00E94A712EC010E94121266
:202AA0008C0F9D1FDF91CF910895CF92DF92EF92FF926B017C0180E8C81686E9D80688E981
:202AC000E806F10480F06EEC78E082E095E00E94DE0EC701B6010E94441580E0FF90EF90A4
:202AE000DF90CF9008956FEE78E082E095E00E94DE0EC701B6010E94441581E0EFCFCF9356
:202B0000DF93D0E0C0E0009731F0BC0182E095E00E940312EC010E9412128C0F9D1FDF9176
:202B2000CF910895AF92BF92CF92DF92EF92FF920F931F93CF93DF93CDB7DEB762970FB623
:202B4000F894DEBF0FBECDBFDC010D900020E9F79D0121503109281B390B122F4FEF420FD9
:202B60004F3308F067C0FC01A0814A2F4B7F433449F0A43539F0AD3429F04FEA4A0F4230A3
:202B800008F058C0B82FFC0150E040E06FEF7FEF01910C3209F4BA014F5F5F4F4117C0F336
:202BA0008C016F3F760789F13327261B370B2330310559F5FC01E60FF71F918120ED290FD0
:202BC0002A3030F08FEB890F8630F8F429EC290F328190ED930F9A3030F08FEB830F8630FC
:202BE000A0F499EC930F81E0860FF80140E03E2F3B1B381718F431914327F9CF80E1289FD1
:202C000090011124922B941731F18091B8039091B9038F3F980729F001969093B9038093AC
:202C2000B80362EC78E082E095E00E94DE0EC8010E947F1562960FB6F894DEBF0FBECDBF90
:202C4000DF91CF911F910F91FF90EF90DF90CF90BF90AF900895A73409F00FC146E0BE01C4
:202C60006F5F7F4FC8010E94DC10188A1F8684508B3F00F7BE01615F7F4F8B819C810E946D
:202C8000F7108823B9F21A8A198ABE016F5E7F4F8D819E810E94F710182FC12CD12C7601B8
:202CA000882389F1EF81F885309749F18081C12CD12C7601882331F10191002321F180ED9E
:202CC000800F8A30E0F4BAE9CB16B9E9DB06EB06B9E1FB06A0F4AAE0B0E0A70196010E94B5
:202CE000AA30202F000F330B205331096901330FEE08FF08C60ED71EE81EF91EDDCFC12C89
:202D0000D12C760110E02F8538894091D60485E894E0E0E04E1759F00596DC0115976D91BE
:202D20007C912617370709F063C0E7FF63C0112309F470C0A988BA888FEFA816B10411F020
:202D400008F068C0A3E0AA1508F464C0F501EE0FFF1FE658FB4F0190F081E02D309709F485
:202D600059C081E0C114D104E104F10409F480E080938404C701B6010995882309F44AC08E
:202D800081E090E002C0880F991FAA94E2F72091820430918304409184044423B1F1822BAC
:202DA000932B909383048093820469EA78E082E095E00E94DE0E69897A8982E095E00E9494
:202DC0002D1363EA78E082E095E00E94DE0EC701B6010E94441520E089899A896AE070E060
:202DE0000E94EE3040E3480F67E48F859889DDC0EF5F90CF25E0E202F0011124EB57FB4F34
:202E0000808191810E94271215CF8095909582239323C7CF62EB78E082E095E00E94DE0EAB
:202E200069897A8982E095E00E942D13111106C089E898E00E94181223E0CECF89899A8972
:202E40008F3F910509F0A0F7843048F4880F991FFC01E658FB4F80819181892B19F486E779
:202E600098E0E8CF6BE578E082E095E00E94DE0EC701B6010E944415DFCFA13551F481E072
:202E80008093ED031092EC0388E198E00E941812D1CEBE016F5F7F4FCB018F5B95402091BB
:202EA0000601309107018217930720F4909307018093060147E0C8010E94DC10E82EBFEF74
:202EC0008B1709F4B7CEE981FA81008145E0F42E023551F036E0F32E043531F053E0F52EC2
:202EE0000D3411F024E0F22EE2E0EE1508F0A2CEBE01615F7F4F8B819C810E94F710882375
:202F000009F498CE8F8598894091D60425E834E010E0411759F02B5F3F4FF90135976081FD
:202F200071818617970791F417FF12C0EF14F9F06BEF77E082E095E00E94DE0E8F859889C0
:202F40000E94331323E04FE36FE34FCF1F5FE1CF6DE078E082E095E00E94DE0E8F85988977
:202F60000E94331325E01202F001112447CF043509F050C0ED81FE812181211136C050814A
:202F8000513469F05434A1F4109201051092FE041092FD04109200051092FF0403C021E037
:202FA000209301054FE36FE320E00E94861242CE533511F05835C9F4EF81F88509851A859D
:202FC000DF010D900020E9F79D01235031092E173F0759F441816081413339F4613409F47B
:202FE00039C171E0623409F436C14FE36FE323E0DCCF209530952A233B2361C12095309509
:20300000F701E223F323F093FE04E093FD04F3CF24E0CBCF0D3409F0C1C080E00E94110E68
:20302000C82E882351F08091F70480FF06C02091F9043091FA0420FF5BC081E00E94110E94
:20304000882309F4FCC08091F70481FF06C02091F9043091FA0421FF96C0C394D12CF12C66
:20306000E12C0E943330A70196010E948B30062F162F80E00E94110E882321F001501123C6
:2030800051F0102F81E00E94110E882309F4D9C01111D7C011E0E12EF12CCC24C394D12C33
:2030A0005601012E02C0AA0CBB1C0A94E2F78091F9049091FA04A826B926B092FA04A09278
:2030C000F9048FEFE81AF80AA1E0EA22FF248E2D0E94110E882389F102C0CC0CDD1CEA940F
:2030E000E2F7AC24BD24B092FA04A092F90425C041E050E010E090E080E06A01C22AD32A8D
:20310000D092FA04C092F9047C01FFEFEF1AFF0A21E0E222FF248E2D0E94110E882369F0DB
:2031200081E090E002C0880F991FEA94E2F78C299D299093FA048093F90402E4111101C0E1
:2031400001E469EB77E082E095E00E94DE0E802F0E94EF0F81E30E94EF0F6AEA77E082E01A
:2031600095E00E94DE0E8091F9049091FA0402C0969587951A95E2F7817099270E943313F5
:2031800041E320E065C042E050E011E081E090E0B4CFC12CD12C7601C39463CFED81FE8178
:2031A000DF010D900020E9F7CD0103978E179F0749F44181413331F46081613489F021E057
:2031C000623479F06AE977E082E095E00E94DE0E8F8598890E9433134FE36FE323E005CE6A
:2031E00020E081E090E002C0880F991F2A95E2F70235A9F42091F5043091F6042823392375
:20320000232BD9F42091F7043091F804FC01E223F323822B932BEF2B51F022E0E6CD809582
:2032200090952091F7043091F804822393239093F8048093F70420E0D8CD21E0D6CDC1105E
:20324000A8CF8CEC97E00E9418124FE30FE325E0602FCBCD70E0533569F4F80120812053AA
:20326000223008F0C2CE21812111BFCE62E4711101C061E420910105222309F4C9CE21E0B4
:2032800030E002C0220F331F7A95E2F7E090FD04F090FE04A091FF04B0910005533509F003
:2032A000ADCEF8015081F701E22BF32BF093FE04E093FD04503309F49CCE2A2B3B2B309345
:2032C00000052093FF0470CEBF92CF92DF92EF92FF920F931F93CF93DF93809176049091EC
:2032E0007704A0917804B09179040196A11DB11D8093760490937704A0937804B09379042B
:2033000062EE7AE182E095E00E94DE0E0EEE13E0F80101900020E9F78F010F5E1340B02EF6
:203320006EEF72E182E095E00E94DE0E9EEEE92E93E0F92E6701D0E0DB1528F5F601C191CD
:203340006F0180EE8C0F8F3528F48C2F0E94EF0FDF5FF2CF6BEF72E182E095E00E94DE0EA8
:20336000EC2FF0E084E0F595E7958A95E1F7E65BFE4F80810E94EF0FCF70EC2FF0E0E65B67
:20338000FE4F8081E3CF67EF72E182E095E00E94DE0E802F0E94F61289E20E94EF0F0E9419
:2033A000121262E871E08EEE93E00E944731EC01892BE1F1C0907404D0907504F12CE12C07
:2033C000F8E5CF16F2E0DF06E104F104E0F480917204909173048F3F980729F00196909367
:2033E00073048093720465ED7AE182E095E00E94DE0EB701A60182E095E00E94F31282ED6F
:203400009AE10E9418126AE370E0CE010E9425310097D9F10196DF91CF911F910F91FF905A
:20342000EF90DF90CF90BF900C94921544E050E068E871E08EEE93E00E943931892B09F00C
:203440004DC06DE871E08EEE93E00E944731892B31F181E0809371041092700410926F04C6
:203460000E94C60E60936B0470936C0480936D0490936E0489E69AE10E94181280916A04B3
:2034800068EC70E0882309F4E3C0DF91CF911F910F91FF90EF90DF90CF90BF90089564E908
:2034A00071E08EEE93E00E944731892B71F3109271048EE39AE10E94181280916A048111BA
:2034C000E4CF10926F04DF91CF911F910F91FF90EF90DF90CF90BF900C949E1380916A0409
:2034E0008111C1C1C0910A01CB3008F0BCC16FE971E08EEE93E00E944731892BF1F080EF36
:2035000099E10E94181280910A01833081F491E0909369046CED75E0DF91CF911F910F9152
:20352000FF90EF90DF90CF90BF900C9499119CEF980F923008F0A9CFEDCFC23009F08AC0C1
:2035400047E050E064EA71E08EEE93E00E943931892BA1F560ED79E182E095E00E94DE0E24
:203560008091F503823321F17CF48133A1F08EEE93E0DF91CF911F910F91FF90EF90DF903A
:20358000CF90BF900C947F158333A9F0843379F782E799E102C08CEB99E1DF91CF911F91BD
:2035A0000F91FF90EF90DF90CF90BF900C94181282EA99E1F2CF80E899E1EFCF6CE172E090
:2035C0008EEE93E00E944731892B41F46CEA71E08EEE93E00E944731892BD9F08091700447
:2035E0008A3F18F48F5F809370041092710410926F046AE579E182E095E00E94DE0E809136
:2036000070040E94F61285E299E10E94181280E05ACF64E172E08EEE93E00E943031892B19
:2036200009F0D8C28FEC98E10E941812109270041092680410926F040E94C60E60936B0426
:2036400070936C0480936D0490936E046CE271E083E062CFCA3009F564E172E08EEE93E02D
:203660000E943031892B89F06CEA71E08EEE93E00E944731892B49F462EB71E08EEE93E0EC
:203680000E944731892B09F4A5C280E898E10E94181264EF71E082E03FCFC33009F09AC2EF
:2036A00043E050E068EB71E08EEE93E00E943931892B09F48FC28EEE93E04AE001C0CD016E
:2036C000DC012D91222309F477C220532A30B8F733E08E3E930731F0FC01319720812053E5
:2036E0002A3068F3FC0130E090E020E0819150ED580F5A3030F4249F800D112420ED280F6B
:20370000F5CF911101C0322F8E3211F49F5FEDCF9330A9F6332399F281E0809371041092D4
:203720006804109267041092690480916B0490916C04A0916D04B0916E04892B8A2B8B2B7C
:2037400051F40E94C60E60936B0470936C0480936D0490936E046AE678E182E095E00E949E
:20376000DE0E8EEE93E00E947F1568EC70E084E0D3CE883069F564E172E08EEE93E00E9451
:203780003031892BB1F06CEA71E08EEE93E00E944731892BB1F465ED71E08EEE93E00E9436
:2037A0004731892B09F45FC0109271048DEA94E14EC08FED97E10E9418126CE271E089E0E8
:2037C000ABCE8FE797E10E9418128FE297E1F3CF893009F747E050E066EC71E08EEE93E069
:2037E0000E943931892B69F46EEC71E08EEE93E00E944731892B09F448CE81E08093660453
:2038000044CE64E172E08EEE93E00E943031892B49F06CEA71E08EEE93E00E944731892BBC
:2038200009F4B9CF81E08093650482EC96E10E94181280916604882379F086E696E10E9461
:20384000181282EF95E10E94181283EA95E10E94181268EE73E01FCF85E595E10E94181299
:2038600083E095E1F4CF6BED71E08EEE93E00E944731892B09F45CC067E971E08EEE93E09D
:203880000E944731892B09F453C0809164048823B1F081E594E10E94181286E080936304FE
:2038A0000E94C60E60935F047093600480936104909362041092090110920801E6CD81E069
:2038C00080936A040E94C60E60935B0470935C0480935D0490935E0480915A04882371F0C8
:2038E00080915804909159048F3F980729F00196909359048093580410925A040E94C60E5B
:2039000060935404709355048093560490935704109253041092ED0381E08093EC03109285
:20392000520410925104109250048FE194E135CEC701F7012081FFEFEF1AFF0A2032C1F3F5
:203940002930B1F32053253028F4FC0121812C3209F40296FC0101900020E9F73197E81B9B
:20396000F90B2E2FE80FF92FF11D222309F473C03291303219F03B7F393011F42150F5CFB9
:2039800047E067E971E0273031F0263009F063C046E061EE71E00E94C310882309F45BC077
:2039A00081E080936A040E94C60E60935B0470935C0480935D0490935E0480915A048823E7
:2039C00071F080915804909159048F3F980729F00196909359048093580410925A040E94ED
:2039E000C60E60935404709355048093560490935704109253041092ED0381E08093EC0373
:203A00001092520410925104109264041092500410927004109268048093710480916B048B
:203A200090916C04A0916D04B0916E04892B8A2B8B2B51F40E94C60E60936B0470936C04F1
:203A400080936D0490936E041092D5041092D60488EF93E1A2CD68EE71E08EEE93E00E94C4
:203A60004731892BB9F46FEE71E08EEE93E00E944731892B79F466EF71E08EEE93E00E945E
:203A80004731892B39F480916A0481112EC08EEE93E0C1CC10926A04109253041092ED03B7
:203AA00081E08093EC03109252041092510410926404109250041092D5041092D60483E05A
:203AC000809363040E94C60E60935F047093600480936104909362048CE291E0909309012C
:203AE0008093080110926804D0CC6DEF71E08EEE93E00E944731892B79F088EA93E10E94A5
:203B00001812DF91CF911F910F91FF90EF90DF90CF90BF900C94431147E050E06FE072E044
:203B20008EEE93E00E943931892B29F41092520410925104AACC49E050E067E172E08EEEE5
:203B400093E00E943931892BF9F4109252041092510480914E0490914F048F3F980729F0F9
:203B6000019690934F0480934E048AE493E10E941812DF91CF911F910F91FF90EF90DF9088
:203B8000CF90BF900C94FF126CEA71E08EEE93E00E944731892B49F46FE971E08EEE93E08D
:203BA0000E944731892B09F472CF60E073E182E095E00E94DE0EDBCC61E272E08EEE93E0D5
:203BC0000E943031892B31F480916704811102C00E94421380910A01843009F0CACD64E19D
:203BE00072E08EEE93E00E943031892B49F06CEB71E08EEE93E00E944731892B09F4CBCD9A
:203C000084E498E10E94181268EC70E085E084CCCF93DF93D82F8091D2039091D303A091B5
:203C2000D403B091D5030196A11DB11D8093D2039093D303A093D403B093D503DA3009F068
:203C4000B2C08091E1028823A1F066E870E082E095E00E94DE0E80E60E94F61288E690E0D1
:203C60000E9418121092E2021092E102DF91CF9108954091E2024423C9F350E0FA01EF57B7
:203C8000FD4F10821092E2028091ED02882309F476C080919C03811131C04F5F5F4F61E80A
:203CA00072E08CE393E00E941C3180917F029091800290933B0380933A0381E080939C03E8
:203CC0008091AC039091AD038F3F980729F001969093AD038093AC038091EC02803430F2CC
:203CE0008091AA039091AB038F3F980709F4BECF01969093AB038093AA03B8CF6FE072E0F0
:203D000081E892E00E9447312091EC02892BD1F08091B4039091B5038F3F980729F00196DC
:203D20009093B5038093B403203460F08091B0039091B1038F3F980729F001969093B103AD
:203D40008093B0038091AE039091AF038F3F980729F001969093AF038093AE03203408F402
:203D600085CF8091A8039091A9038F3F980709F47DCF01969093A9038093A80377CF4F5F98
:203D80005F4F61E872E08EEE93E00E941C3180917F02909180029093750480937404DF9130
:203DA000CF910C94641980915204882309F441C080917E02E82FF0E0E15FFE4F90819D13B0
:203DC00033C08F5F873019F080937E0222C010927E0210925204109251048091B6039091D1
:203DE000B7038F3F980729F001969093B7038093B6038091EC02803460F08091B203909159
:203E0000B3038F3F980729F001969093B3038093B203DD3009F42ACFC091E202CF3560F0A2
:203E200081E08093E10222CF81E0D33569F280E0CBCF10927E02EDCFC1110CC00E94C60E8A
:203E40002091CA033091CB03621B730B7093800260937F0281E08C0F8093E202EC2FF0E083
:203E6000EF57FD4FD08302CF8FE995E00E948910892B39F08FE995E00E949F100E94081E81
:203E8000F3CF8091BD0580FF0FC08E7F8093BD058091BA039091BB038F3F980729F0019693
:203EA0009093BB038093BA0308952F923F924F925F927F928F929F92AF92BF92CF92DF9289
:203EC000EF92FF920F931F93CF93DF931F92CDB7DEB79E012E5B3540409106015091070180
:203EE0002417350720F4309307012093060170906A04711015C0E12C8E2D0F90DF91CF91B7
:203F00001F910F91FF90EF90DF90CF90BF90AF909F908F907F905F904F903F902F90089591
:203F20009B0121503109203A310528F78B016C01E0905204EE2009F45AC00E94C60E0091A0
:203F4000EE021091EF022091F0023091F102DC01CB01801B910BA20BB30B80342FE19207E0
:203F6000A105B10568F5803D9740A105B105B8F080915104811113C081E08093510480914B
:203F8000C4039091C5038F3F980729F001969093C5038093C40388E497E00E9418128091CF
:203FA000A6039091A7038F3F980729F001969093A7038093A60380EF96E00E9418129BCFCC
:203FC00010925204109251048091C2039091C3038F3F980729F001969093C3038093C20357
:203FE00084E996E00E9418120E94431184CF81E08093ED026093EC020E94C60E8090E80215
:204000009090E902A090EA02B090EB02681979098A099B09603571058105910518F40E943D
:20402000341FEACF68E876E08FE995E00E94DE0E4801FFEF8F1A9F0AB4018FE995E00E9486
:204040002D1365E876E08FE995E00E94DE0E0E94C60E1B012C01B12CA12C0E94C60E6219A8
:204060007309840995096C3271408105910508F048C08FE995E00E948910892B71F38FE976
:2040800095E00E949F10F82E8EE3F81609F470C08F2D0E94081E8FEB8F0D8A3110F4E0E26D
:2040A000FE0EEA2DF0E0E15DFE4F8081A3948F1529F0AA24A394F2E6FF12A12CEA2DF0E0EB
:2040C000E15DFE4F8081882309F4B4C0EB2DF0E0E75DFE4F8081B3948F1529F0BB24B39494
:2040E00025E6F212B12CEB2DF0E0E75DFE4F80818111BFCF92E0F92E8EED95E00E941812E5
:2041000067C083E0F82EB12CA12C63E28FE995E00E942D10C5018F7099270F9711F40E9462
:20412000341F8FEFA81AB80A0A151B0571F76AE08FE995E00E942D100E94341F8091DD0387
:204140009091DE038F3F980729F001969093DE038093DD0362EB75E082E095E00E94DE0E42
:20416000B40182E095E00E942D1384E795E0C6CFF12C0C0D1D1D560145018C189D08F50110
:2041800061915F018FE995E00E942D10FFE08F2299242FE08216910411F40E94341F0A155F
:2041A0001B0551F76AE08FE995E00E942D100E94341F81E080935204109251040E94C60E55
:2041C0006093EE027093EF028093F0029093F1020E94C60E6093E8027093E9028093EA02AD
:2041E0009093EB021092ED0263E675E0F11002C06EE675E082E095E00E94DE0EC6010E9446
:204200007F15F1E0FF1649F1F11019C0109253040E94C60E6093540470935504809356048D
:20422000909357041092A1031092A2031092A303E72C62CEFF24F3948FE196E05FCF0E9488
:20424000FF1222E0F21212C08091A1038F3F09F452CE8F5F8093A1034FCE8091A3038F3F8E
:2042600009F449CE8F5F8093A30346CE8091A2038F3F09F441CE8F5F8093A2033DCE1F927D
:204280000F920FB60F9211242F933F938F939F93AF93BF938091E8039091E903A091EA033F
:2042A000B091EB033091E70323E0230F2D3758F50196A11DB11D2093E7038093E80390935D
:2042C000E903A093EA03B093EB038091E3039091E403A091E503B091E6030196A11DB11D3C
:2042E0008093E3039093E403A093E503B093E603BF91AF919F918F913F912F910F900FBE98
:204300000F901F90189526E8230F0296A11DB11DD2CF1F920F920FB60F9211242F933F931C
:204320004F935F936F937F938F939F93AF93BF93EF93FF9382E095E00E94800FFF91EF9181
:20434000BF91AF919F918F917F916F915F914F913F912F910F900FBE0F901F9018951F92F5
:204360000F920FB60F9211242F938F939F93EF93FF93E0911205F09113058081E091180527
:20438000F091190582FD1BC0908180911B058F5F8F7320911C05821741F0E0911B05F0E0F5
:2043A000EE5FFA4F958F80931B05FF91EF919F918F912F910F900FBE0F901F901895808188
:2043C000F4CF1F920F920FB60F9211242F933F934F935F936F937F938F939F93AF93BF93C9
:2043E000EF93FF93E0913403F0913503309749F0A685B7858585968D91FF14C09C91892377
:20440000A1F4FF91EF91BF91AF919F918F917F916F915F914F913F912F910F900FBE0F909C
:204420001F9018959C91892361F7A389B4899C918589809589238C93868997890197F1F7BC
:20444000608D718DA685B785558538E020E0CB010197F1F7822F90E095958795282F4C9131
:20446000452309F02068315091F7868D81FD20958091330390E001968F73992730913203FE
:20448000381799F0A0913303B0E0AE50BD4F2C9380933303828D938D0197F1F7A389B48923
:2044A0008C919589892B8C93ACCF868D8160868FF1CF109205051092040588EE93E0A0E0EA
:2044C000B0E08093060590930705A0930805B09309052FE531E0309303052093020525ECB3
:2044E00030E030930F0520930E0524EC30E0309311052093100520EC30E0309313052093A4
:20450000120521EC30E0309315052093140522EC30E0309317052093160526EC30E030930E
:2045200019052093180510921B0510921C0510921D0510921E051092A2051092A1058093DB
:20454000A3059093A405A093A505B093A60581E791E09093A00580939F051092B6051092C5
:20456000B5051092B8051092B7051092BA051092B9051092BC051092BB056091BD056E7F9E
:204580006D7F6093BD056695617081E0682787E00E945C0E61E087E00E948A0EE7E7FBE1BF
:2045A000E491E093AF05E3E6FBE1E491F0E0EE0FFF1FEE5AF44E859194919093B1058093A9
:2045C000B00560E088E00E948A0E8091BD0581FD04C061E088E00E945C0E88E08093AB054F
:2045E000E8E7FBE1E491E093AC05E4E6FBE1E491F0E0EE0FFF1FE85BF44E8591949190938E
:20460000AE058093AD050895CF93DF93CDB7DEB7C25DD1090FB6F894DEBF0FBECDBF78944C
:2046200084B5826084BD84B5816084BD85B5826085BD85B5816085BD80916E008160809395
:204640006E0010928100809181008260809381008091810081608093810080918000816048
:20466000809380008091B10084608093B1008091B00081608093B00080917A008460809356
:204680007A0080917A00826080937A0080917A00816080937A0080917A00806880937A00AD
:2046A0001092C100E0911205F091130582E08083E0910E05F0910F051082E0911005F0915F
:2046C000110580E1808310921A05E0911605F091170586E08083E0911405F09115058081E7
:2046E00080618083E0911405F0911505808188608083E0911405F0911505808180688083B4
:20470000E0911405F091150580818F7D80831092BA051092B9051092B8051092B705109244
:20472000B6051092B5058DE991E09093BC058093BB059091AB05963108F047C02DEB30E005
:204740003093B6052093B5052BE931E03093B8052093B7052CE231E03093BA052093B90548
:204760002091680084E0983048F031E09E3008F430E081E001C0880F3A95EAF7822B8093A8
:2047800068002DE630E0983050F02BE630E09E3030F02CE630E0963110F030E020E03093BB
:2047A000B3052093B205292F30E0983008F012C281E001C0880F9A95EAF78093B405809135
:2047C000BB059091BC050197F1F78091B9059091BA05892B49F1E0913403F091350315E0C4
:2047E000EF39F10709F1309739F0A389B4899C918589809589238C938091BD058E7F809338
:20480000BD0510923303109232038FE995E09093350380933403E091B205F091B305808133
:204820009091B405892B8083109263040E94C60E60935F04709360048093610490936204AA
:2048400084EF91E090930901809308010E94C60E6093CA037093CB038093CC039093CD034F
:2048600081E480937C0080917A00806480937A0080917A0086FDFCCF4091780050917900CC
:20488000052E000C660B770B3FB7F8948091E3039091E403A091E503B091E60326B5A89B04
:2048A00005C02F3F19F00196A11DB11D3FBFBA2FA92F982F8827820F911DA11DB11D12E0A7
:2048C000880F991FAA1FBB1F1A95D1F78A019B01082719272A273B27481759076A077B0774
:2048E00021F0C901B8010E9482301092FC041092FB04E1EAEE2EEFE0FE2EF70184918F3FD0
:2049000031F081E090E09093FC048093FB0402EA1FE0F80124918091FB049091FC042F3F38
:2049200029F082609093FC048093FB048091FB0480FF05C0F701849162E00E948A0E809159
:20494000FB0481FF05C0F801849162E00E948A0E61E08DE00E948A0E62ED7EE089E292E017
:204960000E94AF1165E575E18CE292E00E94AF11109201051092FE041092FD04109200055D
:204980001092FF041092FA041092F90462E57BE082E095E00E94DE0E0E94121269E47BE0BE
:2049A00082E095E00E94DE0EE8EEFAE1E491E983E9EEFAE1E491EA831B829E012F5F3F4F14
:2049C0001901B90182E095E00E9403128DE30E94EF0F8091FB0480FF0AC16BE37BE082E000
:2049E00095E00E94DE0EF70184910E94F61280E20E94EF0FE0EFFAE1E491E983E1EFFAE1C5
:204A0000E491EA831B82B10182E095E00E9403128DE30E94EF0F8091FB0481FDEFC06FE338
:204A20007BE082E095E00E94DE0E80E20E94EF0F0E9412126FE17BE082E095E00E94DE0EDE
:204A400081E00E94F61265E17BE082E095E00E94DE0E82E00E94F61269E07BE082E095E0BE
:204A60000E94DE0E84E00E94F61287EF9AE00E94181260EE7AE082E095E00E94DE0E8091C0
:204A8000BE058111C6C088E99AE00E94181261E17AE082E095E00E94DE0E66ED79E082E075
:204AA00095E00E94DE0E61EC79E082E095E00E94DE0E8DEB99E00E9418129E0121543F4F89
:204AC000CC53DF4F39832883C45CD0404E0132EA830E911CAE0146545F4FCA53DF4F59832B
:204AE0004883C65CD0400E94C60E2B013C0180916A04882309F4B6C08091D803882339F17C
:204B000080915B0490915C04A0915D04B0915E04A3019201281B390B4A0B5B0BDA01C90151
:204B200080339547A105B10594F06EE47FE082E095E00E94DE0E8091D8030E94F61289E4ED
:204B40009FE00E9418121092D8031092D7030E94341F80919C038823A9F080E6ECE3F3E020
:204B6000AEEEB3E001900D928A95E1F780913A0390913B03909375048093740410929C03CA
:204B80000E94641910E000E0C853DF4F19821882C85CD040D02E80910105882309F493C262
:204BA0008091FD049091FE04002E02C0969587950A94E2F780FF87C28091FF049091000510
:204BC0000D2C02C0969587950A94E2F7817009F0AEC2C2C29E3040F42850310981E001C068
:204BE000880F2A95EAF7E9CD2E503109F7CF6FE37BE082E095E00E94DE0EF9CE6BE37BE0C8
:204C000082E095E00E94DE0EF80184910E94F6120CCF80FF06C065E87AE082E095E00E9437
:204C2000DE0E8091BE0581FF06C06BE67AE082E095E00E94DE0E8091BE0582FF06C068E4F7
:204C40007AE082E095E00E94DE0E8091BE0583FF06C06DE37AE082E095E00E94DE0E0E94C8
:204C6000121215CF8091D603882379F077FC0DC01092D6030E945D136CED75E081E00E94B0
:204C8000991182E79BE00E9418128091D60381115ECF80915F0490916004A0916104B09141
:204CA0006204B301A201481B590B6A0B7B0B8091080190910901B0E0A0E0481759076A07F0
:204CC0007B0708F444CF80916304853059F480917104811107C089EF9EE00E94181282E0C6
:204CE0008093630410916304123091F480916F04882309F455C010926F04809170048A3FC7
:204D000018F48F5F8093700481E00E949E131FCF1B3008F060C0E12FF0E0EF56F94D0C9402
:204D200016319C26AD26EB2613275E277F27A427E727082829284D286FE07EE08FE995E0B8
:204D40000E94DE0E63E07EE082E095E00E94DE0E0E94121210926F043EC065EF7DE08FE9BD
:204D600095E00E94DE0E64EE7DE082E095E00E94DE0E0E94121281E080930A0140925F04A2
:204D800050926004609261047092620480E293E090930901809308011F5F10936304D7CEC3
:204DA00061EC7DE08FE995E00E94DE0E6AE87DE082E095E00E94DE0E0E94121281E0809380
:204DC0006F040E94C60E6093360370933703809338039093390310930A0140925F0450920F
:204DE00060046092610470926204E12FF0E0EE0FFF1FEC5CFE4F80819181909309018093AD
:204E00000801EEEFE10FE93038F6F0E0E65FF84D0C9416314B2832277D279E27C3270628E7
:204E2000272848284B286FE77DE08FE995E00E94DE0E61E57DE082E095E00E94DE0E0E9468
:204E4000121283E080930A0140925F0450926004609261047092620484EC99E0909309015D
:204E600080930801809168048F5F80936804833008F41CC180916904109268041092690405
:204E800081110C94BC2F80916704811102C00E94421385E69EE00E94181282E0809363049D
:204EA00080E00E949E1380916304833009F04FCE68EE73E082E00E94991149CE63E47DE0EC
:204EC0008FE995E00E94DE0E62E37DE082E095E00E94DE0E0E94121284E080930A01409236
:204EE0005F0450926004609261047092620480EB94E0909309018093080185E0D8C06AE0DB
:204F00007DE08FE995E00E94DE0E69EF7CE082E095E00E94DE0E0E94121285E080930A0157
:204F200040925F0450926004609261047092620480E49FE190930901809308018091640491
:204F40008823D9F286E0B3C06BEE7CE08FE995E00E94DE0E63EC7CE082E095E00E94DE0EC2
:204F60000E94121286E080930A0140925F0450926004609261047092620480E293E09093B5
:204F8000090180930801809150048F5F80935004833008F48FC065E57EE082E095E00E9412
:204FA000DE0E809150040E94F61288E19EE00E94181210926304109264041092500488ECC6
:204FC00090E0909309018093080182E09ECE6AEB7CE08FE995E00E94DE0E63E97CE082E014
:204FE00095E00E94DE0E0E94121287E080930A0140925F0450926004609261047092620429
:205000008CED95E0909309018093080188E04FC064E77CE08FE995E00E94DE0E6AE37CE017
:2050200082E095E00E94DE0E0E94121288E080930A0140925F0450926004609261047092EB
:2050400062048CED95E0909309018093080189E02EC06FE27CE08FE995E00E94DE0E63E0F1
:205060007CE082E095E00E94DE0E0E94121289E080930A0140925F04509260046092610450
:205080007092620488E293E2909309018093080181E08093650482E00AC068EF7BE08FE94D
:2050A00095E00E94DE0E66EC7BE04ECE83E0809363044DCD83E0809363041092680447CD2E
:2050C00001E010E067CD8091FB049091FC040D2C02C0969587950A94E2F780FFC4C0F801E5
:2050E000EF55F04FE4912E2F30E0F901ED51FD4E8491F901E059F44EE490F901E45AF44E50
:20510000F490FF20A1F081110E94330EEF2DF0E0EE0FFF1FE85BF44EA591B491EC91EE2252
:2051200081E090E011F490E080E0892BA9F481E090E002C0880F991FDA94E2F7C853DF4F06
:2051400048815981C85CD040482B592BC853DF4F59834883C85CD0400130110509F0B0CF9E
:20516000C853DF4F88819981C85CD0409093F6048093F50480910105882309F479C0E091FD
:20518000FD04F091FE04C553DF4FF983E883CB5CD0408091040190910501C853DF4F4881D8
:2051A0005981C85CD04084179507C9F42091F7043091F804809102019091030128173907CC
:2051C00071F48091000190910101C553DF4FE881F981CB5CD0408E179F0709F452C080916A
:2051E000A503811103C081E08093A503C090CA03D090CB03E090CC03F090CD034091BE032A
:205200005091BF036091C0037091C103F0916A04E091A4032091BC033091BD03D301C201E3
:205220008C199D09AE09BF09803B14E09107A105B10550F110EBC10E14E0D11EE11CF11C09
:20524000FF2339F0E11105C02F3F320711F02F5F3F4F4F5F5F4F6F4F7F4F805B9440A10947
:20526000B109E0E0E1CF8091F9049091FA04A8CC2FEF3FEFC553DF4F39832883CB5CD04033
:2052800088CF1092A503B2CFC092CA03D092CB03E092CC03F092CD034093BE035093BF03D1
:2052A0006093C0037093C103E093A4033093BD032093BC0388539F4FAF4FBF4F89359240FD
:2052C000A105B10508F020C381E0E827FF2309F490C08091540490915504A0915604B09109
:2052E0005704A3019201281B390B4A0B5B0BDA01C90180319742A105B1050CF407C364E23F
:2053000071E182E095E00E94DE0E8091540490915504A0915604B0915704B301A201481B12
:20532000590B6A0B7B0B82E095E00E94F3126AEF70E182E095E00E94DE0E8091A3030E9428
:20534000F6126CEE70E182E095E00E94DE0E8091A2030E94F61261EE70E182E095E00E94BC
:20536000DE0E8091A1030E94F6126AEC70E182E095E00E94DE0E6091A6037091A70382E02F
:2053800095E00E942D1369EB70E182E095E00E94DE0E6091C4037091C50382E095E00E94B2
:2053A0002D136CEA70E182E095E00E94DE0E60914E0470914F0482E095E00E942D136EE9FA
:2053C00070E182E095E00E94DE0E6091C6037091C70382E095E00E942D138DE790E10E9452
:2053E00018121092A1031092A2031092A3030E9443118091CE039091CF03A091D003B0919E
:20540000D103A3019201281B390B4A0B5B0BDA01C90180369A4EA105B10508F4A8C180912A
:205420006A048823C9F08091CA039091CB03A091CC03B091CD03A3019201281B390B4A0BA9
:205440005B0BDA01C901C296A11DB11D89359240A105B10508F08BC14092CE035092CF03D6
:205460006092D0037092D10360E272E182E095E00E94DE0EC301B20128EE33E040E050E0A7
:205480000E94BD30BA01A90182E095E00E94F31269E172E182E095E00E94DE0E6091C803DC
:2054A0007091C90382E095E00E942D1360E172E182E095E00E94DE0E6091C6037091C703E8
:2054C00082E095E00E942D1368E072E182E095E00E94DE0E70E060E082E095E00E942D13CA
:2054E0008FE20E94EF0F609158047091590482E095E00E942D136FEF71E182E095E00E940E
:20550000DE0E6091DD037091DE0382E095E00E942D1364EF71E182E095E00E94DE0E609138
:205520004E0470914F0482E095E00E942D136DEE71E182E095E00E94DE0E6091C403709141
:20554000C50382E095E00E942D1365EE71E182E095E00E94DE0E6091C2037091C30382E0E1
:2055600095E00E942D136EED71E182E095E00E94DE0E8091EF040E94F61264ED71E182E00F
:2055800095E00E94DE0E6091F1047091F20482E095E00E942D1369EC71E182E095E00E9452
:2055A000DE0E6091F3047091F40482E095E00E942D1362EC71E182E095E00E94DE0E40918F
:2055C000BE035091BF036091C0037091C10382E095E00E94F3126CEB71E182E095E00E944E
:2055E000DE0E609172047091730482E095E00E942D1364EB71E182E095E00E94DE0E609130
:20560000BC037091BD0382E095E00E942D136CEA71E182E095E00E94DE0E6091BA03709195
:20562000BB0382E095E00E942D1362EA71E182E095E00E94DE0E6091B8037091B90382E025
:2056400095E00E942D13A090B603B090B703E090B403F090B503C090B203D090B303009105
:20566000B0031091B10367E971E182E095E00E94DE0EB50182E095E00E942D136CE871E106
:2056800082E095E00E94DE0E6091AE037091AF0382E095E00E942D1361E871E182E095E025
:2056A0000E94DE0E6091AC037091AD0382E095E00E942D1367E771E182E095E00E94DE0E4D
:2056C0006091AA037091AB0382E095E00E942D136DE671E182E095E00E94DE0E6091A8031E
:2056E0007091A90382E095E00E942D1363E671E182E095E00E94DE0EB60182E095E00E9414
:205700002D136AE571E182E095E00E94DE0EB70182E095E00E942D136EE471E182E095E057
:205720000E94DE0EB80182E095E00E942D1367E471E182E095E00E94DE0E6091A6037091CC
:20574000A70382E095E00E942D136EE371E182E095E00E94DE0E40916A0450E070E060E0DF
:205760002AE082E095E00E94A7120E94121280916A0481117FC08091D9039091DA03A091BB
:20578000DB03B091DC03A3019201281B390B4A0B5B0BDA01C901883B9B40A105B10508F4F7
:2057A00069C04092D9035092DA036092DB037092DC0360E672E182E095E00E94DE0E809193
:2057C00063040E94F61264E572E182E095E00E94DE0E8091D8030E94F6128FE20E94EF0F10
:2057E0008091D7030E94F6128091D603882331F06EE372E182E095E00E94DE0E69E372E1B6
:2058000082E095E00E94DE0E4091D2035091D3036091D4037091D50382E095E00E94F312A7
:2058200061E372E182E095E00E94DE0E4091760450917704609178047091790482E095E003
:205840000E94F3126CE272E182E095E00E94DE0EC301B20128EE33E040E050E00E94BD301C
:20586000BA01A90182E095E00E94F3128AE292E10E9418128091DF039091E003A091E1038E
:20588000B091E203A3019201281B390B4A0B5B0BDA01C90180369A4EA105B10540F14092C7
:2058A000DF035092E0036092E1037092E20364EC72E182E095E00E94DE0E60910601709183
:2058C000070182E095E00E942D1366EA72E182E095E00E94DE0E6091DD037091DE0382E0EA
:2058E00095E00E942D1385E792E10E94181280E090E0892B09F4F7C80E946C0F882309F4A1
:20590000F2C80E940000E6C8E0E0E0CCEE2309F470CD4091F7045091F804C353DF4F5983FD
:205920004883CD5CD0400E94C60E9B01AC012C193D094E095F09C153DF4F288339834A83E4
:205940005B83CF5CD0401091ED03112309F46AC11F9284E08F931F9287E08F938FE292E0ED
:205960009F938F931F9281EA8F933F922F920E9461310FB6F894DEBF0FBECDBF181619063B
:205980000CF0A9C09C012D5F3F4F223A310508F0A2C0682FC1010E947011F10101900020E0
:2059A000E9F731975F01A218B30858EEE52E5AE1F52EC653DF4F1882CA5CD040F70184918F
:2059C000C154DF4F8883CF5BD0403196E491C054DF4FE883C05CD040CF53DF4F1882C15C23
:2059E000D040BE0166547F4FC653DF4F8881CA5CD0400E942B11C953DF4FF881C75CD040F6
:205A0000FF93CA53DF4F1881C65CD0401F93CB53DF4F2881C55CD0402F93CC53DF4F38813E
:205A2000C45CD0403F934AE352E05F934F931F9298E19F939F928F920E9461310FB6F894FE
:205A4000DEBF0FBECDBF181619060CF044C09C012D5F3F4F29313105F0F5682FC4010E94D9
:205A60007011F40101900020E9F731978F0108191909C501805A9109800F911F8F359F4F59
:205A800050F165012FEFC21AD20AF101EA0DFB1D3AE03083A8014F5F5F4FB401C1018C0DA6
:205AA0009D1D0E941C315801AC0CBD1CC653DF4F1881CA5CD0401F5FC653DF4F1883CA5CB7
:205AC000D04028E0E20EF11C143009F077CFA114B10409F07AC081E090E10E941812B12C16
:205AE000A12CF12C10E081E08093A40363E770E182E095E00E94DE0E4091BE035091BF037C
:205B00006091C0037091C10382E095E00E94F3126EE670E182E095E00E94DE0EB50182E06C
:205B200095E00E942D1368E670E182E095E00E94DE0E8F2D0E94F61262E670E182E095E034
:205B40000E94DE0EC153DF4F488159816A817B81CF5CD04082E095E00E94F3128DE590E14F
:205B6000111102C088E590E10E9418120E94C60E112309F43ECC80919F039091A0030196D8
:205B80009093A00380939F03C853DF4F48815981C85CD0405093050140930401C353DF4F65
:205BA00088819981CD5CD0409093030180930201C553DF4FE881F981CB5CD040F093010167
:205BC000E09300011092A50314CCB501C1010E94551F182F882309F4D5C11092ED03809171
:205BE0009D0390919E038F3F980729F0019690939E0380939D0363EF7FE082E095E00E9485
:205C0000DE0E69EE7FE082E095E00E94DE0EB50182E095E00E942D1381EF9FE00E94181253
:205C2000F12C61CF2091F5043091F6048091820490918304BE0161547F4F822B932B0E9424
:205C4000FD0DBE0166547F4F8091F7049091F8040E94FD0D00919F03F090A00380910105B1
:205C6000882309F449C0B4018091FD049091FE040E94FD0D0E94C60E9F928F9223E432E0FC
:205C80003F932F9328EE33E040E050E00E94BD305F934F933F932F93C953DF4F4881C75CCA
:205CA000D0404F93CA53DF4F5881C65CD0405F93CB53DF4F8881C55CD0408F93CC53DF4FB5
:205CC0009881C45CD0409F93FF920F9386E492E09F938F931F9280E48F933F922F920E947B
:205CE00061310FB6F894DEBF0FBECDBF18161906CCF1B12CA12C94CF0E94C60E23E432E025
:205D00003F932F9328EE33E040E050E00E94BD305F934F933F932F93C953DF4FF881C75C99
:205D2000D040FF93CA53DF4F2881C65CD0402F93CB53DF4F3881C55CD0403F93CC53DF4F84
:205D40004881C45CD0404F93FF920F938CE592E09F938F931F9280E48F933F922F920E9493
:205D60006131BFCF9C012D5F3F4F2134310508F6682FC1010E947011F10101900020E9F7C4
:205D800031975F01A218B308AA2009F4B2CFBB24F090EF04FF2009F44BC08091F00490E030
:205DA000FC01EE0FFF1FE952FB4F40815181B091D60425E834E0A0E0BA1709F460C02B5F7F
:205DC0003F4FF9013597608171814617570709F054C0A7FD54C0F12C95E0D92E28E1C22E8A
:205DE0003AE0E32E8091EF04F81610F58091F0048F0D9927991F6CE070E00E940231FC01DA
:205E0000EE0FFF1FE952FB4F408151813091D60485E894E020E0321759F00596FC013597DD
:205E2000608171814617570709F044C027FF44C0B501C1010E94551F182F882309F453CE0F
:205E4000FF2081F08091F0048F0D9927991F6CE070E00E9402318093F0048091EF048F1975
:205E60008093EF048091EC03882329F01092EC0381E08093ED0311E036CEAF5F9DCF01965D
:205E80006CE070E00E9402318093F004FA94F092EF048091F3049091F4048F3F980729F0E0
:205EA00001969093F4048093F30483EA9FE00E9418126ECF2F5FAFCF1D2D2103F001112491
:205EC000EB57FB4F84811F928F938381282F082E000C330B3F938F938281282F082E000CF3
:205EE000330B3F938F9381818F9380818F932FE632E03F932F931F92CF929F928F920E9468
:205F000061310FB6F894DEBF0FBECDBF181619060CF08ECF9C012D5F3F4F2931310508F0C3
:205F200087CF682FC4010E947011F40101900020E9F73197AF01481959095527C5010196F2
:205F40008A01080F191F013A110508F071CFE1E0F0E0EC0FFD1FEA0DFB1DE0824F5F5F4F69
:205F6000B40121E030E02C0F3D1F820F931F0E941C31F394580136CF82EA9EE00E941812F7
:205F80000C94492763EF7FE082E095E00E94DE0E61EE7FE038CE81E791E09093A005809373
:205FA0009F0580913403909135038F59954071F4E091B205F091B30590818091B405809529
:205FC00089238083109235031092340308958F929F92AF92BF92CF92DF92EF92FF92CF9398
:205FE000DF93EC01688179818A819B81611571058105910521F464E279ED8BE597E02DE17A
:2060000033EF41E050E00E948B3049015A019B01AC01A7EAB1E40E94AA306B017C01ACEE9D
:20602000B4EFA50194010E94B830C60ED71EE81EF91EF7FE06C081E0C81AD108E10880E8EA
:20604000F80AC882D982EA82FB82C701B6019F77DF91CF91FF90EF90DF90CF90BF90AF90E1
:206060009F908F9008958F929F92AF92BF92CF92DF92EF92FF9260910B0170910C01809151
:206080000D0190910E01611571058105910521F464E279ED8BE597E02DE133EF41E050E091
:2060A0000E948B3049015A019B01AC01A7EAB1E40E94AA306B017C01ACEEB4EFA501940192
:2060C0000E94B830C60ED71EE81EF91EF7FE06C081E0C81AD108E10880E8F80AC0920B01C8
:2060E000D0920C01E0920D01F0920E01C701B6019F77FF90EF90DF90CF90BF90AF909F90F2
:206100008F90089560930B0170930C0180930D0190930E010895052E97FB1EF400940E94B7
:20612000A23057FD07D00E94BD3007FC03D04EF40C94A23050954095309521953F4F4F4FE8
:206140005F4F089590958095709561957F4F8F4F9F4F08950E94DF30A59F900DB49F900D06
:20616000A49F800D911D11240895B7FF0C94AA300E94AA30821B930B0895A1E21A2EAA1BBB
:20618000BB1BFD010DC0AA1FBB1FEE1FFF1FA217B307E407F50720F0A21BB30BE40BF50BBC
:2061A000661F771F881F991F1A9469F760957095809590959B01AC01BD01CF010895A29F6E
:2061C000B001B39FC001A39F700D811D1124911DB29F700D811D1124911D0895AA1BBB1B34
:2061E00051E107C0AA1FBB1FA617B70710F0A61BB70B881F991F5A95A9F780959095BC0120
:20620000CD01089597FB072E16F4009407D077FD09D00E94EE3007FC05D03EF49095819585
:206220009F4F0895709561957F4F0895EE0FFF1F0590F491E02D0994FB01DC0102C0019062
:206240000D9241505040D8F70895FC018191861721F08823D9F7992708953197CF01089548
:20626000FB01DC018D91019080190110D9F3990B0895FB01DC014150504030F08D91019016
:20628000801919F40020B9F7881B990B0895FB0151915523A9F0BF01DC014D91451741118C
:2062A000E1F759F4CD010190002049F04D9140154111C9F3FB014111EFCF81E090E001974B
:2062C0000895AEE0B0E0E7E6F1E30C941D340D891E898F89988D26E02C831A83098397FF83
:2062E00002C080E090E801979E838D83AE01455E5F4F698D7A8DCE0101960E9491314D81A6
:206300005E8157FD0AC02F813885421753070CF49A01020F131FF80110822E96E4E00C94CF
:206320003934ABE0B0E0E7E9F1E30C940F347C013B018A01FC0117821682838181FFC8C1CF
:20634000CE0101965C01F7019381F30193FD859193FF81913F01882309F453C1853239F450
:2063600093FD859193FF81913F01853229F4B70190E00E948133E7CF912C212C312CFFE144
:20638000F31538F08B3211F190F4803209F1833229F137FC3CC020ED280F2A3050F536FEC9
:2063A00020C08AE0989E200D1124922E06C08D3291F0803371F7689430F8F30193FD85915C
:2063C00093FF81913F018111DACF21C0689431F8689432F8F2CF689433F8EFCF689434F8A4
:2063E000ECCFEAE02E9E200D1124222E689435F8E4CF8E3229F436FC04C1689436F8DDCF14
:206400008C3619F4689437F8D8CF8836B1F2982F9F7D95549330E0F08336A1F18337C1F164
:20642000833509F063C02801F2E04F0E511CF801C080D180692D70E036FC02C06FEF7FEF93
:20644000C6010E946B334C01689437F882010AC00C5F1F4FFFE3F98388248394912C650153
:20646000E89437F833FE2DC0522C8114910471F5552009F468CFB70180E290E00E948133BC
:206480005A94F6CFF801808189830E5F1F4FE4CF2801F2E04F0E511CF801C080D180692DD0
:2064A00070E036FC02C06FEF7FEFC6010E9476334C018201D5CFB70180E290E00E94813366
:2064C0002A942814190409F0B0F7CECFF60137FC859137FE81916F01B70190E00E948133F3
:2064E00051105A94F1E08F1A9108BFCF843619F0893609F077C0F80137FE6BC060817181CE
:20650000828193810C5F1F4FF32DFF763F2E97FF09C090958095709561957F4F8F4F9F4F5B
:20652000689437F82AE030E0A5010E94B133C82ECA188C2C432C36FE0CC0E89440F8C9145A
:2065400040F434FE05C032FC03C0F32DFE7E4F2E892C44FE95C0FE01EC0DF11D8081803300
:2065600009F087C0242D297E422E842D8870582E43FC95C040FE8FC09C2C821418F42C0C81
:20658000922C981844FE91C0B70180E390E00E94813342FE09C088E790E041FE02C088E5C3
:2065A00090E0B7010E948133C91408F48AC0CA94D12C9FEFC91AD90ACA0CDB1CF6018291B4
:2065C0006F01B70190E00E948133AC14BD04B1F74FCF60817181072E000C880B990B0E5FCE
:2065E0001F4F92CFD32CE894D4F82AE030E0853739F1232D297FD22E8F3601F148F48835DD
:20660000A9F0F701868197812B96E2E10C942B34803749F08837A9F7D4FE02C06894D2F89E
:2066200020E130E00DC06894D4F8F6CF34FE03C0822F8660D82E20E132E002C028E030E070
:20664000F801D7FE0FC060817181828193810C5F1F4FA5010E94B133C82ECA183D2CE894F1
:2066600037F867CF6081718190E080E00E5F1F4FF0CF42FC02C0839478CF8394839475CFA8
:20668000842D867809F471CFF6CFB70180E290E00E94813383948214C0F3512C73CF522CCC
:2066A0005818821408F46ECFF8CF842D867809F47BCF8BE241FE80E247FC8DE2B70190E0F6
:2066C00071CFB70180E390E00E9481339A946CCF8FEF9FEF99CFFC010590615070400110B8
:2066E000D8F7809590958E0F9F1F0895FC016150704001900110D8F7809590958E0F9F1F35
:2067000008950F931F93CF93DF93182F092FEB018B8181FD09C01FEF0FEF812F902FDF910B
:20672000CF911F910F91089582FF14C02E813F818C819D81281739073CF4E881F981CF01BB
:2067400001969983888310838E819F8101969F838E83E3CFE885F985812F0995892BA1F3BC
:20676000DACFFA01AA27283051F1203181F1E8946F936E7F6E5F7F4F8F4F9F4FAF4FB1E0E6
:206780003ED0B4E03CD0670F781F891F9A1FA11D680F791F8A1F911DA11D6A0F711D811D56
:2067A000911DA11D20D009F468943F912AE0269F11243019305D3193DEF6CF010895462F60
:2067C0004770405D4193B3E00FD0C9F7F6CF462F4F70405D4A3318F0495D31FD405241930A
:2067E00002D0A9F7EACFB4E0A6959795879577956795BA95C9F700976105710508959B0194
:20680000AC010A2E06945795479537952795BA95C9F7620F731F841F951FA01D08952F9225
:206820003F924F925F926F927F928F929F92AF92BF92CF92DF92EF92FF920F931F93CF9325
:20684000DF93CDB7DEB7CA1BDB0B0FB6F894DEBF0FBECDBF09942A88398848885F846E84E6
:206860007D848C849B84AA84B984C884DF80EE80FD800C811B81AA81B981CE0FD11D0FB6C9
:20688000F894DEBF0FBECDBFED0108951DE0C3ECDDE004C0FE010E9416312196C43CD10747
:2068A000C9F7F894FFCFFEFFFFFFFFFFFFFFF401FF0100000053454E44204F4B00000000EE
:2068C000008813983A307560EA0102020202FF6572726F72006275737900C40920033075D2
:2068E000C409B004401F2003DC05DC052823B80B3031323334353637383941424344454623
:206900000000000000A20F020F2F0FF40F600F3E0F520F000000002D10020FC0102C108974
:20692000109F1014100D0A002B4950442C005749464900474F5420495000444953434F4E97
