:200000000C94880C0C94BF0C0C94BF0C0C94FC1B0C94FC1B0C94FC1B0C94BF0C0C94BF0CDB
:200020000C94BF0C0C94BF0C0C94BF0C0C94BF0C0C94BF0C0C94BF0C0C94BF0C0C94BF0C68
:200040000C945A1B0C94BF0C0C94CA1B0C94A41B0C94BF0C0C94BF0C0C94BF0C0C94BF0C90
:200060000C94BF0C0C94BF0C5B41434B515D20EAB080EB939D20ECB0B820E2809420EAB039
:2000800080EC9EA520EC98A4EB9E98EB909C20EBB3B4EBA5982041434B20EBA5BC20EBB27F
:2000A00084EBA6B0EB8BA400EBB094EC9DB4ED8AB8EBA5BC20EB8498EC96B420EBB284EBF1
:2000C000A0B8EB8BA4005B44524F502D4F56465D20ECA484EC9DB42000EBB094EC9DB4EDBF
:2000E0008AB820EBB284EBA6BC202B20ECA48420ECA1B0EBA6BD20ECB488EAB8B0ED999452
:20010000005B4C41444445525D2031EB8BA820ECA1B0ECB9983A20EC8B9CEBA6ACEC96BC8A
:2001200020EB939CEBA088EC9DB82000ECB48820EBB0B1EC98A4ED9484EBA19C20EB9098F5
:20014000ED9280EC9DB4ED959CEB8BA428ECA285ECB0A9EC97AD29005B4C41444445525DEE
:20016000202020EB8C80EC8BA02034EB8BA820ECA1B0ECB998EBA5BC20005B4C41444445E4
:20018000525D202020ED9584EC9A9420EBB680ED92883A20EBA19CEC9AB0EC82ACEC9DB4D9
:2001A000EB939C204D4F5346455420EC8AA4EC9C84ECB99828EC98883A20324E37303030DF
:2001C0002F414F33343030202B2031306B29005B4C41444445525D20E29AA035EB8BA82026
:2001E000EBAFB8EC8BA4ED96893A20ECA084EC9B9020EC9EACED88ACEC9E85EC9D80202A2C
:200200002AEBB680ED928820EBAFB8EBB3B4EC9CA0EBA19C20EBAFB8EAB5ACED98842A2A5E
:20022000EC9DB4EB8BA400ECB48820EC89ACEAB3A02041542B52535420EBA78C20EB909877
:20024000ED9280EC9DB4ED959CEB8BA4005B4C41444445525D202020ECA780EAB888EC9DA0
:200260008020005B4C41444445525D202020E2869220556E6F20413220EBA5BC20455350C7
:2002800020EC9D982052535420EC979020EBACBCEBA6ACEAB3A0204553505F5253545F57CE
:2002A0004952454420EBA5BC203120EBA19C20EBB094EABF9420EB8BA4EC8B9C20EAB5ACD1
:2002C000EC9B8CEB9DBC005B4C41444445525D20E29AA034EB8BA820EBAFB8EC8BA4ED96C5
:2002E000893A20ED9598EB939CEC9BA8EC96B420EBA6ACEC858BEC84A0EC9DB420EBB0B071
:20030000EC84A0EB9098ECA78020EC958AEC9598EB8BA4284553505F5253545F574952454B
:20032000443D302900ECB48820EC89ACEAB3A02041542B5253542028EBAAA8EB938820ECCD
:20034000868CED9484ED8AB820EBA6ACEC858B29005B4C41444445525D2033EB8BA820ECF4
:20036000A1B0ECB9983A2000ECB48820EC89ACEAB3A02041542B435751415020EBA19C202B
:20038000EAB2B0ED95A9EC9D8420EBAA85EC8B9CECA081EC9CBCEBA19C20EB818AEC9D80F4
:2003A00020EB92A420EB8BA4EC8B9C20EBB699EB8A94EB8BA4005B4C41444445525D20327C
:2003C000EB8BA820ECA1B0ECB9983A2000EB8BA8005B4C41444445525D20E28691E2869177
:2003E00020EB8BA820EC8381EC8AB920E2869220005B4C41444445525D20E286912033EB8B
:200400008BA82841542B5253542920ECA781ED968920E2809420415420EAB384ECB8B5EC0E
:200420009DB420EC9EA0EAB2BCEC9CBCEBA9B420EC9584EB9E9820EB8BA8EC9D8020EC9D07
:2004400098EBAFB8EAB08020EC9786EB8BA400ED9A8C20EB8884ECA0812900EB8BA82800AF
:2004600020C2B720ED9884EC9EAC2000EC9786EC9D8C00ED9A8C20C2B720EAB2B0ED95A903
:20048000EC9CA0ECA78020007320C2B720EC97B0EC868D2000292043574A4150EC868CECDB
:2004A0009A94200043574A4150204641494C00415420EAB384ECB8B520EC9EA0EAB98000A1
:2004C00043574A415020EBACB4EC9D91EB8BB5005B4C41444445525D20EC8BA4ED8CA8280F
:2004E000005B4C41444445525D2031ECB48820EC9588EC979020EB93A4EC96B4EC98A8201F
:20050000ECA491EBB3B520EC8BA4ED8CA820EC8BA0ED98B820E2809420EC84B8ECA7802006
:20052000EC958AEB8A94EB8BA4005B434B53554D204E475D20005B42414420534C4F545D9C
:20054000207269643D0020E28692206F636375706965643D005B53494D5D20ED959C20EA53
:20056000B1B8EC9D8C3A20005B53494D5D20EBB094EABF8020EC8B9CEBAEAC20ECB9B8ECA9
:200580009DB420EC9786EB8BA420E2869220726573756C743D35005B424144204649454C1A
:2005A00044535D207269643D005B445550207269645D20005B4E45545D20E2988520455315
:2005C0005020EAB08020495020EBA5BC20EC9E83EC9788EB8BA420E2809420EBAAA8EB9329
:2005E0008820EBA6ACEC858BEC9CBCEBA19C20EBB3B8EB8BA42E20EB8884ECA08120EC823E
:20060000ACEAB1B42000ED9A8C20EC97B0EC868D20EC8BA4ED8CA820E2869220EC98A4EDAF
:200620009484EB9DBCEC9DB820ECA084ED99982E20EB82A1EC9D8020EC868CECBC93EBB670
:2006400080ED84B020EB8BABEB8A94EB8BA428434950434C4F534529005B4E45545D20EC47
:20066000A084EC86A120005B4E45545D20ECA084EC86A120EC8BA4ED8CA82000EB819400C5
:2006800020C2B72036EB8BA828EC9B8CECB998EB8F85292000EBAFB8EBB0B0EC84A020E2DE
:2006A000809420413220EBA5BC204553502052535420EC979020EBACBCEBA6ACEAB3A020C6
:2006C0004553505F5253545F57495245443D31005B424F4F545D20EC82ACEB8BA4EBA6AC15
:2006E0002034EB8BA82845535020ED9598EB939CEBA6ACEC858BEC84A0292000EC9B8CEC93
:20070000B998EB8F8520002A2AEBB88CEB9DBCEC9AB4EC9584EC9B8328ECA084EC9B90EB1F
:20072000B680ECA1B1292A2A2000EC99B8EBB680EBA6ACEC858B28EBB284ED8ABC2F4454CE
:2007400052292000ECA084EC9B90EC9DB8EAB08028504F52292000EBB688EBAA852028EBA4
:20076000B680ED8AB8EBA19CEB8D94EAB080204D4355535220EC9D8420ECA780EC9AB0EA9C
:20078000B3A020EB8498EC96B4EC9994EB8BA429005B424F4F545D20EBA6ACEC858B20ECFC
:2007A0009B90EC9DB83A20000A5B5041524B494E47204E4F44455D2070726F746F20763144
:2007C000202F20313020736C6F7473202F206465763D5031005B4C41444445525D2034EBE5
:2007E0008BA83A2045535020EBA6ACEC858B20ED95B4ECA09C20E2809420EBB680ED8C8558
:20080000EC9D8420EAB8B0EB8BA4EBA0B8EB8BA4EAB0802043574D4F444520EBB680ED8437
:20082000B020EB8BA4EC8B9C005B4E45545D2031302043575141502028EAB2B0ED95A92020
:20084000ED95B4ECA09C20E2809420EC82ACEB8BA4EBA6AC2032EB8BA8290041542B4357A0
:200860005141500D0A005B4E45545D20392043574C41502028ECA3BCEBB38020415020EB83
:20088000AAA9EBA19D20E2809420ECA784EB8BA8290041542B43574C41500D0A005B4E450C
:2008A000545D2038204357434F554E5452592028ECB184EB84902031322F313320EC9AB06D
:2008C000ED9A8C20EC8B9CEB8F8420E2809420ECA784EB8BA8290041542B4357434F554EB1
:2008E0005452595F4445463D302C224B52222C312C31330D0A005B4E45545D203720474DA3
:20090000522028ED8E8CEC9BA8EC96B420ED8C9020E2809420ECA784EB8BA8290041542B54
:20092000474D520D0A005B4E45545D203620434950434C4F53452028EB82A1EC9D8020ECE8
:20094000868CECBC9320EB8BABEAB8B0290041542B434950434C4F53450D0A005B4E455423
:200960005D20352043495053544152540041542B43495053544152543D22544350222C225B
:200980003139322E3136382E33352E3231222C393939310D0A005B4E45545D2034204349E7
:2009A000504D55583D300041542B4349504D55583D300D0A005B4E45545D20332043494682
:2009C00053522028495020EBA5BC20EC8BA4ECA09CEBA19C20EBB09BEC9598EB8A94EAB088
:2009E00080290041542B43494653520D0A005B4E45545D20322043574A41502028EC9D9118
:200A0000EB8BB5EAB98CECA78020ECB59CEB8C80203330ECB48820EAB8B0EB8BA4EBA6B09D
:200A2000EB8BA4290041542B43574A41503D22534B5F5769466947494741353044435F32DE
:200A40002E3447222C2232303131303530373936220D0A005B4E45545D20312043574D4FFF
:200A600044453D310041542B43574D4F44453D310D0A005B4E45545D203020525354004132
:200A8000542B5253540D0A00ED9A8C20EC8BA4ED8CA820E286922041542B52535420EBA1B9
:200AA0009C20ECA084ECB2B420ECB488EAB8B0ED999428EC82ACEB8BA4EBA6AC20EC8381BB
:200AC000EC8AB929005B4E45545D20434950434C4F534520005B4E45545D20434946535257
:200AE0002033ED9A8CEC9790EB8F8420495020EAB08020EC9786EB8BA420E2869220435775
:200B00004A415020EBB680ED84B020EB8BA4EC8B9C005B4E45545D2043494653522033EDD5
:200B20009A8C20EC868CECA78420E2809420EAB7B8EB9FACEB8298206275737920EAB1B042
:200B4000EBB680EC9880EB8BA42E20495020EC868CEC8BA4EBA19C20EC84B8ECA78020ECA7
:200B6000958AEB8A94EB8BA4005B4E45545D20495020EAB08020EC9786EB8BA420E2869244
:200B800020434950535441525420EBA5BC20EBB3B4EB82B4ECA78020EC958AEAB3A02043EE
:200BA000574A415020EBA19C20EB9098EB8F8CEC9584EAB084EB8BA400EB8BA829005B4C57
:200BC00041444445525D20E28693203330ECB48820EC97B0EC868D20EC98A8EB9DBCEC9D27
:200BE000B820E2809420EC82ACEB8BA4EBA6ACEBA5BC2030EB8BA8EC9CBCEBA19C20EB82E3
:200C0000B4EBA6B0EB8BA42028ECA781ECA08420005B54582D44524F505D20005B54585DEF
:200C20002000EBB094EC9DB4ED8AB8EBA19C20EC8AA4ED8AB8EBA6BC20EBB3B5EAB5AC2835
:200C4000EC849CEBB284EB8A9420EC9DB420ECA484EC9D8420EBB284EBA6B0EB8BA42900FB
:200C60005B54582D524553594E435D20ED9484EBA1ACED9484ED8AB820EB8693ECB9A820ED
:200C8000E2869220EB8D94EBAFB820005B54582D52454A4543545D2043495053454E442028
:200CA000EAB1B0EBB680284552524F522920E2809420EB8D94EBAFB8EBA5BC20EB84A3ECEF
:200CC000A78020EC958AEB8A94EB8BA4005B54582D425553595D2045535020EAB08020EB7E
:200CE000B094EC8198EB8BA428EAB1B0EBB6802920E2809420EC8BA4ED8CA8EBA19C20EC2E
:200D000084B8ECA78020EC958AEB8A94EB8BA42E20EB8BA4EC9D8C20ECA3BCEAB8B0EC9779
:200D20009020EB8BA4EC8B9C20EBB3B4EB82B8EB8BA4000D0A0041542B43495053454E4448
:200D40003D005B54582D574149545D20E29885E2988520543220ECB488EAB3BC20E2809415
:200D60002053454E44204F4B20EAB08020EB819DEB82B420EC958820EC98A8EB8BA420E25A
:200D8000869220EBA781ED81ACEBA5BC20EB8BA4EC8B9C20EC84B8EC9AB4EB8BA4005B540A
:200DA000582D574149545D20EC959E20ECA084EC86A1EC9D982053454E44204F4B20EBA5C5
:200DC000BC20EC9584ECA78120EBAABB20EBB4A4EB8BA420E2809420EC9DB4EBB28820EC8D
:200DE000A3BCEAB8B0EB8A9420EAB1B4EB8488EB9BB4EB8BA4005B54582D574149545D2099
:200E0000E2988520543120ECB488EAB3BC20E2809420EAB7B8EB9E98EB8F8420EAB384ECB2
:200E2000868D20EAB8B0EB8BA4EBA6B0EB8BA428EB9190EB93A4EAB8B0ECA78020EC958AD2
:200E4000EB8A94EB8BA429005B41434B515D20ECBA90EC8B9CEC9790EC849C20EBB080EBC0
:200E6000A0A4EB829820EBA78CEB93A420EC889820EC9786EB8BA420E2809420EBB284EB18
:200E8000A6B0EB8BA40020723D300020723D3100206475653D002061636B3D002074783D73
:200EA000005B534C4F545D206E3D005D20E2869220EBA781ED81ACEBA5BC20EB8BA4EC8BAC
:200EC0009C20EC84B8EC9AB4EB8BA400202F20455350EBA6ACEC858B2000202F2053454ED5
:200EE000444641494C2000202F2053454E444F4BEC8381ED959C20002920C2B720EB888438
:200F0000ECA0815BEAB1B4EB8488EB9C802000202F20EAB1B0EBB6802000202F20EBACB447
:200F2000EC9D91EB8BB520006D7320EB8F99EC958820ED959C20ECA484EB8F8420EBAABB50
:200F400020EB8298EAB094EB8BA420286275737920005B4E45545D20E2988520ECA095EC0E
:200F6000A78020EAB090ECA7803A2000206F6E6C696E653D0020736B69703D002070656E3A
:200F80006464726F703D00206F6B73747265616D3D0020636B73756D6E673D002073736F6E
:200FA00076663D0020736D6973733D00206F6F773D0020736C6F743D002061636B73746124
:200FC0006C653D002061636B64726F703D002061636B713D0020737475636B3D00206F6B44
:200FE000746F3D002073656E646661696C3D0020726573796E633D00206573707273743D3F
:20100000002064726F703D005B434E545D2075703D0073002075703D00206C696E65733DB2
:20102000002072783D00205B455350EBA6ACEC858BEC9CA0ECA780ECA4915D0020EC82ACDA
:20104000EB8BA4EBA6AC3D005B444941475D206F66666C696E6520737465703D00ED9A8C00
:201060002028EC849CEBB284EC9D982027EBB284EBA6B0ECA4842720EAB3BC20EBA79EEC41
:201080009584EC95BC20ED959CEB8BA42900204220C2B720ED9484EBA1ACED9484ED8AB8ED
:2010A00020EC9EACEB8F99EAB8B020005B52414D5D20ECB59CECA08020EC97ACEC9CA020BD
:2010C0000000000000240027002A0000000008000201000003040700000000000000002260
:2010E0002028005C780022005B4E45545D20EC86A1EC8BA020EC98A4EBA59820EC9D91EB34
:201100008BB528EBA19CEAB7B8EBA78C2C20ECB9B4EC9AB4ED84B0EB8A942073656E644CA9
:20112000696E6520EC9DB420EC84BCEB8BA4293A20005B4E45545D20E298852053454E4425
:20114000204641494C20E2809420ED8E98EC9DB4EBA19CEB939CEAB98CECA78020EC8DBCF4
:20116000EB8A94EB8DB020ECA084EC86A1EC9DB420EC8BA4ED8CA8ED9688EB8BA42E20EC03
:201180008BA4ED8CA8EBA19C20EC84BCEB8BA4005B4E45545D206C696E6B206973206E6F0B
:2011A000742076616C696420E2869220ECA689EC8B9C20EC98A4ED9484EB9DBCEC9DB82C25
:2011C00020EB82A1EC9D8020EC868CECBC9320EB8BABEAB8B028434950434C4F5345290049
:2011E0005B4E45545D206F6E6C696E652028434F4E4E45435429202B20ECBA90EC8B9C205C
:20120000EBB984EC9B80005B4E45545D206F6E6C696E652028414C524541445920434F4E11
:201220004E454354454420C2B720ECB488EAB8B020EAB2BDED95A929005B4E45545D2041FB
:201240004C524541445920434F4E4E454354454420E2809420EB82A1EC9D8020EC868CECC3
:20126000BC9320EC9D98EC8BAC20ECA491EC9DB4EBAF80EBA19C20EBAFBFECA78020EC95CE
:201280008AEB8A94EB8BA420E2869220434950434C4F5345005B4E45545D206E6F20697080
:2012A00020E2809420495020EAB08020EC9786EB8BA42E20434950535441525420EC9EACD4
:2012C000EC8B9CEB8F84EBA5BC20ECA091EAB3A02043574A415020EBA19C20EB9098EB8FAD
:2012E0008CEC9584EAB084EB8BA4005B4E45545D202020322E3447487A20EC9DB8EAB0800E
:20130000202F20ECA084ED8C8CEAB08020EB8BBFEB8A94EAB080202F205353494420ECB257
:20132000A0EC9E90EAB08020EBA79EEB8A94EAB080EBA5BC20EBB490EB9DBC2E005B4E456B
:20134000545D20EC84A4ECA095ED959C205353494420EAB08020EBAAA9EBA19DEC97902022
:201360002A2AEC9786EB8BA42A2A20E2869220EBB984EBB28820EBACB8ECA09CEAB080204A
:20138000EC9584EB8B88EB8BA42E005B4E45545D20202032EC889CEC9C843A20EBB984EB48
:2013A000B080EBB288ED98B820202033EC889CEC9C843A20504D46283830322E31317729BD
:2013C0002F5750413320ECA084ED9998EBAAA8EB939C20EB8184EAB8B0005B4E45545D20FD
:2013E000202031EC889CEC9C843A20EC9C8420ECA484EC9D98202A2AEBA788ECA780EBA772
:201400008920EC88ABEC9E9028ECB184EB8490292A2A20EBA5BC20EBB490EB9DBC2E2031A7
:20142000322F313320EC9DB4EBA9B420EAB3B5EC9CA0EAB8B0EBA5BC20312F362F313120A3
:20144000EBA19C20EBB094EABF94EB9DBC005B4E45545D20EC84A4ECA095ED959C205353BC
:20146000494420EAB08020EBAAA9EBA19DEC9790202A2AEC9E88EB8BA42A2A20E2869220DD
:20148000415020EB8A9420EBB3B4EC9DB8EB8BA42E20EAB2B0ED95A9EBA78C20EAB1B0EB8C
:2014A000B680EB909CEB8BA42E005B4E45545D20E29480E2948020415020EC8AA4ECBA94C7
:2014C00020ED8C90ECA09520E29480E29480E29480E29480E29480E29480E29480E29480F2
:2014E000E29480E29480E29480E29480E29480E29480E29480E29480E29480E29480E294DA
:2015000080E29480E29480E29480E29480E29480E29480E29480005B4E45545D202020E2B0
:20152000869220EAB3B5EC9CA0EAB8B020ECB184EB8490EC9D8420312F362F313120EBA167
:201540009C20EBB094EABEB8EB8A9420EAB283EC9DB420ED9995ECA09520ED95B4EBB295D7
:20156000EC9DB4EB8BA4005B4E45545D204357434F554E54525920EBAFB8ECA780EC9B90EB
:20158000284552524F522920E2809420EC9DB420ED8E8CEC9BA8EC96B4EBA19CEB8A942020
:2015A000ECB184EB84902031322F313320EC9D8420ECBD94EB939CEBA19C20EBAABB20ECAD
:2015C00097B0EB8BA42E005B4E45545D20E29885204357434F554E54525920EAB08020EB8B
:2015E000A8B9EC9788EB8BA420E2809420EAB79CECA09CEB8F84EBA994EC9DB820317E3163
:20160000332E20ECB184EB849020313220EAB2B0ED95A9EC9DB420EC97B4EBA0B8EC9D842B
:2016200020EC889820EC9E88EB8BA4005B4E45545D204349504D55583D3020ECA081EC9A7D
:20164000A9EB90A820E28692204349505354415254005B4E45545D20E2988520495020ED96
:201660009995EBB3B43A20005B4C41444445525D2032EB8BA83A20EAB2B0ED95A920ED9549
:20168000B4ECA09C20EC9984EBA38C20E2869220EAB9A8EB8197ED959C20EC8381ED839C69
:2016A000EC9790EC849C2043574A415020EC9EACEC8B9CEB8F84005B4E45545D2043574A6C
:2016C0004150204F4B20E2809420EAB2B0ED95A9EB9090EB8BA42E20495020EBA5BC20EC8E
:2016E0008BA4ECA09CEBA19C20EBB09BEC9598EB8A94ECA78020434946535220EBA19C20E1
:20170000ED9995EC9DB8ED959CEB8BA400ED9A8C2028EAB5ACED989520ED8E8CEC9BA8EC33
:2017200096B4EB8A9420EC82ACEC9CA0EBA5BC20ECA3BCECA78020EC958AEB8A94EB8BA4DC
:2017400029005B4E45545D20E298852043574A415020EC8BA4ED8CA82000ECA091EC868D75
:2017600020EC8BA4ED8CA800EAB7B8205353494420EC9D9820415020EBA5BC20EBAABB2073
:20178000ECB0BEEC9598EB8BA400EBB984EBB080EBB288ED98B8EAB08020ED8B80EBA0B8A2
:2017A000EB8BA400ECA091EC868D20EC8B9CEAB084ECB488EAB3BC005B4E45545D20E298E8
:2017C000852043574A415020EC8BA4ED8CA820EC82ACEC9CA03A20005B4E45545D20627541
:2017E000737920E280942045535020EAB08020EC959E20EBAA85EBA0B9EC9D8420ECB29885
:20180000EBA6AC20ECA491EC9DB4EB8BA42E20ECA084ECA784ED9598ECA78020EC958AEB3B
:201820008A94EB8BA4005B4E45545D205749464920444953434F4E4E45435420E280942042
:20184000495020EBA5BC20EC9E83EC9788EB8BA4005B4E45545D205749464920474F542019
:20186000495020E2809420495020ED9995EBB3B42E2039ECB48820EB8C80EAB8B0ECB0BD02
:20188000EC9D8420EB819DEAB98CECA78020EAB8B0EB8BA4EBA6ACECA78020EC958AEAB32C
:2018A000A020EBB094EBA19C20EB8BA4EC9D8C20EB8BA8EAB384EBA19C006D73005B534C61
:2018C0004F542D4F4F575D202B005B41545D20000000000023002600290000000000250097
:2018E00028002B000404040404040404020202020202030303030303010204081020408058
:20190000010204081020010204081020A21C692911241FBECFEFD8E0DEBFCDBF84B78093FA
:20192000910514BE0FB6F894A89580916000886180936000109260000FBE12E0A0E0B1E012
:20194000EAEFFBE502C005900D92A237B107D9F725E0A2E7B2E001C01D92A139B207E1F77C
:201960001CE0C7E8DCE004C02197FE010E94C02AC638D107C9F70E944D1D0C94F02D0C94FA
:201980000000833081F028F4813099F08230A9F008958730A9F08830C9F08430B1F48091BA
:2019A00080008F7D03C0809180008F7780938000089584B58F7784BD089584B58F7DFBCFE5
:2019C0008091B0008F778093B00008958091B0008F7DF9CFCF93DF9390E0FC01E850F74E8D
:2019E00024918C51974EFC0184918823C9F090E0880F991FFC01EF53FF4EA591B491FC0137
:201A0000E652F74EC591D49161110DC09FB7F8948C91209582238C938881282328839FBF7A
:201A2000DF91CF910895623051F49FB7F8943C91822F809583238C93E8812E2BEFCF8FB762
:201A4000F894EC912E2B2C938FBFEACF2FB7F894609146047091470480914804909149049A
:201A60002FBF0895EF92FF920F931F93CF93DF938C017B01D0E0C0E0F701EC0FFD1F649144
:201A8000662361F0D801ED91FC910190F081E02DC8010995892B11F02196EECFCE01DF91AA
:201AA000CF911F910F91FF90EF900895AF92BF92CF92DF92EF92FF920F931F93CF93DF932D
:201AC0006C017B018B01040F151FEB015E01AE18BF08C017D10759F06991D601ED91FC919E
:201AE0000190F081E02DC6010995892B79F7C501DF91CF911F910F91FF90EF90DF90CF908C
:201B0000BF90AF900895FC01538D448D252F30E0842F90E0821B930B541710F0CF960895BD
:201B200001970895FC01918D828D981761F0A28DAE0FBF2FB11D5D968C91928D9F5F9F735F
:201B4000928F90E008958FEF9FEF0895FC01918D828D981731F0828DE80FF11D858D90E01E
:201B600008958FEF9FEF0895FC01918D228D892F90E0805C9F4F821B91098F7399270895CD
:201B800085ED94E00E94B40D21E0892B09F420E0822F089580E090E0892B29F00E94C00DF0
:201BA00081110C9400000895FC01A48DA80FB92FB11DA35ABF4F2C91848D90E001968F73D9
:201BC0009927848FA689B7892C93A089B1898C91837080648C93938D848D981306C0028862
:201BE000F389E02D80818F7D80830895EF92FF920F931F93CF93DF93EC0181E0888F9B8DE8
:201C00008C8D98131AC0E889F989808185FF15C09FB7F894EE89FF896083E889F989808121
:201C20008370806480839FBF81E090E0DF91CF911F910F91FF90EF900895F62E0B8D10E024
:201C40000F5F1F4F0F731127E02E8C8D8E110CC00FB607FCFACFE889F989808185FFF5CF8F
:201C6000CE010E94D40DF1CFEB8DEC0FFD2FF11DE35AFF4FF0829FB7F8940B8FEA89FB8935
:201C800080818062CFCF682F85ED94E00C94F60DCF93DF93EC01888D8823B9F0AA89BB8902
:201CA000E889F9898C9185FD03C0808186FD0DC00FB607FCF7CF8C9185FFF2CF808185FF09
:201CC000EDCFCE010E94D40DE9CFDF91CF91089520911E0330911F032817390771F4909117
:201CE0001C0380911D03981741F0E0911C03F0E0E452FD4F808190E008958FEF9FEF08951B
:201D00000895EF92FF920F931F93CF93DF93DC015C96ED90FC905D97E114F10479F481E068
:201D200090E013969C938E93129790E080E0DF91CF911F910F91FF90EF9008955196ED9191
:201D4000FC91529750968C915097982F90950FB75E962C915E97122F127021FD6095F89469
:201D60002081112319F1282B2083E7012197F1F728E0462F50E0308160FF1AC0382B308359
:201D8000E7012197F1F7BA0175956795215089F7112381F08081892380830FBF5C968D91D6
:201DA0009C910197F1F781E090E0C1CF2923DCCF3923E5CF9081892BEFCF20911E033091F8
:201DC0001F032817390761F480911D0320911C0390E0805C9F4F821B91098F73992708953C
:201DE00090E080E0089520911E0330911F0328173907B9F490911C0380911D03981789F0FC
:201E0000E0911C03F0E0E452FD4F808120911C0330E02F5F3F4F2F73332720931C0390E0A5
:201E200008958FEF9FEF089590E080E00895282FDB01FC0191918D913FE9390F3A3108F4A8
:201E400090523FE9380F3A3108F48052981306C08E2F821B841770F381E0089580E0089534
:201E6000AC01FB0130E020E0CA01022E02C0969587950A94E2F790E380FD91E391932F5F18
:201E80003F4F2A30310581F7FB01128608951092C5041092B1041092B0041092AF0410926C
:201EA0001F041092FC0380912604909127048F3F980729F00196909327048093260481E0CE
:201EC0008093BF0486E08093BE040E94260D6093BA047093BB048093BC049093BD04109250
:201EE0000901109208010895CF93DF93382FDC01E0E02A2F231B261718F42D91E227F9CF49
:201F0000DC01A60FB11DCE2FD0E084E0D595C7958A95E1F7C65BDE4F88818C93EF70F0E0EE
:201F2000E65BFE4F808111968C93119712961C9282E0860FDF91CF910895CF93DF93EB012A
:201F40008093BE040E94260D6093BA047093BB048093BC049093BD04D0930901C0930801E4
:201F6000DF91CF910895E0914B04AE2FB0E035E0E39FF0011124EC56FC4F91838083628381
:201F8000438324831196AF70BB27A0934B0480914A04803118F48F5F80934A040895BC01E5
:201FA00040914A0424E933E090E0491771F02B5F3F4FF90135970190F081E02DE617F707C9
:201FC00011F4892F08959F5FF0CF8FEF089590910A04992391F021E030E002C0220F331F0D
:201FE0008A95E2F780910804909109042823392381E0232B19F080E0089581E00895FB0148
:2020000001900020E9F73197AF01461B570BDC01ED91FC910280F381E02D09946FE771E0C5
:2020200085ED94E00C94FF0FCF93DF93BC0185ED94E00E94320DEC010E940E108C0F9D1FB0
:20204000DF91CF910895EF92FF920F931F93CF93DF93EC0140911F042091FC0330E010E048
:2020600000E05CE0E52EF12C0417C8F4C901800F911FB7010E94AC2AFC01EE0FFF1FEC51AF
:20208000FC4F808191810F5F1F4F8C179D0761F7DF91CF911F910F91FF90EF9008954C3020
:2020A000D9F4C90101966CE070E00E94AC2A8093FC038BE080931F0480911D0490911E04B6
:2020C0008F3F980729F0019690931E0480931D0488E690E00E94141020911F048091FC03E2
:2020E000820F9927991F6CE070E00E94AC2AFC01EE0FFF1FEC51FC4FD183C0832F5F20934B
:202100001F04C6CF8F929F92AF92BF92EF92FF920F931F93CF93DF93CDB7DEB7A1970FB6D3
:20212000F894DEBF0FBECDBF7C01FA01CB0119A2223008F42AE08E010F5D1F4F822E912CF0
:20214000B12CA12CBF01A50194010E945B2AF901CA016A300CF5605DD8016E938D01232BE0
:20216000242B252B79F790E080E0109721F0BD01C7010E94FF0FA1960FB6F894DEBF0FBEA0
:20218000CDBFDF91CF911F910F91FF90EF90BF90AF909F908F900895695CDECF2AE00C94F0
:2021A0008210482F50E070E060E02AE085ED94E00C9482108091B1048F3F19F08F5F809396
:2021C000B10467E676E085ED94E00E94320D8091B1040E94D1108FE20E94430E83E00E942E
:2021E000D1100E940E108091B104833080F069E576E085ED94E00E94320D8091B1040E9482
:20220000D11086E096E00E9414100C94470F0895AB0170E060E02AE00C948210CF93DF935C
:20222000BC0185ED94E00E940811EC010E940E108C0F9D1FDF91CF91089581E08093C20495
:2022400080912404909125048F3F980729F00196909325048093240464EB75E085ED94E0CD
:202260000E94320D80912404909125040C940E11CF92DF92EF92FF92CF93DF930E94260DAE
:202280006B017C01D0E0C0E00E94260D6C197D098E099F09683771058105910578F482E7E0
:2022A00095E00E94DD0E892B79F382E795E00E94F30ECF3FDC0799F32196F1CF1092D6020D
:2022C0001092D5021092860361E071E085ED94E00E94320DBE0185ED94E00E94081189ED2B
:2022E00090E0DF91CF91FF90EF90DF90CF900C9414108F929F92AF92BF92CF92DF92EF92C7
:20230000FF92CF93DF93C82F0E94260D6B017C018091DB02882319F18091D7029091D8021B
:20232000A091D902B091DA02A7019601281B390B4A0B5B0BDA01C901883E9340A105B10559
:2023400070F481EE94E0DF91CF91FF90EF90DF90CF90BF90AF909F908F900C94141081E089
:202360008093DB02C092D702D092D802E092D902F092DA0260ED74E085ED94E00E94320DF3
:2023800060EC74E0C13031F06FEA74E0C23011F064EA74E085ED94E00E94320D65E974E0E0
:2023A00085ED94E00E94320D8091200390912103A0912203B0912303A7019601281B390B5A
:2023C0004A0B5B0BCA01B90128EE822E23E0922EA12CB12CA50194010E945B2ABA01A901C3
:2023E00085ED94E00E94CE1068E874E085ED94E00E94320D8091CB040E94D11063E774E00B
:2024000085ED94E00E94320D8091C6049091C704A091C804B091C9040097A105B10509F433
:202420005BC0A7019601281B390B4A0B5B0BCA01B901A50194010E945B2ABA01A90185ED42
:2024400094E00E94CE1083E70E94430E60E674E085ED94E00E94320D809136040E94D110FC
:202460006BE574E085ED94E00E94320D809135040E94D1108FE494E00E9414101092C6040B
:202480001092C7041092C8041092C90480913604C23049F5833038F583E080933604109245
:2024A000350481EF93E00E9414108091CB048230F0F18091C00481113AC064EF71E087E05B
:2024C000DF91CF91FF90EF90DF90CF90BF90AF909F908F900C949D0F6CE674E085ED94E09C
:2024E0000E94320DB3CF909135049E3F18F49F5F90933504E82FF0E0ED5DFE4F208190919C
:202500003504921790F2853080F68F5F809336041092350461ED73E085ED94E00E94320DAE
:20252000809136040E94D1108DEC93E0BCCF80913604E82FF0E0EE0FFF1FE95EFE4FC08134
:20254000D181823009F445C0F0F48823E1F18130C1F18FEC91E00E9414108AE791E00E947B
:20256000141068E571E085ED94E00E94320DCE0168EE73E00E94982A85ED94E00E94081155
:202580008CE291E04FC08330E1F1843011F787EC92E00E94141083E692E00E9414106DE46F
:2025A00072E085ED94E00E94320DCE0168EE73E00E94982A85ED94E00E94081187E292E0AA
:2025C00031C00E9438111092C3046CE271E083E077CF66EB73E085ED94E00E94320DCE0134
:2025E00068EE73E00E94982A85ED94E00E94081188E693E00E9414101092CC04BE018AE0EB
:202600005FCF61E573E085ED94E00E94320DCE0168EE73E00E94982A85ED94E00E940811AF
:2026200085E293E00E9414101092CC04BE0180E047CFCF93DF93D0E0C0E0009731F0BC01BA
:2026400085ED94E00E94FF0FEC010E940E108C0F9D1FDF91CF9108956F927F928F929F920F
:20266000AF92BF92CF92DF92EF92FF920F931F93CF93DF93CDB7DEB72E970FB6F894DEBFF0
:202680000FBECDBFDC010D900020E9F79D0121503109281B390B122F4FEF420F4F3308F04D
:2026A00062C0FC014081423539F0433429F0443519F04D3409F057C0DC01FC0170E060E08D
:2026C0004FEF5FEF01910C3209F4AB016F5F7F4F6117C0F38C014F3F540781F13327241BAD
:2026E000350B2330310551F5FC01E40FF51F818120ED280F2A3030F09FEB980F9630F0F42C
:2027000029EC280F928180ED890F8A3030F08FEB890F863098F489EC890F4F5FF80190E003
:202720003E2F301B341718F431919327F9CF40E1249F90011124822B891751F180911104E7
:20274000909112048F3F980729F0019690931204809311046AE275E085ED94E00E94320D5C
:20276000C8010E9419132E960FB6F894DEBF0FBECDBFDF91CF911F910F91FF90EF90DF901A
:20278000CF90BF90AF909F908F907F906F900895CE0101969C0122593540409106015091A7
:2027A00007012417350720F430930701209306011A830983AA24A3942D91222309F413C2FE
:2027C0002C32D1F7FD0131971082E6E0EA1558F2EA2DF0E0EE0FFF1FE80FF91FB183A08304
:2027E000A394EACFF4E5BF1641F02DE4A3E09A2EB21629F0E4E09E2E02C0F6E09F2E42E0B6
:202800004A1508F0B0CFEB81FC81309709F4ABCF8081882309F4A7CFC12CD12C7601119199
:20282000112301F180ED810F8A3008F09CCFAAE0B0E0A70196010E94482AC12E110FDD08F7
:20284000A0E3CA1AD1080D2C000CEE08FF08C60ED71EE81EF91EC114D104B1E0EB06F104EF
:20286000F0F281CF8601C6010E94CF0F882E87FD15C069EA75E085ED94E00E94320DC60113
:202880000E940E11282D45E02402F0011124EC56FC4F808191810E94231065CF9A1489F0E1
:2028A00067E975E085ED94E00E94320DC6010E940E1123E04FE36FE3C6010E94B30FC601AB
:2028C000EACF84E5B8128AC0ED81FE818181811152C12081213469F0243491F410920A0452
:2028E000109209041092080410928A031092890303C081E080930A044FE33FE320E06CC059
:20290000233519F0283509F036C1EF81F885E984FA84DF010D900020E9F7CD0103978E17A7
:202920009F0709F028C1308181815FEC580F553008F021C1313409F45FC1323409F01BC18E
:2029400054ED580F233561F4F70180818053823008F011C1818181110EC131E4553008F0E5
:2029600032E4852F65E00E948C2A41E3490F80910A04882381F181E090E002C0880F991F56
:202980005A95E2F76091080470910904E0918903F0918A032335B1F4D7012C91682B792B90
:2029A0007093090460930804203339F08E2B9F2B90938A0380938903A1CF809590958E235F
:2029C0009F23F6CF80959095682379237093090460930804F4CF24E0632FA8C0BDE4BB12D1
:2029E000AAC0A0900404B09005046090870370908803D12CC12C88248394912CFC2C8C2D9C
:202A00000E94E70F882309F446C0C4010C2C02C0880F991F0A94E2F79C012A213B21232B59
:202A2000D1F19C0126213721232BA9F5682A792A7092880360928703F4E082E4D82EFF151A
:202A400010F031E4D32E8F2D65E00E948C2A21E3E22EE90E65E575E085ED94E00E94320D96
:202A60008D2D0E94430E8E2D0E94430E66E475E085ED94E00E94320D80918703909188034E
:202A800002C096958795FA94E2F7817099270E940E1120E049C0EFEFCE1ADE0AFAE0CF16DE
:202AA000D10409F0ABCFF12CE12C8E2D0E94E70F8111F394E3942AE0E212F7CFFF2059F194
:202AC0000E94D1292F2D30E050E040E00E94292AE62EF12C8F2D0E94E70F8823C1F08FEF4A
:202AE0008E0DE11013C021E030E00F2C02C0220F331F0A94E2F7809187039091880382277F
:202B00009327909388038093870396CFE82EF3944AE0F412DFCF88E695E00E9414104FE3F5
:202B2000E42E5FE3D52E25E04E2D6D2DC8010E94B30FC801B0CEED81FE81DF010D90002026
:202B4000E9F7CD0103978E179F0761F481812FEC280F253038F43081313489F024ED280FE1
:202B6000323469F066E375E085ED94E00E94320DC8010E940E114FE33FE323E02DCF822FA3
:202B800065E00E948C2A41E3490F81E090E002C0880F991F2A95E2F7B2E5BB1217C0609176
:202BA0000604709107046823792321E0672B09F013CF6091040470910504FC01E623F72347
:202BC000862B972BEF2B51F022E006CF809590956091040470910504862397239093050484
:202BE000809304048BCEE981FA81B080E2E5BE12F9CD75E0972E03CE233509F0B2CEA4CEC1
:202C0000BF92CF92DF92EF92FF920F931F93CF93DF938091D1049091D204A091D304B09131
:202C2000D4040196A11DB11D8093D1049093D204A093D304B093D4046AEC78E185ED94E0FE
:202C40000E94320D0CE414E0F80101900020E9F78F010D541440B02E66EE70E185ED94E077
:202C60000E94320D9CE4E92E94E0F92E6701D0E0DB1528F5F601C1916F0180EE8C0F8F3596
:202C800028F48C2F0E94430EDF5FF2CF63EE70E185ED94E00E94320DEC2FF0E084E0F59529
:202CA000E7958A95E1F7E65BFE4F80810E94430ECF70EC2FF0E0E65BFE4F8081E3CF6FED58
:202CC00070E185ED94E00E94320D802F0E94D11089E20E94430E0E940E1062E871E08CE481
:202CE00094E00E94F12AEC01892BE1F1C090CF04D090D004F12CE12CF8E5CF16F2E0DF0636
:202D0000E104F104E0F48091CD049091CE048F3F980729F001969093CE048093CD046DEBE2
:202D200078E185ED94E00E94320DB701A60185ED94E00E94CE108AEB98E10E9414106AE3AD
:202D400070E0CE010E94CF2A0097D9F10196DF91CF911F910F91FF90EF90DF90CF90BF9076
:202D60000C942C1344E050E068E871E08CE494E00E94E32A892B09F04DC06DE871E08CE41C
:202D800094E00E94F12A892B31F181E08093CC041092CB041092CA040E94260D6093C60475
:202DA0007093C7048093C8049093C90481E598E10E9414108091C50468EC70E0882309F4AB
:202DC000E3C0DF91CF911F910F91FF90EF90DF90CF90BF90089564E971E08CE494E00E9444
:202DE000F12A892B71F31092CC0486E298E10E9414108091C5048111E4CF1092CA04DF9188
:202E0000CF911F910F91FF90EF90DF90CF90BF900C9479118091C5048111C1C1C0910A0163
:202E2000CB3008F0BCC16FE971E08CE494E00E94F12A892BF1F088ED97E10E94141080917F
:202E40000A01833081F491E09093C4046CED75E0DF91CF911F910F91FF90EF90DF90CF9039
:202E6000BF900C949D0F9CEF980F923008F0A9CFEDCFC23009F08AC047E050E064EA71E06C
:202E80008CE494E00E94E32A892BA1F568EB77E185ED94E00E94320D80915304823321F1B4
:202EA0007CF48133A1F08CE494E0DF91CF911F910F91FF90EF90DF90CF90BF900C94191362
:202EC0008333A9F0843379F78AE597E102C084EA97E1DF91CF911F910F91FF90EF90DF9050
:202EE000CF90BF900C9414108AE897E1F2CF88E697E1EFCF6AE272E08CE494E00E94F12AD2
:202F0000892B41F46CEA71E08CE494E00E94F12A892BD9F08091CB048A3F18F48F5F80934D
:202F2000CB041092CC041092CA0462E477E185ED94E00E94320D8091CB040E94D1108DE0AB
:202F400097E10E94141080E05ACF62E272E08CE494E00E94DA2A892B09F0A4C287EB96E18E
:202F60000E9414101092CB041092C3041092CA040E94260D6093C6047093C7048093C80402
:202F80009093C9046CE271E083E062CFCA3009F562E272E08CE494E00E94DA2A892B89F0C9
:202FA0006CEA71E08CE494E00E94F12A892B49F462EB71E08CE494E00E94F12A892B09F4E8
:202FC00071C288E696E10E94141064EF71E082E03FCFC33009F066C243E050E068EB71E0F4
:202FE0008CE494E00E94E32A892B09F45BC28CE494E04AE001C0CD01DC012D91222309F4F6
:2030000043C220532A30B8F734E08C34930731F0FC013197208120532A3068F3FC0130E005
:2030200090E020E0819150ED580F5A3030F4249F800D112420ED280FF5CF911101C0322F6B
:203040008E3211F49F5FEDCF9330A9F6332399F281E08093CC041092C3041092C2041092F7
:20306000C4048091C6049091C704A091C804B091C904892B8A2B8B2B51F40E94260D60938A
:20308000C6047093C7048093C8049093C90462E576E185ED94E00E94320D8CE494E00E94DE
:2030A000191368EC70E084E0D3CE883069F562E272E08CE494E00E94DA2A892BB1F06CEA5A
:2030C00071E08CE494E00E94F12A892BB1F463EE71E08CE494E00E94F12A892B09F45FC092
:2030E0001092CC0485E992E14EC087EC95E10E9414106CE271E089E0ABCE87E695E10E94BA
:20310000141087E195E1F3CF893009F747E050E066EC71E08CE494E00E94E32A892B69F494
:203120006EEC71E08CE494E00E94F12A892B09F448CE81E08093C10444CE62E272E08CE42B
:2031400094E00E94DA2A892B49F06CEA71E08CE494E00E94F12A892B09F4B9CF81E0809373
:20316000C0048AEA94E10E9414108091C104882379F08EE494E10E9414108AED93E10E94B8
:2031800014108BE893E10E94141068EE73E01FCF8DE393E10E9414108BEE92E1F4CF69EE17
:2031A00071E08CE494E00E94F12A892B09F444C067E971E08CE494E00E94F12A892BE1F1A0
:2031C0008091BF048823B1F089E392E10E94141086E08093BE040E94260D6093BA04709366
:2031E000BB048093BC049093BD041092090110920801E7CD81E08093C5040E94260D609349
:20320000B6047093B7048093B8049093B9040E94260D6093B2047093B3048093B404909361
:20322000B5041092B1041092B0041092AF041092AE0487E092E14DCEC701F7012081FFEF3B
:20324000EF1AFF0A2032C1F32930B1F32053253028F4FC0121812C3209F40296FC01019055
:203260000020E9F73197E81BF90B2E2FE80FF92FF11D222309F45CC03291303219F03B7FAF
:20328000393011F42150F5CF47E067E971E0273031F0263009F04CC046E06FEE71E00E947A
:2032A000170F882309F444C0C1E0C093C5040E94260D6093B6047093B7048093B80490934D
:2032C000B9040E94260D6093B2047093B3048093B4049093B5041092B1041092B004109203
:2032E000AF041092BF041092AE041092CB041092C304C093CC048091C6049091C704A0916D
:20330000C804B091C904892B8A2B8B2B51F40E94260D6093C6047093C7048093C80490930D
:20332000C90410924B0410924A0480EE91E1D1CD66EF71E08CE494E00E94F12A892BB9F4B9
:203340006DEF71E08CE494E00E94F12A892B79F464E072E08CE494E00E94F12A892B39F4E6
:203360008091C504811129C08CE494E0F0CC1092C5041092B1041092B0041092AF04109249
:20338000BF041092AE0410924B0410924A0483E08093BE040E94260D6093BA047093BB04B5
:2033A0008093BC049093BD048CE291E090930901809308011092C30404CD6BE072E08CE4E7
:2033C00094E00E94F12A892B79F080E991E10E941410DF91CF911F910F91FF90EF90DF9061
:2033E000CF90BF900C94470F47E050E06DE172E08CE494E00E94E32A892B29F41092B00478
:203400001092AF04DECC49E050E065E272E08CE494E00E94E32A892BF9F41092B00410928F
:20342000AF048091AC049091AD048F3F980729F001969093AD048093AC0482E391E10E9419
:203440001410DF91CF911F910F91FF90EF90DF90CF90BF900C94DA106CEA71E08CE494E0E8
:203460000E94F12A892B49F46FE971E08CE494E00E94F12A892B09F477CF68EE70E185ED44
:2034800094E00E94320D0FCD6FE272E08CE494E00E94DA2A892B31F48091C204811102C0CA
:2034A0000E941D1180910A01843009F0FECD62E272E08CE494E00E94DA2A892B49F06CEB44
:2034C00071E08CE494E00E94F12A892B09F4FFCD8CE296E10E94141068EC70E085E0B8CC45
:2034E000CF93DF93D82F8091300490913104A0913204B09133040196A11DB11D809330040D
:2035000090933104A0933204B0933304DA3009F060C08091D5028823A1F066EC70E085ED15
:2035200094E00E94320D80E60E94D11088EA90E00E9414101092D6021092D502DF91CF91E2
:2035400008954091D6024423C9F350E0FA01EB58FD4F10821092D60280918F03882329F1D4
:2035600080918603811114C04F5F5F4F65E772E086E293E00E94C62A8091730290917402C7
:20358000909325038093240381E080938603D6CF80910D0490910E048F3F980779F2019640
:2035A00090930E0480930D04C9CF4F5F5F4F65E772E08CE494E00E94C62A80917302909103
:2035C00074029093D0048093CF04DF91CF910C9400168091B004882389F180917202E82F8C
:2035E000F0E0E15FFE4F90819D1323C08F5F873019F08093720212C0109272021092B00457
:203600001092AF0480910F04909110048F3F980729F001969093100480930F04DD3009F478
:203620008DCFC091D602CF3560F081E08093D50285CF81E0D335E9F280E0DBCF10927202AE
:20364000EDCFC1110CC00E94260D2091280430912904621B730B709374026093730281E033
:203660008C0F8093D602EC2FF0E0EB58FD4FD08365CF82E795E00E94DD0E892B39F082E712
:2036800095E00E94F30E0E94701AF3CF8091900580FF0FC08E7F8093900580911304909132
:2036A00014048F3F980729F00196909314048093130408951F920F920FB60F9211242F9324
:2036C0003F938F939F93AF93BF938091460490914704A0914804B09149043091450423E051
:2036E000230F2D3758F50196A11DB11D209345048093460490934704A0934804B0934904EE
:203700008091410490914204A0914304B09144040196A11DB11D8093410490934204A093D4
:203720004304B0934404BF91AF919F918F913F912F910F900FBE0F901F90189526E8230FA0
:203740000296A11DB11DD2CF1F920F920FB60F9211242F933F934F935F936F937F938F9319
:203760009F93AF93BF93EF93FF9385ED94E00E94D40DFF91EF91BF91AF919F918F917F9106
:203780006F915F914F913F912F910F900FBE0F901F9018951F920F920FB60F9211242F93B3
:2037A0008F939F93EF93FF93E091E504F091E6048081E091EB04F091EC0482FD1BC090819F
:2037C0008091EE048F5F8F732091EF04821741F0E091EE04F0E0EB52FB4F958F8093EE04A5
:2037E000FF91EF919F918F912F910F900FBE0F901F9018958081F4CF1F920F920FB60F92C6
:2038000011242F933F934F935F936F937F938F939F93AF93BF93EF93FF93E0911E03F091E8
:203820001F03309749F0A685B7858585968D91FF14C09C918923A1F4FF91EF91BF91AF9160
:203840009F918F917F916F915F914F913F912F910F900FBE0F901F9018959C91892361F710
:20386000A389B4899C918589809589238C93868997890197F1F7608D718DA685B7855585E9
:2038800038E020E0CB010197F1F7822F90E095958795282F4C91452309F02068315091F737
:2038A000868D81FD209580911D0390E001968F73992730911C03381799F0A0911D03B0E02F
:2038C000A452BD4F2C9380931D03828D938D0197F1F7A389B4898C919589892B8C93ACCF53
:2038E000868D8160868FF1CF1F93CF93DF93282F30E0F901E553FF4E8491F901E850F74E07
:20390000D491F901EC51F74EC491CC23A9F0162F81110E94C10CEC2FF0E0EE0FFF1FE65265
:20392000F74EA591B4918FB7F894EC91111108C0D095DE23DC938FBFDF91CF911F9108954E
:20394000DE2BF8CF1092D8041092D70488EE93E0A0E0B0E08093D9049093DA04A093DB04A0
:20396000B093DC042FE531E03093D6042093D50425EC30E03093E2042093E10424EC30E054
:203980003093E4042093E30420EC30E03093E6042093E50421EC30E03093E8042093E70413
:2039A00022EC30E03093EA042093E90426EC30E03093EC042093EB041092EE041092EF04F8
:2039C0001092F0041092F10410927505109274058093760590937705A0937805B0937905E5
:2039E00081E791E09093730580937205109289051092880510928B0510928A0510928D05D3
:203A000010928C0510928F0510928E05609190056E7F6D7F609390056695617081E0682765
:203A200087E00E94741C61E087E00E94EA0CEFEFF8E1E491E0938205EBEEF8E1E491F0E090
:203A4000EE0FFF1FE652F74E85919491909384058093830560E088E00E94EA0C8091900566
:203A600081FD04C061E088E00E94741C88E080937E05E0E0F9E1E491E0937F05ECEEF8E172
:203A8000E491F0E0EE0FFF1FE053F74E8591949190938105809380050895CF93DF93CDB7DD
:203AA000DEB7C55ED1090FB6F894DEBF0FBECDBF789484B5826084BD84B5816084BD85B530
:203AC000826085BD85B5816085BD80916E00816080936E00109281008091810082608093DA
:203AE000810080918100816080938100809180008160809380008091B10084608093B100CF
:203B00008091B00081608093B00080917A00846080937A0080917A00826080937A00809139
:203B20007A00816080937A0080917A00806880937A001092C100E091E504F091E60482E013
:203B40008083E091E104F091E2041082E091E304F091E40480E180831092ED04E091E904FD
:203B6000F091EA0486E08083E091E704F091E804808180618083E091E704F091E8048081F5
:203B800088608083E091E704F091E804808180688083E091E704F091E80480818F7D8083AC
:203BA00010928D0510928C0510928B0510928A0510928905109288058DE991E090938F053E
:203BC00080938E0590917E05963108F047C02DEB30E030938905209388052BE931E0309334
:203BE0008B0520938A052CE231E030938D0520938C052091680084E0983048F031E09E30DF
:203C000008F430E081E001C0880F3A95EAF7822B809368002DE630E0983050F02BE630E0BB
:203C20009E3030F02CE630E0963110F030E020E03093860520938505292F30E0983008F0EA
:203C40000CC281E001C0880F9A95EAF78093870580918E0590918F050197F1F780918C05B3
:203C600090918D05892B49F1E0911E03F0911F0325E0E237F20709F1309739F0A389B48904
:203C80009C918589809589238C93809190058E7F8093900510921D0310921C0382E795E04D
:203CA00090931F0380931E03E0918505F0918605808190918705892B80830E94260D609357
:203CC00028047093290480932A0490932B0481E480937C0080917A00806480937A008091F4
:203CE0007A0086FDFCCF4091780050917900052E000C660B770B3FB7F8948091410490912E
:203D00004204A0914304B091440426B5A89B05C02F3F19F00196A11DB11D3FBFBA2FA92F20
:203D2000982F8827820F911DA11DB11DF2E0880F991FAA1FBB1FFA95D1F78A019B010827D1
:203D400019272A273B27481759076A077B0721F0C901B8010E94202A10920A0410920904DF
:203D60001092080410928A031092890386E091E090938803809387031092BE040E94260DDD
:203D80006093BA047093BB048093BC049093BD0484EF91E0909309018093080188EA97E0E3
:203DA0000E94141061E977E085ED94E00E94320D8091910581115EC187E597E00E941410D4
:203DC00060ED76E085ED94E00E94320D65E976E085ED94E00E94320D60E876E085ED94E08A
:203DE0000E94320D8CE796E00E941410AE014B535F4FC053DF4F59834883C05DD040CE0154
:203E00008E559F4FCC52DF4F99838883C45DD04082599540C452DF4F99838883CC5DD040D9
:203E2000FE01E654FF4FCE52DF4FF983E883C25DD0409E012F5F3F4F19010E94260D6B0181
:203E40007C018091C504882309F43DC180913604882339F18091B6049091B704A091B804B1
:203E6000B091B904A7019601281B390B4A0B5B0BDA01C90180339547A105B10594F06EEB56
:203E80007BE085ED94E00E94320D809136040E94D11089EB9BE00E941410109236041092FF
:203EA00035040E94391B809186038823A9F080E6E6E2F3E0ACE4B4E001900D928A95E1F7A9
:203EC00080912403909125039093D0048093CF04109286030E940016B0900A0400910804B6
:203EE0001091090460918703709188034091890350918A0330E020E0CA52DF4F19821882B3
:203F0000C65DD040E22FBB2009F40AC3C801022E02C0969587950A94E2F780FF01C3CA0131
:203F20000E2E02C0969587950A94E2F78170A9F081E090E002C0880F991FEA95E2F7CA52E5
:203F4000DF4FE881F981C65DD040E82BF92BCA52DF4FF983E883C65DD0402F5F3F4F2A300C
:203F6000310581F6CA52DF4F28813981C65DD0403093070420930604BB2009F4D3C2C852A2
:203F8000DF4F19830883C85DD0408091040190910501CA52DF4FE881F981C65DD0408E1755
:203FA0009F0709F0C8C2209104043091050480910201909103012817390709F0BCC2809115
:203FC000000190910101C852DF4F28813981C85DD0408217930709F0AEC2109203044090C8
:203FE00028045090290460902A0470902B0440911704509118046091190470911A04A090F5
:20400000C504E09102042091150430911604D701C60184199509A609B709803BF4E09F073D
:20402000A105B10508F48FC2F0EB4F0EF4E05F1E611C711CAA2039F0E11105C02F3F3207F3
:2040400011F02F5F3F4F4F5F5F4F6F4F7F4F805B9440A109B109E0E0E0CF9E3040F428505F
:20406000310981E001C0880F2A95EAF7EFCD2E503109F7CF80FF06C064E477E085ED94E0A9
:204080000E94320D8091910581FF06C06AE277E085ED94E00E94320D8091910582FF06C0FA
:2040A00067E077E085ED94E00E94320D8091910583FF06C06CEF76E085ED94E00E94320D34
:2040C0000E940E107DCE80913404882379F0F7FC0DC0109234040E9438116CED75E081E0E4
:2040E0000E949D0F85ED97E00E941410809134048111D7CE8091BA049091BB04A091BC04A3
:20410000B091BD04B701A601481B590B6A0B7B0B8091080190910901B0E0A0E04817590768
:204120006A077B0708F4BDCE8091BE04853059F48091CC04811107C089E69BE00E94141046
:2041400082E08093BE041091BE04123091F48091CA04882309F455C01092CA048091CB0412
:204160008A3F18F48F5F8093CB0481E00E94791198CE1B3008F060C0E12FF0E0EE53FF4DD7
:204180000C94C02ACD20DE201C2144218E21AF21D4211722382259227D226FE77AE082E7CE
:2041A00095E00E94320D63E77AE085ED94E00E94320D0E940E101092CA043EC065E67AE06B
:2041C00082E795E00E94320D64E57AE085ED94E00E94320D0E940E1081E080930A01C09225
:2041E000BA04D092BB04E092BC04F092BD0480E293E090930901809308011F5F1093BE046A
:2042000050CE65E27AE082E795E00E94320D6EEE79E085ED94E00E94320D0E940E1081E083
:204220008093CA040E94260D6093200370932103809322039093230310930A01C092BA044C
:20424000D092BB04E092BC04F092BD04E12FF0E0EE0FFF1FE75DFE4F8081918190930901FC
:2042600080930801EEEFE10FE93038F6F0E0E55CFE4D0C94C02A7B226321AD21CE21F32136
:204280003622572278227B2263EE79E082E795E00E94320D65EB79E085ED94E00E94320D3D
:2042A0000E940E1083E080930A01C092BA04D092BB04E092BC04F092BD0484EC99E090930B
:2042C0000901809308018091C3048F5F8093C304833008F41BC18091C4041092C3041092A9
:2042E000C404811187C78091C204811102C00E941D1185ED9AE00E94141082E08093BE0432
:2043000080E00E9479118091BE04833009F0C9CD68EE73E082E00E949D0FC3CD67EA79E069
:2043200082E795E00E94320D66E979E085ED94E00E94320D0E940E1084E080930A01C092BB
:20434000BA04D092BB04E092BC04F092BD0480EB94E0909309018093080185E0D8C06DE691
:2043600079E082E795E00E94320D6CE579E085ED94E00E94320D0E940E1085E080930A0171
:20438000C092BA04D092BB04E092BC04F092BD0480E49FE190930901809308018091BF0476
:2043A0008823D9F286E0B3C06EE479E082E795E00E94320D66E279E085ED94E00E94320DDC
:2043C0000E940E1086E080930A01C092BA04D092BB04E092BC04F092BD0480E293E09093FB
:2043E0000901809308018091AE048F5F8093AE04833008F48FC065EC7AE085ED94E00E94F0
:20440000320D8091AE040E94D11088E89AE00E9414101092BE041092BF041092AE0488ECD6
:2044200090E0909309018093080182E09FCE6DE179E082E795E00E94320D66EF78E085ED6F
:2044400094E00E94320D0E940E1087E080930A01C092BA04D092BB04E092BC04F092BD041C
:204460008CED95E0909309018093080188E04FC067ED78E082E795E00E94320D6DE978E075
:2044800085ED94E00E94320D0E940E1088E080930A01C092BA04D092BB04E092BC04F0922A
:2044A000BD048CED95E0909309018093080189E02EC062E978E082E795E00E94320D66E6FF
:2044C00078E085ED94E00E94320D0E940E1089E080930A01C092BA04D092BB04E092BC0413
:2044E000F092BD0488E293E2909309018093080181E08093C00482E00AC06BE578E082E7DC
:2045000095E00E94320D69E278E04FCE83E08093BE04C7CC83E08093BE041092C304C1CC8C
:20452000CB01FECC4FEF5FEFC852DF4F59834883C85DD0402ACD80910304811150CD81E016
:20454000809303044CCD3093160420931504E0930204409228045092290460922A047092D7
:204560002B0440931704509318046093190470931A0488539F4FAF4FBF4F89359240A105E3
:20458000B10508F0B4C281E0E827AA2009F490C08091B2049091B304A091B404B091B504EE
:2045A000A7019601281B390B4A0B5B0BDA01C90180319742A105B1050CF49BC262E57FE0EC
:2045C00085ED94E00E94320D8091B2049091B304A091B404B091B504B701A601481B590B6C
:2045E0006A0B7B0B85ED94E00E94CE1068E27FE085ED94E00E94320D809101040E94D11051
:204600006AE17FE085ED94E00E94320D809100040E94D1106FE07FE085ED94E00E94320D1C
:204620008091FF030E94D11068EF7EE085ED94E00E94320D60910B0470910C0485ED94E071
:204640000E94081167EE7EE085ED94E00E94320D609122047091230485ED94E00E94081145
:204660006AED7EE085ED94E00E94320D6091AC047091AD0485ED94E00E9408116CEC7EE014
:2046800085ED94E00E94320D609124047091250485ED94E00E9408118BEA9EE00E941410B6
:2046A0001092FF0310920004109201040E94470F80912C0490912D04A0912E04B0912F04A7
:2046C000A7019601281B390B4A0B5B0BDA01C90180369A4EA105B10508F43CC18091C504E7
:2046E0008823E1F08091280490912904A0912A04B0912B0422E330E040E050E0281B390BF8
:204700004A0B5B0BDA01C9018C0D9D1DAE1DBF1D89359240A105B10508F01CC1C0922C04FC
:20472000D0922D04E0922E04F0922F0468E070E185ED94E00E94320DC701B60128EE33E085
:2047400040E050E00E945B2ABA01A90185ED94E00E94CE1061E070E185ED94E00E94320DBE
:20476000609126047091270485ED94E00E94081168EF7FE085ED94E00E94320D60912404BB
:204780007091250485ED94E00E9408116FEE7FE085ED94E00E94320D60913B0470913C045A
:2047A00085ED94E00E94081164EE7FE085ED94E00E94320D6091AC047091AD0485ED94E0A7
:2047C0000E9408116DED7FE085ED94E00E94320D609122047091230485ED94E00E940811BE
:2047E00065ED7FE085ED94E00E94320D609120047091210485ED94E00E9408116EEC7FE0AC
:2048000085ED94E00E94320D80911F040E94D11064EC7FE085ED94E00E94320D60911D0492
:2048200070911E0485ED94E00E94081169EB7FE085ED94E00E94320D60911B0470911C0409
:2048400085ED94E00E94081162EB7FE085ED94E00E94320D4091170450911804609119044D
:2048600070911A0485ED94E00E94CE106CEA7FE085ED94E00E94320D6091CD047091CE04A2
:2048800085ED94E00E94081164EA7FE085ED94E00E94320D609115047091160485ED94E0F8
:2048A0000E9408116CE97FE085ED94E00E94320D609113047091140485ED94E00E94081100
:2048C00062E97FE085ED94E00E94320D609111047091120485ED94E00E94081167E87FE0FB
:2048E00085ED94E00E94320D60910F047091100485ED94E00E9408116CE77FE085ED94E09F
:204900000E94320D60910D0470910E0485ED94E00E94081165E77FE085ED94E00E94320D8E
:2049200060910B0470910C0485ED94E00E9408116CE67FE085ED94E00E94320D4091C504B3
:2049400050E070E060E02AE085ED94E00E9482100E940E108091C50481117FC080913704BC
:2049600090913804A0913904B0913A04A7019601281B390B4A0B5B0BDA01C901883B9B4029
:20498000A105B10508F469C0C0923704D0923804E0923904F0923A0468E470E185ED94E079
:2049A0000E94320D8091BE040E94D1106CE370E185ED94E00E94320D809136040E94D1108B
:2049C0008FE20E94430E809135040E94D11080913404882331F066E270E185ED94E00E9470
:2049E000320D61E270E185ED94E00E94320D4091300450913104609132047091330485ED31
:204A000094E00E94CE1069E170E185ED94E00E94320D4091D1045091D2046091D30470911A
:204A2000D40485ED94E00E94CE1064E170E185ED94E00E94320DC701B60128EE33E040E013
:204A400050E00E945B2ABA01A90185ED94E00E94CE1082E190E10E94141080913D04909127
:204A60003E04A0913F04B0914004A7019601281B390B4A0B5B0BDA01C90180369A4EA10591
:204A8000B10540F1C0923D04D0923E04E0923F04F09240046CEA70E185ED94E00E94320D0F
:204AA000609106017091070185ED94E00E9408116EE870E185ED94E00E94320D60913B04B6
:204AC00070913C0485ED94E00E9408118DE590E10E94141080E090E0892B09F4AEC90E94B1
:204AE000C00D882309F4A5C90E94000099C9E0E04CCDEE2309F4DCCD40910404509105047C
:204B0000C652DF4F59834883CA5DD0400E94260D9B01AC012419350946095709C252DF4FE7
:204B2000288339834A835B83CE5DD040BE016B537F4FCA52DF4F88819981C65DD0400E949B
:204B4000300FBE0166547F4FC652DF4F88819981CA5DD0400E94300FA090FD039090FE03FD
:204B6000BB2009F453C0BE016E557F4FC8010E94300F0E94260DCB52DF4F3881C55DD04045
:204B80003F93CC52DF4F4881C45DD0404F9327E332E03F932F9328EE33E040E050E00E9450
:204BA0005B2A5F934F933F932F93CD52DF4F5881C35DD0405F93CE52DF4F8881C25DD0403A
:204BC0008F93CF52DF4F9881C15DD0409F93C053DF4FE881C05DD040EF939F92AF928AE3B3
:204BE00092E09F938F931F9280E48F933F922F920E940B2B0FB6F894DEBF0FBECDBF1816D9
:204C00001906D4F1712C612C10E06DC10E94260D27E332E03F932F9328EE33E040E050E06A
:204C20000E945B2A5F934F933F932F93CD52DF4F3881C35DD0403F93CE52DF4F4881C25DA7
:204C4000D0404F93CF52DF4F5881C15DD0405F93C053DF4F8881C05DD0408F939F92AF920F
:204C600080E592E09F938F931F9280E48F933F922F920E940B2BBECF9C012D5F3F4F2134CF
:204C8000310508F0BFCF682FC1010E94740FF10101900020E9F73197E219F309EE2309F48A
:204CA000B1CF3F01772410911F04112309F4B8C0A090FC03B12CF501EE0FFF1FEC51FC4F87
:204CC000808191810E94CF0F87FF1CC0C50101966CE070E00E94AC2A8093FC031150109358
:204CE0001F0480911B0490911C048F3F980729F0019690931C0480931B0488E49EE00E9402
:204D00001410D1CF10E035E0932E48E1842E0AE080911F04181708F083C08091FC03810F06
:204D20009927991F6CE070E00E94AC2AFC01EE0FFF1FEC51FC4F808191810E94CF0F87FD30
:204D40006FC0292D382F3203F0011124EC56FC4F84811F928F938381282F082E000C330BCC
:204D60003F938F938281282F082E000C330B3F938F9381818F9380818F9343E652E05F93DD
:204D80004F931F928F92CB52DF4F9881C55DD0409F93CC52DF4FE881C45DD040EF930E948D
:204DA0000B2B0FB6F894DEBF0FBECDBF18161906BCF59C012D5F3F4F2931310588F5682F1D
:204DC000CE018E559F4F0E94740FCC52DF4FE881F981C45DD04001900020E9F73197AF01A5
:204DE000CC52DF4F88819981C45DD040481B590B5527C30101965A01A80EB91EE1EAAE16FE
:204E0000B10470F4F101E60DF71D0083BE016E557F4F820D931D0E94C62A1F5F350178CFE1
:204E20008091060190910701C452DF4F28813981CC5DD0402817390720F430930701209340
:204E400006010091C504002309F448C1C3010197803A910508F047C00091B004002309F4B8
:204E60005BC00E94260D8090900390909103A0909203B0909303DC01CB0188199909AA09B1
:204E8000BB0980343FE19307A105B10570F5803D9740A105B105B8F08091AF04811113C05E
:204EA00081E08093AF0480912204909123048F3F980729F00196909323048093220486EF37
:204EC0009DE00E94141080910B0490910C048F3F980729F0019690930C0480930B048EE955
:204EE0009DE00E94141000E0F9C01092B0041092AF0480912004909121048F3F980729F02A
:204F00000196909321048093200482E49DE00E9414100E94470FE7CF81E080938F030E947C
:204F2000260D80908B0390908C03A0908D03B0908E03681979098A099B0960357105810595
:204F4000910518F40E94391BEACF66E37DE082E795E00E94320D43012FEF821A920AB4014C
:204F600082E795E00E94081163E37DE082E795E00E94320D0E94260DCE51DF4F688379832D
:204F80008A839B83C25ED040512CA12C0E94260DCE51DF4F288139814A815B81C25ED04010
:204FA000621B730B840B950B6C3271408105910508F047C082E795E00E94DD0E892B31F31A
:204FC00082E795E00E94F30EB82E4EE3841709F416C10E94701A8FEB8B0D8A3110F450E29B
:204FE000B50EEA2DF0E0EB5BFE4F8081A3948B1529F0AA24A39482E6B812A12CEA2DF0E098
:20500000EB5BFE4F8081882309F45CC1E52DF0E0E15CFE4F808153948B1529F055245394CA
:2050200095E6B912512CE52DF0E0E15CFE4F80818111C0CF8CE89CE00E94141082E0B82E21
:205040000CC1B12CA12C63E282E795E00E94810EC5018F7099270F9711F40E94391B2FEF41
:20506000A21AB20AA614B70471F76AE082E795E00E94810E0E94391B80913B0490913C04DB
:205080008F3F980729F0019690933C0480933B0460E67CE085ED94E00E94320DB40185EDAE
:2050A00094E00E94081182E29CE00E94141093E0B92ED3C00E94DA1052E0B51281C0809157
:2050C000FF038F3F59F08F5F8093FF0307C0809101048F3F19F08F5F8093010481E0809386
:2050E000020461EA7EE085ED94E00E94320D40911704509118046091190470911A0485EDB2
:2051000094E00E94CE106CE97EE085ED94E00E94320DB30185ED94E00E94081166E97EE01F
:2051200085ED94E00E94320D812F0E94D11060E97EE085ED94E00E94320DC252DF4F4881FC
:2051400059816A817B81CE5DD04085ED94E00E94CE108BE89EE0011102C086E89EE00E949A
:2051600014100E94260D002309F4A2CA8091FD039091FE0301969093FE038093FD03CA528D
:20518000DF4F88819981C65DD0409093050180930401C652DF4FE881F981CA5DD040F09367
:2051A0000301E0930201C852DF4F28813981C85DD04030930101209300011092030478CA31
:2051C000809100048F3F09F489CF8F5F8093000485CF8091FC03810F9927991F6CE070E08A
:2051E0000E94AC2A8093FC0380911F04811B80931F0466C082E19BE00E9414107AC84101D1
:20520000B12CA12CF40161914F0182E795E00E94810EC5018F7099270F9711F40E94391B78
:20522000FFEFAF1ABF0AA614B70461F76AE082E795E00E94810E0E94391B81E08093B004AA
:205240001092AF040E94260D60939003709391038093920390939303B12C0E94260D609301
:205260008B0370938C0380938D0390938E0310928F036CE17CE0BB2011F061E17CE085EDEE
:2052800094E00E94320DC1010E94191341E0B41609F41DCFB1100ECF1092B1040E94260D8B
:2052A0006093B2047093B3048093B4049093B5041092FF031092000410920104111189CF79
:2052C00001E00CCF8DEC9CE00E941410BB24B394C4CF81E791E0909373058093720580918F
:2052E0001E0390911F038257954071F4E0918505F0918605908180918705809589238083BE
:2053000010921F0310921E0308958F929F92AF92BF92CF92DF92EF92FF92CF93DF93EC01E0
:20532000688179818A819B81611571058105910521F464E279ED8BE597E02DE133EF41E062
:2053400050E00E94292A49015A019B01AC01A7EAB1E40E94482A6B017C01ACEEB4EFA50134
:2053600094010E94562AC60ED71EE81EF91EF7FE06C081E0C81AD108E10880E8F80AC8821C
:20538000D982EA82FB82C701B6019F77DF91CF91FF90EF90DF90CF90BF90AF909F908F90AC
:2053A00008958F929F92AF92BF92CF92DF92EF92FF9260910B0170910C0180910D0190913D
:2053C0000E01611571058105910521F464E279ED8BE597E02DE133EF41E050E00E94292A98
:2053E00049015A019B01AC01A7EAB1E40E94482A6B017C01ACEEB4EFA50194010E94562A02
:20540000C60ED71EE81EF91EF7FE06C081E0C81AD108E10880E8F80AC0920B01D0920C01AF
:20542000E0920D01F0920E01C701B6019F77FF90EF90DF90CF90BF90AF909F908F90089571
:2054400060930B0170930C0180930D0190930E010895052E97FB1EF400940E94402A57FD82
:2054600007D00E945B2A07FC03D04EF40C94402A50954095309521953F4F4F4F5F4F089560
:2054800090958095709561957F4F8F4F9F4F08950E947D2AA59F900DB49F900DA49F800DB6
:2054A000911D11240895B7FF0C94482A0E94482A821B930B0895A1E21A2EAA1BBB1BFD0154
:2054C0000DC0AA1FBB1FEE1FFF1FA217B307E407F50720F0A21BB30BE40BF50B661F771F42
:2054E000881F991F1A9469F760957095809590959B01AC01BD01CF010895A29FB001B39F53
:20550000C001A39F700D811D1124911DB29F700D811D1124911D0895991B79E004C0991F15
:20552000961708F0961B881F7A95C9F780950895AA1BBB1B51E107C0AA1FBB1FA617B7073B
:2055400010F0A61BB70B881F991F5A95A9F780959095BC01CD01089597FB072E16F4009413
:2055600007D077FD09D00E94982A07FC05D03EF4909581959F4F0895709561957F4F08956D
:20558000EE0FFF1F0590F491E02D0994FB01DC0102C001900D9241505040D8F70895FC01D7
:2055A0008191861721F08823D9F7992708953197CF010895FB01DC018D91019080190110EC
:2055C000D9F3990B0895FB01DC014150504030F08D910190801919F40020B9F7881B990B38
:2055E0000895FB0151915523A9F0BF01DC014D9145174111E1F759F4CD010190002049F019
:205600004D9140154111C9F3FB014111EFCF81E090E001970895AEE0B0E0E1E1FBE20C94DA
:20562000C72D0D891E898F89988D26E02C831A83098397FF02C080E090E801979E838D8325
:20564000AE01455E5F4F698D7A8DCE0101960E943B2B4D815E8157FD0AC02F81388542174E
:2056600053070CF49A01020F131FF80110822E96E4E00C94E32DABE0B0E0E1E4FBE20C94D2
:20568000B92D7C013B018A01FC0117821682838181FFC8C1CE0101965C01F7019381F301E2
:2056A00093FD859193FF81913F01882309F453C1853239F493FD859193FF81913F0185327F
:2056C00029F4B70190E00E942B2DE7CF912C212C312CFFE1F31538F08B3211F190F4803269
:2056E00009F1833229F137FC3CC020ED280F2A3050F536FE20C08AE0989E200D1124922EF9
:2057000006C08D3291F0803371F7689430F8F30193FD859193FF81913F018111DACF21C0AA
:20572000689431F8689432F8F2CF689433F8EFCF689434F8ECCFEAE02E9E200D1124222E4D
:20574000689435F8E4CF8E3229F436FC04C1689436F8DDCF8C3619F4689437F8D8CF883664
:20576000B1F2982F9F7D95549330E0F08336A1F18337C1F1833509F063C02801F2E04F0E44
:20578000511CF801C080D180692D70E036FC02C06FEF7FEFC6010E94152D4C01689437F849
:2057A00082010AC00C5F1F4FFFE3F98388248394912C6501E89437F833FE2DC0522C8114A3
:2057C000910471F5552009F468CFB70180E290E00E942B2D5A94F6CFF801808189830E5F7B
:2057E0001F4FE4CF2801F2E04F0E511CF801C080D180692D70E036FC02C06FEF7FEFC601CC
:205800000E94202D4C018201D5CFB70180E290E00E942B2D2A942814190409F0B0F7CECF4D
:20582000F60137FC859137FE81916F01B70190E00E942B2D51105A94F1E08F1A9108BFCF5F
:20584000843619F0893609F077C0F80137FE6BC060817181828193810C5F1F4FF32DFF76E5
:205860003F2E97FF09C090958095709561957F4F8F4F9F4F689437F82AE030E0A5010E9400
:205880005B2DC82ECA188C2C432C36FE0CC0E89440F8C91440F434FE05C032FC03C0F32DB4
:2058A000FE7E4F2E892C44FE95C0FE01EC0DF11D8081803309F087C0242D297E422E842D90
:2058C0008870582E43FC95C040FE8FC09C2C821418F42C0C922C981844FE91C0B70180E36B
:2058E00090E00E942B2D42FE09C088E790E041FE02C088E590E0B7010E942B2DC91408F4ED
:205900008AC0CA94D12C9FEFC91AD90ACA0CDB1CF60182916F01B70190E00E942B2DAC1465
:20592000BD04B1F74FCF60817181072E000C880B990B0E5F1F4F92CFD32CE894D4F82AE008
:2059400030E0853739F1232D297FD22E8F3601F148F48835A9F0F701868197812B96E2E175
:205960000C94D52D803749F08837A9F7D4FE02C06894D2F820E130E00DC06894D4F8F6CF71
:2059800034FE03C0822F8660D82E20E132E002C028E030E0F801D7FE0FC060817181828115
:2059A00093810C5F1F4FA5010E945B2DC82ECA183D2CE89437F867CF6081718190E080E065
:2059C0000E5F1F4FF0CF42FC02C0839478CF8394839475CF842D867809F471CFF6CFB701F4
:2059E00080E290E00E942B2D83948214C0F3512C73CF522C5818821408F46ECFF8CF842D87
:205A0000867809F47BCF8BE241FE80E247FC8DE2B70190E071CFB70180E390E00E942B2D94
:205A20009A946CCF8FEF9FEF99CFFC010590615070400110D8F7809590958E0F9F1F089584
:205A4000FC016150704001900110D8F7809590958E0F9F1F08950F931F93CF93DF93182FD6
:205A6000092FEB018B8181FD09C01FEF0FEF812F902FDF91CF911F910F91089582FF14C022
:205A80002E813F818C819D81281739073CF4E881F981CF0101969983888310838E819F818A
:205AA00001969F838E83E3CFE885F985812F0995892BA1F3DACFFA01AA27283051F1203189
:205AC00081F1E8946F936E7F6E5F7F4F8F4F9F4FAF4FB1E03ED0B4E03CD0670F781F891F90
:205AE0009A1FA11D680F791F8A1F911DA11D6A0F711D811D911DA11D20D009F468943F9141
:205B00002AE0269F11243019305D3193DEF6CF010895462F4770405D4193B3E00FD0C9F7D7
:205B2000F6CF462F4F70405D4A3318F0495D31FD4052419302D0A9F7EACFB4E0A6959795EA
:205B4000879577956795BA95C9F700976105710508959B01AC010A2E069457954795379553
:205B60002795BA95C9F7620F731F841F951FA01D08952F923F924F925F926F927F928F920F
:205B80009F92AF92BF92CF92DF92EF92FF920F931F93CF93DF93CDB7DEB7CA1BDB0B0FB68D
:205BA000F894DEBF0FBECDBF09942A88398848885F846E847D848C849B84AA84B984C884C7
:205BC000DF80EE80FD800C811B81AA81B981CE0FD11D0FB6F894DEBF0FBECDBFED01089550
:205BE0001CE0C7E8DCE004C0FE010E94C02A2196C838D107C9F7F894FFCFFEFFFFFFFFFF4D
:205C0000FFFFF401FF0100000053454E44204F4B00000000008813983A307560EA0102024C
:205C20000202FFC40920033075C409B004401F2003DC05DC052823B80B6572726F7200626D
:205C400075737900303132333435363738394142434445460000000000F60D560D830D4803
:205C60000EB40D920DA60D00000000810E560D140F800EDD0EF30E680E0D0A002B495044DF
:205C80002C005749464900474F5420495000444953434F4E4E4543540062757379002B43EB
:205CA000574A41503A004552524F52006E6F2061700041542B006E6F206368616E676500FD
:205CC0002B43574C41503A00534B5F5769466947494741353044435F322E3447006E6F2041
:205CE000697000414C524541004C494E4B454400434C4F53454400556E6C696E6B00554EE1
:205D00004C494E4B006C696E6B206973206E6F742076616C69640053454E44204F4B0053D3
:205D2000454E44204641494C00302E302E302E3000503100532C25752C25732C25732C2593
:205D40006C752C25732C25732C00532C25752C25732C25732C256C752C25732C00412C2559
:205D6000752C256325632C25752C0000FFFFFFFFFFFFFFFFFFFFFFFFFFFFFFFFFFFFFFFF94
:205D8000FFFFFFFFFFFFFFFFFFFFFFFFFFFFFFFFFFFFFFFFFFFFFFFFFFFFFFFFFFFFFFFF23
:205DA000FFFFFFFFFFFFFFFFFFFFFFFFFFFFFFFFFFFFFFFFFFFFFFFFFFFFFFFFFFFFFFFF03
:205DC000FFFFFFFFFFFFFFFFFFFFFFFFFFFFFFFFFFFFFFFFFFFFFFFFFFFFFFFFFFFFFFFFE3
:205DE000FFFFFFFFFFFFFFFFFFFFFFFFFFFFFFFFFFFFFFFFFFFFFFFFFFFFFFFFFFFFFFFFC3
:207E0000112484B714BE81FFF0D085E08093810082E08093C00088E18093C10086E08093FC
:207E2000C20080E18093C4008EE0C9D0259A86E020E33CEF91E0309385002093840096BBAD
:207E4000B09BFECF1D9AA8958150A9F7CC24DD2488248394B5E0AB2EA1E19A2EF3E0BF2E79
:207E6000A2D0813461F49FD0082FAFD0023811F0013811F484E001C083E08DD089C0823404
:207E800011F484E103C0853419F485E0A6D080C0853579F488D0E82EFF2485D0082F10E0A0
:207EA000102F00270E291F29000F111F8ED068016FC0863521F484E090D080E0DECF84364D
:207EC00009F040C070D06FD0082F6DD080E0C81680E7D80618F4F601B7BEE895C0E0D1E0ED
:207EE00062D089930C17E1F7F0E0CF16F0E7DF0618F0F601B7BEE89568D007B600FCFDCF1A
:207F0000A601A0E0B1E02C9130E011968C91119790E0982F8827822B932B1296FA010C016F
:207F200087BEE89511244E5F5F4FF1E0A038BF0751F7F601A7BEE89507B600FCFDCF97BE85
:207F4000E89526C08437B1F42ED02DD0F82E2BD03CD0F601EF2C8F010F5F1F4F84911BD0B8
:207F6000EA94F801C1F70894C11CD11CFA94CF0CD11C0EC0853739F428D08EE10CD085E9AE
:207F80000AD08FE07ACF813511F488E018D01DD080E101D065CF982F8091C00085FFFCCF0A
:207FA0009093C60008958091C00087FFFCCF8091C00084FD01C0A8958091C6000895E0E68F
:207FC000F0E098E1908380830895EDDF803219F088E0F5DFFFCF84E1DECF1F93182FE3DF47
:207FE0001150E9F7F2DF1F91089580E0E8DFEE27FF270994FFFFFFFFFFFFFFFFFFFF040425
:00000001FF
