:200000000C94010E0C94380E0C94380E0C9445230C9445230C9445230C94380E0C94380E81
:200020000C94380E0C94380E0C94380E0C94380E0C94380E0C94380E0C94380E0C94380E90
:200040000C94A3220C94380E0C9413230C94ED220C94380E0C94380E0C94380E0C94380E38
:200060000C94380E0C94380EEBB094EC9DB4ED8AB8EBA5BC20EB8498EC96B420EBB284EB44
:20008000A0B8EB8BA4005B44524F502D4F56465D20ECA484EC9DB42000EBB094EC9DB4EDFF
:2000A0008AB820EBB284EBA6BC202B20ECA48420ECA1B0EBA6BD20ECB488EAB8B0ED999492
:2000C000005B4C41444445525D2031EB8BA820ECA1B0ECB9983A20EC8B9CEBA6ACEC96BCCB
:2000E00020EB939CEBA088EC9DB82000ECB48820EBB0B1EC98A4ED9484EBA19C20EB909836
:20010000ED9280EC9DB4ED959CEB8BA428ECA285ECB0A9EC97AD29005B4C41444445525D2E
:20012000202020EB8C80EC8BA02034EB8BA820ECA1B0ECB998EBA5BC20005B4C4144444524
:20014000525D202020ED9584EC9A9420EBB680ED92883A20EBA19CEC9AB0EC82ACEC9DB419
:20016000EB939C204D4F5346455420EC8AA4EC9C84ECB99828EC98883A20324E373030301F
:200180002F414F33343030202B2031306B29005B4C41444445525D20E29AA035EB8BA82066
:2001A000EBAFB8EC8BA4ED96893A20ECA084EC9B9020EC9EACED88ACEC9E85EC9D80202A6C
:2001C0002AEBB680ED928820EBAFB8EBB3B4EC9CA0EBA19C20EBAFB8EAB5ACED98842A2A9F
:2001E000EC9DB4EB8BA428EBB0B0ECA09CEAB08020EC9584EB8B88EB8BA42900ECB4882045
:20020000EC89ACEAB3A02041542B52535420EBA5BC20EB9098ED9280EC9DB4ED959CEB8B38
:20022000A42028EC9DB4EAB283EC9DB420ECA095EC838120EAB2BDEBA19CEB8BA429005BC9
:200240004C41444445525D202020E2869220005B4C41444445525D202020EC9CA0EC9DBCEA
:20026000ED9598EAB28C20ED9280EBA6ACEB8A9420ED8E8CEC9BA8EC96B42068616E67206D
:20028000EC9D8020EC86A1EC8898EC8BA020EBA19CECA78120EC9EACEC84A4EAB384EBA18C
:2002A0009C20ECA09CEAB1B0ED9688EB8BA4005B4C41444445525D202020ECA084EC9B90FF
:2002C000C2B7454EC2B75253542D4C4F5720EC8381ED839CEBA9B42052535420ED9580ECF6
:2002E0009D8420ED9D94EB93A4EC96B4EB8F8420EB8F99EC9DBCED9598EAB3A02C005B4CA7
:2003000041444445525D2034EB8BA820EAB1B4EB8488EB9C803A20ED9598EB939CEC9BA884
:20032000EC96B420EBA6ACEC858BEC9D80202A2AEC84A4EAB384EC838120EBB0B0ECA09CF9
:200340002A2AEB8BA428EBAFB8EBB0B0EC84A0EC9DB420EC9584EB8B88EB8BA42900ECB417
:200360008820EC89ACEAB3A02041542B5253542028EBAAA8EB938820EC868CED9484ED8A79
:20038000B820EBA6ACEC858B29005B4C41444445525D2033EB8BA820ECA1B0ECB9983A205A
:2003A00000ECB48820EC89ACEAB3A02041542B435751415020EBA19C20EAB2B0ED95A9EC70
:2003C0009D8420EBAA85EC8B9CECA081EC9CBCEBA19C20EB818AEC9D8020EB92A420EB8B40
:2003E000A4EC8B9C20EBB699EB8A94EB8BA4005B4C41444445525D2032EB8BA820ECA1B098
:20040000ECB9983A2000EB8BA8005B4C41444445525D20E28691E2869120EB8BA820EC83E4
:2004200081EC8AB920E2869220005B4C41444445525D20E286912033EB8BA82841542B52AA
:2004400053542920ECA781ED968920E2809420415420EAB384ECB8B5EC9DB420EC9EA0EAB6
:20046000B2BCEC9CBCEBA9B420EC9584EB9E9820EB8BA8EC9D8020EC9D98EBAFB8EAB08048
:2004800020EC9786EB8BA400ED9A8C20EB8884ECA0812900EB8BA8280020C2B720ED9884B1
:2004A000EC9EAC2000EC9786EC9D8C00ED9A8C20C2B720EAB2B0ED95A9EC9CA0ECA780202A
:2004C000007320C2B720EC97B0EC868D2000292043574A4150EC868CEC9A94200043574AC4
:2004E0004150204641494C00415420EAB384ECB8B520EC9EA0EAB9800043574A415020EB13
:20050000ACB4EC9D91EB8BB5005B4C41444445525D20EC8BA4ED8CA828005B4C4144444599
:20052000525D2031ECB48820EC9588EC979020EB93A4EC96B4EC98A820ECA491EBB3B520FF
:20054000EC8BA4ED8CA820EC8BA0ED98B820E2809420EC84B8ECA78020EC958AEB8A94EB5B
:200560008BA4005B54582D44524F505D20005B54585D2000EBB094EC9DB4ED8AB8EBA19C1F
:2005800020EC8AA4ED8AB8EBA6BC20EBB3B5EAB5AC28EC849CEBB284EB8A9420EC9DB4200C
:2005A000ECA484EC9D8420EBB284EBA6B0EB8BA429005B54582D524553594E435D20ED944F
:2005C00084EBA1ACED9484ED8AB820EB8693ECB9A820E2869220EB8D94EBAFB820005B5453
:2005E000582D52454A4543545D2043495053454E4420EAB1B0EBB680284552524F522920AF
:20060000E2809420EB8D94EBAFB8EBA5BC20EB84A3ECA78020EC958AEB8A94EB8BA4005B2C
:2006200054582D425553595D2045535020EAB08020EBB094EC8198EB8BA428EAB1B0EBB67D
:20064000802920E2809420EC8BA4ED8CA8EBA19C20EC84B8ECA78020EC958AEB8A94EB8B52
:20066000A42E20EB8BA4EC9D8C20ECA3BCEAB8B0EC979020EB8BA4EC8B9C20EBB3B4EB825D
:20068000B8EB8BA4000D0A0041542B43495053454E443D005B54582D574149545D20E2980E
:2006A00085E2988520543220ECB488EAB3BC20E280942053454E44204F4B20EAB08020EB10
:2006C000819DEB82B420EC958820EC98A8EB8BA420E2869220EBA781ED81ACEBA5BC20EB8E
:2006E0008BA4EC8B9C20EC84B8EC9AB4EB8BA4005B54582D574149545D20EC959E20ECA06B
:2007000084EC86A1EC9D982053454E44204F4B20EBA5BC20EC9584ECA78120EBAABB20EBFD
:20072000B4A4EB8BA420E2809420EC9DB4EBB28820ECA3BCEAB8B0EB8A9420EAB1B4EB840B
:2007400088EB9BB4EB8BA4005B54582D574149545D20E2988520543120ECB488EAB3BC2072
:20076000E2809420EAB7B8EB9E98EB8F8420EAB384EC868D20EAB8B0EB8BA4EBA6B0EB8B68
:20078000A428EB9190EB93A4EAB8B0ECA78020EC958AEB8A94EB8BA4290041310049500078
:2007A000000242310049500000094C44004F4700000D4C43004F4C0000FF4452004F42009F
:2007C00000064C32004F4C0000FF5B42414420534C4F545D207269643D0020E28692206FD5
:2007E000636375706965643D005B53494D5D20ED959C20EAB1B8EC9D8C3A20005B53494DDA
:200800005D20EBB094EABF8020EC8B9CEBAEAC20ECB9B8EC9DB420EC9786EB8BA420E28606
:200820009220726573756C743D35005B424144204649454C44535D207269643D005B44550F
:2008400050207269645D20005B5245475D205120EC8898EC8BA020E2809420EB8BA4EC9D49
:200860008C20EC86A1EC8BA020ECB0BDEC979020EB93B1EBA19DEC9D8420EB8BA4EC8B9C44
:2008800020EBB3B4EB82B8EB8BA40020E2809420ECBD9CEBB0B1EC9DB420EAB1B0ECA08824
:2008A000206172673D0020E2809420EB93B1EBA19D20EC9786EC9D8C0020E2809420EC9D16
:2008C000B8EC9E9020ED95B4EB8F8520EC8BA4ED8CA800206172673D005B475D206964789A
:2008E0003D005B475D20EAB1B0ECA088206964783D005B434B53554D204E475D20005B4CE4
:20090000435D20EAB1B0ECA08820E280942037EC9E90EBA6AC20ECB488EAB3BC3A20005B9E
:200920004C435D200020EAB1B0ECA08820E280942037EC9E90EBA6AC20ECB488EAB3BC3A8D
:2009400020005B44525D20EAB1B0ECA08820E2809420EBAA85EBA0B9ED919CEC979020ECDD
:200960009786EB8A9420EAB0923A20005B44525D206172673D005B4E45545D20E2988520E8
:2009800045535020EAB08020495020EBA5BC20EC9E83EC9788EB8BA420E2809420EBAAA84B
:2009A000EB938820EBA6ACEC858BEC9CBCEBA19C20EBB3B8EB8BA42E20EB8884ECA081206A
:2009C000EC82ACEAB1B42000ED9A8C20EC97B0EC868D20EC8BA4ED8CA820E2869220EC980F
:2009E000A4ED9484EB9DBCEC9DB820ECA084ED99982E20EB82A1EC9D8020EC868CECBC93BD
:200A0000EBB680ED84B020EB8BABEB8A94EB8BA428434950434C4F534529005B4E45545DEE
:200A200020ECA084EC86A120005B4E45545D20ECA084EC86A120EC8BA4ED8CA82000EB8189
:200A4000940020C2B72036EB8BA828EC9B8CECB998EB8F85292000EBAFB8EBB0B0EC84A088
:200A600020E2809420413220EBA5BC204553502052535420EC979020EBACBCEBA6ACEAB3C0
:200A8000A0204553505F5253545F57495245443D31005B424F4F545D20EC82ACEB8BA4EBE3
:200AA000A6AC2034EB8BA82845535020ED9598EB939CEBA6ACEC858BEC84A0292000EC9BF5
:200AC0008CECB998EB8F8520002A2AEBB88CEB9DBCEC9AB4EC9584EC9B8328ECA084EC9B5F
:200AE00090EBB680ECA1B1292A2A2000EC99B8EBB680EBA6ACEC858B28EBB284ED8ABC2F28
:200B0000445452292000ECA084EC9B90EC9DB8EAB08028504F52292000EBB688EBAA85205B
:200B200028EBB680ED8AB8EBA19CEB8D94EAB080204D4355535220EC9D8420ECA780EC9A5F
:200B4000B0EAB3A020EB8498EC96B4EC9994EB8BA429005B424F4F545D20EBA6ACEC858BAA
:200B600020EC9B90EC9DB83A2000206D6F64756C6573202F206465763D5031002073656EB8
:200B8000736F7273202F20002073706F7473202F20000A5B5041524B494E47204E4F4445A0
:200BA0005D2070726F746F207631202F200020E29AA020EC8398ED948C20ED9B85203D2034
:200BC000EC8B9CEBAEAC2F4C4544EB9098EC9DBDEAB8B02028EBB0B0EC84A020EC9786EC56
:200BE0009D8C2900ED958000ED9B8500EC9588EC9DBDEC9D8C000A5B53454E535D20005BBA
:200C00004C41444445525D2034EB8BA83A2045535020EBA6ACEC858B20ED95B4ECA09C2020
:200C2000E2809420EBB680ED8C85EC9D8420EAB8B0EB8BA4EBA0B8EB8BA4EAB080204357B5
:200C40004D4F444520EBB680ED84B020EB8BA4EC8B9C005B4E45545D203130204357514154
:200C6000502028EAB2B0ED95A920ED95B4ECA09C20E2809420EC82ACEB8BA4EBA6AC2032EE
:200C8000EB8BA8290041542B43575141500D0A005B4E45545D20392043574C41502028ECF7
:200CA000A3BCEBB38020415020EBAAA9EBA19D20E2809420ECA784EB8BA8290041542B43E8
:200CC000574C41500D0A005B4E45545D2038204357434F554E5452592028ECB184EB84907C
:200CE0002031322F313320EC9AB0ED9A8C20EC8B9CEB8F8420E2809420ECA784EB8BA829B0
:200D00000041542B4357434F554E5452595F4445463D302C224B52222C312C31330D0A0099
:200D20005B4E45545D203720474D522028ED8E8CEC9BA8EC96B420ED8C9020E2809420ECB8
:200D4000A784EB8BA8290041542B474D520D0A005B4E45545D203620434950434C4F5345FD
:200D60002028EB82A1EC9D8020EC868CECBC9320EB8BABEAB8B0290041542B434950434CD4
:200D80004F53450D0A005B4E45545D20352043495053544152540041542B43495053544153
:200DA00052543D22544350222C223139322E3136382E33352E3231222C393939310D0A0006
:200DC0005B4E45545D2034204349504D55583D300041542B4349504D55583D300D0A005B48
:200DE0004E45545D20332043494653522028495020EBA5BC20EC8BA4ECA09CEBA19C20EBE2
:200E0000B09BEC9598EB8A94EAB080290041542B43494653520D0A005B4E45545D203220C3
:200E200043574A41502028EC9D91EB8BB5EAB98CECA78020ECB59CEB8C80203330ECB4886F
:200E400020EAB8B0EB8BA4EBA6B0EB8BA4290041542B43574A41503D22534B5F5769466982
:200E600047494741353044435F322E3447222C2232303131303530373936220D0A005B4EE3
:200E800045545D20312043574D4F44453D310041542B43574D4F44453D310D0A005B4E45CC
:200EA000545D2030205253540041542B5253540D0A00ED9A8C20EC8BA4ED8CA820E28692BF
:200EC0002041542B52535420EBA19C20ECA084ECB2B420ECB488EAB8B0ED999428EC82AC79
:200EE000EB8BA4EBA6AC20EC8381EC8AB929005B4E45545D20434950434C4F534520005BA7
:200F00004E45545D2043494653522033ED9A8CEC9790EB8F8420495020EAB08020EC978663
:200F2000EB8BA420E286922043574A415020EBB680ED84B020EB8BA4EC8B9C005B4E4554F7
:200F40005D2043494653522033ED9A8C20EC868CECA78420E2809420EAB7B8EB9FACEB82D0
:200F600098206275737920EAB1B0EBB680EC9880EB8BA42E20495020EC868CEC8BA4EBA1A0
:200F80009C20EC84B8ECA78020EC958AEB8A94EB8BA4005B4E45545D20495020EAB080205A
:200FA000EC9786EB8BA420E2869220434950535441525420EBA5BC20EBB3B4EB82B4ECA7D8
:200FC0008020EC958AEAB3A02043574A415020EBA19C20EB9098EB8F8CEC9584EAB084EB05
:200FE0008BA400EB8BA829005B4C41444445525D20E28693203330ECB48820EC97B0EC868C
:201000008D20EC98A8EB9DBCEC9DB820E2809420EC82ACEB8BA4EBA6ACEBA5BC2030EB8BB9
:20102000A8EC9CBCEBA19C20EB82B4EBA6B0EB8BA42028ECA781ECA084200002095B41438A
:201040004B515D20ECBA90EC8B9CEC9790EC849C20EBB080EBA0A4EB829820EBA78CEB93E4
:20106000A420EC889820EC9786EB8BA420E2809420EBB284EBA6B0EB8BA400EC8BA4ED8C17
:20108000A82000ECA084EC86A1200042005B5245475D20EB93B1EBA19D20005B5245475D3F
:2010A00020EB93B1EBA19D20EBB0B0ECB998EBA5BC20EBA78CEB93A4ECA78020EBAABBEDF4
:2010C0009688EB8BA420E2809420EC9E98EBA6B020EB93B1EBA19DEC9D8420EB82B4EBB3DB
:2010E000B4EB82B4ECA78020EC958AEB8A94EB8BA40020723D300020723D3100206475655D
:201100003D002061636B3D002074783D005B534C4F545D206E3D005D20E2869220EBA7814E
:20112000ED81ACEBA5BC20EB8BA4EC8B9C20EC84B8EC9AB4EB8BA400202F20455350EBA678
:20114000ACEC858B2000202F2053454E444641494C2000202F2053454E444F4BEC8381EDE2
:20116000959C20002920C2B720EB8884ECA0815BEAB1B4EB8488EB9C802000202F20EAB166
:20118000B0EBB6802000202F20EBACB4EC9D91EB8BB520006D7320EB8F99EC958820ED9581
:2011A0009C20ECA484EB8F8420EBAABB20EB8298EAB094EB8BA420286275737920005B4EB0
:2011C00045545D20E2988520ECA095ECA78020EAB090ECA7803A2000206F6E6C696E653D0D
:2011E0000020736B69703D00206269676F6B6C6F73743D00206F6B6C6F73743D00206269CC
:20120000676F6B73743D002062696764726F703D002062696766696C6C3D002070656E6428
:2012200066696C6C3D002070656E6464726F703D00206F6B73747265616D3D0020636B73ED
:20124000756D6E673D002073736F76663D0020736D6973733D00206F6F773D0020736C6F60
:20126000743D002061636B7374616C653D002061636B64726F703D002061636B713D0020BA
:20128000737475636B3D00206F6B746F3D002073656E646661696C3D0020726573796E6376
:2012A0003D002068777273743D00206573707273743D002064726F703D005B434E545D208F
:2012C00075703D0073002075703D00206C696E65733D002072783D00205B455350EBA6ACD8
:2012E000EC858BEC9CA0ECA780ECA4915D0020EC82ACEB8BA4EBA6AC3D005B444941475D9E
:20130000206F66666C696E6520737465703D00ED9A8C2028EC849CEBB284EC9D982027EBD6
:20132000B284EBA6B0ECA4842720EAB3BC20EBA79EEC9584EC95BC20ED959CEB8BA429006F
:20134000204220C2B720ED9484EBA1ACED9484ED8AB820EC9EACEB8F99EAB8B020005B5279
:20136000414D5D20ECB59CECA08020EC97ACEC9CA0200000000000240027002A000000000D
:201380000800020100000304070000000000000000222028005C780022005B4E45545D2015
:2013A000EC86A1EC8BA020EC98A4EBA59820EC9D91EB8BB528EBA19CEAB7B8EBA78C2C201B
:2013C000ECB9B4EC9AB4ED84B0EB8A942073656E644C696E6520EC9DB420EC84BCEB8BA43B
:2013E000293A20005B4E45545D20E298852053454E44204641494C20E2809420ED8E98ECF1
:201400009DB4EBA19CEB939CEAB98CECA78020EC8DBCEB8A94EB8DB020ECA084EC86A1EC42
:201420009DB420EC8BA4ED8CA8ED9688EB8BA42E20EC8BA4ED8CA8EBA19C20EC84BCEB8B66
:20144000A4005B4E45545D206C696E6B206973206E6F742076616C696420E2869220ECA612
:2014600089EC8B9C20EC98A4ED9484EB9DBCEC9DB82C20EB82A1EC9D8020EC868CECBC9342
:2014800020EB8BABEAB8B028434950434C4F534529005B4E45545D206F6E6C696E6520288A
:2014A000434F4E4E45435429202B20ECBA90EC8B9C20EBB984EC9B80005B4E45545D206FC8
:2014C0006E6C696E652028414C524541445920434F4E4E454354454420C2B720ECB488EA2E
:2014E000B8B020EAB2BDED95A929005B4E45545D20414C524541445920434F4E4E454354CC
:20150000454420E2809420EB82A1EC9D8020EC868CECBC9320EC9D98EC8BAC20ECA491EC0B
:201520009DB4EBAF80EBA19C20EBAFBFECA78020EC958AEB8A94EB8BA420E2869220434978
:2015400050434C4F5345005B4E45545D206E6F20697020E2809420495020EAB08020EC9784
:2015600086EB8BA42E20434950535441525420EC9EACEC8B9CEB8F84EBA5BC20ECA091EA39
:20158000B3A02043574A415020EBA19C20EB9098EB8F8CEC9584EAB084EB8BA4005B4E45B7
:2015A000545D202020322E3447487A20EC9DB8EAB080202F20ECA084ED8C8CEAB08020EB59
:2015C0008BBFEB8A94EAB080202F205353494420ECB2A0EC9E90EAB08020EBA79EEB8A9411
:2015E000EAB080EBA5BC20EBB490EB9DBC2E005B4E45545D20EC84A4ECA095ED959C20533F
:2016000053494420EAB08020EBAAA9EBA19DEC9790202A2AEC9786EB8BA42A2A20E2869211
:2016200020EBB984EBB28820EBACB8ECA09CEAB08020EC9584EB8B88EB8BA42E005B4E4533
:20164000545D20202032EC889CEC9C843A20EBB984EBB080EBB288ED98B820202033EC8825
:201660009CEC9C843A20504D46283830322E313177292F5750413320ECA084ED9998EBAA66
:20168000A8EB939C20EB8184EAB8B0005B4E45545D20202031EC889CEC9C843A20EC9C8474
:2016A00020ECA484EC9D98202A2AEBA788ECA780EBA78920EC88ABEC9E9028ECB184EB8408
:2016C00090292A2A20EBA5BC20EBB490EB9DBC2E2031322F313320EC9DB4EBA9B420EAB358
:2016E000B5EC9CA0EAB8B0EBA5BC20312F362F313120EBA19C20EBB094EABF94EB9DBC0010
:201700005B4E45545D20EC84A4ECA095ED959C205353494420EAB08020EBAAA9EBA19DECB7
:201720009790202A2AEC9E88EB8BA42A2A20E2869220415020EB8A9420EBB3B4EC9DB8EBFC
:201740008BA42E20EAB2B0ED95A9EBA78C20EAB1B0EBB680EB909CEB8BA42E005B4E45544A
:201760005D20E29480E2948020415020EC8AA4ECBA9420ED8C90ECA09520E29480E2948085
:20178000E29480E29480E29480E29480E29480E29480E29480E29480E29480E29480E29437
:2017A00080E29480E29480E29480E29480E29480E29480E29480E29480E29480E29480E22B
:2017C0009480E29480E29480005B4E45545D202020E2869220EAB3B5EC9CA0EAB8B020EC18
:2017E000B184EB8490EC9D8420312F362F313120EBA19C20EBB094EABEB8EB8A9420EAB2A5
:2018000083EC9DB420ED9995ECA09520ED95B4EBB295EC9DB4EB8BA4005B4E45545D2043CB
:2018200057434F554E54525920EBAFB8ECA780EC9B90284552524F522920E2809420EC9DE7
:20184000B420ED8E8CEC9BA8EC96B4EBA19CEB8A9420ECB184EB84902031322F313320ECB5
:201860009D8420ECBD94EB939CEBA19C20EBAABB20EC97B0EB8BA42E005B4E45545D20E2FC
:201880009885204357434F554E54525920EAB08020EBA8B9EC9788EB8BA420E2809420EA52
:2018A000B79CECA09CEB8F84EBA994EC9DB820317E31332E20ECB184EB849020313220EA18
:2018C000B2B0ED95A9EC9DB420EC97B4EBA0B8EC9D8420EC889820EC9E88EB8BA4005B4E76
:2018E00045545D204349504D55583D3020ECA081EC9AA9EB90A820E2869220434950535453
:20190000415254005B4E45545D20E2988520495020ED9995EBB3B43A20005B4C41444445CD
:20192000525D2032EB8BA83A20EAB2B0ED95A920ED95B4ECA09C20EC9984EBA38C20E2866E
:201940009220EAB9A8EB8197ED959C20EC8381ED839CEC9790EC849C2043574A415020EC8D
:201960009EACEC8B9CEB8F84005B4E45545D2043574A4150204F4B20E2809420EAB2B0EDAF
:2019800095A9EB9090EB8BA42E20495020EBA5BC20EC8BA4ECA09CEBA19C20EBB09BEC952F
:2019A00098EB8A94ECA78020434946535220EBA19C20ED9995EC9DB8ED959CEB8BA400EDF3
:2019C0009A8C2028EAB5ACED989520ED8E8CEC9BA8EC96B4EB8A9420EC82ACEC9CA0EBA5AD
:2019E000BC20ECA3BCECA78020EC958AEB8A94EB8BA429005B4E45545D20E29885204357BE
:201A00004A415020EC8BA4ED8CA82000ECA091EC868D20EC8BA4ED8CA800EAB7B8205353D8
:201A2000494420EC9D9820415020EBA5BC20EBAABB20ECB0BEEC9598EB8BA400EBB984EB8B
:201A4000B080EBB288ED98B8EAB08020ED8B80EBA0B8EB8BA400ECA091EC868D20EC8B9C16
:201A6000EAB084ECB488EAB3BC005B4E45545D20E298852043574A415020EC8BA4ED8CA818
:201A800020EC82ACEC9CA03A20005B4E45545D206275737920E280942045535020EAB080B0
:201AA00020EC959E20EBAA85EBA0B9EC9D8420ECB298EBA6AC20ECA491EC9DB4EB8BA42E03
:201AC00020ECA084ECA784ED9598ECA78020EC958AEB8A94EB8BA4005B4E45545D205749E5
:201AE000464920444953434F4E4E45435420E2809420495020EBA5BC20EC9E83EC9788EBEF
:201B00008BA4005B4E45545D205749464920474F5420495020E2809420495020ED9995EBF0
:201B2000B3B42E2039ECB48820EB8C80EAB8B0ECB0BDEC9D8420EB819DEAB98CECA7802035
:201B4000EAB8B0EB8BA4EBA6ACECA78020EC958AEAB3A020EBB094EBA19C20EB8BA4EC9D27
:201B60008C20EB8BA8EAB384EBA19C006D73005B534C4F542D4F4F575D202B005B41545DBE
:201B800020005B41434B515D20EAB080EB939D20ECB0B820E2809420EAB080EC9EA520ECF9
:201BA00098A4EB9E98EB909C20EBB3B4EBA5982041434B20EBA5BC20EBB284EBA6B0EB8BC4
:201BC000A4000000000023002600290000000000250028002B000404040404040404020253
:201BE000020202020303030303030102040810204080010204081020010204081020BD236E
:201C0000023111241FBECFEFD8E0DEBFCDBF84B78093EC0514BE0FB6F894A89580916000D0
:201C2000886180936000109260000FBE12E0A0E0B1E0E4E1FBE602C005900D92AC39B1073D
:201C4000D9F725E0ACE9B2E001C01D92AC3EB207E1F71DE0C0E0DEE004C02197FE010E9425
:201C60004D32CF3FD107C9F70E9468240C947D350C9400000F931F93CF93DF93DB0150E0EB
:201C800040E030E020E061E070E0C5E0D0E0FB01042E02C0EE0FFF1F0A94E2F7E823F92385
:201CA000EF2B61F0FE01E41BF50B8B0102C0000F111FEA95E2F7F801202B3F2B4F5F5F4FCC
:201CC0004630510521F7F901EF70FF27E65BFE4F808111968C93119784E0369527958A959A
:201CE000E1F7F901E65BFE4F80818C9312961C92DF91CF911F910F91089521E030E0A90196
:201D000002C0440F551F8A95E2F7CA012091290530912A0524233923232B69F420912F0575
:201D2000222359F020912B0530912C052423392381E0232B19F080E0089581E00895833039
:201D400081F028F4813099F08230A9F008958730A9F08830C9F08430B1F4809180008F7D1D
:201D600003C0809180008F7780938000089584B58F7784BD089584B58F7DFBCF8091B000EC
:201D80008F778093B00008958091B0008F7DF9CFCF93DF93282F30E0F901E358FC4E849179
:201DA000F901E651F44ED491F901EA52F44EC491CC23A1F081110E949F0EEC2FF0E0EE0F35
:201DC000FF1FEE53F44EA591B491EC91ED2381E090E009F480E0DF91CF91089580E090E0EF
:201DE000FACF1F93CF93DF93282F30E0F901E358FC4E8491F901E651F44ED491F901EA528B
:201E0000F44EC491CC23A9F0162F81110E949F0EEC2FF0E0EE0FFF1FE453F44EA591B49183
:201E20008FB7F894EC91111108C0D095DE23DC938FBFDF91CF911F910895DE2BF8CFCF93F7
:201E4000DF9390E0FC01E651F44E24918A52944EFC0184918823C9F090E0880F991FFC0185
:201E6000ED58FC4EA591B491FC01E453F44EC591D49161110DC09FB7F8948C91209582238F
:201E80008C938881282328839FBFDF91CF910895623051F49FB7F8943C91822F8095832367
:201EA0008C93E8812E2BEFCF8FB7F894EC912E2B2C938FBFEACF2FB7F894609106047091A7
:201EC000070480910804909109042FBF08956091DC037091DD038091DE039091DF0324E176
:201EE00030E040E050E00E94F43121E06A3071058105910508F020E0822F08958DE00E9439
:201F0000C80E21E0019709F020E0822F089521E0672B682B692B09F420E0622F8DE00E94B4
:201F2000F10E81E00895EF92FF920F931F93CF93DF938C017B01D0E0C0E0F701EC0FFD1F02
:201F40006491662361F0D801ED91FC910190F081E02DC8010995892B11F02196EECFCE0160
:201F6000DF91CF911F910F91FF90EF900895AF92BF92CF92DF92EF92FF920F931F93CF936A
:201F8000DF936C017B018B01040F151FEB015E01AE18BF08C017D10759F06991D601ED91F4
:201FA000FC910190F081E02DC6010995892B79F7C501DF91CF911F910F91FF90EF90DF9099
:201FC000CF90BF90AF900895FC01538D448D252F30E0842F90E0821B930B541710F0CF9637
:201FE000089501970895FC01918D828D981761F0A28DAE0FBF2FB11D5D968C91928D9F5F10
:202000009F73928F90E008958FEF9FEF0895FC01918D828D981731F0828DE80FF11D858DB7
:2020200090E008958FEF9FEF0895FC01918D228D892F90E0805C9F4F821B91098F73992735
:20204000089580E395E00E94151021E0892B09F420E0822F089580E090E0892B29F00E9405
:20206000211081110C9400000895FC01A48DA80FB92FB11DA35ABF4F2C91848D90E00196E5
:202080008F739927848FA689B7892C93A089B1898C91837080648C93938D848D981306C025
:2020A0000288F389E02D80818F7D80830895EF92FF920F931F93CF93DF93EC0181E0888FC1
:2020C0009B8D8C8D98131AC0E889F989808185FF15C09FB7F894EE89FF896083E889F98936
:2020E00080818370806480839FBF81E090E0DF91CF911F910F91FF90EF900895F62E0B8D4F
:2021000010E00F5F1F4F0F731127E02E8C8D8E110CC00FB607FCFACFE889F989808185FF9E
:20212000F5CFCE010E943510F1CFEB8DEC0FFD2FF11DE35AFF4FF0829FB7F8940B8FEA89CC
:20214000FB8980818062CFCF682F80E395E00C945710CF93DF93EC01888D8823B9F0AA89A7
:20216000BB89E889F9898C9185FD03C0808186FD0DC00FB607FCF7CF8C9185FFF2CF808184
:2021800085FFEDCFCE010E943510E9CFDF91CF91089520915203309153032817390771F423
:2021A0009091500380915103981741F0E0915003F0E0E05FFC4F808190E008958FEF9FEF2E
:2021C00008950895EF92FF920F931F93CF93DF93DC015C96ED90FC905D97E114F10479F468
:2021E00081E090E013969C938E93129790E080E0DF91CF911F910F91FF90EF9008955196EA
:20220000ED91FC91529750968C915097982F90950FB75E962C915E97122F127021FD6095B2
:20222000F8942081112319F1282B2083E7012197F1F728E0462F50E0308160FF1AC0382BBB
:202240003083E7012197F1F7BA0175956795215089F7112381F08081892380830FBF5C967C
:202260008D919C910197F1F781E090E0C1CF2923DCCF3923E5CF9081892BEFCF20915203A2
:20228000309153032817390761F4809151032091500390E0805C9F4F821B91098F739927B7
:2022A000089590E080E00895209152033091530328173907B9F49091500380915103981743
:2022C00089F0E0915003F0E0E05FFC4F80812091500330E02F5F3F4F2F7333272093500334
:2022E00090E008958FEF9FEF089590E080E00895282FDB01FC0191918D913FE9390F3A3170
:2023000008F490523FE9380F3A3108F48052981306C08E2F821B841770F381E0089580E010
:202320000895FB0180839183FC0181E09191992391F09C32D9F7DF0111971C92841750F47D
:20234000A82FB0E0AA0FBB1FA60FB71FED93FC938F5FECCF8FEF08951F93CF93DF93EB01B3
:20236000009729F1FC012081222309F120E030E0A90111911123E9F080ED810F8A30B8F403
:20238000AAE0B0E00E94E131412F110F550B405351099A01550F440B550B260F371F481FF2
:2023A000591F2115310581E04807510510F380E003C03983288381E0DF91CF911F91089528
:2023C00028E0829FC0011124DB0130E020E08356984FFC01E20FF31FE491ED93EE2339F003
:2023E0002F5F3F4F23303105A1F7FB0113820895DB0128E0829FC0011124FC01E656F84FF7
:20240000E491EC938556984FFC01849111968C93119712961C92089510928804109271044E
:202420001092700410926F0410921D0510921E058091E6039091E7038F3F980729F00196C6
:202440009093E7038093E60381E08093820486E0809381040E945B0F60937D0470937E0476
:2024600080937F049093800410920901109208010895CF93DF93382FDC01E0E02A2F231BBC
:20248000261718F42D91E227F9CFDC01A60FB11DCE2FD0E084E0D595C7958A95E1F7C65B15
:2024A000DE4F88818C93EF70F0E0E65BFE4F808111968C93119712961C9282E0860FDF91DE
:2024C000CF910895CF93DF93EB01809381040E945B0F60937D0470937E0480937F049093E9
:2024E0008004D0930901C0930801DF91CF910895CF92DF92EF92FF921F93CF93DF93CDB734
:20250000DEB728970FB6F894DEBF0FBECDBF6C017B0110E0BE016B5F7F4F812F0E94F81195
:20252000B601CE0105960E946732892B01F5BE016F5F7F4F812F0E94E01189818F34D1F465
:20254000E12FF0E0EE0FFF1FEC55FB4FF182E08281E028960FB6F894DEBF0FBECDBFDF914A
:20256000CF911F91FF90EF90DF90CF9008951F5F163081F680E0EDCFCF92DF92EF92FF9297
:202580001F93CF93DF9300D000D0CDB7DEB76C017B0110E0BE016F5F7F4F812F0E94F8116D
:2025A000B601CE0101960E946732892BA9F4E12FF0E0EE0FFF1FE856FB4FF182E08281E0B9
:2025C0000F900F900F900F90DF91CF911F91FF90EF90DF90CF9008951F5F1630D9F680E093
:2025E000EFCFFB0101900020E9F73197AF01461B570BDC01ED91FC910280F381E02D0994CD
:202600006FE771E080E395E00C94F112CF93DF93BC0180E395E00E94930FEC010E94001349
:202620008C0F9D1FDF91CF910895EF92FF920F931F93CF93DF93EC0140911D0520911E05E8
:2026400030E010E000E05CE0E52EF12C0417C8F4C901800F911FB7010E943932FC01EE0F8F
:20266000FF1FEB5FFA4F808191810F5F1F4F8C179D0761F7DF91CF911F910F91FF90EF90ED
:2026800008954C30D9F4C90101966CE070E00E94393280931E058BE080931D0580911F053F
:2026A000909120058F3F980729F001969093200580931F0582E89BE10E94061320911D05C4
:2026C00080911E05820F9927991F6CE070E00E943932FC01EE0FFF1FEB5FFA4FD183C083D2
:2026E0002F5F20931D05C6CFDC01822FE09103052E2F30E095E0E99FF0011124ED54FB4FC0
:20270000B183A0836283438384832F5F3F4F2F7033272093030590910405903118F49F5FEB
:2027200090930405CD010C9415138F929F92AF92BF92EF92FF920F931F93CF93DF93CDB735
:20274000DEB7A1970FB6F894DEBF0FBECDBF7C01FA01CB0119A2223008F42AE08E010F5D13
:202760001F4F822E912CB12CA12CBF01A50194010E94F431F901CA016A300CF5605DD8011C
:202780006E938D01232B242B252B79F790E080E0109721F0BD01C7010E94F112A1960FB69E
:2027A000F894DEBF0FBECDBFDF91CF911F910F91FF90EF90BF90AF909F908F900895695C2B
:2027C000DECF2AE00C949513482F50E070E060E02AE080E395E00C949513809171048F3F45
:2027E00019F08F5F8093710469E27AE080E395E00E94930F809171040E94E4138FE20E9467
:20280000A41083E00E94E4130E94001380917104833080F06BE17AE080E395E00E94930FE8
:20282000809171040E94E41388EC99E00E9406130C940C120895CF93DF93AB01BC012AE02F
:2028400080E395E00E949513EC010E9400138C0F9D1FDF91CF910895CF92DF92EF92FF920C
:202860006B017C0181E091E0C916D104E104F10409F080E08093B20482E0C816D104E104F3
:20288000F10451F1B8F461E081E0C816D104E104F10419F162E479E080E395E00E94930F61
:2028A000C701B6010E941B1480E0FF90EF90DF90CF90089595E0C916D104E104F10450F7A5
:2028C0006CE679E080E395E00E94930FC701B6010E941B1481E0E9CF60E086E00E94F10E81
:2028E000EFCFCF92DF92EF92FF926B017C0180E8C81686E9D80688E9E806F10480F06EEF99
:2029000078E080E395E00E94930FC701B6010E941B1480E0FF90EF90DF90CF9008956FE1CA
:2029200079E080E395E00E94930FC701B6010E941B1481E0EFCFAB0170E060E02AE00C94CD
:202940009513CF93DF93BC0180E395E00E949B14EC010E9400138C0F9D1FDF91CF910895AF
:2029600081E0809385048091E4039091E5038F3F980729F001969093E5038093E40366E7EA
:2029800079E080E395E00E94930F8091E4039091E5030C94A114CF92DF92EF92FF92CF9326
:2029A000DF930E945B0F6B017C01D0E0C0E00E945B0F6C197D098E099F096837710581056F
:2029C000910578F48DEC95E00E943E11892B79F38DEC95E00E945411CF3FDC0799F32196CD
:2029E000F1CF109200031092FF021092BA0361EC70E080E395E00E94930FBE0180E395E020
:202A00000E949B1489E990E0DF91CF91FF90EF90DF90CF900C9406138F929F92AF92BF923A
:202A2000CF92DF92EF92FF92CF93DF93C82F0E945B0F6B017C0180910503882319F1809113
:202A4000010390910203A0910303B0910403A7019601281B390B4A0B5B0BDA01C901883EE1
:202A60009340A105B10570F48AE195E0DF91CF91FF90EF90DF90CF90BF90AF909F908F905B
:202A80000C94061381E080930503C0920103D0920203E0920303F092040369E075E080E342
:202AA00095E00E94930F69EF74E0C13031F068EE74E0C23011F06DED74E080E395E00E94DA
:202AC000930F6EEC74E080E395E00E94930F8091540390915503A0915603B0915703A701DC
:202AE0009601281B390B4A0B5B0BCA01B90128EE822E23E0922EA12CB12CA50194010E9468
:202B0000F431BA01A90180E395E00E94E11361EC74E080E395E00E94930F80918E040E94BB
:202B2000E4136CEA74E080E395E00E94930F8091890490918A04A0918B04B0918C04009763
:202B4000A105B10509F45BC0A7019601281B390B4A0B5B0BCA01B901A50194010E94F431F9
:202B6000BA01A90180E395E00E94E11383E70E94A41069E974E080E395E00E94930F8091EF
:202B8000F6030E94E41364E974E080E395E00E94930F8091F5030E94E41388E894E00E94BE
:202BA00006131092890410928A0410928B0410928C048091F603C23049F5833038F583E0BD
:202BC0008093F6031092F5038AE294E00E94061380918E048230F0F18091830481113AC05A
:202BE00064EF71E087E0DF91CF91FF90EF90DF90CF90BF90AF909F908F900C94621265EADF
:202C000074E080E395E00E94930FB3CF9091F5039E3F18F49F5F9093F503E82FF0E0ED5D76
:202C2000FE4F20819091F503921790F2853080F68F5F8093F6031092F5036AE074E080E3A2
:202C400095E00E94930F8091F6030E94E41386E094E0BCCF8091F603E82FF0E0EE0FFF1FA7
:202C6000E95EFE4FC081D181823009F44BC0F8F4882309F441C08130E9F18FE891E00E94C9
:202C800006138AE391E00E94061368E171E080E395E00E94930FCE0168EE73E00E9425325B
:202CA00080E395E00E949B148CEE90E054C0833009F440C0843009F78EEF92E00E940613DF
:202CC0008FEA92E00E9406138FE492E00E9406136FE372E080E395E00E94930FCE0168EEC9
:202CE00073E00E94253280E395E00E949B148CEF91E031C00E94CB14109286046CE271E036
:202D000083E071CF6FEE73E080E395E00E94930FCE0168EE73E00E94253280E395E00E9459
:202D20009B1481EA93E00E94061310928F04BE018AE059CF6AE873E080E395E00E94930F04
:202D4000CE0168EE73E00E94253280E395E00E949B148EE593E00E94061310928F04BE0144
:202D600080E041CFCF93DF93D0E0C0E0009731F0BC0180E395E00E94F112EC010E9400132B
:202D80008C0F9D1FDF91CF910895CF92DF92EF92FF926B017C0162E871E080E8C81686E952
:202DA000D80688E9E806F104A0F080E395E00E94F11265E279E080E395E00E94930FC70150
:202DC000B6010E941B1480E0FF90EF90DF90CF90089580E395E00E94F11280E20E94A4105D
:202DE000C701B6010E941B1481E0EECFAF92BF92CF92DF92EF92FF920F931F93CF93DF93C7
:202E0000CDB7DEB762970FB6F894DEBF0FBECDBFDC010D900020E9F79D0121503109281B53
:202E2000390B122F4FEF420F4F3308F067C0FC01A0814A2F4B7F433449F0A43539F0AD34E9
:202E400029F04FEA4A0F423008F058C0B82FFC0150E040E06FEF7FEF01910C3209F4BA01BD
:202E60004F5F5F4F4117C0F38C016F3F760789F13327261B370B2330310559F5FC01E60F13
:202E8000F71F918120ED290F2A3030F08FEB890F8630F8F429EC290F328190ED930F9A30AE
:202EA00030F08FEB830F8630A0F499EC930F81E0860FF80140E03E2F3B1B381718F4319186
:202EC0004327F9CF80E1289F90011124922B941731F18091D6039091D7038F3F980729F0DD
:202EE00001969093D7038093D60362EF78E080E395E00E94930FC8010E94B21662960FB69D
:202F0000F894DEBF0FBECDBFDF91CF911F910F91FF90EF90DF90CF90BF90AF900895A7342D
:202F200009F00FC146E0BE016F5F7F4FC8010E949111188A1F8684508B3F00F7BE01615FDF
:202F40007F4F8B819C810E94AC118823B9F21A8A198ABE016F5E7F4F8D819E810E94AC1198
:202F6000182FC12CD12C7601882389F1EF81F885309749F18081C12CD12C7601882331F167
:202F80000191002321F180ED800F8A30E0F4BAE9CB16B9E9DB06EB06B9E1FB06A0F4AAE02F
:202FA000B0E0A70196010E94E131202F000F330B205331096901330FEE08FF08C60ED71ED3
:202FC000E81EF91EDDCFC12CD12C760110E02F8538894091040583EB94E0E0E04E1759F038
:202FE0000596DC0115976D917C912617370709F063C0E7FF63C0112309F470C0A988BA882E
:203000008FEFA816B10411F008F068C0A5E0AA1508F464C0F501EE0FFF1FEC55FB4F01900D
:20302000F081E02D309709F459C081E0C114D104E104F10409F480E08093B204C701B601AB
:203040000995882309F44AC081E090E002C0880F991FAA94E2F72091B0043091B10440917B
:20306000B2044423B1F1822B932B9093B1048093B00469ED78E080E395E00E94930F6989CB
:203080007A8980E395E00E949B1463ED78E080E395E00E94930FC701B6010E941B1420E0F0
:2030A00089899A896AE070E00E94253240E3480F67E48F859889DDC0EF5F90CF25E0E2021B
:2030C000F0011124ED54FB4F808191810E94151315CF8095909582239323C7CF62EE78E0AB
:2030E00080E395E00E94930F69897A8980E395E00E949B14111106C089EB98E00E94061307
:2031000023E0CECF89899A898F3F910509F0A0F7863048F4880F991FFC01EC55FB4F80811C
:203120009181892B19F486EA98E0E8CF6BE878E080E395E00E94930FC701B6010E941B1406
:20314000DFCFA13551F481E080930B0410920A0488E498E00E940613D1CEBE016F5F7F4FDA
:20316000CB018D5E954020910601309107018217930720F4909307018093060147E0C801C6
:203180000E949111E82EBFEF8B1709F4B7CEE981FA81008145E0F42E023551F036E0F32EA7
:2031A000043531F053E0F52E0D3411F024E0F22EE2E0EE1508F0A2CEBE01615F7F4F8B8173
:2031C0009C810E94AC11882309F498CE8F8598894091040523EB34E010E0411759F02B5F19
:2031E0003F4FF9013597608171818617970791F417FF12C0EF14F9F06BE278E080E395E097
:203200000E94930F8F8598890E94A11423E04FE36FE34FCF1F5FE1CF6DE378E080E395E08B
:203220000E94930F8F8598890E94A11425E01202F001112447CF043509F050C0ED81FE813A
:203240002181211136C05081513469F05434A1F410922F0510922C0510922B0510922E0588
:2032600010922D0503C021E020932F054FE36FE320E00E94741342CE533511F05835C9F43F
:20328000EF81F88509851A85DF010D900020E9F79D01235031092E173F0759F441816081D1
:2032A000413339F4613409F439C171E0623409F436C14FE36FE323E0DCCF209530952A230D
:2032C0003B2361C120953095F701E223F323F0932C05E0932B05F3CF24E0CBCF0D3409F0F0
:2032E000C1C080E00E947D0EC82E882351F08091250580FF06C0209127053091280520FF74
:203300005BC081E00E947D0E882309F4FCC08091250581FF06C0209127053091280521FF34
:2033200096C0C394D12CF12CE12C0E946A31A70196010E94C231062F162F80E00E947D0EA1
:20334000882321F00150112351F0102F81E00E947D0E882309F4D9C01111D7C011E0E12E24
:20336000F12CCC24C394D12C5601012E02C0AA0CBB1C0A94E2F78091270590912805A82647
:20338000B926B0922805A09227058FEFE81AF80AA1E0EA22FF248E2D0E947D0E882389F142
:2033A00002C0CC0CDD1CEA94E2F7AC24BD24B0922805A092270525C041E050E010E090E00F
:2033C00080E06A01C22AD32AD0922805C09227057C01FFEFEF1AFF0A21E0E222FF248E2DCC
:2033E0000E947D0E882369F081E090E002C0880F991FEA94E2F78C299D2990932805809385
:20340000270502E4111101C001E469EE77E080E395E00E94930F802F0E94A41081E30E94FD
:20342000A4106AED77E080E395E00E94930F809127059091280502C0969587951A95E2F7F2
:20344000817099270E94A11441E320E065C042E050E011E081E090E0B4CFC12CD12C760123
:20346000C39463CFED81FE81DF010D900020E9F7CD0103978E179F0749F44181413331F40E
:203480006081613489F021E0623479F06AEC77E080E395E00E94930F8F8598890E94A114E8
:2034A0004FE36FE323E005CE20E081E090E002C0880F991F2A95E2F70235A9F4209123058B
:2034C0003091240528233923232BD9F42091250530912605FC01E223F323822B932BEF2BDC
:2034E00051F022E0E6CD80959095209125053091260582239323909326058093250520E0EF
:20350000D8CD21E0D6CDC110A8CF8CEF97E00E9406134FE30FE325E0602FCBCD70E0533545
:2035200069F4F80120812053223008F0C2CE21812111BFCE62E4711101C061E420912F0533
:20354000222309F4C9CE21E030E002C0220F331F7A95E2F7E0902B05F0902C05A0912D05A0
:20356000B0912E05533509F0ADCEF8015081F701E22BF32BF0932C05E0932B05503309F417
:203580009CCE2A2B3B2B30932E0520932D0570CEBF92CF92DF92EF92FF920F931F93CF9302
:2035A000DF938091940490919504A0919604B09197040196A11DB11D809394049093950405
:2035C000A0939604B09397046CE77BE180E395E00E94930F0CE014E0F80101900020E9F70B
:2035E0008F010D501440B02E68E973E180E395E00E94930F9CE0E92E94E0F92E6701D0E0A5
:20360000DB1528F5F601C1916F0180EE8C0F8F3528F48C2F0E94A410DF5FF2CF65E973E149
:2036200080E395E00E94930FEC2FF0E084E0F595E7958A95E1F7E65BFE4F80810E94A4103D
:20364000CF70EC2FF0E0E65BFE4F8081E3CF61E973E180E395E00E94930F802F0E94E413FD
:2036600089E20E94A4100E94001367E871E08CE094E00E947E32EC01892BE1F1C0909204A9
:20368000D0909304F12CE12CF8E5CF16F2E0DF06E104F104E0F480919004909191048F3FB9
:2036A000980729F0019690939104809390046FE67BE180E395E00E94930FB701A60180E3CD
:2036C00095E00E94E1138CE69BE10E9406136AE370E0CE010E945C320097D9F10196DF9132
:2036E000CF911F910F91FF90EF90DF90CF90BF900C94F61644E050E06DE871E08CE094E069
:203700000E947032892B09F04DC062E971E08CE094E00E947E32892B31F181E080938F0400
:2037200010928E0410928D040E945B0F6093890470938A0480938B0490938C0483E09BE1D1
:203740000E9406138091880468EC70E0882309F4E3C0DF91CF911F910F91FF90EF90DF9085
:20376000CF90BF90089569E971E08CE094E00E947E32892B71F310928F0488ED9AE10E944A
:203780000613809188048111E4CF10928D04DF91CF911F910F91FF90EF90DF90CF90BF90B0
:2037A0000C940C15809188048111C1C1C0910A01CB3008F0BCC164EA71E08CE094E00E94AA
:2037C0007E32892BF1F08AE89AE10E94061380910A01833081F491E0909387046CED75E0EB
:2037E000DF91CF911F910F91FF90EF90DF90CF90BF900C9462129CEF980F923008F0A9CF06
:20380000EDCFC23009F08AC047E050E069EA71E08CE094E00E947032892BA1F56AE67AE1A3
:2038200080E395E00E94930F80911304823321F17CF48133A1F08CE094E0DF91CF911F9168
:203840000F91FF90EF90DF90CF90BF900C94B2168333A9F0843379F78CE09AE102C086E5AB
:203860009AE1DF91CF911F910F91FF90EF90DF90CF90BF900C9406138CE39AE1F2CF8AE1B3
:203880009AE1EFCF6FE272E08CE094E00E947E32892B41F461EB71E08CE094E00E947E3262
:2038A000892BD9F080918E048A3F18F48F5F80938E0410928F0410928D0464EF79E180E308
:2038C00095E00E94930F80918E040E94E4138FEB99E10E94061380E05ACF67E272E08CE0B4
:2038E00094E00E946732892B09F0D8C289E699E10E94061310928E041092860410928D049B
:203900000E945B0F6093890470938A0480938B0490938C046CE271E083E062CFCA3009F50A
:2039200067E272E08CE094E00E946732892B89F061EB71E08CE094E00E947E32892B49F4E4
:2039400067EB71E08CE094E00E947E32892B09F4A5C28AE199E10E94061364EF71E082E0D4
:203960003FCFC33009F09AC243E050E06DEB71E08CE094E00E947032892B09F48FC28CE063
:2039800094E04AE001C0CD01DC012D91222309F477C220532A30B8F734E08C30930731F0DD
:2039A000FC013197208120532A3068F3FC0130E090E020E0819150ED580F5A3030F4249FD5
:2039C000800D112420ED280FF5CF911101C0322F8E3211F49F5FEDCF9330A9F6332399F297
:2039E00081E080938F041092860410928504109287048091890490918A04A0918B04B091EE
:203A00008C04892B8A2B8B2B51F40E945B0F6093890470938A0480938B0490938C0464E0FC
:203A200079E180E395E00E94930F8CE094E00E94B21668EC70E084E0D3CE883069F567E2BE
:203A400072E08CE094E00E946732892BB1F061EB71E08CE094E00E947E32892BB1F468EE26
:203A600071E08CE094E00E947E32892B09F45FC010928F0487E495E14EC089E798E10E9444
:203A800006136CE271E089E0ABCE89E198E10E94061389EC97E1F3CF893009F747E050E02F
:203AA0006BEC71E08CE094E00E947032892B69F463ED71E08CE094E00E947E32892B09F4A5
:203AC00048CE81E08093840444CE67E272E08CE094E00E946732892B49F061EB71E08CE016
:203AE00094E00E947E32892B09F4B9CF81E0809383048CE597E10E940613809184048823E4
:203B000079F080E097E10E9406138CE896E10E9406138DE396E10E94061368EE73E01FCFCA
:203B20008FEE95E10E9406138DE995E1F4CF6EEE71E08CE094E00E947E32892B09F45CC07C
:203B40006CE971E08CE094E00E947E32892B09F453C0809182048823B1F08BEE94E10E9456
:203B6000061386E0809381040E945B0F60937D0470937E0480937F04909380041092090140
:203B800010920801E6CD81E0809388040E945B0F6093790470937A0480937B0490937C0495
:203BA00080917804882371F080917604909177048F3F980729F001969093770480937604FD
:203BC000109278040E945B0F609372047093730480937404909375041092710410920B04E9
:203BE00081E080930A041092700410926F0410926E0489EB94E135CEC701F7012081FFEFC9
:203C0000EF1AFF0A2032C1F32930B1F32053253028F4FC0121812C3209F40296FC0101908B
:203C20000020E9F73197E81BF90B2E2FE80FF92FF11D222309F473C03291303219F03B7FCE
:203C4000393011F42150F5CF47E06CE971E0273031F0263009F063C046E064EF71E00E949E
:203C60007811882309F45BC081E0809388040E945B0F6093790470937A0480937B04909346
:203C80007C0480917804882371F080917604909177048F3F980729F0019690937704809316
:203CA0007604109278040E945B0F609372047093730480937404909375041092710410929D
:203CC0000B0481E080930A041092700410926F041092820410926E0410928E04109286048C
:203CE00080938F048091890490918A04A0918B04B0918C04892B8A2B8B2B51F40E945B0FD0
:203D00006093890470938A0480938B0490938C04109203051092040582E994E1A2CD6BEF3F
:203D200071E08CE094E00E947E32892BB9F462E072E08CE094E00E947E32892B79F469E06F
:203D400072E08CE094E00E947E32892B39F48091880481112EC08CE094E0C1CC1092880446
:203D60001092710410920B0481E080930A041092700410926F041092820410926E041092F0
:203D800003051092040583E0809381040E945B0F60937D0470937E0480937F049093800433
:203DA0008CE291E0909309018093080110928604D0CC60E172E08CE094E00E947E32892B9A
:203DC00079F082E494E10E940613DF91CF911F910F91FF90EF90DF90CF90BF900C940C12DB
:203DE00047E050E062E272E08CE094E00E947032892B29F41092700410926F04AACC49E017
:203E000050E06AE272E08CE094E00E947032892BF9F41092700410926F0480916C04909142
:203E20006D048F3F980729F0019690936D0480936C0484EE93E10E940613DF91CF911F91BC
:203E40000F91FF90EF90DF90CF90BF900C94ED1361EB71E08CE094E00E947E32892B49F437
:203E600064EA71E08CE094E00E947E32892B09F472CF6AE973E180E395E00E94930FDBCC15
:203E800064E372E08CE094E00E946732892B31F480918504811102C00E94B01480910A0125
:203EA000843009F0CACD67E272E08CE094E00E946732892B49F061EC71E08CE094E00E94FB
:203EC0007E32892B09F4CBCD8EED98E10E94061368EC70E085E084CCCF93DF93D82F8091F5
:203EE000F0039091F103A091F203B091F3030196A11DB11D8093F0039093F103A093F203F5
:203F0000B093F303DA3009F0B2C08091FF028823A1F066E870E080E395E00E94930F80E685
:203F20000E94E41388E690E00E940613109200031092FF02DF91CF9108954091000344235F
:203F4000C9F350E0FA01E156FD4F10821092000380910B03882309F476C08091BA03811163
:203F600031C04F5F5F4F6FE972E08AE593E00E94533280919D0290919E029093590380933E
:203F8000580381E08093BA038091CA039091CB038F3F980729F001969093CB038093CA03DA
:203FA00080910A03803430F28091C8039091C9038F3F980709F4BECF01969093C9038093B4
:203FC000C803B8CF62E272E08FE992E00E947E3220910A03892BD1F08091D2039091D303AD
:203FE0008F3F980729F001969093D3038093D203203460F08091CE039091CF038F3F9807DD
:2040000029F001969093CF038093CE038091CC039091CD038F3F980729F001969093CD0336
:204020008093CC03203408F485CF8091C6039091C7038F3F980709F47DCF01969093C703FB
:204040008093C60377CF4F5F5F4F6FE972E08CE094E00E94533280919D0290919E0290939D
:20406000930480939204DF91CF910C94C81A80917004882309F441C080919C02E82FF0E0EA
:20408000E15FFE4F90819D1333C08F5F873019F080939C0222C010929C02109270041092A6
:2040A0006F048091D4039091D5038F3F980729F001969093D5038093D40380910A038034D8
:2040C00060F08091D0039091D1038F3F980729F001969093D1038093D003DD3009F42ACFBA
:2040E000C0910003CF3560F081E08093FF0222CF81E0D33569F280E0CBCF10929C02EDCFF8
:20410000C1110CC00E945B0F2091E8033091E903621B730B70939E0260939D0281E08C0F80
:2041200080930003EC2FF0E0E156FD4FD08302CF8DEC95E00E943E11892B39F08DEC95E02D
:204140000E9454110E946C1FF3CF8091EB0580FF0FC08E7F8093EB058091D8039091D90321
:204160008F3F980729F001969093D9038093D80308952F923F924F925F927F928F929F92D1
:20418000AF92BF92CF92DF92EF92FF920F931F93CF93DF931F92CDB7DEB79E012C5E354019
:2041A00040910601509107012417350720F4309307012093060170908804711015C0E12C3F
:2041C0008E2D0F90DF91CF911F910F91FF90EF90DF90CF90BF90AF909F908F907F905F90AF
:2041E0004F903F902F9008959B0121503109203A310528F78B016C01E0907004EE2009F4D7
:204200005AC00E945B0F00910C0310910D0320910E0330910F03DC01CB01801B910BA20B05
:20422000B30B80342FE19207A105B10568F5803D9740A105B105B8F080916F04811113C029
:2042400081E080936F048091E2039091E3038F3F980729F001969093E3038093E20388E4F0
:2042600097E00E9406138091C4039091C5038F3F980729F001969093C5038093C40380EFFA
:2042800096E00E9406139BCF1092700410926F048091E0039091E1038F3F980729F0019642
:2042A0009093E1038093E00384E996E00E9406130E940C1284CF81E080930B0360930A03CE
:2042C0000E945B0F8090060390900703A0900803B0900903681979098A099B0960357105C3
:2042E0008105910518F40E949820EACF68E876E08DEC95E00E94930F4801FFEF8F1A9F0A22
:20430000B4018DEC95E00E949B1465E876E08DEC95E00E94930F0E945B0F1B012C01B12CA2
:20432000A12C0E945B0F62197309840995096C3271408105910508F048C08DEC95E00E9487
:204340003E11892B71F38DEC95E00E945411F82E8EE3F81609F470C08F2D0E946C1F8FEBCC
:204360008F0D8A3110F4E0E2FE0EEA2DF0E0E15DFE4F8081A3948F1529F0AA24A394F2E6D0
:20438000FF12A12CEA2DF0E0E15DFE4F8081882309F4B4C0EB2DF0E0E75DFE4F8081B394EF
:2043A0008F1529F0BB24B39425E6F212B12CEB2DF0E0E75DFE4F80818111BFCF92E0F92EFB
:2043C0008EED95E00E94061367C083E0F82EB12CA12C63E28DEC95E00E94E210C5018F704C
:2043E00099270F9711F40E9498208FEFA81AB80A0A151B0571F76AE08DEC95E00E94E21083
:204400000E9498208091FB039091FC038F3F980729F001969093FC038093FB0362EB75E021
:2044200080E395E00E94930FB40180E395E00E949B1484E795E0C6CFF12C0C0D1D1D560146
:2044400045018C189D08F50161915F018DEC95E00E94E210FFE08F2299242FE0821691047A
:2044600011F40E9498200A151B0551F76AE08DEC95E00E94E2100E94982081E08093700448
:2044800010926F040E945B0F60930C0370930D0380930E0390930F030E945B0F6093060385
:2044A00070930703809308039093090310920B0363E675E0F11002C06EE675E080E395E010
:2044C0000E94930FC6010E94B216F1E0FF1649F1F11019C0109271040E945B0F60937204E1
:2044E0007093730480937404909375041092BF031092C0031092C103E72C62CEFF24F394FF
:204500008FE196E05FCF0E94ED1322E0F21212C08091BF038F3F09F452CE8F5F8093BF038C
:204520004FCE8091C1038F3F09F449CE8F5F8093C10346CE8091C0038F3F09F441CE8F5F32
:204540008093C0033DCE1F920F920FB60F9211242F933F938F939F93AF93BF9380910604F6
:2045600090910704A0910804B09109043091050423E0230F2D3758F50196A11DB11D2093FE
:2045800005048093060490930704A0930804B09309048091010490910204A0910304B09182
:2045A00004040196A11DB11D8093010490930204A0930304B0930404BF91AF919F918F912A
:2045C0003F912F910F900FBE0F901F90189526E8230F0296A11DB11DD2CF1F920F920FB6C8
:2045E0000F9211242F933F934F935F936F937F938F939F93AF93BF93EF93FF9380E395E095
:204600000E943510FF91EF91BF91AF919F918F917F916F915F914F913F912F910F900FBEE7
:204620000F901F9018951F920F920FB60F9211242F938F939F93EF93FF93E0914005F09131
:2046400041058081E0914605F091470582FD1BC09081809149058F5F8F7320914A05821737
:2046600041F0E0914905F0E0E05DFA4F958F80934905FF91EF919F918F912F910F900FBEE3
:204680000F901F9018958081F4CF1F920F920FB60F9211242F933F934F935F936F937F93F2
:2046A0008F939F93AF93BF93EF93FF93E0915203F0915303309749F0A685B7858585968DCD
:2046C00091FF14C09C918923A1F4FF91EF91BF91AF919F918F917F916F915F914F913F9168
:2046E0002F910F900FBE0F901F9018959C91892361F7A389B4899C918589809589238C93DE
:20470000868997890197F1F7608D718DA685B785558538E020E0CB010197F1F7822F90E039
:2047200095958795282F4C91452309F02068315091F7868D81FD20958091510390E001965B
:204740008F73992730915003381799F0A0915103B0E0A05FBC4F2C9380935103828D938D37
:204760000197F1F7A389B4898C919589892B8C93ACCF868D8160868FF1CF10923305109282
:20478000320588EE93E0A0E0B0E08093340590933505A0933605B09337052FE531E030936B
:2047A00031052093300525EC30E030933D0520933C0524EC30E030933F0520933E0520EC98
:2047C00030E0309341052093400521EC30E0309343052093420522EC30E0309345052093C8
:2047E000440526EC30E030934705209346051092490510924A0510924B0510924C051092D9
:20480000D0051092CF058093D1059093D205A093D305B093D40581E791E09093CE05809361
:20482000CD051092E4051092E3051092E6051092E5051092E8051092E7051092EA05109228
:20484000E9056091EB056E7F6D7F6093EB056695617081E0682787E00E94F10E61E087E061
:204860000E941F0FE1EFFBE1E491E093DD05EDEDFBE1E491F0E0EE0FFF1FE453F44E85914D
:2048800094919093DF058093DE0560E088E00E941F0F8091EB0581FD04C061E088E00E94F0
:2048A000F10E88E08093D905E2EFFBE1E491E093DA05EEEDFBE1E491F0E0EE0FFF1FEE53D4
:2048C000F44E859194919093DC058093DB050895CF93DF93CDB7DEB7C05DD1090FB6F89492
:2048E000DEBF0FBECDBF789484B5826084BD84B5816084BD85B5826085BD85B5816085BD44
:2049000080916E00816080936E001092810080918100826080938100809181008160809305
:204920008100809180008160809380008091B10084608093B1008091B00081608093B00022
:2049400080917A00846080937A0080917A00826080937A0080917A00816080937A00809157
:204960007A00806880937A001092C100E0914005F091410582E08083E0913C05F0913D058E
:204980001082E0913E05F0913F0580E1808310924805E0914405F091450586E08083E0915A
:2049A0004205F0914305808180618083E0914205F0914305808188608083E0914205F0915C
:2049C0004305808180688083E0914205F091430580818F7D80831092E8051092E705109253
:2049E000E6051092E5051092E4051092E3058DE991E09093EA058093E9059091D90596316B
:204A000008F047C02DEB30E03093E4052093E3052BE931E03093E6052093E5052CE231E099
:204A20003093E8052093E7052091680084E0983048F031E09E3008F430E081E001C0880F06
:204A40003A95EAF7822B809368002DE630E0983050F02BE630E09E3030F02CE630E096315B
:204A600010F030E020E03093E1052093E005292F30E0983008F026C281E001C0880F9A95ED
:204A8000EAF78093E2058091E9059091EA050197F1F78091E7059091E805892B49F1E09142
:204AA0005203F091530315E0ED3CF10709F1309739F0A389B4899C918589809589238C9346
:204AC0008091EB058E7F8093EB0510925103109250038DEC95E09093530380935203E0919A
:204AE000E005F091E10580819091E205892B8083109281040E945B0F60937D0470937E047E
:204B000080937F049093800484EF91E090930901809308010E945B0F6093E8037093E90352
:204B20008093EA039093EB0381E480937C0080917A00806480937A0080917A0086FDFCCF9B
:204B40004091780050917900052E000C660B770B3FB7F8948091010490910204A091030489
:204B6000B091040426B5A89B05C02F3F19F00196A11DB11D3FBFBA2FA92F982F8827820FA9
:204B8000911DA11DB11DF2E0880F991FAA1FBB1FFA95D1F78A019B01082719272A273B2777
:204BA000481759076A077B0721F0C901B8010E94B93110922A05109229058BE390E1FC01A6
:204BC00024912F3F31F021E030E030932A05209329050CE310E1F80124912F3F49F02091C7
:204BE000290530912A05226030932A05209329052091980430919904232B49F4209129052D
:204C000020FF05C0FC01849162E00E941F0F80919A0490919B04892B49F48091290581FF6D
:204C200005C0F801849162E00E941F0F67E67FE08CE392E00E94BC126EE77FE08FE392E0FA
:204C40000E94BC1261E08DE00E941F0F61E086E00E941F0F67E87FE082E492E00E9478123D
:204C600061E774E185E492E00E9478126CE274E188E492E00E94781265EC76E18BE492E05A
:204C80000E94781210922F0510922C0510922B0510922E0510922D05109228051092270527
:204CA00066EF7BE080E395E00E94930F58E9E52E54E0F52E10E000E09E012F5F3F4F1901D8
:204CC000B101802F0E94F811B10180E395E00E94F1128DE30E94A4108091290590912A0544
:204CE000002E02C0969587950A94E2F76CEE7BE080FF08C0F70180819181892B09F4F2C09C
:204D000068EE7BE080E395E00E94930F80E20E94A410F2E0EF0EF11C0130110509F0DFC053
:204D20006EEA7BE080E395E00E94930F0E94001362E97BE080E395E00E94930F81E00E942A
:204D4000E41368E87BE080E395E00E94930F82E00E94E4136CE77BE080E395E00E94930FD0
:204D600086E00E94E4138AE69BE00E94061363E57BE080E395E00E94930F8091EC0581113B
:204D8000BEC089E19BE00E94061362E97AE080E395E00E94930F67E57AE080E395E00E9414
:204DA000930F62E47AE080E395E00E94930F8EE39AE00E9406135E0112EAA10EB11C9E0179
:204DC00021543F4FCC53DF4F39832883C45CD040AE0146545F4FCA53DF4F59834883C65CE1
:204DE000D0400E945B0F2B013C0180918804882309F4AEC08091F603882339F1809179040E
:204E000090917A04A0917B04B0917C04A3019201281B390B4A0B5B0BDA01C90180339547D5
:204E2000A105B10594F068EE7FE080E395E00E94930F8091F6030E94E41383EE9FE00E948C
:204E400006131092F6031092F5030E9498208091BA038823A9F080E6EAE5F3E0ACE0B4E070
:204E600001900D928A95E1F7809158039091590390939304809392041092BA030E94C81ADC
:204E800010E000E0912C812CF02E80912F05882309F48FC280912B0590912C05002E02C0F9
:204EA000969587950A94E2F780FF83C280912D0590912E050F2C02C0969587950A94E2F71E
:204EC000817094C29E3040F42850310981E001C0880F2A95EAF7D5CD2E503109F7CF01E07D
:204EE00010E0EECE64EE7BE080E395E00E94930FF801E55CFF4E84910E94E41307CF80FFB3
:204F000006C066E07BE080E395E00E94930F8091EC0581FF06C06CEE7AE080E395E00E9498
:204F2000930F8091EC0582FF06C069EC7AE080E395E00E94930F8091EC0583FF06C06EEB18
:204F40007AE080E395E00E94930F0E9400131DCF8091F403882379F077FC0DC01092F40345
:204F60000E94CB146CED75E081E00E9462128FEF9BE00E9406138091F403811166CF8091F7
:204F80007D0490917E04A0917F04B0918004B301A201481B590B6A0B7B0B80910801909120
:204FA0000901B0E0A0E0481759076A077B0708F44CCF80918104853059F480918F04811140
:204FC00007C083E99FE00E94061382E08093810410918104123091F480918D04882309F433
:204FE00055C010928D0480918E048A3F18F48F5F80938E0481E00E940C1527CF1B3008F001
:2050000060C0E12FF0E0E95FF74D0C944D321228232861288928D428F5281A295D297E299D
:205020009F29C32969EA7EE08DEC95E00E94930F6DE97EE080E395E00E94930F0E94001354
:2050400010928D043EC06FE87EE08DEC95E00E94930F6EE77EE080E395E00E94930F0E94C7
:20506000001381E080930A0140927D0450927E0460927F047092800480E293E090930901EA
:20508000809308011F5F10938104DFCE6FE47EE08DEC95E00E94930F68E17EE080E395E03F
:2050A0000E94930F0E94001381E080938D040E945B0F6093540370935503809356039093B2
:2050C000570310930A0140927D0450927E0460927F0470928004E12FF0E0EE0FFF1FEC5CD3
:2050E000FE4F808191819093090180930801EEEFE10FE93038F6F0E0E058F74D0C944D3288
:20510000C129A828F328142939297C299D29BE29C1296DE07EE08DEC95E00E94930F6FEDA6
:205120007DE080E395E00E94930F0E94001383E080930A0140927D0450927E0460927F0494
:205140007092800484EC99E09093090180930801809186048F5F80938604833008F41CC1E5
:2051600080918704109286041092870481110C94F33080918504811102C00E94B0148FEF13
:205180009EE00E94061382E08093810480E00E940C1580918104833009F057CE68EE73E0A9
:2051A00082E00E94621251CE61ED7DE08DEC95E00E94930F60EC7DE080E395E00E94930FB6
:2051C0000E94001384E080930A0140927D0450927E0460927F047092800480EB94E09093E4
:2051E00009018093080185E0D8C067E97DE08DEC95E00E94930F66E87DE080E395E00E9488
:20520000930F0E94001385E080930A0140927D0450927E0460927F047092800480E49FE11E
:205220009093090180930801809182048823D9F286E0B3C068E77DE08DEC95E00E94930F61
:2052400060E57DE080E395E00E94930F0E94001386E080930A0140927D0450927E046092AE
:205260007F047092800480E293E0909309018093080180916E048F5F80936E04833008F462
:205280008FC06FEE7EE080E395E00E94930F80916E040E94E41382EB9EE00E940613109284
:2052A00081041092820410926E0488EC90E0909309018093080182E09ECE67E47DE08DEC11
:2052C00095E00E94930F60E27DE080E395E00E94930F0E94001387E080930A0140927D04CD
:2052E00050927E0460927F04709280048CED95E0909309018093080188E04FC061E07DE003
:205300008DEC95E00E94930F67EC7CE080E395E00E94930F0E94001388E080930A01409283
:205320007D0450927E0460927F04709280048CED95E0909309018093080189E02EC06CEBA8
:205340007CE08DEC95E00E94930F60E97CE080E395E00E94930F0E94001389E080930A01C2
:2053600040927D0450927E0460927F047092800488E293E2909309018093080181E08093DF
:20538000830482E00AC065E87CE08DEC95E00E94930F63E57CE04ECE83E08093810455CDA2
:2053A00083E080938104109286044FCD01E010E06BCD8091290590912A050F2C02C09695EA
:2053C00087950A94E2F780FF9CC0F801EE0FFF1FE856FB4F20813181F801E55CFF4E2115B3
:2053E000310509F488C08491F9010995882349F081E090E002C0880F991FFA94E2F7882AA6
:20540000992A0130110591F6909224058092230580912F05882309F479C020912B053091AE
:205420002C05C753DF4F39832883C95CD040809104019091050188159905C9F42091250547
:205440003091260580910201909103012817390771F48091000190910101C753DF4FE8815D
:20546000F981C95CD0408E179F0709F458C08091C303811103C081E08093C303C090E8037C
:20548000D090E903E090EA03F090EB034091DC035091DD036091DE037091DF03F0918804C2
:2054A0002091DA033091DB03E091C203D301C2018C199D09AE09BF09803B14E09107A1053B
:2054C000B10580F110EBC10E14E0D11EE11CF11CFF2339F0E11105C02F3F320711F02F5FB6
:2054E0003F4F4F5F5F4F6F4F7F4F805B9440A109B109E0E0E1CF84910E94C80E811181CF44
:2055000077CF8091270590912805D4CC4FEF5FEFC753DF4F59834883C95CD04088CF109271
:20552000C303ACCFE093C203C092E803D092E903E092EA03F092EB034093DC035093DD0323
:205540006093DE037093DF033093DB032093DA0388539F4FAF4FBF4F89359240A105B105A0
:2055600008F020C381E0E827FF2309F490C08091720490917304A0917404B0917504A3014B
:205580009201281B390B4A0B5B0BDA01C90180319742A105B1050CF407C36EEB71E180E3D3
:2055A00095E00E94930F8091720490917304A0917404B0917504B301A201481B590B6A0B1D
:2055C0007B0B80E395E00E94E11364E971E180E395E00E94930F8091C1030E94E41366E860
:2055E00071E180E395E00E94930F8091C0030E94E4136BE771E180E395E00E94930F8091FF
:20560000BF030E94E41364E671E180E395E00E94930F6091C4037091C50380E395E00E947C
:205620009B1463E571E180E395E00E94930F6091E2037091E30380E395E00E949B1466E4D5
:2056400071E180E395E00E94930F60916C0470916D0480E395E00E949B1468E371E180E3E0
:2056600095E00E94930F6091E4037091E50380E395E00E949B1487E191E10E940613109250
:20568000BF031092C0031092C1030E940C128091EC039091ED03A091EE03B091EF03A301B3
:2056A0009201281B390B4A0B5B0BDA01C90180369A4EA105B10508F4A8C1809188048823C9
:2056C000C9F08091E8039091E903A091EA03B091EB03A3019201281B390B4A0B5B0BDA0167
:2056E000C901C296A11DB11D89359240A105B10508F08BC14092EC035092ED036092EE0356
:205700007092EF036AEB72E180E395E00E94930FC301B20128EE33E040E050E00E94F4311A
:20572000BA01A90180E395E00E94E11363EB72E180E395E00E94930F6091E6037091E70314
:2057400080E395E00E949B146AEA72E180E395E00E94930F6091E4037091E50380E395E0C4
:205760000E949B1462EA72E180E395E00E94930F70E060E080E395E00E949B148FE20E9451
:20578000A410609176047091770480E395E00E949B1469E972E180E395E00E94930F609193
:2057A000FB037091FC0380E395E00E949B146EE872E180E395E00E94930F60916C0470919B
:2057C0006D0480E395E00E949B1467E872E180E395E00E94930F6091E2037091E30380E351
:2057E00095E00E949B146FE772E180E395E00E94930F6091E0037091E10380E395E00E94EB
:205800009B1468E772E180E395E00E94930F80911D050E94E4136EE672E180E395E00E942E
:20582000930F60911F057091200580E395E00E949B1463E672E180E395E00E94930F6091B9
:2058400021057091220580E395E00E949B146CE572E180E395E00E94930F4091DC03509180
:20586000DD036091DE037091DF0380E395E00E94E11366E572E180E395E00E94930F60917A
:2058800090047091910480E395E00E949B146EE472E180E395E00E94930F6091DA03709125
:2058A000DB0380E395E00E949B1466E472E180E395E00E94930F6091D8037091D90380E31C
:2058C00095E00E949B146CE372E180E395E00E94930F6091D6037091D70380E395E00E9425
:2058E0009B148090D4039090D503E090D203F090D303C090D003D090D1030091CE03109125
:20590000CF0361E372E180E395E00E94930FB40180E395E00E949B1466E272E180E395E0B1
:205920000E94930F6091CC037091CD0380E395E00E949B146BE172E180E395E00E94930FAE
:205940006091CA037091CB0380E395E00E949B1461E172E180E395E00E94930F6091C80324
:205960007091C90380E395E00E949B1467E072E180E395E00E94930F6091C6037091C703F6
:2059800080E395E00E949B146DEF71E180E395E00E94930FB60180E395E00E949B1464EFE1
:2059A00071E180E395E00E94930FB70180E395E00E949B1468EE71E180E395E00E94930FD4
:2059C000B80180E395E00E949B1461EE71E180E395E00E94930F6091C4037091C50380E344
:2059E00095E00E949B1468ED71E180E395E00E94930F4091880450E070E060E02AE080E394
:205A000095E00E9495130E9400138091880481117FC08091F7039091F803A091F903B0910F
:205A2000FA03A3019201281B390B4A0B5B0BDA01C901883B9B40A105B10508F469C040925A
:205A4000F7035092F8036092F9037092FA036AEF72E180E395E00E94930F809181040E9482
:205A6000E4136EEE72E180E395E00E94930F8091F6030E94E4138FE20E94A4108091F503F1
:205A80000E94E4138091F403882331F068ED72E180E395E00E94930F63ED72E180E395E05A
:205AA0000E94930F4091F0035091F1036091F2037091F30380E395E00E94E1136BEC72E114
:205AC00080E395E00E94930F4091940450919504609196047091970480E395E00E94E11332
:205AE00066EC72E180E395E00E94930FC301B20128EE33E040E050E00E94F431BA01A901C9
:205B000080E395E00E94E11384EC92E10E9406138091FD039091FE03A091FF03B0910004CE
:205B2000A3019201281B390B4A0B5B0BDA01C90180369A4EA105B10540F14092FD03509268
:205B4000FE036092FF03709200046EE573E180E395E00E94930F609106017091070180E323
:205B600095E00E949B1460E473E180E395E00E94930F6091FB037091FC0380E395E00E9442
:205B80009B148FE093E10E94061380E090E0892B09F427C90E942110882309F422C90E943F
:205BA00000000DC9E0E0E0CCEE2309F470CD4091250550912605C553DF4F59834883CB5C3D
:205BC000D0400E945B0F9B01AC012C193D094E095F09C353DF4F288339834A835B83CD5C97
:205BE000D040F0900B04FF2009F454C11F9286E08F931F9287E08F938EE492E09F938F932A
:205C00001F9281EA8F933F922F920E9498320FB6F894DEBF0FBECDBF181619060CF099C05F
:205C20009C012D5F3F4F223A310508F092C0682FC1010E943912F10101900020E9F7319740
:205C40008F0102191309C853DF4F1882C85CD040BE0161547F4FC853DF4F8881C85CD0409E
:205C60000E94F811BE0166547F4FC853DF4F8881C85CD0400E94E011C953DF4F5881C75CD3
:205C8000D0405F93CA53DF4F8881C65CD0408F93CB53DF4F9881C55CD0409F93CC53DF4F45
:205CA000E881C45CD040EF9329E532E03F932F931F9258E15F93BF92AF920E9498320FB676
:205CC000F894DEBF0FBECDBF181619060CF041C09C012D5F3F4F29313105D8F5682FC50187
:205CE0000E943912F50101900020E9F731977F01EA18FB08C801805A91098E0D9F1D8F358B
:205D00009F4F38F168012FEFC21AD20AF101E00FF11F3AE03083A7014F5F5F4FB501C101F3
:205D20008C0D9D1D0E94533287010C0D1D1DC853DF4F4881C85CD0404F5FC853DF4F488306
:205D4000C85CD040463009F083CF0115110509F074C08BE990E10E94061310E000E0D12C88
:205D6000F12C81E08093C2036DE071E180E395E00E94930F4091DC035091DD036091DE03CF
:205D80007091DF0380E395E00E94E11368E071E180E395E00E94930FB80180E395E00E94C9
:205DA0009B1462E071E180E395E00E94930F8D2D0E94E4136CEF70E180E395E00E94930F69
:205DC000C353DF4F488159816A817B81CD5CD04080E395E00E94E11387EF90E1F11002C0A4
:205DE00082EF90E10E9406130E945B0FFF2009F44ECC8091BD039091BE0301969093BE0396
:205E00008093BD039092050180920401C553DF4F48815981CB5CD040509303014093020193
:205E2000C753DF4F88819981C95CD04090930101809300011092C3032ACCB801C1010E940E
:205E4000B920F82E882309F4D4C110920B048091BB039091BC038F3F980729F00196909366
:205E6000BC038093BB036DE870E180E395E00E94930F63E870E180E395E00E94930FB8015F
:205E800080E395E00E949B148BE890E10E940613D12C67CF20912305309124058091B0047F
:205EA0009091B104BE0161547F4F822B932B0E943A0EBE0166547F4F8091250590912605A7
:205EC0000E943A0E1091BD030091BE0380912F05882309F449C0B50180912B0590912C05E6
:205EE0000E943A0E0E945B0FBF92AF9222E632E03F932F9328EE33E040E050E00E94F4312C
:205F00005F934F933F932F93C953DF4F8881C75CD0408F93CA53DF4F9881C65CD0409F93A9
:205F2000CB53DF4FE881C55CD040EF93CC53DF4FF881C45CD040FF930F931F9385E692E040
:205F40009F938F931F9280E48F933F922F920E9498320FB6F894DEBF0FBECDBF1816190624
:205F6000CCF110E000E094CF0E945B0F22E632E03F932F9328EE33E040E050E00E94F43137
:205F80005F934F933F932F93C953DF4F3881C75CD0403F93CA53DF4F4881C65CD0404F9369
:205FA000CB53DF4F5881C55CD0405F93CC53DF4F8881C45CD0408F930F931F938BE792E0B9
:205FC0009F938F931F9280E48F933F922F920E949832BFCF9C012D5F3F4F2134310508F66A
:205FE000682FC1010E943912F10101900020E9F731978F0102191309002309F4B2CF112770
:20600000D0901D05DD2009F447C080911E0590E0FC01EE0FFF1FEB5FFA4F40815181B091DA
:20602000040523EB34E0A0E0BA1709F45DC02B5F3F4FF9013597608171814617570709F065
:2060400051C0A7FD51C0D12C9AE0C92E80911D05D81610F580911E058D0D9927991F6CE054
:2060600070E00E943932FC01EE0FFF1FEB5FFA4F408151813091040583EB94E020E0321790
:2060800059F00596FC013597608171814617570709F045C027FF45C0B801C1010E94B920A6
:2060A000F82E882309F45DCEDD2081F080911E058D0D9927991F6CE070E00E943932809377
:2060C0001E0580911D058D1980931D0580910A04882329F010920A0481E080930B04FF2456
:2060E000F3943FCEAF5FA0CF01966CE070E00E94393280931E05DA94D0921D0580912105F0
:20610000909122058F3F980729F0019690932205809321058DE390E10E94061371CF2F5F2D
:20612000AECF35E02303F0011124ED54FB4F84811F928F938381282F082E000C330B3F9371
:206140008F938281282F082E000C330B3F938F9381818F9380818F934EE852E05F934F93CC
:206160001F9298E19F93BF92AF920E9498320FB6F894DEBF0FBECDBF181619060CF08CCFDA
:206180009C012D5F3F4F2931310508F085CF682FC5010E943912F50101900020E9F73197D3
:2061A000AF014A195B095527C80101967A01E80EF91EF1EAEF16F10408F06ECFE1E0F0E069
:2061C000EC0FFD1FE00FF11FC0824F5F5F4FB50121E030E02C0F3D1F820F931F0E94533243
:2061E000D394870133CF8CE39FE00E9406130C94BF286DE870E180E395E00E94930F6BE76A
:2062000070E139CE81E791E09093CE058093CD0580915203909153038D5C954071F4E09101
:20622000E005F091E10590818091E205809589238083109253031092520308958F929F9267
:20624000AF92BF92CF92DF92EF92FF92CF93DF93EC01688179818A819B816115710581058B
:20626000910521F464E279ED8BE597E02DE133EF41E050E00E94C23149015A019B01AC01DC
:20628000A7EAB1E40E94E1316B017C01ACEEB4EFA50194010E94EF31C60ED71EE81EF91E1B
:2062A000F7FE06C081E0C81AD108E10880E8F80AC882D982EA82FB82C701B6019F77DF9121
:2062C000CF91FF90EF90DF90CF90BF90AF909F908F9008958F929F92AF92BF92CF92DF9253
:2062E000EF92FF9260910B0170910C0180910D0190910E01611571058105910521F464E2CF
:2063000079ED8BE597E02DE133EF41E050E00E94C23149015A019B01AC01A7EAB1E40E9464
:20632000E1316B017C01ACEEB4EFA50194010E94EF31C60ED71EE81EF91EF7FE06C081E026
:20634000C81AD108E10880E8F80AC0920B01D0920C01E0920D01F0920E01C701B6019F77BC
:20636000FF90EF90DF90CF90BF90AF909F908F90089560930B0170930C0180930D01909375
:206380000E010895052E97FB1EF400940E94D93157FD07D00E94F43107FC03D04EF40C9490
:2063A000D93150954095309521953F4F4F4F5F4F089590958095709561957F4F8F4F9F4F58
:2063C00008950E941632A59F900DB49F900DA49F800D911D11240895B7FF0C94E1310E940B
:2063E000E131821B930B0895A1E21A2EAA1BBB1BFD010DC0AA1FBB1FEE1FFF1FA217B30741
:20640000E407F50720F0A21BB30BE40BF50B661F771F881F991F1A9469F760957095809584
:2064200090959B01AC01BD01CF010895A29FB001B39FC001A39F700D811D1124911DB29F2D
:20644000700D811D1124911D0895AA1BBB1B51E107C0AA1FBB1FA617B70710F0A61BB70B6C
:20646000881F991F5A95A9F780959095BC01CD01089597FB072E16F4009407D077FD09D043
:206480000E94253207FC05D03EF4909581959F4F0895709561957F4F0895EE0FFF1F05901D
:2064A000F491E02D0994FB01DC0102C001900D9241505040D8F70895FC018191861721F098
:2064C0008823D9F7992708953197CF010895FB01DC018D91019080190110D9F3990B089570
:2064E000FB01DC014150504030F08D910190801919F40020B9F7881B990B0895FB0151919B
:206500005523A9F0BF01DC014D9145174111E1F759F4CD010190002049F04D9140154111DF
:20652000C9F3FB014111EFCF81E090E001970895AEE0B0E0EEE9F2E30C9454350D891E895D
:206540008F89988D26E02C831A83098397FF02C080E090E801979E838D83AE01455E5F4F27
:20656000698D7A8DCE0101960E94C8324D815E8157FD0AC02F813885421753070CF49A0196
:20658000020F131FF80110822E96E4E00C947035ABE0B0E0EEECF2E30C9446357C013B01C2
:2065A0008A01FC0117821682838181FFC8C1CE0101965C01F7019381F30193FD859193FF1A
:2065C00081913F01882309F453C1853239F493FD859193FF81913F01853229F4B70190E043
:2065E0000E94B834E7CF912C212C312CFFE1F31538F08B3211F190F4803209F1833229F122
:2066000037FC3CC020ED280F2A3050F536FE20C08AE0989E200D1124922E06C08D3291F08C
:20662000803371F7689430F8F30193FD859193FF81913F018111DACF21C0689431F8689460
:2066400032F8F2CF689433F8EFCF689434F8ECCFEAE02E9E200D1124222E689435F8E4CF63
:206660008E3229F436FC04C1689436F8DDCF8C3619F4689437F8D8CF8836B1F2982F9F7D8B
:2066800095549330E0F08336A1F18337C1F1833509F063C02801F2E04F0E511CF801C080F5
:2066A000D180692D70E036FC02C06FEF7FEFC6010E94A2344C01689437F882010AC00C5F74
:2066C0001F4FFFE3F98388248394912C6501E89437F833FE2DC0522C8114910471F55520BC
:2066E00009F468CFB70180E290E00E94B8345A94F6CFF801808189830E5F1F4FE4CF2801DE
:20670000F2E04F0E511CF801C080D180692D70E036FC02C06FEF7FEFC6010E94AD344C0116
:206720008201D5CFB70180E290E00E94B8342A942814190409F0B0F7CECFF60137FC859186
:2067400037FE81916F01B70190E00E94B83451105A94F1E08F1A9108BFCF843619F089365A
:2067600009F077C0F80137FE6BC060817181828193810C5F1F4FF32DFF763F2E97FF09C06C
:2067800090958095709561957F4F8F4F9F4F689437F82AE030E0A5010E94E834C82ECA18A9
:2067A0008C2C432C36FE0CC0E89440F8C91440F434FE05C032FC03C0F32DFE7E4F2E892C37
:2067C00044FE95C0FE01EC0DF11D8081803309F087C0242D297E422E842D8870582E43FC52
:2067E00095C040FE8FC09C2C821418F42C0C922C981844FE91C0B70180E390E00E94B834FB
:2068000042FE09C088E790E041FE02C088E590E0B7010E94B834C91408F48AC0CA94D12CEE
:206820009FEFC91AD90ACA0CDB1CF60182916F01B70190E00E94B834AC14BD04B1F74FCFC0
:2068400060817181072E000C880B990B0E5F1F4F92CFD32CE894D4F82AE030E0853739F16A
:20686000232D297FD22E8F3601F148F48835A9F0F701868197812B96E2E10C94623580374E
:2068800049F08837A9F7D4FE02C06894D2F820E130E00DC06894D4F8F6CF34FE03C0822FF5
:2068A0008660D82E20E132E002C028E030E0F801D7FE0FC060817181828193810C5F1F4F9F
:2068C000A5010E94E834C82ECA183D2CE89437F867CF6081718190E080E00E5F1F4FF0CFF5
:2068E00042FC02C0839478CF8394839475CF842D867809F471CFF6CFB70180E290E00E94EB
:20690000B83483948214C0F3512C73CF522C5818821408F46ECFF8CF842D867809F47BCFF2
:206920008BE241FE80E247FC8DE2B70190E071CFB70180E390E00E94B8349A946CCF8FEF2F
