:200000000C94270D0C945E0D0C945E0D0C94411F0C94411F0C94411F0C945E0D0C945E0DE0
:200020000C945E0D0C945E0D0C945E0D0C945E0D0C945E0D0C945E0D0C945E0D0C945E0D68
:200040000C949F1E0C945E0D0C940F1F0C94E91E0C945E0D0C945E0D0C945E0D0C945E0D97
:200060000C945E0D0C945E0D5B41434B515D20EAB080EB939D20ECB0B820E2809420EAB0F9
:2000800080EC9EA520EC98A4EB9E98EB909C20EBB3B4EBA5982041434B20EBA5BC20EBB27F
:2000A00084EBA6B0EB8BA400EBB094EC9DB4ED8AB8EBA5BC20EB8498EC96B420EBB284EBF1
:2000C000A0B8EB8BA4005B44524F502D4F56465D20ECA484EC9DB42000EBB094EC9DB4EDBF
:2000E0008AB820EBB284EBA6BC202B20ECA48420ECA1B0EBA6BD20ECB488EAB8B0ED999452
:20010000005B4C41444445525D2031EB8BA820ECA1B0ECB9983A20EC8B9CEBA6ACEC96BC8A
:2001200020EB939CEBA088EC9DB82000ECB48820EBB0B1EC98A4ED9484EBA19C20EB9098F5
:20014000ED9280EC9DB4ED959CEB8BA428ECA285ECB0A9EC97AD29005B4C41444445525DEE
:20016000202020EB8C80EC8BA02034EB8BA820ECA1B0ECB998EBA5BC20005B4C41444445E4
:20018000525D202020ED9584EC9A9420EBB680ED92883A20EBA19CEC9AB0EC82ACEC9DB4D9
:2001A000EB939C204D4F5346455420EC8AA4EC9C84ECB99828EC98883A20324E37303030DF
:2001C0002F414F33343030202B2031306B29005B4C41444445525D20E29AA035EB8BA82026
:2001E000EBAFB8EC8BA4ED96893A20ECA084EC9B9020EC9EACED88ACEC9E85EC9D80202A2C
:200200002AEBB680ED928820EBAFB8EBB3B4EC9CA0EBA19C20EBAFB8EAB5ACED98842A2A5E
:20022000EC9DB4EB8BA400ECB48820EC89ACEAB3A02041542B52535420EBA78C20EB909877
:20024000ED9280EC9DB4ED959CEB8BA4005B4C41444445525D202020ECA780EAB888EC9DA0
:200260008020005B4C41444445525D202020E2869220556E6F20413220EBA5BC20455350C7
:2002800020EC9D982052535420EC979020EBACBCEBA6ACEAB3A0204553505F5253545F57CE
:2002A0004952454420EBA5BC203120EBA19C20EBB094EABF9420EB8BA4EC8B9C20EAB5ACD1
:2002C000EC9B8CEB9DBC005B4C41444445525D20E29AA034EB8BA820EBAFB8EC8BA4ED96C5
:2002E000893A20ED9598EB939CEC9BA8EC96B420EBA6ACEC858BEC84A0EC9DB420EBB0B071
:20030000EC84A0EB9098ECA78020EC958AEC9598EB8BA4284553505F5253545F574952454B
:20032000443D302900ECB48820EC89ACEAB3A02041542B5253542028EBAAA8EB938820ECCD
:20034000868CED9484ED8AB820EBA6ACEC858B29005B4C41444445525D2033EB8BA820ECF4
:20036000A1B0ECB9983A2000ECB48820EC89ACEAB3A02041542B435751415020EBA19C202B
:20038000EAB2B0ED95A9EC9D8420EBAA85EC8B9CECA081EC9CBCEBA19C20EB818AEC9D80F4
:2003A00020EB92A420EB8BA4EC8B9C20EBB699EB8A94EB8BA4005B4C41444445525D20327C
:2003C000EB8BA820ECA1B0ECB9983A2000EB8BA8005B4C41444445525D20E28691E2869177
:2003E00020EB8BA820EC8381EC8AB920E2869220005B4C41444445525D20E286912033EB8B
:200400008BA82841542B5253542920ECA781ED968920E2809420415420EAB384ECB8B5EC0E
:200420009DB420EC9EA0EAB2BCEC9CBCEBA9B420EC9584EB9E9820EB8BA8EC9D8020EC9D07
:2004400098EBAFB8EAB08020EC9786EB8BA400ED9A8C20EB8884ECA0812900EB8BA82800AF
:2004600020C2B720ED9884EC9EAC2000EC9786EC9D8C00ED9A8C20C2B720EAB2B0ED95A903
:20048000EC9CA0ECA78020007320C2B720EC97B0EC868D2000292043574A4150EC868CECDB
:2004A0009A94200043574A4150204641494C00415420EAB384ECB8B520EC9EA0EAB98000A1
:2004C00043574A415020EBACB4EC9D91EB8BB5005B4C41444445525D20EC8BA4ED8CA8280F
:2004E000005B4C41444445525D2031ECB48820EC9588EC979020EB93A4EC96B4EC98A8201F
:20050000ECA491EBB3B520EC8BA4ED8CA820EC8BA0ED98B820E2809420EC84B8ECA7802006
:20052000EC958AEB8A94EB8BA4005B54582D44524F505D20005B54585D2000EBB094EC9D6B
:20054000B4ED8AB8EBA19C20EC8AA4ED8AB8EBA6BC20EBB3B5EAB5AC28EC849CEBB284EBDC
:200560008A9420EC9DB420ECA484EC9D8420EBB284EBA6B0EB8BA429005B54582D524553DC
:20058000594E435D20ED9484EBA1ACED9484ED8AB820EB8693ECB9A820E2869220EB8D94CC
:2005A000EBAFB820005B54582D52454A4543545D2043495053454E4420EAB1B0EBB68028A1
:2005C0004552524F522920E2809420EB8D94EBAFB8EBA5BC20EB84A3ECA78020EC958AEB2D
:2005E0008A94EB8BA4005B54582D425553595D2045535020EAB08020EBB094EC8198EB8BE3
:20060000A428EAB1B0EBB6802920E2809420EC8BA4ED8CA8EBA19C20EC84B8ECA78020EC78
:20062000958AEB8A94EB8BA42E20EB8BA4EC9D8C20ECA3BCEAB8B0EC979020EB8BA4EC8B7A
:200640009C20EBB3B4EB82B8EB8BA4000D0A0041542B43495053454E443D005B54582D57A8
:200660004149545D20E29885E2988520543220ECB488EAB3BC20E280942053454E44204F0B
:200680004B20EAB08020EB819DEB82B420EC958820EC98A8EB8BA420E2869220EBA781EDC2
:2006A00081ACEBA5BC20EB8BA4EC8B9C20EC84B8EC9AB4EB8BA4005B54582D574149545D12
:2006C00020EC959E20ECA084EC86A1EC9D982053454E44204F4B20EBA5BC20EC9584ECA74F
:2006E0008120EBAABB20EBB4A4EB8BA420E2809420EC9DB4EBB28820ECA3BCEAB8B0EB8AC2
:200700009420EAB1B4EB8488EB9BB4EB8BA4005B54582D574149545D20E2988520543120E1
:20072000ECB488EAB3BC20E2809420EAB7B8EB9E98EB8F8420EAB384EC868D20EAB8B0EBED
:200740008BA4EBA6B0EB8BA428EB9190EB93A4EAB8B0ECA78020EC958AEB8A94EB8BA429DD
:20076000005B434B53554D204E475D20005B42414420534C4F545D207269643D0020E28664
:2007800092206F636375706965643D005B53494D5D20ED959C20EAB1B8EC9D8C3A20005B02
:2007A00053494D5D20EBB094EABF8020EC8B9CEBAEAC20ECB9B8EC9DB420EC9786EB8BA406
:2007C00020E2869220726573756C743D35005B424144204649454C44535D207269643D00DC
:2007E0005B445550207269645D20005B5245475D205120EC8898EC8BA020E2809420EB8BE3
:20080000A4EC9D8C20EC86A1EC8BA020ECB0BDEC979020EB93B1EBA19DEC9D8420EB8BA48A
:20082000EC8B9C20EBB3B4EB82B8EB8BA4005B4E45545D20E298852045535020EAB08020D4
:20084000495020EBA5BC20EC9E83EC9788EB8BA420E2809420EBAAA8EB938820EBA6ACEC7F
:20086000858BEC9CBCEBA19C20EBB3B8EB8BA42E20EB8884ECA08120EC82ACEAB1B4200071
:20088000ED9A8C20EC97B0EC868D20EC8BA4ED8CA820E2869220EC98A4ED9484EB9DBCEC00
:2008A0009DB820ECA084ED99982E20EB82A1EC9D8020EC868CECBC93EBB680ED84B020EB8A
:2008C0008BABEB8A94EB8BA428434950434C4F534529005B4E45545D20ECA084EC86A1201A
:2008E000005B4E45545D20ECA084EC86A120EC8BA4ED8CA82000EB81940020C2B72036EBC0
:200900008BA828EC9B8CECB998EB8F85292000EBAFB8EBB0B0EC84A020E28094204132206E
:20092000EBA5BC204553502052535420EC979020EBACBCEBA6ACEAB3A0204553505F52531E
:20094000545F57495245443D31005B424F4F545D20EC82ACEB8BA4EBA6AC2034EB8BA828E4
:2009600045535020ED9598EB939CEBA6ACEC858BEC84A0292000EC9B8CECB998EB8F85203A
:20098000002A2AEBB88CEB9DBCEC9AB4EC9584EC9B8328ECA084EC9B90EBB680ECA1B12970
:2009A0002A2A2000EC99B8EBB680EBA6ACEC858B28EBB284ED8ABC2F445452292000ECA0C2
:2009C00084EC9B90EC9DB8EAB08028504F52292000EBB688EBAA852028EBB680ED8AB8EBF9
:2009E000A19CEB8D94EAB080204D4355535220EC9D8420ECA780EC9AB0EAB3A020EB8498F0
:200A0000EC96B4EC9994EB8BA429005B424F4F545D20EBA6ACEC858B20EC9B90EC9DB83A4D
:200A200020000A5B5041524B494E47204E4F44455D2070726F746F207631202F2031302077
:200A4000736C6F7473202F206465763D5031005B4C41444445525D2034EB8BA83A2045532D
:200A60005020EBA6ACEC858B20ED95B4ECA09C20E2809420EBB680ED8C85EC9D8420EAB82B
:200A8000B0EB8BA4EBA0B8EB8BA4EAB0802043574D4F444520EBB680ED84B020EB8BA4ECAE
:200AA0008B9C005B4E45545D2031302043575141502028EAB2B0ED95A920ED95B4ECA09C16
:200AC00020E2809420EC82ACEB8BA4EBA6AC2032EB8BA8290041542B43575141500D0A0083
:200AE0005B4E45545D20392043574C41502028ECA3BCEBB38020415020EBAAA9EBA19D205E
:200B0000E2809420ECA784EB8BA8290041542B43574C41500D0A005B4E45545D20382043B9
:200B200057434F554E5452592028ECB184EB84902031322F313320EC9AB0ED9A8C20EC8BAC
:200B40009CEB8F8420E2809420ECA784EB8BA8290041542B4357434F554E5452595F4445F1
:200B6000463D302C224B52222C312C31330D0A005B4E45545D203720474D522028ED8E8C66
:200B8000EC9BA8EC96B420ED8C9020E2809420ECA784EB8BA8290041542B474D520D0A0076
:200BA0005B4E45545D203620434950434C4F53452028EB82A1EC9D8020EC868CECBC9320F6
:200BC000EB8BABEAB8B0290041542B434950434C4F53450D0A005B4E45545D2035204349B0
:200BE0005053544152540041542B43495053544152543D22544350222C223139322E313606
:200C0000382E33352E3231222C393939310D0A005B4E45545D2034204349504D55583D30DE
:200C20000041542B4349504D55583D300D0A005B4E45545D20332043494653522028495030
:200C400020EBA5BC20EC8BA4ECA09CEBA19C20EBB09BEC9598EB8A94EAB080290041542B22
:200C600043494653520D0A005B4E45545D20322043574A41502028EC9D91EB8BB5EAB98CA4
:200C8000ECA78020ECB59CEB8C80203330ECB48820EAB8B0EB8BA4EBA6B0EB8BA4290041F1
:200CA000542B43574A41503D22534B5F5769466947494741353044435F322E3447222C22C7
:200CC00032303131303530373936220D0A005B4E45545D20312043574D4F44453D3100415E
:200CE000542B43574D4F44453D310D0A005B4E45545D2030205253540041542B5253540D63
:200D00000A00ED9A8C20EC8BA4ED8CA820E286922041542B52535420EBA19C20ECA084EC03
:200D2000B2B420ECB488EAB8B0ED999428EC82ACEB8BA4EBA6AC20EC8381EC8AB929005B3D
:200D40004E45545D20434950434C4F534520005B4E45545D2043494653522033ED9A8CEC35
:200D60009790EB8F8420495020EAB08020EC9786EB8BA420E286922043574A415020EBB6A8
:200D800080ED84B020EB8BA4EC8B9C005B4E45545D2043494653522033ED9A8C20EC868CAB
:200DA000ECA78420E2809420EAB7B8EB9FACEB8298206275737920EAB1B0EBB680EC9880DF
:200DC000EB8BA42E20495020EC868CEC8BA4EBA19C20EC84B8ECA78020EC958AEB8A94EB37
:200DE0008BA4005B4E45545D20495020EAB08020EC9786EB8BA420E2869220434950535432
:200E000041525420EBA5BC20EBB3B4EB82B4ECA78020EC958AEAB3A02043574A415020EBD1
:200E2000A19C20EB9098EB8F8CEC9584EAB084EB8BA400EB8BA829005B4C41444445525D54
:200E400020E28693203330ECB48820EC97B0EC868D20EC98A8EB9DBCEC9DB820E280942073
:200E6000EC82ACEB8BA4EBA6ACEBA5BC2030EB8BA8EC9CBCEBA19C20EB82B4EBA6B0EB8BE3
:200E8000A42028ECA781ECA0842000413100495000024132004950000341330049500004F5
:200EA0004134004950000541350049500006423100495000094232004950000A4233004920
:200EC00050000B4234004950000C4235004950000E5B41434B515D20ECBA90EC8B9CEC97BA
:200EE00090EC849C20EBB080EBA0A4EB829820EBA78CEB93A420EC889820EC9786EB8BA418
:200F000020E2809420EBB284EBA6B0EB8BA400EC8BA4ED8CA82000ECA084EC86A12000423E
:200F2000005B5245475D20EB93B1EBA19D20005B5245475D20EB93B1EBA19D20EBB0B0EC1E
:200F4000B998EBA5BC20EBA78CEB93A4ECA78020EBAABBED9688EB8BA420E2809420EC9E2C
:200F600098EBA6B020EB93B1EBA19DEC9D8420EB82B4EBB3B4EB82B4ECA78020EC958AEB36
:200F80008A94EB8BA40020723D300020723D3100206475653D002061636B3D002074783DAA
:200FA000005B534C4F545D206E3D005D20E2869220EBA781ED81ACEBA5BC20EB8BA4EC8BAB
:200FC0009C20EC84B8EC9AB4EB8BA400202F20455350EBA6ACEC858B2000202F2053454ED4
:200FE000444641494C2000202F2053454E444F4BEC8381ED959C20002920C2B720EB888437
:20100000ECA0815BEAB1B4EB8488EB9C802000202F20EAB1B0EBB6802000202F20EBACB446
:20102000EC9D91EB8BB520006D7320EB8F99EC958820ED959C20ECA484EB8F8420EBAABB4F
:2010400020EB8298EAB094EB8BA420286275737920005B4E45545D20E2988520ECA095EC0D
:20106000A78020EAB090ECA7803A2000206F6E6C696E653D0020736B69703D00206269674A
:201080006F6B6C6F73743D00206F6B6C6F73743D00206269676F6B73743D00206269676478
:2010A000726F703D002062696766696C6C3D002070656E6466696C6C3D002070656E646496
:2010C000726F703D00206F6B73747265616D3D0020636B73756D6E673D002073736F766619
:2010E0003D0020736D6973733D00206F6F773D0020736C6F743D002061636B7374616C65EE
:201100003D002061636B64726F703D002061636B713D0020737475636B3D00206F6B746FF0
:201120003D002073656E646661696C3D0020726573796E633D00206573707273743D0020C0
:2011400064726F703D005B434E545D2075703D0073002075703D00206C696E65733D002071
:2011600072783D00205B455350EBA6ACEC858BEC9CA0ECA780ECA4915D0020EC82ACEB8B43
:20118000A4EBA6AC3D005B444941475D206F66666C696E6520737465703D00ED9A8C2028ED
:2011A000EC849CEBB284EC9D982027EBB284EBA6B0ECA4842720EAB3BC20EBA79EEC95842F
:2011C000EC95BC20ED959CEB8BA42900204220C2B720ED9484EBA1ACED9484ED8AB820ECB9
:2011E0009EACEB8F99EAB8B020005B52414D5D20ECB59CECA08020EC97ACEC9CA020000088
:20120000000000240027002A000000000800020100000304070000000000000000222028D6
:20122000005C780022005B4E45545D20EC86A1EC8BA020EC98A4EBA59820EC9D91EB8BB5FA
:2012400028EBA19CEAB7B8EBA78C2C20ECB9B4EC9AB4ED84B0EB8A942073656E644C696ED1
:201260006520EC9DB420EC84BCEB8BA4293A20005B4E45545D20E298852053454E44204655
:2012800041494C20E2809420ED8E98EC9DB4EBA19CEB939CEAB98CECA78020EC8DBCEB8AA4
:2012A00094EB8DB020ECA084EC86A1EC9DB420EC8BA4ED8CA8ED9688EB8BA42E20EC8BA408
:2012C000ED8CA8EBA19C20EC84BCEB8BA4005B4E45545D206C696E6B206973206E6F742065
:2012E00076616C696420E2869220ECA689EC8B9C20EC98A4ED9484EB9DBCEC9DB82C20EB6D
:2013000082A1EC9D8020EC868CECBC9320EB8BABEAB8B028434950434C4F534529005B4E69
:2013200045545D206F6E6C696E652028434F4E4E45435429202B20ECBA90EC8B9C20EBB91F
:2013400084EC9B80005B4E45545D206F6E6C696E652028414C524541445920434F4E4E45E1
:201360004354454420C2B720ECB488EAB8B020EAB2BDED95A929005B4E45545D20414C52AF
:201380004541445920434F4E4E454354454420E2809420EB82A1EC9D8020EC868CECBC93D1
:2013A00020EC9D98EC8BAC20ECA491EC9DB4EBAF80EBA19C20EBAFBFECA78020EC958AEB67
:2013C0008A94EB8BA420E2869220434950434C4F5345005B4E45545D206E6F20697020E2B2
:2013E000809420495020EAB08020EC9786EB8BA42E20434950535441525420EC9EACEC8B1E
:201400009CEB8F84EBA5BC20ECA091EAB3A02043574A415020EBA19C20EB9098EB8F8CEC6A
:201420009584EAB084EB8BA4005B4E45545D202020322E3447487A20EC9DB8EAB080202FF5
:2014400020ECA084ED8C8CEAB08020EB8BBFEB8A94EAB080202F205353494420ECB2A0ECD9
:201460009E90EAB08020EBA79EEB8A94EAB080EBA5BC20EBB490EB9DBC2E005B4E45545D05
:2014800020EC84A4ECA095ED959C205353494420EAB08020EBAAA9EBA19DEC9790202A2A3E
:2014A000EC9786EB8BA42A2A20E2869220EBB984EBB28820EBACB8ECA09CEAB08020EC95DC
:2014C00084EB8B88EB8BA42E005B4E45545D20202032EC889CEC9C843A20EBB984EBB08058
:2014E000EBB288ED98B820202033EC889CEC9C843A20504D46283830322E313177292F5726
:2015000050413320ECA084ED9998EBAAA8EB939C20EB8184EAB8B0005B4E45545D20202001
:2015200031EC889CEC9C843A20EC9C8420ECA484EC9D98202A2AEBA788ECA780EBA78920C7
:20154000EC88ABEC9E9028ECB184EB8490292A2A20EBA5BC20EBB490EB9DBC2E2031322FAE
:20156000313320EC9DB4EBA9B420EAB3B5EC9CA0EAB8B0EBA5BC20312F362F313120EBA137
:201580009C20EBB094EABF94EB9DBC005B4E45545D20EC84A4ECA095ED959C20535349447A
:2015A00020EAB08020EBAAA9EBA19DEC9790202A2AEC9E88EB8BA42A2A20E2869220415098
:2015C00020EB8A9420EBB3B4EC9DB8EB8BA42E20EAB2B0ED95A9EBA78C20EAB1B0EBB680A6
:2015E000EB909CEB8BA42E005B4E45545D20E29480E2948020415020EC8AA4ECBA9420EDAF
:201600008C90ECA09520E29480E29480E29480E29480E29480E29480E29480E29480E29447
:2016200080E29480E29480E29480E29480E29480E29480E29480E29480E29480E29480E2AC
:201640009480E29480E29480E29480E29480E29480E29480005B4E45545D202020E28692B9
:2016600020EAB3B5EC9CA0EAB8B020ECB184EB8490EC9D8420312F362F313120EBA19C2082
:20168000EBB094EABEB8EB8A9420EAB283EC9DB420ED9995ECA09520ED95B4EBB295EC9DC9
:2016A000B4EB8BA4005B4E45545D204357434F554E54525920EBAFB8ECA780EC9B902845C6
:2016C00052524F522920E2809420EC9DB420ED8E8CEC9BA8EC96B4EBA19CEB8A9420ECB1AF
:2016E00084EB84902031322F313320EC9D8420ECBD94EB939CEBA19C20EBAABB20EC97B0C2
:20170000EB8BA42E005B4E45545D20E29885204357434F554E54525920EAB08020EBA8B92F
:20172000EC9788EB8BA420E2809420EAB79CECA09CEB8F84EBA994EC9DB820317E31332E21
:2017400020ECB184EB849020313220EAB2B0ED95A9EC9DB420EC97B4EBA0B8EC9D8420EC3F
:20176000889820EC9E88EB8BA4005B4E45545D204349504D55583D3020ECA081EC9AA9EBB4
:2017800090A820E28692204349505354415254005B4E45545D20E2988520495020ED9995BB
:2017A000EBB3B43A20005B4C41444445525D2032EB8BA83A20EAB2B0ED95A920ED95B4EC96
:2017C000A09C20EC9984EBA38C20E2869220EAB9A8EB8197ED959C20EC8381ED839CEC9745
:2017E00090EC849C2043574A415020EC9EACEC8B9CEB8F84005B4E45545D2043574A41501D
:20180000204F4B20E2809420EAB2B0ED95A9EB9090EB8BA42E20495020EBA5BC20EC8BA4AE
:20182000ECA09CEBA19C20EBB09BEC9598EB8A94ECA78020434946535220EBA19C20ED9948
:2018400095EC9DB8ED959CEB8BA400ED9A8C2028EAB5ACED989520ED8E8CEC9BA8EC96B42E
:20186000EB8A9420EC82ACEC9CA0EBA5BC20ECA3BCECA78020EC958AEB8A94EB8BA42900BC
:201880005B4E45545D20E298852043574A415020EC8BA4ED8CA82000ECA091EC868D20EC51
:2018A0008BA4ED8CA800EAB7B8205353494420EC9D9820415020EBA5BC20EBAABB20ECB0A2
:2018C000BEEC9598EB8BA400EBB984EBB080EBB288ED98B8EAB08020ED8B80EBA0B8EB8B87
:2018E000A400ECA091EC868D20EC8B9CEAB084ECB488EAB3BC005B4E45545D20E298852078
:2019000043574A415020EC8BA4ED8CA820EC82ACEC9CA03A20005B4E45545D2062757379B8
:2019200020E280942045535020EAB08020EC959E20EBAA85EBA0B9EC9D8420ECB298EBA69E
:20194000AC20ECA491EC9DB4EB8BA42E20ECA084ECA784ED9598ECA78020EC958AEB8A946D
:20196000EB8BA4005B4E45545D205749464920444953434F4E4E45435420E2809420495086
:2019800020EBA5BC20EC9E83EC9788EB8BA4005B4E45545D205749464920474F54204950D8
:2019A00020E2809420495020ED9995EBB3B42E2039ECB48820EB8C80EAB8B0ECB0BDEC9DD1
:2019C0008420EB819DEAB98CECA78020EAB8B0EB8BA4EBA6ACECA78020EC958AEAB3A020B4
:2019E000EBB094EBA19C20EB8BA4EC9D8C20EB8BA8EAB384EBA19C006D73005B534C4F543D
:201A00002D4F4F575D202B005B41545D2000000000002300260029000000000025002800D0
:201A20002B000404040404040404020202020202030303030303010204081020408001023B
:201A400004081020010204081020E71F612C11241FBECFEFD8E0DEBFCDBF84B78093B605BE
:201A600014BE0FB6F894A89580916000886180936000109260000FBE12E0A0E0B1E0EAEE8F
:201A8000F1E602C005900D92A638B107D9F725E0A6E8B2E001C01D92A63BB207E1F71DE00F
:201AA000C6E2DDE004C02197FE010E94B82DC532D107C9F70E9492200C94E8300C94000084
:201AC0000F931F93CF93DF93DB0150E040E030E020E061E070E0C9E0D0E0FB01042E02C0C8
:201AE000EE0FFF1F0A94E2F7E823F923EF2B61F0FE01E41BF50B8B0102C0000F111FEA95B8
:201B0000E2F7F801202B3F2B4F5F5F4F4A30510521F7F901EF70FF27E65BFE4F8081129644
:201B20008C931297F90184E0F695E7958A95E1F7EF70FF27E65BFE4F808111968C931197FF
:201B4000232F3327F901E65BFE4F80818C9313961C92DF91CF911F910F910895833081F0F9
:201B600028F4813099F08230A9F008958730A9F08830C9F08430B1F4809180008F7D03C0AD
:201B8000809180008F7780938000089584B58F7784BD089584B58F7DFBCF8091B0008F778B
:201BA0008093B00008958091B0008F7DF9CFCF93DF9390E0FC01EA5CF54E24918E5D954EE3
:201BC000FC0184918823C9F090E0880F991FFC01E150FE4EA591B491FC01E85EF54EC591FF
:201BE000D49161110DC09FB7F8948C91209582238C938881282328839FBFDF91CF910895FF
:201C0000623051F49FB7F8943C91822F809583238C93E8812E2BEFCF8FB7F894EC912E2B8B
:201C20002C938FBFEACF2FB7F8946091690470916A0480916B0490916C042FBF0895EF9282
:201C4000FF920F931F93CF93DF938C017B01D0E0C0E0F701EC0FFD1F6491662361F0D801BB
:201C6000ED91FC910190F081E02DC8010995892B11F02196EECFCE01DF91CF911F910F91CB
:201C8000FF90EF900895AF92BF92CF92DF92EF92FF920F931F93CF93DF936C017B018B0186
:201CA000040F151FEB015E01AE18BF08C017D10759F06991D601ED91FC910190F081E02D22
:201CC000C6010995892B79F7C501DF91CF911F910F91FF90EF90DF90CF90BF90AF9008958E
:201CE000FC01538D448D252F30E0842F90E0821B930B541710F0CF96089501970895FC01D5
:201D0000918D828D981761F0A28DAE0FBF2FB11D5D968C91928D9F5F9F73928F90E0089581
:201D20008FEF9FEF0895FC01918D828D981731F0828DE80FF11D858D90E008958FEF9FEFC1
:201D40000895FC01918D228D892F90E0805C9F4F821B91098F73992708958AEF94E00E9405
:201D6000A10E21E0892B09F420E0822F089580E090E0892B29F00E94AD0E81110C94000088
:201D80000895FC01A48DA80FB92FB11DA35ABF4F2C91848D90E001968F739927848FA68927
:201DA000B7892C93A089B1898C91837080648C93938D848D981306C00288F389E02D8081F8
:201DC0008F7D80830895EF92FF920F931F93CF93DF93EC0181E0888F9B8D8C8D98131AC0F2
:201DE000E889F989808185FF15C09FB7F894EE89FF896083E889F989808183708064808304
:201E00009FBF81E090E0DF91CF911F910F91FF90EF900895F62E0B8D10E00F5F1F4F0F73BE
:201E20001127E02E8C8D8E110CC00FB607FCFACFE889F989808185FFF5CFCE010E94C10ECB
:201E4000F1CFEB8DEC0FFD2FF11DE35AFF4FF0829FB7F8940B8FEA89FB8980818062CFCF24
:201E6000682F8AEF94E00C94E30ECF93DF93EC01888D8823B9F0AA89BB89E889F9898C919C
:201E800085FD03C0808186FD0DC00FB607FCF7CF8C9185FFF2CF808185FFEDCFCE010E940A
:201EA000C10EE9CFDF91CF91089520913C0330913D032817390771F490913A0380913B03AC
:201EC000981741F0E0913A03F0E0E650FD4F808190E008958FEF9FEF08950895EF92FF92BC
:201EE0000F931F93CF93DF93DC015C96ED90FC905D97E114F10479F481E090E013969C93EE
:201F00008E93129790E080E0DF91CF911F910F91FF90EF9008955196ED91FC91529750969B
:201F20008C915097982F90950FB75E962C915E97122F127021FD6095F8942081112319F104
:201F4000282B2083E7012197F1F728E0462F50E0308160FF1AC0382B3083E7012197F1F7CE
:201F6000BA0175956795215089F7112381F08081892380830FBF5C968D919C910197F1F7CF
:201F800081E090E0C1CF2923DCCF3923E5CF9081892BEFCF20913C0330913D0328173907E6
:201FA00061F480913B0320913A0390E0805C9F4F821B91098F739927089590E080E0089552
:201FC00020913C0330913D0328173907B9F490913A0380913B03981789F0E0913A03F0E091
:201FE000E650FD4F808120913A0330E02F5F3F4F2F73332720933A0390E008958FEF9FEF3F
:20200000089590E080E00895282FDB01FC0191918D913FE9390F3A3108F490523FE9380F1E
:202020003A3108F48052981306C08E2F821B841770F381E0089580E008951092EA04109271
:20204000D6041092D5041092D40410924204109211048091490490914A048F3F980729F0BF
:20206000019690934A048093490481E08093E40486E08093E3040E94130E6093DF047093A0
:20208000E0048093E1049093E20410920901109208010895CF93DF93382FDC01E0E02A2F36
:2020A000231B261718F42D91E227F9CFDC01A60FB11DCE2FD0E084E0D595C7958A95E1F7DC
:2020C000C65BDE4F88818C93EF70F0E0E65BFE4F808111968C93119712961C9282E0860F11
:2020E000DF91CF910895CF93DF93EB018093E3040E94130E6093DF047093E0048093E10441
:202100009093E204D0930901C0930801DF91CF910895E0916E04AE2FB0E035E0E39FF001A8
:202120001124E755FC4F918380836283438324831196AF70BB27A0936E0480916D048031FA
:2021400018F48F5F80936D040895BC0140916D0429EA33E090E0491771F02B5F3F4FF901FC
:2021600035970190F081E02DE617F70711F4892F08959F5FF0CF8FEF089590912104992355
:2021800091F021E030E002C0220F331F8A95E2F780911F04909120042823392381E0232BA1
:2021A00019F080E0089581E00895FB0101900020E9F73197AF01461B570BDC01ED91FC916B
:2021C0000280F381E02D09946FE771E08AEF94E00C94D510CF93DF93BC018AEF94E00E9426
:2021E0001F0EEC010E94E4108C0F9D1FDF91CF910895EF92FF920F931F93CF93DF93EC0144
:20220000409142042091110430E010E000E05CE0E52EF12C0417C8F4C901800F911FB701FD
:202220000E94A42DFC01EE0FFF1FE750FC4F808191810F5F1F4F8C179D0761F7DF91CF9133
:202240001F910F91FF90EF9008954C30D9F4C90101966CE070E00E94A42D809311048BE037
:202260008093420480914004909141048F3F980729F00196909341048093400488E690E090
:202280000E94EA102091420480911104820F9927991F6CE070E00E94A42DFC01EE0FFF1F55
:2022A000E750FC4FD183C0832F5F20934204C6CF8F929F92AF92BF92EF92FF920F931F939F
:2022C000CF93DF93CDB7DEB7A1970FB6F894DEBF0FBECDBF7C01FA01CB0119A2223008F445
:2022E0002AE08E010F5D1F4F822E912CB12CA12CBF01A50194010E94532DF901CA016A30D8
:202300000CF5605DD8016E938D01232B242B252B79F790E080E0109721F0BD01C7010E948A
:20232000D510A1960FB6F894DEBF0FBECDBFDF91CF911F910F91FF90EF90BF90AF909F904F
:202340008F900895695CDECF2AE00C945811482F50E070E060E02AE08AEF94E00C94581105
:202360008091D6048F3F19F08F5F8093D60461EE78E08AEF94E00E941F0E8091D6040E94D0
:20238000A7118FE20E94300F83E00E94A7110E94E4108091D604833080F063ED78E08AEFB1
:2023A00094E00E941F0E8091D6040E94A71180E898E00E94EA100C941D100895AB0170E0B3
:2023C00060E02AE00C945811CF93DF93BC018AEF94E00E94DE11EC010E94E4108C0F9D1FC1
:2023E000DF91CF91089581E08093E70480914704909148048F3F980729F0019690934804BC
:20240000809347046EE278E08AEF94E00E941F0E80914704909148040C94E411CF92DF92CA
:20242000EF92FF92CF93DF930E94130E6B017C01D0E0C0E00E94130E6C197D098E099F09AD
:20244000683771058105910578F487E995E00E94CA0F892B79F387E995E00E94E00FCF3FDB
:20246000DC0799F32196F1CF1092EA021092E9021092A40361E071E08AEF94E00E941F0EC4
:20248000BE018AEF94E00E94DE1189ED90E0DF91CF91FF90EF90DF90CF900C94EA108F92B2
:2024A0009F92AF92BF92CF92DF92EF92FF92CF93DF93C82F0E94130E6B017C018091EF02FC
:2024C000882319F18091EB029091EC02A091ED02B091EE02A7019601281B390B4A0B5B0B68
:2024E000DA01C901883E9340A105B10570F481EE94E0DF91CF91FF90EF90DF90CF90BF9000
:20250000AF909F908F900C94EA1081E08093EF02C092EB02D092EC02E092ED02F092EE02CD
:2025200060ED74E08AEF94E00E941F0E60EC74E0C13031F06FEA74E0C23011F064EA74E04A
:202540008AEF94E00E941F0E65E974E08AEF94E00E941F0E80913E0390913F03A091400338
:20256000B0914103A7019601281B390B4A0B5B0BCA01B90128EE822E23E0922EA12CB12C9D
:20258000A50194010E94532DBA01A9018AEF94E00E94A41168E874E08AEF94E00E941F0ED5
:2025A0008091F0040E94A71163E774E08AEF94E00E941F0E8091EB049091EC04A091ED042F
:2025C000B091EE040097A105B10509F45BC0A7019601281B390B4A0B5B0BCA01B901A50111
:2025E00094010E94532DBA01A9018AEF94E00E94A41183E70E94300F60E674E08AEF94E0A9
:202600000E941F0E809159040E94A7116BE574E08AEF94E00E941F0E809158040E94A711FC
:202620008FE494E00E94EA101092EB041092EC041092ED041092EE0480915904C23049F52F
:20264000833038F583E0809359041092580481EF93E00E94EA108091F0048230F0F18091A1
:20266000E50481113AC064EF71E087E0DF91CF91FF90EF90DF90CF90BF90AF909F908F9052
:202680000C9473106CE674E08AEF94E00E941F0EB3CF909158049E3F18F49F5F9093580450
:2026A000E82FF0E0ED5DFE4F208190915804921790F2853080F68F5F8093590410925804CC
:2026C00061ED73E08AEF94E00E941F0E809159040E94A7118DEC93E0BCCF80915904E82FD9
:2026E000F0E0EE0FFF1FE95EFE4FC081D181823009F445C0F0F48823E1F18130C1F18FECD5
:2027000091E00E94EA108AE791E00E94EA1068E571E08AEF94E00E941F0ECE0168EE73E05C
:202720000E94902D8AEF94E00E94DE118CE291E04FC08330E1F1843011F787EC92E00E9406
:20274000EA1083E692E00E94EA106DE472E08AEF94E00E941F0ECE0168EE73E00E94902DD2
:202760008AEF94E00E94DE1187E292E031C00E940E121092E8046CE271E083E077CF66EB26
:2027800073E08AEF94E00E941F0ECE0168EE73E00E94902D8AEF94E00E94DE1188E693E0F4
:2027A0000E94EA101092F104BE018AE05FCF61E573E08AEF94E00E941F0ECE0168EE73E0C2
:2027C0000E94902D8AEF94E00E94DE1185E293E00E94EA101092F104BE0180E047CFCF9378
:2027E000DF93D0E0C0E0009731F0BC018AEF94E00E94D510EC010E94E4108C0F9D1FDF91E4
:20280000CF9108956F927F928F929F92AF92BF92CF92DF92EF92FF920F931F93CF93DF93B9
:20282000CDB7DEB72E970FB6F894DEBF0FBECDBFDC010D900020E9F79D0121503109281B6D
:20284000390B122F4FEF420F4F3308F068C0FC01F080F3E4FF1659F044E5F41641F0ADE42B
:20286000FA1629F04FEA4F0D423008F058C0DC01FC0150E040E06FEF7FEF01910C3209F455
:20288000BA014F5F5F4F4117C0F38C016F3F760789F13327261B370B2330310559F5FC0133
:2028A000E60FF71F918120ED290F2A3030F08FEB890F8630F8F429EC290F328190ED930F69
:2028C0009A3030F08FEB830F8630A0F499EC930F81E0860FF80140E03E2F301B381718F46F
:2028E00031914327F9CFF0E12F9F90011124922B941751F180913404909135048F3F9807C5
:2029000029F00196909335048093340461E677E08AEF94E00E941F0EC8010E94EF132E96D5
:202920000FB6F894DEBF0FBECDBFDF91CF911F910F91FF90EF90DF90CF90BF90AF909F9097
:202940008F907F906F90089541E5F4120AC081E08093700410926F048BEE97E00E94EA102E
:20296000DECFCE0101969C01275B354040910601509107012417350720F4309307012093E6
:2029800006011A830983AA24A3942D91222309F414C22C32D1F7FD0131971082E6E0EA15E9
:2029A00008F4BDCFEA2DF0E0EE0FFF1FE80FF91FB183A083A394E9CFF4E5BF1641F02DE448
:2029C000A3E09A2EB21629F0E4E09E2E02C0F6E09F2E42E04A1508F0A2CFEB81FC8130973C
:2029E00009F49DCF8081882309F499CFC12CD12C76011191112301F180ED810F8A3008F085
:202A00008ECFAAE0B0E0A70196010E94402DC12E110FDD08A0E3CA1AD1080D2C000CEE0882
:202A2000FF08C60ED71EE81EF91EC114D104B1E0EB06F104F0F273CF8601C6010E94A510BF
:202A4000882E87FD15C060EE77E08AEF94E00E941F0EC6010E94E411282D45E02402F00117
:202A60001124E755FC4F808191810E94F91057CF9A1489F06EEC77E08AEF94E00E941F0E22
:202A8000C6010E94E41123E04FE36FE3C6010E948910C601EACF84E5B8128AC0ED81FE8165
:202AA0008181811152C15081513469F0543491F4109221041092200410921F041092A80314
:202AC0001092A70303C081E0809321044FE33FE320E06CC0533519F0583509F036C1EF8150
:202AE000F885E984FA84DF010D900020E9F7CD0103978E179F0709F028C1308181812FEC8E
:202B0000280F253008F021C1313409F45FC1323409F01BC124ED280F533561F4F701808174
:202B20008053823008F011C1818181110EC131E4253008F032E4822F65E00E94842D41E3FE
:202B4000490F80912104882381F181E090E002C0880F991F2A95E2F760911F047091200417
:202B6000E091A703F091A8035335B1F4D7012C91682B792B7093200460931F04203339F05C
:202B80008E2B9F2B9093A8038093A703A1CF809590958E239F23F6CF8095909568237923E4
:202BA0007093200460931F04F4CF24E0632FA8C0BDE4BB12AAC0A0901B04B0901C046090A0
:202BC000A5037090A603D12CC12C88248394912CFC2C8C2D0E94BD10882309F446C0C40177
:202BE0000C2C02C0880F991F0A94E2F79C012A213B21232BD1F19C0126213721232BA9F599
:202C0000682A792A7092A6036092A503F4E082E4D82EFF1510F031E4D32E8F2D65E00E942D
:202C2000842D21E3E22EE90E6CE877E08AEF94E00E941F0E8D2D0E94300F8E2D0E94300F3A
:202C40006DE777E08AEF94E00E941F0E8091A5039091A60302C096958795FA94E2F7817029
:202C600099270E94E41120E049C0EFEFCE1ADE0AFAE0CF16D10409F0ABCFF12CE12C8E2D5A
:202C80000E94BD108111F394E3942AE0E212F7CFFF2059F10E94C92C2F2D30E050E040E0B5
:202CA0000E94212DE62EF12C8F2D0E94BD108823C1F08FEF8E0DE11013C021E030E00F2C43
:202CC00002C0220F331F0A94E2F78091A5039091A603822793279093A6038093A50396CF66
:202CE000E82EF3944AE0F412DFCF8FE997E00E94EA104FE3E42E5FE3D52E25E04E2D6D2D2B
:202D0000C8010E948910C801B0CEED81FE81DF010D900020E9F7CD0103978E179F0761F4F6
:202D200081812FEC280F253038F43081313489F024ED280F323469F06DE677E08AEF94E091
:202D40000E941F0EC8010E94E4114FE33FE323E02DCF822F65E00E94842D41E3490F81E0CB
:202D600090E002C0880F991F2A95E2F7B2E5BB1217C060911D0470911E046823792321E0A2
:202D8000672B09F013CF60911B0470911C04FC01E623F723862B972BEF2B51F022E006CFD0
:202DA0008095909560911B0470911C048623972390931C0480931B048BCEE981FA81B08062
:202DC000E2E5BE12F9CD75E0972E03CE533509F0B2CEA4CEBF92CF92DF92EF92FF920F9361
:202DE0001F93CF93DF938091F6049091F704A091F804B091F9040196A11DB11D8093F6048B
:202E00009093F704A093F804B093F90468E07AE18AEF94E00E941F0E01E714E0F801019060
:202E20000020E9F78F0102571440B02E64E272E18AEF94E00E941F0E91E7E92E94E0F92EF8
:202E40006701D0E0DB1528F5F601C1916F0180EE8C0F8F3528F48C2F0E94300FDF5FF2CF10
:202E600061E272E18AEF94E00E941F0EEC2FF0E084E0F595E7958A95E1F7E65BFE4F808125
:202E80000E94300FCF70EC2FF0E0E65BFE4F8081E3CF6DE172E18AEF94E00E941F0E802FDA
:202EA0000E94A71189E20E94300F0E94E41062E871E081E794E00E94E92DEC01892BE1F134
:202EC000C090F404D090F504F12CE12CF8E5CF16F2E0DF06E104F104E0F48091F2049091D8
:202EE000F3048F3F980729F001969093F3048093F2046BEF79E18AEF94E00E941F0EB70173
:202F0000A6018AEF94E00E94A41188EF99E10E94EA106AE370E0CE010E94C72D0097D9F1D6
:202F20000196DF91CF911F910F91FF90EF90DF90CF90BF900C94021444E050E068E871E004
:202F400081E794E00E94DB2D892B09F04DC06DE871E081E794E00E94E92D892B31F181E0C0
:202F60008093F1041092F0041092EF040E94130E6093EB047093EC048093ED049093EE046D
:202F80008FE899E10E94EA108091EA0468EC70E0882309F4E3C0DF91CF911F910F91FF9007
:202FA000EF90DF90CF90BF90089564E971E081E794E00E94E92D892B71F31092F10484E68D
:202FC00099E10E94EA108091EA048111E4CF1092EF04DF91CF911F910F91FF90EF90DF9065
:202FE000CF90BF900C944F128091EA048111C1C1C0910A01CB3008F0BCC16FE971E081E732
:2030000094E00E94E92D892BF1F086E199E10E94EA1080910A01833081F491E09093E904AD
:203020006CED75E0DF91CF911F910F91FF90EF90DF90CF90BF900C9473109CEF980F923080
:2030400008F0A9CFEDCFC23009F08AC047E050E064EA71E081E794E00E94DB2D892BA1F549
:2030600066EF78E18AEF94E00E941F0E80917804823321F17CF48133A1F081E794E0DF9191
:20308000CF911F910F91FF90EF90DF90CF90BF900C94EF138333A9F0843379F788E998E153
:2030A00002C082EE98E1DF91CF911F910F91FF90EF90DF90CF90BF900C94EA1088EC98E193
:2030C000F2CF86EA98E1EFCF6AE272E081E794E00E94E92D892B41F46CEA71E081E794E0EA
:2030E0000E94E92D892BD9F08091F0048A3F18F48F5F8093F0041092F1041092EF0460E858
:2031000078E18AEF94E00E941F0E8091F0040E94A7118BE498E10E94EA1080E05ACF62E2EA
:2031200072E081E794E00E94D22D892B09F0B2C285EF97E10E94EA101092F0041092E804F3
:203140001092EF040E94130E6093EB047093EC048093ED049093EE046CE271E083E062CFF6
:20316000CA3009F562E272E081E794E00E94D22D892B89F06CEA71E081E794E00E94E92DDC
:20318000892B49F462EB71E081E794E00E94E92D892B09F47FC286EA97E10E94EA1064EF43
:2031A00071E082E03FCFC33009F074C243E050E068EB71E081E794E00E94DB2D892B09F4FE
:2031C00069C281E794E04AE001C0CD01DC012D91222309F451C220532A30B8F734E08137F7
:2031E000930731F0FC013197208120532A3068F3FC0130E090E020E0819150ED580F5A30C9
:2032000030F4249F800D112420ED280FF5CF911101C0322F8E3211F49F5FEDCF9330A9F658
:20322000332399F281E08093F1041092E8041092E7041092E9048091EB049091EC04A09158
:20324000ED04B091EE04892B8A2B8B2B51F40E94130E6093EB047093EC048093ED04909327
:20326000EE0460E977E18AEF94E00E941F0E81E794E00E94EF1368EC70E084E0D3CE88301E
:2032800069F562E272E081E794E00E94D22D892BB1F06CEA71E081E794E00E94E92D892B79
:2032A000B1F463EE71E081E794E00E94E92D892B09F45FC01092F10483ED93E14EC085E075
:2032C00097E10E94EA106CE271E089E0ABCE85EA96E10E94EA1085E596E1F3CF893009F77B
:2032E00047E050E066EC71E081E794E00E94DB2D892B69F46EEC71E081E794E00E94E92DFE
:20330000892B09F448CE81E08093E60444CE62E272E081E794E00E94D22D892B49F06CEA20
:2033200071E081E794E00E94E92D892B09F4B9CF81E08093E50488EE95E10E94EA10809179
:20334000E604882379F08CE895E10E94EA1088E195E10E94EA1089EC94E10E94EA1068EE92
:2033600073E01FCF8BE794E10E94EA1089E294E1F4CF69EE71E081E794E00E94E92D892BF6
:2033800009F449C067E971E081E794E00E94E92D892B09F440C08091E4048823B1F087E78E
:2033A00093E10E94EA1086E08093E3040E94130E6093DF047093E0048093E1049093E2041C
:2033C0001092090110920801E6CDC1E0C093EA040E94130E6093DB047093DC048093DD0495
:2033E0009093DE040E94130E6093D7047093D8048093D9049093DA041092D60410927004D5
:20340000C0936F041092D5041092D4041092D30485E493E148CEC701F7012081FFEFEF1A2D
:20342000FF0A2032C1F32930B1F32053253028F4FC0121812C3209F40296FC01019000205C
:20344000E9F73197E81BF90B2E2FE80FF92FF11D222309F460C03291303219F03B7F393080
:2034600011F42150F5CF47E067E971E0273031F0263009F050C046E06FEE71E00E940410E9
:20348000882309F448C0C1E0C093EA040E94130E6093DB047093DC048093DD049093DE0429
:2034A0000E94130E6093D7047093D8048093D9049093DA041092D60410927004C0936F0453
:2034C0001092D5041092D4041092E4041092D3041092F0041092E804C093F1048091EB0488
:2034E0009091EC04A091ED04B091EE04892B8A2B8B2B51F40E94130E6093EB047093EC046A
:203500008093ED049093EE0410926E0410926D048EE193E1C8CD66EF71E081E794E00E94CF
:20352000E92D892BB9F46DEF71E081E794E00E94E92D892B79F464E072E081E794E00E949E
:20354000E92D892B39F48091EA0481112EC081E794E0E7CC1092EA041092D6041092700444
:2035600081E080936F041092D5041092D4041092E4041092D30410926E0410926D0483E0E2
:203580008093E3040E94130E6093DF047093E0048093E1049093E2048CE291E090930901A4
:2035A000809308011092E804F6CC6BE072E081E794E00E94E92D892B79F08EEC92E10E94C2
:2035C000EA10DF91CF911F910F91FF90EF90DF90CF90BF900C941D1047E050E06DE172E0E2
:2035E00081E794E00E94DB2D892B29F41092D5041092D404D0CC49E050E065E272E081E789
:2036000094E00E94DB2D892BF9F41092D5041092D4048091D1049091D2048F3F980729F093
:2036200001969093D2048093D10480E792E10E94EA10DF91CF911F910F91FF90EF90DF90FF
:20364000CF90BF900C94B0116CEA71E081E794E00E94E92D892B49F46FE971E081E794E0AA
:203660000E94E92D892B09F472CF66E272E18AEF94E00E941F0E01CD6FE272E081E794E0FC
:203680000E94D22D892B31F48091E704811102C00E94F31180910A01843009F0F0CD62E2F0
:2036A00072E081E794E00E94D22D892B49F06CEB71E081E794E00E94E92D892B09F4F1CDA3
:2036C0008AE697E10E94EA1068EC70E085E0AACCCF93DF93D82F8091530490915404A091FA
:2036E0005504B09156040196A11DB11D8093530490935404A0935504B0935604DA3009F0A2
:20370000B2C08091E9028823A1F066EC70E08AEF94E00E941F0E80E60E94A71188EA90E0FF
:203720000E94EA101092EA021092E902DF91CF9108954091EA024423C9F350E0FA01E7571C
:20374000FD4F10821092EA028091F502882309F476C08091A403811131C04F5F5F4F69E82F
:2037600072E084E493E00E94BE2D8091870290918802909343038093420381E08093A4036E
:2037800080912804909129048F3F980729F0019690932904809328048091F402803430F215
:2037A00080912604909127048F3F980709F4BECF01969093270480932604B8CF6DE172E042
:2037C00089E892E00E94E92D2091F402892BD1F080913004909131048F3F980729F001967A
:2037E0009093310480933004203460F080912C0490912D048F3F980729F0019690932D0482
:2038000080932C0480912A0490912B048F3F980729F0019690932B0480932A04203408F4D6
:2038200085CF80912404909125048F3F980709F47DCF0196909325048093240477CF4F5FE9
:203840005F4F69E872E081E794E00E94BE2D80918702909188029093F5048093F404DF91D2
:20386000CF910C94EA168091D504882309F441C080918602E82FF0E0E15FFE4F90819D13E7
:2038800033C08F5F873019F08093860222C0109286021092D5041092D40480913204909183
:2038A00033048F3F980729F0019690933304809332048091F402803460F080912E049091A2
:2038C0002F048F3F980729F0019690932F0480932E04DD3009F42ACFC091EA02CF3560F069
:2038E00081E08093E90222CF81E0D33569F280E0CBCF10928602EDCFC1110CC00E94130E73
:2039000020914B0430914C04621B730B709388026093870281E08C0F8093EA02EC2FF0E0AC
:20392000E757FD4FD08302CF87E995E00E94CA0F892B39F087E995E00E94E00F0E94681B01
:20394000F3CF8091B50580FF0FC08E7F8093B50580913604909137048F3F980729F00196EE
:20396000909337048093360408952F923F924F925F927F928F929F92AF92BF92CF92DF92D4
:20398000EF92FF920F931F93CF93DF931F92CDB7DEB79E01265B35404091060150910701CD
:2039A0002417350720F430930701209306017090EA04711015C0E12C8E2D0F90DF91CF917C
:2039C0001F910F91FF90EF90DF90CF90BF90AF909F908F907F905F904F903F902F900895D7
:2039E0009B0121503109203A310528F78B016C01E090D504EE2009F45AC00E94130E009116
:203A0000F6021091F7022091F8023091F902DC01CB01801B910BA20BB30B80342FE1920705
:203A2000A105B10568F5803D9740A105B105B8F08091D404811113C081E08093D40480918A
:203A40004504909146048F3F980729F0019690934604809345048FE097E00E94EA10809139
:203A60002204909123048F3F980729F00196909323048093220487EB96E00E94EA109BCF4A
:203A80001092D5041092D40480914304909144048F3F980729F0019690934404809343048E
:203AA0008BE596E00E94EA100E941D1084CF81E08093F5026093F4020E94130E8090F00249
:203AC0009090F102A090F202B090F302681979098A099B09603571058105910518F40E946B
:203AE000941CEACF6FE476E087E995E00E941F0E4801FFEF8F1A9F0AB40187E995E00E943B
:203B0000DE116CE476E087E995E00E941F0E0E94130E1B012C01B12CA12C0E94130E621968
:203B20007309840995096C3271408105910508F048C087E995E00E94CA0F892B71F387E98B
:203B400095E00E94E00FF82E8EE3F81609F470C08F2D0E94681B8FEB8F0D8A3110F4E0E215
:203B6000FE0EEA2DF0E0E15DFE4F8081A3948F1529F0AA24A394F2E6FF12A12CEA2DF0E030
:203B8000E15DFE4F8081882309F4B4C0EB2DF0E0E75DFE4F8081B3948F1529F0BB24B394D9
:203BA00025E6F212B12CEB2DF0E0E75DFE4F80818111BFCF92E0F92E85EA95E00E94EA1066
:203BC00067C083E0F82EB12CA12C63E287E995E00E946E0FC5018F7099270F9711F40E9470
:203BE000941C8FEFA81AB80A0A151B0571F76AE087E995E00E946E0F0E94941C80915E0459
:203C000090915F048F3F980729F0019690935F0480935E0469E775E08AEF94E00E941F0EA7
:203C2000B4018AEF94E00E94DE118BE395E0C6CFF12C0C0D1D1D560145018C189D08F5018D
:203C400061915F0187E995E00E946E0FFFE08F2299242FE08216910411F40E94941C0A150F
:203C60001B0551F76AE087E995E00E946E0F0E94941C81E08093D5041092D4040E94130EB2
:203C80006093F6027093F7028093F8029093F9020E94130E6093F0027093F1028093F2026D
:203CA0009093F3021092F5026AE275E0F11002C065E375E08AEF94E00E941F0EC6010E942D
:203CC000EF13F1E0FF1649F1F11019C01092D6040E94130E6093D7047093D8048093D9040C
:203CE0009093DA04109216041092170410921804E72C62CEFF24F39486EE95E05FCF0E94E6
:203D0000B01122E0F21212C0809116048F3F09F452CE8F5F809316044FCE809118048F3FC1
:203D200009F449CE8F5F8093180446CE809117048F3F09F441CE8F5F809317043DCE1F9260
:203D40000F920FB60F9211242F933F938F939F93AF93BF938091690490916A04A0916B04FE
:203D6000B0916C043091680423E0230F2D3758F50196A11DB11D209368048093690490939A
:203D80006A04A0936B04B0936C048091640490916504A0916604B09167040196A11DB11DF3
:203DA0008093640490936504A0936604B0936704BF91AF919F918F913F912F910F900FBED5
:203DC0000F901F90189526E8230F0296A11DB11DD2CF1F920F920FB60F9211242F933F9362
:203DE0004F935F936F937F938F939F93AF93BF93EF93FF938AEF94E00E94C10EFF91EF9171
:203E0000BF91AF919F918F917F916F915F914F913F912F910F900FBE0F901F9018951F923A
:203E20000F920FB60F9211242F938F939F93EF93FF93E0910A05F0910B058081E091100584
:203E4000F091110582FD1BC09081809113058F5F8F7320911405821741F0E0911305F0E05A
:203E6000E650FB4F958F80931305FF91EF919F918F912F910F900FBE0F901F9018958081EB
:203E8000F4CF1F920F920FB60F9211242F933F934F935F936F937F938F939F93AF93BF930E
:203EA000EF93FF93E0913C03F0913D03309749F0A685B7858585968D91FF14C09C918923AC
:203EC000A1F4FF91EF91BF91AF919F918F917F916F915F914F913F912F910F900FBE0F90E2
:203EE0001F9018959C91892361F7A389B4899C918589809589238C93868997890197F1F702
:203F0000608D718DA685B785558538E020E0CB010197F1F7822F90E095958795282F4C9176
:203F2000452309F02068315091F7868D81FD209580913B0390E001968F73992730913A0333
:203F4000381799F0A0913B03B0E0A650BD4F2C9380933B03828D938D0197F1F7A389B48960
:203F60008C919589892B8C93ACCF868D8160868FF1CF1F93CF93DF93282F30E0F901E75FC2
:203F8000FD4E8491F901EA5CF54ED491F901EE5DF54EC491CC23A9F0162F81110E94AE0D40
:203FA000EC2FF0E0EE0FFF1FE85EF54EA591B4918FB7F894EC91111108C0D095DE23DC93E9
:203FC0008FBFDF91CF911F910895DE2BF8CF1092FD041092FC0488EE93E0A0E0B0E0809355
:203FE000FE049093FF04A0930005B09301052FE531E03093FB042093FA0425EC30E030939C
:2040000007052093060524EC30E0309309052093080520EC30E030930B0520930A0521EC67
:2040200030E030930D0520930C0522EC30E030930F0520930E0526EC30E03093110520936E
:2040400010051092130510921405109215051092160510929A051092990580939B05909306
:204060009C05A0939D05B0939E0581E791E090939805809397051092AE051092AD05109251
:20408000B0051092AF051092B2051092B1051092B4051092B3056091B5056E7F6D7F609338
:2040A000B5056695617081E0682787E00E94B91F61E087E00E94D70DEDE3FAE1E491E093E8
:2040C000A705E9E2FAE1E491F0E0EE0FFF1FE85EF54E859194919093A9058093A80560E099
:2040E00088E00E94D70D8091B50581FD04C061E088E00E94B91F88E08093A305EEE3FAE1D3
:20410000E491E093A405EAE2FAE1E491F0E0EE0FFF1FE25FF54E859194919093A605809367
:20412000A5050895CF93DF93CDB7DEB7C35DD1090FB6F894DEBF0FBECDBF789484B58260E3
:2041400084BD84B5816084BD85B5826085BD85B5816085BD80916E00816080936E00109285
:204160008100809181008260809381008091810081608093810080918000816080938000AA
:204180008091B10084608093B1008091B00081608093B00080917A00846080937A00809143
:2041A0007A00826080937A0080917A00816080937A0080917A00806880937A001092C100BA
:2041C000E0910A05F0910B0582E08083E0910605F09107051082E0910805F091090580E160
:2041E000808310921205E0910E05F0910F0586E08083E0910C05F0910D0580818061808387
:20420000E0910C05F0910D05808188608083E0910C05F0910D05808180688083E0910C051A
:20422000F0910D0580818F7D80831092B2051092B1051092B0051092AF051092AE05109286
:20424000AD058DE991E09093B4058093B3059091A305963108F047C02DEB30E03093AE05F1
:204260002093AD052BE931E03093B0052093AF052CE231E03093B2052093B10520916800BA
:2042800084E0983048F031E09E3008F430E081E001C0880F3A95EAF7822B809368002DE62B
:2042A00030E0983050F02BE630E09E3030F02CE630E0963110F030E020E03093AB052093B8
:2042C000AA05292F30E0983008F004C281E001C0880F9A95EAF78093AC058091B3059091CA
:2042E000B4050197F1F78091B1059091B205892B49F1E0913C03F0913D0325E0E739F20769
:2043000009F1309739F0A389B4899C918589809589238C938091B5058E7F8093B5051092E8
:204320003B0310923A0387E995E090933D0380933C03E091AA05F091AB0580819091AC05A2
:20434000892B80830E94130E60934B0470934C0480934D0490934E0481E480937C00809170
:204360007A00806480937A0080917A0086FDFCCF4091780050917900052E000C660B770BA4
:204380003FB7F8948091640490916504A0916604B091670426B5A89B05C02F3F19F0019660
:2043A000A11DB11D3FBFBA2FA92F982F8827820F911DA11DB11DF2E0880F991FAA1FBB1FAD
:2043C000FA95D1F78A019B01082719272A273B27481759076A077B0721F0C901B8010E9455
:2043E000182D109221041092200410921F041092A8031092A70386E091E09093A6038093D7
:20440000A5031092E3040E94130E6093DF047093E0048093E1049093E20484EF91E09093E3
:2044200009018093080182E29AE00E94EA106BE07AE08AEF94E00E941F0E8091B60581111D
:2044400056C181ED99E00E94EA106AE479E08AEF94E00E941F0E6FE079E08AEF94E00E9428
:204460001F0E6AEF78E08AEF94E00E941F0E86EF98E00E94EA10AE0141545F4FCC53DF4FDA
:2044800059834883C45CD040CE018E559F4FC853DF4F99838883C85CD040FE01E654FF4F7A
:2044A000CA53DF4FF983E883C65CD0409E012F5F3F4F19010E94130E2B013C018091EA0498
:2044C000882309F43DC180915904882339F18091DB049091DC04A091DD04B091DE04A30129
:2044E0009201281B390B4A0B5B0BDA01C90180339547A105B10594F068E37EE08AEF94E03D
:204500000E941F0E809159040E94A71183E39EE00E94EA1010925904109258040E94941C35
:204520008091A4038823A9F080E6E4E4F3E0A1E7B4E001900D928A95E1F7809142039091C4
:2045400043039093F5048093F4041092A4030E94EA16E090210400911F0410912004609104
:20456000A5037091A6034091A7035091A80330E020E0C653DF4F19821882CA5CD040E22F0F
:20458000EE2009F40AC3C801022E02C0969587950A94E2F780FF01C3CA010E2E02C0969593
:2045A00087950A94E2F78170A9F081E090E002C0880F991FEA95E2F7C653DF4FE881F9817A
:2045C000CA5CD040E82BF92BC653DF4FF983E883CA5CD0402F5F3F4F2A30310581F6C653CE
:2045E000DF4F28813981CA5CD04030931E0420931D04EE2009F4D3C2C453DF4F198308832F
:20460000CC5CD0408091040190910501C653DF4FE881F981CA5CD0408E179F0709F0C8C2F7
:2046200020911B0430911C0480910201909103012817390709F0BCC2809100019091010165
:20464000C453DF4F28813981CC5CD0408217930709F0AEC210921A0480904B0490904C044F
:20466000A0904D04B0904E0440913A0450913B0460913C0470913D04F090EA04E091190489
:204680002091380430913904D301C20188199909AA09BB09803BF4E09F07A105B10508F451
:2046A0008FC2F0EB8F0EF4E09F1EA11CB11CFF2039F0E11105C02F3F320711F02F5F3F4F53
:2046C0004F5F5F4F6F4F7F4F805B9440A109B109E0E0E0CF9E3040F42850310981E001C09A
:2046E000880F2A95EAF7F7CD2E503109F7CF80FF06C06EEB79E08AEF94E00E941F0E80917D
:20470000B60581FF06C064EA79E08AEF94E00E941F0E8091B60582FF06C061E879E08AEF07
:2047200094E00E941F0E8091B60583FF06C066E779E08AEF94E00E941F0E0E94E41085CED7
:2047400080915704882379F077FC0DC0109257040E940E126CED75E081E00E9473108FE433
:204760009AE00E94EA10809157048111D7CE8091DF049091E004A091E104B091E204B30196
:20478000A201481B590B6A0B7B0B8091080190910901B0E0A0E0481759076A077B0708F4B1
:2047A000BDCE8091E304853059F48091F104811107C083EE9DE00E94EA1082E08093E3042F
:2047C0001091E304123091F48091EF04882309F455C01092EF048091F0048A3F18F48F5F6C
:2047E0008093F00481E00E944F1298CE1B3008F060C0E12FF0E0E150FC4D0C94B82D0A2478
:204800001B2459248124CB24EC241125542575259625BA2569EF7CE087E995E00E941F0EED
:204820006DEE7CE08AEF94E00E941F0E0E94E4101092EF043EC06FED7CE087E995E00E949D
:204840001F0E6EEC7CE08AEF94E00E941F0E0E94E41081E080930A014092DF045092E00429
:204860006092E1047092E20480E293E090930901809308011F5F1093E30450CE6FE97CE081
:2048800087E995E00E941F0E68E67CE08AEF94E00E941F0E0E94E41081E08093EF040E945F
:2048A000130E60933E0370933F03809340039093410310930A014092DF045092E004609286
:2048C000E1047092E204E12FF0E0EE0FFF1FEC5CFE4F808191819093090180930801EEEF42
:2048E000E10FE93038F6F0E0E858FB4D0C94B82DB825A024EA240B25302573259425B52545
:20490000B8256DE57CE087E995E00E941F0E6FE27CE08AEF94E00E941F0E0E94E41083E0F6
:2049200080930A014092DF045092E0046092E1047092E20484EC99E09093090180930801ED
:204940008091E8048F5F8093E804833008F41BC18091E9041092E8041092E9048111A3C7CB
:204960008091E704811102C00E94F3118FE49DE00E94EA1082E08093E30480E00E944F12F6
:204980008091E304833009F0C9CD68EE73E082E00E947310C3CD61E27CE087E995E00E94F7
:2049A0001F0E60E17CE08AEF94E00E941F0E0E94E41084E080930A014092DF045092E004DE
:2049C0006092E1047092E20480EB94E0909309018093080185E0D8C067EE7BE087E995E05E
:2049E0000E941F0E66ED7BE08AEF94E00E941F0E0E94E41085E080930A014092DF045092CE
:204A0000E0046092E1047092E20480E49FE190930901809308018091E4048823D9F286E0F1
:204A2000B3C068EC7BE087E995E00E941F0E60EA7BE08AEF94E00E941F0E0E94E41086E043
:204A400080930A014092DF045092E0046092E1047092E20480E293E09093090180930801E0
:204A60008091D3048F5F8093D304833008F48FC06FE37DE08AEF94E00E941F0E8091D30425
:204A80000E94A71182E09DE00E94EA101092E3041092E4041092D30488EC90E090930901A4
:204AA0008093080182E09FCE67E97BE087E995E00E941F0E60E77BE08AEF94E00E941F0E4E
:204AC0000E94E41087E080930A014092DF045092E0046092E1047092E2048CED95E0909370
:204AE00009018093080188E04FC061E57BE087E995E00E941F0E67E17BE08AEF94E00E9492
:204B00001F0E0E94E41088E080930A014092DF045092E0046092E1047092E2048CED95E024
:204B2000909309018093080189E02EC06CE07BE087E995E00E941F0E60EE7AE08AEF94E0E5
:204B40000E941F0E0E94E41089E080930A014092DF045092E0046092E1047092E20488E2C5
:204B600093E2909309018093080181E08093E50482E00AC065ED7AE087E995E00E941F0E8E
:204B800063EA7AE04FCE83E08093E304C7CC83E08093E3041092E804C1CCCB01FECC4FEF15
:204BA0005FEFC453DF4F59834883CC5CD0402ACD80911A04811150CD81E080931A044CCD03
:204BC000E093190480924B0490924C04A0924D04B0924E0440933A0450933B0460933C04F5
:204BE00070933D04309339042093380488539F4FAF4FBF4F89359240A105B10508F00CC3FA
:204C000081E0E827FF2009F490C08091D7049091D804A091D904B091DA04A3019201281B28
:204C2000390B4A0B5B0BDA01C90180319742A105B1050CF4F3C262E570E18AEF94E00E940E
:204C40001F0E8091D7049091D804A091D904B091DA04B301A201481B590B6A0B7B0B8AEF7F
:204C600094E00E94A41168E270E18AEF94E00E941F0E809118040E94A7116AE170E18AEF76
:204C800094E00E941F0E809117040E94A7116FE070E18AEF94E00E941F0E809116040E9422
:204CA000A71168EF7FE08AEF94E00E941F0E60912204709123048AEF94E00E94DE1167EEB8
:204CC0007FE08AEF94E00E941F0E60914504709146048AEF94E00E94DE116AED7FE08AEF87
:204CE00094E00E941F0E6091D1047091D2048AEF94E00E94DE116CEC7FE08AEF94E00E9410
:204D00001F0E60914704709148048AEF94E00E94DE118BEA9FE00E94EA1010921604109271
:204D20001704109218040E941D1080914F0490915004A0915104B0915204A3019201281B5B
:204D4000390B4A0B5B0BDA01C90180369A4EA105B10508F494C18091EA048823E1F08091D8
:204D60004B0490914C04A0914D04B0914E0422E330E040E050E0281B390B4A0B5B0BDA01DC
:204D8000C901840D951DA61DB71D89359240A105B10508F074C140924F0450925004609209
:204DA00051047092520466E471E18AEF94E00E941F0EC301B20128EE33E040E050E00E945C
:204DC000532DBA01A9018AEF94E00E94A4116FE371E18AEF94E00E941F0E6091490470910B
:204DE0004A048AEF94E00E94DE1166E371E18AEF94E00E941F0E60914704709148048AEF8E
:204E000094E00E94DE116DE271E18AEF94E00E941F0E60915E0470915F048AEF94E00E94EA
:204E2000DE1162E271E18AEF94E00E941F0E6091D1047091D2048AEF94E00E94DE116BE1CA
:204E400071E18AEF94E00E941F0E60914504709146048AEF94E00E94DE1163E171E18AEF32
:204E600094E00E941F0E60914304709144048AEF94E00E94DE116CE071E18AEF94E00E94C3
:204E80001F0E809142040E94A71162E071E18AEF94E00E941F0E60914004709141048AEFF0
:204EA00094E00E94DE1167EF70E18AEF94E00E941F0E60913E0470913F048AEF94E00E9484
:204EC000DE1160EF70E18AEF94E00E941F0E40913A0450913B0460913C0470913D048AEF6C
:204EE00094E00E94A4116AEE70E18AEF94E00E941F0E6091F2047091F3048AEF94E00E9414
:204F0000DE1162EE70E18AEF94E00E941F0E60913804709139048AEF94E00E94DE116AED05
:204F200070E18AEF94E00E941F0E60913604709137048AEF94E00E94DE1160ED70E18AEF68
:204F400094E00E941F0E60913404709135048AEF94E00E94DE11E0903204F0903304C09080
:204F60003004D090310400912E0410912F04A0902C04B0902D0465EC70E18AEF94E00E94CF
:204F80001F0EB7018AEF94E00E94DE116AEB70E18AEF94E00E941F0E60912A0470912B04FD
:204FA0008AEF94E00E94DE116FEA70E18AEF94E00E941F0E60912804709129048AEF94E0D5
:204FC0000E94DE1165EA70E18AEF94E00E941F0E60912604709127048AEF94E00E94DE111F
:204FE0006BE970E18AEF94E00E941F0E60912404709125048AEF94E00E94DE1161E970E1F4
:205000008AEF94E00E941F0EB8018AEF94E00E94DE1168E870E18AEF94E00E941F0EB60189
:205020008AEF94E00E94DE116CE770E18AEF94E00E941F0EB5018AEF94E00E94DE1165E712
:2050400070E18AEF94E00E941F0E60912204709123048AEF94E00E94DE116CE670E18AEF6A
:2050600094E00E941F0E4091EA0450E070E060E02AE08AEF94E00E9458110E94E4108091C5
:20508000EA0481117FC080915A0490915B04A0915C04B0915D04A3019201281B390B4A0B1C
:2050A0005B0BDA01C901883B9B40A105B10508F469C040925A0450925B0460925C04709201
:2050C0005D0466E871E18AEF94E00E941F0E8091E3040E94A7116AE771E18AEF94E00E948F
:2050E0001F0E809159040E94A7118FE20E94300F809158040E94A71180915704882331F06A
:2051000064E671E18AEF94E00E941F0E6FE571E18AEF94E00E941F0E409153045091540474
:2051200060915504709156048AEF94E00E94A41167E571E18AEF94E00E941F0E4091F60461
:205140005091F7046091F8047091F9048AEF94E00E94A41162E571E18AEF94E00E941F0EEF
:20516000C301B20128EE33E040E050E00E94532DBA01A9018AEF94E00E94A41180E591E19D
:205180000E94EA108091600490916104A0916204B0916304A3019201281B390B4A0B5B0BC0
:2051A000DA01C90180369A4EA105B10540F1409260045092610460926204709263046AEE89
:2051C00071E18AEF94E00E941F0E60910601709107018AEF94E00E94DE116CEC71E18AEF1F
:2051E00094E00E941F0E60915E0470915F048AEF94E00E94DE118BE991E10E94EA1080E055
:2052000090E0892B09F456C90E94AD0E882309F44DC90E94000041C9E0E0F4CCEE2309F4F9
:2052200084CD40911B0450911C04C253DF4F59834883CE5CD0400E94130E9B01AC012819BB
:2052400039094A095B09C053DF4F288339834A835B83C05DD040F0907004FF2009F484C180
:205260001F928AE08F931F9287E08F9387E392E09F938F931F9281EA8F933F922F920E9415
:20528000032E0FB6F894DEBF0FBECDBF181619060CF0C3C09C012D5F3F4F223A310508F089
:2052A000BCC0682FC1010E944A10F10101900020E9F731978F01021913095BE8E52E5EE077
:2052C000F52E61ED862E6EE0962EF7018491C654DF4F8883CA5BD0403196E491C554DF4F7F
:2052E000E883CB5BD040C454DF4F1882CC5BD040F7013396E491C154DF4FE883CF5BD040D8
:20530000F7013496E491C054DF4FE883C05CD040CF53DF4F1882C15CD040CB53DF4FF881A1
:20532000C55CD040FF93CC53DF4F2881C45CD0402F93C953DF4F3881C75CD0403F93CA539D
:20534000DF4F4881C65CD0404F9382E492E09F938F931F92F8E1FF93C753DF4F2881C95CE4
:20536000D0402F93C853DF4F3881C85CD0403F930E94032E0FB6F894DEBF0FBECDBF18160B
:2053800019060CF04AC09C012D5F3F4F2931310508F043C0682FCE018E559F4F0E944A1073
:2053A000C853DF4FE881F981C85CD04001900020E9F731976F01C853DF4F88819981C85C34
:2053C000D040C81AD90AC801805A91098C0D9D1D8F359F4F10F15801FFEFAF1ABF0AF101EA
:2053E000E00FF11F2AE02083A6014F5F5F4FBE016E557F4FC1018A0D9B1D0E94BE2D860189
:205400000A0D1B1D37E0E30EF11C8E149F0409F05CCF0115110509F07AC08FE29FE00E94CE
:20542000EA1010E000E0D12CF12C81E08093190461EA7FE08AEF94E00E941F0E40913A0482
:2054400050913B0460913C0470913D048AEF94E00E94A4116CE97FE08AEF94E00E941F0E05
:20546000B8018AEF94E00E94DE1166E97FE08AEF94E00E941F0E8D2D0E94A71160E97FE0CF
:205480008AEF94E00E941F0EC053DF4F488159816A817B81C05DD0408AEF94E00E94A41114
:2054A0008BE89FE0F11002C086E89FE00E94EA100E94130EFF2009F438CC80911404909181
:2054C000150401969093150480931404C653DF4F28813981CA5CD040309305012093040154
:2054E000C253DF4F48815981CE5CD0405093030140930201C453DF4F88819981CC5CD0402F
:20550000909301018093000110921A040ECCB801C1010E94B51CF82E882309F4C9C11092D0
:20552000700480911204909113048F3F980729F00196909313048093120461E27FE08AEFFD
:2055400094E00E941F0E67E17FE08AEF94E00E941F0EB8018AEF94E00E94DE118FE19FE07F
:205560000E94EA10D12C61CFBE0161547F4FC653DF4F88819981CA5CD0400E94600DBE01B2
:2055800066547F4FC253DF4F88819981CE5CD0400E94600DD0901404C0901504EE2009F4E8
:2055A00052C0BE016E557F4FC8010E94600D0E94130EC753DF4F5881C95CD0405F93C8538B
:2055C000DF4FE881C85CD040EF932BE432E03F932F9328EE33E040E050E00E94532D5F933C
:2055E0004F933F932F93C953DF4FF881C75CD040FF93CA53DF4F2881C65CD0402F93CB53A7
:20560000DF4F3881C55CD0403F93CC53DF4F4881C45CD0404F93CF92DF928EE492E09F9390
:205620008F931F9280E48F933F922F920E94032E0FB6F894DEBF0FBECDBF18161906CCF15B
:2056400010E000E08FCF0E94130E2BE432E03F932F9328EE33E040E050E00E94532D5F9317
:205660004F933F932F93C953DF4FF881C75CD040FF93CA53DF4F2881C65CD0402F93CB5326
:20568000DF4F3881C55CD0403F93CC53DF4F4881C45CD0404F93CF92DF9284E692E09F9318
:2056A0008F931F9280E48F933F922F920E94032EBFCF9C012D5F3F4F2134310508F6682FC7
:2056C000C1010E944A10F10101900020E9F731978F0102191309002309F4B2CF1127D090C1
:2056E0004204DD2009F4B9C0E0901104F12CF701EE0FFF1FE750FC4F808191810E94A51050
:2057000087FF1CC0C70101966CE070E00E94A42D80931104DA94D092420480913E04909107
:205720003F048F3F980729F0019690933F0480933E0481ED9EE00E94EA10D1CFD12C95E0B4
:20574000B92E28E1A22E3AE0C32E80914204D81608F083C0809111048D0D9927991F6CE07A
:2057600070E00E94A42DFC01EE0FFF1FE750FC4F808191810E94A51087FD6FC02B2D382FF0
:205780003203F0011124E755FC4F84811F928F938381282F082E000C330B3F938F9382817D
:2057A000282F082E000C330B3F938F9381818F9380818F9347E752E05F934F931F92AF92B1
:2057C000C753DF4F9881C95CD0409F93C853DF4FE881C85CD040EF930E94032E0FB6F89475
:2057E000DEBF0FBECDBF18161906BCF59C012D5F3F4F2931310588F5682FCE018E559F4FBA
:205800000E944A10C853DF4FE881F981C85CD04001900020E9F73197AF01C853DF4F8881D1
:205820009981C85CD040481B590B5527C80101967A01E80EF91EE1EAEE16F10470F4F101D5
:20584000E00FF11FC082BE016E557F4F820D931D0E94BE2DD394870178CFB801C1010E9498
:20586000B51CF82E882309F4E0CDDD2081F0809111048D0D9927991F6CE070E00E94A42D27
:2058800080931104809142048D198093420480916F04882329F010926F0481E08093700445
:2058A000FF24F394C2CD8CE89DE00E94EA105EC861E27FE08AEF94E00E941F0E6FE07FE0F0
:2058C00044CE81E791E0909398058093970580913C0390913D038759954071F4E091AA0583
:2058E000F091AB0590818091AC0580958923808310923D0310923C0308958F929F92AF92ED
:20590000BF92CF92DF92EF92FF92CF93DF93EC01688179818A819B8161157105810591057F
:2059200021F464E279ED8BE597E02DE133EF41E050E00E94212D49015A019B01AC01A7EACF
:20594000B1E40E94402D6B017C01ACEEB4EFA50194010E944E2DC60ED71EE81EF91EF7FE4A
:2059600006C081E0C81AD108E10880E8F80AC882D982EA82FB82C701B6019F77DF91CF91FF
:20598000FF90EF90DF90CF90BF90AF909F908F9008958F929F92AF92BF92CF92DF92EF927B
:2059A000FF9260910B0170910C0180910D0190910E01611571058105910521F464E279ED33
:2059C0008BE597E02DE133EF41E050E00E94212D49015A019B01AC01A7EAB1E40E94402D4C
:2059E0006B017C01ACEEB4EFA50194010E944E2DC60ED71EE81EF91EF7FE06C081E0C81A45
:205A0000D108E10880E8F80AC0920B01D0920C01E0920D01F0920E01C701B6019F77FF9058
:205A2000EF90DF90CF90BF90AF909F908F90089560930B0170930C0180930D0190930E013E
:205A40000895052E97FB1EF400940E94382D57FD07D00E94532D07FC03D04EF40C94382DCD
:205A600050954095309521953F4F4F4F5F4F089590958095709561957F4F8F4F9F4F08950E
:205A80000E94752DA59F900DB49F900DA49F800D911D11240895B7FF0C94402D0E94402DCF
:205AA000821B930B0895A1E21A2EAA1BBB1BFD010DC0AA1FBB1FEE1FFF1FA217B307E407B1
:205AC000F50720F0A21BB30BE40BF50B661F771F881F991F1A9469F7609570958095909594
:205AE0009B01AC01BD01CF010895A29FB001B39FC001A39F700D811D1124911DB29F700D1F
:205B0000811D1124911D0895991B79E004C0991F961708F0961B881F7A95C9F78095089560
:205B2000AA1BBB1B51E107C0AA1FBB1FA617B70710F0A61BB70B881F991F5A95A9F780952D
:205B40009095BC01CD01089597FB072E16F4009407D077FD09D00E94902D07FC05D03EF406
:205B6000909581959F4F0895709561957F4F0895EE0FFF1F0590F491E02D0994FB01DC0141
:205B800002C001900D9241505040D8F70895FC018191861721F08823D9F799270895319729
:205BA000CF010895FB01DC018D91019080190110D9F3990B0895FB01DC014150504030F01F
:205BC0008D910190801919F40020B9F7881B990B0895FB0151915523A9F0BF01DC014D9152
:205BE00045174111E1F759F4CD010190002049F04D9140154111C9F3FB014111EFCF81E06C
:205C000090E001970895AEE0B0E0E9E0FEE20C94BF300D891E898F89988D26E02C831A83BD
:205C2000098397FF02C080E090E801979E838D83AE01455E5F4F698D7A8DCE0101960E94DA
:205C4000332E4D815E8157FD0AC02F813885421753070CF49A01020F131FF80110822E96CB
:205C6000E4E00C94DB30ABE0B0E0E9E3FEE20C94B1307C013B018A01FC01178216828381F7
:205C800081FFC8C1CE0101965C01F7019381F30193FD859193FF81913F01882309F453C1F2
:205CA000853239F493FD859193FF81913F01853229F4B70190E00E942330E7CF912C212CC5
:205CC000312CFFE1F31538F08B3211F190F4803209F1833229F137FC3CC020ED280F2A30CC
:205CE00050F536FE20C08AE0989E200D1124922E06C08D3291F0803371F7689430F8F30150
:205D000093FD859193FF81913F018111DACF21C0689431F8689432F8F2CF689433F8EFCFEC
:205D2000689434F8ECCFEAE02E9E200D1124222E689435F8E4CF8E3229F436FC04C168948C
:205D400036F8DDCF8C3619F4689437F8D8CF8836B1F2982F9F7D95549330E0F08336A1F1BD
:205D60008337C1F1833509F063C02801F2E04F0E511CF801C080D180692D70E036FC02C0BA
:205D80006FEF7FEFC6010E940D304C01689437F882010AC00C5F1F4FFFE3F98388248394D2
:205DA000912C6501E89437F833FE2DC0522C8114910471F5552009F468CFB70180E290E0B6
:205DC0000E9423305A94F6CFF801808189830E5F1F4FE4CF2801F2E04F0E511CF801C08089
:205DE000D180692D70E036FC02C06FEF7FEFC6010E9418304C018201D5CFB70180E290E0FD
:205E00000E9423302A942814190409F0B0F7CECFF60137FC859137FE81916F01B70190E01A
:205E20000E94233051105A94F1E08F1A9108BFCF843619F0893609F077C0F80137FE6BC072
:205E400060817181828193810C5F1F4FF32DFF763F2E97FF09C090958095709561957F4F1B
:205E60008F4F9F4F689437F82AE030E0A5010E945330C82ECA188C2C432C36FE0CC0E894CB
:205E800040F8C91440F434FE05C032FC03C0F32DFE7E4F2E892C44FE95C0FE01EC0DF11D66
:205EA0008081803309F087C0242D297E422E842D8870582E43FC95C040FE8FC09C2C8214D8
:205EC00018F42C0C922C981844FE91C0B70180E390E00E94233042FE09C088E790E041FED6
:205EE00002C088E590E0B7010E942330C91408F48AC0CA94D12C9FEFC91AD90ACA0CDB1CB7
:205F0000F60182916F01B70190E00E942330AC14BD04B1F74FCF60817181072E000C880BFC
:205F2000990B0E5F1F4F92CFD32CE894D4F82AE030E0853739F1232D297FD22E8F3601F18B
:205F400048F48835A9F0F701868197812B96E2E10C94CD30803749F08837A9F7D4FE02C094
:205F60006894D2F820E130E00DC06894D4F8F6CF34FE03C0822F8660D82E20E132E002C089
:205F800028E030E0F801D7FE0FC060817181828193810C5F1F4FA5010E945330C82ECA18E6
:205FA0003D2CE89437F867CF6081718190E080E00E5F1F4FF0CF42FC02C0839478CF8394E5
:205FC000839475CF842D867809F471CFF6CFB70180E290E00E94233083948214C0F3512C59
:205FE00073CF522C5818821408F46ECFF8CF842D867809F47BCF8BE241FE80E247FC8DE225
:20600000B70190E071CFB70180E390E00E9423309A946CCF8FEF9FEF99CFFC010590615078
:2060200070400110D8F7809590958E0F9F1F0895FC016150704001900110D8F78095909595
:206040008E0F9F1F08950F931F93CF93DF93182F092FEB018B8181FD09C01FEF0FEF812FA6
:20606000902FDF91CF911F910F91089582FF14C02E813F818C819D81281739073CF4E8819D
:20608000F981CF0101969983888310838E819F8101969F838E83E3CFE885F985812F099581
:2060A000892BA1F3DACFFA01AA27283051F1203181F1E8946F936E7F6E5F7F4F8F4F9F4FF4
:2060C000AF4FB1E03ED0B4E03CD0670F781F891F9A1FA11D680F791F8A1F911DA11D6A0FBA
:2060E000711D811D911DA11D20D009F468943F912AE0269F11243019305D3193DEF6CF010D
:206100000895462F4770405D4193B3E00FD0C9F7F6CF462F4F70405D4A3318F0495D31FD24
:206120004052419302D0A9F7EACFB4E0A6959795879577956795BA95C9F70097610571052D
:2061400008959B01AC010A2E06945795479537952795BA95C9F7620F731F841F951FA01D11
:2061600008952F923F924F925F926F927F928F929F92AF92BF92CF92DF92EF92FF920F93A2
:206180001F93CF93DF93CDB7DEB7CA1BDB0B0FB6F894DEBF0FBECDBF09942A88398848886E
:2061A0005F846E847D848C849B84AA84B984C884DF80EE80FD800C811B81AA81B981CE0F6E
:2061C000D11D0FB6F894DEBF0FBECDBFED0108951DE0C6E2DDE004C0FE010E94B82D21969C
:2061E000C732D107C9F7F894FFCFFEFFFFFFFFFFFFFFF401FF0100000053454E44204F4BE4
:2062000000000000008813983A307560EA0102020202FF6572726F72006275737900C40960
:2062200020033075C409B004401F2003DC05DC052823B80B30313233343536373839414233
:20624000434445460000000000E30E430E700E350FA10E7F0E930E000000006E0F430E017C
:20626000106D0FCA0FE00F550F0D0A002B4950442C005749464900474F54204950004449BC
:2062800053434F4E4E4543540062757379002B43574A41503A004552524F52006E6F20611C
:2062A000700041542B006E6F206368616E6765002B43574C41503A00534B5F5769466947BC
:2062C000494741353044435F322E3447006E6F20697000414C524541004C494E4B454400D5
:2062E000434C4F53454400556E6C696E6B00554E4C494E4B006C696E6B206973206E6F7487
:206300002076616C69640053454E44204F4B0053454E44204641494C00302E302E302E30B9
:2063200000442C2A2C25752C25752C00442C25732C25732C00503100532C25752C25732C89
:2063400025732C256C752C25732C25732C00532C25752C25732C25732C256C752C25732CFC
:2063600000412C25752C256325632C25752C0000FFFFFFFFFFFFFFFFFFFFFFFFFFFFFFFFF8
:20638000FFFFFFFFFFFFFFFFFFFFFFFFFFFFFFFFFFFFFFFFFFFFFFFFFFFFFFFFFFFFFFFF1D
:2063A000FFFFFFFFFFFFFFFFFFFFFFFFFFFFFFFFFFFFFFFFFFFFFFFFFFFFFFFFFFFFFFFFFD
:2063C000FFFFFFFFFFFFFFFFFFFFFFFFFFFFFFFFFFFFFFFFFFFFFFFFFFFFFFFFFFFFFFFFDD
:2063E000FFFFFFFFFFFFFFFFFFFFFFFFFFFFFFFFFFFFFFFFFFFFFFFFFFFFFFFFFFFFFFFFBD
:207E0000112484B714BE81FFF0D085E08093810082E08093C00088E18093C10086E08093FC
:207E2000C20080E18093C4008EE0C9D0259A86E020E33CEF91E0309385002093840096BBAD
:207E4000B09BFECF1D9AA8958150A9F7CC24DD2488248394B5E0AB2EA1E19A2EF3E0BF2E79
:207E6000A2D0813461F49FD0082FAFD0023811F0013811F484E001C083E08DD089C0823404
:207E800011F484E103C0853419F485E0A6D080C0853579F488D0E82EFF2485D0082F10E0A0
:207EA000102F00270E291F29000F111F8ED068016FC0863521F484E090D080E0DECF84364D
:207EC00009F040C070D06FD0082F6DD080E0C81680E7D80618F4F601B7BEE895C0E0D1E0ED
:207EE00062D089930C17E1F7F0E0CF16F0E7DF0618F0F601B7BEE89568D007B600FCFDCF1A
:207F0000A601A0E0B1E02C9130E011968C91119790E0982F8827822B932B1296FA010C016F
:207F200087BEE89511244E5F5F4FF1E0A038BF0751F7F601A7BEE89507B600FCFDCF97BE85
:207F4000E89526C08437B1F42ED02DD0F82E2BD03CD0F601EF2C8F010F5F1F4F84911BD0B8
:207F6000EA94F801C1F70894C11CD11CFA94CF0CD11C0EC0853739F428D08EE10CD085E9AE
:207F80000AD08FE07ACF813511F488E018D01DD080E101D065CF982F8091C00085FFFCCF0A
:207FA0009093C60008958091C00087FFFCCF8091C00084FD01C0A8958091C6000895E0E68F
:207FC000F0E098E1908380830895EDDF803219F088E0F5DFFFCF84E1DECF1F93182FE3DF47
:207FE0001150E9F7F2DF1F91089580E0E8DFEE27FF270994FFFFFFFFFFFFFFFFFFFF040425
:00000001FF
