:200000000C94460D0C947D0D0C947D0D0C94A9200C94A9200C94A9200C947D0D0C947D0D0A
:200020000C947D0D0C947D0D0C947D0D0C947D0D0C947D0D0C947D0D0C947D0D0C947D0D70
:200040000C9407200C947D0D0C9477200C9451200C947D0D0C947D0D0C947D0D0C947D0DBF
:200060000C947D0D0C947D0D5B41434B515D20EAB080EB939D20ECB0B820E2809420EAB0BB
:2000800080EC9EA520EC98A4EB9E98EB909C20EBB3B4EBA5982041434B20EBA5BC20EBB27F
:2000A00084EBA6B0EB8BA400EBB094EC9DB4ED8AB8EBA5BC20EB8498EC96B420EBB284EBF1
:2000C000A0B8EB8BA4005B44524F502D4F56465D20ECA484EC9DB42000EBB094EC9DB4EDBF
:2000E0008AB820EBB284EBA6BC202B20ECA48420ECA1B0EBA6BD20ECB488EAB8B0ED999452
:20010000005B4C41444445525D2031EB8BA820ECA1B0ECB9983A20EC8B9CEBA6ACEC96BC8A
:2001200020EB939CEBA088EC9DB82000ECB48820EBB0B1EC98A4ED9484EBA19C20EB9098F5
:20014000ED9280EC9DB4ED959CEB8BA428ECA285ECB0A9EC97AD29005B4C41444445525DEE
:20016000202020EB8C80EC8BA02034EB8BA820ECA1B0ECB998EBA5BC20005B4C41444445E4
:20018000525D202020ED9584EC9A9420EBB680ED92883A20EBA19CEC9AB0EC82ACEC9DB4D9
:2001A000EB939C204D4F5346455420EC8AA4EC9C84ECB99828EC98883A20324E37303030DF
:2001C0002F414F33343030202B2031306B29005B4C41444445525D20E29AA035EB8BA82026
:2001E000EBAFB8EC8BA4ED96893A20ECA084EC9B9020EC9EACED88ACEC9E85EC9D80202A2C
:200200002AEBB680ED928820EBAFB8EBB3B4EC9CA0EBA19C20EBAFB8EAB5ACED98842A2A5E
:20022000EC9DB4EB8BA400ECB48820EC89ACEAB3A02041542B52535420EBA78C20EB909877
:20024000ED9280EC9DB4ED959CEB8BA4005B4C41444445525D202020ECA780EAB888EC9DA0
:200260008020005B4C41444445525D202020E2869220556E6F20413220EBA5BC20455350C7
:2002800020EC9D982052535420EC979020EBACBCEBA6ACEAB3A0204553505F5253545F57CE
:2002A0004952454420EBA5BC203120EBA19C20EBB094EABF9420EB8BA4EC8B9C20EAB5ACD1
:2002C000EC9B8CEB9DBC005B4C41444445525D20E29AA034EB8BA820EBAFB8EC8BA4ED96C5
:2002E000893A20ED9598EB939CEC9BA8EC96B420EBA6ACEC858BEC84A0EC9DB420EBB0B071
:20030000EC84A0EB9098ECA78020EC958AEC9598EB8BA4284553505F5253545F574952454B
:20032000443D302900ECB48820EC89ACEAB3A02041542B5253542028EBAAA8EB938820ECCD
:20034000868CED9484ED8AB820EBA6ACEC858B29005B4C41444445525D2033EB8BA820ECF4
:20036000A1B0ECB9983A2000ECB48820EC89ACEAB3A02041542B435751415020EBA19C202B
:20038000EAB2B0ED95A9EC9D8420EBAA85EC8B9CECA081EC9CBCEBA19C20EB818AEC9D80F4
:2003A00020EB92A420EB8BA4EC8B9C20EBB699EB8A94EB8BA4005B4C41444445525D20327C
:2003C000EB8BA820ECA1B0ECB9983A2000EB8BA8005B4C41444445525D20E28691E2869177
:2003E00020EB8BA820EC8381EC8AB920E2869220005B4C41444445525D20E286912033EB8B
:200400008BA82841542B5253542920ECA781ED968920E2809420415420EAB384ECB8B5EC0E
:200420009DB420EC9EA0EAB2BCEC9CBCEBA9B420EC9584EB9E9820EB8BA8EC9D8020EC9D07
:2004400098EBAFB8EAB08020EC9786EB8BA400ED9A8C20EB8884ECA0812900EB8BA82800AF
:2004600020C2B720ED9884EC9EAC2000EC9786EC9D8C00ED9A8C20C2B720EAB2B0ED95A903
:20048000EC9CA0ECA78020007320C2B720EC97B0EC868D2000292043574A4150EC868CECDB
:2004A0009A94200043574A4150204641494C00415420EAB384ECB8B520EC9EA0EAB98000A1
:2004C00043574A415020EBACB4EC9D91EB8BB5005B4C41444445525D20EC8BA4ED8CA8280F
:2004E000005B4C41444445525D2031ECB48820EC9588EC979020EB93A4EC96B4EC98A8201F
:20050000ECA491EBB3B520EC8BA4ED8CA820EC8BA0ED98B820E2809420EC84B8ECA7802006
:20052000EC958AEB8A94EB8BA4005B54582D44524F505D20005B54585D2000EBB094EC9D6B
:20054000B4ED8AB8EBA19C20EC8AA4ED8AB8EBA6BC20EBB3B5EAB5AC28EC849CEBB284EBDC
:200560008A9420EC9DB420ECA484EC9D8420EBB284EBA6B0EB8BA429005B54582D524553DC
:20058000594E435D20ED9484EBA1ACED9484ED8AB820EB8693ECB9A820E2869220EB8D94CC
:2005A000EBAFB820005B54582D52454A4543545D2043495053454E4420EAB1B0EBB68028A1
:2005C0004552524F522920E2809420EB8D94EBAFB8EBA5BC20EB84A3ECA78020EC958AEB2D
:2005E0008A94EB8BA4005B54582D425553595D2045535020EAB08020EBB094EC8198EB8BE3
:20060000A428EAB1B0EBB6802920E2809420EC8BA4ED8CA8EBA19C20EC84B8ECA78020EC78
:20062000958AEB8A94EB8BA42E20EB8BA4EC9D8C20ECA3BCEAB8B0EC979020EB8BA4EC8B7A
:200640009C20EBB3B4EB82B8EB8BA4000D0A0041542B43495053454E443D005B54582D57A8
:200660004149545D20E29885E2988520543220ECB488EAB3BC20E280942053454E44204F0B
:200680004B20EAB08020EB819DEB82B420EC958820EC98A8EB8BA420E2869220EBA781EDC2
:2006A00081ACEBA5BC20EB8BA4EC8B9C20EC84B8EC9AB4EB8BA4005B54582D574149545D12
:2006C00020EC959E20ECA084EC86A1EC9D982053454E44204F4B20EBA5BC20EC9584ECA74F
:2006E0008120EBAABB20EBB4A4EB8BA420E2809420EC9DB4EBB28820ECA3BCEAB8B0EB8AC2
:200700009420EAB1B4EB8488EB9BB4EB8BA4005B54582D574149545D20E2988520543120E1
:20072000ECB488EAB3BC20E2809420EAB7B8EB9E98EB8F8420EAB384EC868D20EAB8B0EBED
:200740008BA4EBA6B0EB8BA428EB9190EB93A4EAB8B0ECA78020EC958AEB8A94EB8BA429DD
:20076000005B42414420534C4F545D207269643D0020E28692206F636375706965643D0039
:200780005B53494D5D20ED959C20EAB1B8EC9D8C3A20005B53494D5D20EBB094EABF80205F
:2007A000EC8B9CEBAEAC20ECB9B8EC9DB420EC9786EB8BA420E2869220726573756C743DCE
:2007C00035005B424144204649454C44535D207269643D005B445550207269645D20005B77
:2007E0005245475D205120EC8898EC8BA020E2809420EB8BA4EC9D8C20EC86A1EC8BA0203B
:20080000ECB0BDEC979020EB93B1EBA19DEC9D8420EB8BA4EC8B9C20EBB3B4EB82B8EB8B8D
:20082000A400206F703D005B475D206964783D005B475D20EAB1B0ECA088206964783D0017
:200840005B434B53554D204E475D20005B4E45545D20E298852045535020EAB080204950CF
:2008600020EBA5BC20EC9E83EC9788EB8BA420E2809420EBAAA8EB938820EBA6ACEC858BE8
:20088000EC9CBCEBA19C20EBB3B8EB8BA42E20EB8884ECA08120EC82ACEAB1B42000ED9ADA
:2008A0008C20EC97B0EC868D20EC8BA4ED8CA820E2869220EC98A4ED9484EB9DBCEC9DB812
:2008C00020ECA084ED99982E20EB82A1EC9D8020EC868CECBC93EBB680ED84B020EB8BAB89
:2008E000EB8A94EB8BA428434950434C4F534529005B4E45545D20ECA084EC86A120005BD5
:200900004E45545D20ECA084EC86A120EC8BA4ED8CA82000EB81940020C2B72036EB8BA8C7
:2009200028EC9B8CECB998EB8F85292000EBAFB8EBB0B0EC84A020E2809420413220EBA5F1
:20094000BC204553502052535420EC979020EBACBCEBA6ACEAB3A0204553505F5253545FDB
:2009600057495245443D31005B424F4F545D20EC82ACEB8BA4EBA6AC2034EB8BA8284553DF
:200980005020ED9598EB939CEBA6ACEC858BEC84A0292000EC9B8CECB998EB8F8520002A88
:2009A0002AEBB88CEB9DBCEC9AB4EC9584EC9B8328ECA084EC9B90EBB680ECA1B1292A2A26
:2009C0002000EC99B8EBB680EBA6ACEC858B28EBB284ED8ABC2F445452292000ECA084EC86
:2009E0009B90EC9DB8EAB08028504F52292000EBB688EBAA852028EBB680ED8AB8EBA19C0C
:200A0000EB8D94EAB080204D4355535220EC9D8420ECA780EC9AB0EAB3A020EB8498EC968A
:200A2000B4EC9994EB8BA429005B424F4F545D20EBA6ACEC858B20EC9B90EC9DB83A20008F
:200A4000206D6F64756C6573202F206465763D50310020736C6F7473202F20000A5B504157
:200A6000524B494E47204E4F44455D2070726F746F207631202F20005B4C41444445525D6A
:200A80002034EB8BA83A2045535020EBA6ACEC858B20ED95B4ECA09C20E2809420EBB68074
:200AA000ED8C85EC9D8420EAB8B0EB8BA4EBA0B8EB8BA4EAB0802043574D4F444520EBB688
:200AC00080ED84B020EB8BA4EC8B9C005B4E45545D2031302043575141502028EAB2B0EDEB
:200AE00095A920ED95B4ECA09C20E2809420EC82ACEB8BA4EBA6AC2032EB8BA82900415465
:200B00002B43575141500D0A005B4E45545D20392043574C41502028ECA3BCEBB380204176
:200B20005020EBAAA9EBA19D20E2809420ECA784EB8BA8290041542B43574C41500D0A00FC
:200B40005B4E45545D2038204357434F554E5452592028ECB184EB84902031322F31332012
:200B6000EC9AB0ED9A8C20EC8B9CEB8F8420E2809420ECA784EB8BA8290041542B435743CA
:200B80004F554E5452595F4445463D302C224B52222C312C31330D0A005B4E45545D2037C2
:200BA00020474D522028ED8E8CEC9BA8EC96B420ED8C9020E2809420ECA784EB8BA82900BE
:200BC00041542B474D520D0A005B4E45545D203620434950434C4F53452028EB82A1EC9D12
:200BE0008020EC868CECBC9320EB8BABEAB8B0290041542B434950434C4F53450D0A005BDC
:200C00004E45545D20352043495053544152540041542B43495053544152543D2254435041
:200C2000222C223139322E3136382E302E3239222C393939310D0A005B4E45545D20342090
:200C40004349504D55583D300041542B4349504D55583D300D0A005B4E45545D20332043E2
:200C6000494653522028495020EBA5BC20EC8BA4ECA09CEBA19C20EBB09BEC9598EB8A94F0
:200C8000EAB080290041542B43494653520D0A005B4E45545D20322043574A41502028EC09
:200CA0009D91EB8BB5EAB98CECA78020ECB59CEB8C80203330ECB48820EAB8B0EB8BA4EB23
:200CC000A6B0EB8BA4290041542B43574A41503D2233465F333032222C22303432343731D8
:200CE000393232322121220D0A005B4E45545D20312043574D4F44453D310041542B435713
:200D00004D4F44453D310D0A005B4E45545D2030205253540041542B5253540D0A00ED9ACA
:200D20008C20EC8BA4ED8CA820E286922041542B52535420EBA19C20ECA084ECB2B420EC02
:200D4000B488EAB8B0ED999428EC82ACEB8BA4EBA6AC20EC8381EC8AB929005B4E45545D4B
:200D600020434950434C4F534520005B4E45545D2043494653522033ED9A8CEC9790EB8FB8
:200D80008420495020EAB08020EC9786EB8BA420E286922043574A415020EBB680ED84B088
:200DA00020EB8BA4EC8B9C005B4E45545D2043494653522033ED9A8C20EC868CECA78420F5
:200DC000E2809420EAB7B8EB9FACEB8298206275737920EAB1B0EBB680EC9880EB8BA42EAE
:200DE00020495020EC868CEC8BA4EBA19C20EC84B8ECA78020EC958AEB8A94EB8BA4005BD5
:200E00004E45545D20495020EAB08020EC9786EB8BA420E286922043495053544152542094
:200E2000EBA5BC20EBB3B4EB82B4ECA78020EC958AEAB3A02043574A415020EBA19C20EB70
:200E40009098EB8F8CEC9584EAB084EB8BA400EB8BA829005B4C41444445525D20E2869361
:200E6000203330ECB48820EC97B0EC868D20EC98A8EB9DBCEC9DB820E2809420EC82ACEB69
:200E80008BA4EBA6ACEBA5BC2030EB8BA8EC9CBCEBA19C20EB82B4EBA6B0EB8BA42028ECF0
:200EA000A781ECA0842000413100495000000241320049500000034133004950000004416C
:200EC0003400495000000541350049500000064231004950000009423200495000000A42BD
:200EE0003300495000000B423400495000000C423500495000000E4531004F420000FF5884
:200F000031004F420000FF5B41434B515D20ECBA90EC8B9CEC9790EC849C20EBB080EBA0EA
:200F2000A4EB829820EBA78CEB93A420EC889820EC9786EB8BA420E2809420EBB284EBA651
:200F4000B0EB8BA400EC8BA4ED8CA82000ECA084EC86A1200042005B5245475D20EB93B101
:200F6000EBA19D20005B5245475D20EB93B1EBA19D20EBB0B0ECB998EBA5BC20EBA78CEBFD
:200F800093A4ECA78020EBAABBED9688EB8BA420E2809420EC9E98EBA6B020EB93B1EBA1FE
:200FA0009DEC9D8420EB82B4EBB3B4EB82B4ECA78020EC958AEB8A94EB8BA40020723D3073
:200FC0000020723D3100206475653D002061636B3D002074783D005B534C4F545D206E3DDC
:200FE000005D20E2869220EBA781ED81ACEBA5BC20EB8BA4EC8B9C20EC84B8EC9AB4EB8B9C
:20100000A400202F20455350EBA6ACEC858B2000202F2053454E444641494C2000202F2038
:2010200053454E444F4BEC8381ED959C20002920C2B720EB8884ECA0815BEAB1B4EB848837
:20104000EB9C802000202F20EAB1B0EBB6802000202F20EBACB4EC9D91EB8BB520006D736F
:2010600020EB8F99EC958820ED959C20ECA484EB8F8420EBAABB20EB8298EAB094EB8BA4E7
:2010800020286275737920005B4E45545D20E2988520ECA095ECA78020EAB090ECA7803A7C
:2010A0002000206F6E6C696E653D0020736B69703D00206269676F6B6C6F73743D00206F60
:2010C0006B6C6F73743D00206269676F6B73743D002062696764726F703D0020626967665A
:2010E000696C6C3D002070656E6466696C6C3D002070656E6464726F703D00206F6B73742D
:201100007265616D3D0020636B73756D6E673D002073736F76663D0020736D6973733D007E
:20112000206F6F773D0020736C6F743D002061636B7374616C653D002061636B64726F7035
:201140003D002061636B713D0020737475636B3D00206F6B746F3D002073656E64666169BA
:201160006C3D0020726573796E633D002068777273743D00206573707273743D002064724C
:201180006F703D005B434E545D2075703D0073002075703D00206C696E65733D002072781D
:2011A0003D00205B455350EBA6ACEC858BEC9CA0ECA780ECA4915D0020EC82ACEB8BA4EB5E
:2011C000A6AC3D005B444941475D206F66666C696E6520737465703D00ED9A8C2028EC84CC
:2011E0009CEBB284EC9D982027EBB284EBA6B0ECA4842720EAB3BC20EBA79EEC9584EC95DE
:20120000BC20ED959CEB8BA42900204220C2B720ED9484EBA1ACED9484ED8AB820EC9EACAF
:20122000EB8F99EAB8B020005B52414D5D20ECB59CECA08020EC97ACEC9CA0200000000091
:2012400000240027002A000000000800020100000304070000000000000000222028005C3A
:20126000780022005B4E45545D20EC86A1EC8BA020EC98A4EBA59820EC9D91EB8BB528EB03
:20128000A19CEAB7B8EBA78C2C20ECB9B4EC9AB4ED84B0EB8A942073656E644C696E65201F
:2012A000EC9DB420EC84BCEB8BA4293A20005B4E45545D20E298852053454E442046414910
:2012C0004C20E2809420ED8E98EC9DB4EBA19CEB939CEAB98CECA78020EC8DBCEB8A94EB6F
:2012E0008DB020ECA084EC86A1EC9DB420EC8BA4ED8CA8ED9688EB8BA42E20EC8BA4ED8CCE
:20130000A8EBA19C20EC84BCEB8BA4005B4E45545D206C696E6B206973206E6F74207661C6
:201320006C696420E2869220ECA689EC8B9C20EC98A4ED9484EB9DBCEC9DB82C20EB82A1E0
:20134000EC9D8020EC868CECBC9320EB8BABEAB8B028434950434C4F534529005B4E4554B3
:201360005D206F6E6C696E652028434F4E4E45435429202B20ECBA90EC8B9C20EBB984EC08
:201380009B80005B4E45545D206F6E6C696E652028414C524541445920434F4E4E4543547A
:2013A000454420C2B720ECB488EAB8B020EAB2BDED95A929005B4E45545D20414C52454180
:2013C000445920434F4E4E454354454420E2809420EB82A1EC9D8020EC868CECBC9320EC0B
:2013E0009D98EC8BAC20ECA491EC9DB4EBAF80EBA19C20EBAFBFECA78020EC958AEB8A9415
:20140000EB8BA420E2869220434950434C4F5345005B4E45545D206E6F20697020E280947B
:2014200020495020EAB08020EC9786EB8BA42E20434950535441525420EC9EACEC8B9CEB6A
:201440008F84EBA5BC20ECA091EAB3A02043574A415020EBA19C20EB9098EB8F8CEC958498
:20146000EAB084EB8BA4005B4E45545D202020322E3447487A20EC9DB8EAB080202F20ECC2
:20148000A084ED8C8CEAB08020EB8BBFEB8A94EAB080202F205353494420ECB2A0EC9E9077
:2014A000EAB08020EBA79EEB8A94EAB080EBA5BC20EBB490EB9DBC2E005B4E45545D20ECE7
:2014C00084A4ECA095ED959C205353494420EAB08020EBAAA9EBA19DEC9790202A2AEC9787
:2014E00086EB8BA42A2A20E2869220EBB984EBB28820EBACB8ECA09CEAB08020EC9584EBB0
:201500008B88EB8BA42E005B4E45545D20202032EC889CEC9C843A20EBB984EBB080EBB2E9
:2015200088ED98B820202033EC889CEC9C843A20504D46283830322E313177292F575041F1
:201540003320ECA084ED9998EBAAA8EB939C20EB8184EAB8B0005B4E45545D20202031EC35
:20156000889CEC9C843A20EC9C8420ECA484EC9D98202A2AEBA788ECA780EBA78920EC8830
:20158000ABEC9E9028ECB184EB8490292A2A20EBA5BC20EBB490EB9DBC2E2031322F31337E
:2015A00020EC9DB4EBA9B420EAB3B5EC9CA0EAB8B0EBA5BC20312F362F313120EBA19C209F
:2015C000EBB094EABF94EB9DBC005B4E45545D20EC84A4ECA095ED959C205353494420EAEC
:2015E000B08020EBAAA9EBA19DEC9790202A2AEC9E88EB8BA42A2A20E2869220415020EB57
:201600008A9420EBB3B4EC9DB8EB8BA42E20EAB2B0ED95A9EBA78C20EAB1B0EBB680EB90F5
:201620009CEB8BA42E005B4E45545D20E29480E2948020415020EC8AA4ECBA9420ED8C90CD
:20164000ECA09520E29480E29480E29480E29480E29480E29480E29480E29480E29480E2C1
:201660009480E29480E29480E29480E29480E29480E29480E29480E29480E29480E29480BA
:20168000E29480E29480E29480E29480E29480E29480005B4E45545D202020E2869220EA83
:2016A000B3B5EC9CA0EAB8B020ECB184EB8490EC9D8420312F362F313120EBA19C20EBB0B1
:2016C00094EABEB8EB8A9420EAB283EC9DB420ED9995ECA09520ED95B4EBB295EC9DB4EB85
:2016E0008BA4005B4E45545D204357434F554E54525920EBAFB8ECA780EC9B902845525281
:201700004F522920E2809420EC9DB420ED8E8CEC9BA8EC96B4EBA19CEB8A9420ECB184EBA3
:2017200084902031322F313320EC9D8420ECBD94EB939CEBA19C20EBAABB20EC97B0EB8B7A
:20174000A42E005B4E45545D20E29885204357434F554E54525920EAB08020EBA8B9EC97E2
:2017600088EB8BA420E2809420EAB79CECA09CEB8F84EBA994EC9DB820317E31332E20EC58
:20178000B184EB849020313220EAB2B0ED95A9EC9DB420EC97B4EBA0B8EC9D8420EC8898EB
:2017A00020EC9E88EB8BA4005B4E45545D204349504D55583D3020ECA081EC9AA9EB90A85C
:2017C00020E28692204349505354415254005B4E45545D20E2988520495020ED9995EBB315
:2017E000B43A20005B4C41444445525D2032EB8BA83A20EAB2B0ED95A920ED95B4ECA09CB8
:2018000020EC9984EBA38C20E2869220EAB9A8EB8197ED959C20EC8381ED839CEC9790ECC4
:20182000849C2043574A415020EC9EACEC8B9CEB8F84005B4E45545D2043574A4150204FE9
:201840004B20E2809420EAB2B0ED95A9EB9090EB8BA42E20495020EBA5BC20EC8BA4ECA051
:201860009CEBA19C20EBB09BEC9598EB8A94ECA78020434946535220EBA19C20ED9995EC13
:201880009DB8ED959CEB8BA400ED9A8C2028EAB5ACED989520ED8E8CEC9BA8EC96B4EB8AFA
:2018A0009420EC82ACEC9CA0EBA5BC20ECA3BCECA78020EC958AEB8A94EB8BA429005B4E48
:2018C00045545D20E298852043574A415020EC8BA4ED8CA82000ECA091EC868D20EC8BA48B
:2018E000ED8CA800EAB7B8205353494420EC9D9820415020EBA5BC20EBAABB20ECB0BEECE7
:201900009598EB8BA400EBB984EBB080EBB288ED98B8EAB08020ED8B80EBA0B8EB8BA4004C
:20192000ECA091EC868D20EC8B9CEAB084ECB488EAB3BC005B4E45545D20E2988520435741
:201940004A415020EC8BA4ED8CA820EC82ACEC9CA03A20005B4E45545D206275737920E210
:2019600080942045535020EAB08020EC959E20EBAA85EBA0B9EC9D8420ECB298EBA6AC2094
:20198000ECA491EC9DB4EB8BA42E20ECA084ECA784ED9598ECA78020EC958AEB8A94EB8B83
:2019A000A4005B4E45545D205749464920444953434F4E4E45435420E2809420495020EBB1
:2019C000A5BC20EC9E83EC9788EB8BA4005B4E45545D205749464920474F5420495020E2A1
:2019E000809420495020ED9995EBB3B42E2039ECB48820EB8C80EAB8B0ECB0BDEC9D8420EF
:201A0000EB819DEAB98CECA78020EAB8B0EB8BA4EBA6ACECA78020EC958AEAB3A020EBB07C
:201A200094EBA19C20EB8BA4EC9D8C20EB8BA8EAB384EBA19C006D73005B534C4F542D4F1B
:201A40004F575D202B005B41545D20000000000023002600290000000000250028002B00E1
:201A600004040404040404040202020202020303030303030102040810204080010204081A
:201A800010200102040810204F21182E11241FBECFEFD8E0DEBFCDBF84B78093AE0514BE9D
:201AA0000FB6F894A89580916000886180936000109260000FBE12E0A0E0B1E0E8E5F5E651
:201AC00002C005900D92A837B107D9F725E0A8E7B2E001C01D92AE3AB207E1F71DE0C5E4F4
:201AE000DDE004C02197FE010E946F2FC434D107C9F70E94FA210C949F320C9400000F936E
:201B00001F93CF93DF93DB0150E040E030E020E061E070E0CBE0D0E0FB01042E02C0EE0F2A
:201B2000FF1F0A94E2F7E823F923EF2B61F0FE01E41BF50B8B0102C0000F111FEA95E2F79B
:201B4000F801202B3F2B4F5F5F4F4C30510521F7F901EF70FF27E65BFE4F808112968C93BC
:201B60001297F90184E0F695E7958A95E1F7EF70FF27E65BFE4F808111968C931197232F8C
:201B80003327F901E65BFE4F80818C9313961C92DF91CF911F910F910895833081F028F4EF
:201BA000813099F08230A9F008958730A9F08830C9F08430B1F4809180008F7D03C0809178
:201BC00080008F7780938000089584B58F7784BD089584B58F7DFBCF8091B0008F77809349
:201BE000B00008958091B0008F7DF9CFCF93DF9390E0FC01EC58F54E2491805A954EFC01CC
:201C000084918823C9F090E0880F991FFC01E35CFD4EA591B491FC01EA5AF54EC591D4914B
:201C200061110DC09FB7F8948C91209582238C938881282328839FBFDF91CF910895623091
:201C400051F49FB7F8943C91822F809583238C93E8812E2BEFCF8FB7F894EC912E2B2C931E
:201C60008FBFEACF2FB7F89460915E0470915F0480916004909161042FBF0895EF92FF929C
:201C80000F931F93CF93DF938C017B01D0E0C0E0F701EC0FFD1F6491662361F0D801ED918E
:201CA000FC910190F081E02DC8010995892B11F02196EECFCE01DF91CF911F910F91FF907A
:201CC000EF900895AF92BF92CF92DF92EF92FF920F931F93CF93DF936C017B018B01040FC2
:201CE000151FEB015E01AE18BF08C017D10759F06991D601ED91FC910190F081E02DC6012E
:201D00000995892B79F7C501DF91CF911F910F91FF90EF90DF90CF90BF90AF900895FC0117
:201D2000538D448D252F30E0842F90E0821B930B541710F0CF96089501970895FC01918D73
:201D4000828D981761F0A28DAE0FBF2FB11D5D968C91928D9F5F9F73928F90E008958FEFE1
:201D60009FEF0895FC01918D828D981731F0828DE80FF11D858D90E008958FEF9FEF089562
:201D8000FC01918D228D892F90E0805C9F4F821B91098F739927089582EF94E00E94C00E9C
:201DA00021E0892B09F420E0822F089580E090E0892B29F00E94CC0E81110C94000008953B
:201DC000FC01A48DA80FB92FB11DA35ABF4F2C91848D90E001968F739927848FA689B78944
:201DE0002C93A089B1898C91837080648C93938D848D981306C00288F389E02D80818F7DEC
:201E000080830895EF92FF920F931F93CF93DF93EC0181E0888F9B8D8C8D98131AC0E8894C
:201E2000F989808185FF15C09FB7F894EE89FF896083E889F98980818370806480839FBFD6
:201E400081E090E0DF91CF911F910F91FF90EF900895F62E0B8D10E00F5F1F4F0F731127A4
:201E6000E02E8C8D8E110CC00FB607FCFACFE889F989808185FFF5CFCE010E94E00EF1CFE4
:201E8000EB8DEC0FFD2FF11DE35AFF4FF0829FB7F8940B8FEA89FB8980818062CFCF682F0D
:201EA00082EF94E00C94020FCF93DF93EC01888D8823B9F0AA89BB89E889F9898C9185FD59
:201EC00003C0808186FD0DC00FB607FCF7CF8C9185FFF2CF808185FFEDCFCE010E94E00E5E
:201EE000E9CFDF91CF91089520912E0330912F032817390771F490912C0380912D039817C4
:201F000041F0E0912C03F0E0E451FD4F808190E008958FEF9FEF08950895EF92FF920F9397
:201F20001F93CF93DF93DC015C96ED90FC905D97E114F10479F481E090E013969C938E932E
:201F4000129790E080E0DF91CF911F910F91FF90EF9008955196ED91FC91529750968C915F
:201F60005097982F90950FB75E962C915E97122F127021FD6095F8942081112319F1282B8E
:201F80002083E7012197F1F728E0462F50E0308160FF1AC0382B3083E7012197F1F7BA0126
:201FA00075956795215089F7112381F08081892380830FBF5C968D919C910197F1F781E0E9
:201FC00090E0C1CF2923DCCF3923E5CF9081892BEFCF20912E0330912F032817390761F4CE
:201FE00080912D0320912C0390E0805C9F4F821B91098F739927089590E080E008952091D2
:202000002E0330912F0328173907B9F490912C0380912D03981789F0E0912C03F0E0E45112
:20202000FD4F808120912C0330E02F5F3F4F2F73332720932C0390E008958FEF9FEF0895B3
:2020400090E080E00895282FDB01FC0191918D913FE9390F3A3108F490523FE9380F3A3110
:2020600008F48052981306C08E2F821B841770F381E0089580E00895FB0180839183FC01BE
:2020800081E09191992391F09C32D9F7DF0111971C92841750F4A82FB0E0AA0FBB1FA60F1E
:2020A000B71FED93FC938F5FECCF8FEF08951F93CF93DF93EB01009729F1FC012081222371
:2020C00009F120E030E0A90111911123E9F080ED810F8A30B8F4AAE0B0E00E94F72E412FE9
:2020E000110F550B405351099A01550F440B550B260F371F481F591F2115310581E048073F
:20210000510510F380E003C03983288381E0DF91CF911F91089540912F0450913004609154
:20212000310470913204811110C0CB01BA0124E130E040E050E00E940A2F21E06A307105F9
:202140008105910580F020E00EC0CB01BA012EE030E040E050E00E940A2F21E06730710547
:202160008105910580F7822F08951092E2041092CB041092CA041092C90410923704109227
:20218000060480913E0490913F048F3F980729F0019690933F0480933E0481E08093DC0452
:2021A00086E08093DB040E94320E6093D7047093D8048093D9049093DA04109209011092F9
:2021C00008010895CF93DF93382FDC01E0E02A2F231B261718F42D91E227F9CFDC01A60F80
:2021E000B11DCE2FD0E084E0D595C7958A95E1F7C65BDE4F88818C93EF70F0E0E65BFE4F10
:20220000808111968C93119712961C9282E0860FDF91CF910895CF93DF93EB018093DB04E3
:202220000E94320E6093D7047093D8048093D9049093DA04D0930901C0930801DF91CF9185
:202240000895BC01409162042EE933E090E0491771F02B5F3F4FF90135970190F081E02DA5
:20226000E617F70711F4892F08959F5FF0CF8FEF089590911604992391F021E030E002C0E6
:20228000220F331F8A95E2F780911404909115042823392381E0232B19F080E0089581E0A3
:2022A0000895FB0101900020E9F73197AF01461B570BDC01ED91FC910280F381E02D099431
:2022C0006FE771E082EF94E00C945111CF93DF93BC0182EF94E00E943E0EEC010E9460110C
:2022E0008C0F9D1FDF91CF910895EF92FF920F931F93CF93DF93EC0140913704209106042C
:2023000030E010E000E05CE0E52EF12C0417C8F4C901800F911FB7010E945B2FFC01EE0FB3
:20232000FF1FE251FC4F808191810F5F1F4F8C179D0761F7DF91CF911F910F91FF90EF9045
:2023400008954C30D9F4C90101966CE070E00E945B2F809306048BE080933704809135044E
:20236000909136048F3F980729F00196909336048093350488E690E00E9466112091370459
:2023800080910604820F9927991F6CE070E00E945B2FFC01EE0FFF1FE251FC4FD183C08324
:2023A0002F5F20933704C6CFDC01822FE09163042E2F30E095E0E99FF0011124E256FC4F93
:2023C000B183A0836283438384832F5F3F4F2F7033272093630490916204903118F49F5F73
:2023E00090936204CD010C9475118F929F92AF92BF92EF92FF920F931F93CF93DF93CDB7BE
:20240000DEB7A1970FB6F894DEBF0FBECDBF7C01FA01CB0119A2223008F42AE08E010F5D56
:202420001F4F822E912CB12CA12CBF01A50194010E940A2FF901CA016A300CF5605DD8014B
:202440006E938D01232B242B252B79F790E080E0109721F0BD01C7010E945111A1960FB682
:20246000F894DEBF0FBECDBFDF91CF911F910F91FF90EF90BF90AF909F908F900895695C6E
:20248000DECF2AE00C94F511482F50E070E060E02AE082EF94E00C94F5118091CB048F3F65
:2024A00019F08F5F8093CB046FEF78E082EF94E00E943E0E8091CB040E9444128FE20E94CF
:2024C0004F0F83E00E9444120E9460118091CB04833080F061EF78E082EF94E00E943E0EB2
:2024E0008091CB040E9444128EE998E00E9466110C94B5100895AB0170E060E02AE00C9414
:20250000F511CF93DF93BC0182EF94E00E947B12EC010E9460118C0F9D1FDF91CF9108954C
:2025200081E08093DF0480913C0490913D048F3F980729F0019690933D0480933C046CE46D
:2025400078E082EF94E00E943E0E80913C0490913D040C948112CF92DF92EF92FF92CF9324
:20256000DF930E94320E6B017C01D0E0C0E00E94320E6C197D098E099F0968377105810507
:20258000910578F48FE895E00E94E90F892B79F38FE895E00E94FF0FCF3FDC0799F32196C3
:2025A000F1CF1092DC021092DB021092960361E071E082EF94E00E943E0EBE0182EF94E018
:2025C0000E947B1289ED90E0DF91CF91FF90EF90DF90CF900C9466118F929F92AF92BF923F
:2025E000CF92DF92EF92FF92CF93DF93C82F0E94320E6B017C018091E102882319F18091A7
:20260000DD029091DE02A091DF02B091E002A7019601281B390B4A0B5B0BDA01C901883EB9
:202620009340A105B10570F481EE94E0DF91CF91FF90EF90DF90CF90BF90AF909F908F909C
:202640000C94661181E08093E102C092DD02D092DE02E092DF02F092E00260ED74E082EFD0
:2026600094E00E943E0E60EC74E0C13031F06FEA74E0C23011F064EA74E082EF94E00E947D
:202680003E0E65E974E082EF94E00E943E0E8091300390913103A0913203B0913303A7015B
:2026A0009601281B390B4A0B5B0BCA01B90128EE822E23E0922EA12CB12CA50194010E94AC
:2026C0000A2FBA01A90182EF94E00E94411268E874E082EF94E00E943E0E8091E8040E946C
:2026E000441263E774E082EF94E00E943E0E8091E3049091E404A091E504B091E604009736
:20270000A105B10509F45BC0A7019601281B390B4A0B5B0BCA01B901A50194010E940A2F29
:20272000BA01A90182EF94E00E94411283E70E944F0F60E674E082EF94E00E943E0E809172
:202740004E040E9444126BE574E082EF94E00E943E0E80914D040E9444128FE494E00E94D5
:2027600066111092E3041092E4041092E5041092E60480914E04C23049F5833038F583E0E2
:2027800080934E0410924D0481EF93E00E9466118091E8048230F0F18091DD0481113AC0D7
:2027A00064EF71E087E0DF91CF91FF90EF90DF90CF90BF90AF909F908F900C940B116CE678
:2027C00074E082EF94E00E943E0EB3CF90914D049E3F18F49F5F90934D04E82FF0E0ED5D52
:2027E000FE4F208190914D04921790F2853080F68F5F80934E0410924D0461ED73E082EFCB
:2028000094E00E943E0E80914E040E9444128DEC93E0BCCF80914E04E82FF0E0EE0FFF1F1F
:20282000E95EFE4FC081D181823009F445C0F0F48823E1F18130C1F18FEC91E00E946611F4
:202840008AE791E00E94661168E571E082EF94E00E943E0ECE0168EE73E00E94472F82EF0B
:2028600094E00E947B128CE291E04FC08330E1F1843011F787EC92E00E94661183E692E0AD
:202880000E9466116DE472E082EF94E00E943E0ECE0168EE73E00E94472F82EF94E00E9492
:2028A0007B1287E292E031C00E94AB121092E0046CE271E083E077CF66EB73E082EF94E009
:2028C0000E943E0ECE0168EE73E00E94472F82EF94E00E947B1288E693E00E9466111092CA
:2028E000E904BE018AE05FCF61E573E082EF94E00E943E0ECE0168EE73E00E94472F82EF27
:2029000094E00E947B1285E293E00E9466111092E904BE0180E047CFCF93DF93D0E0C0E039
:20292000009731F0BC0182EF94E00E945111EC010E9460118C0F9D1FDF91CF9108958F9254
:202940009F92AF92BF92CF92DF92EF92FF920F931F93CF93DF93CDB7DEB764970FB6F89443
:20296000DEBF0FBECDBFDC010D900020E9F79D0121503109281B390B122F4FEF420F4F33C5
:2029800008F067C0FC01A0814A2F4B7F433449F0A43539F0AD3429F04FEA4A0F423008F00F
:2029A00058C0B82FFC0150E040E06FEF7FEF01910C3209F4BA014F5F5F4F4117C0F38C0183
:2029C0006F3F760789F13327261B370B2330310559F5FC01E60FF71F918120ED290F2A30E5
:2029E00030F08FEB890F8630F8F429EC290F328190ED930F9A3030F08FEB830F8630A0F4A4
:202A000099EC930F81E0860FF80140E03E2F3B1B381718F431914327F9CF80E1289F9001B5
:202A20001124922B941741F18091290490912A048F3F980729F0019690932A04809329048C
:202A400060E478E082EF94E00E943E0EC8010E948C1464960FB6F894DEBF0FBECDBFDF914B
:202A6000CF911F910F91FF90EF90DF90CF90BF90AF909F908F900895A73409F0B5C046E0E2
:202A8000BE016F5F7F4FC8010E943C10188A1F8684508B3FF0F6BE01615F7F4F8B819C81E3
:202AA0000E9457108823A9F21A8A198A1C8A1B8ABE016F5E7F4F8D819E810E945710182F5E
:202AC000882341F0BE016D5E7F4F8F8198850E945710182F8F8598890E94211187FD0BC0ED
:202AE000B5E08B02F0011124E256FC4F808191810E947511AECF112341F089899A899C011C
:202B00002A50310922303105B8F060E378E082EF94E00E943E0E89899A890E94811223E0F6
:202B200089899A896AE070E00E94472F40E3480F67E48F859889E8C016EF180F80919D032F
:202B4000811120C0E0909B03F0909C0381E080939D0380E00E948B10882331F06894E0F885
:202B6000F0929C03E0929B0381E00E948B1020919B0330919C03882329F0226030939C032F
:202B800020939B0381E090E002C0880F991F1A95E2F720919B0330919C034B895C89452BA2
:202BA000F1F0822B932B90939C0380939B0367E278E082EF94E00E943E0E69897A8982EF7C
:202BC00094E00E947B1262E278E082EF94E00E943E0E8B899C890E94811220E0A1CF8095F0
:202BE000909582239323DFCFA13551F481E080936504109264048FED97E00E94661129CFA1
:202C0000BE016F5F7F4FCB018F5A954020910601309107018217930720F4909307018093C9
:202C2000060147E0C8010E943C10C82EEFEF8E1709F40FCFE981FA81F080F2E575E0D72ED5
:202C4000FF1661F024E566E0D62EF21639F08DE4E3E0DE2EF81611F054E0D52E92E09C15E1
:202C600008F0F7CEBE01615F7F4F8B819C810E945710882309F4EDCE0F851889C8010E9415
:202C80002111E82E87FD10C064ED77E082EF94E00E943E0E8F8598890E948112AE2DB5E043
:202CA000AB02F001112420CFCD1471F062EC77E082EF94E00E943E0E8F8598890E9481122E
:202CC00023E04FE36FE335CFE4E5FE1291C0ED81FE818181811186C05081513469F0543441
:202CE000B1F410921604109215041092140410929A031092990303C081E0809316044FE3FE
:202D00003FE320E0632FC8010E94D411A2CE533519F0583509F066C0EF81F885E984FA842A
:202D2000DF010D900020E9F7CD0103978E179F0709F058C0308181812FEC280F253008F000
:202D400051C0313409F484C1323409F04BC024ED280F533561F4F70180818053823008F0B6
:202D600041C0818181113EC031E4253008F032E4822F65E00E943B2F41E3490F809116049F
:202D80008823A1F181E090E002C0880F991F2A95E2F76091140470911504E0919903F091CB
:202DA0009A035335B1F4D7012C91682B792B7093150460931404203339F08E2B9F2B909334
:202DC0009A03809399039DCF809590958E239F23F6CF809590956823792370931504609359
:202DE0001404F4CF4FE33FE323E08CCF24E08ACFBDE4FB12D2C08090100490901104A09020
:202E00009703B0909803F12CE12CCC24C394D12C1E2D8E2D0E943911882309F45DC0960181
:202E20000E2C02C0220F331F0A94E2F7C90188219921892B09F450C0C9018A219B21892BC9
:202E400009F04AC0A22AB32AB0929803A0929703C70105966AE070E00E945B2F082F0E941B
:202E60003911882361F0C60102C0880F991F0A95E2F78A299B29909398038093970382E474
:202E8000F82E153010F491E4F92E812F65E00E943B2F01E3090F60E877E082EF94E00E9404
:202EA0003E0E8F2D0E944F0F802F0E944F0F61E777E082EF94E00E943E0E8091970390911D
:202EC000980302C0969587951A95E2F7817099270E94811220E05EC0EFEFEE1AFE0AFAE0FA
:202EE000EF16F10409F094CF10E000E0802F0E94391181111F5F0F5F0A30C1F7112309F470
:202F000041C00E94802E212F30E050E040E00E94D82E062F10E0812F0E943911882379F132
:202F20008FEF800F01112AC0812F90E0CC24C394D12C7601012E02C0EE0CFF1C0A94E2F730
:202F40002091970330919803E226F326F0929803E092970305966AE070E00E945B2F082FE8
:202F60000E943911882309F48ACFC60102C0880F991F0A95E2F78E259F257DCF082F1F5F9C
:202F80001A3049F683E997E00E9466110FE32FE3F22E25E0402F6F2DCCCDED81FE81DF0112
:202FA0000D900020E9F7CD0103978E179F0761F481812FEC280F253038F45081513499F0B8
:202FC00024ED280F523479F061E677E082EF94E00E943E0E8F8598890E9481124FE35FE36B
:202FE00023E0652FA6CD822F65E00E943B2F41E3490F81E090E002C0880F991F2A95E2F7CF
:20300000B2E5FB1215C0209112043091130428233923232BD9F42091100430911104BC017E
:2030200062237323822B932B672B51F022E0D9CF809590952091100430911104822393235D
:20304000909311048093100420E0CBCF21E0C9CF533509F08DCE7FCEBF92CF92DF92EF9211
:20306000FF920F931F93CF93DF938091EE049091EF04A091F004B091F1040196A11DB11D02
:203080008093EE049093EF04A093F004B093F10466E47AE182EF94E00E943E0E06E614E05E
:2030A000F80101900020E9F78F0107561440B02E62E672E182EF94E00E943E0E96E6E92E66
:2030C00094E0F92E6701D0E0DB1528F5F601C1916F0180EE8C0F8F3528F48C2F0E944F0FD3
:2030E000DF5FF2CF6FE572E182EF94E00E943E0EEC2FF0E084E0F595E7958A95E1F7E65BCA
:20310000FE4F80810E944F0FCF70EC2FF0E0E65BFE4F8081E3CF6BE572E182EF94E00E94CC
:203120003E0E802F0E94441289E20E944F0F0E94601162E871E086E694E00E94A02FEC0145
:20314000892BE1F1C090EC04D090ED04F12CE12CF8E5CF16F2E0DF06E104F104E0F48091F6
:20316000EA049091EB048F3F980729F001969093EB048093EA0469E37AE182EF94E00E94F3
:203180003E0EB701A60182EF94E00E94411286E39AE10E9466116AE370E0CE010E947E2FF2
:2031A0000097D9F10196DF91CF911F910F91FF90EF90DF90CF90BF900C949F1444E050E025
:2031C00068E871E086E694E00E94922F892B09F04DC06DE871E086E694E00E94A02F892BA6
:2031E00031F181E08093E9041092E8041092E7040E94320E6093E3047093E4048093E5048E
:203200009093E6048DEC99E10E9466118091E20468EC70E0882309F4E3C0DF91CF911F912F
:203220000F91FF90EF90DF90CF90BF90089564E971E086E694E00E94A02F892B71F310927D
:20324000E90482EA99E10E9466118091E2048111E4CF1092E704DF91CF911F910F91FF900A
:20326000EF90DF90CF90BF900C94EC128091E2048111C1C1C0910A01CB3008F0BCC16FE9E5
:2032800071E086E694E00E94A02F892BF1F084E599E10E94661180910A01833081F491E046
:2032A0009093E1046CED75E0DF91CF911F910F91FF90EF90DF90CF90BF900C940B119CEFC6
:2032C000980F923008F0A9CFEDCFC23009F08AC047E050E064EA71E086E694E00E94922FEB
:2032E000892BA1F564E379E182EF94E00E943E0E80916D04823321F17CF48133A1F086E6A6
:2033000094E0DF91CF911F910F91FF90EF90DF90CF90BF900C948C148333A9F0843379F738
:2033200086ED98E102C080E299E1DF91CF911F910F91FF90EF90DF90CF90BF900C946611A1
:2033400086E099E1F2CF84EE98E1EFCF6CE172E086E694E00E94A02F892B41F46CEA71E0A3
:2033600086E694E00E94A02F892BD9F08091E8048A3F18F48F5F8093E8041092E90410928F
:20338000E7046EEB78E182EF94E00E943E0E8091E8040E94441289E898E10E94661180E065
:2033A0005ACF64E172E086E694E00E94892F892B09F0D8C283E398E10E9466111092E80446
:2033C0001092E0041092E7040E94320E6093E3047093E4048093E5049093E6046CE271E08B
:2033E00083E062CFCA3009F564E172E086E694E00E94892F892B89F06CEA71E086E694E0BC
:203400000E94A02F892B49F462EB71E086E694E00E94A02F892B09F4A5C284EE97E10E94B7
:20342000661164EF71E082E03FCFC33009F09AC243E050E068EB71E086E694E00E94922F7F
:20344000892B09F48FC286E694E04AE001C0CD01DC012D91222309F477C220532A30B8F73F
:2034600034E08636930731F0FC013197208120532A3068F3FC0130E090E020E0819150ED67
:20348000580F5A3030F4249F800D112420ED280FF5CF911101C0322F8E3211F49F5FEDCF47
:2034A0009330A9F6332399F281E08093E9041092E0041092DF041092E1048091E3049091BD
:2034C000E404A091E504B091E604892B8A2B8B2B51F40E94320E6093E3047093E4048093A1
:2034E000E5049093E6046EEC77E182EF94E00E943E0E86E694E00E948C1468EC70E084E027
:20350000D3CE883069F564E172E086E694E00E94892F892BB1F06CEA71E086E694E00E94A5
:20352000A02F892BB1F465ED71E086E694E00E94A02F892B09F45FC01092E90481E194E139
:203540004EC083E497E10E9466116CE271E089E0ABCE83EE96E10E94661183E996E1F3CF3E
:20356000893009F747E050E066EC71E086E694E00E94922F892B69F46EEC71E086E694E0B9
:203580000E94A02F892B09F448CE81E08093DE0444CE64E172E086E694E00E94892F892B06
:2035A00049F06CEA71E086E694E00E94A02F892B09F4B9CF81E08093DD0486E296E10E94CB
:2035C00066118091DE04882379F08AEC95E10E94661186E595E10E94661187E095E10E94EF
:2035E000661168EE73E01FCF89EB94E10E94661187E694E1F4CF6BED71E086E694E00E94EB
:20360000A02F892B09F45CC067E971E086E694E00E94A02F892B09F453C08091DC048823BC
:20362000B1F085EB93E10E94661186E08093DB040E94320E6093D7047093D8048093D90415
:203640009093DA041092090110920801E6CD81E08093E2040E94320E6093D3047093D4047E
:203660008093D5049093D6048091D204882371F08091D0049091D1048F3F980729F0019676
:203680009093D1048093D0041092D2040E94320E6093CC047093CD048093CE049093CF047F
:2036A0001092CB041092650481E0809364041092CA041092C9041092C80483E893E135CE83
:2036C000C701F7012081FFEFEF1AFF0A2032C1F32930B1F32053253028F4FC0121812C32A5
:2036E00009F40296FC0101900020E9F73197E81BF90B2E2FE80FF92FF11D222309F473C0D9
:203700003291303219F03B7F393011F42150F5CF47E067E971E0273031F0263009F063C06C
:2037200046E061EE71E00E942310882309F45BC081E08093E2040E94320E6093D304709322
:20374000D4048093D5049093D6048091D204882371F08091D0049091D1048F3F980729F054
:2037600001969093D1048093D0041092D2040E94320E6093CC047093CD048093CE049093DA
:20378000CF041092CB041092650481E0809364041092CA041092C9041092DC041092C8042F
:2037A0001092E8041092E0048093E9048091E3049091E404A091E504B091E604892B8A2B46
:2037C0008B2B51F40E94320E6093E3047093E4048093E5049093E60410926304109262042D
:2037E0008CE593E1A2CD68EE71E086E694E00E94A02F892BB9F46FEE71E086E694E00E94EC
:20380000A02F892B79F466EF71E086E694E00E94A02F892B39F48091E20481112EC086E6FD
:2038200094E0C1CC1092E2041092CB041092650481E0809364041092CA041092C904109226
:20384000DC041092C804109263041092620483E08093DB040E94320E6093D7047093D80425
:203860008093D9049093DA048CE291E090930901809308011092E004D0CC6DEF71E086E6F4
:2038800094E00E94A02F892B79F08CE093E10E946611DF91CF911F910F91FF90EF90DF9090
:2038A000CF90BF900C94B51047E050E06FE072E086E694E00E94922F892B29F41092CA0479
:2038C0001092C904AACC49E050E067E172E086E694E00E94922F892BF9F41092CA0410921A
:2038E000C9048091C6049091C7048F3F980729F001969093C7048093C6048EEA92E10E94BF
:203900006611DF91CF911F910F91FF90EF90DF90CF90BF900C944D126CEA71E086E694E05F
:203920000E94A02F892B49F46FE971E086E694E00E94A02F892B09F472CF64E672E182EF2B
:2039400094E00E943E0EDBCC61E272E086E694E00E94892F892B31F48091DF04811102C06E
:203960000E94901280910A01843009F0CACD64E172E086E694E00E94892F892B49F06CEB8E
:2039800071E086E694E00E94A02F892B09F4CBCD88EA97E10E94661168EC70E085E084CCE0
:2039A000CF93DF93D82F8091480490914904A0914A04B0914B040196A11DB11D80934804D0
:2039C00090934904A0934A04B0934B04DA3009F0B2C08091DB028823A1F066EC70E082EFB2
:2039E00094E00E943E0E80E60E94441288EA90E00E9466111092DC021092DB02DF91CF913D
:203A000008954091DC024423C9F350E0FA01E558FD4F10821092DC028091E702882309F4CF
:203A200076C080919603811131C04F5F5F4F6BE772E086E393E00E94752F80917902909154
:203A40007A02909335038093340381E08093960380911D0490911E048F3F980729F00196A6
:203A600090931E0480931D048091E602803430F280911B0490911C048F3F980709F4BECF96
:203A8000019690931C0480931B04B8CF6FE072E08BE792E00E94A02F2091E602892BD1F08F
:203AA00080912504909126048F3F980729F001969093260480932504203460F08091210401
:203AC000909122048F3F980729F00196909322048093210480911F04909120048F3F98071B
:203AE00029F001969093200480931F04203408F485CF8091190490911A048F3F980709F41E
:203B00007DCF019690931A048093190477CF4F5F5F4F6BE772E086E694E00E94752F8091D4
:203B2000790290917A029093ED048093EC04DF91CF910C942C188091CA04882309F441C01A
:203B400080917802E82FF0E0E15FFE4F90819D1333C08F5F873019F08093780222C01092F3
:203B600078021092CA041092C90480912704909128048F3F980729F00196909328048093E4
:203B800027048091E602803460F080912304909124048F3F980729F0019690932404809301
:203BA0002304DD3009F42ACFC091DC02CF3560F081E08093DB0222CF81E0D33569F280E0F2
:203BC000CBCF10927802EDCFC1110CC00E94320E2091400430914104621B730B70937A027E
:203BE0006093790281E08C0F8093DC02EC2FF0E0E558FD4FD08302CF8FE895E00E94E90F4C
:203C0000892B39F08FE895E00E94FF0F0E94D01CF3CF8091AD0580FF0FC08E7F8093AD05F8
:203C200080912B0490912C048F3F980729F0019690932C0480932B0408952F923F924F9231
:203C40005F927F928F929F92AF92BF92CF92DF92EF92FF920F931F93CF93DF931F92CDB73D
:203C6000DEB79E012E5A354040910601509107012417350720F43093070120930601709042
:203C8000E204711015C0E12C8E2D0F90DF91CF911F910F91FF90EF90DF90CF90BF90AF90F7
:203CA0009F908F907F905F904F903F902F9008959B0121503109203A310528F78B016C01BF
:203CC000E090CA04EE2009F45AC00E94320E0091E8021091E9022091EA023091EB02DC0170
:203CE000CB01801B910BA20BB30B80342FE19207A105B10568F5803D9740A105B105B8F0A8
:203D00008091C904811113C081E08093C90480913A0490913B048F3F980729F00196909330
:203D20003B0480933A048FE097E00E94661180911704909118048F3F980729F0019690934B
:203D400018048093170487EB96E00E9466119BCF1092CA041092C904809138049091390424
:203D60008F3F980729F0019690933904809338048BE596E00E9466110E94B51084CF81E05D
:203D80008093E7026093E6020E94320E8090E2029090E302A090E402B090E5026819790931
:203DA0008A099B09603571058105910518F40E94FC1DEACF6FE476E08FE895E00E943E0EA2
:203DC0004801FFEF8F1A9F0AB4018FE895E00E947B126CE476E08FE895E00E943E0E0E9468
:203DE000320E1B012C01B12CA12C0E94320E62197309840995096C3271408105910508F029
:203E000048C08FE895E00E94E90F892B71F38FE895E00E94FF0FF82E8EE3F81609F470C08E
:203E20008F2D0E94D01C8FEB8F0D8A3110F4E0E2FE0EEA2DF0E0E15DFE4F8081A3948F1547
:203E400029F0AA24A394F2E6FF12A12CEA2DF0E0E15DFE4F8081882309F4B4C0EB2DF0E017
:203E6000E75DFE4F8081B3948F1529F0BB24B39425E6F212B12CEB2DF0E0E75DFE4F808120
:203E80008111BFCF92E0F92E85EA95E00E94661167C083E0F82EB12CA12C63E28FE895E0E1
:203EA0000E948D0FC5018F7099270F9711F40E94FC1D8FEFA81AB80A0A151B0571F76AE0E6
:203EC0008FE895E00E948D0F0E94FC1D80915304909154048F3F980729F001969093540484
:203EE0008093530469E775E082EF94E00E943E0EB40182EF94E00E947B128BE395E0C6CF9F
:203F0000F12C0C0D1D1D560145018C189D08F50161915F018FE895E00E948D0FFFE08F2249
:203F200099242FE08216910411F40E94FC1D0A151B0551F76AE08FE895E00E948D0F0E942B
:203F4000FC1D81E08093CA041092C9040E94320E6093E8027093E9028093EA029093EB02DB
:203F60000E94320E6093E2027093E3028093E4029093E5021092E7026AE275E0F11002C0AE
:203F800065E375E082EF94E00E943E0EC6010E948C14F1E0FF1649F1F11019C01092CB043D
:203FA0000E94320E6093CC047093CD048093CE049093CF0410920B0410920C0410920D0497
:203FC000E72C62CEFF24F39486EE95E05FCF0E944D1222E0F21212C080910B048F3F09F419
:203FE00052CE8F5F80930B044FCE80910D048F3F09F449CE8F5F80930D0446CE80910C0429
:204000008F3F09F441CE8F5F80930C043DCE1F920F920FB60F9211242F933F938F939F93D5
:20402000AF93BF9380915E0490915F04A0916004B091610430915D0423E0230F2D3758F5B2
:204040000196A11DB11D20935D0480935E0490935F04A0936004B093610480915904909160
:204060005A04A0915B04B0915C040196A11DB11D8093590490935A04A0935B04B0935C0468
:20408000BF91AF919F918F913F912F910F900FBE0F901F90189526E8230F0296A11DB11DE5
:2040A000D2CF1F920F920FB60F9211242F933F934F935F936F937F938F939F93AF93BF930E
:2040C000EF93FF9382EF94E00E94E00EFF91EF91BF91AF919F918F917F916F915F914F9187
:2040E0003F912F910F900FBE0F901F9018951F920F920FB60F9211242F938F939F93EF9344
:20410000FF93E0910205F09103058081E0910805F091090582FD1BC0908180910B058F5F84
:204120008F7320910C05821741F0E0910B05F0E0EE50FB4F958F80930B05FF91EF919F9191
:204140008F912F910F900FBE0F901F9018958081F4CF1F920F920FB60F9211242F933F93D3
:204160004F935F936F937F938F939F93AF93BF93EF93FF93E0912E03F0912F03309749F006
:20418000A685B7858585968D91FF14C09C918923A1F4FF91EF91BF91AF919F918F917F91B9
:2041A0006F915F914F913F912F910F900FBE0F901F9018959C91892361F7A389B4899C9171
:2041C0008589809589238C93868997890197F1F7608D718DA685B785558538E020E0CB0132
:2041E0000197F1F7822F90E095958795282F4C91452309F02068315091F7868D81FD20956C
:2042000080912D0390E001968F73992730912C03381799F0A0912D03B0E0A451BD4F2C931B
:2042200080932D03828D938D0197F1F7A389B4898C919589892B8C93ACCF868D8160868F91
:20424000F1CF1F93CF93DF93282F30E0F901E95BFD4E8491F901EC58F54ED491F901E05AF9
:20426000F54EC491CC23A9F0162F81110E94CD0DEC2FF0E0EE0FFF1FEA5AF54EA591B491C3
:204280008FB7F894EC91111108C0D095DE23DC938FBFDF91CF911F910895DE2BF8CF109233
:2042A000F5041092F40488EE93E0A0E0B0E08093F6049093F704A093F804B093F9042FE5C4
:2042C00031E03093F3042093F20425EC30E03093FF042093FE0424EC30E030930105209332
:2042E000000520EC30E0309303052093020521EC30E0309305052093040522EC30E0309391
:2043000007052093060526EC30E0309309052093080510920B0510920C0510920D05109265
:204320000E0510929205109291058093930590939405A0939505B093960581E791E09093EB
:20434000900580938F051092A6051092A5051092A8051092A7051092AA051092A9051092A8
:20436000AC051092AB056091AD056E7F6D7F6093AD056695617081E0682787E00E94212112
:2043800061E087E00E94F60DEBE7FAE1E491E0939F05E7E6FAE1E491F0E0EE0FFF1FEA5A4B
:2043A000F54E859194919093A1058093A00560E088E00E94F60D8091AD0581FD04C061E06B
:2043C00088E00E94212188E080939B05ECE7FAE1E491E0939C05E8E6FAE1E491F0E0EE0F54
:2043E000FF1FE45BF54E8591949190939E0580939D050895CF93DF93CDB7DEB7C35DD109E3
:204400000FB6F894DEBF0FBECDBF789484B5826084BD84B5816084BD85B5826085BD85B5FA
:20442000816085BD80916E00816080936E00109281008091810082608093810080918100BB
:20444000816080938100809180008160809380008091B10084608093B1008091B0008160D6
:204460008093B00080917A00846080937A0080917A00826080937A0080917A008160809304
:204480007A0080917A00806880937A001092C100E0910205F091030582E08083E091FE0466
:2044A000F091FF041082E0910005F091010580E1808310920A05E0910605F091070586E065
:2044C0008083E0910405F0910505808180618083E0910405F0910505808188608083E0918D
:2044E0000405F0910505808180688083E0910405F091050580818F7D80831092AA05109234
:20450000A9051092A8051092A7051092A6051092A5058DE991E09093AC058093AB05909118
:204520009B05963108F047C02DEB30E03093A6052093A5052BE931E03093A8052093A7052E
:204540002CE231E03093AA052093A9052091680084E0983048F031E09E3008F430E081E0A0
:2045600001C0880F3A95EAF7822B809368002DE630E0983050F02BE630E09E3030F02CE6BF
:2045800030E0963110F030E020E03093A3052093A205292F30E0983008F015C281E001C04E
:2045A000880F9A95EAF78093A4058091AB059091AC050197F1F78091A9059091AA05892B42
:2045C00049F1E0912E03F0912F0315E0EF38F10709F1309739F0A389B4899C918589809595
:2045E00089238C938091AD058E7F8093AD0510922D0310922C038FE895E090932F03809364
:204600002E03E091A205F091A30580819091A405892B80831092DB040E94320E6093D70475
:204620007093D8048093D9049093DA0484EF91E090930901809308010E94320E6093400464
:2046400070934104809342049093430481E480937C0080917A00806480937A0080917A00D4
:2046600086FDFCCF4091780050917900052E000C660B770B3FB7F8948091590490915A04A8
:20468000A0915B04B0915C0426B5A89B05C02F3F19F00196A11DB11D3FBFBA2FA92F982FE6
:2046A0008827820F911DA11DB11DF2E0880F991FAA1FBB1FFA95D1F78A019B0108271927CF
:2046C0002A273B27481759076A077B0721F0C901B8010E94CF2E1092160410921504109229
:2046E000140410929A03109299038EEC91E090939803809397036CE57AE082EF94E00E949D
:204700003E0E8AE00E94441262E57AE082EF94E00E943E0E8CE00E94441280E49AE00E9493
:20472000661169E27AE082EF94E00E943E0E8091AE05811155C18FEE99E00E94661168E6C1
:2047400079E082EF94E00E943E0E6DE279E082EF94E00E943E0E68E179E082EF94E00E9489
:204760003E0E84E199E00E9466119E0121543F4FCC53DF4F39832883C45CD040AE014E551E
:204780005F4FC853DF4F59834883C85CD040CE0186549F4FCA53DF4F99838883C65CD0400C
:2047A000FE0131961F010E94320E2B013C018091E204882309F43DC180914E04882339F1F3
:2047C0008091D3049091D404A091D504B091D604A3019201281B390B4A0B5B0BDA01C901B5
:2047E00080339547A105B10594F064E57EE082EF94E00E943E0E80914E040E9444128FE402
:204800009EE00E94661110924E0410924D040E94FC1D809196038823A9F080E6E6E3F3E06F
:20482000A6E6B4E001900D928A95E1F780913403909135039093ED048093EC04109296033E
:204840000E942C18D0901604E0901404F090150460919703709198034091990350919A03C5
:2048600030E020E0C653DF4F19821882CA5CD040E22FDD2009F40AC3C701022E02C09695B9
:2048800087950A94E2F780FF01C3CA010E2E02C0969587950A94E2F78170A9F081E090E060
:2048A00002C0880F991FEA95E2F7C653DF4FE881F981CA5CD040E82BF92BC653DF4FF98335
:2048C000E883CA5CD0402F5F3F4F2A30310581F6C653DF4F28813981CA5CD040309313045A
:2048E00020931204DD2009F4D3C2C453DF4FF982E882CC5CD0408091040190910501C653A8
:20490000DF4FE881F981CA5CD0408E179F0709F0C8C22091100430911104809102019091B2
:2049200003012817390709F0BCC28091000190910101C453DF4F28813981CC5CD0408217CF
:20494000930709F0AEC210920F048090400490904104A0904204B090430440912F04509104
:2049600030046091310470913204F091E20420912D0430912E04E0910E04D301C2018819AF
:204980009909AA09BB09803B14E09107A105B10508F48FC210EB810E14E0911EA11CB11C57
:2049A000FF2339F0E11105C02F3F320711F02F5F3F4F4F5F5F4F6F4F7F4F805B9440A109F0
:2049C000B109E0E0E0CF9E3040F42850310981E001C0880F2A95EAF7E6CD2E503109F7CF70
:2049E00080FF06C06CED79E082EF94E00E943E0E8091AE0581FF06C062EC79E082EF94E057
:204A00000E943E0E8091AE0582FF06C06FE979E082EF94E00E943E0E8091AE0583FF06C00D
:204A200064E979E082EF94E00E943E0E0E94601186CE80914C04882379F077FC0DC010923F
:204A40004C040E94AB126CED75E081E00E940B1188E79AE00E94661180914C048111D7CE40
:204A60008091D7049091D804A091D904B091DA04B301A201481B590B6A0B7B0B80910801ED
:204A800090910901B0E0A0E0481759076A077B0708F4BDCE8091DB04853059F48091E904B2
:204AA000811107C08FEF9DE00E94661182E08093DB041091DB04123091F48091E704882347
:204AC00009F455C01092E7048091E8048A3F18F48F5F8093E80481E00E94EC1298CE1B30C6
:204AE00008F060C0E12FF0E0E858FA4D0C946F2F83259425D225FA25442665268A26CD26EA
:204B0000EE260F27332765E17DE08FE895E00E943E0E69E07DE082EF94E00E943E0E0E9459
:204B200060111092E7043EC06BEF7CE08FE895E00E943E0E6AEE7CE082EF94E00E943E0E62
:204B40000E94601181E080930A014092D7045092D8046092D9047092DA0480E293E09093B1
:204B60000901809308011F5F1093DB0450CE67EC7CE08FE895E00E943E0E60E97CE082EF52
:204B800094E00E943E0E0E94601181E08093E7040E94320E609330037093310380933203BA
:204BA0009093330310930A014092D7045092D8046092D9047092DA04E12FF0E0EE0FFF1FD9
:204BC000EC5CFE4F808191819093090180930801EEEFE10FE93038F6F0E0EF50FA4D0C94DA
:204BE0006F2F3127192663268426A926EC260D272E27312765E87CE08FE895E00E943E0E08
:204C000067E57CE082EF94E00E943E0E0E94601183E080930A014092D7045092D804609228
:204C2000D9047092DA0484EC99E090930901809308018091E0048F5F8093E004833008F4FC
:204C40001BC18091E1041092E0041092E1048111E1C78091DF04811102C00E9490128BE63E
:204C60009DE00E94661182E08093DB0480E00E94EC128091DB04833009F0C9CD68EE73E06F
:204C800082E00E940B11C3CD69E47CE08FE895E00E943E0E68E37CE082EF94E00E943E0E67
:204CA0000E94601184E080930A014092D7045092D8046092D9047092DA0480EB94E0909343
:204CC00009018093080185E0D8C060E17CE08FE895E00E943E0E6FEF7BE082EF94E00E94FA
:204CE0003E0E0E94601185E080930A014092D7045092D8046092D9047092DA0480E49FE1D4
:204D000090930901809308018091DC048823D9F286E0B3C061EF7BE08FE895E00E943E0E85
:204D200069EC7BE082EF94E00E943E0E0E94601186E080930A014092D7045092D8046092FC
:204D4000D9047092DA0480E293E090930901809308018091C8048F5F8093C804833008F41F
:204D60008FC06BE57DE082EF94E00E943E0E8091C8040E9444128EE19DE00E9466111092E8
:204D8000DB041092DC041092C80488EC90E0909309018093080182E09FCE60EC7BE08FE82A
:204DA00095E00E943E0E69E97BE082EF94E00E943E0E0E94601187E080930A014092D704CB
:204DC0005092D8046092D9047092DA048CED95E0909309018093080188E04FC06AE77BE00C
:204DE0008FE895E00E943E0E60E47BE082EF94E00E943E0E0E94601188E080930A014092FC
:204E0000D7045092D8046092D9047092DA048CED95E0909309018093080189E02EC065E374
:204E20007BE08FE895E00E943E0E69E07BE082EF94E00E943E0E0E94601189E080930A012C
:204E40004092D7045092D8046092D9047092DA0488E293E2909309018093080181E080939C
:204E6000DD0482E00AC06EEF7AE08FE895E00E943E0E6CEC7AE04FCE83E08093DB04C7CCDD
:204E800083E08093DB041092E004C1CCCB01FECC4FEF5FEFC453DF4F59834883CC5CD04064
:204EA0002ACD80910F04811150CD81E080930F044CCD8092400490924104A0924204B09211
:204EC0004304E0930E0440932F0450933004609331047093320430932E0420932D048853D4
:204EE0009F4FAF4FBF4F89359240A105B10508F023C381E0E827FF2309F490C08091CC042E
:204F00009091CD04A091CE04B091CF04A3019201281B390B4A0B5B0BDA01C90180319742E0
:204F2000A105B1050CF40AC368E870E182EF94E00E943E0E8091CC049091CD04A091CE04FE
:204F4000B091CF04B301A201481B590B6A0B7B0B82EF94E00E9441126EE570E182EF94E0C1
:204F60000E943E0E80910D040E94441260E570E182EF94E00E943E0E80910C040E944412A7
:204F800065E470E182EF94E00E943E0E80910B040E9444126EE270E182EF94E00E943E0E18
:204FA000609117047091180482EF94E00E947B126DE170E182EF94E00E943E0E60913A0413
:204FC00070913B0482EF94E00E947B1260E170E182EF94E00E943E0E6091C6047091C70491
:204FE00082EF94E00E947B1262E070E182EF94E00E943E0E60913C0470913D0482EF94E0DF
:205000000E947B1281EE9FE00E94661110920B0410920C0410920D040E94B5108091440484
:2050200090914504A0914604B0914704A3019201281B390B4A0B5B0BDA01C90180369A4E43
:20504000A105B10508F4ABC18091E2048823E1F08091400490914104A0914204B09143045F
:2050600022E330E040E050E0281B390B4A0B5B0BDA01C901840D951DA61DB71D893592407A
:20508000A105B10508F08BC14092440450924504609246047092470464E871E182EF94E01F
:2050A0000E943E0EC301B20128EE33E040E050E00E940A2FBA01A90182EF94E00E944112F8
:2050C0006DE771E182EF94E00E943E0E60913E0470913F0482EF94E00E947B1264E771E12F
:2050E00082EF94E00E943E0E60913C0470913D0482EF94E00E947B126CE671E182EF94E0CD
:205100000E943E0E70E060E082EF94E00E947B128FE20E944F0F6091D0047091D10482EF80
:2051200094E00E947B1263E671E182EF94E00E943E0E609153047091540482EF94E00E9436
:205140007B1268E571E182EF94E00E943E0E6091C6047091C70482EF94E00E947B1261E56F
:2051600071E182EF94E00E943E0E60913A0470913B0482EF94E00E947B1269E471E182EF77
:2051800094E00E943E0E609138047091390482EF94E00E947B1262E471E182EF94E00E940F
:2051A0003E0E809137040E94441268E371E182EF94E00E943E0E609135047091360482EF19
:2051C00094E00E947B126DE271E182EF94E00E943E0E609133047091340482EF94E00E94D0
:2051E0007B1266E271E182EF94E00E943E0E40912F0450913004609131047091320482EFCE
:2052000094E00E94411260E271E182EF94E00E943E0E6091EA047091EB0482EF94E00E9468
:205220007B1268E171E182EF94E00E943E0E60912D0470912E0482EF94E00E947B1260E1C9
:2052400071E182EF94E00E943E0E60912B0470912C0482EF94E00E947B1266E071E182EFBB
:2052600094E00E943E0E6091290470912A0482EF94E00E947B12E0902704F0902804C090D4
:205280002504D09026040091230410912404A0902104B09022046BEF70E182EF94E00E94ED
:2052A0003E0EB70182EF94E00E947B1260EF70E182EF94E00E943E0E60911F04709120042A
:2052C00082EF94E00E947B1265EE70E182EF94E00E943E0E60911D0470911E0482EF94E029
:2052E0000E947B126BED70E182EF94E00E943E0E60911B0470911C0482EF94E00E947B12BE
:2053000061ED70E182EF94E00E943E0E6091190470911A0482EF94E00E947B1267EC70E136
:2053200082EF94E00E943E0EB80182EF94E00E947B126EEB70E182EF94E00E943E0EB60199
:2053400082EF94E00E947B1262EB70E182EF94E00E943E0EB50182EF94E00E947B126BEAA9
:2053600070E182EF94E00E943E0E609117047091180482EF94E00E947B1262EA70E182EFBE
:2053800094E00E943E0E4091E20450E070E060E02AE082EF94E00E94F5110E946011809179
:2053A000E20481117FC080914F0490915004A0915104B0915204A3019201281B390B4A0B2D
:2053C0005B0BDA01C901883B9B40A105B10508F469C040924F0450925004609251047092FF
:2053E000520464EC71E182EF94E00E943E0E8091DB040E94441268EB71E182EF94E00E94CE
:205400003E0E80914E040E9444128FE20E944F0F80914D040E94441280914C04882331F0ED
:2054200062EA71E182EF94E00E943E0E6DE971E182EF94E00E943E0E409148045091490435
:2054400060914A0470914B0482EF94E00E94411265E971E182EF94E00E943E0E4091EE04AD
:205460005091EF046091F0047091F10482EF94E00E94411260E971E182EF94E00E943E0E35
:20548000C301B20128EE33E040E050E00E940A2FBA01A90182EF94E00E9441128EE891E11A
:2054A0000E9466118091550490915604A0915704B0915804A3019201281B390B4A0B5B0B4C
:2054C000DA01C90180369A4EA105B10540F14092550450925604609257047092580468E2A0
:2054E00072E182EF94E00E943E0E609106017091070182EF94E00E947B126AE072E182EF63
:2055000094E00E943E0E609153047091540482EF94E00E947B1289ED91E10E94661180E013
:2055200090E0892B09F43FC90E94CC0E882309F437C90E9400002BC9E0E0DDCCEE2309F411
:205540006DCD4091100450911104C253DF4F59834883CE5CD0400E94320E9B01AC012819A6
:2055600039094A095B09C053DF4F288339834A835B83C05DD040C0906504CC2009F47FC1D0
:205580001F928CE08F931F9287E08F9389E292E09F938F931F9281EA8F933F922F920E94EF
:2055A000BA2F0FB6F894DEBF0FBECDBF181619060CF0BEC09C012D5F3F4F223A310508F0B3
:2055C000B7C0682FC1010E94E210F10101900020E9F731978F0102191309D12CC12C64E324
:2055E000862E62E0962EF601E955F14FE491C154DF4FE883CF5BD040F601E855F14FE49136
:20560000C054DF4FE883C05CD040CF53DF4F1882C15CD0409E0126543F4F90E080E0D90149
:20562000A6014655514FFA01E80FF91F6491F90161939F01662339F001968330910599F7D9
:2056400013961C921397BF93AF93CB53DF4FF881C55CD040FF93CC53DF4F2881C45CD04007
:205660002F939F928F921F9238E13F93C753DF4F4881C95CD0404F93C853DF4F5881C85C0C
:20568000D0405F930E94BA2F0FB6F894DEBF0FBECDBF181619060CF04BC09C012D5F3F4F2B
:2056A0002931310508F044C0682FCE018E559F4F0E94E210C853DF4FE881F981C85CD04033
:2056C00001900020E9F731977F01C853DF4F28813981C85CD040E21AF30AC801805A9109DB
:2056E0008E0D9F1D8F359F4F18F158014FEFA41AB40AF101E00FF11F5AE05083A7014F5F31
:205700005F4FBE016E557F4FC1018A0D9B1D0E94752F87010A0D1B1D88E0C80ED11C90E6BC
:20572000C916D10409F05FCF0115110509F07AC085E69FE00E94661110E000E0D12CC12C72
:2057400081E080930E0467ED7FE082EF94E00E943E0E40912F0450913004609131047091FD
:20576000320482EF94E00E94411262ED7FE082EF94E00E943E0EB80182EF94E00E947B12CB
:205780006CEC7FE082EF94E00E943E0E8D2D0E94441266EC7FE082EF94E00E943E0EC05336
:2057A000DF4F488159816A817B81C05DD04082EF94E00E94411281EC9FE0C11002C08CEB34
:2057C0009FE00E9466110E94320ECC2009F426CC8091090490910A04019690930A0480934C
:2057E0000904C653DF4F28813981CA5CD0403093050120930401C253DF4F48815981CE5C2B
:20580000D0405093030140930201C453DF4F88819981CC5CD0409093010180930001109240
:205820000F04FCCBB801C1010E941D1EC82E882309F4F5C11092650480910704909108048E
:205840008F3F980729F00196909308048093070467E57FE082EF94E00E943E0E6DE47FE0B0
:2058600082EF94E00E943E0EB80182EF94E00E947B1285E59FE00E946611D12C61CFB09019
:205880009D03B11084C080E00E948B10C653DF4F08811981CA5CD040882349F0C653DF4FFB
:2058A00008811981CA5CD0401460B1107AC081E00E948B1081111860BE0161547F4FC8016D
:2058C0000E947F0DBE0166547F4FC253DF4F88819981CE5CD0400E947F0D10910904009146
:2058E0000A04DD2009F465C0BE016E557F4FC7010E947F0D0E94320EC753DF4FF881C95C6D
:20590000D040FF93C853DF4F2881C85CD0402F932DE332E03F932F9328EE33E040E050E0CE
:205920000E940A2F5F934F933F932F93C953DF4F3881C75CD0403F93CA53DF4F4881C65CE6
:20594000D0404F93CB53DF4F5881C55CD0405F93CC53DF4F8881C45CD0408F930F931F9311
:2059600080E492E09F938F931F9280E48F933F922F920E94BA2F0FB6F894DEBF0FBECDBF62
:20598000181619060CF44BC010E000E076CF80919B0380FD83CFC653DF4F08811981CA5C8C
:2059A000D04080919B0390919C0396958795817081CF0E94320E2DE332E03F932F9328EE32
:2059C00033E040E050E00E940A2F5F934F933F932F93C953DF4FF881C75CD040FF93CA537C
:2059E000DF4F2881C65CD0402F93CB53DF4F3881C55CD0403F93CC53DF4F4881C45CD0408E
:205A00004F930F931F9386E592E09F938F931F9280E48F933F922F920E94BA2FACCF9C01B3
:205A20002D5F3F4F2134310508F0AECF682FC1010E94E210F10101900020E9F731978F0184
:205A400002191309002309F49FCF1127D0903704DD2009F4B9C0E0900604F12CF701EE0FAF
:205A6000FF1FE251FC4F808191810E94211187FF1CC0C70101966CE070E00E945B2F809307
:205A80000604DA94D092370480913304909134048F3F980729F0019690933404809333048E
:205AA00087E09FE00E946611D1CFD12C95E0B92E28E1A22E3AE0C32E80913704D81608F0D8
:205AC00083C0809106048D0D9927991F6CE070E00E945B2FFC01EE0FFF1FE251FC4F8081F7
:205AE00091810E94211187FD6FC02B2D382F3203F0011124E256FC4F84811F928F93838194
:205B0000282F082E000C330B3F938F938281282F082E000C330B3F938F9381818F938081C7
:205B20008F9349E652E05F934F931F92AF92C753DF4F9881C95CD0409F93C853DF4FE881A2
:205B4000C85CD040EF930E94BA2F0FB6F894DEBF0FBECDBF18161906BCF59C012D5F3F4F08
:205B60002931310588F5682FCE018E559F4F0E94E210C853DF4FE881F981C85CD04001905C
:205B80000020E9F73197AF01C853DF4F88819981C85CD040481B590B5527C80101967C01CD
:205BA000E40EF51EE1EAEE16F10470F4F101E00FF11FC082BE016E557F4F820D931D0E9454
:205BC000752FD394870178CFB801C1010E941D1EC82E882309F4B4CDDD2081F080910604EB
:205BE0008D0D9927991F6CE070E00E945B2F80930604809137048D198093370480916404F5
:205C0000882329F01092640481E080936504CC24C39496CD88EA9DE00E94661120C867E5F3
:205C20007FE082EF94E00E943E0E65E47FE018CE81E791E09093900580938F0580912E032A
:205C400090912F038F58954071F4E091A205F091A30590818091A40580958923808310925E
:205C60002F0310922E0308958F929F92AF92BF92CF92DF92EF92FF92CF93DF93EC01688110
:205C800079818A819B81611571058105910521F464E279ED8BE597E02DE133EF41E050E0B2
:205CA0000E94D82E49015A019B01AC01A7EAB1E40E94F72E6B017C01ACEEB4EFA501940100
:205CC0000E94052FC60ED71EE81EF91EF7FE06C081E0C81AD108E10880E8F80AC882D98239
:205CE000EA82FB82C701B6019F77DF91CF91FF90EF90DF90CF90BF90AF909F908F90089501
:205D00008F929F92AF92BF92CF92DF92EF92FF9260910B0170910C0180910D0190910E0161
:205D2000611571058105910521F464E279ED8BE597E02DE133EF41E050E00E94D82E490140
:205D40005A019B01AC01A7EAB1E40E94F72E6B017C01ACEEB4EFA50194010E94052FC60EA7
:205D6000D71EE81EF91EF7FE06C081E0C81AD108E10880E8F80AC0920B01D0920C01E092A8
:205D80000D01F0920E01C701B6019F77FF90EF90DF90CF90BF90AF909F908F900895609387
:205DA0000B0170930C0180930D0190930E010895052E97FB1EF400940E94EF2E57FD07D082
:205DC0000E940A2F07FC03D04EF40C94EF2E50954095309521953F4F4F4F5F4F0895909542
:205DE0008095709561957F4F8F4F9F4F08950E942C2FA59F900DB49F900DA49F800D911D10
:205E000011240895B7FF0C94F72E0E94F72E821B930B0895A1E21A2EAA1BBB1BFD010DC065
:205E2000AA1FBB1FEE1FFF1FA217B307E407F50720F0A21BB30BE40BF50B661F771F881FFE
:205E4000991F1A9469F760957095809590959B01AC01BD01CF010895A29FB001B39FC001CF
:205E6000A39F700D811D1124911DB29F700D811D1124911D0895991B79E004C0991F9617C0
:205E800008F0961B881F7A95C9F780950895AA1BBB1B51E107C0AA1FBB1FA617B70710F07F
:205EA000A61BB70B881F991F5A95A9F780959095BC01CD01089597FB072E16F4009407D0D3
:205EC00077FD09D00E94472F07FC05D03EF4909581959F4F0895709561957F4F0895EE0F2A
:205EE000FF1F0590F491E02D0994FB01DC0102C001900D9241505040D8F70895FC01819159
:205F0000861721F08823D9F7992708953197CF010895FB01DC018D91019080190110D9F3C8
:205F2000990B0895FB01DC014150504030F08D910190801919F40020B9F7881B990B0895FD
:205F4000FB0151915523A9F0BF01DC014D9145174111E1F759F4CD010190002049F04D916E
:205F600040154111C9F3FB014111EFCF81E090E001970895AEE0B0E0E0ECFFE20C94763299
:205F80000D891E898F89988D26E02C831A83098397FF02C080E090E801979E838D83AE0101
:205FA000455E5F4F698D7A8DCE0101960E94EA2F4D815E8157FD0AC02F8138854217530787
:205FC0000CF49A01020F131FF80110822E96E4E00C949232ABE0B0E0E0EFFFE20C94683267
:205FE0007C013B018A01FC0117821682838181FFC8C1CE0101965C01F7019381F30193FDCF
:20600000859193FF81913F01882309F453C1853239F493FD859193FF81913F01853229F488
:20602000B70190E00E94DA31E7CF912C212C312CFFE1F31538F08B3211F190F4803209F16F
:20604000833229F137FC3CC020ED280F2A3050F536FE20C08AE0989E200D1124922E06C0C3
:206060008D3291F0803371F7689430F8F30193FD859193FF81913F018111DACF21C068940B
:2060800031F8689432F8F2CF689433F8EFCF689434F8ECCFEAE02E9E200D1124222E6894E4
:2060A00035F8E4CF8E3229F436FC04C1689436F8DDCF8C3619F4689437F8D8CF8836B1F254
:2060C000982F9F7D95549330E0F08336A1F18337C1F1833509F063C02801F2E04F0E511C11
:2060E000F801C080D180692D70E036FC02C06FEF7FEFC6010E94C4314C01689437F8820117
:206100000AC00C5F1F4FFFE3F98388248394912C6501E89437F833FE2DC0522C8114910427
:2061200071F5552009F468CFB70180E290E00E94DA315A94F6CFF801808189830E5F1F4F85
:20614000E4CF2801F2E04F0E511CF801C080D180692D70E036FC02C06FEF7FEFC6010E942E
:20616000CF314C018201D5CFB70180E290E00E94DA312A942814190409F0B0F7CECFF60129
:2061800037FC859137FE81916F01B70190E00E94DA3151105A94F1E08F1A9108BFCF843680
:2061A00019F0893609F077C0F80137FE6BC060817181828193810C5F1F4FF32DFF763F2EC9
:2061C00097FF09C090958095709561957F4F8F4F9F4F689437F82AE030E0A5010E940A32C8
:2061E000C82ECA188C2C432C36FE0CC0E89440F8C91440F434FE05C032FC03C0F32DFE7E57
:206200004F2E892C44FE95C0FE01EC0DF11D8081803309F087C0242D297E422E842D8870AA
:20622000582E43FC95C040FE8FC09C2C821418F42C0C922C981844FE91C0B70180E390E089
:206240000E94DA3142FE09C088E790E041FE02C088E590E0B7010E94DA31C91408F48AC043
:20626000CA94D12C9FEFC91AD90ACA0CDB1CF60182916F01B70190E00E94DA31AC14BD04D2
:20628000B1F74FCF60817181072E000C880B990B0E5F1F4F92CFD32CE894D4F82AE030E050
:2062A000853739F1232D297FD22E8F3601F148F48835A9F0F701868197812B96E2E10C947C
:2062C0008432803749F08837A9F7D4FE02C06894D2F820E130E00DC06894D4F8F6CF34FEC2
:2062E00003C0822F8660D82E20E132E002C028E030E0F801D7FE0FC06081718182819381CA
:206300000C5F1F4FA5010E940A32C82ECA183D2CE89437F867CF6081718190E080E00E5FEE
:206320001F4FF0CF42FC02C0839478CF8394839475CF842D867809F471CFF6CFB70180E295
:2063400090E00E94DA3183948214C0F3512C73CF522C5818821408F46ECFF8CF842D8678CE
:2063600009F47BCF8BE241FE80E247FC8DE2B70190E071CFB70180E390E00E94DA319A9448
:206380006CCF8FEF9FEF99CFFC010590615070400110D8F7809590958E0F9F1F0895FC014C
:2063A0006150704001900110D8F7809590958E0F9F1F08950F931F93CF93DF93182F092F32
:2063C000EB018B8181FD09C01FEF0FEF812F902FDF91CF911F910F91089582FF14C02E8142
:2063E0003F818C819D81281739073CF4E881F981CF0101969983888310838E819F81019639
:206400009F838E83E3CFE885F985812F0995892BA1F3DACFFA01AA27283051F1203181F144
:20642000E8946F936E7F6E5F7F4F8F4F9F4FAF4FB1E03ED0B4E03CD0670F781F891F9A1FDF
:20644000A11D680F791F8A1F911DA11D6A0F711D811D911DA11D20D009F468943F912AE086
:20646000269F11243019305D3193DEF6CF010895462F4770405D4193B3E00FD0C9F7F6CFB3
:20648000462F4F70405D4A3318F0495D31FD4052419302D0A9F7EACFB4E0A695979587952A
:2064A00077956795BA95C9F700976105710508959B01AC010A2E069457954795379527954A
:2064C000BA95C9F7620F731F841F951FA01D08952F923F924F925F926F927F928F929F9231
:2064E000AF92BF92CF92DF92EF92FF920F931F93CF93DF93CDB7DEB7CA1BDB0B0FB6F894C9
:20650000DEBF0FBECDBF09942A88398848885F846E847D848C849B84AA84B984C884DF808A
:20652000EE80FD800C811B81AA81B981CE0FD11D0FB6F894DEBF0FBECDBFED0108951DE048
:20654000C5E4DDE004C0FE010E946F2F2196C634D107C9F7F894FFCFFEFFFFFFFFFFFFFF38
:20656000F401FF0100000053454E44204F4B00000000008813983A307560EA0102020202DD
:20658000FF6572726F72006275737900C40920033075C409B004401F2003DC05DC0528236A
:2065A000B80B303132333435363738394142434445460000000000020F620E8F0E540FC035
:2065C0000E9E0EB20E000000008D0F620E20108C0FE90FFF0F740F0D0A002B4950442C0096
:2065E0005749464900474F5420495000444953434F4E4E4543540062757379002B43574A0D
:2066000041503A004552524F52006E6F2061700041542B006E6F206368616E6765002B43C6
:20662000574C41503A0033465F333032006E6F20697000414C524541004C494E4B4544008D
:20664000434C4F53454400556E6C696E6B00554E4C494E4B006C696E6B206973206E6F7423
:206660002076616C69640053454E44204F4B0053454E44204641494C00302E302E302E3056
:2066800000442C2A2C25752C25752C00442C25732C25732C00503100532C25752C25732C26
:2066A00025732C256C752C25732C25732C00532C25752C25732C25732C256C752C25732C99
:2066C00000412C25752C256325632C25752C0000FFFFFFFFFFFFFFFFFFFFFFFFFFFFFFFF95
:2066E000FFFFFFFFFFFFFFFFFFFFFFFFFFFFFFFFFFFFFFFFFFFFFFFFFFFFFFFFFFFFFFFFBA
:20670000FFFFFFFFFFFFFFFFFFFFFFFFFFFFFFFFFFFFFFFFFFFFFFFFFFFFFFFFFFFFFFFF99
:20672000FFFFFFFFFFFFFFFFFFFFFFFFFFFFFFFFFFFFFFFFFFFFFFFFFFFFFFFFFFFFFFFF79
:20674000FFFFFFFFFFFFFFFFFFFFFFFFFFFFFFFFFFFFFFFFFFFFFFFFFFFFFFFFFFFFFFFF59
:207E0000112484B714BE81FFF0D085E08093810082E08093C00088E18093C10086E08093FC
:207E2000C20080E18093C4008EE0C9D0259A86E020E33CEF91E0309385002093840096BBAD
:207E4000B09BFECF1D9AA8958150A9F7CC24DD2488248394B5E0AB2EA1E19A2EF3E0BF2E79
:207E6000A2D0813461F49FD0082FAFD0023811F0013811F484E001C083E08DD089C0823404
:207E800011F484E103C0853419F485E0A6D080C0853579F488D0E82EFF2485D0082F10E0A0
:207EA000102F00270E291F29000F111F8ED068016FC0863521F484E090D080E0DECF84364D
:207EC00009F040C070D06FD0082F6DD080E0C81680E7D80618F4F601B7BEE895C0E0D1E0ED
:207EE00062D089930C17E1F7F0E0CF16F0E7DF0618F0F601B7BEE89568D007B600FCFDCF1A
:207F0000A601A0E0B1E02C9130E011968C91119790E0982F8827822B932B1296FA010C016F
:207F200087BEE89511244E5F5F4FF1E0A038BF0751F7F601A7BEE89507B600FCFDCF97BE85
:207F4000E89526C08437B1F42ED02DD0F82E2BD03CD0F601EF2C8F010F5F1F4F84911BD0B8
:207F6000EA94F801C1F70894C11CD11CFA94CF0CD11C0EC0853739F428D08EE10CD085E9AE
:207F80000AD08FE07ACF813511F488E018D01DD080E101D065CF982F8091C00085FFFCCF0A
:207FA0009093C60008958091C00087FFFCCF8091C00084FD01C0A8958091C6000895E0E68F
:207FC000F0E098E1908380830895EDDF803219F088E0F5DFFFCF84E1DECF1F93182FE3DF47
