:200000000C94780C0C94AF0C0C94AF0C0C94EB1D0C94EB1D0C94EB1D0C94AF0C0C94AF0C58
:200020000C94AF0C0C94AF0C0C94AF0C0C94AF0C0C94AF0C0C94AF0C0C94AF0C0C94AF0CE8
:200040000C94491D0C94AF0C0C94B91D0C94931D0C94AF0C0C94AF0C0C94AF0C0C94AF0C0D
:200060000C94AF0C0C94AF0CEBB094EC9DB4ED8AB8EBA5BC20EB8498EC96B420EBB284EB5A
:20008000A0B8EB8BA4005B44524F502D4F56465D20ECA484EC9DB42000EBB094EC9DB4EDFF
:2000A0008AB820EBB284EBA6BC202B20ECA48420ECA1B0EBA6BD20ECB488EAB8B0ED999492
:2000C000005B4C41444445525D2031EB8BA820ECA1B0ECB9983A20EC8B9CEBA6ACEC96BCCB
:2000E00020EB939CEBA088EC9DB82000ECB48820EBB0B1EC98A4ED9484EBA19C20EB909836
:20010000ED9280EC9DB4ED959CEB8BA428ECA285ECB0A9EC97AD29005B4C41444445525D2E
:20012000202020EB8C80EC8BA02034EB8BA820ECA1B0ECB998EBA5BC20005B4C4144444524
:20014000525D202020ED9584EC9A9420EBB680ED92883A20EBA19CEC9AB0EC82ACEC9DB419
:20016000EB939C204D4F5346455420EC8AA4EC9C84ECB99828EC98883A20324E373030301F
:200180002F414F33343030202B2031306B29005B4C41444445525D20E29AA035EB8BA82066
:2001A000EBAFB8EC8BA4ED96893A20ECA084EC9B9020EC9EACED88ACEC9E85EC9D80202A6C
:2001C0002AEBB680ED928820EBAFB8EBB3B4EC9CA0EBA19C20EBAFB8EAB5ACED98842A2A9F
:2001E000EC9DB4EB8BA400ECB48820EC89ACEAB3A02041542B52535420EBA78C20EB9098B8
:20020000ED9280EC9DB4ED959CEB8BA4005B4C41444445525D202020ECA780EAB888EC9DE0
:200220008020005B4C41444445525D202020E2869220556E6F20413220EBA5BC2045535007
:2002400020EC9D982052535420EC979020EBACBCEBA6ACEAB3A0204553505F5253545F570E
:200260004952454420EBA5BC203120EBA19C20EBB094EABF9420EB8BA4EC8B9C20EAB5AC11
:20028000EC9B8CEB9DBC005B4C41444445525D20E29AA034EB8BA820EBAFB8EC8BA4ED9605
:2002A000893A20ED9598EB939CEC9BA8EC96B420EBA6ACEC858BEC84A0EC9DB420EBB0B0B1
:2002C000EC84A0EB9098ECA78020EC958AEC9598EB8BA4284553505F5253545F574952458C
:2002E000443D302900ECB48820EC89ACEAB3A02041542B5253542028EBAAA8EB938820EC0E
:20030000868CED9484ED8AB820EBA6ACEC858B29005B4C41444445525D2033EB8BA820EC34
:20032000A1B0ECB9983A2000ECB48820EC89ACEAB3A02041542B435751415020EBA19C206B
:20034000EAB2B0ED95A9EC9D8420EBAA85EC8B9CECA081EC9CBCEBA19C20EB818AEC9D8034
:2003600020EB92A420EB8BA4EC8B9C20EBB699EB8A94EB8BA4005B4C41444445525D2032BC
:20038000EB8BA820ECA1B0ECB9983A2000EB8BA8005B4C41444445525D20E28691E28691B7
:2003A00020EB8BA820EC8381EC8AB920E2869220005B4C41444445525D20E286912033EBCB
:2003C0008BA82841542B5253542920ECA781ED968920E2809420415420EAB384ECB8B5EC4F
:2003E0009DB420EC9EA0EAB2BCEC9CBCEBA9B420EC9584EB9E9820EB8BA8EC9D8020EC9D48
:2004000098EBAFB8EAB08020EC9786EB8BA400ED9A8C20EB8884ECA0812900EB8BA82800EF
:2004200020C2B720ED9884EC9EAC2000EC9786EC9D8C00ED9A8C20C2B720EAB2B0ED95A943
:20044000EC9CA0ECA78020007320C2B720EC97B0EC868D2000292043574A4150EC868CEC1B
:200460009A94200043574A4150204641494C00415420EAB384ECB8B520EC9EA0EAB98000E1
:2004800043574A415020EBACB4EC9D91EB8BB5005B4C41444445525D20EC8BA4ED8CA8284F
:2004A000005B4C41444445525D2031ECB48820EC9588EC979020EB93A4EC96B4EC98A8205F
:2004C000ECA491EBB3B520EC8BA4ED8CA820EC8BA0ED98B820E2809420EC84B8ECA7802047
:2004E000EC958AEB8A94EB8BA4005B54582D44524F505D20005B54585D2000EBB094EC9DAC
:20050000B4ED8AB8EBA19C20EC8AA4ED8AB8EBA6BC20EBB3B5EAB5AC28EC849CEBB284EB1C
:200520008A9420EC9DB420ECA484EC9D8420EBB284EBA6B0EB8BA429005B54582D5245531C
:20054000594E435D20ED9484EBA1ACED9484ED8AB820EB8693ECB9A820E2869220EB8D940C
:20056000EBAFB820005B54582D52454A4543545D2043495053454E4420EAB1B0EBB68028E1
:200580004552524F522920E2809420EB8D94EBAFB8EBA5BC20EB84A3ECA78020EC958AEB6D
:2005A0008A94EB8BA4005B54582D425553595D2045535020EAB08020EBB094EC8198EB8B23
:2005C000A428EAB1B0EBB6802920E2809420EC8BA4ED8CA8EBA19C20EC84B8ECA78020ECB9
:2005E000958AEB8A94EB8BA42E20EB8BA4EC9D8C20ECA3BCEAB8B0EC979020EB8BA4EC8BBB
:200600009C20EBB3B4EB82B8EB8BA4000D0A0041542B43495053454E443D005B54582D57E8
:200620004149545D20E29885E2988520543220ECB488EAB3BC20E280942053454E44204F4B
:200640004B20EAB08020EB819DEB82B420EC958820EC98A8EB8BA420E2869220EBA781ED02
:2006600081ACEBA5BC20EB8BA4EC8B9C20EC84B8EC9AB4EB8BA4005B54582D574149545D52
:2006800020EC959E20ECA084EC86A1EC9D982053454E44204F4B20EBA5BC20EC9584ECA78F
:2006A0008120EBAABB20EBB4A4EB8BA420E2809420EC9DB4EBB28820ECA3BCEAB8B0EB8A02
:2006C0009420EAB1B4EB8488EB9BB4EB8BA4005B54582D574149545D20E298852054312022
:2006E000ECB488EAB3BC20E2809420EAB7B8EB9E98EB8F8420EAB384EC868D20EAB8B0EB2E
:200700008BA4EBA6B0EB8BA428EB9190EB93A4EAB8B0ECA78020EC958AEB8A94EB8BA4291D
:20072000005B41434B515D20EAB080EB939D20ECB0B820E2809420EAB080EC9EA520EC98F5
:20074000A4EB9E98EB909C20EBB3B4EBA5982041434B20EBA5BC20EBB284EBA6B0EB8BA42C
:20076000005B434B53554D204E475D20005B42414420534C4F545D207269643D0020E28664
:2007800092206F636375706965643D005B53494D5D20ED959C20EAB1B8EC9D8C3A20005B02
:2007A00053494D5D20EBB094EABF8020EC8B9CEBAEAC20ECB9B8EC9DB420EC9786EB8BA406
:2007C00020E2869220726573756C743D35005B424144204649454C44535D207269643D00DC
:2007E0005B445550207269645D20005B4E45545D20E298852045535020EAB0802049502000
:20080000EBA5BC20EC9E83EC9788EB8BA420E2809420EBAAA8EB938820EBA6ACEC858BEC7C
:200820009CBCEBA19C20EBB3B8EB8BA42E20EB8884ECA08120EC82ACEAB1B42000ED9A8C9A
:2008400020EC97B0EC868D20EC8BA4ED8CA820E2869220EC98A4ED9484EB9DBCEC9DB820DE
:20086000ECA084ED99982E20EB82A1EC9D8020EC868CECBC93EBB680ED84B020EB8BABEB1E
:200880008A94EB8BA428434950434C4F534529005B4E45545D20ECA084EC86A120005B4ED2
:2008A00045545D20ECA084EC86A120EC8BA4ED8CA82000EB81940020C2B72036EB8BA8284E
:2008C000EC9B8CECB998EB8F85292000EBAFB8EBB0B0EC84A020E2809420413220EBA5BCBE
:2008E000204553502052535420EC979020EBACBCEBA6ACEAB3A0204553505F5253545F57A1
:20090000495245443D31005B424F4F545D20EC82ACEB8BA4EBA6AC2034EB8BA82845535046
:2009200020ED9598EB939CEBA6ACEC858BEC84A0292000EC9B8CECB998EB8F8520002A2A0E
:20094000EBB88CEB9DBCEC9AB4EC9584EC9B8328ECA084EC9B90EBB680ECA1B1292A2A2090
:2009600000EC99B8EBB680EBA6ACEC858B28EBB284ED8ABC2F445452292000ECA084EC9B6B
:2009800090EC9DB8EAB08028504F52292000EBB688EBAA852028EBB680ED8AB8EBA19CEB1C
:2009A0008D94EAB080204D4355535220EC9D8420ECA780EC9AB0EAB3A020EB8498EC96B422
:2009C000EC9994EB8BA429005B424F4F545D20EBA6ACEC858B20EC9B90EC9DB83A20000A9A
:2009E0005B5041524B494E47204E4F44455D2070726F746F207631202F20313020736C6F94
:200A00007473202F206465763D5031005B4C41444445525D2034EB8BA83A2045535020EB60
:200A2000A6ACEC858B20ED95B4ECA09C20E2809420EBB680ED8C85EC9D8420EAB8B0EB8BA0
:200A4000A4EBA0B8EB8BA4EAB0802043574D4F444520EBB680ED84B020EB8BA4EC8B9C00ED
:200A60005B4E45545D2031302043575141502028EAB2B0ED95A920ED95B4ECA09C20E280FB
:200A80009420EC82ACEB8BA4EBA6AC2032EB8BA8290041542B43575141500D0A005B4E4557
:200AA000545D20392043574C41502028ECA3BCEBB38020415020EBAAA9EBA19D20E2809496
:200AC00020ECA784EB8BA8290041542B43574C41500D0A005B4E45545D2038204357434F07
:200AE000554E5452592028ECB184EB84902031322F313320EC9AB0ED9A8C20EC8B9CEB8FC0
:200B00008420E2809420ECA784EB8BA8290041542B4357434F554E5452595F4445463D3094
:200B20002C224B52222C312C31330D0A005B4E45545D203720474D522028ED8E8CEC9BA82A
:200B4000EC96B420ED8C9020E2809420ECA784EB8BA8290041542B474D520D0A005B4E45F7
:200B6000545D203620434950434C4F53452028EB82A1EC9D8020EC868CECBC9320EB8BAB03
:200B8000EAB8B0290041542B434950434C4F53450D0A005B4E45545D20352043495053541A
:200BA0004152540041542B43495053544152543D22544350222C223139322E3136382E33A4
:200BC000352E3831222C393939310D0A005B4E45545D2034204349504D55583D300041541D
:200BE0002B4349504D55583D300D0A005B4E45545D20332043494653522028495020EBA556
:200C0000BC20EC8BA4ECA09CEBA19C20EBB09BEC9598EB8A94EAB080290041542B43494640
:200C200053520D0A005B4E45545D20322043574A41502028EC9D91EB8BB5EAB98CECA780A3
:200C400020ECB59CEB8C80203330ECB48820EAB8B0EB8BA4EBA6B0EB8BA4290041542B4382
:200C6000574A41503D22534B5F5769466947494741353044435F322E3447222C2232303136
:200C800031303530373936220D0A005B4E45545D20312043574D4F44453D310041542B436F
:200CA000574D4F44453D310D0A005B4E45545D2030205253540041542B5253540D0A00ED6E
:200CC0009A8C20EC8BA4ED8CA820E286922041542B52535420EBA19C20ECA084ECB2B420B5
:200CE000ECB488EAB8B0ED999428EC82ACEB8BA4EBA6AC20EC8381EC8AB929005B4E45541D
:200D00005D20434950434C4F534520005B4E45545D2043494653522033ED9A8CEC9790EB4A
:200D20008F8420495020EAB08020EC9786EB8BA420E286922043574A415020EBB680ED8409
:200D4000B020EB8BA4EC8B9C005B4E45545D2043494653522033ED9A8C20EC868CECA784C5
:200D600020E2809420EAB7B8EB9FACEB8298206275737920EAB1B0EBB680EC9880EB8BA41C
:200D80002E20495020EC868CEC8BA4EBA19C20EC84B8ECA78020EC958AEB8A94EB8BA40062
:200DA0005B4E45545D20495020EAB08020EC9786EB8BA420E28692204349505354415254BA
:200DC00020EBA5BC20EBB3B4EB82B4ECA78020EC958AEAB3A02043574A415020EBA19C209C
:200DE000EB9098EB8F8CEC9584EAB084EB8BA400EB8BA829005B4C41444445525D20E2866A
:200E000093203330ECB48820EC97B0EC868D20EC98A8EB9DBCEC9DB820E2809420EC82AC21
:200E2000EB8BA4EBA6ACEBA5BC2030EB8BA8EC9CBCEBA19C20EB82B4EBA6B0EB8BA4202851
:200E4000ECA781ECA08420005B41434B515D20ECBA90EC8B9CEC9790EC849C20EBB080EBC8
:200E6000A0A4EB829820EBA78CEB93A420EC889820EC9786EB8BA420E2809420EBB284EB18
:200E8000A6B0EB8BA40020723D300020723D3100206475653D002061636B3D002074783D73
:200EA000005B534C4F545D206E3D005D20E2869220EBA781ED81ACEBA5BC20EB8BA4EC8BAC
:200EC0009C20EC84B8EC9AB4EB8BA400202F20455350EBA6ACEC858B2000202F2053454ED5
:200EE000444641494C2000202F2053454E444F4BEC8381ED959C20002920C2B720EB888438
:200F0000ECA0815BEAB1B4EB8488EB9C802000202F20EAB1B0EBB6802000202F20EBACB447
:200F2000EC9D91EB8BB520006D7320EB8F99EC958820ED959C20ECA484EB8F8420EBAABB50
:200F400020EB8298EAB094EB8BA420286275737920005B4E45545D20E2988520ECA095EC0E
:200F6000A78020EAB090ECA7803A2000206F6E6C696E653D0020736B69703D0020636B733C
:200F8000756D6E673D002073736F76663D0020736D6973733D00206F6F773D0020736C6F23
:200FA000743D002061636B64726F703D002061636B713D0020737475636B3D00206F6B744D
:200FC0006F3D002073656E646661696C3D0020726573796E633D00206573707273743D00D3
:200FE0002064726F703D005B434E545D2075703D0073002075703D00206C696E65733D00D3
:201000002072783D00205B455350EBA6ACEC858BEC9CA0ECA780ECA4915D0020EC82ACEB0F
:201020008BA4EBA6AC3D005B444941475D206F66666C696E6520737465703D00ED9A8C20EB
:2010400028EC849CEBB284EC9D982027EBB284EBA6B0ECA4842720EAB3BC20EBA79EEC95EC
:2010600084EC95BC20ED959CEB8BA42900204220C2B720ED9484EBA1ACED9484ED8AB82082
:20108000EC9EACEB8F99EAB8B020005B52414D5D20ECB59CECA08020EC97ACEC9CA02000FD
:2010A00000000000240027002A000000000800020100000304070000000000000000222060
:2010C00028005C780022005B4E45545D20EC86A1EC8BA020EC98A4EBA59820EC9D91EB8BE9
:2010E000B528EBA19CEAB7B8EBA78C2C20ECB9B4EC9AB4ED84B0EB8A942073656E644C69EC
:201100006E6520EC9DB420EC84BCEB8BA4293A20005B4E45545D20E298852053454E44208E
:201120004641494C20E2809420ED8E98EC9DB4EBA19CEB939CEAB98CECA78020EC8DBCEB49
:201140008A94EB8DB020ECA084EC86A1EC9DB420EC8BA4ED8CA8ED9688EB8BA42E20EC8B83
:20116000A4ED8CA8EBA19C20EC84BCEB8BA4005B4E45545D206C696E6B206973206E6F7442
:201180002076616C696420E2869220ECA689EC8B9C20EC98A4ED9484EB9DBCEC9DB82C2099
:2011A000EB82A1EC9D8020EC868CECBC9320EB8BABEAB8B028434950434C4F534529005B2E
:2011C0004E45545D206F6E6C696E652028434F4E4E45435429202B20ECBA90EC8B9C20EBEC
:2011E000B984EC9B80005B4E45545D206F6E6C696E652028414C524541445920434F4E4ECF
:20120000454354454420C2B720ECB488EAB8B020EAB2BDED95A929005B4E45545D20414C1D
:20122000524541445920434F4E4E454354454420E2809420EB82A1EC9D8020EC868CECBC73
:201240009320EC9D98EC8BAC20ECA491EC9DB4EBAF80EBA19C20EBAFBFECA78020EC958A20
:20126000EB8A94EB8BA420E2869220434950434C4F5345005B4E45545D206E6F206970200A
:20128000E2809420495020EAB08020EC9786EB8BA42E20434950535441525420EC9EACEC28
:2012A0008B9CEB8F84EBA5BC20ECA091EAB3A02043574A415020EBA19C20EB9098EB8F8C2D
:2012C000EC9584EAB084EB8BA4005B4E45545D202020322E3447487A20EC9DB8EAB080209A
:2012E0002F20ECA084ED8C8CEAB08020EB8BBFEB8A94EAB080202F205353494420ECB2A0F8
:20130000EC9E90EAB08020EBA79EEB8A94EAB080EBA5BC20EBB490EB9DBC2E005B4E4554D7
:201320005D20EC84A4ECA095ED959C205353494420EAB08020EBAAA9EBA19DEC9790202A6C
:201340002AEC9786EB8BA42A2A20E2869220EBB984EBB28820EBACB8ECA09CEAB08020ECA8
:201360009584EB8B88EB8BA42E005B4E45545D20202032EC889CEC9C843A20EBB984EBB0A4
:2013800080EBB288ED98B820202033EC889CEC9C843A20504D46283830322E313177292F5E
:2013A0005750413320ECA084ED9998EBAAA8EB939C20EB8184EAB8B0005B4E45545D20202C
:2013C0002031EC889CEC9C843A20EC9C8420ECA484EC9D98202A2AEBA788ECA780EBA78929
:2013E00020EC88ABEC9E9028ECB184EB8490292A2A20EBA5BC20EBB490EB9DBC2E2031321F
:201400002F313320EC9DB4EBA9B420EAB3B5EC9CA0EAB8B0EBA5BC20312F362F313120EB0A
:20142000A19C20EBB094EABF94EB9DBC005B4E45545D20EC84A4ECA095ED959C205353497E
:201440004420EAB08020EBAAA9EBA19DEC9790202A2AEC9E88EB8BA42A2A20E28692204105
:201460005020EB8A9420EBB3B4EC9DB8EB8BA42E20EAB2B0ED95A9EBA78C20EAB1B0EBB637
:2014800080EB909CEB8BA42E005B4E45545D20E29480E2948020415020EC8AA4ECBA94207D
:2014A000ED8C90ECA09520E29480E29480E29480E29480E29480E29480E29480E29480E250
:2014C0009480E29480E29480E29480E29480E29480E29480E29480E29480E29480E294805C
:2014E000E29480E29480E29480E29480E29480E29480E29480005B4E45545D202020E286CB
:201500009220EAB3B5EC9CA0EAB8B020ECB184EB8490EC9D8420312F362F313120EBA19C71
:2015200020EBB094EABEB8EB8A9420EAB283EC9DB420ED9995ECA09520ED95B4EBB295ECA7
:201540009DB4EB8BA4005B4E45545D204357434F554E54525920EBAFB8ECA780EC9B9028CF
:201560004552524F522920E2809420EC9DB420ED8E8CEC9BA8EC96B4EBA19CEB8A9420EC7C
:20158000B184EB84902031322F313320EC9D8420ECBD94EB939CEBA19C20EBAABB20EC9722
:2015A000B0EB8BA42E005B4E45545D20E29885204357434F554E54525920EAB08020EBA89A
:2015C000B9EC9788EB8BA420E2809420EAB79CECA09CEB8F84EBA994EC9DB820317E3133F8
:2015E0002E20ECB184EB849020313220EAB2B0ED95A9EC9DB420EC97B4EBA0B8EC9D84205F
:20160000EC889820EC9E88EB8BA4005B4E45545D204349504D55583D3020ECA081EC9AA914
:20162000EB90A820E28692204349505354415254005B4E45545D20E2988520495020ED99C6
:2016400095EBB3B43A20005B4C41444445525D2032EB8BA83A20EAB2B0ED95A920ED95B44E
:20166000ECA09C20EC9984EBA38C20E2869220EAB9A8EB8197ED959C20EC8381ED839CEC51
:201680009790EC849C2043574A415020EC9EACEC8B9CEB8F84005B4E45545D2043574A4137
:2016A00050204F4B20E2809420EAB2B0ED95A9EB9090EB8BA42E20495020EBA5BC20EC8B64
:2016C000A4ECA09CEBA19C20EBB09BEC9598EB8A94ECA78020434946535220EBA19C20ED9F
:2016E0009995EC9DB8ED959CEB8BA400ED9A8C2028EAB5ACED989520ED8E8CEC9BA8EC96AB
:20170000B4EB8A9420EC82ACEC9CA0EBA5BC20ECA3BCECA78020EC958AEB8A94EB8BA42969
:20172000005B4E45545D20E298852043574A415020EC8BA4ED8CA82000ECA091EC868D209E
:20174000EC8BA4ED8CA800EAB7B8205353494420EC9D9820415020EBA5BC20EBAABB20ECC7
:20176000B0BEEC9598EB8BA400EBB984EBB080EBB288ED98B8EAB08020ED8B80EBA0B8EBC3
:201780008BA400ECA091EC868D20EC8B9CEAB084ECB488EAB3BC005B4E45545D20E298856E
:2017A0002043574A415020EC8BA4ED8CA820EC82ACEC9CA03A20005B4E45545D2062757373
:2017C0007920E280942045535020EAB08020EC959E20EBAA85EBA0B9EC9D8420ECB298EB2D
:2017E000A6AC20ECA491EC9DB4EB8BA42E20ECA084ECA784ED9598ECA78020EC958AEB8ABD
:2018000094EB8BA4005B4E45545D205749464920444953434F4E4E45435420E280942049A3
:201820005020EBA5BC20EC9E83EC9788EB8BA4005B4E45545D205749464920474F54204939
:201840005020E2809420495020ED9995EBB3B42E2039ECB48820EB8C80EAB8B0ECB0BDEC7F
:201860009D8420EB819DEAB98CECA78020EAB8B0EB8BA4EBA6ACECA78020EC958AEAB3A098
:2018800020EBB094EBA19C20EB8BA4EC9D8C20EB8BA8EAB384EBA19C006D73005B534C4FD2
:2018A000542D4F4F575D202B005B41545D20000000000023002600290000000000250028DE
:2018C000002B0004040404040404040202020202020303030303030102040810204080019F
:2018E000020408102001020408102000911E0C2911241FBECFEFD8E0DEBFCDBF84B7809388
:201900004A0514BE0FB6F894A89580916000886180936000109260000FBE12E0A0E0B1E079
:20192000E8E1FBE502C005900D92AA36B107D9F725E0AAE6B2E001C01D92AA34B207E1F79A
:201940001CE0C7E7DCE004C02197FE010E944F2AC637D107C9F70E943C1F0C947F2D0C940D
:201960000000833081F028F4813099F08230A9F008958730A9F08830C9F08430B1F48091DA
:2019800080008F7D03C0809180008F7780938000089584B58F7784BD089584B58F7DFBCF05
:2019A0008091B0008F778093B00008958091B0008F7DF9CFCF93DF9390E0FC01E952F74EAA
:2019C00024918D53974EFC0184918823C9F090E0880F991FFC01E056FF4EA591B491FC0160
:2019E000E754F74EC591D49161110DC09FB7F8948C91209582238C938881282328839FBF98
:201A0000DF91CF910895623051F49FB7F8943C91822F809583238C93E8812E2BEFCF8FB782
:201A2000F894EC912E2B2C938FBFEACF2FB7F8946091FF03709100048091010490910204D7
:201A40002FBF0895EF92FF920F931F93CF93DF938C017B01D0E0C0E0F701EC0FFD1F649164
:201A6000662361F0D801ED91FC910190F081E02DC8010995892B11F02196EECFCE01DF91CA
:201A8000CF911F910F91FF90EF900895AF92BF92CF92DF92EF92FF920F931F93CF93DF934D
:201AA0006C017B018B01040F151FEB015E01AE18BF08C017D10759F06991D601ED91FC91BE
:201AC0000190F081E02DC6010995892B79F7C501DF91CF911F910F91FF90EF90DF90CF90AC
:201AE000BF90AF900895FC01538D448D252F30E0842F90E0821B930B541710F0CF960895DE
:201B000001970895FC01918D828D981761F0A28DAE0FBF2FB11D5D968C91928D9F5F9F737F
:201B2000928F90E008958FEF9FEF0895FC01918D828D981731F0828DE80FF11D858D90E03E
:201B400008958FEF9FEF0895FC01918D228D892F90E0805C9F4F821B91098F7399270895ED
:201B60008EE894E00E94A40D21E0892B09F420E0822F089580E090E0892B29F00E94B00D2C
:201B800081110C9400000895FC01A48DA80FB92FB11DA35ABF4F2C91848D90E001968F73F9
:201BA0009927848FA689B7892C93A089B1898C91837080648C93938D848D981306C0028882
:201BC000F389E02D80818F7D80830895EF92FF920F931F93CF93DF93EC0181E0888F9B8D08
:201BE0008C8D98131AC0E889F989808185FF15C09FB7F894EE89FF896083E889F989808142
:201C00008370806480839FBF81E090E0DF91CF911F910F91FF90EF900895F62E0B8D10E044
:201C20000F5F1F4F0F731127E02E8C8D8E110CC00FB607FCFACFE889F989808185FFF5CFAF
:201C4000CE010E94C40DF1CFEB8DEC0FFD2FF11DE35AFF4FF0829FB7F8940B8FEA89FB8965
:201C600080818062CFCF682F8EE894E00C94E60DCF93DF93EC01888D8823B9F0AA89BB892E
:201C8000E889F9898C9185FD03C0808186FD0DC00FB607FCF7CF8C9185FFF2CF808185FF29
:201CA000EDCFCE010E94C40DE9CFDF91CF91089520911E0330911F032817390771F4909147
:201CC0001C0380911D03981741F0E0911C03F0E0E452FD4F808190E008958FEF9FEF08953B
:201CE0000895EF92FF920F931F93CF93DF93DC015C96ED90FC905D97E114F10479F481E089
:201D000090E013969C938E93129790E080E0DF91CF911F910F91FF90EF9008955196ED91B1
:201D2000FC91529750968C915097982F90950FB75E962C915E97122F127021FD6095F89489
:201D40002081112319F1282B2083E7012197F1F728E0462F50E0308160FF1AC0382B308379
:201D6000E7012197F1F7BA0175956795215089F7112381F08081892380830FBF5C968D91F6
:201D80009C910197F1F781E090E0C1CF2923DCCF3923E5CF9081892BEFCF20911E03309118
:201DA0001F032817390761F480911D0320911C0390E0805C9F4F821B91098F73992708955C
:201DC00090E080E0089520911E0330911F0328173907B9F490911C0380911D03981789F01C
:201DE000E0911C03F0E0E452FD4F808120911C0330E02F5F3F4F2F73332720931C0390E0C6
:201E000008958FEF9FEF089590E080E00895282FDB01FC0191918D913FE9390F3A3108F4C8
:201E200090523FE9380F3A3108F48052981306C08E2F821B841770F381E0089580E0089554
:201E4000AC01FB0130E020E0CA01022E02C0969587950A94E2F790E380FD91E391932F5F38
:201E60003F4F2A30310581F7FB011286089510927E0410926A0410926904109268041092A8
:201E8000DC031092BB038091E3039091E4038F3F980729F001969093E4038093E30381E083
:201EA0008093780486E0809377040E94160D6093730470937404809375049093760410922A
:201EC0000901109208010895CF93DF93382FDC01E0E02A2F231B261718F42D91E227F9CF69
:201EE000DC01A60FB11DCE2FD0E084E0D595C7958A95E1F7CE5BDE4F88818C93EF70F0E007
:201F0000EE5BFE4F808111968C93119712961C9282E0860FDF91CF910895CF93DF93EB0142
:201F2000809377040E94160D60937304709374048093750490937604D0930901C093080177
:201F4000DF91CF910895E0910404AE2FB0E035E0E39FF0011124E557FC4F918380836283EE
:201F6000438324831196A770BB27A093040480910304883018F48F5F809303040895BC01DB
:201F8000409103042BE833E090E0491771F02B5F3F4FF90135970190F081E02DE617F7072A
:201FA00011F4892F08959F5FF0CF8FEF08959091CD03992391F021E030E002C0220F331F6B
:201FC0008A95E2F78091CB039091CC032823392381E0232B19F080E0089581E00895FB01E4
:201FE00001900020E9F73197AF01461B570BDC01ED91FC910280F381E02D099467E771E0EE
:202000008EE894E00C94EF0FCF93DF93BC018EE894E00E94220DEC010E94FE0F8C0F9D1FF9
:20202000DF91CF9108958F929F92AF92BF92EF92FF920F931F93CF93DF93CDB7DEB7A197C4
:202040000FB6F894DEBF0FBECDBF7C01FA01CB0119A2223008F42AE08E010F5D1F4F822EC9
:20206000912CB12CA12CBF01A50194010E94FE29F901CA016A300CF5605DD8016E938D01B0
:20208000232B242B252B79F790E080E0109721F0BD01C7010E94EF0FA1960FB6F894DEBF10
:2020A0000FBECDBFDF91CF911F910F91FF90EF90BF90AF909F908F900895695CDECF2AE0A4
:2020C0000C941310482F50E070E060E02AE08EE894E00C94131080916A048F3F19F08F5F0B
:2020E00080936A046EE978E08EE894E00E94220D80916A040E9462108FE20E94330E83E0AB
:202100000E9462100E94FE0F80916A04833080F060E978E08EE894E00E94220D80916A047F
:202120000E9462108DE398E00E9404100C94370F0895AB0170E060E02AE00C941310CF93FF
:20214000DF93BC018EE894E00E949910EC010E94FE0F8C0F9D1FDF91CF91089581E0809347
:202160007B048091E1039091E2038F3F980729F001969093E2038093E1036BEE77E08EE8A3
:2021800094E00E94220D8091E1039091E2030C949F10CF92DF92EF92FF92CF93DF930E9456
:2021A000160D6B017C01D0E0C0E00E94160D6C197D098E099F09683771058105910578F417
:2021C0008BE295E00E94CD0E892B79F38BE295E00E94E30ECF3FDC0799F32196F1CF109275
:2021E000CD021092CC021092860361EC70E08EE894E00E94220DBE018EE894E00E94991029
:2022000089E990E0DF91CF91FF90EF90DF90CF900C9404108F929F92AF92BF92CF92DF92C6
:20222000EF92FF92CF93DF93C82F0E94160D6B017C018091D202882319F18091CE02909177
:20224000CF02A091D002B091D102A7019601281B390B4A0B5B0BDA01C901883E9340A10531
:20226000B10570F481EA94E0DF91CF91FF90EF90DF90CF90BF90AF909F908F900C94041029
:2022800081E08093D202C092CE02D092CF02E092D002F092D10260E974E08EE894E00E94DF
:2022A000220D60E874E0C13031F06FE674E0C23011F064E674E08EE894E00E94220D65E502
:2022C00074E08EE894E00E94220D8091200390912103A0912203B0912303A7019601281B37
:2022E000390B4A0B5B0BCA01B90128EE822E23E0922EA12CB12CA50194010E94FE29BA0168
:20230000A9018EE894E00E945F1068E474E08EE894E00E94220D809184040E94621063E3CA
:2023200074E08EE894E00E94220D80917F0490918004A0918104B09182040097A105B105E5
:2023400009F45BC0A7019601281B390B4A0B5B0BCA01B901A50194010E94FE29BA01A901F6
:202360008EE894E00E945F1083E70E94330E60E274E08EE894E00E94220D8091EF030E941F
:2023800062106BE174E08EE894E00E94220D8091EE030E9462108FE094E00E94041010921F
:2023A0007F041092800410928104109282048091EF03C23049F5833038F583E08093EF03AA
:2023C0001092EE0381EB93E00E940410809184048230F0F18091790481113AC064EF71E0EB
:2023E00087E0DF91CF91FF90EF90DF90CF90BF90AF909F908F900C948D0F6CE274E08EE89A
:2024000094E00E94220DB3CF9091EE039E3F18F49F5F9093EE03E82FF0E0E55EFE4F2081D0
:202420009091EE03921790F2853080F68F5F8093EF031092EE0361E973E08EE894E00E9485
:20244000220D8091EF030E9462108DE893E0BCCF8091EF03E82FF0E0EE0FFF1FE15FFE4F31
:20246000C081D181823009F445C0F0F48823E1F18130C1F18FE891E00E9404108AE391E0D5
:202480000E94041068E171E08EE894E00E94220DCE0168EE73E00E943B2A8EE894E00E9426
:2024A00099108CEE90E04FC08330E1F1843011F787E892E00E94041083E292E00E94041015
:2024C0006DE072E08EE894E00E94220DCE0168EE73E00E943B2A8EE894E00E94991087EE79
:2024E00091E031C00E94C91010927C046CE271E083E077CF66E773E08EE894E00E94220D3A
:20250000CE0168EE73E00E943B2A8EE894E00E94991088E293E00E94041010928504BE018A
:202520008AE05FCF61E173E08EE894E00E94220DCE0168EE73E00E943B2A8EE894E00E94A8
:20254000991085EE92E00E94041010928504BE0180E047CFCF93DF93D0E0C0E0009731F0FB
:20256000BC018EE894E00E94EF0FEC010E94FE0F8C0F9D1FDF91CF9108956F927F928F9281
:202580009F92AF92BF92CF92DF92EF92FF920F931F93CF93DF93CDB7DEB72E970FB6F8943D
:2025A000DEBF0FBECDBFDC010D900020E9F79D0121503109281B390B122F4FEF420F4F3389
:2025C00008F062C0FC014081423539F0433429F0443519F04D3409F057C0DC01FC0170E0B6
:2025E00060E04FEF5FEF01910C3209F4AB016F5F7F4F6117C0F38C014F3F540781F133278D
:20260000241B350B2330310551F5FC01E40FF51F818120ED280F2A3030F09FEB980F9630B1
:20262000F0F429EC280F928180ED890F8A3030F08FEB890F863098F489EC890F4F5FF80170
:2026400090E03E2F301B341718F431919327F9CF40E1249F90011124822B891751F180916D
:20266000D0039091D1038F3F980729F001969093D1038093D00361E677E08EE894E00E946E
:20268000220DC8010E94AA122E960FB6F894DEBF0FBECDBFDF91CF911F910F91FF90EF90AB
:2026A000DF90CF90BF90AF909F908F907F906F900895CE0101969C012B54354040910601F6
:2026C000509107012417350720F430930701209306011A830983992493942D91222309F4F4
:2026E00046C22C32D1F7FD0131971082E6E0E91558F2E92DF0E0EE0FFF1FE80FF91FB18302
:20270000A0839394EACFF4E516E0812EAF1639F02DE403E0802EA21611F0B4E08B2E42E080
:20272000491508F0B1CFEB81FC81309709F4ACCF8081882309F4A8CFC12CD12C7601119178
:20274000112301F180ED810F8A3008F09DCFAAE0B0E0A70196010E94EB29C12E110FDD0835
:20276000A0E3CA1AD1080D2C000CEE08FF08C60ED71EE81EF91EC114D104B1E0EB06F104D0
:20278000F0F282CF8601C6010E94BF0FB82E87FD18C060EE77E08EE894E00E94220DC601DF
:2027A0000E949F102B2D45E02402F0011124E557FC4F248143816281808191810E94A61CB5
:2027C00063CF8914A1F06EEC77E08EE894E00E94220DC6010E949F1023E04FE36FE3C601C7
:2027E0000E94A30F23E04FE36FE3C601E7CF84E5A812A3C0ED81FE818181811194C0208185
:20280000213469F02434F1F41092CD031092CC031092CB0310928A031092890303C081E0F9
:202820008093CD03EFE3EE2EFFE3FF2ED12C2D2D4E2D6F2DC8010E94A30F2D2D4E2D6F2DBC
:20284000C801BCCF233519F0283509F06CC0AF81B885C984DA84FD0101900020E9F7CF01CA
:2028600003978A179B0709F05EC0FC9011968C913FEC380F353008F056C0F1E4FF1609F448
:202880007FC142E4F4124FC034ED380F233571F4D6018C918053823008F045C011968C915E
:2028A000811141C061E4F62E353010F072E4F72E832F65E00E942F2A51E3E52EE90E8091FB
:2028C000CD038823B9F181E090E002C0880F991F3A95E2F74091CB035091CC03609189037D
:2028E00070918A032335B1F4F6012081482B592B5093CC034093CB03203339F0862B972B7C
:2029000090938A038093890391CF8095909586239723F6CF80959095482359235093CC03D3
:202920004093CB03F4CF2FE3E22E3FE3F32E43E0D42E7DCF94E0D92E7ACFFDE4AF12AEC089
:20294000A090C703B090C8036090870370908803D12CC12C88248394912CEC2C8C2D0E9490
:20296000D70F882309F446C0C4010C2C02C0880F991F0A94E2F79C012A213B21232BD1F1EA
:202980009C0126213721232BA9F5682A792A709288036092870344E082E4D82E4E1510F0DE
:2029A000E1E4DE2E8E2D65E00E942F2A71E3F72EF90E6CE877E08EE894E00E94220D8D2DAB
:2029C0000E94330E8F2D0E94330E6DE777E08EE894E00E94220D809187039091880302C006
:2029E00096958795EA94E2F7817099270E949F10E12C4AC02FEFC21AD20A4AE0C416D10471
:202A000009F0ABCFF12CE12C8E2D0E94D70F8111F394E3948AE0E812F7CFFF2059F10E9411
:202A200074292F2D30E050E040E00E94CC29F62EE12C8E2D0E94D70F8823C1F08FEF8F0DBC
:202A4000F11013C021E030E00E2C02C0220F331F0A94E2F7809187039091880382279327F1
:202A6000909388038093870396CFF82EE3949AE0E912DFCF8FE997E00E940410FFE3FF2E32
:202A8000AFE3DA2EB5E0EB2E2E2D4F2D6D2DC8010E94A30F2E2D4F2D6D2DD2CEED81FE8162
:202AA000DF010D900020E9F7CD0103978E179F0771F481812FEC280F253048F4E080B1E4A7
:202AC000EB16F1F0E2E424ED280FEE16C9F06DE677E08EE894E00E94220DC8010E949F10CA
:202AE0004FE3D42E5FE3E52E63E0F62E2F2D4D2D6E2DC8010E94A30F2F2D4D2D6E2DA0CE79
:202B0000822F65E00E942F2A31E3D32ED90E81E090E002C0880F991F2A95E2F7F2E5AF12B6
:202B200018C02091C9033091CA0328233923FF24F394232BD9F62091C7033091C803AC0190
:202B400042235323822B932B452B59F092E0F92ECDCF809590952091C7033091C80382235B
:202B600093239093C8038093C703F12CBFCFE981FA81A08022E5A212C6CDA5E08A2ECFCDFD
:202B8000233509F095CE84CEBF92CF92DF92EF92FF920F931F93CF93DF9380918A04909112
:202BA0008B04A0918C04B0918D040196A11DB11D80938A0490938B04A0938C04B0938D04E6
:202BC00069EA78E18EE894E00E94220D05E014E0F80101900020E9F78F0106501440B02E13
:202BE00065EC70E18EE894E00E94220D95E0E92E94E0F92E6701D0E0DB1528F5F601C191E3
:202C00006F0180EE8C0F8F3528F48C2F0E94330EDF5FF2CF62EC70E18EE894E00E94220D64
:202C2000EC2FF0E084E0F595E7958A95E1F7EE5BFE4F80810E94330ECF70EC2FF0E0EE5B5B
:202C4000FE4F8081E3CF6EEB70E18EE894E00E94220D802F0E94621089E20E94330E0E945C
:202C6000FE0F6AE771E085E094E00E94802AEC01892BE1F1C0908804D0908904F12CE12C1A
:202C8000F8E5CF16F2E0DF06E104F104E0F480918604909187048F3F980729F00196909386
:202CA0008704809386046CE978E18EE894E00E94220DB701A6018EE894E00E945F1089E9B7
:202CC00098E10E9404106AE370E0CE010E945E2A0097D9F10196DF91CF911F910F91FF9088
:202CE000EF90DF90CF90BF900C94BD1244E050E060E871E085E094E00E94722A892B09F018
:202D00004DC065E871E085E094E00E94802A892B31F181E0809385041092840410928304BD
:202D20000E94160D60937F0470938004809381049093820480E398E10E94041080917E046B
:202D400068EC70E0882309F4E3C0DF91CF911F910F91FF90EF90DF90CF90BF9008956CE848
:202D600071E085E094E00E94802A892B71F31092850485E098E10E94041080917E048111E1
:202D8000E4CF10928304DF91CF911F910F91FF90EF90DF90CF90BF900C940A1180917E04BE
:202DA0008111C1C1C0910A01CB3008F0BCC167E971E085E094E00E94802A892BF1F087EB66
:202DC00097E10E94041080910A01833081F491E090937D046CED75E0DF91CF911F910F919E
:202DE000FF90EF90DF90CF90BF900C948D0F9CEF980F923008F0A9CFEDCFC23009F08AC017
:202E000047E050E06CE971E085E094E00E94722A892BA1F567E977E18EE894E00E94220DF1
:202E200080910C04823321F17CF48133A1F085E094E0DF91CF911F910F91FF90EF90DF907F
:202E4000CF90BF900C94AA128333A9F0843379F789E397E102C083E897E1DF91CF911F91E9
:202E60000F91FF90EF90DF90CF90BF900C94041089E697E1F2CF87E497E1EFCF62E272E0F4
:202E800085E094E00E94802A892B41F464EA71E085E094E00E94802A892BD9F0809184044A
:202EA0008A3F18F48F5F80938404109285041092830461E277E18EE894E00E94220D8091F9
:202EC00084040E9462108CEE96E10E94041080E05ACF6AE172E085E094E00E94692A892BC7
:202EE00009F0A4C286E996E10E9404101092840410927C04109283040E94160D60937F0427
:202F00007093800480938104909382046CE271E083E062CFCA3009F56AE172E085E094E048
:202F20000E94692A892B89F064EA71E085E094E00E94802A892B49F46AEA71E085E094E0FC
:202F40000E94802A892B09F471C287E496E10E94041064EF71E082E03FCFC33009F066C281
:202F600043E050E060EB71E085E094E00E94722A892B09F45BC285E094E04AE001C0CD01EB
:202F8000DC012D91222309F443C220532A30B8F734E08530930731F0FC0131972081205376
:202FA0002A3068F3FC0130E090E020E0819150ED580F5A3030F4249F800D112420ED280FB2
:202FC000F5CF911101C0322F8E3211F49F5FEDCF9330A9F6332399F281E080938504109208
:202FE0007C0410927B0410927D0480917F0490918004A0918104B0918204892B8A2B8B2B38
:2030000051F40E94160D60937F0470938004809381049093820461E376E18EE894E00E9441
:20302000220D85E094E00E94AA1268EC70E084E0D3CE883069F56AE172E085E094E00E9453
:20304000692A892BB1F064EA71E085E094E00E94802A892BB1F46BED71E085E094E00E9447
:20306000802A892B09F45FC01092850484E792E14EC086EA95E10E9404106CE271E089E01B
:20308000ABCE86E495E10E94041086EF94E1F3CF893009F747E050E06EEB71E085E094E0E2
:2030A0000E94722A892B69F466EC71E085E094E00E94802A892B09F448CE81E080937A0440
:2030C00044CE6AE172E085E094E00E94692A892B49F064EA71E085E094E00E94802A892BCE
:2030E00009F4B9CF81E08093790489E894E10E94041080917A04882379F08DE294E10E9495
:20310000041089EB93E10E9404108AE693E10E94041068EE73E01FCF8CE193E10E94041035
:203120008AEC92E1F4CF61EE71E085E094E00E94802A892B09F444C06FE871E085E094E0E8
:203140000E94802A892BE1F1809178048823B1F088E192E10E94041086E0809377040E949C
:20316000160D609373047093740480937504909376041092090110920801E7CD81E080939F
:203180007E040E94160D60936F047093700480937104909372040E94160D60936B047093C0
:2031A0006C0480936D0490936E0410926A0410926904109268041092670486EE91E14DCE4B
:2031C000C701F7012081FFEFEF1AFF0A2032C1F32930B1F32053253028F4FC0121812C32AA
:2031E00009F40296FC0101900020E9F73197E81BF90B2E2FE80FF92FF11D222309F45CC0F5
:203200003291303219F03B7F393011F42150F5CF47E06FE871E0273031F0263009F04CC081
:2032200046E067EE71E00E94070F882309F444C0C1E0C0937E040E94160D60936F047093BA
:20324000700480937104909372040E94160D60936B0470936C0480936D0490936E04109284
:203260006A04109269041092680410927804109267041092840410927C04C093850480915F
:203280007F0490918004A0918104B0918204892B8A2B8B2B51F40E94160D60937F047093E7
:2032A0008004809381049093820410920404109203048FEB91E1D1CD6EEE71E085E094E0E6
:2032C0000E94802A892BB9F465EF71E085E094E00E94802A892B79F46CEF71E085E094E0D1
:2032E0000E94802A892B39F480917E04811129C085E094E0F0CC10927E0410926A04109228
:203300006904109268041092780410926704109204041092030483E0809377040E94160DFE
:20332000609373047093740480937504909376048CE291E0909309018093080110927C0435
:2033400004CD63E072E085E094E00E94802A892B79F08FE691E10E940410DF91CF911F91A8
:203360000F91FF90EF90DF90CF90BF900C94370F47E050E065E172E085E094E00E94722A96
:20338000892B29F41092690410926804DECC49E050E06DE172E085E094E00E94722A892BD1
:2033A000F9F4109269041092680480916504909166048F3F980729F0019690936604809341
:2033C000650481E191E10E940410DF91CF911F910F91FF90EF90DF90CF90BF900C946B1094
:2033E00064EA71E085E094E00E94802A892B49F467E971E085E094E00E94802A892B09F4A1
:2034000077CF67EC70E18EE894E00E94220D0FCD67E272E085E094E00E94692A892B31F4A9
:2034200080917B04811102C00E94AE1080910A01843009F0FECD6AE172E085E094E00E949C
:20344000692A892B49F064EB71E085E094E00E94802A892B09F4FFCD8BE096E10E94041012
:2034600068EC70E085E0B8CCCF93DF93D82F8091E9039091EA03A091EB03B091EC030196F3
:20348000A11DB11D8093E9039093EA03A093EB03B093EC03DA3009F053C08091CC0288239E
:2034A000A1F066E870E08EE894E00E94220D80E60E94621088E690E00E9404101092CD02A3
:2034C0001092CC02DF91CF9108954091CD024423C9F350E0FA01E659FD4F10821092CD0293
:2034E0008091D7028823C1F0809186038111EACF4F5F5F4F6AE672E086E293E00E94552AA7
:203500008091CA029091CB02909325038093240381E080938603D6CF4F5F5F4F6AE672E0BB
:2035200085E094E00E94552A8091CA029091CB029093890480938804DF91CF910C94C4152E
:20354000DD3009F4BFCFC091CD02CF3520F081E08093CC02B7CFC1110CC00E94160D2091C3
:20356000C2033091C303621B730B7093CB026093CA0281E08C0F8093CD02EC2FF0E0E6596D
:20358000FD4FD0839FCF8BE295E00E94CD0E892B39F08BE295E00E94E30E0E94341AF3CFBB
:2035A0008091490580FF0FC08E7F809349058091D2039091D3038F3F980729F001969093D3
:2035C000D3038093D20308952F923F924F925F927F928F929F92AF92BF92CF92DF92EF92E4
:2035E000FF920F931F93CF93DF931F92CDB7DEB79E012A54354040910601509107012417BA
:20360000350720F4309307012093060170907E04711015C000E0802F0F90DF91CF911F914F
:203620000F91FF90EF90DF90CF90BF90AF909F908F907F905F904F903F902F9008959B018E
:2036400021503109203A310528F77B016C0100916904002309F45AC00E94160D0091D802BF
:203660001091D9022091DA023091DB02DC01CB01801B910BA20BB30B80342FE19207A10555
:20368000B10568F5803D9740A105B105B8F080916804811113C081E0809368048091DF03CA
:2036A0009091E0038F3F980729F001969093E0038093DF038FEC96E00E9404108091CE0365
:2036C0009091CF038F3F980729F001969093CF038093CE0387E796E00E9404109BCF10925B
:2036E0006904109268048091DD039091DE038F3F980729F001969093DE038093DD038BE1DC
:2037000096E00E9404100E94370F84CF81E08093D7020E94160D8090D3029090D402A09025
:20372000D502B090D602681979098A099B09603571058105910518F40E94C31AEACF6FE0A6
:2037400076E08BE295E00E94220D57018FEFA81AB80AB5018BE295E00E9499106CE076E081
:203760008BE295E00E94220D0E94160D1B012C01912C812C0E94160D621973098409950937
:203780006C3271408105910508F044C08BE295E00E94CD0E892B71F38BE295E00E94E30ED6
:2037A000182F8E3309F463C00E94341A8FEB810F8A3108F4105EE82DF0E0E95DFE4F808149
:2037C0008394811729F088248394123609F0812CE82DF0E0E95DFE4F8081882309F493C0FC
:2037E000E92DF0E0EF5DFE4F80819394811729F099249394153609F0912CE92DF0E0EF5D5A
:20380000FE4F80818111C2CF12E085E695E00E94041048C013E0912C812C63E28BE295E023
:203820000E94710E8FEF881A980AE814F904A9F76AE08BE295E00E94710E8091F403909196
:20384000F5038F3F980729F001969093F5038093F40369E375E08EE894E00E94220DB5011C
:203860008EE894E00E9499108BEF94E0D0CF10E0A701B6018BE295E00E94460D6AE08BE2A9
:2038800095E00E94710E81E080936904109268040E94160D6093D8027093D9028093DA0244
:2038A0009093DB020E94160D6093D3027093D4028093D5029093D6021092D7026AEE74E096
:2038C000111102C065EF74E08EE894E00E94220DC6010E94AA12113039F1111118C0109275
:2038E0006A040E94160D60936B0470936C0480936D0490936E041092BE031092BF0310923E
:20390000C003072D88CE11E086EA95E080CF0E946B10123091F48091BE038F3F09F47ACE6C
:203920008F5F8093BE0377CE8091C0038F3F09F471CE8F5F8093C0036ECE8091BF038F3F01
:2039400009F469CE8F5F8093BF0365CEEF92FF920F931F93CF93DF93CDB7DEB768970FB626
:20396000F894DEBF0FBECDBF8C011F922F93842F042E000C990B9F934F93862F062E000C27
:20398000990B9F936F931F930F938FE292E09F938F931F9288E18F939E012F5F3F4F790153
:2039A0003F932F930E949A2A0FB6F894DEBF0FBECDBF1816190674F080E068960FB6F89466
:2039C000DEBF0FBECDBFDF91CF911F910F91FF90EF9008959C012D5F3F4F2931310560F788
:2039E000682FC7010E94640FF70101900020E9F73197BF016E197F09CB010197CF97B0F0C9
:203A00002091DC038091BB0390E02917B1F0E92FE80FE370F0E0EE0FFF1FED54FC4F40815C
:203A200051810417150741F29F5FEFCFC7010E94E41A882329F381E0C0CF2430C9F490E0EE
:203A40000196837099278093BB0383E08093DC038091DA039091DB038F3F980729F00196EC
:203A60009093DB038093DA0381E297E00E9404108091DC03E091BB03E80FE370F0E0EE0F8F
:203A8000FF1FED54FC4F118300838F5F8093DC0393CF1F920F920FB60F9211242F933F93A2
:203AA0008F939F93AF93BF938091FF0390910004A0910104B09102043091FE0323E0230F72
:203AC0002D3758F50196A11DB11D2093FE038093FF0390930004A0930104B0930204809190
:203AE000FA039091FB03A091FC03B091FD030196A11DB11D8093FA039093FB03A093FC03B3
:203B0000B093FD03BF91AF919F918F913F912F910F900FBE0F901F90189526E8230F0296B3
:203B2000A11DB11DD2CF1F920F920FB60F9211242F933F934F935F936F937F938F939F939B
:203B4000AF93BF93EF93FF938EE894E00E94C40DFF91EF91BF91AF919F918F917F916F9160
:203B60005F914F913F912F910F900FBE0F901F9018951F920F920FB60F9211242F938F93AD
:203B80009F93EF93FF93E0919E04F0919F048081E091A404F091A50482FD1BC090818091E8
:203BA000A7048F5F8F732091A804821741F0E091A704F0E0E257FB4F958F8093A704FF9162
:203BC000EF919F918F912F910F900FBE0F901F9018958081F4CF1F920F920FB60F9211243D
:203BE0002F933F934F935F936F937F938F939F93AF93BF93EF93FF93E0911E03F0911F0318
:203C0000309749F0A685B7858585968D91FF14C09C918923A1F4FF91EF91BF91AF919F916E
:203C20008F917F916F915F914F913F912F910F900FBE0F901F9018959C91892361F7A38930
:203C4000B4899C918589809589238C93868997890197F1F7608D718DA685B785558538E019
:203C600020E0CB010197F1F7822F90E095958795282F4C91452309F02068315091F7868D58
:203C800081FD209580911D0390E001968F73992730911C03381799F0A0911D03B0E0A45268
:203CA000BD4F2C9380931D03828D938D0197F1F7A389B4898C919589892B8C93ACCF868D52
:203CC0008160868FF1CF1F93CF93DF93282F30E0F901E655FF4E8491F901E952F74ED491CB
:203CE000F901ED53F74EC491CC23A9F0162F81110E94B10CEC2FF0E0EE0FFF1FE754F74EAC
:203D0000A591B4918FB7F894EC91111108C0D095DE23DC938FBFDF91CF911F910895DE2BA6
:203D2000F8CF109291041092900488EE93E0A0E0B0E08093920490939304A0939404B093E5
:203D4000950427E531E030938F0420938E0425EC30E030939B0420939A0424EC30E030935B
:203D60009D0420939C0420EC30E030939F0420939E0421EC30E03093A1042093A00422EC8E
:203D800030E03093A3042093A20426EC30E03093A5042093A4041092A7041092A80410922A
:203DA000A9041092AA0410922E0510922D0580932F0590933005A0933105B093320589E66C
:203DC00091E090932C0580932B0510924205109241051092440510924305109246051092A6
:203DE00045051092480510924705609149056E7F6D7F609349056695617081E0682787E020
:203E00000E94631E61E087E00E94DA0CEEEDF8E1E491E0933B05EAECF8E1E491F0E0EE0F82
:203E2000FF1FE754F74E8591949190933D0580933C0560E088E00E94DA0C8091490581FDE3
:203E400004C061E088E00E94631E88E080933705EFEDF8E1E491E0933805EBECF8E1E4911C
:203E6000F0E0EE0FFF1FE155F74E8591949190933A05809339050895CF93DF93CDB7DEB764
:203E8000CD5DD1090FB6F894DEBF0FBECDBF789484B5826084BD84B5816084BD85B58260F8
:203EA00085BD85B5816085BD80916E00816080936E00109281008091810082608093810057
:203EC00080918100816080938100809180008160809380008091B10084608093B10080915B
:203EE000B00081608093B00080917A00846080937A0080917A00826080937A0080917A00ED
:203F0000816080937A0080917A00806880937A001092C100E0919E04F0919F0482E0808334
:203F2000E0919A04F0919B041082E0919C04F0919D0480E180831092A604E091A204F09145
:203F4000A30486E08083E091A004F091A104808180618083E091A004F091A104808188600D
:203F60008083E091A004F091A104808180688083E091A004F091A10480818F7D808310922A
:203F8000460510924505109244051092430510924205109241058DE991E0909348058093DA
:203FA000470590913705963108F047C02DEB30E030934205209341052BE931E03093440536
:203FC000209343052CE231E030934605209345052091680084E0983048F031E09E3008F464
:203FE00030E081E001C0880F3A95EAF7822B809368002DE630E0983050F02BE630E09E3006
:2040000030F02CE630E0963110F030E020E030933F0520933E05292F30E0983008F0FEC1A3
:2040200081E001C0880F9A95EAF78093400580914705909148050197F1F780914505909198
:204040004605892B49F1E0911E03F0911F0325E0EB32F20709F1309739F0A389B4899C9157
:204060008589809589238C93809149058E7F8093490510921D0310921C038BE295E09093FD
:204080001F0380931E03E0913E05F0913F05808190914005892B80830E94160D6093C203B6
:2040A0007093C3038093C4039093C50381E480937C0080917A00806480937A0080917A00F7
:2040C00086FDFCCF4091780050917900052E000C660B770B3FB7F8948091FA039091FB030E
:2040E000A091FC03B091FD0326B5A89B05C02F3F19F00196A11DB11D3FBFBA2FA92F982F4C
:204100008827820F911DA11DB11DF2E0880F991FAA1FBB1FFA95D1F78A019B010827192774
:204120002A273B27481759076A077B0721F0C901B8010E94C3291092CD031092CC03109273
:20414000CB0310928A031092890386E091E09093880380938703109277040E94160D60933D
:20416000730470937404809375049093760484EF91E090930901809308018FED99E00E9460
:20418000041068EC79E08EE894E00E94220D80914A05811150C18EE899E00E94041067E0B4
:2041A00079E08EE894E00E94220D6CEC78E08EE894E00E94220D67EB78E08EE894E00E944A
:2041C000220D83EB98E00E940410AE014B535F4FC053DF4F59834883C05DD040CE0186545B
:2041E0009F4FCE52DF4F99838883C25DD0401E0192EA290E311CFE0131962F010E94160D53
:204200006B017C0180917E04882309F43DC18091EF03882339F180916F0490917004A0915A
:204220007104B0917204A7019601281B390B4A0B5B0BDA01C90180339547A105B10594F0BD
:2042400065EF7DE08EE894E00E94220D8091EF030E94621080EF9DE00E9404101092EF03A5
:204260001092EE030E94C31A809186038823A9F080E6E6E2F3E0A5E0B4E001900D928A95E5
:20428000E1F780912403909125039093890480938804109286030E94C415B090CD0300912F
:2042A000CB031091CC0360918703709188034091890350918A0330E020E0CC52DF4F1982F7
:2042C0001882C45DD040E22FBB2009F40AC3C801022E02C0969587950A94E2F780FF01C3A1
:2042E000CA010E2E02C0969587950A94E2F78170A9F081E090E002C0880F991FEA95E2F773
:20430000CC52DF4FE881F981C45DD040E82BF92BCC52DF4FF983E883C45DD0402F5F3F4F86
:204320002A30310581F6CC52DF4F28813981C45DD0403093CA032093C903BB2009F4D3C21A
:20434000CA52DF4F19830883C65DD0408091040190910501CC52DF4FE881F981C45DD0401C
:204360008E179F0709F0C8C22091C7033091C80380910201909103012817390709F0BCC239
:204380008091000190910101CA52DF4F28813981C65DD0408217930709F0AEC21092C60301
:2043A0006090C2037090C3038090C4039090C5034091D6035091D7036091D8037091D903B5
:2043C000A0907E04E091C1032091D4033091D503D701C60186199709A809B909803BF4E0F5
:2043E0009F07A105B10508F48FC2F0EB6F0EF4E07F1E811C911CAA2039F0E11105C02F3F43
:20440000320711F02F5F3F4F4F5F5F4F6F4F7F4F805B9440A109B109E0E0E0CF9E3040F4DA
:204420002850310981E001C0880F2A95EAF7FDCD2E503109F7CF80FF06C06BE779E08EE8C3
:2044400094E00E94220D80914A0581FF06C061E679E08EE894E00E94220D80914A0582FF35
:2044600006C06EE379E08EE894E00E94220D80914A0583FF06C063E379E08EE894E00E943E
:20448000220D0E94FE0F8BCE8091ED03882379F0F7FC0DC01092ED030E94C9106CED75E055
:2044A00081E00E948D0F8CE09AE00E9404108091ED038111D7CE8091730490917404A09137
:2044C0007504B0917604B701A601481B590B6A0B7B0B8091080190910901B0E0A0E04817D3
:2044E00059076A077B0708F4BDCE80917704853059F480918504811107C080EA9DE00E94D8
:20450000041082E08093770410917704123091F480918304882309F455C010928304809125
:2045200084048A3F18F48F5F8093840481E00E940A1198CE1B3008F060C0E12FF0E0ED558C
:20454000FD4D0C944F2AAE22BF22FD2225236F239023B523F82319243A245E2466EB7CE0DE
:204560008BE295E00E94220D6AEA7CE08EE894E00E94220D0E94FE0F109283043EC06CE9F2
:204580007CE08BE295E00E94220D6BE87CE08EE894E00E94220D0E94FE0F81E080930A0174
:2045A000C0927304D0927404E0927504F092760480E293E090930901809308011F5F109332
:2045C000770450CE6CE57CE08BE295E00E94220D65E27CE08EE894E00E94220D0E94FE0FD5
:2045E00081E0809383040E94160D6093200370932103809322039093230310930A01C0923D
:204600007304D0927404E0927504F0927604E12FF0E0EE0FFF1FE45DFE4F808191819093A3
:20462000090180930801EEEFE10FE93038F6F0E0E45EFC4D0C944F2A5C2444238E23AF2362
:20464000D4231724382459245C246AE17CE08BE295E00E94220D6CEE7BE08EE894E00E9434
:20466000220D0E94FE0F83E080930A01C0927304D0927404E0927504F092760484EC99E068
:20468000909309018093080180917C048F5F80937C04833008F41BC180917D0410927C0480
:2046A00010927D048111B3C580917B04811102C00E94AE108CE09DE00E94041082E0809375
:2046C000770480E00E940A1180917704833009F0C9CD68EE73E082E00E948D0FC3CD6EED40
:2046E0007BE08BE295E00E94220D6DEC7BE08EE894E00E94220D0E94FE0F84E080930A010C
:20470000C0927304D0927404E0927504F092760480EB94E0909309018093080185E0D8C0EA
:2047200064EA7BE08BE295E00E94220D63E97BE08EE894E00E94220D0E94FE0F85E0809394
:204740000A01C0927304D0927404E0927504F092760480E49FE19093090180930801809186
:2047600078048823D9F286E0B3C065E87BE08BE295E00E94220D6DE57BE08EE894E00E94DA
:20478000220D0E94FE0F86E080930A01C0927304D0927404E0927504F092760480E293E058
:2047A0009093090180930801809167048F5F80936704833008F48FC06CEF7CE08EE894E029
:2047C0000E94220D809167040E9462108FEB9CE00E94041010927704109278041092670484
:2047E00028EC30E0309309012093080182E09FCE64E57BE08BE295E00E94220D6DE27BE03C
:204800008EE894E00E94220D0E94FE0F87E080930A01C0927304D0927404E0927504F09299
:2048200076044CED55E0509309014093080188E04FC06EE07BE08BE295E00E94220D64EDA3
:204840007AE08EE894E00E94220D0E94FE0F88E080930A01C0927304D0927404E092750480
:20486000F09276048CED95E0909309018093080189E02EC069EC7AE08BE295E00E94220D4C
:204880006DE97AE08EE894E00E94220D0E94FE0F89E080930A01C0927304D0927404E09262
:2048A0007504F0927604E8E2F3E2F0930901E093080181E08093790482E00AC062E97AE019
:2048C0008BE295E00E94220D60E67AE04FCE83E080937704C7CC83E08093770410927C04D1
:2048E000C1CCCB01FECC4FEF5FEFCA52DF4F59834883C65DD0402ACD8091C603811150CD65
:2049000081E08093C6034CCD6092C2037092C3038092C4039092C5034093D6035093D70396
:204920006093D8037093D903E093C1033093D5032093D40388539F4FAF4FBF4F8935924009
:20494000A105B10508F06AC281E0E827AA2009F490C080916B0490916C04A0916D04B0915C
:204960006E04A7019601281B390B4A0B5B0BDA01C90180319742A105B1050CF451C262E55F
:204980007FE08EE894E00E94220D80916B0490916C04A0916D04B0916E04B701A601481BD5
:2049A000590B6A0B7B0B8EE894E00E945F1068E27FE08EE894E00E94220D8091C0030E94C3
:2049C00062106AE17FE08EE894E00E94220D8091BF030E9462106FE07FE08EE894E00E94DF
:2049E000220D8091BE030E94621068EF7EE08EE894E00E94220D6091CE037091CF038EE827
:204A000094E00E94991067EE7EE08EE894E00E94220D6091DF037091E0038EE894E00E9426
:204A200099106AED7EE08EE894E00E94220D60916504709166048EE894E00E9499106CEC0B
:204A40007EE08EE894E00E94220D6091E1037091E2038EE894E00E9499108BEA9EE00E94B8
:204A600004101092BE031092BF031092C0030E94370F8091E5039091E603A091E703B091AF
:204A8000E803A7019601281B390B4A0B5B0BDA01C90180369A4EA105B10508F4F2C0C0920B
:204AA000E503D092E603E092E703F092E80367EE7FE08EE894E00E94220DC701B60128EEF6
:204AC00033E040E050E00E94FE29BA01A9018EE894E00E945F1060EE7FE08EE894E00E9411
:204AE000220D6091E3037091E4038EE894E00E94991067ED7FE08EE894E00E94220D609134
:204B0000E1037091E2038EE894E00E9499106EEC7FE08EE894E00E94220D6091F403709139
:204B2000F5038EE894E00E94991063EC7FE08EE894E00E94220D60916504709166048EE8A4
:204B400094E00E9499106CEB7FE08EE894E00E94220D6091DF037091E0038EE894E00E94E2
:204B6000991064EB7FE08EE894E00E94220D6091DD037091DE038EE894E00E9499106DEAE4
:204B80007FE08EE894E00E94220D8091DC030E94621063EA7FE08EE894E00E94220D60919F
:204BA000DA037091DB038EE894E00E9499106CE97FE08EE894E00E94220D4091D60350910A
:204BC000D7036091D8037091D9038EE894E00E945F1066E97FE08EE894E00E94220D6091FD
:204BE0008604709187048EE894E00E9499106EE87FE08EE894E00E94220D6091D403709131
:204C0000D5038EE894E00E94991066E87FE08EE894E00E94220D6091D2037091D3038EE80C
:204C200094E00E9499106CE77FE08EE894E00E94220D6091D0037091D1038EE894E00E9423
:204C4000991065E77FE08EE894E00E94220D6091CE037091CF038EE894E00E9499106CE629
:204C60007FE08EE894E00E94220D40917E0450E070E060E02AE08EE894E00E9413100E94AC
:204C8000FE0F80917E0481117FC08091F0039091F103A091F203B091F303A7019601281BAB
:204CA000390B4A0B5B0BDA01C901883B9B40A105B10508F469C0C092F003D092F103E09224
:204CC000F203F092F30367E270E18EE894E00E94220D809177040E9462106BE170E18EE85F
:204CE00094E00E94220D8091EF030E9462108FE20E94330E8091EE030E9462108091ED03ED
:204D0000882331F065E070E18EE894E00E94220D60E070E18EE894E00E94220D4091E9036D
:204D20005091EA036091EB037091EC038EE894E00E945F1068EF7FE08EE894E00E94220D6A
:204D400040918A0450918B0460918C0470918D048EE894E00E945F1063EF7FE08EE894E0DB
:204D60000E94220DC701B60128EE33E040E050E00E94FE29BA01A9018EE894E00E945F1041
:204D800081EF9FE00E9404108091F6039091F703A091F803B091F903A7019601281B390B1A
:204DA0004A0B5B0BDA01C90180369A4EA105B10540F1C092F603D092F703E092F803F092D2
:204DC000F9036BE870E18EE894E00E94220D60910601709107018EE894E00E9499106DE6EF
:204DE00070E18EE894E00E94220D6091F4037091F5038EE894E00E9499108CE390E10E940F
:204E0000041080E090E0892B09F4F8C90E94B00D882309F4F0C90E940000EDC9E0E096CD01
:204E2000EE2309F426CE4091C7035091C803C852DF4F59834883C85DD0400E94160D9B01A4
:204E4000AC012619370948095909C652DF4F288339834A835B83CA5DD040BE016B537F4F99
:204E6000CC52DF4F88819981C45DD0400E94200FBE0166547F4FC852DF4F88819981C85DEA
:204E8000D0400E94200FA090BC039090BD03BB2009F4BAC0B101C8010E94200F0E94160DFF
:204EA0003F922F922DE332E03F932F9328EE33E040E050E00E94FE295F934F933F932F9300
:204EC000CD52DF4F3881C35DD0403F93CE52DF4F4881C25DD0404F93CF52DF4F5881C15D5C
:204EE000D0405F93C053DF4F8881C05DD0408F939F92AF9280E492E09F938F931F9280E466
:204F00008F935F924F920E949A2A0FB6F894DEBF0FBECDBF181619060CF4ACC010E000E067
:204F2000912CB12C81E08093C10361EA7EE08EE894E00E94220D4091D6035091D7036091E5
:204F4000D8037091D9038EE894E00E945F106CE97EE08EE894E00E94220DB8018EE894E08D
:204F60000E94991066E97EE08EE894E00E94220D892D0E94621060E97EE08EE894E00E9481
:204F8000220DC652DF4F488159816A817B81CA5DD0408EE894E00E945F108BE89EE0B1102E
:204FA00002C086E89EE00E9404100E94160DBB2009F45FCD8091BC039091BD030196909359
:204FC000BD038093BC03CC52DF4F48815981C45DD0405093050140930401C852DF4F88810D
:204FE0009981C85DD0409093030180930201CA52DF4FE881F981C65DD040F0930101E093CD
:2050000000011092C60335CD0E94160D2DE332E03F932F9328EE33E040E050E00E94FE2965
:205020005F934F933F932F93CD52DF4FF881C35DD040FF93CE52DF4F2881C25DD0402F9398
:20504000CF52DF4F3881C15DD0403F93C053DF4F4881C05DD0404F939F92AF9286E592E0E0
:205060009F938F931F9280E48F935F924F920E949A2A4BCF9C012D5F3F4F2134310508F019
:205080004DCF682FC2010E94640FF20101900020E9F731978F0104191509002309F43ECF41
:2050A00011279090DC03992009F499C0A090BB03B12CF501EE0FFF1FED54FC4F808191812F
:2050C0000E94BF0F87FF1CC0FFEFAF1ABF0A23E0A222BB24A092BB039A949092DC038091A8
:2050E000DA039091DB038F3F980729F001969093DB038093DA0388E49EE00E940410D1CF86
:20510000912C98E1792E2AE0822E8091DC03981608F065C0E091BB03E90DE370F0E0EE0FF8
:20512000FF1FED54FC4F808191810E94BF0F87FD56C045E0582F5403F0011124E557FC4FF8
:2051400084811F928F938381282F082E000C330B3F938F938281282F082E000C330B3F93FC
:205160008F9381818F9380818F938FE292E09F938F931F927F923F922F920E949A2A0FB610
:20518000F894DEBF0FBECDBF1816190644F59C012D5F3F4F2931310510F5682FC1010E94C0
:2051A000640FF10101900020E9F73197AF01421953095527C80101965A01A80EB91E31EAEB
:2051C000A316B10460F4F201E00FF11F8082B101840D951D0E94552A9394850196CFB80138
:2051E000C2010E94E41AB82E882309F49BCE992059F08091BB03890D83708093BB03809119
:20520000DC0389198093DC03BB24B3948BCE89E49DE00E9404104ECA89E691E090932C05B0
:2052200080932B0580911E0390911F038B52954071F4E0913E05F0913F05908180914005BF
:2052400080958923808310921F0310921E0308958F929F92AF92BF92CF92DF92EF92FF929E
:20526000CF93DF93EC01688179818A819B81611571058105910521F464E279ED8BE597E0B3
:205280002DE133EF41E050E00E94CC2949015A019B01AC01A7EAB1E40E94EB296B017C0143
:2052A000ACEEB4EFA50194010E94F929C60ED71EE81EF91EF7FE06C081E0C81AD108E1080C
:2052C00080E8F80AC882D982EA82FB82C701B6019F77DF91CF91FF90EF90DF90CF90BF9046
:2052E000AF909F908F9008958F929F92AF92BF92CF92DF92EF92FF9260910B0170910C01B1
:2053000080910D0190910E01611571058105910521F464E279ED8BE597E02DE133EF41E03D
:2053200050E00E94CC2949015A019B01AC01A7EAB1E40E94EB296B017C01ACEEB4EFA50110
:2053400094010E94F929C60ED71EE81EF91EF7FE06C081E0C81AD108E10880E8F80AC09292
:205360000B01D0920C01E0920D01F0920E01C701B6019F77FF90EF90DF90CF90BF90AF90A2
:205380009F908F90089560930B0170930C0180930D0190930E010895052E97FB1EF40094B8
:2053A0000E94E32957FD07D00E94FE2907FC03D04EF40C94E32950954095309521953F4FC4
:2053C0004F4F5F4F089590958095709561957F4F8F4F9F4F08950E94202AA59F900DB49F58
:2053E000900DA49F800D911D11240895B7FF0C94EB290E94EB29821B930B0895A1E21A2EFD
:20540000AA1BBB1BFD010DC0AA1FBB1FEE1FFF1FA217B307E407F50720F0A21BB30BE40B84
:20542000F50B661F771F881F991F1A9469F760957095809590959B01AC01BD01CF0108953C
:20544000A29FB001B39FC001A39F700D811D1124911DB29F700D811D1124911D0895991B67
:2054600079E004C0991F961708F0961B881F7A95C9F780950895AA1BBB1B51E107C0AA1F7C
:20548000BB1FA617B70710F0A61BB70B881F991F5A95A9F780959095BC01CD010895EE0FE7
:2054A000FF1F0590F491E02D0994FB01DC0102C001900D9241505040D8F70895FC018191A3
:2054C000861721F08823D9F7992708953197CF010895FB01DC018D91019080190110D9F313
:2054E000990B0895FB01DC014150504030F08D910190801919F40020B9F7881B990B089548
:20550000FB0151915523A9F0BF01DC014D9145174111E1F759F4CD010190002049F04D91B8
:2055200040154111C9F3FB014111EFCF81E090E001970895AEE0B0E0E0EAFAE20C94562D0F
:205540000D891E898F89988D26E02C831A83098397FF02C080E090E801979E838D83AE014B
:20556000455E5F4F698D7A8DCE0101960E94CA2A4D815E8157FD0AC02F81388542175307F6
:205580000CF49A01020F131FF80110822E96E4E00C94722DABE0B0E0E0EDFAE20C94482D02
:2055A0007C013B018A01FC0117821682838181FFC8C1CE0101965C01F7019381F30193FD19
:2055C000859193FF81913F01882309F453C1853239F493FD859193FF81913F01853229F4D3
:2055E000B70190E00E94BA2CE7CF912C212C312CFFE1F31538F08B3211F190F4803209F1DF
:20560000833229F137FC3CC020ED280F2A3050F536FE20C08AE0989E200D1124922E06C00D
:205620008D3291F0803371F7689430F8F30193FD859193FF81913F018111DACF21C0689455
:2056400031F8689432F8F2CF689433F8EFCF689434F8ECCFEAE02E9E200D1124222E68942E
:2056600035F8E4CF8E3229F436FC04C1689436F8DDCF8C3619F4689437F8D8CF8836B1F29E
:20568000982F9F7D95549330E0F08336A1F18337C1F1833509F063C02801F2E04F0E511C5B
:2056A000F801C080D180692D70E036FC02C06FEF7FEFC6010E94A42C4C01689437F8820186
:2056C0000AC00C5F1F4FFFE3F98388248394912C6501E89437F833FE2DC0522C8114910472
:2056E00071F5552009F468CFB70180E290E00E94BA2C5A94F6CFF801808189830E5F1F4FF5
:20570000E4CF2801F2E04F0E511CF801C080D180692D70E036FC02C06FEF7FEFC6010E9478
:20572000AF2C4C018201D5CFB70180E290E00E94BA2C2A942814190409F0B0F7CECFF601BD
:2057400037FC859137FE81916F01B70190E00E94BA2C51105A94F1E08F1A9108BFCF8436EF
:2057600019F0893609F077C0F80137FE6BC060817181828193810C5F1F4FF32DFF763F2E13
:2057800097FF09C090958095709561957F4F8F4F9F4F689437F82AE030E0A5010E94EA2C38
:2057A000C82ECA188C2C432C36FE0CC0E89440F8C91440F434FE05C032FC03C0F32DFE7EA1
:2057C0004F2E892C44FE95C0FE01EC0DF11D8081803309F087C0242D297E422E842D8870F5
:2057E000582E43FC95C040FE8FC09C2C821418F42C0C922C981844FE91C0B70180E390E0D4
:205800000E94BA2C42FE09C088E790E041FE02C088E590E0B7010E94BA2CC91408F48AC0D7
:20582000CA94D12C9FEFC91AD90ACA0CDB1CF60182916F01B70190E00E94BA2CAC14BD0441
:20584000B1F74FCF60817181072E000C880B990B0E5F1F4F92CFD32CE894D4F82AE030E09A
:20586000853739F1232D297FD22E8F3601F148F48835A9F0F701868197812B96E2E10C94C6
:20588000642D803749F08837A9F7D4FE02C06894D2F820E130E00DC06894D4F8F6CF34FE31
:2058A00003C0822F8660D82E20E132E002C028E030E0F801D7FE0FC0608171818281938114
:2058C0000C5F1F4FA5010E94EA2CC82ECA183D2CE89437F867CF6081718190E080E00E5F5F
:2058E0001F4FF0CF42FC02C0839478CF8394839475CF842D867809F471CFF6CFB70180E2E0
:2059000090E00E94BA2C83948214C0F3512C73CF522C5818821408F46ECFF8CF842D86783D
:2059200009F47BCF8BE241FE80E247FC8DE2B70190E071CFB70180E390E00E94BA2C9A94B7
:205940006CCF8FEF9FEF99CFFC010590615070400110D8F7809590958E0F9F1F0895FC0196
:205960006150704001900110D8F7809590958E0F9F1F08950F931F93CF93DF93182F092F7C
:20598000EB018B8181FD09C01FEF0FEF812F902FDF91CF911F910F91089582FF14C02E818C
:2059A0003F818C819D81281739073CF4E881F981CF0101969983888310838E819F81019683
:2059C0009F838E83E3CFE885F985812F0995892BA1F3DACFFA01AA27283051F1203181F18F
:2059E000E8946F936E7F6E5F7F4F8F4F9F4FAF4FB1E03ED0B4E03CD0670F781F891F9A1F2A
:205A0000A11D680F791F8A1F911DA11D6A0F711D811D911DA11D20D009F468943F912AE0D0
:205A2000269F11243019305D3193DEF6CF010895462F4770405D4193B3E00FD0C9F7F6CFFD
:205A4000462F4F70405D4A3318F0495D31FD4052419302D0A9F7EACFB4E0A6959795879574
:205A600077956795BA95C9F700976105710508959B01AC010A2E0694579547953795279594
:205A8000BA95C9F7620F731F841F951FA01D08952F923F924F925F926F927F928F929F927B
:205AA000AF92BF92CF92DF92EF92FF920F931F93CF93DF93CDB7DEB7CA1BDB0B0FB6F89413
:205AC000DEBF0FBECDBF09942A88398848885F846E847D848C849B84AA84B984C884DF80D5
:205AE000EE80FD800C811B81AA81B981CE0FD11D0FB6F894DEBF0FBECDBFED0108951CE094
:205B0000C7E7DCE004C0FE010E944F2A2196C837D107C9F7F894FFCFFEFFFFFFFFFFFFFF9E
:205B2000F401FF01000000000000008813983A307560EA0102020202FF6572726F72006280
:205B400075737900C40920033075C409B004401F2003DC05DC052823B80B3031323334354D
:205B6000363738394142434445460000000000E60D460D730D380EA40D820D960D000000C3
:205B800000710E460D040F700ECD0EE30E580E0D0A002B4950442C005749464900474F540C
:205BA00020495000444953434F4E4E4543540062757379002B43574A41503A004552524F6D
:205BC00052006E6F2061700041542B006E6F206368616E6765002B43574C41503A00534B08
:205BE0005F5769466947494741353044435F322E3447006E6F20697000414C524541004C12
:205C0000494E4B454400434C4F53454400556E6C696E6B00554E4C494E4B006C696E6B204F
:205C20006973206E6F742076616C69640053454E44204F4B0053454E44204641494C00306D
:205C40002E302E302E3000412C25752C256325632C25752C00503100532C25752C25732C6B
:205C600025732C256C752C25732C25732C00532C25752C25732C25732C256C752C25732CE3
:205C80000000FFFFFFFFFFFFFFFFFFFFFFFFFFFFFFFFFFFFFFFFFFFFFFFFFFFFFFFFFFFF22
:205CA000FFFFFFFFFFFFFFFFFFFFFFFFFFFFFFFFFFFFFFFFFFFFFFFFFFFFFFFFFFFFFFFF04
:205CC000FFFFFFFFFFFFFFFFFFFFFFFFFFFFFFFFFFFFFFFFFFFFFFFFFFFFFFFFFFFFFFFFE4
:205CE000FFFFFFFFFFFFFFFFFFFFFFFFFFFFFFFFFFFFFFFFFFFFFFFFFFFFFFFFFFFFFFFFC4
:205D0000FFFFFFFFFFFFFFFFFFFFFFFFFFFFFFFFFFFFFFFFFFFFFFFFFFFFFFFFFFFFFFFFA3
:207E0000112484B714BE81FFF0D085E08093810082E08093C00088E18093C10086E08093FC
:207E2000C20080E18093C4008EE0C9D0259A86E020E33CEF91E0309385002093840096BBAD
:207E4000B09BFECF1D9AA8958150A9F7CC24DD2488248394B5E0AB2EA1E19A2EF3E0BF2E79
:207E6000A2D0813461F49FD0082FAFD0023811F0013811F484E001C083E08DD089C0823404
:207E800011F484E103C0853419F485E0A6D080C0853579F488D0E82EFF2485D0082F10E0A0
:207EA000102F00270E291F29000F111F8ED068016FC0863521F484E090D080E0DECF84364D
:207EC00009F040C070D06FD0082F6DD080E0C81680E7D80618F4F601B7BEE895C0E0D1E0ED
:207EE00062D089930C17E1F7F0E0CF16F0E7DF0618F0F601B7BEE89568D007B600FCFDCF1A
:207F0000A601A0E0B1E02C9130E011968C91119790E0982F8827822B932B1296FA010C016F
:207F200087BEE89511244E5F5F4FF1E0A038BF0751F7F601A7BEE89507B600FCFDCF97BE85
:207F4000E89526C08437B1F42ED02DD0F82E2BD03CD0F601EF2C8F010F5F1F4F84911BD0B8
:207F6000EA94F801C1F70894C11CD11CFA94CF0CD11C0EC0853739F428D08EE10CD085E9AE
:207F80000AD08FE07ACF813511F488E018D01DD080E101D065CF982F8091C00085FFFCCF0A
:207FA0009093C60008958091C00087FFFCCF8091C00084FD01C0A8958091C6000895E0E68F
:207FC000F0E098E1908380830895EDDF803219F088E0F5DFFFCF84E1DECF1F93182FE3DF47
:207FE0001150E9F7F2DF1F91089580E0E8DFEE27FF270994FFFFFFFFFFFFFFFFFFFF040425
:00000001FF
