:200000000C94AD0D0C94E40D0C94E40D0C9443210C9443210C9443210C94E40D0C94E40D36
:200020000C94E40D0C94E40D0C94E40D0C94E40D0C94E40D0C94E40D0C94E40D0C94E40D38
:200040000C94A1200C94E40D0C9411210C94EB200C94E40D0C94E40D0C94E40D0C94E40DED
:200060000C94E40D0C94E40DEBB094EC9DB4ED8AB8EBA5BC20EB8498EC96B420EBB284EBEE
:20008000A0B8EB8BA4005B44524F502D4F56465D20ECA484EC9DB42000EBB094EC9DB4EDFF
:2000A0008AB820EBB284EBA6BC202B20ECA48420ECA1B0EBA6BD20ECB488EAB8B0ED999492
:2000C000005B4C41444445525D2031EB8BA820ECA1B0ECB9983A20EC8B9CEBA6ACEC96BCCB
:2000E00020EB939CEBA088EC9DB82000ECB48820EBB0B1EC98A4ED9484EBA19C20EB909836
:20010000ED9280EC9DB4ED959CEB8BA428ECA285ECB0A9EC97AD29005B4C41444445525D2E
:20012000202020EB8C80EC8BA02034EB8BA820ECA1B0ECB998EBA5BC20005B4C4144444524
:20014000525D202020ED9584EC9A9420EBB680ED92883A20EBA19CEC9AB0EC82ACEC9DB419
:20016000EB939C204D4F5346455420EC8AA4EC9C84ECB99828EC98883A20324E373030301F
:200180002F414F33343030202B2031306B29005B4C41444445525D20E29AA035EB8BA82066
:2001A000EBAFB8EC8BA4ED96893A20ECA084EC9B9020EC9EACED88ACEC9E85EC9D80202A6C
:2001C0002AEBB680ED928820EBAFB8EBB3B4EC9CA0EBA19C20EBAFB8EAB5ACED98842A2A9F
:2001E000EC9DB4EB8BA428EBB0B0ECA09CEAB08020EC9584EB8B88EB8BA42900ECB4882045
:20020000EC89ACEAB3A02041542B52535420EBA5BC20EB9098ED9280EC9DB4ED959CEB8B38
:20022000A42028EC9DB4EAB283EC9DB420ECA095EC838120EAB2BDEBA19CEB8BA429005BC9
:200240004C41444445525D202020E2869220005B4C41444445525D202020EC9CA0EC9DBCEA
:20026000ED9598EAB28C20ED9280EBA6ACEB8A9420ED8E8CEC9BA8EC96B42068616E67206D
:20028000EC9D8020EC86A1EC8898EC8BA020EBA19CECA78120EC9EACEC84A4EAB384EBA18C
:2002A0009C20ECA09CEAB1B0ED9688EB8BA4005B4C41444445525D202020ECA084EC9B90FF
:2002C000C2B7454EC2B75253542D4C4F5720EC8381ED839CEBA9B42052535420ED9580ECF6
:2002E0009D8420ED9D94EB93A4EC96B4EB8F8420EB8F99EC9DBCED9598EAB3A02C005B4CA7
:2003000041444445525D2034EB8BA820EAB1B4EB8488EB9C803A20ED9598EB939CEC9BA884
:20032000EC96B420EBA6ACEC858BEC9D80202A2AEC84A4EAB384EC838120EBB0B0ECA09CF9
:200340002A2AEB8BA428EBAFB8EBB0B0EC84A0EC9DB420EC9584EB8B88EB8BA42900ECB417
:200360008820EC89ACEAB3A02041542B5253542028EBAAA8EB938820EC868CED9484ED8A79
:20038000B820EBA6ACEC858B29005B4C41444445525D2033EB8BA820ECA1B0ECB9983A205A
:2003A00000ECB48820EC89ACEAB3A02041542B435751415020EBA19C20EAB2B0ED95A9EC70
:2003C0009D8420EBAA85EC8B9CECA081EC9CBCEBA19C20EB818AEC9D8020EB92A420EB8B40
:2003E000A4EC8B9C20EBB699EB8A94EB8BA4005B4C41444445525D2032EB8BA820ECA1B098
:20040000ECB9983A2000EB8BA8005B4C41444445525D20E28691E2869120EB8BA820EC83E4
:2004200081EC8AB920E2869220005B4C41444445525D20E286912033EB8BA82841542B52AA
:2004400053542920ECA781ED968920E2809420415420EAB384ECB8B5EC9DB420EC9EA0EAB6
:20046000B2BCEC9CBCEBA9B420EC9584EB9E9820EB8BA8EC9D8020EC9D98EBAFB8EAB08048
:2004800020EC9786EB8BA400ED9A8C20EB8884ECA0812900EB8BA8280020C2B720ED9884B1
:2004A000EC9EAC2000EC9786EC9D8C00ED9A8C20C2B720EAB2B0ED95A9EC9CA0ECA780202A
:2004C000007320C2B720EC97B0EC868D2000292043574A4150EC868CEC9A94200043574AC4
:2004E0004150204641494C00415420EAB384ECB8B520EC9EA0EAB9800043574A415020EB13
:20050000ACB4EC9D91EB8BB5005B4C41444445525D20EC8BA4ED8CA828005B4C4144444599
:20052000525D2031ECB48820EC9588EC979020EB93A4EC96B4EC98A820ECA491EBB3B520FF
:20054000EC8BA4ED8CA820EC8BA0ED98B820E2809420EC84B8ECA78020EC958AEB8A94EB5B
:200560008BA4005B54582D44524F505D20005B54585D2000EBB094EC9DB4ED8AB8EBA19C1F
:2005800020EC8AA4ED8AB8EBA6BC20EBB3B5EAB5AC28EC849CEBB284EB8A9420EC9DB4200C
:2005A000ECA484EC9D8420EBB284EBA6B0EB8BA429005B54582D524553594E435D20ED944F
:2005C00084EBA1ACED9484ED8AB820EB8693ECB9A820E2869220EB8D94EBAFB820005B5453
:2005E000582D52454A4543545D2043495053454E4420EAB1B0EBB680284552524F522920AF
:20060000E2809420EB8D94EBAFB8EBA5BC20EB84A3ECA78020EC958AEB8A94EB8BA4005B2C
:2006200054582D425553595D2045535020EAB08020EBB094EC8198EB8BA428EAB1B0EBB67D
:20064000802920E2809420EC8BA4ED8CA8EBA19C20EC84B8ECA78020EC958AEB8A94EB8B52
:20066000A42E20EB8BA4EC9D8C20ECA3BCEAB8B0EC979020EB8BA4EC8B9C20EBB3B4EB825D
:20068000B8EB8BA4000D0A0041542B43495053454E443D005B54582D574149545D20E2980E
:2006A00085E2988520543220ECB488EAB3BC20E280942053454E44204F4B20EAB08020EB10
:2006C000819DEB82B420EC958820EC98A8EB8BA420E2869220EBA781ED81ACEBA5BC20EB8E
:2006E0008BA4EC8B9C20EC84B8EC9AB4EB8BA4005B54582D574149545D20EC959E20ECA06B
:2007000084EC86A1EC9D982053454E44204F4B20EBA5BC20EC9584ECA78120EBAABB20EBFD
:20072000B4A4EB8BA420E2809420EC9DB4EBB28820ECA3BCEAB8B0EB8A9420EAB1B4EB840B
:2007400088EB9BB4EB8BA4005B54582D574149545D20E2988520543120ECB488EAB3BC2072
:20076000E2809420EAB7B8EB9E98EB8F8420EAB384EC868D20EAB8B0EB8BA4EBA6B0EB8B68
:20078000A428EB9190EB93A4EAB8B0ECA78020EC958AEB8A94EB8BA429005B4241442053EE
:2007A0004C4F545D207269643D0020E28692206F636375706965643D005B53494D5D20EDE0
:2007C000959C20EAB1B8EC9D8C3A20005B53494D5D20EBB094EABF8020EC8B9CEBAEAC2055
:2007E000ECB9B8EC9DB420EC9786EB8BA420E2869220726573756C743D35005B424144208F
:200800004649454C44535D207269643D005B445550207269645D20005B5245475D205120E1
:20082000EC8898EC8BA020E2809420EB8BA4EC9D8C20EC86A1EC8BA020ECB0BDEC9790203A
:20084000EB93B1EBA19DEC9D8420EB8BA4EC8B9C20EBB3B4EB82B8EB8BA40020E2809420FF
:20086000ECBD9CEBB0B1EC9DB420EAB1B0ECA088206172673D0020E2809420EB93B1EBA1A3
:200880009D20EC9786EC9D8C0020E2809420EC9DB8EC9E9020ED95B4EB8F8520EC8BA4ED6F
:2008A0008CA800206172673D005B475D206964783D005B475D20EAB1B0ECA08820696478E9
:2008C0003D005B434B53554D204E475D20005B4E45545D20E298852045535020EAB08020AB
:2008E000495020EBA5BC20EC9E83EC9788EB8BA420E2809420EBAAA8EB938820EBA6ACECDF
:20090000858BEC9CBCEBA19C20EBB3B8EB8BA42E20EB8884ECA08120EC82ACEAB1B42000D0
:20092000ED9A8C20EC97B0EC868D20EC8BA4ED8CA820E2869220EC98A4ED9484EB9DBCEC5F
:200940009DB820ECA084ED99982E20EB82A1EC9D8020EC868CECBC93EBB680ED84B020EBE9
:200960008BABEB8A94EB8BA428434950434C4F534529005B4E45545D20ECA084EC86A12079
:20098000005B4E45545D20ECA084EC86A120EC8BA4ED8CA82000EB81940020C2B72036EB1F
:2009A0008BA828EC9B8CECB998EB8F85292000EBAFB8EBB0B0EC84A020E2809420413220CE
:2009C000EBA5BC204553502052535420EC979020EBACBCEBA6ACEAB3A0204553505F52537E
:2009E000545F57495245443D31005B424F4F545D20EC82ACEB8BA4EBA6AC2034EB8BA82844
:200A000045535020ED9598EB939CEBA6ACEC858BEC84A0292000EC9B8CECB998EB8F852099
:200A2000002A2AEBB88CEB9DBCEC9AB4EC9584EC9B8328ECA084EC9B90EBB680ECA1B129CF
:200A40002A2A2000EC99B8EBB680EBA6ACEC858B28EBB284ED8ABC2F445452292000ECA021
:200A600084EC9B90EC9DB8EAB08028504F52292000EC958C20EC889820EC9786EC9D8C2087
:200A8000E2809420EC9DB420EBB680ED8AB8EBA19CEB8D94EAB080204D4355535220EC9DF2
:200AA0008420ECA780EC9AB0EAB3A020EB8498EC96B4EC98A8EB8BA4005B424F4F545D205D
:200AC000EBA6ACEC858B20EC9B90EC9DB83A2000206D6F64756C6573202F206465763D50B7
:200AE00031002073656E736F7273202F20002073706F7473202F20000A5B5041524B494E37
:200B000047204E4F44455D2070726F746F207631202F2000ED958000EC9588EC9DBDEC9D87
:200B20008C000A5B53454E535D20000A5B4E45545D20EB8C80EC8381203139322E313638D5
:200B40002E302E32393A38383838005B4C41444445525D2034EB8BA83A2045535020EBA6BB
:200B6000ACEC858B20ED95B4ECA09C20E2809420EBB680ED8C85EC9D8420EAB8B0EB8BA461
:200B8000EBA0B8EB8BA4EAB0802043574D4F444520EBB680ED84B020EB8BA4EC8B9C005BF5
:200BA0004E45545D2031302043575141502028EAB2B0ED95A920ED95B4ECA09C20E2809481
:200BC00020EC82ACEB8BA4EBA6AC2032EB8BA8290041542B43575141500D0A005B4E455456
:200BE0005D20392043574C41502028ECA3BCEBB38020415020EBAAA9EBA19D20E280942089
:200C0000ECA784EB8BA8290041542B43574C41500D0A005B4E45545D2038204357434F5590
:200C20004E5452592028ECB184EB84902031322F313320EC9AB0ED9A8C20EC8B9CEB8F844F
:200C400020E2809420ECA784EB8BA8290041542B4357434F554E5452595F4445463D302CAB
:200C6000224B52222C312C31330D0A005B4E45545D203720474D522028ED8E8CEC9BA8EC29
:200C800096B420ED8C9020E2809420ECA784EB8BA8290041542B474D520D0A005B4E45544E
:200CA0005D203620434950434C4F53452028EB82A1EC9D8020EC868CECBC9320EB8BABEA2C
:200CC000B8B0290041542B434950434C4F53450D0A005B4E45545D20352043495053544182
:200CE00052540041542B43495053544152543D22544350222C223139322E3136382E302E79
:200D00003239222C383838380D0A005B4E45545D2034204349504D55583D300041542B43CA
:200D200049504D55583D300D0A005B4E45545D20332043494653522028495020EBA5BC20A6
:200D4000EC8BA4ECA09CEBA19C20EBB09BEC9598EB8A94EAB080290041542B434946535236
:200D60000D0A005B4E45545D20322043574A41502028EC9D91EB8BB5EAB98CECA78020ECFB
:200D8000B59CEB8C80203330ECB48820EAB8B0EB8BA4EBA6B0EB8BA4290041542B43574AAC
:200DA00041503D2233465F333032222C22303432343731393232322121220D0A005B4E45FC
:200DC000545D20312043574D4F44453D310041542B43574D4F44453D310D0A005B4E45547E
:200DE0005D2030205253540041542B5253540D0A00ED9A8C20EC8BA4ED8CA820E2869220B4
:200E000041542B52535420EBA19C20ECA084ECB2B420ECB488EAB8B0ED999428EC82ACEB6E
:200E20008BA4EBA6AC20EC8381EC8AB929005B4E45545D20434950434C4F534520005B4E04
:200E400045545D2043494653522033ED9A8CEC9790EB8F8420495020EAB08020EC9786EB87
:200E60008BA420E286922043574A415020EBB680ED84B020EB8BA4EC8B9C005B4E45545D46
:200E80002043494653522033ED9A8C20EC868CECA78420E2809420EAB7B8EB9FACEB829856
:200EA000206275737920EAB1B0EBB680EC9880EB8BA42E20495020EC868CEC8BA4EBA19C5D
:200EC00020EC84B8ECA78020EC958AEB8A94EB8BA4005B4E45545D20495020EAB08020ECCB
:200EE0009786EB8BA420E2869220434950535441525420EBA5BC20EBB3B4EB82B4ECA78005
:200F000020EC958AEAB3A02043574A415020EBA19C20EB9098EB8F8CEC9584EAB084EB8BBA
:200F2000A400EB8BA829005B4C41444445525D20E28693203330ECB48820EC97B0EC868D4A
:200F400020EC98A8EB9DBCEC9DB820E2809420EC82ACEB8BA4EBA6ACEBA5BC2030EB8BA85F
:200F6000EC9CBCEBA19C20EB82B4EBA6B0EB8BA42028ECA781ECA084200002094131004917
:200F80005000000242310049500000094C44004F4700000D5B41434B515D20ECBA90EC8B12
:200FA0009CEC9790EC849C20EBB080EBA0A4EB829820EBA78CEB93A420EC889820EC978652
:200FC000EB8BA420E2809420EBB284EBA6B0EB8BA400EC8BA4ED8CA82000ECA084EC86A1C6
:200FE000200042005B5245475D20EB93B1EBA19D20005B5245475D20EB93B1EBA19D20EB48
:20100000B0B0ECB998EBA5BC20EBA78CEB93A4ECA78020EBAABBED9688EB8BA420E28094C9
:2010200020EC9E98EBA6B020EB93B1EBA19DEC9D8420EB82B4EBB3B4EB82B4ECA78020ECD5
:20104000958AEB8A94EB8BA40020723D300020723D3100206475653D002061636B3D002008
:2010600074783D005B534C4F545D206E3D005D20E2869220EBA781ED81ACEBA5BC20EB8BDC
:20108000A4EC8B9C20EC84B8EC9AB4EB8BA400202F20455350EBA6ACEC858B2000202F20DE
:2010A00053454E444641494C2000202F2053454E444F4BEC8381ED959C20002920C2B72087
:2010C000EB8884ECA0815BEAB1B4EB8488EB9C802000202F20EAB1B0EBB6802000202F20DA
:2010E000EBACB4EC9D91EB8BB520006D7320EB8F99EC958820ED959C20ECA484EB8F842094
:20110000EBAABB20EB8298EAB094EB8BA420286275737920005B4E45545D20E2988520EC1D
:20112000A095ECA78020EAB090ECA7803A2000206F6E6C696E653D0020736B69703D00209A
:201140006269676F6B6C6F73743D00206F6B6C6F73743D00206269676F6B73743D002062B9
:20116000696764726F703D002062696766696C6C3D002070656E6466696C6C3D00207065D7
:201180006E6464726F703D00206F6B73747265616D3D0020636B73756D6E673D002073736D
:2011A0006F76663D0020736D6973733D00206F6F773D0020736C6F743D002061636B737414
:2011C000616C653D002061636B64726F703D002061636B713D0020737475636B3D00206F4C
:2011E0006B746F3D002073656E646661696C3D0020726573796E633D002068777273743D3B
:2012000000206573707273743D002064726F703D005B434E545D2075703D00730020757067
:201220003D00206C696E65733D002072783D00205B455350EBA6ACEC858BEC9CA0ECA780DB
:20124000ECA4915D0020EC82ACEB8BA4EBA6AC3D005B444941475D206F66666C696E652052
:20126000737465703D00ED9A8C2028EC849CEBB284EC9D982027EBB284EBA6B0ECA48427E8
:2012800020EAB3BC20EBA79EEC9584EC95BC20ED959CEB8BA42900204220C2B720ED9484A2
:2012A000EBA1ACED9484ED8AB820EC9EACEB8F99EAB8B020005B52414D5D20ECB59CECA066
:2012C0008020EC97ACEC9CA0200000000000240027002A0000000008000201000003040769
:2012E0000000000000000000222028005C780022005B4E45545D20EC86A1EC8BA020EC9801
:20130000A4EBA59820EC9D91EB8BB528EBA19CEAB7B8EBA78C2C20ECB9B4EC9AB4ED84B0D5
:20132000EB8A942073656E644C696E6520EC9DB420EC84BCEB8BA4293A20005B4E45545D6D
:2013400020E298852053454E44204641494C20E2809420ED8E98EC9DB4EBA19CEB939CEA36
:20136000B98CECA78020EC8DBCEB8A94EB8DB020ECA084EC86A1EC9DB420EC8BA4ED8CA8B3
:20138000ED9688EB8BA42E20EC8BA4ED8CA8EBA19C20EC84BCEB8BA4005B4E45545D206CE5
:2013A000696E6B206973206E6F742076616C696420E2869220ECA689EC8B9C20EC98A4EDB1
:2013C0009484EB9DBCEC9DB82C20EB82A1EC9D8020EC868CECBC9320EB8BABEAB8B02843B6
:2013E0004950434C4F534529005B4E45545D206F6E6C696E652028434F4E4E4543542920D6
:201400002B20ECBA90EC8B9C20EBB984EC9B80005B4E45545D206F6E6C696E652028414CD0
:20142000524541445920434F4E4E454354454420C2B720ECB488EAB8B020EAB2BDED95A9AD
:2014400029005B4E45545D20414C524541445920434F4E4E454354454420E2809420EB824C
:20146000A1EC9D8020EC868CECBC9320EC9D98EC8BAC20ECA491EC9DB4EBAF80EBA19C2025
:20148000EBAFBFECA78020EC958AEB8A94EB8BA420E2869220434950434C4F5345005B4E5D
:2014A00045545D206E6F20697020E2809420495020EAB08020EC9786EB8BA42E20434950CA
:2014C000535441525420EC9EACEC8B9CEB8F84EBA5BC20ECA091EAB3A02043574A4150209C
:2014E000EBA19C20EB9098EB8F8CEC9584EAB084EB8BA4005B4E45545D202020322E344774
:20150000487A20EC9DB8EAB080202F20ECA084ED8C8CEAB08020EB8BBFEB8A94EAB0802058
:201520002F205353494420ECB2A0EC9E90EAB08020EBA79EEB8A94EAB080EBA5BC20EBB419
:2015400090EB9DBC2E005B4E45545D20EC84A4ECA095ED959C205353494420EAB08020EBDF
:20156000AAA9EBA19DEC9790202A2AEC9786EB8BA42A2A20E2869220EBB984EBB28820EB5F
:20158000ACB8ECA09CEAB08020EC9584EB8B88EB8BA42E005B4E45545D20202032EC889CF9
:2015A000EC9C843A20EBB984EBB080EBB288ED98B820202033EC889CEC9C843A20504D4634
:2015C000283830322E313177292F5750413320ECA084ED9998EBAAA8EB939C20EB8184EA30
:2015E000B8B0005B4E45545D20202031EC889CEC9C843A20EC9C8420ECA484EC9D98202A32
:201600002AEBA788ECA780EBA78920EC88ABEC9E9028ECB184EB8490292A2A20EBA5BC20AE
:20162000EBB490EB9DBC2E2031322F313320EC9DB4EBA9B420EAB3B5EC9CA0EAB8B0EBA5D2
:20164000BC20312F362F313120EBA19C20EBB094EABF94EB9DBC005B4E45545D20EC84A49C
:20166000ECA095ED959C205353494420EAB08020EBAAA9EBA19DEC9790202A2AEC9E88EB93
:201680008BA42A2A20E2869220415020EB8A9420EBB3B4EC9DB8EB8BA42E20EAB2B0ED95EA
:2016A000A9EBA78C20EAB1B0EBB680EB909CEB8BA42E005B4E45545D20E29480E2948020AD
:2016C000415020EC8AA4ECBA9420ED8C90ECA09520E29480E29480E29480E29480E29480CD
:2016E000E29480E29480E29480E29480E29480E29480E29480E29480E29480E29480E294D8
:2017000080E29480E29480E29480E29480E29480E29480E29480E29480E29480E2948000AD
:201720005B4E45545D202020E2869220EAB3B5EC9CA0EAB8B020ECB184EB8490EC9D842057
:20174000312F362F313120EBA19C20EBB094EABEB8EB8A9420EAB283EC9DB420ED9995ECBF
:20176000A09520ED95B4EBB295EC9DB4EB8BA4005B4E45545D204357434F554E54525920A8
:20178000EBAFB8ECA780EC9B90284552524F522920E2809420EC9DB420ED8E8CEC9BA8EC3D
:2017A00096B4EBA19CEB8A9420ECB184EB84902031322F313320EC9D8420ECBD94EB939CB4
:2017C000EBA19C20EBAABB20EC97B0EB8BA42E005B4E45545D20E29885204357434F554E29
:2017E00054525920EAB08020EBA8B9EC9788EB8BA420E2809420EAB79CECA09CEB8F84EB9B
:20180000A994EC9DB820317E31332E20ECB184EB849020313220EAB2B0ED95A9EC9DB42032
:20182000EC97B4EBA0B8EC9D8420EC889820EC9E88EB8BA4005B4E45545D204349504D556C
:20184000583D3020ECA081EC9AA9EB90A820E28692204349505354415254005B4E45545D01
:2018600020E2988520495020ED9995EBB3B43A20005B4C41444445525D2032EB8BA83A207B
:20188000EAB2B0ED95A920ED95B4ECA09C20EC9984EBA38C20E2869220EAB9A8EB8197ED9B
:2018A000959C20EC8381ED839CEC9790EC849C2043574A415020EC9EACEC8B9CEB8F8400C0
:2018C0005B4E45545D2043574A4150204F4B20E2809420EAB2B0ED95A9EB9090EB8BA42E1A
:2018E00020495020EBA5BC20EC8BA4ECA09CEBA19C20EBB09BEC9598EB8A94ECA78020434A
:201900004946535220EBA19C20ED9995EC9DB8ED959CEB8BA400ED9A8C2028EAB5ACED986C
:201920009520ED8E8CEC9BA8EC96B4EB8A9420EC82ACEC9CA0EBA5BC20ECA3BCECA7802031
:20194000EC958AEB8A94EB8BA429005B4E45545D20E298852043574A415020EC8BA4ED8C29
:20196000A82000ECA091EC868D20EC8BA4ED8CA800EAB7B8205353494420EC9D9820415089
:2019800020EBA5BC20EBAABB20ECB0BEEC9598EB8BA400EBB984EBB080EBB288ED98B8EA2F
:2019A000B08020ED8B80EBA0B8EB8BA400ECA091EC868D20EC8B9CEAB084ECB488EAB3BC94
:2019C000005B4E45545D20E298852043574A415020EC8BA4ED8CA820EC82ACEC9CA03A209C
:2019E000005B4E45545D206275737920E280942045535020EAB08020EC959E20EBAA85EBA9
:201A0000A0B9EC9D8420ECB298EBA6AC20ECA491EC9DB4EB8BA42E20ECA084ECA784ED953E
:201A200098ECA78020EC958AEB8A94EB8BA4005B4E45545D205749464920444953434F4EDF
:201A40004E45435420E2809420495020EBA5BC20EC9E83EC9788EB8BA4005B4E45545D2010
:201A60005749464920474F5420495020E2809420495020ED9995EBB3B42E2039ECB4882049
:201A8000EB8C80EAB8B0ECB0BDEC9D8420EB819DEAB98CECA78020EAB8B0EB8BA4EBA6AC63
:201AA000ECA78020EC958AEAB3A020EBB094EBA19C20EB8BA4EC9D8C20EB8BA8EAB384EB9B
:201AC000A19C006D73005B534C4F542D4F4F575D202B005B41545D20005B41434B515D201D
:201AE000EAB080EB939D20ECB0B820E2809420EAB080EC9EA520EC98A4EB9E98EB909C201E
:201B0000EBB3B4EBA5982041434B20EBA5BC20EBB284EBA6B0EB8BA400000000002300260B
:201B200000290000000000250028002B0004040404040404040202020202020303030303C9
:201B400003010204081020408001020408102001020408102000BB21782F11241FBECFEFB2
:201B6000D8E0DEBFCDBF84B78093B80514BE0FB6F894A895809160008861809360001092AA
:201B800060000FBE12E0A0E0B1E0E0E0F8E602C005900D92AA37B107D9F725E0AAE7B2E0F0
:201BA00001C01D92A83BB207E1F71DE0CCEADDE004C02197FE010E94C330CB3AD107C9F724
:201BC0000E9466220C94F3330C94000024E030E080FD02C030E020E081FD226082FD216012
:201BE000265B3E4FF9018081FB0180831182089521E030E0A90102C0440F551F8A95E2F771
:201C0000CA012091F5043091F60424233923232B69F42091FB04222359F02091F70430919B
:201C2000F8042423392381E0232B19F080E0089581E00895833081F028F4813099F0823026
:201C4000A9F008958730A9F08830C9F08430B1F4809180008F7D03C0809180008F7780932A
:201C60008000089584B58F7784BD089584B58F7DFBCF8091B0008F778093B00008958091E3
:201C8000B0008F7DF9CF1F93CF93DF93282F30E0F901EC52FD4E8491F901EF5BF44ED49150
:201CA000F901E35DF44EC491CC23A9F0162F81110E941A0EEC2FF0E0EE0FFF1FED5DF44E98
:201CC000A591B4918FB7F894EC91111108C0D095DE23DC938FBFDF91CF911F910895DE2B07
:201CE000F8CFCF93DF9390E0FC01EF5BF44E2491835D944EFC0184918823C9F090E0880F5C
:201D0000991FFC01E653FD4EA591B491FC01ED5DF44EC591D49161110DC09FB7F8948C918D
:201D2000209582238C938881282328839FBFDF91CF910895623051F49FB7F8943C91822F29
:201D4000809583238C93E8812E2BEFCF8FB7F894EC912E2B2C938FBFEACF2FB7F894609158
:201D6000ED037091EE038091EF039091F0032FBF089521E0672B682B692B09F420E0622F97
:201D80008DE00E94430E81E00895EF92FF920F931F93CF93DF938C017B01D0E0C0E0F7015A
:201DA000EC0FFD1F6491662361F0D801ED91FC910190F081E02DC8010995892B11F0219677
:201DC000EECFCE01DF91CF911F910F91FF90EF900895AF92BF92CF92DF92EF92FF920F9394
:201DE0001F93CF93DF936C017B018B01040F151FEB015E01AE18BF08C017D10759F06991D7
:201E0000D601ED91FC910190F081E02DC6010995892B79F7C501DF91CF911F910F91FF90D3
:201E2000EF90DF90CF90BF90AF900895FC01538D448D252F30E0842F90E0821B930B54174F
:201E400010F0CF96089501970895FC01918D828D981761F0A28DAE0FBF2FB11D5D968C9169
:201E6000928D9F5F9F73928F90E008958FEF9FEF0895FC01918D828D981731F0828DE80F5C
:201E8000F11D858D90E008958FEF9FEF0895FC01918D228D892F90E0805C9F4F821B910979
:201EA0008F73992708958CEF94E00E94470F21E0892B09F420E0822F089580E090E0892B58
:201EC00029F00E94530F81110C9400000895FC01A48DA80FB92FB11DA35ABF4F2C91848DA2
:201EE00090E001968F739927848FA689B7892C93A089B1898C91837080648C93938D848D31
:201F0000981306C00288F389E02D80818F7D80830895EF92FF920F931F93CF93DF93EC0169
:201F200081E0888F9B8D8C8D98131AC0E889F989808185FF15C09FB7F894EE89FF89608352
:201F4000E889F98980818370806480839FBF81E090E0DF91CF911F910F91FF90EF900895B9
:201F6000F62E0B8D10E00F5F1F4F0F731127E02E8C8D8E110CC00FB607FCFACFE889F98909
:201F8000808185FFF5CFCE010E94670FF1CFEB8DEC0FFD2FF11DE35AFF4FF0829FB7F894C5
:201FA0000B8FEA89FB8980818062CFCF682F8CEF94E00C94890FCF93DF93EC01888D8823D0
:201FC000B9F0AA89BB89E889F9898C9185FD03C0808186FD0DC00FB607FCF7CF8C9185FF0C
:201FE000F2CF808185FFEDCFCE010E94670FE9CFDF91CF91089520913003309131032817BB
:20200000390771F490912E0380912F03981741F0E0912E03F0E0E251FD4F808190E00895A7
:202020008FEF9FEF08950895EF92FF920F931F93CF93DF93DC015C96ED90FC905D97E1145F
:20204000F10479F481E090E013969C938E93129790E080E0DF91CF911F910F91FF90EF90AD
:2020600008955196ED91FC91529750968C915097982F90950FB75E962C915E97122F1270E3
:2020800021FD6095F8942081112319F1282B2083E7012197F1F728E0462F50E0308160FF87
:2020A0001AC0382B3083E7012197F1F7BA0175956795215089F7112381F0808189238083A1
:2020C0000FBF5C968D919C910197F1F781E090E0C1CF2923DCCF3923E5CF9081892BEFCF8A
:2020E00020913003309131032817390761F480912F0320912E0390E0805C9F4F821B91099D
:202100008F739927089590E080E00895209130033091310328173907B9F490912E0380918B
:202120002F03981789F0E0912E03F0E0E251FD4F808120912E0330E02F5F3F4F2F73332749
:2021400020932E0390E008958FEF9FEF089590E080E00895282FDB01FC0191918D913FE9E0
:20216000390F3A3108F490523FE9380F3A3108F48052981306C08E2F821B841770F381E0FC
:20218000089580E00895FB0180839183FC0181E09191992391F09C32D9F7DF0111971C9201
:2021A000841750F4A82FB0E0AA0FBB1FA60FB71FED93FC938F5FECCF8FEF08951F93CF93D4
:2021C000DF93EB01009729F1FC012081222309F120E030E0A90111911123E9F080ED810FAD
:2021E0008A30B8F4AAE0B0E00E945730412F110F550B405351099A01550F440B550B260F76
:20220000371F481F591F2115310581E04807510510F380E003C03983288381E0DF91CF9159
:202220001F91089528E0829FC0011124DB0130E020E08158904FFC01E20FF31FE491ED9399
:20224000EE2339F02F5F3F4F23303105A1F7FB011382089510926F041092580410925704C9
:20226000109256041092E9041092EA048091CD039091CE038F3F980729F001969093CE035F
:202280008093CD0381E08093690486E0809368040E94AD0E609364047093650480936604F4
:2022A0009093670410920901109208010895CF93DF93382FDC01E0E02A2F231B261718F4E4
:2022C0002D91E227F9CFDC01A60FB11DCE2FD0E084E0D595C7958A95E1F7C65BDE4F8881EA
:2022E0008C93EF70F0E0E65BFE4F808111968C93119712961C9282E0860FDF91CF910895D9
:20230000CF93DF93EB01809368040E94AD0E60936404709365048093660490936704D093EC
:202320000901C0930801DF91CF910895FB0101900020E9F73197AF01461B570BDC01ED91A7
:20234000FC910280F381E02D09946FE771E08CEF94E00C949611CF93DF93BC018CEF94E0F3
:202360000E94C50EEC010E94A5118C0F9D1FDF91CF910895EF92FF920F931F93CF93DF93A5
:20238000EC014091E9042091EA0430E010E000E05CE0E52EF12C0417C8F4C901800F911FC7
:2023A000B7010E94AF30FC01EE0FFF1FEF52FB4F808191810F5F1F4F8C179D0761F7DF9143
:2023C000CF911F910F91FF90EF9008954C30D9F4C90101966CE070E00E94AF308093EA04DA
:2023E0008BE08093E9048091EB049091EC048F3F980729F001969093EC048093EB0489EDB9
:202400009AE10E94AB112091E9048091EA04820F9927991F6CE070E00E94AF30FC01EE0F26
:20242000FF1FEF52FB4FD183C0832F5F2093E904C6CFDC01822FE091CF042E2F30E095E0E5
:20244000E99FF0011124E158FB4FB183A0836283438384832F5F3F4F2F7033272093CF04A7
:202460009091D004903118F49F5F9093D004CD010C94BA118F929F92AF92BF92EF92FF9276
:202480000F931F93CF93DF93CDB7DEB7A1970FB6F894DEBF0FBECDBF7C01FA01CB0119A27D
:2024A000223008F42AE08E010F5D1F4F822E912CB12CA12CBF01A50194010E946A30F90113
:2024C000CA016A300CF5605DD8016E938D01232B242B252B79F790E080E0109721F0BD01CE
:2024E000C7010E949611A1960FB6F894DEBF0FBECDBFDF91CF911F910F91FF90EF90BF90D0
:20250000AF909F908F900895695CDECF2AE00C943A12482F50E070E060E02AE08CEF94E0F9
:202520000C943A12809158048F3F19F08F5F8093580461E879E08CEF94E00E94C50E8091F7
:2025400058040E9489128FE20E94D60F83E00E9489120E94A51180915804833080F063E718
:2025600079E08CEF94E00E94C50E809158040E94891280E299E00E94AB110C942A11089543
:20258000AB0170E060E02AE00C943A12CF93DF93BC018CEF94E00E94C012EC010E94A511D0
:2025A0008C0F9D1FDF91CF91089581E080936C048091CB039091CC038F3F980729F0019687
:2025C0009093CC038093CB036EEC78E08CEF94E00E94C50E8091CB039091CC030C94C612CB
:2025E000CF92DF92EF92FF92CF93DF930E94AD0E6B017C01D0E0C0E00E94AD0E6C197D0925
:202600008E099F09683771058105910578F489E995E00E947010892B79F389E995E00E942C
:202620008610CF3FDC0799F32196F1CF1092DE021092DD021092980361EC70E08CEF94E044
:202640000E94C50EBE018CEF94E00E94C01289E990E0DF91CF91FF90EF90DF90CF900C94B5
:20266000AB118F929F92AF92BF92CF92DF92EF92FF92CF93DF93C82F0E94AD0E6B017C01C5
:202680008091E302882319F18091DF029091E002A091E102B091E202A7019601281B390B9B
:2026A0004A0B5B0BDA01C901883E9340A105B10570F48AE195E0DF91CF91FF90EF90DF9034
:2026C000CF90BF90AF909F908F900C94AB1181E08093E302C092DF02D092E002E092E1023E
:2026E000F092E20269E075E08CEF94E00E94C50E69EF74E0C13031F068EE74E0C23011F017
:202700006DED74E08CEF94E00E94C50E6EEC74E08CEF94E00E94C50E8091320390913303F8
:20272000A0913403B0913503A7019601281B390B4A0B5B0BCA01B90128EE822E23E0922E29
:20274000A12CB12CA50194010E946A30BA01A9018CEF94E00E94861261EC74E08CEF94E03A
:202760000E94C50E809175040E9489126CEA74E08CEF94E00E94C50E8091700490917104F4
:20278000A0917204B09173040097A105B10509F45BC0A7019601281B390B4A0B5B0BCA0183
:2027A000B901A50194010E946A30BA01A9018CEF94E00E94861283E70E94D60F69E974E0C3
:2027C0008CEF94E00E94C50E8091DD030E94891264E974E08CEF94E00E94C50E8091DC0372
:2027E0000E94891288E894E00E94AB11109270041092710410927204109273048091DD030B
:20280000C23049F5833038F583E08093DD031092DC038AE294E00E94AB1180917504823057
:20282000F0F180916A0481113AC064EF71E087E0DF91CF91FF90EF90DF90CF90BF90AF9067
:202840009F908F900C94801165EA74E08CEF94E00E94C50EB3CF9091DC039E3F18F49F5F89
:202860009093DC03E82FF0E0ED5DFE4F20819091DC03921790F2853080F68F5F8093DD0300
:202880001092DC036AE074E08CEF94E00E94C50E8091DD030E94891286E094E0BCCF809111
:2028A000DD03E82FF0E0EE0FFF1FE95EFE4FC081D181823009F44BC0F8F4882309F441C0C0
:2028C0008130E9F18FE891E00E94AB118AE391E00E94AB1168E171E08CEF94E00E94C50EED
:2028E000CE0168EE73E00E949B308CEF94E00E94C0128CEE90E054C0833009F440C084302E
:2029000009F78EEF92E00E94AB118FEA92E00E94AB118FE492E00E94AB116FE372E08CEFBF
:2029200094E00E94C50ECE0168EE73E00E949B308CEF94E00E94C0128CEF91E031C00E94E7
:20294000F01210926D046CE271E083E071CF6FEE73E08CEF94E00E94C50ECE0168EE73E094
:202960000E949B308CEF94E00E94C01281EA93E00E94AB1110927604BE018AE059CF6AE88C
:2029800073E08CEF94E00E94C50ECE0168EE73E00E949B308CEF94E00E94C0128EE593E052
:2029A0000E94AB1110927604BE0180E041CFCF93DF93D0E0C0E0009731F0BC018CEF94E0E6
:2029C0000E949611EC010E94A5118C0F9D1FDF91CF910895AF92BF92CF92DF92EF92FF922F
:2029E0000F931F93CF93DF93CDB7DEB762970FB6F894DEBF0FBECDBFDC010D900020E9F7DC
:202A00009D0121503109281B390B122F4FEF420F4F3308F067C0FC01A0814A2F4B7F43349D
:202A200049F0A43539F0AD3429F04FEA4A0F423008F058C0B82FFC0150E040E06FEF7FEF4D
:202A400001910C3209F4BA014F5F5F4F4117C0F38C016F3F760789F13327261B370B233025
:202A6000310559F5FC01E60FF71F918120ED290F2A3030F08FEB890F8630F8F429EC290FF8
:202A8000328190ED930F9A3030F08FEB830F8630A0F499EC930F81E0860FF80140E03E2F81
:202AA0003B1B381718F431914327F9CF80E1289F90011124922B941731F18091BD03909107
:202AC000BE038F3F980729F001969093BE038093BD0362EC78E08CEF94E00E94C50EC8018E
:202AE0000E94D71462960FB6F894DEBF0FBECDBFDF91CF911F910F91FF90EF90DF90CF900E
:202B0000BF90AF900895A73409F019C146E0BE016F5F7F4FC8010E94C310188A1F86845002
:202B20008B3F00F7BE01615F7F4F8B819C810E94DE108823B9F21A8A198ABE016F5E7F4FD7
:202B40008D819E810E94DE10182FC12CD12C7601882389F1EF81F885309749F18081C12C0F
:202B6000D12C7601882331F10191002321F180ED800F8A30E0F4BAE9CB16B9E9DB06EB06CB
:202B8000B9E1FB06A0F4AAE0B0E0A70196010E945730202F000F330B205331096901330F8F
:202BA000EE08FF08C60ED71EE81EF91EDDCFC12CD12C760110E02F8538894091D0048FE7A5
:202BC00094E0E0E04E1759F00596DC0115976D917C912617370709F068C0E7FF68C0112306
:202BE00009F475C0A988BA888FEFA816B10411F008F06DC0A2E0AA1508F469C0F501EE0FC0
:202C0000FF1FE756FC4F0190F081E02D309709F45EC081E0C114D104E104F10409F480E0DB
:202C20008093A103C701B6010995882309F44FC081E090E002C0880F991FAA94E2F720915F
:202C40009F033091A0034091A1034423D9F1822B932B9093A00380939F0369EA78E08CEFBC
:202C600094E00E94C50E69897A898CEF94E00E94C01263EA78E08CEF94E00E94C50E2AE000
:202C8000B701A6018CEF94E00E943A120E94A51120E089899A896AE070E00E949B3040E341
:202CA000480F67E48F859889E2C0EF5F8BCF25E0E202F0011124E158FB4F808191810E94AC
:202CC000BA1110CF8095909582239323C2CF62EB78E08CEF94E00E94C50E69897A898CEFAB
:202CE00094E00E94C012111106C089E898E00E94AB1123E0CECF89899A898F3F910509F08B
:202D0000A0F7833048F4880F991FFC01E756FC4F80819181892B19F486E798E0E8CF6BE599
:202D200078E08CEF94E00E94C50E2AE0B701A6018CEF94E00E943A120E94A511DACFA135BA
:202D400051F481E08093F2031092F10388E198E00E94AB11C7CEBE016F5F7F4FCB01895B50
:202D6000954020910601309107018217930720F4909307018093060147E0C8010E94C3100C
:202D8000E82EBFEF8B1709F4ADCEE981FA81008145E0F42E023551F036E0F32E043531F09F
:202DA00053E0F52E0D3411F024E0F22EE2E0EE1508F098CEBE01615F7F4F8B819C810E941C
:202DC000DE10882309F48ECE8F8598894091D0042FE734E010E0411759F02B5F3F4FF9015A
:202DE0003597608171818617970791F417FF12C0EF14F9F06BEF77E08CEF94E00E94C50E8B
:202E00008F8598890E94C61223E04FE36FE34ACF1F5FE1CF6DE078E08CEF94E00E94C50E2C
:202E20008F8598890E94C61225E01202F001112442CF043509F050C0ED81FE812181211190
:202E400036C05081513469F05434A1F41092FB041092F8041092F7041092FA041092F90495
:202E600003C021E02093FB044FE36FE320E00E94191238CE533511F05835C9F4EF81F885C5
:202E800009851A85DF010D900020E9F79D01235031092E173F0759F441816081413339F421
:202EA000613409F439C171E0623409F436C14FE36FE323E0DCCF209530952A233B2361C132
:202EC00020953095F701E223F323F093F804E093F704F3CF24E0CBCF0D3409F0C1C080E0FD
:202EE0000E94F80DC82E882351F08091F10480FF06C02091F3043091F40420FF5BC081E002
:202F00000E94F80D882309F4FCC08091F10481FF06C02091F3043091F40421FF96C0C3942C
:202F2000D12CF12CE12C0E94E02FA70196010E943830062F162F80E00E94F80D882321F033
:202F40000150112351F0102F81E00E94F80D882309F4D9C01111D7C011E0E12EF12CCC245D
:202F6000C394D12C5601012E02C0AA0CBB1C0A94E2F78091F3049091F404A826B926B092A1
:202F8000F404A092F3048FEFE81AF80AA1E0EA22FF248E2D0E94F80D882389F102C0CC0CBD
:202FA000DD1CEA94E2F7AC24BD24B092F404A092F30425C041E050E010E090E080E06A014C
:202FC000C22AD32AD092F404C092F3047C01FFEFEF1AFF0A21E0E222FF248E2D0E94F80D5E
:202FE000882369F081E090E002C0880F991FEA94E2F78C299D299093F4048093F30402E40E
:20300000111101C001E469EB77E08CEF94E00E94C50E802F0E94D60F81E30E94D60F6AEA64
:2030200077E08CEF94E00E94C50E8091F3049091F40402C0969587951A95E2F78170992772
:203040000E94C61241E320E065C042E050E011E081E090E0B4CFC12CD12C7601C39463CF2C
:20306000ED81FE81DF010D900020E9F7CD0103978E179F0749F44181413331F46081613425
:2030800089F021E0623479F06AE977E08CEF94E00E94C50E8F8598890E94C6124FE36FE376
:2030A00023E000CE20E081E090E002C0880F991F2A95E2F70235A9F42091EF043091F00498
:2030C00028233923232BD9F42091F1043091F204FC01E223F323822B932BEF2B51F022E0F1
:2030E000E1CD809590952091F1043091F204822393239093F2048093F10420E0D3CD21E06E
:20310000D1CDC110A8CF8CEC97E00E94AB114FE30FE325E0602FC6CD70E0533569F4F80103
:2031200020812053223008F0C2CE21812111BFCE62E4711101C061E42091FB04222309F480
:20314000C9CE21E030E002C0220F331F7A95E2F7E090F704F090F804A091F904B091FA0446
:20316000533509F0ADCEF8015081F701E22BF32BF093F804E093F704503309F49CCE2A2B3A
:203180003B2B3093FA042093F90470CEBF92CF92DF92EF92FF920F931F93CF93DF938091AC
:2031A0007B0490917C04A0917D04B0917E040196A11DB11D80937B0490937C04A0937D046E
:2031C000B0937E0463ED7AE18CEF94E00E94C50E03EF13E0F80101900020E9F78F01045FB9
:2031E0001340B02E6FEE72E18CEF94E00E94C50E93EFE92E93E0F92E6701D0E0DB1528F532
:20320000F601C1916F0180EE8C0F8F3528F48C2F0E94D60FDF5FF2CF6CEE72E18CEF94E02F
:203220000E94C50EEC2FF0E084E0F595E7958A95E1F7E65BFE4F80810E94D60FCF70EC2F5D
:20324000F0E0E65BFE4F8081E3CF68EE72E18CEF94E00E94C50E802F0E94891289E20E9457
:20326000D60F0E94A51162E871E083EF93E00E94F430EC01892BE1F1C0907904D0907A04AD
:20328000F12CE12CF8E5CF16F2E0DF06E104F104E0F480917704909178048F3F980729F02E
:2032A0000196909378048093770466EC7AE18CEF94E00E94C50EB701A6018CEF94E00E9449
:2032C000861283EC9AE10E94AB116AE370E0CE010E94D2300097D9F10196DF91CF911F9186
:2032E0000F91FF90EF90DF90CF90BF900C94EA1444E050E068E871E083EF93E00E94E630D3
:20330000892B09F04DC06DE871E083EF93E00E94F430892B31F181E08093760410927504C3
:20332000109274040E94AD0E609370047093710480937204909373048AE59AE10E94AB11CC
:2033400080916F0468EC70E0882309F4E3C0DF91CF911F910F91FF90EF90DF90CF90BF90AF
:20336000089564E971E083EF93E00E94F430892B71F3109276048FE29AE10E94AB118091D8
:203380006F048111E4CF10927404DF91CF911F910F91FF90EF90DF90CF90BF900C9431132C
:2033A00080916F048111C1C1C0910A01CB3008F0BCC16FE971E083EF93E00E94F430892BA1
:2033C000F1F081EE99E10E94AB1180910A01833081F491E090936E046CED75E0DF91CF91FD
:2033E0001F910F91FF90EF90DF90CF90BF900C9480119CEF980F923008F0A9CFEDCFC2300F
:2034000009F08AC047E050E064EA71E083EF93E00E94E630892BA1F561EC79E18CEF94E0F6
:203420000E94C50E8091FA03823321F17CF48133A1F083EF93E0DF91CF911F910F91FF90F9
:20344000EF90DF90CF90BF900C94D7148333A9F0843379F783E699E102C08DEA99E1DF91C9
:20346000CF911F910F91FF90EF90DF90CF90BF900C94AB1183E999E1F2CF81E799E1EFCFCE
:203480006CE172E083EF93E00E94F430892B41F46CEA71E083EF93E00E94F430892BD9F02A
:2034A000809175048A3F18F48F5F8093750410927604109274046BE479E18CEF94E00E94C3
:2034C000C50E809175040E94891286E199E10E94AB1180E05ACF64E172E083EF93E00E946C
:2034E000DD30892B09F0D8C280EC98E10E94AB111092750410926D04109274040E94AD0E90
:20350000609370047093710480937204909373046CE271E083E062CFCA3009F564E172E0E7
:2035200083EF93E00E94DD30892B89F06CEA71E083EF93E00E94F430892B49F462EB71E0E9
:2035400083EF93E00E94F430892B09F4A5C281E798E10E94AB1164EF71E082E03FCFC33062
:2035600009F09AC243E050E068EB71E083EF93E00E94E630892B09F48FC283EF93E04AE051
:2035800001C0CD01DC012D91222309F477C220532A30B8F733E0833F930731F0FC013197B5
:2035A000208120532A3068F3FC0130E090E020E0819150ED580F5A3030F4249F800D1124DC
:2035C00020ED280FF5CF911101C0322F8E3211F49F5FEDCF9330A9F6332399F281E08093E9
:2035E000760410926D0410926C0410926E048091700490917104A0917204B0917304892BEA
:203600008A2B8B2B51F40E94AD0E609370047093710480937204909373046BE578E18CEF77
:2036200094E00E94C50E83EF93E00E94D71468EC70E084E0D3CE883069F564E172E083EF67
:2036400093E00E94DD30892BB1F06CEA71E083EF93E00E94F430892BB1F465ED71E083EF33
:2036600093E00E94F430892B09F45FC0109276048EE994E14EC080ED97E10E94AB116CE29A
:2036800071E089E0ABCE80E797E10E94AB1180E297E1F3CF893009F747E050E066EC71E06B
:2036A00083EF93E00E94E630892B69F46EEC71E083EF93E00E94F430892B09F448CE81E0DE
:2036C00080936B0444CE64E172E083EF93E00E94DD30892B49F06CEA71E083EF93E00E9410
:2036E000F430892B09F4B9CF81E080936A0483EB96E10E94AB1180916B04882379F087E548
:2037000096E10E94AB1183EE95E10E94AB1184E995E10E94AB1168EE73E01FCF86E495E1D7
:203720000E94AB1184EF94E1F4CF6BED71E083EF93E00E94F430892B09F45CC067E971E0BE
:2037400083EF93E00E94F430892B09F453C0809169048823B1F082E494E10E94AB1186E091
:20376000809368040E94AD0E60936404709365048093660490936704109209011092080144
:20378000E6CD81E080936F040E94AD0E6093600470936104809362049093630480915F04FC
:2037A000882371F080915D0490915E048F3F980729F0019690935E0480935D0410925F04ED
:2037C0000E94AD0E6093590470935A0480935B0490935C04109258041092F20381E08093DD
:2037E000F10310925704109256041092550480E194E135CEC701F7012081FFEFEF1AFF0AA7
:203800002032C1F32930B1F32053253028F4FC0121812C3209F40296FC0101900020E9F7A1
:203820003197E81BF90B2E2FE80FF92FF11D222309F473C03291303219F03B7F393011F464
:203840002150F5CF47E067E971E0273031F0263009F063C046E061EE71E00E94AA108823B4
:2038600009F45BC081E080936F040E94AD0E60936004709361048093620490936304809119
:203880005F04882371F080915D0490915E048F3F980729F0019690935E0480935D0410920C
:2038A0005F040E94AD0E6093590470935A0480935B0490935C04109258041092F20381E0AC
:2038C0008093F103109257041092560410926904109255041092750410926D048093760423
:2038E0008091700490917104A0917204B0917304892B8A2B8B2B51F40E94AD0E6093700426
:203900007093710480937204909373041092CF041092D00489EE93E1A2CD68EE71E083EFAE
:2039200093E00E94F430892BB9F46FEE71E083EF93E00E94F430892B79F466EF71E083EF5B
:2039400093E00E94F430892B39F480916F0481112EC083EF93E0C1CC10926F0410925804C4
:203960001092F20381E08093F103109257041092560410926904109255041092CF0410922E
:20398000D00483E0809368040E94AD0E609364047093650480936604909367048CE291E063
:2039A000909309018093080110926D04D0CC6DEF71E083EF93E00E94F430892B79F089E928
:2039C00093E10E94AB11DF91CF911F910F91FF90EF90DF90CF90BF900C942A1147E050E098
:2039E0006FE072E083EF93E00E94E630892B29F41092570410925604AACC49E050E067E1A8
:203A000072E083EF93E00E94E630892BF9F4109257041092560480915304909154048F3F6E
:203A2000980729F0019690935404809353048BE393E10E94AB11DF91CF911F910F91FF9063
:203A4000EF90DF90CF90BF900C9492126CEA71E083EF93E00E94F430892B49F46FE971E09A
:203A600083EF93E00E94F430892B09F472CF61EF72E18CEF94E00E94C50EDBCC61E272E066
:203A800083EF93E00E94DD30892B31F480916C04811102C00E94D51280910A01843009F092
:203AA000CACD64E172E083EF93E00E94DD30892B49F06CEB71E083EF93E00E94F430892B50
:203AC00009F4CBCD85E398E10E94AB1168EC70E085E084CCCF93DF93D82F8091D7039091D2
:203AE000D803A091D903B091DA030196A11DB11D8093D7039093D803A093D903B093DA0383
:203B0000DA3009F0B2C08091DD028823A1F066E870E08CEF94E00E94C50E80E60E9489125F
:203B200088E690E00E94AB111092DE021092DD02DF91CF9108954091DE024423C9F350E0D5
:203B4000FA01E358FD4F10821092DE028091E902882309F476C080919803811131C04F5F18
:203B60005F4F6DE772E088E393E00E94C93080917B0290917C02909337038093360381E041
:203B8000809398038091B1039091B2038F3F980729F001969093B2038093B1038091E80225
:203BA000803430F28091AF039091B0038F3F980709F4BECF01969093B0038093AF03B8CFE8
:203BC0006FE072E08DE792E00E94F4302091E802892BD1F08091B9039091BA038F3F980770
:203BE00029F001969093BA038093B903203460F08091B5039091B6038F3F980729F0019602
:203C00009093B6038093B5038091B3039091B4038F3F980729F001969093B4038093B3039E
:203C2000203408F485CF8091AD039091AE038F3F980709F47DCF01969093AE038093AD0369
:203C400077CF4F5F5F4F6DE772E083EF93E00E94C93080917B0290917C0290937A048093BB
:203C60007904DF91CF910C94C61880915704882309F441C080917A02E82FF0E0E15FFE4F63
:203C800090819D1333C08F5F873019F080937A0222C010927A021092570410925604809129
:203CA000BB039091BC038F3F980729F001969093BC038093BB038091E802803460F0809186
:203CC000B7039091B8038F3F980729F001969093B8038093B703DD3009F42ACFC091DE0252
:203CE000CF3560F081E08093DD0222CF81E0D33569F280E0CBCF10927A02EDCFC1110CC0F6
:203D00000E94AD0E2091CF033091D003621B730B70937C0260937B0281E08C0F8093DE0254
:203D2000EC2FF0E0E358FD4FD08302CF89E995E00E947010892B39F089E995E00E948610E8
:203D40000E946A1DF3CF8091B70580FF0FC08E7F8093B7058091BF039091C0038F3F98075D
:203D600029F001969093C0038093BF0308952F923F924F925F927F928F929F92AF92BF92E2
:203D8000CF92DF92EF92FF920F931F93CF93DF931F92CDB7DEB79E01285B354040910601DE
:203DA000509107012417350720F4309307012093060170906F04711015C0E12C8E2D0F90DA
:203DC000DF91CF911F910F91FF90EF90DF90CF90BF90AF909F908F907F905F904F903F905F
:203DE0002F9008959B0121503109203A310528F78B016C01E0905704EE2009F45AC00E94E6
:203E0000AD0E0091EA021091EB022091EC023091ED02DC01CB01801B910BA20BB30B80348E
:203E20002FE19207A105B10568F5803D9740A105B105B8F080915604811113C081E0809344
:203E400056048091C9039091CA038F3F980729F001969093CA038093C90388E497E00E94CC
:203E6000AB118091AB039091AC038F3F980729F001969093AC038093AB0380EF96E00E94C0
:203E8000AB119BCF10925704109256048091C7039091C8038F3F980729F001969093C80331
:203EA0008093C70384E996E00E94AB110E942A1184CF81E08093E9026093E8020E94AD0E1B
:203EC0008090E4029090E502A090E602B090E702681979098A099B09603571058105910543
:203EE00018F40E94961EEACF68E876E089E995E00E94C50E4801FFEF8F1A9F0AB40189E9F5
:203F000095E00E94C01265E876E089E995E00E94C50E0E94AD0E1B012C01B12CA12C0E94C7
:203F2000AD0E62197309840995096C3271408105910508F048C089E995E00E947010892B7C
:203F400071F389E995E00E948610F82E8EE3F81609F470C08F2D0E946A1D8FEB8F0D8A3156
:203F600010F4E0E2FE0EEA2DF0E0E15DFE4F8081A3948F1529F0AA24A394F2E6FF12A12C4D
:203F8000EA2DF0E0E15DFE4F8081882309F4B4C0EB2DF0E0E75DFE4F8081B3948F1529F014
:203FA000BB24B39425E6F212B12CEB2DF0E0E75DFE4F80818111BFCF92E0F92E8EED95E0CC
:203FC0000E94AB1167C083E0F82EB12CA12C63E289E995E00E941410C5018F7099270F970C
:203FE00011F40E94961E8FEFA81AB80A0A151B0571F76AE089E995E00E9414100E94961E70
:204000008091E2039091E3038F3F980729F001969093E3038093E20362EB75E08CEF94E0F4
:204020000E94C50EB4018CEF94E00E94C01284E795E0C6CFF12C0C0D1D1D560145018C18CD
:204040009D08F50161915F0189E995E00E941410FFE08F2299242FE08216910411F40E9496
:20406000961E0A151B0551F76AE089E995E00E9414100E94961E81E08093570410925604ED
:204080000E94AD0E6093EA027093EB028093EC029093ED020E94AD0E6093E4027093E502C1
:2040A0008093E6029093E7021092E90263E675E0F11002C06EE675E08CEF94E00E94C50EFE
:2040C000C6010E94D714F1E0FF1649F1F11019C0109258040E94AD0E6093590470935A0486
:2040E00080935B0490935C041092A6031092A7031092A803E72C62CEFF24F3948FE196E014
:204100005FCF0E94921222E0F21212C08091A6038F3F09F452CE8F5F8093A6034FCE8091D6
:20412000A8038F3F09F449CE8F5F8093A80346CE8091A7038F3F09F441CE8F5F8093A703F2
:204140003DCE1F920F920FB60F9211242F933F938F939F93AF93BF938091ED039091EE03D8
:20416000A091EF03B091F0033091EC0323E0230F2D3758F50196A11DB11D2093EC0380937A
:20418000ED039093EE03A093EF03B093F0038091E8039091E903A091EA03B091EB030196D3
:2041A000A11DB11D8093E8039093E903A093EA03B093EB03BF91AF919F918F913F912F91A5
:2041C0000F900FBE0F901F90189526E8230F0296A11DB11DD2CF1F920F920FB60F92112486
:2041E0002F933F934F935F936F937F938F939F93AF93BF93EF93FF938CEF94E00E94670F40
:20420000FF91EF91BF91AF919F918F917F916F915F914F913F912F910F900FBE0F901F9084
:2042200018951F920F920FB60F9211242F938F939F93EF93FF93E0910C05F0910D058081A4
:20424000E0911205F091130582FD1BC09081809115058F5F8F7320911605821741F0E091B0
:204260001505F0E0E450FB4F958F80931505FF91EF919F918F912F910F900FBE0F901F90AB
:2042800018958081F4CF1F920F920FB60F9211242F933F934F935F936F937F938F939F93F0
:2042A000AF93BF93EF93FF93E0913003F0913103309749F0A685B7858585968D91FF14C005
:2042C0009C918923A1F4FF91EF91BF91AF919F918F917F916F915F914F913F912F910F9071
:2042E0000FBE0F901F9018959C91892361F7A389B4899C918589809589238C938689978912
:204300000197F1F7608D718DA685B785558538E020E0CB010197F1F7822F90E09595879526
:20432000282F4C91452309F02068315091F7868D81FD209580912F0390E001968F73992705
:2043400030912E03381799F0A0912F03B0E0A251BD4F2C9380932F03828D938D0197F1F7EE
:20436000A389B4898C919589892B8C93ACCF868D8160868FF1CF1092FF041092FE0488EEC3
:2043800093E0A0E0B0E08093000590930105A0930205B09303052FE531E03093FD04209338
:2043A000FC0425EC30E0309309052093080524EC30E030930B0520930A0520EC30E03093B7
:2043C0000D0520930C0521EC30E030930F0520930E0522EC30E0309311052093100526EC7C
:2043E00030E030931305209312051092150510921605109217051092180510929C0510922D
:204400009B0580939D0590939E05A0939F05B093A00581E791E090939A05809399051092D4
:20442000B0051092AF051092B2051092B1051092B4051092B3051092B6051092B505609161
:20444000B7056E7F6D7F6093B7056695617081E0682787E00E94430E61E087E00E94710E39
:20446000E8E4FBE1E491E093A905E4E3FBE1E491F0E0EE0FFF1FED5DF44E85919491909311
:20448000AB058093AA0560E088E00E94710E8091B70581FD04C061E088E00E94430E88E0CE
:2044A0008093A505E9E4FBE1E491E093A605E5E3FBE1E491F0E0EE0FFF1FE75EF44E859162
:2044C00094919093A8058093A7050895CF93DF93CDB7DEB7C45DD1090FB6F894DEBF0FBEE8
:2044E000CDBF789484B5826084BD84B5816084BD85B5826085BD85B5816085BD80916E0033
:20450000816080936E001092810080918100826080938100809181008160809381008091F6
:2045200080008160809380008091B10084608093B1008091B00081608093B00080917A002D
:20454000846080937A0080917A00826080937A0080917A00816080937A0080917A00806884
:2045600080937A001092C100E0910C05F0910D0582E08083E0910805F09109051082E091C1
:204580000A05F0910B0580E1808310921405E0911005F091110586E08083E0910E05F091D1
:2045A0000F05808180618083E0910E05F0910F05808188608083E0910E05F0910F058081E3
:2045C00080688083E0910E05F0910F0580818F7D80831092B4051092B3051092B205109217
:2045E000B1051092B0051092AF058DE991E09093B6058093B5059091A505963108F047C035
:204600002DEB30E03093B0052093AF052BE931E03093B2052093B1052CE231E03093B405F0
:204620002093B3052091680084E0983048F031E09E3008F430E081E001C0880F3A95EAF73E
:20464000822B809368002DE630E0983050F02BE630E09E3030F02CE630E0963110F030E0FF
:2046600020E03093AD052093AC05292F30E0983008F038C281E001C0880F9A95EAF7809363
:20468000AE058091B5059091B6050197F1F78091B3059091B405892B49F1E0913003F0918A
:2046A000310315E0E939F10709F1309739F0A389B4899C918589809589238C938091B7057C
:2046C0008E7F8093B70510922F0310922E0389E995E09093310380933003E091AC05F09130
:2046E000AD0580819091AE05892B8083109268040E94AD0E609364047093650480936604CD
:204700009093670484EF91E090930901809308010E94AD0E6093CF037093D0038093D103FF
:204720009093D20381E480937C0080917A00806480937A0080917A0086FDFCCF409178006F
:2047400050917900052E000C660B770B3FB7F8948091E8039091E903A091EA03B091EB03F5
:2047600026B5A89B05C02F3F19F00196A11DB11D3FBFBA2FA92F982F8827820F911DA11D8A
:20478000B11D02E0880F991FAA1FBB1F0A95D1F78A019B01082719272A273B274817590708
:2047A0006A077B0721F0C901B8010E942F301092F6041092F504BAE7CB2EBFE0DB2EF60101
:2047C00084918F3F31F081E090E09093F6048093F504ABE7EA2EAFE0FA2EF70124918091BC
:2047E000F5049091F6042F3F29F082609093F6048093F5048091F50480FF05C0F6018491B9
:2048000062E00E94710E8091F50481FF05C0F701849162E00E94710E61E08DE00E94710EA7
:20482000FCE7AF2EFFE0BF2E10E000E01E01F2EA2F0E311CF5018491D1018C933196E4915F
:204840001196EC93119712961C9269E272E0C1010E94DD30892B09F052C1BE016F5F7F4F0B
:20486000802F0E94121189818F3449F4000F111FF801E756FC4F89EB9EE09183808310924F
:20488000FB041092F8041092F7041092FA041092F9041092F4041092F3046BE27BE08CEF49
:2048A00094E00E94C50E0E94A51162E27BE08CEF94E00E94C50EECE7FFE0E491E983EDE74D
:2048C000FFE0E491EA831B82BE016F5F7F4F8CEF94E00E9496118DE30E94D60F8091F504E6
:2048E00080FF17C164E17BE08CEF94E00E94C50EF60184910E94891280E20E94D60FE4E85F
:20490000FFE0E491E983E5E8FFE0E491EA831B82BE016F5F7F4F8CEF94E00E9496118DE3A9
:204920000E94D60F8091F50481FDFAC068E17BE08CEF94E00E94C50E80E20E94D60F0E941B
:20494000A51168EF7AE08CEF94E00E94C50E81E00E9489126EEE7AE08CEF94E00E94C50ED4
:2049600082E00E94891262EE7AE08CEF94E00E94C50E83E00E94891280ED9AE00E94AB11A5
:2049800069EB7AE08CEF94E00E94C50E8091B8058111D1C081E79AE00E94AB116AEE79E023
:2049A0008CEF94E00E94C50E6FEA79E08CEF94E00E94C50E6AE979E08CEF94E00E94C50E6D
:2049C00086E999E00E94AB119E012E553F4FC853DF4F39832883C85CD040AE0141545F4F0B
:2049E000CC53DF4F59834883C45CD040CE0186549F4FCA53DF4F99838883C65CD0400E94B6
:204A0000AD0E2B013C0180916F04882309F4BCC08091DD03882339F1809160049091610409
:204A2000A0916204B0916304A3019201281B390B4A0B5B0BDA01C90180339547A105B1052E
:204A400094F067E27FE08CEF94E00E94C50E8091DD030E94891282E29FE00E94AB111092B5
:204A6000DD031092DC030E94961E809198038823A9F080E6E8E3F3E0A3EFB3E001900D9236
:204A80008A95E1F7809136039091370390937A0480937904109298030E94C61810E000E0BC
:204AA000B12CA12CD02E8091FB04882309F49DC28091F7049091F804002E02C096958795D7
:204AC0000A94E2F780FF91C28091F9049091FA040D2C02C0969587950A94E2F7817009F0BD
:204AE000B8C2C0C29E3040F42850310981E001C0880F2A95EAF7C3CD2E503109F7CF0F5F31
:204B00001F4FB8E0AB0EB11C0330110509F092CEB6CE68E17BE08CEF94E00E94C50EECCE21
:204B200064E17BE08CEF94E00E94C50EF70184910E94891201CF80FF06C06EE57AE08CEFEA
:204B400094E00E94C50E8091B80581FF06C064E47AE08CEF94E00E94C50E8091B80582FF03
:204B600006C061E27AE08CEF94E00E94C50E8091B80583FF06C066E17AE08CEF94E00E9426
:204B8000C50E0E94A5110ACF8091DB03882379F077FC0DC01092DB030E94F0126CED75E0FC
:204BA00081E00E9480118BE49BE00E94AB118091DB03811158CF8091640490916504A0913D
:204BC0006604B0916704B301A201481B590B6A0B7B0B8091080190910901B0E0A0E04817F2
:204BE00059076A077B0708F43ECF80916804853059F480917604811107C082ED9EE00E9467
:204C0000AB1182E08093680410916804123091F480917404882309F455C0109274048091B2
:204C200075048A3F18F48F5F8093750481E00E94311319CF1B3008F060C0E12FF0E0ED5DF0
:204C4000F94D0C94C3302E263F267D26A526F0261127362779279A27BB27DF2768EE7DE0AD
:204C600089E995E00E94C50E6CED7DE08CEF94E00E94C50E0E94A511109274043EC06EECF4
:204C80007DE089E995E00E94C50E6DEB7DE08CEF94E00E94C50E0E94A51181E080930A016B
:204CA0004092640450926504609266047092670480E293E090930901809308011F5F109367
:204CC0006804D1CE6AE97DE089E995E00E94C50E63E67DE08CEF94E00E94C50E0E94A5115B
:204CE00081E0809374040E94AD0E6093320370933303809334039093350310930A014092E5
:204D00006404509265046092660470926704E12FF0E0EE0FFF1FEC5CFE4F80819181909351
:204D2000090180930801EEEFE10FE93038F6F0E0E456F94D0C94C330DD27C4260F273027DB
:204D400055279827B927DA27DD2768E57DE089E995E00E94C50E6AE27DE08CEF94E00E94F3
:204D6000C50E0E94A51183E080930A014092640450926504609266047092670484EC99E050
:204D8000909309018093080180916D048F5F80936D04833008F41CC180916E0410926D04B4
:204DA00010926E0481110C94692F80916C04811102C00E94D5128EE39EE00E94AB1182E008
:204DC0008093680480E00E94311380916804833009F049CE68EE73E082E00E94801143CE7F
:204DE0006CE17DE089E995E00E94C50E6BE07DE08CEF94E00E94C50E0E94A51184E08093D2
:204E00000A014092640450926504609266047092670480EB94E0909309018093080185E0AC
:204E2000D8C063EE7CE089E995E00E94C50E62ED7CE08CEF94E00E94C50E0E94A51185E005
:204E400080930A014092640450926504609266047092670480E49FE19093090180930801B9
:204E6000809169048823D9F286E0B3C064EC7CE089E995E00E94C50E6CE97CE08CEF94E0BD
:204E80000E94C50E0E94A51186E080930A014092640450926504609266047092670480E211
:204EA00093E09093090180930801809155048F5F80935504833008F48FC06EE27EE08CEF4B
:204EC00094E00E94C50E809155040E94891281EF9DE00E94AB111092680410926904109238
:204EE000550488EC90E0909309018093080182E09ECE63E97CE089E995E00E94C50E6CE608
:204F00007CE08CEF94E00E94C50E0E94A51187E080930A0140926404509265046092660413
:204F2000709267048CED95E0909309018093080188E04FC06DE47CE089E995E00E94C50E4D
:204F400063E17CE08CEF94E00E94C50E0E94A51188E080930A0140926404509265046092F8
:204F60006604709267048CED95E0909309018093080189E02EC068E07CE089E995E00E949F
:204F8000C50E6CED7BE08CEF94E00E94C50E0E94A51189E080930A014092640450926504C2
:204FA000609266047092670488E293E2909309018093080181E080936A0482E00AC061EDA4
:204FC0007BE089E995E00E94C50E6FE97BE04ECE83E08093680447CD83E0809368041092D1
:204FE0006D0441CD01E010E05DCD8091F5049091F6040D2C02C0969587950A94E2F780FFDA
:20500000ACC0F801E658F04FE4912E2F30E0F901EC52FD4E8491F901EF5BF44EE490F90140
:20502000E35DF44EF490FF20A1F081110E941A0EEF2DF0E0EE0FFF1FE75EF44EA591B49155
:20504000EC91EE2281E090E011F490E080E0892B49F481E090E002C0880F991FDA94E2F703
:20506000A82AB92A0130110509F0BCCFB092F004A092EF048091FB04882309F473C0409199
:20508000F7045091F804C553DF4F59834883CB5CD04080910401909105018A159B05C9F4DB
:2050A0002091F1043091F20480910201909103012817390771F48091000190910101C55329
:2050C000DF4FA881B981CB5CD0408A179B0709F452C08091AA03811103C081E08093AA0382
:2050E000C090CF03D090D003E090D103F090D2034091C3035091C4036091C5037091C60300
:20510000F0916F04E091A9032091C1033091C203D301C2018C199D09AE09BF09803B14E073
:205120009107A105B10550F1FF2339F0E11105C02F3F320711F02F5F3F4F10EBC10E14E0B6
:20514000D11EE11CF11C4F5F5F4F6F4F7F4F805B9440A109B109E0E0E1CF8091F3049091C2
:20516000F404B6CC8FEF9FEFC553DF4F99838883CB5CD0408ECF1092AA03B2CFE093A903B9
:205180003093C2032093C103C092CF03D092D003E092D103F092D2034093C3035093C403D7
:2051A0006093C5037093C60388539F4FAF4FBF4F89359240A105B10508F023C381E0E82759
:2051C000FF2309F490C08091590490915A04A0915B04B0915C04A3019201281B390B4A0B2F
:2051E0005B0BDA01C90180319742A105B1050CF40AC365E171E18CEF94E00E94C50E8091E4
:20520000590490915A04A0915B04B0915C04B301A201481B590B6A0B7B0B8CEF94E00E94D7
:2052200086126BEE70E18CEF94E00E94C50E8091A8030E9489126DED70E18CEF94E00E9493
:20524000C50E8091A7030E94891262ED70E18CEF94E00E94C50E8091A6030E9489126BEB32
:2052600070E18CEF94E00E94C50E6091AB037091AC038CEF94E00E94C0126AEA70E18CEFA7
:2052800094E00E94C50E6091C9037091CA038CEF94E00E94C0126DE970E18CEF94E00E94FF
:2052A000C50E60915304709154048CEF94E00E94C0126FE870E18CEF94E00E94C50E60911A
:2052C000CB037091CC038CEF94E00E94C0128EE690E10E94AB111092A6031092A703109251
:2052E000A8030E942A118091D3039091D403A091D503B091D603A3019201281B390B4A0B11
:205300005B0BDA01C90180369A4EA105B10508F4ABC180916F048823E1F08091CF0390911C
:20532000D003A091D103B091D20322E330E040E050E0281B390B4A0B5B0BDA01C901840DA2
:20534000951DA61DB71D89359240A105B10508F08BC14092D3035092D4036092D5037092A7
:20536000D60361E172E18CEF94E00E94C50EC301B20128EE33E040E050E00E946A30BA0174
:20538000A9018CEF94E00E9486126AE072E18CEF94E00E94C50E6091CD037091CE038CEF2B
:2053A00094E00E94C01261E072E18CEF94E00E94C50E6091CB037091CC038CEF94E00E94ED
:2053C000C01269EF71E18CEF94E00E94C50E70E060E08CEF94E00E94C0128FE20E94D60F02
:2053E00060915D0470915E048CEF94E00E94C01260EF71E18CEF94E00E94C50E6091E203BA
:205400007091E3038CEF94E00E94C01265EE71E18CEF94E00E94C50E609153047091540498
:205420008CEF94E00E94C0126EED71E18CEF94E00E94C50E6091C9037091CA038CEF94E07E
:205440000E94C01266ED71E18CEF94E00E94C50E6091C7037091C8038CEF94E00E94C012E5
:205460006FEC71E18CEF94E00E94C50E8091E9040E94891265EC71E18CEF94E00E94C50ED9
:205480006091EB047091EC048CEF94E00E94C0126AEB71E18CEF94E00E94C50E6091ED04EB
:2054A0007091EE048CEF94E00E94C01263EB71E18CEF94E00E94C50E4091C3035091C40353
:2054C0006091C5037091C6038CEF94E00E9486126DEA71E18CEF94E00E94C50E60917704A7
:2054E000709178048CEF94E00E94C01265EA71E18CEF94E00E94C50E6091C1037091C2034C
:205500008CEF94E00E94C0126DE971E18CEF94E00E94C50E6091BF037091C0038CEF94E0B6
:205520000E94C01263E971E18CEF94E00E94C50E6091BD037091BE038CEF94E00E94C0121F
:20554000E090BB03F090BC03C090B903D090BA030091B7031091B803A090B503B090B6032D
:2055600068E871E18CEF94E00E94C50EB7018CEF94E00E94C0126DE771E18CEF94E00E94D3
:20558000C50E6091B3037091B4038CEF94E00E94C01262E771E18CEF94E00E94C50E609186
:2055A000B1037091B2038CEF94E00E94C01268E671E18CEF94E00E94C50E6091AF03709176
:2055C000B0038CEF94E00E94C0126EE571E18CEF94E00E94C50E6091AD037091AE038CEFDE
:2055E00094E00E94C01264E571E18CEF94E00E94C50EB8018CEF94E00E94C0126BE471E107
:205600008CEF94E00E94C50EB6018CEF94E00E94C0126FE371E18CEF94E00E94C50EB5014E
:205620008CEF94E00E94C01268E371E18CEF94E00E94C50E6091AB037091AC038CEF94E0C8
:205640000E94C0126FE271E18CEF94E00E94C50E40916F0450E070E060E02AE08CEF94E0D2
:205660000E943A120E94A51180916F0481117FC08091DE039091DF03A091E003B091E10361
:20568000A3019201281B390B4A0B5B0BDA01C901883B9B40A105B10508F469C04092DE031A
:2056A0005092DF036092E0037092E10361E572E18CEF94E00E94C50E809168040E948912B4
:2056C00065E472E18CEF94E00E94C50E8091DD030E9489128FE20E94D60F8091DC030E9412
:2056E00089128091DB03882331F06FE272E18CEF94E00E94C50E6AE272E18CEF94E00E941C
:20570000C50E4091D7035091D8036091D9037091DA038CEF94E00E94861262E272E18CEF69
:2057200094E00E94C50E40917B0450917C0460917D0470917E048CEF94E00E9486126DE163
:2057400072E18CEF94E00E94C50EC301B20128EE33E040E050E00E946A30BA01A9018CEF86
:2057600094E00E9486128BE192E10E94AB118091E4039091E503A091E603B091E703A30154
:205780009201281B390B4A0B5B0BDA01C90180369A4EA105B10540F14092E4035092E503E1
:2057A0006092E6037092E70365EB72E18CEF94E00E94C50E60910601709107018CEF94E02B
:2057C0000E94C01267E972E18CEF94E00E94C50E6091E2037091E3038CEF94E00E94C0122E
:2057E00086E692E10E94AB1180E090E0892B09F406C90E94530F882309F4F8C80E9400000E
:20580000ECC8E0E0DDCCEE2309F46DCD4091F1045091F204C153DF4F59834883CF5CD04062
:205820000E94AD0E9B01AC012C193D094E095F09CF52DF4F288339834A835B83C15DD040E9
:20584000E090F203EE2009F477C11F9283E08F931F9287E08F938CE292E09F938F931F924B
:2058600081EA8F938E010F5F1F4F1F930F930E940E310FB6F894DEBF0FBECDBF1816190667
:205880000CF0B9C09C012D5F3F4F223A310508F0B2C0682FC8010E945711F80101900020CC
:2058A000E9F731974F01801A910A5CE7C52E5FE0D52EC653DF4F1882CA5CD040F601849120
:2058C000C154DF4F8883CF5BD0403196E491C054DF4FE883C05CD040CF53DF4F1882C15C24
:2058E000D040BE0166547F4FC653DF4F8881CA5CD0400E941211C953DF4FF881C75CD04010
:20590000FF93CA53DF4F2881C65CD0402F93CB53DF4F3881C55CD0403F93CC53DF4F4881EF
:20592000C45CD0404F9387E392E09F938F931F92B8E1BF933F922F920E940E310FB6F894C5
:20594000DEBF0FBECDBF181619060CF054C09C012D5F3F4F2931310508F04DC0682FC1014F
:205960000E945711F10101900020E9F731977F01E218F308C401805A91098E0D9F1D8F3509
:205980009F4FC8F194012F5F3F4FC353DF4F39832883CD5CD040F801E80DF91D3AE03083FA
:2059A000A7014F5F5F4FB101C353DF4F88819981CD5CD040800F911F0E94C930C353DF4F73
:2059C00088809980CD5CD0408E0C9F1CC653DF4F4881CA5CD0404F5FC653DF4F4883CA5CEC
:2059E000D04058E0C50ED11C433009F067CF8114910409F074C082EF9FE00E94AB11912C9B
:205A0000812CF12CE12C81E08093A90364E670E18CEF94E00E94C50E4091C3035091C40351
:205A20006091C5037091C6038CEF94E00E9486126FE570E18CEF94E00E94C50EB4018CEF81
:205A400094E00E94C01269E570E18CEF94E00E94C50E8F2D0E94891263E570E18CEF94E0DA
:205A60000E94C50ECF52DF4F488159816A817B81C15DD0408CEF94E00E9486128EE490E19E
:205A8000E11002C089E490E10E94AB110E94AD0EEE2009F428CC8091A4039091A5030196A3
:205AA0009093A5038093A403B0920501A0920401C153DF4FE881F981CF5CD040F0930301FB
:205AC000E0930201C553DF4F28813981CB5CD04030930101209300011092AA0304CCB40123
:205AE000C8010E94B71EE82E882309F4F8C11092F2038091A2039091A3038F3F980729F055
:205B000001969093A3038093A20364EE7FE08CEF94E00E94C50E6AED7FE08CEF94E00E9411
:205B2000C50EB4018CEF94E00E94C01282EE9FE00E94AB11F12C67CF2091EF043091F00481
:205B400080919F039091A003BE0161547F4F822B932B0E94E60DBE0166547F4F8091F1043F
:205B60009091F2040E94E60D1091A4030091A5038091FB04882309F44BC0B1018091F70477
:205B80009091F8040E94E60D0E94AD0E3F922F9220E432E03F932F9328EE33E040E050E041
:205BA0000E946A305F934F933F932F93C953DF4FB881C75CD040BF93CA53DF4FE881C65C63
:205BC000D040EF93CB53DF4FF881C55CD040FF93CC53DF4F2881C45CD0402F930F931F936F
:205BE00083E492E09F938F931F9280E48F93CE0101969F938F930E940E310FB6F894DEBFB8
:205C00000FBECDBF18161906DCF1912C812C92CF0E94AD0E20E432E03F932F9328EE33E016
:205C200040E050E00E946A305F934F933F932F93C953DF4F5881C75CD0405F93CA53DF4FDD
:205C40008881C65CD0408F93CB53DF4F9881C55CD0409F93CC53DF4FA881C45CD040AF9337
:205C60000F931F9389E592E09F938F931F9280E48F93CE0101969F938F930E940E31BDCF3E
:205C80009C012D5F3F4F2134310508F0BECF682F8E010F5F1F4FC8010E945711F8010190DE
:205CA0000020E9F73197E01BF10BEE2309F4ADCF4F019924F090E904FF2009F44BC08091E9
:205CC000EA0490E0FC01EE0FFF1FEF52FB4F40815181B091D0042FE734E0A0E0BA1709F4A3
:205CE00062C02B5F3F4FF9013597608171814617570709F056C0A7FD56C0F12C95E0D92EB4
:205D000028E1C22E3AE0E32E8091E904F81610F58091EA048F0D9927991F6CE070E00E94FD
:205D2000AF30FC01EE0FFF1FEF52FB4F408151813091D0048FE794E020E0321759F00596A2
:205D4000FC013597608171814617570709F046C027FF46C0B401CE0101960E94B71EE82E19
:205D6000882309F450CEFF2081F08091EA048F0D9927991F6CE070E00E94AF308093EA049C
:205D80008091E9048F198093E9048091F103882329F01092F10381E08093F203EE24E3940C
:205DA00032CEAF5F9BCF01966CE070E00E94AF308093EA04FA94F092E9048091ED04909196
:205DC000EE048F3F980729F001969093EE048093ED0484E99FE00E94AB116CCF2F5FADCF0C
:205DE0001D2D2103F0011124E158FB4F84811F928F938381282F082E000C330B3F938F93E5
:205E00008281282F082E000C330B3F938F9381818F9380818F932CE632E03F932F931F9204
:205E2000CF92C753DF4F5881C95CD0405F93C853DF4F8881C85CD0408F930E940E310FB66B
:205E4000F894DEBF0FBECDBF181619060CF082CF9C012D5F3F4F2931310508F07BCF682F06
:205E6000CE018E559F4F0E945711C853DF4FE881F981C85CD04001900020E9F73197AF010F
:205E8000C853DF4F28813981C85CD040421B530B5527C40101968A01080F191F013A110564
:205EA00008F058CFE1E0F0E0EC0FFD1FE80DF91DE0824F5F5F4FBE016E557F4FA1E0B0E0F1
:205EC000AC0FBD1F8A0F9B1F0E94C930F39448011BCF8BE79EE00E94AB110C94DB2664EE42
:205EE0007FE08CEF94E00E94C50E62ED7FE015CE81E791E090939A058093990580913003BE
:205F0000909131038959954071F4E091AC05F091AD0590818091AE05809589238083109280
:205F200031031092300308958F929F92AF92BF92CF92DF92EF92FF92CF93DF93EC01688149
:205F400079818A819B81611571058105910521F464E279ED8BE597E02DE133EF41E050E0EF
:205F60000E94383049015A019B01AC01A7EAB1E40E9457306B017C01ACEEB4EFA501940179
:205F80000E946530C60ED71EE81EF91EF7FE06C081E0C81AD108E10880E8F80AC882D98215
:205FA000EA82FB82C701B6019F77DF91CF91FF90EF90DF90CF90BF90AF909F908F9008953E
:205FC0008F929F92AF92BF92CF92DF92EF92FF9260910B0170910C0180910D0190910E019F
:205FE000611571058105910521F464E279ED8BE597E02DE133EF41E050E00E94383049011C
:206000005A019B01AC01A7EAB1E40E9457306B017C01ACEEB4EFA50194010E946530C60E21
:20602000D71EE81EF91EF7FE06C081E0C81AD108E10880E8F80AC0920B01D0920C01E092E5
:206040000D01F0920E01C701B6019F77FF90EF90DF90CF90BF90AF909F908F9008956093C4
:206060000B0170930C0180930D0190930E010895052E97FB1EF400940E944F3057FD07D05D
:206080000E946A3007FC03D04EF40C944F3050954095309521953F4F4F4F5F4F08959095BC
:2060A0008095709561957F4F8F4F9F4F08950E948C30A59F900DB49F900DA49F800D911DEC
:2060C00011240895B7FF0C9457300E945730821B930B0895A1E21A2EAA1BBB1BFD010DC0DF
:2060E000AA1FBB1FEE1FFF1FA217B307E407F50720F0A21BB30BE40BF50B661F771F881F3C
:20610000991F1A9469F760957095809590959B01AC01BD01CF010895A29FB001B39FC0010C
:20612000A39F700D811D1124911DB29F700D811D1124911D0895AA1BBB1B51E107C0AA1FD6
:20614000BB1FA617B70710F0A61BB70B881F991F5A95A9F780959095BC01CD01089597FB85
:20616000072E16F4009407D077FD09D00E949B3007FC05D03EF4909581959F4F08957095E6
:2061800061957F4F0895EE0FFF1F0590F491E02D0994FB01DC0102C001900D9241505040D3
:2061A000D8F70895FC018191861721F08823D9F7992708953197CF010895FB01DC018D91B2
:2061C000019080190110D9F3990B0895FB01DC014150504030F08D910190801919F40020E8
:2061E000B9F7881B990B0895FB0151915523A9F0BF01DC014D9145174111E1F759F4CD0100
:206200000190002049F04D9140154111C9F3FB014111EFCF81E090E001970895AEE0B0E023
:20622000E4E1F1E30C94CA330D891E898F89988D26E02C831A83098397FF02C080E090E8A0
:2062400001979E838D83AE01455E5F4F698D7A8DCE0101960E943E314D815E8157FD0AC036
:206260002F813885421753070CF49A01020F131FF80110822E96E4E00C94E633ABE0B0E039
:20628000E4E4F1E30C94BC337C013B018A01FC0117821682838181FFC8C1CE0101965C0191
:2062A000F7019381F30193FD859193FF81913F01882309F453C1853239F493FD859193FF7C
:2062C00081913F01853229F4B70190E00E942E33E7CF912C212C312CFFE1F31538F08B3283
:2062E00011F190F4803209F1833229F137FC3CC020ED280F2A3050F536FE20C08AE0989ED7
:20630000200D1124922E06C08D3291F0803371F7689430F8F30193FD859193FF81913F0198
:206320008111DACF21C0689431F8689432F8F2CF689433F8EFCF689434F8ECCFEAE02E9ED7
:20634000200D1124222E689435F8E4CF8E3229F436FC04C1689436F8DDCF8C3619F468943A
:2063600037F8D8CF8836B1F2982F9F7D95549330E0F08336A1F18337C1F1833509F063C0FC
:206380002801F2E04F0E511CF801C080D180692D70E036FC02C06FEF7FEFC6010E94183354
:2063A0004C01689437F882010AC00C5F1F4FFFE3F98388248394912C6501E89437F833FE1F
:2063C0002DC0522C8114910471F5552009F468CFB70180E290E00E942E335A94F6CFF801E0
:2063E000808189830E5F1F4FE4CF2801F2E04F0E511CF801C080D180692D70E036FC02C0D9
:206400006FEF7FEFC6010E9423334C018201D5CFB70180E290E00E942E332A9428141904D9
:2064200009F0B0F7CECFF60137FC859137FE81916F01B70190E00E942E3351105A94F1E0DD
:206440008F1A9108BFCF843619F0893609F077C0F80137FE6BC060817181828193810C5F0C
:206460001F4FF32DFF763F2E97FF09C090958095709561957F4F8F4F9F4F689437F82AE049
:2064800030E0A5010E945E33C82ECA188C2C432C36FE0CC0E89440F8C91440F434FE05C058
:2064A00032FC03C0F32DFE7E4F2E892C44FE95C0FE01EC0DF11D8081803309F087C0242D3B
:2064C000297E422E842D8870582E43FC95C040FE8FC09C2C821418F42C0C922C981844FE03
:2064E00091C0B70180E390E00E942E3342FE09C088E790E041FE02C088E590E0B7010E949D
:206500002E33C91408F48AC0CA94D12C9FEFC91AD90ACA0CDB1CF60182916F01B70190E0D9
:206520000E942E33AC14BD04B1F74FCF60817181072E000C880B990B0E5F1F4F92CFD32C8B
:20654000E894D4F82AE030E0853739F1232D297FD22E8F3601F148F48835A9F0F7018681B3
:2065600097812B96E2E10C94D833803749F08837A9F7D4FE02C06894D2F820E130E00DC04D
:206580006894D4F8F6CF34FE03C0822F8660D82E20E132E002C028E030E0F801D7FE0FC052
:2065A00060817181828193810C5F1F4FA5010E945E33C82ECA183D2CE89437F867CF60813C
:2065C000718190E080E00E5F1F4FF0CF42FC02C0839478CF8394839475CF842D867809F4E3
:2065E00071CFF6CFB70180E290E00E942E3383948214C0F3512C73CF522C5818821408F46A
:206600006ECFF8CF842D867809F47BCF8BE241FE80E247FC8DE2B70190E071CFB70180E33D
:2066200090E00E942E339A946CCF8FEF9FEF99CFFC010590615070400110D8F780959095FD
:206640008E0F9F1F0895FC016150704001900110D8F7809590958E0F9F1F08950F931F93ED
:20666000CF93DF93182F092FEB018B8181FD09C01FEF0FEF812F902FDF91CF911F910F91ED
:20668000089582FF14C02E813F818C819D81281739073CF4E881F981CF010196998388834E
:2066A00010838E819F8101969F838E83E3CFE885F985812F0995892BA1F3DACFFA01AA27A6
:2066C000283051F1203181F1E8946F936E7F6E5F7F4F8F4F9F4FAF4FB1E03ED0B4E03CD04E
:2066E000670F781F891F9A1FA11D680F791F8A1F911DA11D6A0F711D811D911DA11D20D049
:2067000009F468943F912AE0269F11243019305D3193DEF6CF010895462F4770405D419334
:20672000B3E00FD0C9F7F6CF462F4F70405D4A3318F0495D31FD4052419302D0A9F7EACFA7
:20674000B4E0A6959795879577956795BA95C9F700976105710508959B01AC010A2E0694E0
:206760005795479537952795BA95C9F7620F731F841F951FA01D08952F923F924F925F92A2
:206780006F927F928F929F92AF92BF92CF92DF92EF92FF920F931F93CF93DF93CDB7DEB7DE
:2067A000CA1BDB0B0FB6F894DEBF0FBECDBF09942A88398848885F846E847D848C849B84E2
:2067C000AA84B984C884DF80EE80FD800C811B81AA81B981CE0FD11D0FB6F894DEBF0FBEA4
:2067E000CDBFED0108951DE0CCEADDE004C0FE010E94C3302196CD3AD107C9F7F894FFCF0A
:20680000FEFFFFFFFFFFFFFFF401FF0100000053454E44204F4B00000000008813983A300B
:206820007560EA0102020202FF6572726F72006275737900C40920033075C409B004401F2F
:206840002003DC05DC052823B80B303132333435363738394142434445460000000000891A
:206860000FE90E160FDB0F470F250F390F000000001410E90EA710131070108610FB0F0D0F
:206880000A002B4950442C005749464900474F5420495000444953434F4E4E45435400629C
:2068A000757379002B43574A41503A004552524F52006E6F2061700041542B006E6F206325
:2068C00068616E6765002B43574C41503A0033465F333032006E6F20697000414C52454131
:2068E000004C494E4B454400434C4F53454400556E6C696E6B00554E4C494E4B006C696EA2
:206900006B206973206E6F742076616C69640053454E44204F4B0053454E44204641494C25
:2069200000302E302E302E30004C4400442C2A2C25752C25752C00442C25732C25732C0033
