:200000000C94E40C0C941B0D0C941B0D0C947F200C947F200C947F200C941B0D0C941B0D73
:200020000C941B0D0C941B0D0C941B0D0C941B0D0C941B0D0C941B0D0C941B0D0C941B0D80
:200040000C94DD1F0C941B0D0C944D200C9427200C941B0D0C941B0D0C941B0D0C941B0D28
:200060000C941B0D0C941B0D5B41434B515D20EAB080EB939D20ECB0B820E2809420EAB07F
:2000800080EC9EA520EC98A4EB9E98EB909C20EBB3B4EBA5982041434B20EBA5BC20EBB27F
:2000A00084EBA6B0EB8BA400EBB094EC9DB4ED8AB8EBA5BC20EB8498EC96B420EBB284EBF1
:2000C000A0B8EB8BA4005B44524F502D4F56465D20ECA484EC9DB42000EBB094EC9DB4EDBF
:2000E0008AB820EBB284EBA6BC202B20ECA48420ECA1B0EBA6BD20ECB488EAB8B0ED999452
:20010000005B4C41444445525D2031EB8BA820ECA1B0ECB9983A20EC8B9CEBA6ACEC96BC8A
:2001200020EB939CEBA088EC9DB82000ECB48820EBB0B1EC98A4ED9484EBA19C20EB9098F5
:20014000ED9280EC9DB4ED959CEB8BA428ECA285ECB0A9EC97AD29005B4C41444445525DEE
:20016000202020EB8C80EC8BA02034EB8BA820ECA1B0ECB998EBA5BC20005B4C41444445E4
:20018000525D202020ED9584EC9A9420EBB680ED92883A20EBA19CEC9AB0EC82ACEC9DB4D9
:2001A000EB939C204D4F5346455420EC8AA4EC9C84ECB99828EC98883A20324E37303030DF
:2001C0002F414F33343030202B2031306B29005B4C41444445525D20E29AA035EB8BA82026
:2001E000EBAFB8EC8BA4ED96893A20ECA084EC9B9020EC9EACED88ACEC9E85EC9D80202A2C
:200200002AEBB680ED928820EBAFB8EBB3B4EC9CA0EBA19C20EBAFB8EAB5ACED98842A2A5E
:20022000EC9DB4EB8BA400ECB48820EB8F99EC958820EC9EA1EB8A94EB8BA42028EAB7B8F4
:20024000EB8F99EC958820EBAAA8EB9388EC9D8020EABABCECA78420EAB283EAB3BC20EADD
:20026000B099EB8BA429005B4C41444445525D2034EB8BA820ECA1B0ECB9983A2045535040
:200280002052535420EC84A0EC9D842000ECB48820EC89ACEAB3A02041542B525354202821
:2002A000EBAAA8EB938820EC868CED9484ED8AB820EBA6ACEC858B29005B4C414444455220
:2002C0005D2033EB8BA820ECA1B0ECB9983A2000ECB48820EC89ACEAB3A02041542B43573C
:2002E00051415020EBA19C20EAB2B0ED95A9EC9D8420EBAA85EC8B9CECA081EC9CBCEBA106
:200300009C20EB818AEC9D8020EB92A420EB8BA4EC8B9C20EBB699EB8A94EB8BA4005B4C70
:2003200041444445525D2032EB8BA820ECA1B0ECB9983A2000EB8BA8005B4C414444455277
:200340005D20E28691E2869120EB8BA820EC8381EC8AB920E2869220005B4C414444455270
:200360005D20E286912033EB8BA82841542B5253542920ECA781ED968920E2809420415481
:2003800020EAB384ECB8B5EC9DB420EC9EA0EAB2BCEC9CBCEBA9B420EC9584EB9E9820EB07
:2003A0008BA8EC9D8020EC9D98EBAFB8EAB08020EC9786EB8BA400ED9A8C20EB8884ECA05B
:2003C000812900EB8BA8280020C2B720ED9884EC9EAC2000EC9786EC9D8C00ED9A8C20C202
:2003E000B720EAB2B0ED95A9EC9CA0ECA78020007320C2B720EC97B0EC868D20002920434A
:20040000574A4150EC868CEC9A94200043574A4150204641494C00415420EAB384ECB8B592
:2004200020EC9EA0EAB9800043574A415020EBACB4EC9D91EB8BB5005B4C41444445525DC6
:2004400020EC8BA4ED8CA828005B4C41444445525D2031ECB48820EC9588EC979020EB9361
:20046000A4EC96B4EC98A820ECA491EBB3B520EC8BA4ED8CA820EC8BA0ED98B820E28094FC
:2004800020EC84B8ECA78020EC958AEB8A94EB8BA4005B54582D44524F505D20005B5458C6
:2004A0005D2000EBB094EC9DB4ED8AB8EBA19C20EC8AA4ED8AB8EBA6BC20EBB3B5EAB5AC88
:2004C00028EC849CEBB284EB8A9420EC9DB420ECA484EC9D8420EBB284EBA6B0EB8BA4295B
:2004E000005B54582D524553594E435D20ED9484EBA1ACED9484ED8AB820EB8693ECB9A895
:2005000020E2869220EB8D94EBAFB820005B54582D52454A4543545D2043495053454E44AF
:2005200020EAB1B0EBB680284552524F522920E2809420EB8D94EBAFB8EBA5BC20EB84A342
:20054000ECA78020EC958AEB8A94EB8BA4005B54582D425553595D2045535020EAB0802004
:20056000EBB094EC8198EB8BA428EAB1B0EBB6802920E2809420EC8BA4ED8CA8EBA19C20B6
:20058000EC84B8ECA78020EC958AEB8A94EB8BA42E20EB8BA4EC9D8C20ECA3BCEAB8B0ECAC
:2005A000979020EB8BA4EC8B9C20EBB3B4EB82B8EB8BA4000D0A0041542B43495053454E7D
:2005C000443D005B54582D574149545D20E29885E2988520543220ECB488EAB3BC20E280ED
:2005E000942053454E44204F4B20EAB08020EB819DEB82B420EC958820EC98A8EB8BA42030
:20060000E2869220EBA781ED81ACEBA5BC20EB8BA4EC8B9C20EC84B8EC9AB4EB8BA4005B03
:2006200054582D574149545D20EC959E20ECA084EC86A1EC9D982053454E44204F4B20EB9D
:20064000A5BC20EC9584ECA78120EBAABB20EBB4A4EB8BA420E2809420EC9DB4EBB288205B
:20066000ECA3BCEAB8B0EB8A9420EAB1B4EB8488EB9BB4EB8BA4005B54582D574149545D54
:2006800020E2988520543120ECB488EAB3BC20E2809420EAB7B8EB9E98EB8F8420EAB38406
:2006A000EC868D20EAB8B0EB8BA4EBA6B0EB8BA428EB9190EB93A4EAB8B0ECA78020EC95F8
:2006C0008AEB8A94EB8BA429005B42414420534C4F545D207269643D0020E28692206F63BB
:2006E0006375706965643D005B53494D5D20ED959C20EAB1B8EC9D8C3A20005B53494D5DE1
:2007000020EBB094EABF8020EC8B9CEBAEAC20ECB9B8EC9DB420EC9786EB8BA420E28692D2
:2007200020726573756C743D35005B424144204649454C44535D207269643D005B44555052
:20074000207269645D20005B5245475D205120EC8898EC8BA020E2809420EB8BA4EC9D8C0E
:2007600020EC86A1EC8BA020ECB0BDEC979020EB93B1EBA19DEC9D8420EB8BA4EC8B9C20B1
:20078000EBB3B4EB82B8EB8BA400206F703D005B475D206964783D005B475D20EAB1B0EC95
:2007A000A088206964783D005B434B53554D204E475D20005B4E45545D20E29885204553E9
:2007C0005020EAB08020495020EBA5BC20EC9E83EC9788EB8BA420E2809420EBAAA8EB9327
:2007E0008820EBA6ACEC858BEC9CBCEBA19C20EBB3B8EB8BA42E20EB8884ECA08120EC823C
:20080000ACEAB1B42000ED9A8C20EC97B0EC868D20EC8BA4ED8CA820E2869220EC98A4EDAD
:200820009484EB9DBCEC9DB820ECA084ED99982E20EB82A1EC9D8020EC868CECBC93EBB66E
:2008400080ED84B020EB8BABEB8A94EB8BA428434950434C4F534529005B4E45545D20EC45
:20086000A084EC86A120005B4E45545D20ECA084EC86A120EC8BA4ED8CA82000EB819400C3
:2008800020C2B72036EB8BA828EC9B8CECB998EB8F85292000EBB0B0EC84A0EB90A82841A4
:2008A0003229005B424F4F545D20EC82ACEB8BA4EBA6AC2034EB8BA82845535020ED9598A4
:2008C000EB939CEBA6ACEC858BEC84A0292000EC9B8CECB998EB8F8520002A2AEBB88CEB8F
:2008E0009DBCEC9AB4EC9584EC9B8328ECA084EC9B90EBB680ECA1B1292A2A2000EC99B8CE
:20090000EBB680EBA6ACEC858B28EBB284ED8ABC2F445452292000ECA084EC9B90EC9DB837
:20092000EAB08028504F52292000EBB688EBAA852028EBB680ED8AB8EBA19CEB8D94EAB092
:2009400080204D4355535220EC9D8420ECA780EC9AB0EAB3A020EB8498EC96B4EC9994EB39
:200960008BA429005B424F4F545D20EBA6ACEC858B20EC9B90EC9DB83A2000206D6F647533
:200980006C6573202F206465763D50310020736C6F7473202F20000A5B5041524B494E4772
:2009A000204E4F44455D2070726F746F207631202F20005B4C41444445525D2034EB8BA834
:2009C0003A2045535020EBA6ACEC858B20ED95B4ECA09C20E2809420EBB680ED8C85EC9D20
:2009E0008420EAB8B0EB8BA4EBA0B8EB8BA4EAB0802043574D4F444520EBB680ED84B0200F
:200A0000EB8BA4EC8B9C005B4E45545D2031302043575141502028EAB2B0ED95A920ED958C
:200A2000B4ECA09C20E2809420EC82ACEB8BA4EBA6AC2032EB8BA8290041542B43575141AE
:200A4000500D0A005B4E45545D20392043574C41502028ECA3BCEBB38020415020EBAAA9E0
:200A6000EBA19D20E2809420ECA784EB8BA8290041542B43574C41500D0A005B4E45545DCC
:200A80002038204357434F554E5452592028ECB184EB84902031322F313320EC9AB0ED9AB5
:200AA0008C20EC8B9CEB8F8420E2809420ECA784EB8BA8290041542B4357434F554E5452B0
:200AC000595F4445463D302C224B52222C312C31330D0A005B4E45545D203720474D5220F5
:200AE00028ED8E8CEC9BA8EC96B420ED8C9020E2809420ECA784EB8BA8290041542B474D51
:200B0000520D0A005B4E45545D203620434950434C4F53452028EB82A1EC9D8020EC868C88
:200B2000ECBC9320EB8BABEAB8B0290041542B434950434C4F53450D0A005B4E45545D20D6
:200B4000352043495053544152540041542B43495053544152543D22544350222C2231398C
:200B6000322E3136382E302E3239222C393939310D0A005B4E45545D2034204349504D55AD
:200B8000583D300041542B4349504D55583D300D0A005B4E45545D203320434946535220CD
:200BA00028495020EBA5BC20EC8BA4ECA09CEBA19C20EBB09BEC9598EB8A94EAB0802900C2
:200BC00041542B43494653520D0A005B4E45545D20322043574A41502028EC9D91EB8BB5B4
:200BE000EAB98CECA78020ECB59CEB8C80203330ECB48820EAB8B0EB8BA4EBA6B0EB8BA4CD
:200C0000290041542B43574A41503D2233465F333032222C22303432343731393232322118
:200C200021220D0A005B4E45545D20312043574D4F44453D310041542B43574D4F44453D61
:200C4000310D0A005B4E45545D2030205253540041542B5253540D0A00ED9A8C20EC8BA426
:200C6000ED8CA820E286922041542B52535420EBA19C20ECA084ECB2B420ECB488EAB8B0FC
:200C8000ED999428EC82ACEB8BA4EBA6AC20EC8381EC8AB929005B4E45545D20434950435B
:200CA0004C4F534520005B4E45545D2043494653522033ED9A8CEC9790EB8F84204950205B
:200CC000EAB08020EC9786EB8BA420E286922043574A415020EBB680ED84B020EB8BA4EC80
:200CE0008B9C005B4E45545D2043494653522033ED9A8C20EC868CECA78420E2809420EADC
:200D0000B7B8EB9FACEB8298206275737920EAB1B0EBB680EC9880EB8BA42E20495020ECA9
:200D2000868CEC8BA4EBA19C20EC84B8ECA78020EC958AEB8A94EB8BA4005B4E45545D20F6
:200D4000495020EAB08020EC9786EB8BA420E2869220434950535441525420EBA5BC20EB62
:200D6000B3B4EB82B4ECA78020EC958AEAB3A02043574A415020EBA19C20EB9098EB8F8C5A
:200D8000EC9584EAB084EB8BA400EB8BA829005B4C41444445525D20E28693203330ECB42D
:200DA0008820EC97B0EC868D20EC98A8EB9DBCEC9DB820E2809420EC82ACEB8BA4EBA6ACE1
:200DC000EBA5BC2030EB8BA8EC9CBCEBA19C20EB82B4EBA6B0EB8BA42028ECA781ECA084E5
:200DE000200041310049500000024132004950000003413300495000000441340049500098
:200E0000000541350049500000064231004950000009423200495000000A4233004950007E
:200E2000000B423400495000000C423500495000000E4531004F425600FF5831004F4256A2
:200E400000FF5B41434B515D20ECBA90EC8B9CEC9790EC849C20EBB080EBA0A4EB829820A4
:200E6000EBA78CEB93A420EC889820EC9786EB8BA420E2809420EBB284EBA6B0EB8BA40011
:200E8000EC8BA4ED8CA82000ECA084EC86A1200042005B5245475D20EB93B1EBA19D200043
:200EA0005B5245475D20EB93B1EBA19D20EBB0B0ECB998EBA5BC20EBA78CEB93A4ECA780BD
:200EC00020EBAABBED9688EB8BA420E2809420EC9E98EBA6B020EB93B1EBA19DEC9D84203F
:200EE000EB82B4EBB3B4EB82B4ECA78020EC958AEB8A94EB8BA40020723D300020723D31FE
:200F000000206475653D002061636B3D002074783D005B534C4F545D206E3D005D20E286B7
:200F20009220EBA781ED81ACEBA5BC20EB8BA4EC8B9C20EC84B8EC9AB4EB8BA400202F202E
:200F4000455350EBA6ACEC858B2000202F2053454E444641494C2000202F2053454E444F93
:200F60004BEC8381ED959C20002920C2B720EB8884ECA0815BEAB1B4EB8488EB9C8020004A
:200F8000202F20EAB1B0EBB6802000202F20EBACB4EC9D91EB8BB520006D7320EB8F99EC38
:200FA000958820ED959C20ECA484EB8F8420EBAABB20EB8298EAB094EB8BA4202862757335
:200FC0007920005B4E45545D20E2988520ECA095ECA78020EAB090ECA7803A2000206F6EB2
:200FE0006C696E653D0020736B69703D00206269676F6B6C6F73743D00206F6B6C6F737411
:201000003D00206269676F6B73743D002062696764726F703D002062696766696C6C3D00C9
:201020002070656E6466696C6C3D002070656E6464726F703D00206F6B73747265616D3D89
:201040000020636B73756D6E673D002073736F76663D0020736D6973733D00206F6F773D6F
:201060000020736C6F743D002061636B7374616C653D002061636B64726F703D0020616387
:201080006B713D0020737475636B3D00206F6B746F3D002073656E646661696C3D00207261
:2010A0006573796E633D002068777273743D00206573707273743D002064726F703D005BD1
:2010C000434E545D2075703D0073002075703D00206C696E65733D002072783D00205B4558
:2010E0005350EBA6ACEC858BEC9CA0ECA780ECA4915D0020EC82ACEB8BA4EBA6AC3D005B32
:20110000444941475D206F66666C696E6520737465703D00ED9A8C2028EC849CEBB284ECCD
:201120009D982027EBB284EBA6B0ECA4842720EAB3BC20EBA79EEC9584EC95BC20ED959C4D
:20114000EB8BA42900204220C2B720ED9484EBA1ACED9484ED8AB820EC9EACEB8F99EAB8B5
:20116000B020005B52414D5D20ECB59CECA08020EC97ACEC9CA020000000000024002700BC
:201180002A000000000800020100000304070000000000000000222028005C780022005B51
:2011A0004E45545D20EC86A1EC8BA020EC98A4EBA59820EC9D91EB8BB528EBA19CEAB7B823
:2011C000EBA78C2C20ECB9B4EC9AB4ED84B0EB8A942073656E644C696E6520EC9DB420EC2D
:2011E00084BCEB8BA4293A20005B4E45545D20E298852053454E44204641494C20E28094B8
:2012000020ED8E98EC9DB4EBA19CEB939CEAB98CECA78020EC8DBCEB8A94EB8DB020ECA0A8
:2012200084EC86A1EC9DB420EC8BA4ED8CA8ED9688EB8BA42E20EC8BA4ED8CA8EBA19C2087
:20124000EC84BCEB8BA4005B4E45545D206C696E6B206973206E6F742076616C696420E23C
:20126000869220ECA689EC8B9C20EC98A4ED9484EB9DBCEC9DB82C20EB82A1EC9D8020ECC7
:20128000868CECBC9320EB8BABEAB8B028434950434C4F534529005B4E45545D206F6E6CC3
:2012A000696E652028434F4E4E45435429202B20ECBA90EC8B9C20EBB984EC9B80005B4ECB
:2012C00045545D206F6E6C696E652028414C524541445920434F4E4E454354454420C2B7DD
:2012E00020ECB488EAB8B020EAB2BDED95A929005B4E45545D20414C524541445920434F14
:201300004E4E454354454420E2809420EB82A1EC9D8020EC868CECBC9320EC9D98EC8BACC2
:2013200020ECA491EC9DB4EBAF80EBA19C20EBAFBFECA78020EC958AEB8A94EB8BA420E211
:20134000869220434950434C4F5345005B4E45545D206E6F20697020E2809420495020EA95
:20136000B08020EC9786EB8BA42E20434950535441525420EC9EACEC8B9CEB8F84EBA5BC8F
:2013800020ECA091EAB3A02043574A415020EBA19C20EB9098EB8F8CEC9584EAB084EB8B24
:2013A000A4005B4E45545D202020322E3447487A20EC9DB8EAB080202F20ECA084ED8C8CEE
:2013C000EAB08020EB8BBFEB8A94EAB080202F205353494420ECB2A0EC9E90EAB08020EB3C
:2013E000A79EEB8A94EAB080EBA5BC20EBB490EB9DBC2E005B4E45545D20EC84A4ECA09584
:20140000ED959C205353494420EAB08020EBAAA9EBA19DEC9790202A2AEC9786EB8BA42AC6
:201420002A20E2869220EBB984EBB28820EBACB8ECA09CEAB08020EC9584EB8B88EB8BA40D
:201440002E005B4E45545D20202032EC889CEC9C843A20EBB984EBB080EBB288ED98B820F2
:20146000202033EC889CEC9C843A20504D46283830322E313177292F5750413320ECA08434
:20148000ED9998EBAAA8EB939C20EB8184EAB8B0005B4E45545D20202031EC889CEC9C8429
:2014A0003A20EC9C8420ECA484EC9D98202A2AEBA788ECA780EBA78920EC88ABEC9E902834
:2014C000ECB184EB8490292A2A20EBA5BC20EBB490EB9DBC2E2031322F313320EC9DB4EBE4
:2014E000A9B420EAB3B5EC9CA0EAB8B0EBA5BC20312F362F313120EBA19C20EBB094EABFD0
:2015000094EB9DBC005B4E45545D20EC84A4ECA095ED959C205353494420EAB08020EBAA9F
:20152000A9EBA19DEC9790202A2AEC9E88EB8BA42A2A20E2869220415020EB8A9420EBB320
:20154000B4EC9DB8EB8BA42E20EAB2B0ED95A9EBA78C20EAB1B0EBB680EB909CEB8BA42EAE
:20156000005B4E45545D20E29480E2948020415020EC8AA4ECBA9420ED8C90ECA09520E24F
:201580009480E29480E29480E29480E29480E29480E29480E29480E29480E29480E294809B
:2015A000E29480E29480E29480E29480E29480E29480E29480E29480E29480E29480E29419
:2015C00080E29480E29480E29480E29480005B4E45545D202020E2869220EAB3B5EC9CA020
:2015E000EAB8B020ECB184EB8490EC9D8420312F362F313120EBA19C20EBB094EABEB8EB23
:201600008A9420EAB283EC9DB420ED9995ECA09520ED95B4EBB295EC9DB4EB8BA4005B4E4C
:2016200045545D204357434F554E54525920EBAFB8ECA780EC9B90284552524F522920E24D
:20164000809420EC9DB420ED8E8CEC9BA8EC96B4EBA19CEB8A9420ECB184EB849020313299
:201660002F313320EC9D8420ECBD94EB939CEBA19C20EBAABB20EC97B0EB8BA42E005B4E57
:2016800045545D20E29885204357434F554E54525920EAB08020EBA8B9EC9788EB8BA4205C
:2016A000E2809420EAB79CECA09CEB8F84EBA994EC9DB820317E31332E20ECB184EB8490A7
:2016C00020313220EAB2B0ED95A9EC9DB420EC97B4EBA0B8EC9D8420EC889820EC9E88EBC3
:2016E0008BA4005B4E45545D204349504D55583D3020ECA081EC9AA9EB90A820E286922000
:201700004349505354415254005B4E45545D20E2988520495020ED9995EBB3B43A20005BA6
:201720004C41444445525D2032EB8BA83A20EAB2B0ED95A920ED95B4ECA09C20EC9984EBCD
:20174000A38C20E2869220EAB9A8EB8197ED959C20EC8381ED839CEC9790EC849C204357BF
:201760004A415020EC9EACEC8B9CEB8F84005B4E45545D2043574A4150204F4B20E2809423
:2017800020EAB2B0ED95A9EB9090EB8BA42E20495020EBA5BC20EC8BA4ECA09CEBA19C208F
:2017A000EBB09BEC9598EB8A94ECA78020434946535220EBA19C20ED9995EC9DB8ED959C45
:2017C000EB8BA400ED9A8C2028EAB5ACED989520ED8E8CEC9BA8EC96B4EB8A9420EC82AC60
:2017E000EC9CA0EBA5BC20ECA3BCECA78020EC958AEB8A94EB8BA429005B4E45545D20E2DF
:2018000098852043574A415020EC8BA4ED8CA82000ECA091EC868D20EC8BA4ED8CA800EA38
:20182000B7B8205353494420EC9D9820415020EBA5BC20EBAABB20ECB0BEEC9598EB8BA46B
:2018400000EBB984EBB080EBB288ED98B8EAB08020ED8B80EBA0B8EB8BA400ECA091EC86C5
:201860008D20EC8B9CEAB084ECB488EAB3BC005B4E45545D20E298852043574A415020ECAA
:201880008BA4ED8CA820EC82ACEC9CA03A20005B4E45545D206275737920E28094204553EC
:2018A0005020EAB08020EC959E20EBAA85EBA0B9EC9D8420ECB298EBA6AC20ECA491EC9D77
:2018C000B4EB8BA42E20ECA084ECA784ED9598ECA78020EC958AEB8A94EB8BA4005B4E455C
:2018E000545D205749464920444953434F4E4E45435420E2809420495020EBA5BC20EC9EF9
:2019000083EC9788EB8BA4005B4E45545D205749464920474F5420495020E280942049509F
:2019200020ED9995EBB3B42E2039ECB48820EB8C80EAB8B0ECB0BDEC9D8420EB819DEAB9D0
:201940008CECA78020EAB8B0EB8BA4EBA6ACECA78020EC958AEAB3A020EBB094EBA19C200D
:20196000EB8BA4EC9D8C20EB8BA8EAB384EBA19C006D73005B534C4F542D4F4F575D202B6A
:20198000005B41545D20000000000023002600290000000000250028002B000404040404DC
:2019A0000404040202020202020303030303030102040810204080010204081020010204B8
:2019C00008102000F720DA2D11241FBECFEFD8E0DEBFCDBF84B78093B40514BE0FB6F894D6
:2019E000A89580916000886180936000109260000FBE12E0A0E0B1E0ECEDF4E602C0059001
:201A00000D92A837B107D9F725E0A8E7B2E001C01D92A43BB207E1F71CE0C3EEDCE004C08D
:201A20002197FE010E94312FC23ED107C9F70E94A2210C9461320C9400000F931F93CF9367
:201A4000DF93DB0150E040E030E020E061E070E0CBE0D0E0FB01042E02C0EE0FFF1F0A9443
:201A6000E2F7E823F923EF2B61F0FE01E41BF50B8B0102C0000F111FEA95E2F7F801202BD4
:201A80003F2B4F5F5F4F4C30510521F7F901EF70FF27E65BFE4F808112968C931297F9011E
:201AA00084E0F695E7958A95E1F7EF70FF27E65BFE4F808111968C931197232F3327F9019C
:201AC000E65BFE4F80818C9313961C92DF91CF911F910F910895833081F028F4813099F0CA
:201AE0008230A9F008958730A9F08830C9F08430B1F4809180008F7D03C0809180008F77ED
:201B000080938000089584B58F7784BD089584B58F7DFBCF8091B0008F778093B000089542
:201B20008091B0008F7DF9CF1F93CF93DF93282F30E0F901EE57FE4E8491F901E155F64E0F
:201B4000D491F901E556F64EC491CC23A9F0162F81110E946B0DEC2FF0E0EE0FFF1FEF568E
:201B6000F64EA591B4918FB7F894EC91111108C0D095DE23DC938FBFDF91CF911F9108952D
:201B8000DE2BF8CFCF93DF9390E0FC01E155F64E24918556964EFC0184918823C9F090E060
:201BA000880F991FFC01E858FE4EA591B491FC01EF56F64EC591D49161110DC09FB7F89470
:201BC0008C91209582238C938881282328839FBFDF91CF910895623051F49FB7F8943C911F
:201BE000822F809583238C93E8812E2BEFCF8FB7F894EC912E2B2C938FBFEACF2FB7F894FA
:201C0000609164047091650480916604909167042FBF0895EF92FF920F931F93CF93DF9335
:201C20008C017B01D0E0C0E0F701EC0FFD1F6491662361F0D801ED91FC910190F081E02D7A
:201C4000C8010995892B11F02196EECFCE01DF91CF911F910F91FF90EF900895AF92BF92C8
:201C6000CF92DF92EF92FF920F931F93CF93DF936C017B018B01040F151FEB015E01AE188B
:201C8000BF08C017D10759F06991D601ED91FC910190F081E02DC6010995892B79F7C5014B
:201CA000DF91CF911F910F91FF90EF90DF90CF90BF90AF900895FC01538D448D252F30E0EB
:201CC000842F90E0821B930B541710F0CF96089501970895FC01918D828D981761F0A28DAB
:201CE000AE0FBF2FB11D5D968C91928D9F5F9F73928F90E008958FEF9FEF0895FC01918D3A
:201D0000828D981731F0828DE80FF11D858D90E008958FEF9FEF0895FC01918D228D892F86
:201D200090E0805C9F4F821B91098F739927089588EF94E00E948C0E21E0892B09F420E0FA
:201D4000822F089580E090E0892B29F00E94980E81110C9400000895FC01A48DA80FB92FB4
:201D6000B11DA35ABF4F2C91848D90E001968F739927848FA689B7892C93A089B1898C9132
:201D8000837080648C93938D848D981306C00288F389E02D80818F7D80830895EF92FF92D9
:201DA0000F931F93CF93DF93EC0181E0888F9B8D8C8D98131AC0E889F989808185FF15C083
:201DC0009FB7F894EE89FF896083E889F98980818370806480839FBF81E090E0DF91CF9172
:201DE0001F910F91FF90EF900895F62E0B8D10E00F5F1F4F0F731127E02E8C8D8E110CC014
:201E00000FB607FCFACFE889F989808185FFF5CFCE010E94AC0EF1CFEB8DEC0FFD2FF11D5D
:201E2000E35AFF4FF0829FB7F8940B8FEA89FB8980818062CFCF682F88EF94E00C94CE0EB3
:201E4000CF93DF93EC01888D8823B9F0AA89BB89E889F9898C9185FD03C0808186FD0DC03B
:201E60000FB607FCF7CF8C9185FFF2CF808185FFEDCFCE010E94AC0EE9CFDF91CF910895E1
:201E800020912E0330912F032817390771F490912C0380912D03981741F0E0912C03F0E0A8
:201EA000E451FD4F808190E008958FEF9FEF08950895EF92FF920F931F93CF93DF93DC0136
:201EC0005C96ED90FC905D97E114F10479F481E090E013969C938E93129790E080E0DF9109
:201EE000CF911F910F91FF90EF9008955196ED91FC91529750968C915097982F90950FB710
:201F00005E962C915E97122F127021FD6095F8942081112319F1282B2083E7012197F1F75C
:201F200028E0462F50E0308160FF1AC0382B3083E7012197F1F7BA0175956795215089F7BA
:201F4000112381F08081892380830FBF5C968D919C910197F1F781E090E0C1CF2923DCCF49
:201F60003923E5CF9081892BEFCF20912E0330912F032817390761F480912D0320912C0304
:201F800090E0805C9F4F821B91098F739927089590E080E0089520912E0330912F032817F0
:201FA0003907B9F490912C0380912D03981789F0E0912C03F0E0E451FD4F808120912C03A9
:201FC00030E02F5F3F4F2F73332720932C0390E008958FEF9FEF089590E080E00895282F7D
:201FE000DB01FC0191918D913FE9390F3A3108F490523FE9380F3A3108F48052981306C0F6
:202000008E2F821B841770F381E0089580E00895FB0180839183FC0181E09191992391F09D
:202020009C32D9F7DF0111971C92841750F4A82FB0E0AA0FBB1FA60FB71FED93FC938F5F6B
:20204000ECCF8FEF08951F93CF93DF93EB01009729F1FC012081222309F120E030E0A901F0
:2020600011911123E9F080ED810F8A30B8F4AAE0B0E00E94B92E412F110F550B40535109CE
:202080009A01550F440B550B260F371F481F591F2115310581E04807510510F380E003C090
:2020A0003983288381E0DF91CF911F91089540913304509134046091350470913604811123
:2020C00010C0CB01BA0124E130E040E050E00E94CC2E21E06A3071058105910580F020E00B
:2020E0000EC0CB01BA012EE030E040E050E00E94CC2E21E0673071058105910580F7822F2F
:2021000008951092E8041092D1041092D0041092CF0410923B0410920A0480914404909127
:2021200045048F3F980729F00196909345048093440481E08093E20486E08093E1040E9418
:20214000FE0D6093DD047093DE048093DF049093E004109209011092080108951F93CF93B6
:20216000DF93EC0180914004909141048F3F980729F00196909341048093400411E01093D5
:20218000D80461E080E10E94C20D60E080E10E94940D109352040E94FE0D6C0F7D1F811D11
:2021A000911D609330037093310380933203909333031092E8041092EF041092ED04DF914D
:2021C000CF911F910895CF93DF93382FDC01E0E02A2F231B261718F42D91E227F9CFDC012E
:2021E000A60FB11DCE2FD0E084E0D595C7958A95E1F7C65BDE4F88818C93EF70F0E0E65BA8
:20220000FE4F808111968C93119712961C9282E0860FDF91CF910895CF93DF93EB01809375
:20222000E1040E94FE0D6093DD047093DE048093DF049093E004D0930901C0930801DF911D
:20224000CF910895E0916904AE2FB0E035E0E39FF0011124EE55FC4F918380836283438329
:2022600024831196AF70BB27A093690480916804803118F48F5F809368040895BC0140919D
:20228000680422EA33E090E0491771F02B5F3F4FF90135970190F081E02DE617F70711F495
:2022A000892F08959F5FF0CF8FEF089590911A04992391F021E030E002C0220F331F8A9500
:2022C000E2F780911804909119042823392381E0232B19F080E0089581E00895FB010190D3
:2022E0000020E9F73197AF01461B570BDC01ED91FC910280F381E02D09946FE771E088EFFD
:2023000094E00C946E11CF93DF93BC0188EF94E00E940A0EEC010E947D118C0F9D1FDF9110
:20232000CF910895EF92FF920F931F93CF93DF93EC0140913B0420910A0430E010E000E0CA
:202340005CE0E52EF12C0417C8F4C901800F911FB7010E941D2FFC01EE0FFF1FEE50FC4FEA
:20236000808191810F5F1F4F8C179D0761F7DF91CF911F910F91FF90EF9008954C30D9F4BB
:20238000C90101966CE070E00E941D2F80930A048BE080933B048091390490913A048F3FF9
:2023A000980729F0019690933A048093390488E690E00E94831120913B0480910A04820F69
:2023C0009927991F6CE070E00E941D2FFC01EE0FFF1FEE50FC4FD183C0832F5F20933B0443
:2023E000C6CF8F929F92AF92BF92EF92FF920F931F93CF93DF93CDB7DEB7A1970FB6F89488
:20240000DEBF0FBECDBF7C01FA01CB0119A2223008F42AE08E010F5D1F4F822E912CB12CBC
:20242000A12CBF01A50194010E94CC2EF901CA016A300CF5605DD8016E938D01232B242B16
:20244000252B79F790E080E0109721F0BD01C7010E946E11A1960FB6F894DEBF0FBECDBF0F
:20246000DF91CF911F910F91FF90EF90BF90AF909F908F900895695CDECF2AE00C94F11197
:20248000482F50E070E060E02AE088EF94E00C94F1118091D1048F3F19F08F5F8093D104DB
:2024A00067E678E088EF94E00E940A0E8091D1040E9440128FE20E941B0F83E00E94401264
:2024C0000E947D118091D104833080F069E578E088EF94E00E940A0E8091D1040E9440129E
:2024E00086E098E00E9483110C9481100895AB0170E060E02AE00C94F111CF93DF93BC0181
:2025000088EF94E00E947712EC010E947D118C0F9D1FDF91CF91089581E08093E504809156
:202520004204909143048F3F980729F00196909343048093420464EB77E088EF94E00E94DA
:202540000A0E80914204909143040C947D12CF92DF92EF92FF92CF93DF930E94FE0D6B01A4
:202560007C01D0E0C0E00E94FE0D6C197D098E099F09683771058105910578F485E995E017
:202580000E94B50F892B79F385E995E00E94CB0FCF3FDC0799F32196F1CF1092DC02109240
:2025A000DB0210929A0361E071E088EF94E00E940A0EBE0188EF94E00E94771289ED90E00D
:2025C000DF91CF91FF90EF90DF90CF900C9483118F929F92AF92BF92CF92DF92EF92FF9253
:2025E000CF93DF93C82F0E94FE0D6B017C018091E102882319F18091DD029091DE02A091AF
:20260000DF02B091E002A7019601281B390B4A0B5B0BDA01C901883E9340A105B10570F437
:2026200089E494E0DF91CF91FF90EF90DF90CF90BF90AF909F908F900C94831181E0809389
:20264000E102C092DD02D092DE02E092DF02F092E00268E374E088EF94E00E940A0E68E2DF
:2026600074E0C13031F067E174E0C23011F06CE074E088EF94E00E940A0E6DEF73E088EFFA
:2026800094E00E940A0E8091340390913503A0913603B0913703A7019601281B390B4A0B6B
:2026A0005B0BCA01B90128EE822E23E0922EA12CB12CA50194010E94CC2EBA01A90188EF49
:2026C00094E00E943D1260EF73E088EF94E00E940A0E8091EE040E9440126BED73E088EF35
:2026E00094E00E940A0E8091E9049091EA04A091EB04B091EC040097A105B10509F45BC043
:20270000A7019601281B390B4A0B5B0BCA01B901A50194010E94CC2EBA01A90188EF94E08C
:202720000E943D1283E70E941B0F68EC73E088EF94E00E940A0E809154040E94401263EC7A
:2027400073E088EF94E00E940A0E809153040E94401287EB93E00E9483111092E9041092D9
:20276000EA041092EB041092EC0480915404C23049F5833038F583E0809354041092530408
:2027800089E593E00E9483118091EE048230F0F18091E30481113AC064EF71E087E0DF918D
:2027A000CF91FF90EF90DF90CF90BF90AF909F908F900C940C1164ED73E088EF94E00E9413
:2027C0000A0EB3CF909153049E3F18F49F5F90935304E82FF0E0ED5DFE4F208190915304EF
:2027E000921790F2853080F68F5F809354041092530469E373E088EF94E00E940A0E8091DC
:2028000054040E94401285E393E0BCCF80915404E82FF0E0EE0FFF1FE95EFE4FC081D18174
:20282000823009F452C020F5882309F448C0813009F443C08FEC91E00E9483118AE791E05D
:202840000E94831168E571E088EF94E00E940A0ECE0168EE73E00E94092F88EF94E00E9420
:2028600077128CE291E00E9483111092EF0418C0833009F442C08430E9F667E672E088EFF2
:2028800094E00E940A0ECE0168EE73E00E94092F88EF94E00E94771287E292E00E94831191
:2028A000CE01DF91CF91FF90EF90DF90CF90BF90AF909F908F900C94AE100E94A712109266
:2028C000E6046CE271E083E06ACF6EE173E088EF94E00E940A0ECE0168EE73E00E94092F3A
:2028E00088EF94E00E94771280ED92E00E9483111092EF04BE018AE052CF69EB72E088EFB1
:2029000094E00E940A0ECE0168EE73E00E94092F88EF94E00E9477128DE892E00E94831104
:202920001092EF04BE0180E03ACFCF93DF93D0E0C0E0009731F0BC0188EF94E00E946E1135
:20294000EC010E947D118C0F9D1FDF91CF9108958F929F92AF92BF92CF92DF92EF92FF92CE
:202960000F931F93CF93DF93CDB7DEB764970FB6F894DEBF0FBECDBFDC010D900020E9F75A
:202980009D0121503109281B390B122F4FEF420F4F3308F067C0FC01A0814A2F4B7F43341E
:2029A00049F0A43539F0AD3429F04FEA4A0F423008F058C0B82FFC0150E040E06FEF7FEFCE
:2029C00001910C3209F4BA014F5F5F4F4117C0F38C016F3F760789F13327261B370B2330A6
:2029E000310559F5FC01E60FF71F918120ED290F2A3030F08FEB890F8630F8F429EC290F79
:202A0000328190ED930F9A3030F08FEB830F8630A0F499EC930F81E0860FF80140E03E2F01
:202A20003B1B381718F431914327F9CF80E1289F90011124922B941741F180912D04909106
:202A40002E048F3F980729F0019690932E0480932D0468EA77E088EF94E00E940A0EC80177
:202A60000E94951464960FB6F894DEBF0FBECDBFDF91CF911F910F91FF90EF90DF90CF90CE
:202A8000BF90AF909F908F900895A73409F0B5C046E0BE016F5F7F4FC8010E940810188ACE
:202AA0001F8684508B3FF0F6BE01615F7F4F8B819C810E9423108823A9F21A8A198A1C8A6F
:202AC0001B8ABE016F5E7F4F8D819E810E942310182F882341F0BE016D5E7F4F8F8198854D
:202AE0000E942310182F8F8598890E943E1187FD0BC0B5E08B02F0011124EE55FC4F80816E
:202B000091810E949211AECF112341F089899A899C012A50310922303105B8F068E977E01E
:202B200088EF94E00E940A0E89899A890E947D1223E089899A896AE070E00E94092F40E3BB
:202B4000480F67E48F859889E8C016EF180F8091A103811120C0E0909F03F090A00381E00D
:202B60008093A10380E00E945710882331F06894E0F8F092A003E0929F0381E00E945710F2
:202B800020919F033091A003882329F022603093A00320939F0381E090E002C0880F991F9B
:202BA0001A95E2F720919F033091A0034B895C89452BF1F0822B932B9093A00380939F03E6
:202BC0006FE877E088EF94E00E940A0E69897A8988EF94E00E9477126AE877E088EF94E003
:202BE0000E940A0E8B899C890E947D1220E0A1CF8095909582239323DFCFA13551F481E082
:202C000080936B0410926A0487E497E00E94831129CFBE016F5F7F4FCB01855B9540209185
:202C20000601309107018217930720F4909307018093060147E0C8010E940810C82EEFEFBA
:202C40008E1709F40FCFE981FA81F080F2E565E0D62EFF1661F024E556E0D52EF21639F0A6
:202C60008DE473E0D72EF81611F044E0D42E92E09C1508F0F7CEBE01615F7F4F8B819C8100
:202C80000E942310882309F4EDCE0F851889C8010E943E11E82E87FD10C06CE377E088EF86
:202CA00094E00E940A0E8F8598890E947D12AE2DB5E0AB02F001112420CFCD1471F06AE2C0
:202CC00077E088EF94E00E940A0E8F8598890E947D1223E04FE36FE335CFE4E5FE1293C0DB
:202CE000ED81FE818181811188C05081513469F05434C1F410921A041092190410921804E2
:202D000010929E0310929D0303C081E080931A044FE33FE320E0632FC8010E9422118F8541
:202D20009889EFCE533519F0583509F066C0EF81F885E984FA84DF010D900020E9F7CD0155
:202D400003978E179F0709F058C0308181812FEC280F253008F051C0313409F44FC1323442
:202D600009F04BC024ED280F533561F4F70180818053823008F041C0818181113EC031E40C
:202D8000253008F032E4822F65E00E94FD2E41E3490F80911A048823A1F181E090E002C092
:202DA000880F991F2A95E2F76091180470911904E0919D03F0919E035335B1F4D7012C910C
:202DC000682B792B7093190460931804203339F08E2B9F2B90939E0380939D039BCF809598
:202DE00090958E239F23F6CF80959095682379237093190460931804F4CF4FE33FE323E0CC
:202E00008ACF24E088CFBDE4FB129DC0C0901404D090150480909B0390909C03F12CE12C7B
:202E2000AA24A394B12C1E2D8E2D0E945611882309F444C0C5010E2C02C0880F991F0A9446
:202E4000E2F79C012C213D21232BC1F19C0128213921232B99F58829992990939C038093ED
:202E60009B0382E4F82E153010F491E4F92E812F65E00E94FD2E01E3090F68EE76E088EF62
:202E800094E00E940A0E8F2D0E941B0F802F0E941B0F69ED76E088EF94E00E940A0E80919F
:202EA0009B0390919C0302C0969587951A95E2F7817099270E947D1220E042C0EFEFEE1A59
:202EC000FE0AFAE0EF16F10409F0ADCF10E000E0802F0E94561181111F5F0F5F0A30C1F7A9
:202EE000112331F10E94422E212F30E050E040E00E949A2E062F10E0812F0E9456118823C7
:202F0000A1F08FEF800F01110FC021E030E0012E02C0220F331F0A94E2F780919B03909166
:202F20009C038227932799CF082F1F5F1A3021F78BEF96E00E9483110FE32FE3F22E25E0C1
:202F4000402F6F2DFFCDED81FE81DF010D900020E9F7CD0103978E179F0761F481812FEC0B
:202F6000280F253038F45081513499F024ED280F523479F069EC76E088EF94E00E940A0E33
:202F80008F8598890E947D124FE35FE323E0652FD9CD822F65E00E94FD2E41E3490F81E07A
:202FA00090E002C0880F991F2A95E2F7B2E5FB1215C0209116043091170428233923232BE3
:202FC000D9F42091140430911504BC0162237323822B932B672B51F022E0D9CF8095909587
:202FE000209114043091150482239323909315048093140420E0CBCF21E0C9CF533509F0B8
:20300000C2CEB4CEBF92CF92DF92EF92FF920F931F93CF93DF938091F4049091F504A091ED
:20302000F604B091F7040196A11DB11D8093F4049093F504A093F604B093F70461E879E102
:2030400088EF94E00E940A0E0CE614E0F80101900020E9F78F010D561440B02E6DE971E18E
:2030600088EF94E00E940A0E9CE6E92E94E0F92E6701D0E0DB1528F5F601C1916F0180EE2B
:203080008C0F8F3528F48C2F0E941B0FDF5FF2CF6AE971E188EF94E00E940A0EEC2FF0E0FA
:2030A00084E0F595E7958A95E1F7E65BFE4F80810E941B0FCF70EC2FF0E0E65BFE4F80819B
:2030C000E3CF66E971E188EF94E00E940A0E802F0E94401289E20E941B0F0E947D1162E8A4
:2030E00071E08CE694E00E94622FEC01892BE1F1C090F204D090F304F12CE12CF8E5CF166A
:20310000F2E0DF06E104F104E0F48091F0049091F1048F3F980729F001969093F1048093E7
:20312000F00464E779E188EF94E00E940A0EB701A60188EF94E00E943D1281E799E10E9492
:2031400083116AE370E0CE010E94402F0097D9F10196DF91CF911F910F91FF90EF90DF90C9
:20316000CF90BF900C94A81444E050E068E871E08CE694E00E94542F892B09F04DC06DE836
:2031800071E08CE694E00E94622F892B31F181E08093EF041092EE041092ED040E94FE0DB4
:2031A0006093E9047093EA048093EB049093EC0488E099E10E9483118091E80468EC70E070
:2031C000882309F4E3C0DF91CF911F910F91FF90EF90DF90CF90BF90089564E971E08CE6AC
:2031E00094E00E94622F892B71F31092EF048DED98E10E9483118091E8048111E4CF10926E
:20320000ED04DF91CF911F910F91FF90EF90DF90CF90BF900C94E8128091E8048111C1C1C7
:20322000C0910A01CB3008F0BCC16FE971E08CE694E00E94622F892BF1F08FE898E10E94D9
:20324000831180910A01833081F491E09093E7046CED75E0DF91CF911F910F91FF90EF903B
:20326000DF90CF90BF900C940C119CEF980F923008F0A9CFEDCFC23009F08AC047E050E0C8
:2032800064EA71E08CE694E00E94542F892BA1F56FE678E188EF94E00E940A0E809173045F
:2032A000823321F17CF48133A1F08CE694E0DF91CF911F910F91FF90EF90DF90CF90BF9061
:2032C0000C9495148333A9F0843379F781E198E102C08BE598E1DF91CF911F910F91FF90FA
:2032E000EF90DF90CF90BF900C94831181E498E1F2CF8FE198E1EFCF6CE172E08CE694E033
:203300000E94622F892B41F46CEA71E08CE694E00E94622F892BD9F08091EE048A3F18F47C
:203320008F5F8093EE041092EF041092ED0469EF77E188EF94E00E940A0E8091EE040E9478
:20334000401284EC97E10E94831180E05ACF64E172E08CE694E00E944B2F892B09F0D8C294
:203360008EE697E10E9483111092EE041092E6041092ED040E94FE0D6093E9047093EA04FA
:203380008093EB049093EC046CE271E083E062CFCA3009F564E172E08CE694E00E944B2F54
:2033A000892B89F06CEA71E08CE694E00E94622F892B49F462EB71E08CE694E00E94622F78
:2033C000892B09F4A5C28FE197E10E94831164EF71E082E03FCFC33009F09AC243E050E008
:2033E00068EB71E08CE694E00E94542F892B09F48FC28CE694E04AE001C0CD01DC012D91E2
:20340000222309F477C220532A30B8F734E08C36930731F0FC013197208120532A3068F396
:20342000FC0130E090E020E0819150ED580F5A3030F4249F800D112420ED280FF5CF91117C
:2034400001C0322F8E3211F49F5FEDCF9330A9F6332399F281E08093EF041092E6041092F3
:20346000E5041092E7048091E9049091EA04A091EB04B091EC04892B8A2B8B2B51F40E9472
:20348000FE0D6093E9047093EA048093EB049093EC0469E077E188EF94E00E940A0E8CE683
:2034A00094E00E94951468EC70E084E0D3CE883069F564E172E08CE694E00E944B2F892B41
:2034C000B1F06CEA71E08CE694E00E94622F892BB1F465ED71E08CE694E00E94622F892BC2
:2034E00009F45FC01092EF048CE493E14EC08EE796E10E9483116CE271E089E0ABCE8EE117
:2035000096E10E9483118EEC95E1F3CF893009F747E050E066EC71E08CE694E00E94542F8E
:20352000892B69F46EEC71E08CE694E00E94622F892B09F448CE81E08093E40444CE64E13C
:2035400072E08CE694E00E944B2F892B49F06CEA71E08CE694E00E94622F892B09F4B9CF31
:2035600081E08093E30481E695E10E9483118091E404882379F085E095E10E94831181E955
:2035800094E10E94831182E494E10E94831168EE73E01FCF84EF93E10E94831182EA93E1DB
:2035A000F4CF6BED71E08CE694E00E94622F892B09F45CC067E971E08CE694E00E94622FFF
:2035C000892B09F453C08091E2048823B1F080EF92E10E94831186E08093E1040E94FE0DC1
:2035E0006093DD047093DE048093DF049093E0041092090110920801E6CD81E08093E804AB
:203600000E94FE0D6093D9047093DA048093DB049093DC048091D804882371F08091D60473
:203620009091D7048F3F980729F001969093D7048093D6041092D8040E94FE0D6093D20492
:203640007093D3048093D4049093D5041092D10410926B0481E080936A041092D004109227
:20366000CF041092CE048EEB92E135CEC701F7012081FFEFEF1AFF0A2032C1F32930B1F3B0
:203680002053253028F4FC0121812C3209F40296FC0101900020E9F73197E81BF90B2E2FFA
:2036A000E80FF92FF11D222309F473C03291303219F03B7F393011F42150F5CF47E067E966
:2036C00071E0273031F0263009F063C046E061EE71E00E94EF0F882309F45BC081E0809312
:2036E000E8040E94FE0D6093D9047093DA048093DB049093DC048091D804882371F0809181
:20370000D6049091D7048F3F980729F001969093D7048093D6041092D8040E94FE0D6093AD
:20372000D2047093D3048093D4049093D5041092D10410926B0481E080936A041092D00412
:203740001092CF041092E2041092CE041092EE041092E6048093EF048091E9049091EA04C5
:20376000A091EB04B091EC04892B8A2B8B2B51F40E94FE0D6093E9047093EA048093EB0414
:203780009093EC04109269041092680487E992E1A2CD68EE71E08CE694E00E94622F892B33
:2037A000B9F46FEE71E08CE694E00E94622F892B79F466EF71E08CE694E00E94622F892B01
:2037C00039F48091E80481112EC08CE694E0C1CC1092E8041092D10410926B0481E0809342
:2037E0006A041092D0041092CF041092E2041092CE04109269041092680483E08093E104FC
:203800000E94FE0D6093DD047093DE048093DF049093E0048CE291E090930901809308011D
:203820001092E604D0CC6DEF71E08CE694E00E94622F892B79F087E492E10E948311DF91F9
:20384000CF911F910F91FF90EF90DF90CF90BF900C94811047E050E06FE072E08CE694E07E
:203860000E94542F892B29F41092D0041092CF04AACC49E050E067E172E08CE694E00E9476
:20388000542F892BF9F41092D0041092CF048091CC049091CD048F3F980729F00196909306
:2038A000CD048093CC0489EE91E10E948311DF91CF911F910F91FF90EF90DF90CF90BF90EA
:2038C0000C9449126CEA71E08CE694E00E94622F892B49F46FE971E08CE694E00E94622F7A
:2038E000892B09F472CF6FE971E188EF94E00E940A0EDBCC61E272E08CE694E00E944B2F49
:20390000892B31F48091E504811102C00E948C1280910A01843009F0CACD64E172E08CE6D7
:2039200094E00E944B2F892B49F06CEB71E08CE694E00E94622F892B09F4CBCD83EE96E118
:203940000E94831168EC70E085E084CCCF93DF93D82F80914E0490914F04A0915004B09160
:2039600051040196A11DB11D80934E0490934F04A0935004B0935104DA3009F0B2C080914F
:20398000DB028823A1F066EC70E088EF94E00E940A0E80E60E94401288EA90E00E94831155
:2039A0001092DC021092DB02DF91CF9108954091DC024423C9F350E0FA01E558FD4F108283
:2039C0001092DC028091E702882309F476C080919A03811131C04F5F5F4F6BE772E08AE3F1
:2039E00093E00E94372F8091790290917A02909339038093380381E080939A03809121042F
:203A0000909122048F3F980729F0019690932204809321048091E602803430F280911F04BE
:203A2000909120048F3F980709F4BECF01969093200480931F04B8CF6FE072E08BE792E02A
:203A40000E94622F2091E602892BD1F08091290490912A048F3F980729F0019690932A042A
:203A600080932904203460F080912504909126048F3F980729F00196909326048093250437
:203A800080912304909124048F3F980729F001969093240480932304203408F485CF80914E
:203AA0001D0490911E048F3F980709F47DCF019690931E0480931D0477CF4F5F5F4F6BE7E8
:203AC00072E08CE694E00E94372F8091790290917A029093F3048093F204DF91CF910C94EA
:203AE00002188091D004882309F441C080917802E82FF0E0E15FFE4F90819D1333C08F5F7D
:203B0000873019F08093780222C0109278021092D0041092CF0480912B0490912C048F3F10
:203B2000980729F0019690932C0480932B048091E602803460F080912704909128048F3F4D
:203B4000980729F001969093280480932704DD3009F42ACFC091DC02CF3560F081E080938F
:203B6000DB0222CF81E0D33569F280E0CBCF10927802EDCFC1110CC00E94FE0D209146049B
:203B800030914704621B730B70937A026093790281E08C0F8093DC02EC2FF0E0E558FD4FD0
:203BA000D08302CF85E995E00E94B50F892B39F085E995E00E94CB0F0E94A61CF3CF809125
:203BC000B30580FF0FC08E7F8093B30580912F04909130048F3F980729F0019690933004FA
:203BE00080932F0408952F923F924F925F927F928F929F92AF92BF92CF92DF92EF92FF92A5
:203C00000F931F93CF93DF931F92CDB7DEB79E01245B3540409106015091070124173507E7
:203C200020F430930701209306017090E804711015C0E12C8E2D0F90DF91CF911F910F9122
:203C4000FF90EF90DF90CF90BF90AF909F908F907F905F904F903F902F9008959B01215097
:203C60003109203A310528F78B016C01E090D004EE2009F45AC00E94FE0D0091E802109130
:203C8000E9022091EA023091EB02DC01CB01801B910BA20BB30B80342FE19207A105B105EA
:203CA00068F5803D9740A105B105B8F08091CF04811113C081E08093CF0480913E0490910B
:203CC0003F048F3F980729F0019690933F0480933E0487E796E00E94831180911B0490915E
:203CE0001C048F3F980729F0019690931C0480931B048FE196E00E9483119BCF1092D00416
:203D00001092CF0480913C0490913D048F3F980729F0019690933D0480933C0483EC95E0C3
:203D20000E9483110E94811084CF81E08093E7026093E6020E94FE0D8090E2029090E302E9
:203D4000A090E402B090E502681979098A099B09603571058105910518F40E94D21DEACF6F
:203D600067EB75E085E995E00E940A0E4801FFEF8F1A9F0AB40185E995E00E94771264EB64
:203D800075E085E995E00E940A0E0E94FE0D1B012C01B12CA12C0E94FE0D62197309840960
:203DA00095096C3271408105910508F048C085E995E00E94B50F892B71F385E995E00E9414
:203DC000CB0FF82E8EE3F81609F470C08F2D0E94A61C8FEB8F0D8A3110F4E0E2FE0EEA2D5D
:203DE000F0E0E15DFE4F8081A3948F1529F0AA24A394F2E6FF12A12CEA2DF0E0E15DFE4F46
:203E00008081882309F4B4C0EB2DF0E0E75DFE4F8081B3948F1529F0BB24B39425E6F212D2
:203E2000B12CEB2DF0E0E75DFE4F80818111BFCF92E0F92E8DE095E00E94831167C083E0D0
:203E4000F82EB12CA12C63E285E995E00E94590FC5018F7099270F9711F40E94D21D8FEF21
:203E6000A81AB80A0A151B0571F76AE085E995E00E94590F0E94D21D8091590490915A0462
:203E80008F3F980729F0019690935A048093590461EE74E088EF94E00E940A0EB40188EFA0
:203EA00094E00E94771283EA94E0C6CFF12C0C0D1D1D560145018C189D08F50161915F014F
:203EC00085E995E00E94590FFFE08F2299242FE08216910411F40E94D21D0A151B0551F74F
:203EE0006AE085E995E00E94590F0E94D21D81E08093D0041092CF040E94FE0D6093E802B3
:203F00007093E9028093EA029093EB020E94FE0D6093E2027093E3028093E4029093E50235
:203F20001092E70262E974E0F11002C06DE974E088EF94E00E940A0EC6010E949514F1E062
:203F4000FF1649F1F11019C01092D1040E94FE0D6093D2047093D3048093D4049093D5048A
:203F600010920F041092100410921104E72C62CEFF24F3948EE495E05FCF0E94491222E01E
:203F8000F21212C080910F048F3F09F452CE8F5F80930F044FCE809111048F3F09F449CE03
:203FA0008F5F8093110446CE809110048F3F09F441CE8F5F809310043DCE1F920F920FB6A1
:203FC0000F9211242F933F938F939F93AF93BF938091640490916504A0916604B091670445
:203FE0003091630423E0230F2D3758F50196A11DB11D209363048093640490936504A0933C
:204000006604B093670480915F0490916004A0916104B09162040196A11DB11D80935F04B9
:2040200090936004A0936104B0936204BF91AF919F918F913F912F910F900FBE0F901F908E
:20404000189526E8230F0296A11DB11DD2CF1F920F920FB60F9211242F933F934F935F9359
:204060006F937F938F939F93AF93BF93EF93FF9388EF94E00E94AC0EFF91EF91BF91AF9149
:204080009F918F917F916F915F914F913F912F910F900FBE0F901F9018951F920F920FB6E2
:2040A0000F9211242F938F939F93EF93FF93E0910805F09109058081E0910E05F0910F05D9
:2040C00082FD1BC09081809111058F5F8F7320911205821741F0E0911105F0E0E850FB4FF3
:2040E000958F80931105FF91EF919F918F912F910F900FBE0F901F9018958081F4CF1F9277
:204100000F920FB60F9211242F933F934F935F936F937F938F939F93AF93BF93EF93FF93EB
:20412000E0912E03F0912F03309749F0A685B7858585968D91FF14C09C918923A1F4FF9134
:20414000EF91BF91AF919F918F917F916F915F914F913F912F910F900FBE0F901F90189528
:204160009C91892361F7A389B4899C918589809589238C93868997890197F1F7608D718DF0
:20418000A685B785558538E020E0CB010197F1F7822F90E095958795282F4C91452309F07E
:2041A0002068315091F7868D81FD209580912D0390E001968F73992730912C03381799F056
:2041C000A0912D03B0E0A451BD4F2C9380932D03828D938D0197F1F7A389B4898C91958998
:2041E000892B8C93ACCF868D8160868FF1CF1092FB041092FA0488EE93E0A0E0B0E080935B
:20420000FC049093FD04A093FE04B093FF042FE531E03093F9042093F80425EC30E0309387
:2042200005052093040524EC30E0309307052093060520EC30E0309309052093080521EC51
:2042400030E030930B0520930A0522EC30E030930D0520930C0526EC30E030930F05209356
:204260000E05109211051092120510921305109214051092980510929705809399059093F4
:204280009A05A0939B05B0939C0581E791E090939605809395051092AC051092AB0510923D
:2042A000AE051092AD051092B0051092AF051092B2051092B1056091B3056E7F6D7F609324
:2042C000B3056695617081E0682787E00E94940D61E087E00E94C20DE6EBF9E1E491E09314
:2042E000A505E2EAF9E1E491F0E0EE0FFF1FEF56F64E859194919093A7058093A60560E07D
:2043000088E00E94C20D8091B30581FD04C061E088E00E94940D88E08093A105E7EBF9E100
:20432000E491E093A205E3EAF9E1E491F0E0EE0FFF1FE957F64E859194919093A405809349
:20434000A3050895CF93DF93CDB7DEB7C35DD1090FB6F894DEBF0FBECDBF789484B58260C3
:2043600084BD84B5816084BD85B5826085BD85B5816085BD80916E00816080936E00109263
:20438000810080918100826080938100809181008160809381008091800081608093800088
:2043A0008091B10084608093B1008091B00081608093B00080917A00846080937A00809121
:2043C0007A00826080937A0080917A00816080937A0080917A00806880937A001092C10098
:2043E000E0910805F091090582E08083E0910405F09105051082E0910605F091070580E14A
:20440000808310921005E0910C05F0910D0586E08083E0910A05F0910B058081806180836E
:20442000E0910A05F0910B05808188608083E0910A05F0910B05808180688083E0910A0502
:20444000F0910B0580818F7D80831092B0051092AF051092AE051092AD051092AC05109270
:20446000AB058DE991E09093B2058093B1059091A105963108F047C02DEB30E03093AC05D9
:204480002093AB052BE931E03093AE052093AD052CE231E03093B0052093AF0520916800A2
:2044A00084E0983048F031E09E3008F430E081E001C0880F3A95EAF7822B809368002DE609
:2044C00030E0983050F02BE630E09E3030F02CE630E0963110F030E020E03093A905209398
:2044E000A805292F30E0983008F019C281E001C0880F9A95EAF78093AA058091B105909199
:20450000B2050197F1F78091AF059091B005892B49F1E0912E03F0912F0315E0E539F1077B
:2045200009F1309739F0A389B4899C918589809589238C938091B3058E7F8093B3051092CA
:204540002D0310922C0385E995E090932F0380932E03E091A805F091A90580819091AA05C0
:20456000892B80831092E1040E94FE0D6093DD047093DE048093DF049093E00484EF91E0B6
:2045800090930901809308010E94FE0D6093460470934704809348049093490481E4809353
:2045A0007C0080917A00806480937A0080917A0086FDFCCF4091780050917900052E000CC8
:2045C000660B770B3FB7F89480915F0490916004A0916104B091620426B5A89B05C02F3FDF
:2045E00019F00196A11DB11D3FBFBA2FA92F982F8827820F911DA11DB11DF2E0880F991F6E
:20460000AA1FBB1FFA95D1F78A019B01082719272A273B27481759076A077B0721F0C901CA
:20462000B8010E94912E10921A04109219041092180410929E0310929D0386E091E09093A4
:204640009C0380939B0360E080E10E94C20D67E979E088EF94E00E940A0E8AE00E9440124C
:204660006DE879E088EF94E00E940A0E8CE00E9440128BE799E00E94831164E679E088EF4C
:2046800094E00E940A0E8091B405811155C18AE299E00E94831163EA78E088EF94E00E942D
:2046A0000A0E65E978E088EF94E00E940A0E60E878E088EF94E00E940A0E8CE798E00E94C5
:2046C00083119E0121543F4FCC53DF4F39832883C45CD040AE014E555F4FC853DF4F59839B
:2046E0004883C85CD040CE0186549F4FCA53DF4F99838883C65CD040FE0131961F010E94F8
:20470000FE0D2B013C018091E804882309F43DC180915404882339F18091D9049091DA0457
:20472000A091DB04B091DC04A3019201281B390B4A0B5B0BDA01C90180339547A105B1053F
:2047400094F06FE87DE088EF94E00E940A0E809154040E9440128AE89DE00E948311109258
:204760005404109253040E94D21D80919A038823A9F080E6EAE3F3E0ACE6B4E001900D9209
:204780008A95E1F780913803909139039093F3048093F20410929A030E940218D0901A04DD
:2047A000E0901804F090190460919B0370919C0340919D0350919E0330E020E0C653DF4F57
:2047C00019821882CA5CD040E22FDD2009F41EC3C701022E02C0969587950A94E2F780FF8B
:2047E00015C3CA010E2E02C0969587950A94E2F78170A9F081E090E002C0880F991FEA956F
:20480000E2F7C653DF4FE881F981CA5CD040E82BF92BC653DF4FF983E883CA5CD0402F5F36
:204820003F4F2A30310581F6C653DF4F28813981CA5CD0403093170420931604DD2009F45E
:20484000E7C2C453DF4FF982E882CC5CD0408091040190910501C653DF4FE881F981CA5CC0
:20486000D0408E179F0709F0DCC2209114043091150480910201909103012817390709F0F2
:20488000D0C28091000190910101C453DF4F28813981CC5CD0408217930709F0C2C210921F
:2048A00013048090460490904704A0904804B09049044091330450913404609135047091C7
:2048C0003604F091E8042091310430913204E0911204D301C20188199909AA09BB09803BC1
:2048E00014E09107A105B10508F4A3C210EB810E14E0911EA11CB11CFF2339F0E11105C0B6
:204900002F3F320711F02F5F3F4F4F5F5F4F6F4F7F4F805B9440A109B109E0E0E0CF9E309B
:2049200040F42850310981E001C0880F2A95EAF7E2CD2E503109F7CF80FF06C067E179E025
:2049400088EF94E00E940A0E8091B40581FF06C06DEF78E088EF94E00E940A0E8091B4057F
:2049600082FF06C06AED78E088EF94E00E940A0E8091B40583FF06C06FEC78E088EF94E0EC
:204980000E940A0E0E947D1186CE80915204882319F18091300390913103A0913203B0917D
:2049A0003303A3019201281B390B4A0B5B0BDA01C901B7FD11C060E080E10E94C20D10926A
:2049C00052040E94A7126CED75E081E00E940C1183EB99E00E948311809152048111C3CEB1
:2049E0008091DD049091DE04A091DF04B091E004B301A201481B590B6A0B7B0B8091080156
:204A000090910901B0E0A0E0481759076A077B0708F4A9CE8091E104853059F48091EF043A
:204A2000811107C08AE39DE00E94831182E08093E1041091E104123091F48091ED048823A9
:204A400009F455C01092ED048091EE048A3F18F48F5F8093EE0481E00E94E81284CE1B304C
:204A600008F060C0E12FF0E0E85CFA4D0C94312F432554259225BA25042625264A268D26A4
:204A8000AE26CF26F32660E57CE085E995E00E940A0E64E47CE088EF94E00E940A0E0E940B
:204AA0007D111092ED043EC066E37CE085E995E00E940A0E65E27CE088EF94E00E940A0E4D
:204AC0000E947D1181E080930A014092DD045092DE046092DF047092E00480E293E09093FD
:204AE0000901809308011F5F1093E1043CCE62E07CE085E995E00E940A0E6BEC7BE088EF1C
:204B000094E00E940A0E0E947D1181E08093ED040E94FE0D60933403709335038093360374
:204B20009093370310930A014092DD045092DE046092DF047092E004E12FF0E0EE0FFF1F3D
:204B4000EC5CFE4F808191819093090180930801EEEFE10FE93038F6F0E0EF54FA4D0C9456
:204B6000312FF126D925232644266926AC26CD26EE26F12660EC7BE085E995E00E940A0E4A
:204B800062E97BE088EF94E00E940A0E0E947D1183E080930A014092DD045092DE046092B0
:204BA000DF047092E00484EC99E090930901809308018091E6048F5F8093E604833008F465
:204BC0001BC18091E7041092E6041092E7048111E3C78091E504811102C00E948C1286EAAA
:204BE0009CE00E94831182E08093E10480E00E94E8128091E104833009F0B5CD68EE73E0E0
:204C000082E00E940C11AFCD64E87BE085E995E00E940A0E63E77BE088EF94E00E940A0E69
:204C20000E947D1184E080930A014092DD045092DE046092DF047092E00480EB94E090938E
:204C400009018093080185E0D8C06BE47BE085E995E00E940A0E6AE37BE088EF94E00E94B5
:204C60000A0E0E947D1185E080930A014092DD045092DE046092DF047092E00480E49FE153
:204C800090930901809308018091E2048823D9F286E0B3C06CE27BE085E995E00E940A0E3F
:204CA00064E07BE088EF94E00E940A0E0E947D1186E080930A014092DD045092DE04609293
:204CC000DF047092E00480E293E090930901809308018091CE048F5F8093CE04833008F488
:204CE0008FC066E97CE088EF94E00E940A0E8091CE040E94401289E59CE00E94831110927C
:204D0000E1041092E2041092CE0488EC90E0909309018093080182E09FCE6BEF7AE085E994
:204D200095E00E940A0E64ED7AE088EF94E00E940A0E0E947D1187E080930A014092DD048C
:204D40005092DE046092DF047092E0048CED95E0909309018093080188E04FC065EB7AE07C
:204D600085E995E00E940A0E6BE77AE088EF94E00E940A0E0E947D1188E080930A014092BD
:204D8000DD045092DE046092DF047092E0048CED95E0909309018093080189E02EC060E7DE
:204DA0007AE085E995E00E940A0E64E47AE088EF94E00E940A0E0E947D1189E080930A01FE
:204DC0004092DD045092DE046092DF047092E00488E293E2909309018093080181E0809305
:204DE000E30482E00AC069E37AE085E995E00E940A0E67E07AE04FCE83E08093E104B3CCC5
:204E000083E08093E1041092E604ADCCCB01EACC4FEF5FEFC453DF4F59834883CC5CD04000
:204E200016CD8091130481113CCD81E08093130438CD8092460490924704A0924804B092B3
:204E40004904E0931204409333045093340460933504709336043093320420933104885332
:204E60009F4FAF4FBF4F89359240A105B10508F025C381E0E827FF2309F490C08091D204A6
:204E80009091D304A091D404B091D504A3019201281B390B4A0B5B0BDA01C901803197424F
:204EA000A105B1050CF40CC363EC7FE088EF94E00E940A0E8091D2049091D304A091D4048C
:204EC000B091D504B301A201481B590B6A0B7B0B88EF94E00E943D1269E97FE088EF94E027
:204EE0000E940A0E809111040E9440126BE87FE088EF94E00E940A0E809110040E9440126E
:204F000060E87FE088EF94E00E940A0E80910F040E94401269E67FE088EF94E00E940A0EDA
:204F200060911B0470911C0488EF94E00E94771268E57FE088EF94E00E940A0E60913E04A6
:204F400070913F0488EF94E00E9477126BE47FE088EF94E00E940A0E6091CC047091CD0411
:204F600088EF94E00E9477126DE37FE088EF94E00E940A0E609142047091430488EF94E05D
:204F80000E9477128CE19FE00E94831110920F0410921004109211040E94811080914A0410
:204FA00090914B04A0914C04B0914D04A3019201281B390B4A0B5B0BDA01C90180369A4EB2
:204FC000A105B10508F4ADC18091E8048823E1F08091460490914704A0914804B0914904C0
:204FE00022E330E040E050E0281B390B4A0B5B0BDA01C901840D951DA61DB71D89359240FB
:20500000A105B10508F08DC140924A0450924B0460924C0470924D046FEB70E188EF94E072
:205020000E940A0EC301B20128EE33E040E050E00E94CC2EBA01A90188EF94E00E943D12E9
:2050400068EB70E188EF94E00E940A0E609144047091450488EF94E00E9477126FEA70E1C4
:2050600088EF94E00E940A0E609142047091430488EF94E00E94771267EA70E188EF94E069
:205080000E940A0E609140047091410488EF94E00E9477128FE20E941B0F6091D6047091BC
:2050A000D70488EF94E00E9477126EE970E188EF94E00E940A0E6091590470915A0488EF8E
:2050C00094E00E94771263E970E188EF94E00E940A0E6091CC047091CD0488EF94E00E94CF
:2050E00077126CE870E188EF94E00E940A0E60913E0470913F0488EF94E00E94771264E804
:2051000070E188EF94E00E940A0E60913C0470913D0488EF94E00E9477126DE770E188EFF4
:2051200094E00E940A0E80913B040E94401263E770E188EF94E00E940A0E6091390470918E
:205140003A0488EF94E00E94771268E670E188EF94E00E940A0E609137047091380488EFD7
:2051600094E00E94771261E670E188EF94E00E940A0E409133045091340460913504709107
:20518000360488EF94E00E943D126BE570E188EF94E00E940A0E6091F0047091F10488EF61
:2051A00094E00E94771263E570E188EF94E00E940A0E609131047091320488EF94E00E9428
:2051C00077126BE470E188EF94E00E940A0E60912F047091300488EF94E00E94771261E44D
:2051E00070E188EF94E00E940A0E60912D0470912E0488EF94E00E947712E0902B04F0902F
:205200002C04C0902904D0902A040091270410912804A0902504B090260466E370E188EFF6
:2052200094E00E940A0EB70188EF94E00E9477126BE270E188EF94E00E940A0E6091230417
:205240007091240488EF94E00E94771260E270E188EF94E00E940A0E60912104709122049A
:2052600088EF94E00E94771266E170E188EF94E00E940A0E60911F047091200488EF94E0B7
:205280000E9477126CE070E188EF94E00E940A0E60911D0470911E0488EF94E00E94771256
:2052A00062E070E188EF94E00E940A0EB80188EF94E00E94771269EF7FE088EF94E00E94A3
:2052C0000A0EB60188EF94E00E9477126DEE7FE088EF94E00E940A0EB50188EF94E00E9447
:2052E000771266EE7FE088EF94E00E940A0E60911B0470911C0488EF94E00E9477126DED2C
:205300007FE088EF94E00E940A0E4091E80450E070E060E02AE088EF94E00E94F1110E94D1
:205320007D118091E80481117FC08091550490915604A0915704B0915804A3019201281B89
:20534000390B4A0B5B0BDA01C901883B9B40A105B10508F469C04092550450925604609231
:205360005704709258046FEF70E188EF94E00E940A0E8091E1040E94401263EF70E188EF1C
:2053800094E00E940A0E809154040E9440128FE20E941B0F809153040E9440128091520482
:2053A000882331F06DED70E188EF94E00E940A0E68ED70E188EF94E00E940A0E40914E0463
:2053C00050914F04609150047091510488EF94E00E943D1260ED70E188EF94E00E940A0EDF
:2053E0004091F4045091F5046091F6047091F70488EF94E00E943D126BEC70E188EF94E0B4
:205400000E940A0EC301B20128EE33E040E050E00E94CC2EBA01A90188EF94E00E943D1205
:2054200089EC90E10E94831180915B0490915C04A0915D04B0915E04A3019201281B390B6C
:205440004A0B5B0BDA01C90180369A4EA105B10540F140925B0450925C0460925D047092F9
:205460005E0463E671E188EF94E00E940A0E609106017091070188EF94E00E94771265E42A
:2054800071E188EF94E00E940A0E6091590470915A0488EF94E00E94771284E191E10E94D9
:2054A000831180E090E0892B09F429C90E94980E882309F421C90E94000015C9E0E0DBCC24
:2054C000EE2309F46BCD4091140450911504C253DF4F59834883CE5CD0400E94FE0D9B0136
:2054E000AC01281939094A095B09C053DF4F288339834A835B83C05DD040C0906B04CC209A
:2055000009F47FC11F928CE08F931F9287E08F9389E292E09F938F931F9281EA8F933F9295
:205520002F920E947C2F0FB6F894DEBF0FBECDBF181619060CF0BEC09C012D5F3F4F223A3C
:20554000310508F0B7C0682FC1010E94E310F10101900020E9F731978F0102191309D12CA9
:20556000C12C64E3862E62E0962EF601EE51F24FE491C154DF4FE883CF5BD040F601ED5134
:20558000F24FE491C054DF4FE883C05CD040CF53DF4F1882C15CD0409E0126543F4F90E04E
:2055A00080E0D901A6014B51524FFA01E80FF91F6491F90161939F01662339F00196833044
:2055C000910599F713961C921397BF93AF93CB53DF4FF881C55CD040FF93CC53DF4F288192
:2055E000C45CD0402F939F928F921F9238E13F93C753DF4F4881C95CD0404F93C853DF4F5A
:205600005881C85CD0405F930E947C2F0FB6F894DEBF0FBECDBF181619060CF04BC09C0106
:205620002D5F3F4F2931310508F044C0682FCE018E559F4F0E94E310C853DF4FE881F981CC
:20564000C85CD04001900020E9F731977F01C853DF4F28813981C85CD040E21AF30AC8019B
:20566000805A91098E0D9F1D8F359F4F18F158014FEFA41AB40AF101E00FF11F5AE0508393
:20568000A7014F5F5F4FBE016E557F4FC1018A0D9B1D0E94372F87010A0D1B1D88E0C80E88
:2056A000D11C90E6C916D10409F05FCF0115110509F07AC080EA9EE00E94831110E000E05F
:2056C000D12CC12C81E08093120462E17FE088EF94E00E940A0E40913304509134046091FD
:2056E00035047091360488EF94E00E943D126DE07FE088EF94E00E940A0EB80188EF94E065
:205700000E94771267E07FE088EF94E00E940A0E8D2D0E94401261E07FE088EF94E00E9438
:205720000A0EC053DF4F488159816A817B81C05DD04088EF94E00E943D128CEF9EE0C110B3
:2057400002C087EF9EE00E9483110E94FE0DCC2009F424CC80910D0490910E0401969093C8
:205760000E0480930D04C653DF4F28813981CA5CD0403093050120930401C253DF4F488186
:205780005981CE5CD0405093030140930201C453DF4F88819981CC5CD04090930101809360
:2057A000000110921304FACBB801C1010E94F31DC82E882309F4F5C110926B0480910B04B8
:2057C00090910C048F3F980729F0019690930C0480930B0462E97EE088EF94E00E940A0ED8
:2057E00068E87EE088EF94E00E940A0EB80188EF94E00E94771280E99EE00E948311D12C6D
:2058000061CFB090A103B11084C080E00E945710C653DF4F08811981CA5CD040882349F082
:20582000C653DF4F08811981CA5CD0401460B1107AC081E00E94571081111860BE01615471
:205840007F4FC8010E941D0DBE0166547F4FC253DF4F88819981CE5CD0400E941D0D109191
:205860000D0400910E04DD2009F465C0BE016E557F4FC7010E941D0D0E94FE0DC753DF4F7C
:20588000F881C95CD040FF93C853DF4F2881C85CD0402F932DE332E03F932F9328EE33E001
:2058A00040E050E00E94CC2E5F934F933F932F93C953DF4F3881C75CD0403F93CA53DF4F41
:2058C0004881C65CD0404F93CB53DF4F5881C55CD0405F93CC53DF4F8881C45CD0408F93FB
:2058E0000F931F9380E492E09F938F931F9280E48F933F922F920E947C2F0FB6F894DEBF26
:205900000FBECDBF181619060CF44BC010E000E076CF80919F0380FD83CFC653DF4F08816F
:205920001981CA5CD04080919F039091A00396958795817081CF0E94FE0D2DE332E03F93F7
:205940002F9328EE33E040E050E00E94CC2E5F934F933F932F93C953DF4FF881C75CD04012
:20596000FF93CA53DF4F2881C65CD0402F93CB53DF4F3881C55CD0403F93CC53DF4F48818F
:20598000C45CD0404F930F931F9386E592E09F938F931F9280E48F933F922F920E947C2F5A
:2059A000ACCF9C012D5F3F4F2134310508F0AECF682FC1010E94E310F10101900020E9F744
:2059C00031978F0102191309002309F49FCF1127D0903B04DD2009F4B9C0E0900A04F12CC5
:2059E000F701EE0FFF1FEE50FC4F808191810E943E1187FF1CC0C70101966CE070E00E9408
:205A00001D2F80930A04DA94D0923B0480913704909138048F3F980729F0019690933804E5
:205A20008093370482E49EE00E948311D1CFD12C95E0B92E28E1A22E3AE0C32E80913B04D1
:205A4000D81608F083C080910A048D0D9927991F6CE070E00E941D2FFC01EE0FFF1FEE500C
:205A6000FC4F808191810E943E1187FD6FC02B2D382F3203F0011124EE55FC4F84811F92C6
:205A80008F938381282F082E000C330B3F938F938281282F082E000C330B3F938F93818145
:205AA0008F9380818F9349E652E05F934F931F92AF92C753DF4F9881C95CD0409F93C85397
:205AC000DF4FE881C85CD040EF930E947C2F0FB6F894DEBF0FBECDBF18161906BCF59C014A
:205AE0002D5F3F4F2931310588F5682FCE018E559F4F0E94E310C853DF4FE881F981C85C63
:205B0000D04001900020E9F73197AF01C853DF4F88819981C85CD040481B590B5527C801C0
:205B200001967C01E40EF51EE1EAEE16F10470F4F101E00FF11FC082BE016E557F4F820D12
:205B4000931D0E94372FD394870178CFB801C1010E94F31DC82E882309F4B4CDDD2081F09D
:205B600080910A048D0D9927991F6CE070E00E941D2F80930A0480913B048D1980933B0401
:205B800080916A04882329F010926A0481E080936B04CC24C39496CD83EE9CE00E94831102
:205BA0001EC862E97EE088EF94E00E940A0E60E87EE018CE81E791E09093960580939505E1
:205BC00080912E0390912F038559954071F4E091A805F091A90590818091AA058095892339
:205BE000808310922F0310922E0308958F929F92AF92BF92CF92DF92EF92FF92CF93DF93C2
:205C0000EC01688179818A819B81611571058105910521F464E279ED8BE597E02DE133EFAD
:205C200041E050E00E949A2E49015A019B01AC01A7EAB1E40E94B92E6B017C01ACEEB4EFE6
:205C4000A50194010E94C72EC60ED71EE81EF91EF7FE06C081E0C81AD108E10880E8F80A62
:205C6000C882D982EA82FB82C701B6019F77DF91CF91FF90EF90DF90CF90BF90AF909F9098
:205C80008F9008958F929F92AF92BF92CF92DF92EF92FF9260910B0170910C0180910D0156
:205CA00090910E01611571058105910521F464E279ED8BE597E02DE133EF41E050E00E94E1
:205CC0009A2E49015A019B01AC01A7EAB1E40E94B92E6B017C01ACEEB4EFA50194010E945C
:205CE000C72EC60ED71EE81EF91EF7FE06C081E0C81AD108E10880E8F80AC0920B01D092DF
:205D00000C01E0920D01F0920E01C701B6019F77FF90EF90DF90CF90BF90AF909F908F9018
:205D2000089560930B0170930C0180930D0190930E010895052E97FB1EF400940E94B12EDB
:205D400057FD07D00E94CC2E07FC03D04EF40C94B12E50954095309521953F4F4F4F5F4FD6
:205D6000089590958095709561957F4F8F4F9F4F08950E94EE2EA59F900DB49F900DA49F48
:205D8000800D911D11240895B7FF0C94B92E0E94B92E821B930B0895A1E21A2EAA1BBB1BF2
:205DA000FD010DC0AA1FBB1FEE1FFF1FA217B307E407F50720F0A21BB30BE40BF50B661FF1
:205DC000771F881F991F1A9469F760957095809590959B01AC01BD01CF010895A29FB00126
:205DE000B39FC001A39F700D811D1124911DB29F700D811D1124911D0895991B79E004C093
:205E0000991F961708F0961B881F7A95C9F780950895AA1BBB1B51E107C0AA1FBB1FA61758
:205E2000B70710F0A61BB70B881F991F5A95A9F780959095BC01CD01089597FB072E16F400
:205E4000009407D077FD09D00E94092F07FC05D03EF4909581959F4F0895709561957F4F17
:205E60000895EE0FFF1F0590F491E02D0994FB01DC0102C001900D9241505040D8F708954E
:205E8000FC018191861721F08823D9F7992708953197CF010895FB01DC018D910190801917
:205EA0000110D9F3990B0895FB01DC014150504030F08D910190801919F40020B9F7881BE2
:205EC000990B0895FB0151915523A9F0BF01DC014D9145174111E1F759F4CD0101900020C5
:205EE00049F04D9140154111C9F3FB014111EFCF81E090E001970895AEE0B0E0E2E8FFE24D
:205F00000C9438320D891E898F89988D26E02C831A83098397FF02C080E090E801979E8336
:205F20008D83AE01455E5F4F698D7A8DCE0101960E94AC2F4D815E8157FD0AC02F81388539
:205F4000421753070CF49A01020F131FF80110822E96E4E00C945432ABE0B0E0E2EBFFE2AE
:205F60000C942A327C013B018A01FC0117821682838181FFC8C1CE0101965C01F7019381D7
:205F8000F30193FD859193FF81913F01882309F453C1853239F493FD859193FF81913F0159
:205FA000853229F4B70190E00E949C31E7CF912C212C312CFFE1F31538F08B3211F190F406
:205FC000803209F1833229F137FC3CC020ED280F2A3050F536FE20C08AE0989E200D11241E
:205FE000922E06C08D3291F0803371F7689430F8F30193FD859193FF81913F018111DACFE3
:2060000021C0689431F8689432F8F2CF689433F8EFCF689434F8ECCFEAE02E9E200D1124D3
:20602000222E689435F8E4CF8E3229F436FC04C1689436F8DDCF8C3619F4689437F8D8CFE9
:206040008836B1F2982F9F7D95549330E0F08336A1F18337C1F1833509F063C02801F2E0FA
:206060004F0E511CF801C080D180692D70E036FC02C06FEF7FEFC6010E9486314C016894BD
:2060800037F882010AC00C5F1F4FFFE3F98388248394912C6501E89437F833FE2DC0522C20
:2060A0008114910471F5552009F468CFB70180E290E00E949C315A94F6CFF80180818983F5
:2060C0000E5F1F4FE4CF2801F2E04F0E511CF801C080D180692D70E036FC02C06FEF7FEF3D
:2060E000C6010E9491314C018201D5CFB70180E290E00E949C312A942814190409F0B0F751
:20610000CECFF60137FC859137FE81916F01B70190E00E949C3151105A94F1E08F1A9108F2
:20612000BFCF843619F0893609F077C0F80137FE6BC060817181828193810C5F1F4FF32DE3
:20614000FF763F2E97FF09C090958095709561957F4F8F4F9F4F689437F82AE030E0A50144
:206160000E94CC31C82ECA188C2C432C36FE0CC0E89440F8C91440F434FE05C032FC03C0D4
:20618000F32DFE7E4F2E892C44FE95C0FE01EC0DF11D8081803309F087C0242D297E422E38
:2061A000842D8870582E43FC95C040FE8FC09C2C821418F42C0C922C981844FE91C0B70134
:2061C00080E390E00E949C3142FE09C088E790E041FE02C088E590E0B7010E949C31C914B3
:2061E00008F48AC0CA94D12C9FEFC91AD90ACA0CDB1CF60182916F01B70190E00E949C31CC
:20620000AC14BD04B1F74FCF60817181072E000C880B990B0E5F1F4F92CFD32CE894D4F869
:206220002AE030E0853739F1232D297FD22E8F3601F148F48835A9F0F701868197812B9645
:20624000E2E10C944632803749F08837A9F7D4FE02C06894D2F820E130E00DC06894D4F814
:20626000F6CF34FE03C0822F8660D82E20E132E002C028E030E0F801D7FE0FC0608171816A
:20628000828193810C5F1F4FA5010E94CC31C82ECA183D2CE89437F867CF6081718190E064
:2062A00080E00E5F1F4FF0CF42FC02C0839478CF8394839475CF842D867809F471CFF6CF63
:2062C000B70180E290E00E949C3183948214C0F3512C73CF522C5818821408F46ECFF8CF22
:2062E000842D867809F47BCF8BE241FE80E247FC8DE2B70190E071CFB70180E390E00E9453
:206300009C319A946CCF8FEF9FEF99CFFC010590615070400110D8F7809590958E0F9F1F6B
:206320000895FC016150704001900110D8F7809590958E0F9F1F08950F931F93CF93DF9397
:20634000182F092FEB018B8181FD09C01FEF0FEF812F902FDF91CF911F910F91089582FFC6
:2063600014C02E813F818C819D81281739073CF4E881F981CF0101969983888310838E81ED
:206380009F8101969F838E83E3CFE885F985812F0995892BA1F3DACFFA01AA27283051F1D1
:2063A000203181F1E8946F936E7F6E5F7F4F8F4F9F4FAF4FB1E03ED0B4E03CD0670F781FFE
:2063C000891F9A1FA11D680F791F8A1F911DA11D6A0F711D811D911DA11D20D009F4689480
:2063E0003F912AE0269F11243019305D3193DEF6CF010895462F4770405D4193B3E00FD0DF
:20640000C9F7F6CF462F4F70405D4A3318F0495D31FD4052419302D0A9F7EACFB4E0A6956D
:206420009795879577956795BA95C9F700976105710508959B01AC010A2E0694579547950A
:2064400037952795BA95C9F7620F731F841F951FA01D08952F923F924F925F926F927F927B
:206460008F929F92AF92BF92CF92DF92EF92FF920F931F93CF93DF93CDB7DEB7CA1BDB0B48
:206480000FB6F894DEBF0FBECDBF09942A88398848885F846E847D848C849B84AA84B98465
:2064A000C884DF80EE80FD800C811B81AA81B981CE0FD11D0FB6F894DEBF0FBECDBFED01B8
:2064C00008951CE0C3EEDCE004C0FE010E94312F2196C43ED107C9F7F894FFCFFEFFFFFF4B
:2064E000FFFFFFFFF401FF0100000053454E44204F4B00000000008813983A307560EA016A
:2065000002020202FF6572726F72006275737900C40920033075C409B004401F2003DC050E
:20652000DC052823B80B303132333435363738394142434445460000000000CE0E2E0E5B57
:206540000E200F8C0E6A0E7E0E00000000590F2E0EEC0F580FB50FCB0F400F0D0A002B49E2
:2065600050442C005749464900474F5420495000444953434F4E4E454354006275737900DC
:206580002B43574A41503A004552524F52006E6F2061700041542B006E6F206368616E670B
:2065A00065002B43574C41503A0033465F333032006E6F20697000414C524541004C494E0F
:2065C0004B454400434C4F53454400556E6C696E6B00554E4C494E4B006C696E6B20697341
:2065E000206E6F742076616C69640053454E44204F4B0053454E44204641494C00302E3022
:206600002E302E3000442C2A2C25752C25752C00442C25732C25732C00503100532C2575DA
:206620002C25732C25732C256C752C25732C25732C00532C25752C25732C25732C256C7519
:206640002C25732C00412C25752C256325632C25752C0000FFFFFFFFFFFFFFFFFFFFFFFF21
:20666000FFFFFFFFFFFFFFFFFFFFFFFFFFFFFFFFFFFFFFFFFFFFFFFFFFFFFFFFFFFFFFFF3A
:20668000FFFFFFFFFFFFFFFFFFFFFFFFFFFFFFFFFFFFFFFFFFFFFFFFFFFFFFFFFFFFFFFF1A
:2066A000FFFFFFFFFFFFFFFFFFFFFFFFFFFFFFFFFFFFFFFFFFFFFFFFFFFFFFFFFFFFFFFFFA
:2066C000FFFFFFFFFFFFFFFFFFFFFFFFFFFFFFFFFFFFFFFFFFFFFFFFFFFFFFFFFFFFFFFFDA
:207E0000112484B714BE81FFF0D085E08093810082E08093C00088E18093C10086E08093FC
:207E2000C20080E18093C4008EE0C9D0259A86E020E33CEF91E0309385002093840096BBAD
:207E4000B09BFECF1D9AA8958150A9F7CC24DD2488248394B5E0AB2EA1E19A2EF3E0BF2E79
:207E6000A2D0813461F49FD0082FAFD0023811F0013811F484E001C083E08DD089C0823404
:207E800011F484E103C0853419F485E0A6D080C0853579F488D0E82EFF2485D0082F10E0A0
:207EA000102F00270E291F29000F111F8ED068016FC0863521F484E090D080E0DECF84364D
:207EC00009F040C070D06FD0082F6DD080E0C81680E7D80618F4F601B7BEE895C0E0D1E0ED
:207EE00062D089930C17E1F7F0E0CF16F0E7DF0618F0F601B7BEE89568D007B600FCFDCF1A
:207F0000A601A0E0B1E02C9130E011968C91119790E0982F8827822B932B1296FA010C016F
:207F200087BEE89511244E5F5F4FF1E0A038BF0751F7F601A7BEE89507B600FCFDCF97BE85
:207F4000E89526C08437B1F42ED02DD0F82E2BD03CD0F601EF2C8F010F5F1F4F84911BD0B8
:207F6000EA94F801C1F70894C11CD11CFA94CF0CD11C0EC0853739F428D08EE10CD085E9AE
:207F80000AD08FE07ACF813511F488E018D01DD080E101D065CF982F8091C00085FFFCCF0A
:207FA0009093C60008958091C00087FFFCCF8091C00084FD01C0A8958091C6000895E0E68F
:207FC000F0E098E1908380830895EDDF803219F088E0F5DFFFCF84E1DECF1F93182FE3DF47
:207FE0001150E9F7F2DF1F91089580E0E8DFEE27FF270994FFFFFFFFFFFFFFFFFFFF040425
:00000001FF
