:200000000C94B40D0C94EB0D0C94EB0D0C944A210C944A210C944A210C94EB0D0C94EB0DFE
:200020000C94EB0D0C94EB0D0C94EB0D0C94EB0D0C94EB0D0C94EB0D0C94EB0D0C94EB0D00
:200040000C94A8200C94EB0D0C9418210C94F2200C94EB0D0C94EB0D0C94EB0D0C94EB0DB5
:200060000C94EB0D0C94EB0DEBB094EC9DB4ED8AB8EBA5BC20EB8498EC96B420EBB284EBE0
:20008000A0B8EB8BA4005B44524F502D4F56465D20ECA484EC9DB42000EBB094EC9DB4EDFF
:2000A0008AB820EBB284EBA6BC202B20ECA48420ECA1B0EBA6BD20ECB488EAB8B0ED999492
:2000C000005B4C41444445525D2031EB8BA820ECA1B0ECB9983A20EC8B9CEBA6ACEC96BCCB
:2000E00020EB939CEBA088EC9DB82000ECB48820EBB0B1EC98A4ED9484EBA19C20EB909836
:20010000ED9280EC9DB4ED959CEB8BA428ECA285ECB0A9EC97AD29005B4C41444445525D2E
:20012000202020EB8C80EC8BA02034EB8BA820ECA1B0ECB998EBA5BC20005B4C4144444524
:20014000525D202020ED9584EC9A9420EBB680ED92883A20EBA19CEC9AB0EC82ACEC9DB419
:20016000EB939C204D4F5346455420EC8AA4EC9C84ECB99828EC98883A20324E373030301F
:200180002F414F33343030202B2031306B29005B4C41444445525D20E29AA035EB8BA82066
:2001A000EBAFB8EC8BA4ED96893A20ECA084EC9B9020EC9EACED88ACEC9E85EC9D80202A6C
:2001C0002AEBB680ED928820EBAFB8EBB3B4EC9CA0EBA19C20EBAFB8EAB5ACED98842A2A9F
:2001E000EC9DB4EB8BA428EBB0B0ECA09CEAB08020EC9584EB8B88EB8BA42900ECB4882045
:20020000EC89ACEAB3A02041542B52535420EBA5BC20EB9098ED9280EC9DB4ED959CEB8B38
:20022000A42028EC9DB4EAB283EC9DB420ECA095EC838120EAB2BDEBA19CEB8BA429005BC9
:200240004C41444445525D202020E2869220005B4C41444445525D202020EC9CA0EC9DBCEA
:20026000ED9598EAB28C20ED9280EBA6ACEB8A9420ED8E8CEC9BA8EC96B42068616E67206D
:20028000EC9D8020EC86A1EC8898EC8BA020EBA19CECA78120EC9EACEC84A4EAB384EBA18C
:2002A0009C20ECA09CEAB1B0ED9688EB8BA4005B4C41444445525D202020ECA084EC9B90FF
:2002C000C2B7454EC2B75253542D4C4F5720EC8381ED839CEBA9B42052535420ED9580ECF6
:2002E0009D8420ED9D94EB93A4EC96B4EB8F8420EB8F99EC9DBCED9598EAB3A02C005B4CA7
:2003000041444445525D2034EB8BA820EAB1B4EB8488EB9C803A20ED9598EB939CEC9BA884
:20032000EC96B420EBA6ACEC858BEC9D80202A2AEC84A4EAB384EC838120EBB0B0ECA09CF9
:200340002A2AEB8BA428EBAFB8EBB0B0EC84A0EC9DB420EC9584EB8B88EB8BA42900ECB417
:200360008820EC89ACEAB3A02041542B5253542028EBAAA8EB938820EC868CED9484ED8A79
:20038000B820EBA6ACEC858B29005B4C41444445525D2033EB8BA820ECA1B0ECB9983A205A
:2003A00000ECB48820EC89ACEAB3A02041542B435751415020EBA19C20EAB2B0ED95A9EC70
:2003C0009D8420EBAA85EC8B9CECA081EC9CBCEBA19C20EB818AEC9D8020EB92A420EB8B40
:2003E000A4EC8B9C20EBB699EB8A94EB8BA4005B4C41444445525D2032EB8BA820ECA1B098
:20040000ECB9983A2000EB8BA8005B4C41444445525D20E28691E2869120EB8BA820EC83E4
:2004200081EC8AB920E2869220005B4C41444445525D20E286912033EB8BA82841542B52AA
:2004400053542920ECA781ED968920E2809420415420EAB384ECB8B5EC9DB420EC9EA0EAB6
:20046000B2BCEC9CBCEBA9B420EC9584EB9E9820EB8BA8EC9D8020EC9D98EBAFB8EAB08048
:2004800020EC9786EB8BA400ED9A8C20EB8884ECA0812900EB8BA8280020C2B720ED9884B1
:2004A000EC9EAC2000EC9786EC9D8C00ED9A8C20C2B720EAB2B0ED95A9EC9CA0ECA780202A
:2004C000007320C2B720EC97B0EC868D2000292043574A4150EC868CEC9A94200043574AC4
:2004E0004150204641494C00415420EAB384ECB8B520EC9EA0EAB9800043574A415020EB13
:20050000ACB4EC9D91EB8BB5005B4C41444445525D20EC8BA4ED8CA828005B4C4144444599
:20052000525D2031ECB48820EC9588EC979020EB93A4EC96B4EC98A820ECA491EBB3B520FF
:20054000EC8BA4ED8CA820EC8BA0ED98B820E2809420EC84B8ECA78020EC958AEB8A94EB5B
:200560008BA4005B54582D44524F505D20005B54585D2000EBB094EC9DB4ED8AB8EBA19C1F
:2005800020EC8AA4ED8AB8EBA6BC20EBB3B5EAB5AC28EC849CEBB284EB8A9420EC9DB4200C
:2005A000ECA484EC9D8420EBB284EBA6B0EB8BA429005B54582D524553594E435D20ED944F
:2005C00084EBA1ACED9484ED8AB820EB8693ECB9A820E2869220EB8D94EBAFB820005B5453
:2005E000582D52454A4543545D2043495053454E4420EAB1B0EBB680284552524F522920AF
:20060000E2809420EB8D94EBAFB8EBA5BC20EB84A3ECA78020EC958AEB8A94EB8BA4005B2C
:2006200054582D425553595D2045535020EAB08020EBB094EC8198EB8BA428EAB1B0EBB67D
:20064000802920E2809420EC8BA4ED8CA8EBA19C20EC84B8ECA78020EC958AEB8A94EB8B52
:20066000A42E20EB8BA4EC9D8C20ECA3BCEAB8B0EC979020EB8BA4EC8B9C20EBB3B4EB825D
:20068000B8EB8BA4000D0A0041542B43495053454E443D005B54582D574149545D20E2980E
:2006A00085E2988520543220ECB488EAB3BC20E280942053454E44204F4B20EAB08020EB10
:2006C000819DEB82B420EC958820EC98A8EB8BA420E2869220EBA781ED81ACEBA5BC20EB8E
:2006E0008BA4EC8B9C20EC84B8EC9AB4EB8BA4005B54582D574149545D20EC959E20ECA06B
:2007000084EC86A1EC9D982053454E44204F4B20EBA5BC20EC9584ECA78120EBAABB20EBFD
:20072000B4A4EB8BA420E2809420EC9DB4EBB28820ECA3BCEAB8B0EB8A9420EAB1B4EB840B
:2007400088EB9BB4EB8BA4005B54582D574149545D20E2988520543120ECB488EAB3BC2072
:20076000E2809420EAB7B8EB9E98EB8F8420EAB384EC868D20EAB8B0EB8BA4EBA6B0EB8B68
:20078000A428EB9190EB93A4EAB8B0ECA78020EC958AEB8A94EB8BA429005B4241442053EE
:2007A0004C4F545D207269643D0020E28692206F636375706965643D005B53494D5D20EDE0
:2007C000959C20EAB1B8EC9D8C3A20005B53494D5D20EBB094EABF8020EC8B9CEBAEAC2055
:2007E000ECB9B8EC9DB420EC9786EB8BA420E2869220726573756C743D35005B424144208F
:200800004649454C44535D207269643D005B445550207269645D20005B5245475D205120E1
:20082000EC8898EC8BA020E2809420EB8BA4EC9D8C20EC86A1EC8BA020ECB0BDEC9790203A
:20084000EB93B1EBA19DEC9D8420EB8BA4EC8B9C20EBB3B4EB82B8EB8BA40020E2809420FF
:20086000ECBD9CEBB0B1EC9DB420EAB1B0ECA088206172673D0020E2809420EB93B1EBA1A3
:200880009D20EC9786EC9D8C0020E2809420EC9DB8EC9E9020ED95B4EB8F8520EC8BA4ED6F
:2008A0008CA800206172673D005B475D206964783D005B475D20EAB1B0ECA08820696478E9
:2008C0003D005B434B53554D204E475D20005B4E45545D20E298852045535020EAB08020AB
:2008E000495020EBA5BC20EC9E83EC9788EB8BA420E2809420EBAAA8EB938820EBA6ACECDF
:20090000858BEC9CBCEBA19C20EBB3B8EB8BA42E20EB8884ECA08120EC82ACEAB1B42000D0
:20092000ED9A8C20EC97B0EC868D20EC8BA4ED8CA820E2869220EC98A4ED9484EB9DBCEC5F
:200940009DB820ECA084ED99982E20EB82A1EC9D8020EC868CECBC93EBB680ED84B020EBE9
:200960008BABEB8A94EB8BA428434950434C4F534529005B4E45545D20ECA084EC86A12079
:20098000005B4E45545D20ECA084EC86A120EC8BA4ED8CA82000EB81940020C2B72036EB1F
:2009A0008BA828EC9B8CECB998EB8F85292000EBAFB8EBB0B0EC84A020E2809420413220CE
:2009C000EBA5BC204553502052535420EC979020EBACBCEBA6ACEAB3A0204553505F52537E
:2009E000545F57495245443D31005B424F4F545D20EC82ACEB8BA4EBA6AC2034EB8BA82844
:200A000045535020ED9598EB939CEBA6ACEC858BEC84A0292000EC9B8CECB998EB8F852099
:200A2000002A2AEBB88CEB9DBCEC9AB4EC9584EC9B8328ECA084EC9B90EBB680ECA1B129CF
:200A40002A2A2000EC99B8EBB680EBA6ACEC858B28EBB284ED8ABC2F445452292000ECA021
:200A600084EC9B90EC9DB8EAB08028504F52292000EC958C20EC889820EC9786EC9D8C2087
:200A8000E2809420EC9DB420EBB680ED8AB8EBA19CEB8D94EAB080204D4355535220EC9DF2
:200AA0008420ECA780EC9AB0EAB3A020EB8498EC96B4EC98A8EB8BA4005B424F4F545D205D
:200AC000EBA6ACEC858B20EC9B90EC9DB83A2000206D6F64756C6573202F206465763D50B7
:200AE00031002073656E736F7273202F20002073706F7473202F20000A5B5041524B494E37
:200B000047204E4F44455D2070726F746F207631202F2000ED958000EC9588EC9DBDEC9D87
:200B20008C000A5B53454E535D20000A5B4E45545D20EB8C80EC8381203139322E313638D5
:200B40002E33352E32313A38383838005B4C41444445525D2034EB8BA83A2045535020EB31
:200B6000A6ACEC858B20ED95B4ECA09C20E2809420EBB680ED8C85EC9D8420EAB8B0EB8B5F
:200B8000A4EBA0B8EB8BA4EAB0802043574D4F444520EBB680ED84B020EB8BA4EC8B9C00AC
:200BA0005B4E45545D2031302043575141502028EAB2B0ED95A920ED95B4ECA09C20E280BA
:200BC0009420EC82ACEB8BA4EBA6AC2032EB8BA8290041542B43575141500D0A005B4E4516
:200BE000545D20392043574C41502028ECA3BCEBB38020415020EBAAA9EBA19D20E2809455
:200C000020ECA784EB8BA8290041542B43574C41500D0A005B4E45545D2038204357434FC5
:200C2000554E5452592028ECB184EB84902031322F313320EC9AB0ED9A8C20EC8B9CEB8F7E
:200C40008420E2809420ECA784EB8BA8290041542B4357434F554E5452595F4445463D3053
:200C60002C224B52222C312C31330D0A005B4E45545D203720474D522028ED8E8CEC9BA8E9
:200C8000EC96B420ED8C9020E2809420ECA784EB8BA8290041542B474D520D0A005B4E45B6
:200CA000545D203620434950434C4F53452028EB82A1EC9D8020EC868CECBC9320EB8BABC2
:200CC000EAB8B0290041542B434950434C4F53450D0A005B4E45545D2035204349505354D9
:200CE0004152540041542B43495053544152543D22544350222C223139322E3136382E3363
:200D0000352E3231222C383838380D0A005B4E45545D2034204349504D55583D30004154DD
:200D20002B4349504D55583D300D0A005B4E45545D20332043494653522028495020EBA514
:200D4000BC20EC8BA4ECA09CEBA19C20EBB09BEC9598EB8A94EAB080290041542B434946FF
:200D600053520D0A005B4E45545D20322043574A41502028EC9D91EB8BB5EAB98CECA78062
:200D800020ECB59CEB8C80203330ECB48820EAB8B0EB8BA4EBA6B0EB8BA4290041542B4341
:200DA000574A41503D22534B5F5769466947494741353044435F322E3447222C22323031F5
:200DC00031303530373936220D0A005B4E45545D20312043574D4F44453D310041542B432E
:200DE000574D4F44453D310D0A005B4E45545D2030205253540041542B5253540D0A00ED2D
:200E00009A8C20EC8BA4ED8CA820E286922041542B52535420EBA19C20ECA084ECB2B42073
:200E2000ECB488EAB8B0ED999428EC82ACEB8BA4EBA6AC20EC8381EC8AB929005B4E4554DB
:200E40005D20434950434C4F534520005B4E45545D2043494653522033ED9A8CEC9790EB09
:200E60008F8420495020EAB08020EC9786EB8BA420E286922043574A415020EBB680ED84C8
:200E8000B020EB8BA4EC8B9C005B4E45545D2043494653522033ED9A8C20EC868CECA78484
:200EA00020E2809420EAB7B8EB9FACEB8298206275737920EAB1B0EBB680EC9880EB8BA4DB
:200EC0002E20495020EC868CEC8BA4EBA19C20EC84B8ECA78020EC958AEB8A94EB8BA40021
:200EE0005B4E45545D20495020EAB08020EC9786EB8BA420E2869220434950535441525479
:200F000020EBA5BC20EBB3B4EB82B4ECA78020EC958AEAB3A02043574A415020EBA19C205A
:200F2000EB9098EB8F8CEC9584EAB084EB8BA400EB8BA829005B4C41444445525D20E28628
:200F400093203330ECB48820EC97B0EC868D20EC98A8EB9DBCEC9DB820E2809420EC82ACE0
:200F6000EB8BA4EBA6ACEBA5BC2030EB8BA8EC9CBCEBA19C20EB82B4EBA6B0EB8BA4202810
:200F8000ECA781ECA08420000209413100495000000242310049500000094C44004F4700BA
:200FA000000D5B41434B515D20ECBA90EC8B9CEC9790EC849C20EBB080EBA0A4EB82982035
:200FC000EBA78CEB93A420EC889820EC9786EB8BA420E2809420EBB284EBA6B0EB8BA400B0
:200FE000EC8BA4ED8CA82000ECA084EC86A1200042005B5245475D20EB93B1EBA19D2000E2
:201000005B5245475D20EB93B1EBA19D20EBB0B0ECB998EBA5BC20EBA78CEB93A4ECA7805B
:2010200020EBAABBED9688EB8BA420E2809420EC9E98EBA6B020EB93B1EBA19DEC9D8420DD
:20104000EB82B4EBB3B4EB82B4ECA78020EC958AEB8A94EB8BA40020723D300020723D319C
:2010600000206475653D002061636B3D002074783D005B534C4F545D206E3D005D20E28656
:201080009220EBA781ED81ACEBA5BC20EB8BA4EC8B9C20EC84B8EC9AB4EB8BA400202F20CD
:2010A000455350EBA6ACEC858B2000202F2053454E444641494C2000202F2053454E444F32
:2010C0004BEC8381ED959C20002920C2B720EB8884ECA0815BEAB1B4EB8488EB9C802000E9
:2010E000202F20EAB1B0EBB6802000202F20EBACB4EC9D91EB8BB520006D7320EB8F99ECD7
:20110000958820ED959C20ECA484EB8F8420EBAABB20EB8298EAB094EB8BA42028627573D3
:201120007920005B4E45545D20E2988520ECA095ECA78020EAB090ECA7803A2000206F6E50
:201140006C696E653D0020736B69703D00206269676F6B6C6F73743D00206F6B6C6F7374AF
:201160003D00206269676F6B73743D002062696764726F703D002062696766696C6C3D0068
:201180002070656E6466696C6C3D002070656E6464726F703D00206F6B73747265616D3D28
:2011A0000020636B73756D6E673D002073736F76663D0020736D6973733D00206F6F773D0E
:2011C0000020736C6F743D002061636B7374616C653D002061636B64726F703D0020616326
:2011E0006B713D0020737475636B3D00206F6B746F3D002073656E646661696C3D00207200
:201200006573796E633D002068777273743D00206573707273743D002064726F703D005B6F
:20122000434E545D2075703D0073002075703D00206C696E65733D002072783D00205B45F6
:201240005350EBA6ACEC858BEC9CA0ECA780ECA4915D0020EC82ACEB8BA4EBA6AC3D005BD0
:20126000444941475D206F66666C696E6520737465703D00ED9A8C2028EC849CEBB284EC6C
:201280009D982027EBB284EBA6B0ECA4842720EAB3BC20EBA79EEC9584EC95BC20ED959CEC
:2012A000EB8BA42900204220C2B720ED9484EBA1ACED9484ED8AB820EC9EACEB8F99EAB854
:2012C000B020005B52414D5D20ECB59CECA08020EC97ACEC9CA0200000000000240027005B
:2012E0002A000000000800020100000304070000000000000000222028005C780022005BF0
:201300004E45545D20EC86A1EC8BA020EC98A4EBA59820EC9D91EB8BB528EBA19CEAB7B8C1
:20132000EBA78C2C20ECB9B4EC9AB4ED84B0EB8A942073656E644C696E6520EC9DB420ECCB
:2013400084BCEB8BA4293A20005B4E45545D20E298852053454E44204641494C20E2809456
:2013600020ED8E98EC9DB4EBA19CEB939CEAB98CECA78020EC8DBCEB8A94EB8DB020ECA047
:2013800084EC86A1EC9DB420EC8BA4ED8CA8ED9688EB8BA42E20EC8BA4ED8CA8EBA19C2026
:2013A000EC84BCEB8BA4005B4E45545D206C696E6B206973206E6F742076616C696420E2DB
:2013C000869220ECA689EC8B9C20EC98A4ED9484EB9DBCEC9DB82C20EB82A1EC9D8020EC66
:2013E000868CECBC9320EB8BABEAB8B028434950434C4F534529005B4E45545D206F6E6C62
:20140000696E652028434F4E4E45435429202B20ECBA90EC8B9C20EBB984EC9B80005B4E69
:2014200045545D206F6E6C696E652028414C524541445920434F4E4E454354454420C2B77B
:2014400020ECB488EAB8B020EAB2BDED95A929005B4E45545D20414C524541445920434FB2
:201460004E4E454354454420E2809420EB82A1EC9D8020EC868CECBC9320EC9D98EC8BAC61
:2014800020ECA491EC9DB4EBAF80EBA19C20EBAFBFECA78020EC958AEB8A94EB8BA420E2B0
:2014A000869220434950434C4F5345005B4E45545D206E6F20697020E2809420495020EA34
:2014C000B08020EC9786EB8BA42E20434950535441525420EC9EACEC8B9CEB8F84EBA5BC2E
:2014E00020ECA091EAB3A02043574A415020EBA19C20EB9098EB8F8CEC9584EAB084EB8BC3
:20150000A4005B4E45545D202020322E3447487A20EC9DB8EAB080202F20ECA084ED8C8C8C
:20152000EAB08020EB8BBFEB8A94EAB080202F205353494420ECB2A0EC9E90EAB08020EBDA
:20154000A79EEB8A94EAB080EBA5BC20EBB490EB9DBC2E005B4E45545D20EC84A4ECA09522
:20156000ED959C205353494420EAB08020EBAAA9EBA19DEC9790202A2AEC9786EB8BA42A65
:201580002A20E2869220EBB984EBB28820EBACB8ECA09CEAB08020EC9584EB8B88EB8BA4AC
:2015A0002E005B4E45545D20202032EC889CEC9C843A20EBB984EBB080EBB288ED98B82091
:2015C000202033EC889CEC9C843A20504D46283830322E313177292F5750413320ECA084D3
:2015E000ED9998EBAAA8EB939C20EB8184EAB8B0005B4E45545D20202031EC889CEC9C84C8
:201600003A20EC9C8420ECA484EC9D98202A2AEBA788ECA780EBA78920EC88ABEC9E9028D2
:20162000ECB184EB8490292A2A20EBA5BC20EBB490EB9DBC2E2031322F313320EC9DB4EB82
:20164000A9B420EAB3B5EC9CA0EAB8B0EBA5BC20312F362F313120EBA19C20EBB094EABF6E
:2016600094EB9DBC005B4E45545D20EC84A4ECA095ED959C205353494420EAB08020EBAA3E
:20168000A9EBA19DEC9790202A2AEC9E88EB8BA42A2A20E2869220415020EB8A9420EBB3BF
:2016A000B4EC9DB8EB8BA42E20EAB2B0ED95A9EBA78C20EAB1B0EBB680EB909CEB8BA42E4D
:2016C000005B4E45545D20E29480E2948020415020EC8AA4ECBA9420ED8C90ECA09520E2EE
:2016E0009480E29480E29480E29480E29480E29480E29480E29480E29480E29480E294803A
:20170000E29480E29480E29480E29480E29480E29480E29480E29480E29480E29480E294B7
:2017200080E29480E29480E29480E29480005B4E45545D202020E2869220EAB3B5EC9CA0BE
:20174000EAB8B020ECB184EB8490EC9D8420312F362F313120EBA19C20EBB094EABEB8EBC1
:201760008A9420EAB283EC9DB420ED9995ECA09520ED95B4EBB295EC9DB4EB8BA4005B4EEB
:2017800045545D204357434F554E54525920EBAFB8ECA780EC9B90284552524F522920E2EC
:2017A000809420EC9DB420ED8E8CEC9BA8EC96B4EBA19CEB8A9420ECB184EB849020313238
:2017C0002F313320EC9D8420ECBD94EB939CEBA19C20EBAABB20EC97B0EB8BA42E005B4EF6
:2017E00045545D20E29885204357434F554E54525920EAB08020EBA8B9EC9788EB8BA420FB
:20180000E2809420EAB79CECA09CEB8F84EBA994EC9DB820317E31332E20ECB184EB849045
:2018200020313220EAB2B0ED95A9EC9DB420EC97B4EBA0B8EC9D8420EC889820EC9E88EB61
:201840008BA4005B4E45545D204349504D55583D3020ECA081EC9AA9EB90A820E28692209E
:201860004349505354415254005B4E45545D20E2988520495020ED9995EBB3B43A20005B45
:201880004C41444445525D2032EB8BA83A20EAB2B0ED95A920ED95B4ECA09C20EC9984EB6C
:2018A000A38C20E2869220EAB9A8EB8197ED959C20EC8381ED839CEC9790EC849C2043575E
:2018C0004A415020EC9EACEC8B9CEB8F84005B4E45545D2043574A4150204F4B20E28094C2
:2018E00020EAB2B0ED95A9EB9090EB8BA42E20495020EBA5BC20EC8BA4ECA09CEBA19C202E
:20190000EBB09BEC9598EB8A94ECA78020434946535220EBA19C20ED9995EC9DB8ED959CE3
:20192000EB8BA400ED9A8C2028EAB5ACED989520ED8E8CEC9BA8EC96B4EB8A9420EC82ACFE
:20194000EC9CA0EBA5BC20ECA3BCECA78020EC958AEB8A94EB8BA429005B4E45545D20E27D
:2019600098852043574A415020EC8BA4ED8CA82000ECA091EC868D20EC8BA4ED8CA800EAD7
:20198000B7B8205353494420EC9D9820415020EBA5BC20EBAABB20ECB0BEEC9598EB8BA40A
:2019A00000EBB984EBB080EBB288ED98B8EAB08020ED8B80EBA0B8EB8BA400ECA091EC8664
:2019C0008D20EC8B9CEAB084ECB488EAB3BC005B4E45545D20E298852043574A415020EC49
:2019E0008BA4ED8CA820EC82ACEC9CA03A20005B4E45545D206275737920E280942045538B
:201A00005020EAB08020EC959E20EBAA85EBA0B9EC9D8420ECB298EBA6AC20ECA491EC9D15
:201A2000B4EB8BA42E20ECA084ECA784ED9598ECA78020EC958AEB8A94EB8BA4005B4E45FA
:201A4000545D205749464920444953434F4E4E45435420E2809420495020EBA5BC20EC9E97
:201A600083EC9788EB8BA4005B4E45545D205749464920474F5420495020E280942049503E
:201A800020ED9995EBB3B42E2039ECB48820EB8C80EAB8B0ECB0BDEC9D8420EB819DEAB96F
:201AA0008CECA78020EAB8B0EB8BA4EBA6ACECA78020EC958AEAB3A020EBB094EBA19C20AC
:201AC000EB8BA4EC9D8C20EB8BA8EAB384EBA19C006D73005B534C4F542D4F4F575D202B09
:201AE000005B41545D20005B41434B515D20EAB080EB939D20ECB0B820E2809420EAB08088
:201B0000EC9EA520EC98A4EB9E98EB909C20EBB3B4EBA5982041434B20EBA5BC20EBB284E0
:201B2000EBA6B0EB8BA4000000000023002600290000000000250028002B0004040404044C
:201B4000040404020202020202030303030303010204081020408001020408102001020416
:201B600008102000C2217F2F11241FBECFEFD8E0DEBFCDBF84B78093C60514BE0FB6F894AF
:201B8000A89580916000886180936000109260000FBE12E0A0E0B1E0EEE0F8E602C0059066
:201BA0000D92A838B107D9F725E0A8E8B2E001C01D92A63CB207E1F71DE0C3EBDDE004C0E8
:201BC0002197FE010E94CA30C23BD107C9F70E946D220C94FA330C94000024E030E080FDEE
:201BE00002C030E020E081FD226082FD2160265B3E4FF9018081FB0180831182089521E0DA
:201C000030E0A90102C0440F551F8A95E2F7CA01209103053091040524233923232B69F4ED
:201C200020910905222359F020910505309106052423392381E0232B19F080E0089581E017
:201C40000895833081F028F4813099F08230A9F008958730A9F08830C9F08430B1F480915A
:201C600080008F7D03C0809180008F7780938000089584B58F7784BD089584B58F7DFBCF22
:201C80008091B0008F778093B00008958091B0008F7DF9CF1F93CF93DF93282F30E0F901A1
:201CA000EE51FD4E8491F901E15BF44ED491F901E55CF44EC491CC23A9F0162F81110E94D5
:201CC000210EEC2FF0E0EE0FFF1FEF5CF44EA591B4918FB7F894EC91111108C0D095DE2328
:201CE000DC938FBFDF91CF911F910895DE2BF8CFCF93DF9390E0FC01E15BF44E2491855CE5
:201D0000944EFC0184918823C9F090E0880F991FFC01E852FD4EA591B491FC01EF5CF44E25
:201D2000C591D49161110DC09FB7F8948C91209582238C938881282328839FBFDF91CF9104
:201D40000895623051F49FB7F8943C91822F809583238C93E8812E2BEFCF8FB7F894EC9106
:201D60002E2B2C938FBFEACF2FB7F8946091FB037091FC038091FD039091FE032FBF089525
:201D800021E0672B682B692B09F420E0622F8DE00E944A0E81E00895EF92FF920F931F9330
:201DA000CF93DF938C017B01D0E0C0E0F701EC0FFD1F6491662361F0D801ED91FC910190A3
:201DC000F081E02DC8010995892B11F02196EECFCE01DF91CF911F910F91FF90EF9008955B
:201DE000AF92BF92CF92DF92EF92FF920F931F93CF93DF936C017B018B01040F151FEB019D
:201E00005E01AE18BF08C017D10759F06991D601ED91FC910190F081E02DC6010995892BDA
:201E200079F7C501DF91CF911F910F91FF90EF90DF90CF90BF90AF900895FC01538D448D97
:201E4000252F30E0842F90E0821B930B541710F0CF96089501970895FC01918D828D981745
:201E600061F0A28DAE0FBF2FB11D5D968C91928D9F5F9F73928F90E008958FEF9FEF089553
:201E8000FC01918D828D981731F0828DE80FF11D858D90E008958FEF9FEF0895FC01918D51
:201EA000228D892F90E0805C9F4F821B91098F73992708958AE095E00E944E0F21E0892B58
:201EC00009F420E0822F089580E090E0892B29F00E945A0F81110C9400000895FC01A48D12
:201EE000A80FB92FB11DA35ABF4F2C91848D90E001968F739927848FA689B7892C93A08969
:201F0000B1898C91837080648C93938D848D981306C00288F389E02D80818F7D8083089512
:201F2000EF92FF920F931F93CF93DF93EC0181E0888F9B8D8C8D98131AC0E889F989808148
:201F400085FF15C09FB7F894EE89FF896083E889F98980818370806480839FBF81E090E067
:201F6000DF91CF911F910F91FF90EF900895F62E0B8D10E00F5F1F4F0F731127E02E8C8D2D
:201F80008E110CC00FB607FCFACFE889F989808185FFF5CFCE010E946E0FF1CFEB8DEC0FE8
:201FA000FD2FF11DE35AFF4FF0829FB7F8940B8FEA89FB8980818062CFCF682F8AE095E080
:201FC0000C94900FCF93DF93EC01888D8823B9F0AA89BB89E889F9898C9185FD03C08081CB
:201FE00086FD0DC00FB607FCF7CF8C9185FFF2CF808185FFEDCFCE010E946E0FE9CFDF914A
:20200000CF91089520913E0330913F032817390771F490913C0380913D03981741F0E091E8
:202020003C03F0E0E450FD4F808190E008958FEF9FEF08950895EF92FF920F931F93CF93F5
:20204000DF93DC015C96ED90FC905D97E114F10479F481E090E013969C938E93129790E008
:2020600080E0DF91CF911F910F91FF90EF9008955196ED91FC91529750968C915097982FA9
:2020800090950FB75E962C915E97122F127021FD6095F8942081112319F1282B2083E70190
:2020A0002197F1F728E0462F50E0308160FF1AC0382B3083E7012197F1F7BA01759567958A
:2020C000215089F7112381F08081892380830FBF5C968D919C910197F1F781E090E0C1CFCE
:2020E0002923DCCF3923E5CF9081892BEFCF20913E0330913F032817390761F480913D033C
:2021000020913C0390E0805C9F4F821B91098F739927089590E080E0089520913E033091DF
:202120003F0328173907B9F490913C0380913D03981789F0E0913C03F0E0E450FD4F808157
:2021400020913C0330E02F5F3F4F2F73332720933C0390E008958FEF9FEF089590E080E0EF
:202160000895282FDB01FC0191918D913FE9390F3A3108F490523FE9380F3A3108F48052F1
:20218000981306C08E2F821B841770F381E0089580E00895FB0180839183FC0181E09191E8
:2021A000992391F09C32D9F7DF0111971C92841750F4A82FB0E0AA0FBB1FA60FB71FED932A
:2021C000FC938F5FECCF8FEF08951F93CF93DF93EB01009729F1FC012081222309F120E0AC
:2021E00030E0A90111911123E9F080ED810F8A30B8F4AAE0B0E00E945E30412F110F550BD9
:20220000405351099A01550F440B550B260F371F481F591F2115310581E04807510510F344
:2022200080E003C03983288381E0DF91CF911F91089528E0829FC0011124DB0130E020E08B
:202240008357904FFC01E20FF31FE491ED93EE2339F02F5F3F4F23303105A1F7FB011382C8
:20226000089510927D041092660410926504109264041092F7041092F8048091DB03909132
:20228000DC038F3F980729F001969093DC038093DB0381E08093770486E0809376040E94CB
:2022A000B40E6093720470937304809374049093750410920901109208010895CF93DF938A
:2022C000382FDC01E0E02A2F231B261718F42D91E227F9CFDC01A60FB11DCE2FD0E084E01A
:2022E000D595C7958A95E1F7C65BDE4F88818C93EF70F0E0E65BFE4F808111968C9311977F
:2023000012961C9282E0860FDF91CF910895CF93DF93EB01809376040E94B40E60937204E9
:20232000709373048093740490937504D0930901C0930801DF91CF910895FB010190002019
:20234000E9F73197AF01461B570BDC01ED91FC910280F381E02D09946FE771E08AE095E054
:202360000C949D11CF93DF93BC018AE095E00E94CC0EEC010E94AC118C0F9D1FDF91CF91B0
:202380000895EF92FF920F931F93CF93DF93EC014091F7042091F80430E010E000E05CE0E4
:2023A000E52EF12C0417C8F4C901800F911FB7010E94B630FC01EE0FFF1FE152FB4F808137
:2023C00091810F5F1F4F8C179D0761F7DF91CF911F910F91FF90EF9008954C30D9F4C90192
:2023E00001966CE070E00E94B6308093F8048BE08093F7048091F9049091FA048F3F980700
:2024000029F001969093FA048093F90487EE9AE10E94B2112091F7048091F804820F99277C
:20242000991F6CE070E00E94B630FC01EE0FFF1FE152FB4FD183C0832F5F2093F704C6CFC3
:20244000DC01822FE091DD042E2F30E095E0E99FF0011124E357FB4FB183A0836283438386
:2024600084832F5F3F4F2F7033272093DD049091DE04903118F49F5F9093DE04CD010C946B
:20248000C1118F929F92AF92BF92EF92FF920F931F93CF93DF93CDB7DEB7A1970FB6F894AA
:2024A000DEBF0FBECDBF7C01FA01CB0119A2223008F42AE08E010F5D1F4F822E912CB12C1C
:2024C000A12CBF01A50194010E947130F901CA016A300CF5605DD8016E938D01232B242BCF
:2024E000252B79F790E080E0109721F0BD01C7010E949D11A1960FB6F894DEBF0FBECDBF40
:20250000DF91CF911F910F91FF90EF90BF90AF909F908F900895695CDECF2AE00C944112A5
:20252000482F50E070E060E02AE08AE095E00C944112809166048F3F19F08F5F80936604CB
:2025400061E879E08AE095E00E94CC0E809166040E9490128FE20E94DD0F83E00E94901219
:202560000E94AC1180916604833080F063E779E08AE095E00E94CC0E809166040E949012A1
:2025800080E299E00E94B2110C9431110895AB0170E060E02AE00C944112CF93DF93BC01B2
:2025A0008AE095E00E94C712EC010E94AC118C0F9D1FDF91CF91089581E080937A048091AE
:2025C000D9039091DA038F3F980729F001969093DA038093D9036EEC78E08AE095E00E94E2
:2025E000CC0E8091D9039091DA030C94CD12CF92DF92EF92FF92CF93DF930E94B40E6B010F
:202600007C01D0E0C0E00E94B40E6C197D098E099F09683771058105910578F487EA95E0BC
:202620000E947710892B79F387EA95E00E948D10CF3FDC0799F32196F1CF1092EC02109206
:20264000EB021092A60361EC70E08AE095E00E94CC0EBE018AE095E00E94C71289E990E04F
:20266000DF91CF91FF90EF90DF90CF900C94B2118F929F92AF92BF92CF92DF92EF92FF9283
:20268000CF93DF93C82F0E94B40E6B017C018091F102882319F18091ED029091EE02A09127
:2026A000EF02B091F002A7019601281B390B4A0B5B0BDA01C901883E9340A105B10570F477
:2026C0008AE195E0DF91CF91FF90EF90DF90CF90BF90AF909F908F900C94B21181E08093BB
:2026E000F102C092ED02D092EE02E092EF02F092F00269E075E08AE095E00E94CC0E69EF2C
:2027000074E0C13031F068EE74E0C23011F06DED74E08AE095E00E94CC0E6EEC74E08AE095
:2027200095E00E94CC0E8091400390914103A0914203B0914303A7019601281B390B4A0BD7
:202740005B0BCA01B90128EE822E23E0922EA12CB12CA50194010E947130BA01A9018AE00E
:2027600095E00E948D1261EC74E08AE095E00E94CC0E809183040E9490126CEA74E08AE0B7
:2027800095E00E94CC0E80917E0490917F04A0918004B09181040097A105B10509F45BC08B
:2027A000A7019601281B390B4A0B5B0BCA01B901A50194010E947130BA01A9018AE095E051
:2027C0000E948D1283E70E94DD0F69E974E08AE095E00E94CC0E8091EB030E94901264E92F
:2027E00074E08AE095E00E94CC0E8091EA030E94901288E894E00E94B21110927E041092D9
:202800007F0410928004109281048091EB03C23049F5833038F583E08093EB031092EA03E6
:202820008AE294E00E94B211809183048230F0F18091780481113AC064EF71E087E0DF9194
:20284000CF91FF90EF90DF90CF90BF90AF909F908F900C94871165EA74E08AE095E00E9404
:20286000CC0EB3CF9091EA039E3F18F49F5F9093EA03E82FF0E0ED5DFE4F20819091EA03CA
:20288000921790F2853080F68F5F8093EB031092EA036AE074E08AE095E00E94CC0E80915A
:2028A000EB030E94901286E094E0BCCF8091EB03E82FF0E0EE0FFF1FE95EFE4FC081D18159
:2028C000823009F44BC0F8F4882309F441C08130E9F18FE891E00E94B2118AE391E00E9451
:2028E000B21168E171E08AE095E00E94CC0ECE0168EE73E00E94A2308AE095E00E94C712DA
:202900008CEE90E054C0833009F440C0843009F78EEF92E00E94B2118FEA92E00E94B211B1
:202920008FE492E00E94B2116FE372E08AE095E00E94CC0ECE0168EE73E00E94A2308AE0F8
:2029400095E00E94C7128CEF91E031C00E94F71210927B046CE271E083E071CF6FEE73E0EC
:202960008AE095E00E94CC0ECE0168EE73E00E94A2308AE095E00E94C71281EA93E00E9436
:20298000B21110928404BE018AE059CF6AE873E08AE095E00E94CC0ECE0168EE73E00E94DF
:2029A000A2308AE095E00E94C7128EE593E00E94B21110928404BE0180E041CFCF93DF9373
:2029C000D0E0C0E0009731F0BC018AE095E00E949D11EC010E94AC118C0F9D1FDF91CF9190
:2029E0000895AF92BF92CF92DF92EF92FF920F931F93CF93DF93CDB7DEB762970FB6F89439
:202A0000DEBF0FBECDBFDC010D900020E9F79D0121503109281B390B122F4FEF420F4F3324
:202A200008F067C0FC01A0814A2F4B7F433449F0A43539F0AD3429F04FEA4A0F423008F06E
:202A400058C0B82FFC0150E040E06FEF7FEF01910C3209F4BA014F5F5F4F4117C0F38C01E2
:202A60006F3F760789F13327261B370B2330310559F5FC01E60FF71F918120ED290F2A3044
:202A800030F08FEB890F8630F8F429EC290F328190ED930F9A3030F08FEB830F8630A0F403
:202AA00099EC930F81E0860FF80140E03E2F3B1B381718F431914327F9CF80E1289F900115
:202AC0001124922B941731F18091CB039091CC038F3F980729F001969093CC038093CB0378
:202AE00062EC78E08AE095E00E94CC0EC8010E94DE1462960FB6F894DEBF0FBECDBFDF91C9
:202B0000CF911F910F91FF90EF90DF90CF90BF90AF900895A73409F019C146E0BE016F5F9D
:202B20007F4FC8010E94CA10188A1F8684508B3F00F7BE01615F7F4F8B819C810E94E51099
:202B40008823B9F21A8A198ABE016F5E7F4F8D819E810E94E510182FC12CD12C7601882367
:202B600089F1EF81F885309749F18081C12CD12C7601882331F10191002321F180ED800FFB
:202B80008A30E0F4BAE9CB16B9E9DB06EB06B9E1FB06A0F4AAE0B0E0A70196010E945E30F7
:202BA000202F000F330B205331096901330FEE08FF08C60ED71EE81EF91EDDCFC12CD12CA7
:202BC000760110E02F8538894091DE048DE894E0E0E04E1759F00596DC0115976D917C91E0
:202BE0002617370709F068C0E7FF68C0112309F475C0A988BA888FEFA816B10411F008F068
:202C00006DC0A2E0AA1508F469C0F501EE0FFF1FE955FC4F0190F081E02D309709F45EC096
:202C200081E0C114D104E104F10409F480E08093AF03C701B6010995882309F44FC081E058
:202C400090E002C0880F991FAA94E2F72091AD033091AE034091AF034423D9F1822B932BEA
:202C60009093AE038093AD0369EA78E08AE095E00E94CC0E69897A898AE095E00E94C71268
:202C800063EA78E08AE095E00E94CC0E2AE0B701A6018AE095E00E9441120E94AC1120E098
:202CA00089899A896AE070E00E94A23040E3480F67E48F859889E2C0EF5F8BCF25E0E202A4
:202CC000F0011124E357FB4F808191810E94C11110CF8095909582239323C2CF62EB78E019
:202CE0008AE095E00E94CC0E69897A898AE095E00E94C712111106C089E898E00E94B211F4
:202D000023E0CECF89899A898F3F910509F0A0F7833048F4880F991FFC01E955FC4F808125
:202D20009181892B19F486E798E0E8CF6BE578E08AE095E00E94CC0E2AE0B701A6018AE04E
:202D400095E00E9441120E94AC11DACFA13551F481E0809300041092FF0388E198E00E9447
:202D6000B211C7CEBE016F5F7F4FCB01875C954020910601309107018217930720F4909331
:202D800007018093060147E0C8010E94CA10E82EBFEF8B1709F4ADCEE981FA81008145E03C
:202DA000F42E023551F036E0F32E043531F053E0F52E0D3411F024E0F22EE2E0EE1508F06F
:202DC00098CEBE01615F7F4F8B819C810E94E510882309F48ECE8F8598894091DE042DE87F
:202DE00034E010E0411759F02B5F3F4FF9013597608171818617970791F417FF12C0EF14D2
:202E0000F9F06BEF77E08AE095E00E94CC0E8F8598890E94CD1223E04FE36FE34ACF1F5FE9
:202E2000E1CF6DE078E08AE095E00E94CC0E8F8598890E94CD1225E01202F001112442CFDC
:202E4000043509F050C0ED81FE812181211136C05081513469F05434A1F41092090510925B
:202E6000060510920505109208051092070503C021E0209309054FE36FE320E00E94201261
:202E800038CE533511F05835C9F4EF81F88509851A85DF010D900020E9F79D012350310977
:202EA0002E173F0759F441816081413339F4613409F439C171E0623409F436C14FE36FE30B
:202EC00023E0DCCF209530952A233B2361C120953095F701E223F323F0930605E093050565
:202EE000F3CF24E0CBCF0D3409F0C1C080E00E94FF0DC82E882351F08091FF0480FF06C06E
:202F0000209101053091020520FF5BC081E00E94FF0D882309F4FCC08091FF0481FF06C02B
:202F2000209101053091020521FF96C0C394D12CF12CE12C0E94E72FA70196010E943F3016
:202F4000062F162F80E00E94FF0D882321F00150112351F0102F81E00E94FF0D882309F471
:202F6000D9C01111D7C011E0E12EF12CCC24C394D12C5601012E02C0AA0CBB1C0A94E2F752
:202F80008091010590910205A826B926B0920205A09201058FEFE81AF80AA1E0EA22FF2492
:202FA0008E2D0E94FF0D882389F102C0CC0CDD1CEA94E2F7AC24BD24B0920205A092010567
:202FC00025C041E050E010E090E080E06A01C22AD32AD0920205C09201057C01FFEFEF1A72
:202FE000FF0A21E0E222FF248E2D0E94FF0D882369F081E090E002C0880F991FEA94E2F7FA
:203000008C299D29909302058093010502E4111101C001E469EB77E08AE095E00E94CC0E3E
:20302000802F0E94DD0F81E30E94DD0F6AEA77E08AE095E00E94CC0E80910105909102051C
:2030400002C0969587951A95E2F7817099270E94CD1241E320E065C042E050E011E081E0C0
:2030600090E0B4CFC12CD12C7601C39463CFED81FE81DF010D900020E9F7CD0103978E17FC
:203080009F0749F44181413331F46081613489F021E0623479F06AE977E08AE095E00E94D8
:2030A000CC0E8F8598890E94CD124FE36FE323E000CE20E081E090E002C0880F991F2A958A
:2030C000E2F70235A9F42091FD043091FE0428233923232BD9F42091FF0430910005FC0195
:2030E000E223F323822B932BEF2B51F022E0E1CD809590952091FF04309100058223932330
:20310000909300058093FF0420E0D3CD21E0D1CDC110A8CF8CEC97E00E94B2114FE30FE372
:2031200025E0602FC6CD70E0533569F4F80120812053223008F0C2CE21812111BFCE62E4A5
:20314000711101C061E420910905222309F4C9CE21E030E002C0220F331F7A95E2F7E090A1
:203160000505F0900605A0910705B0910805533509F0ADCEF8015081F701E22BF32BF093C3
:203180000605E0930505503309F49CCE2A2B3B2B309308052093070570CEBF92CF92DF9212
:2031A000EF92FF920F931F93CF93DF938091890490918A04A0918B04B0918C040196A11DA2
:2031C000B11D8093890490938A04A0938B04B0938C0461EE7AE18AE095E00E94CC0E01E055
:2031E00014E0F80101900020E9F78F0102501440B02E6DEF72E18AE095E00E94CC0E91E0C2
:20320000E92E94E0F92E6701D0E0DB1528F5F601C1916F0180EE8C0F8F3528F48C2F0E94D8
:20322000DD0FDF5FF2CF6AEF72E18AE095E00E94CC0EEC2FF0E084E0F595E7958A95E1F750
:20324000E65BFE4F80810E94DD0FCF70EC2FF0E0E65BFE4F8081E3CF66EF72E18AE095E05F
:203260000E94CC0E802F0E94901289E20E94DD0F0E94AC1162E871E081E094E00E94FB304A
:20328000EC01892BE1F1C0908704D0908804F12CE12CF8E5CF16F2E0DF06E104F104E0F4A3
:2032A00080918504909186048F3F980729F00196909386048093850464ED7AE18AE095E0D8
:2032C0000E94CC0EB701A6018AE095E00E948D1281ED9AE10E94B2116AE370E0CE010E9497
:2032E000D9300097D9F10196DF91CF911F910F91FF90EF90DF90CF90BF900C94F11444E0B9
:2033000050E068E871E081E094E00E94ED30892B09F04DC06DE871E081E094E00E94FB3046
:20332000892B31F181E08093840410928304109282040E94B40E60937E0470937F048093F8
:2033400080049093810488E69AE10E94B21180917D0468EC70E0882309F4E3C0DF91CF91A2
:203360001F910F91FF90EF90DF90CF90BF90089564E971E081E094E00E94FB30892B71F3DD
:20338000109284048DE39AE10E94B21180917D048111E4CF10928204DF91CF911F910F9194
:2033A000FF90EF90DF90CF90BF900C94381380917D048111C1C1C0910A01CB3008F0BCC185
:2033C0006FE971E081E094E00E94FB30892BF1F08FEE99E10E94B21180910A01833081F46D
:2033E00091E090937C046CED75E0DF91CF911F910F91FF90EF90DF90CF90BF900C94871188
:203400009CEF980F923008F0A9CFEDCFC23009F08AC047E050E064EA71E081E094E00E94EA
:20342000ED30892BA1F56FEC79E18AE095E00E94CC0E80910804823321F17CF48133A1F07C
:2034400081E094E0DF91CF911F910F91FF90EF90DF90CF90BF900C94DE148333A9F08433B4
:2034600079F781E799E102C08BEB99E1DF91CF911F910F91FF90EF90DF90CF90BF900C945D
:20348000B21181EA99E1F2CF8FE799E1EFCF6AE272E081E094E00E94FB30892B41F46CEA96
:2034A00071E081E094E00E94FB30892BD9F0809183048A3F18F48F5F80938304109284047D
:2034C0001092820469E579E18AE095E00E94CC0E809183040E94901284E299E10E94B211A0
:2034E00080E05ACF62E272E081E094E00E94E430892B09F0D8C28EEC98E10E94B2111092E1
:20350000830410927B04109282040E94B40E60937E0470937F0480938004909381046CE2EF
:2035200071E083E062CFCA3009F562E272E081E094E00E94E430892B89F06CEA71E081E058
:2035400094E00E94FB30892B49F462EB71E081E094E00E94FB30892B09F4A5C28FE798E1F2
:203560000E94B21164EF71E082E03FCFC33009F09AC243E050E068EB71E081E094E00E941C
:20358000ED30892B09F48FC281E094E04AE001C0CD01DC012D91222309F477C220532A309B
:2035A000B8F734E08130930731F0FC013197208120532A3068F3FC0130E090E020E08191BF
:2035C00050ED580F5A3030F4249F800D112420ED280FF5CF911101C0322F8E3211F49F5F85
:2035E000EDCF9330A9F6332399F281E08093840410927B0410927A0410927C0480917E04DA
:2036000090917F04A0918004B0918104892B8A2B8B2B51F40E94B40E60937E0470937F04C8
:20362000809380049093810469E678E18AE095E00E94CC0E81E094E00E94DE1468EC70E03B
:2036400084E0D3CE883069F562E272E081E094E00E94E430892BB1F06CEA71E081E094E05D
:203660000E94FB30892BB1F463EE71E081E094E00E94FB30892B09F45FC0109284048CEA70
:2036800094E14EC08EED97E10E94B2116CE271E089E0ABCE8EE797E10E94B2118EE297E194
:2036A000F3CF893009F747E050E066EC71E081E094E00E94ED30892B69F46EEC71E081E0E4
:2036C00094E00E94FB30892B09F448CE81E08093790444CE62E272E081E094E00E94E430BE
:2036E000892B49F06CEA71E081E094E00E94FB30892B09F4B9CF81E08093780481EC96E187
:203700000E94B21180917904882379F085E696E10E94B21181EF95E10E94B21182EA95E12E
:203720000E94B21168EE73E01FCF84E595E10E94B21182E095E1F4CF69EE71E081E094E031
:203740000E94FB30892B09F45CC067E971E081E094E00E94FB30892B09F453C0809177043C
:203760008823B1F080E594E10E94B21186E0809376040E94B40E6093720470937304809371
:203780007404909375041092090110920801E6CD81E080937D040E94B40E60936E0470934A
:2037A0006F04809370049093710480916D04882371F080916B0490916C048F3F980729F052
:2037C000019690936C0480936B0410926D040E94B40E609367047093680480936904909356
:2037E0006A04109266041092000481E08093FF031092650410926404109263048EE194E131
:2038000035CEC701F7012081FFEFEF1AFF0A2032C1F32930B1F32053253028F4FC012181BE
:203820002C3209F40296FC0101900020E9F73197E81BF90B2E2FE80FF92FF11D222309F46C
:2038400073C03291303219F03B7F393011F42150F5CF47E067E971E0273031F0263009F01B
:2038600063C046E06FEE71E00E94B110882309F45BC081E080937D040E94B40E60936E046D
:2038800070936F04809370049093710480916D04882371F080916B0490916C048F3F980787
:2038A00029F0019690936C0480936B0410926D040E94B40E6093670470936804809369047F
:2038C00090936A04109266041092000481E08093FF0310926504109264041092770410925B
:2038E00063041092830410927B048093840480917E0490917F04A0918004B0918104892B16
:203900008A2B8B2B51F40E94B40E60937E0470937F0480938004909381041092DD04109234
:20392000DE0487EF93E1A2CD66EF71E081E094E00E94FB30892BB9F46DEF71E081E094E021
:203940000E94FB30892B79F464E072E081E094E00E94FB30892B39F480917D0481112EC04E
:2039600081E094E0C1CC10927D04109266041092000481E08093FF03109265041092640485
:2039800010927704109263041092DD041092DE0483E0809376040E94B40E6093720470933A
:2039A000730480937404909375048CE291E0909309018093080110927B04D0CC6BE072E0E7
:2039C00081E094E00E94FB30892B79F087EA93E10E94B211DF91CF911F910F91FF90EF90B0
:2039E000DF90CF90BF900C94311147E050E06DE172E081E094E00E94ED30892B29F41092CA
:203A0000650410926404AACC49E050E065E272E081E094E00E94ED30892BF9F4109265048B
:203A20001092640480916104909162048F3F980729F00196909362048093610489E493E180
:203A40000E94B211DF91CF911F910F91FF90EF90DF90CF90BF900C9499126CEA71E081E063
:203A600094E00E94FB30892B49F46FE971E081E094E00E94FB30892B09F472CF6FEF72E126
:203A80008AE095E00E94CC0EDBCC6FE272E081E094E00E94E430892B31F480917A048111FC
:203AA00002C00E94DC1280910A01843009F0CACD62E272E081E094E00E94E430892B49F046
:203AC0006CEB71E081E094E00E94FB30892B09F4CBCD83E498E10E94B21168EC70E085E005
:203AE00084CCCF93DF93D82F8091E5039091E603A091E703B091E8030196A11DB11D80931B
:203B0000E5039093E603A093E703B093E803DA3009F0B2C08091EB028823A1F066E870E019
:203B20008AE095E00E94CC0E80E60E94901288E690E00E94B2111092EC021092EB02DF91AE
:203B4000CF9108954091EC024423C9F350E0FA01E557FD4F10821092EC028091F7028823FC
:203B600009F476C08091A603811131C04F5F5F4F6BE872E086E493E00E94D03080918902B9
:203B800090918A02909345038093440381E08093A6038091BF039091C0038F3F980729F059
:203BA00001969093C0038093BF038091F602803430F28091BD039091BE038F3F980709F4B7
:203BC000BECF01969093BE038093BD03B8CF6DE172E08BE892E00E94FB302091F602892BD4
:203BE000D1F08091C7039091C8038F3F980729F001969093C8038093C703203460F08091A0
:203C0000C3039091C4038F3F980729F001969093C4038093C3038091C1039091C2038F3F8D
:203C2000980729F001969093C2038093C103203408F485CF8091BB039091BC038F3F9807B6
:203C400009F47DCF01969093BC038093BB0377CF4F5F5F4F6BE872E081E094E00E94D03013
:203C60008091890290918A029093880480938704DF91CF910C94CD1880916504882309F437
:203C800041C080918802E82FF0E0E15FFE4F90819D1333C08F5F873019F08093880222C033
:203CA0001092880210926504109264048091C9039091CA038F3F980729F001969093CA03EB
:203CC0008093C9038091F602803460F08091C5039091C6038F3F980729F001969093C6032C
:203CE0008093C503DD3009F42ACFC091EC02CF3560F081E08093EB0222CF81E0D33569F23D
:203D000080E0CBCF10928802EDCFC1110CC00E94B40E2091DD033091DE03621B730B70938E
:203D20008A026093890281E08C0F8093EC02EC2FF0E0E557FD4FD08302CF87EA95E00E945D
:203D40007710892B39F087EA95E00E948D100E94711DF3CF8091C50580FF0FC08E7F80939F
:203D6000C5058091CD039091CE038F3F980729F001969093CE038093CD0308952F923F9283
:203D80004F925F927F928F929F92AF92BF92CF92DF92EF92FF920F931F93CF93DF931F929F
:203DA000CDB7DEB79E01265C354040910601509107012417350720F4309307012093060183
:203DC00070907D04711015C0E12C8E2D0F90DF91CF911F910F91FF90EF90DF90CF90BF905A
:203DE000AF909F908F907F905F904F903F902F9008959B0121503109203A310528F78B01AC
:203E00006C01E0906504EE2009F45AC00E94B40E0091F8021091F9022091FA023091FB0241
:203E2000DC01CB01801B910BA20BB30B80342FE19207A105B10568F5803D9740A105B10531
:203E4000B8F080916404811113C081E0809364048091D7039091D8038F3F980729F00196FC
:203E60009093D8038093D70388E497E00E94B2118091B9039091BA038F3F980729F0019647
:203E80009093BA038093B90380EF96E00E94B2119BCF10926504109264048091D5039091A0
:203EA000D6038F3F980729F001969093D6038093D50384E996E00E94B2110E94311184CFA6
:203EC00081E08093F7026093F6020E94B40E8090F2029090F302A090F402B090F50268192F
:203EE00079098A099B09603571058105910518F40E949D1EEACF68E876E087EA95E00E9492
:203F0000CC0E4801FFEF8F1A9F0AB40187EA95E00E94C71265E876E087EA95E00E94CC0E23
:203F20000E94B40E1B012C01B12CA12C0E94B40E62197309840995096C3271408105910539
:203F400008F048C087EA95E00E947710892B71F387EA95E00E948D10F82E8EE3F81609F473
:203F600070C08F2D0E94711D8FEB8F0D8A3110F4E0E2FE0EEA2DF0E0E15DFE4F8081A394D8
:203F80008F1529F0AA24A394F2E6FF12A12CEA2DF0E0E15DFE4F8081882309F4B4C0EB2D02
:203FA000F0E0E75DFE4F8081B3948F1529F0BB24B39425E6F212B12CEB2DF0E0E75DFE4F10
:203FC00080818111BFCF92E0F92E8EED95E00E94B21167C083E0F82EB12CA12C63E287EAC2
:203FE00095E00E941B10C5018F7099270F9711F40E949D1E8FEFA81AB80A0A151B0571F749
:204000006AE087EA95E00E941B100E949D1E8091F0039091F1038F3F980729F001969093ED
:20402000F1038093F00362EB75E08AE095E00E94CC0EB4018AE095E00E94C71284E795E09A
:20404000C6CFF12C0C0D1D1D560145018C189D08F50161915F0187EA95E00E941B10FFE09B
:204060008F2299242FE08216910411F40E949D1E0A151B0551F76AE087EA95E00E941B10B0
:204080000E949D1E81E080936504109264040E94B40E6093F8027093F9028093FA0290935B
:2040A000FB020E94B40E6093F2027093F3028093F4029093F5021092F70263E675E0F11063
:2040C00002C06EE675E08AE095E00E94CC0EC6010E94DE14F1E0FF1649F1F11019C0109223
:2040E00066040E94B40E60936704709368048093690490936A041092B4031092B5031092BF
:20410000B603E72C62CEFF24F3948FE196E05FCF0E94991222E0F21212C08091B4038F3F2A
:2041200009F452CE8F5F8093B4034FCE8091B6038F3F09F449CE8F5F8093B60346CE809102
:20414000B5038F3F09F441CE8F5F8093B5033DCE1F920F920FB60F9211242F933F938F9366
:204160009F93AF93BF938091FB039091FC03A091FD03B091FE033091FA0323E0230F2D3780
:2041800058F50196A11DB11D2093FA038093FB039093FC03A093FD03B093FE038091F6034B
:2041A0009091F703A091F803B091F9030196A11DB11D8093F6039093F703A093F803B093BE
:2041C000F903BF91AF919F918F913F912F910F900FBE0F901F90189526E8230F0296A11D76
:2041E000B11DD2CF1F920F920FB60F9211242F933F934F935F936F937F938F939F93AF9351
:20420000BF93EF93FF938AE095E00E946E0FFF91EF91BF91AF919F918F917F916F915F914A
:204220004F913F912F910F900FBE0F901F9018951F920F920FB60F9211242F938F939F93A4
:20424000EF93FF93E0911A05F0911B058081E0912005F091210582FD1BC090818091230537
:204260008F5F8F7320912405821741F0E0912305F0E0E65FFA4F958F80932305FF91EF9144
:204280009F918F912F910F900FBE0F901F9018958081F4CF1F920F920FB60F9211242F9334
:2042A0003F934F935F936F937F938F939F93AF93BF93EF93FF93E0913E03F0913F0330970C
:2042C00049F0A685B7858585968D91FF14C09C918923A1F4FF91EF91BF91AF919F918F914F
:2042E0007F916F915F914F913F912F910F900FBE0F901F9018959C91892361F7A389B4894D
:204300009C918589809589238C93868997890197F1F7608D718DA685B785558538E020E08F
:20432000CB010197F1F7822F90E095958795282F4C91452309F02068315091F7868D81FD13
:20434000209580913D0390E001968F73992730913C03381799F0A0913D03B0E0A450BD4FB5
:204360002C9380933D03828D938D0197F1F7A389B4898C919589892B8C93ACCF868D816096
:20438000868FF1CF10920D0510920C0588EE93E0A0E0B0E080930E0590930F05A093100543
:2043A000B09311052FE531E030930B0520930A0525EC30E0309317052093160524EC30E0FC
:2043C000309319052093180520EC30E030931B0520931A0521EC30E030931D0520931C0585
:2043E00022EC30E030931F0520931E0526EC30E0309321052093200510922305109224056A
:2044000010922505109226051092AA051092A9058093AB059093AC05A093AD05B093AE05F0
:2044200081E791E09093A8058093A7051092BE051092BD051092C0051092BF051092C20515
:204440001092C1051092C4051092C3056091C5056E7F6D7F6093C5056695617081E0682712
:2044600087E00E944A0E61E087E00E94780EE6E5FBE1E491E093B705E2E4FBE1E491F0E0D9
:20448000EE0FFF1FEF5CF44E859194919093B9058093B80560E088E00E94780E8091C505DD
:2044A00081FD04C061E088E00E944A0E88E08093B305E7E5FBE1E491E093B405E3E4FBE1F8
:2044C000E491F0E0EE0FFF1FE95DF44E859194919093B6058093B5050895CF93DF93CDB719
:2044E000DEB7C45DD1090FB6F894DEBF0FBECDBF789484B5826084BD84B5816084BD85B5E8
:20450000826085BD85B5816085BD80916E00816080936E001092810080918100826080938F
:20452000810080918100816080938100809180008160809380008091B10084608093B10084
:204540008091B00081608093B00080917A00846080937A0080917A00826080937A008091EF
:204560007A00816080937A0080917A00806880937A001092C100E0911A05F0911B0582E05D
:204580008083E0911605F09117051082E0911805F091190580E1808310922205E0911E056F
:2045A000F0911F0586E08083E0911C05F0911D05808180618083E0911C05F0911D0580819D
:2045C00088608083E0911C05F0911D05808180688083E0911C05F0911D0580818F7D80838A
:2045E0001092C2051092C1051092C0051092BF051092BE051092BD058DE991E09093C40581
:204600008093C3059091B305963108F047C02DEB30E03093BE052093BD052BE931E0309315
:20462000C0052093BF052CE231E03093C2052093C1052091680084E0983048F031E09E30C0
:2046400008F430E081E001C0880F3A95EAF7822B809368002DE630E0983050F02BE630E071
:204660009E3030F02CE630E0963110F030E020E03093BB052093BA05292F30E0983008F036
:2046800038C281E001C0880F9A95EAF78093BC058091C3059091C4050197F1F78091C10569
:2046A0009091C205892B49F1E0913E03F0913F0315E0E73AF10709F1309739F0A389B4894E
:2046C0009C918589809589238C938091C5058E7F8093C50510923D0310923C0387EA95E051
:2046E00090933F0380933E03E091BA05F091BB0580819091BC05892B8083109276040E9438
:20470000B40E6093720470937304809374049093750484EF91E090930901809308010E94FE
:20472000B40E6093DD037093DE038093DF039093E00381E480937C0080917A00806480938F
:204740007A0080917A0086FDFCCF4091780050917900052E000C660B770B3FB7F89480919E
:20476000F6039091F703A091F803B091F90326B5A89B05C02F3F19F00196A11DB11D3FBF41
:20478000BA2FA92F982F8827820F911DA11DB11D02E0880F991FAA1FBB1F0A95D1F78A0151
:2047A0009B01082719272A273B27481759076A077B0721F0C901B8010E9436301092040542
:2047C00010920305B8E8CB2EBFE0DB2EF60184918F3F31F081E090E09093040580930305DB
:2047E000A9E8EA2EAFE0FA2EF701249180910305909104052F3F29F08260909304058093C1
:2048000003058091030580FF05C0F601849162E00E94780E8091030581FF05C0F701849152
:2048200062E00E94780E61E08DE00E94780EFAE8AF2EFFE0BF2E10E000E01E01F2EA2F0EA5
:20484000311CF5018491D1018C933196E4911196EC93119712961C9267E372E0C1010E94AF
:20486000E430892B09F052C1BE016F5F7F4F802F0E94191189818F3449F4000F111FF8014C
:20488000E955FC4F80EC9EE091838083109209051092060510920505109208051092070528
:2048A00010920205109201056BE27BE08AE095E00E94CC0E0E94AC1162E27BE08AE095E0C7
:2048C0000E94CC0EEAE8FFE0E491E983EBE8FFE0E491EA831B82BE016F5F7F4F8AE095E05F
:2048E0000E949D118DE30E94DD0F8091030580FF17C164E17BE08AE095E00E94CC0EF60108
:2049000084910E94901280E20E94DD0FE2E9FFE0E491E983E3E9FFE0E491EA831B82BE01DA
:204920006F5F7F4F8AE095E00E949D118DE30E94DD0F8091030581FDFAC068E17BE08AE04F
:2049400095E00E94CC0E80E20E94DD0F0E94AC1168EF7AE08AE095E00E94CC0E81E00E9408
:2049600090126EEE7AE08AE095E00E94CC0E82E00E94901262EE7AE08AE095E00E94CC0ED9
:2049800083E00E94901280ED9AE00E94B21169EB7AE08AE095E00E94CC0E8091C6058111AD
:2049A000D1C081E79AE00E94B2116AEE79E08AE095E00E94CC0E6FEA79E08AE095E00E94E0
:2049C000CC0E6AE979E08AE095E00E94CC0E86E999E00E94B2119E012E553F4FC853DF4FB0
:2049E00039832883C85CD040AE0141545F4FCC53DF4F59834883C45CD040CE0186549F4F6F
:204A0000CA53DF4F99838883C65CD0400E94B40E2B013C0180917D04882309F4BCC080915E
:204A2000EB03882339F180916E0490916F04A0917004B0917104A3019201281B390B4A0B2E
:204A40005B0BDA01C90180339547A105B10594F065E37FE08AE095E00E94CC0E8091EB03DB
:204A60000E94901280E39FE00E94B2111092EB031092EA030E949D1E8091A6038823A9F031
:204A800080E6E6E4F3E0A1E0B4E001900D928A95E1F7809144039091450390938804809354
:204AA00087041092A6030E94CD1810E000E0B12CA12CD02E80910905882309F49DC28091EA
:204AC000050590910605002E02C0969587950A94E2F780FF91C280910705909108050D2C9C
:204AE00002C0969587950A94E2F7817009F0B8C2C0C29E3040F42850310981E001C0880FE3
:204B00002A95EAF7C3CD2E503109F7CF0F5F1F4FB8E0AB0EB11C0330110509F092CEB6CEC7
:204B200068E17BE08AE095E00E94CC0EECCE64E17BE08AE095E00E94CC0EF70184910E9412
:204B4000901201CF80FF06C06EE57AE08AE095E00E94CC0E8091C60581FF06C064E47AE0D2
:204B60008AE095E00E94CC0E8091C60582FF06C061E27AE08AE095E00E94CC0E8091C605E3
:204B800083FF06C066E17AE08AE095E00E94CC0E0E94AC110ACF8091E903882379F077FC15
:204BA0000DC01092E9030E94F7126CED75E081E00E9487118CE49BE00E94B2118091E90359
:204BC000811158CF8091720490917304A0917404B0917504B301A201481B590B6A0B7B0B81
:204BE0008091080190910901B0E0A0E0481759076A077B0708F43ECF80917604853059F418
:204C000080918404811107C080EE9EE00E94B21182E08093760410917604123091F480916F
:204C20008204882309F455C010928204809183048A3F18F48F5F8093830481E00E943813C6
:204C400019CF1B3008F060C0E12FF0E0E65DF94D0C94CA30352646268426AC26F726182767
:204C60003D278027A127C227E62766EF7DE087EA95E00E94CC0E6AEE7DE08AE095E00E9421
:204C8000CC0E0E94AC11109282043EC06CED7DE087EA95E00E94CC0E6BEC7DE08AE095E00A
:204CA0000E94CC0E0E94AC1181E080930A014092720450927304609274047092750480E2B2
:204CC00093E090930901809308011F5F10937604D1CE6CE97DE087EA95E00E94CC0E65E67F
:204CE0007DE08AE095E00E94CC0E0E94AC1181E0809382040E94B40E6093400370934103C2
:204D0000809342039093430310930A0140927204509273046092740470927504E12FF0E0BE
:204D2000EE0FFF1FEC5CFE4F808191819093090180930801EEEFE10FE93038F6F0E0ED5541
:204D4000F94D0C94CA30E427CB26162737275C279F27C027E127E4276AE57DE087EA95E007
:204D60000E94CC0E6CE27DE08AE095E00E94CC0E0E94AC1183E080930A01409272045092A7
:204D80007304609274047092750484EC99E0909309018093080180917B048F5F80937B0475
:204DA000833008F41CC180917C0410927B0410927C0481110C94702F80917A04811102C0DF
:204DC0000E94DC128CE49EE00E94B21182E08093760480E00E94381380917604833009F07D
:204DE00049CE68EE73E082E00E94871143CE6EE17DE087EA95E00E94CC0E6DE07DE08AE024
:204E000095E00E94CC0E0E94AC1184E080930A01409272045092730460927404709275043A
:204E200080EB94E0909309018093080185E0D8C064EE7CE087EA95E00E94CC0E63ED7CE091
:204E40008AE095E00E94CC0E0E94AC1185E080930A01409272045092730460927404709208
:204E6000750480E49FE19093090180930801809177048823D9F286E0B3C065EC7CE087EA93
:204E800095E00E94CC0E6DE97CE08AE095E00E94CC0E0E94AC1186E080930A0140927204E9
:204EA00050927304609274047092750480E293E09093090180930801809163048F5F80931D
:204EC0006304833008F48FC06CE37EE08AE095E00E94CC0E809163040E9490128FEF9DE0AE
:204EE0000E94B21110927604109277041092630488EC90E0909309018093080182E09ECE10
:204F000064E97CE087EA95E00E94CC0E6DE67CE08AE095E00E94CC0E0E94AC1187E08093A3
:204F20000A01409272045092730460927404709275048CED95E0909309018093080188E041
:204F40004FC06EE47CE087EA95E00E94CC0E64E17CE08AE095E00E94CC0E0E94AC1188E06F
:204F600080930A01409272045092730460927404709275048CED95E0909309018093080156
:204F800089E02EC069E07CE087EA95E00E94CC0E6DED7BE08AE095E00E94CC0E0E94AC1144
:204FA00089E080930A014092720450927304609274047092750488E293E2909309018093C5
:204FC000080181E08093780482E00AC062ED7BE087EA95E00E94CC0E60EA7BE04ECE83E07C
:204FE0008093760447CD83E08093760410927B0441CD01E010E05DCD8091030590910405B3
:205000000D2C02C0969587950A94E2F780FFACC0F801E857F04FE4912E2F30E0F901EE515A
:20502000FD4E8491F901E15BF44EE490F901E55CF44EF490FF20A1F081110E94210EEF2DF4
:20504000F0E0EE0FFF1FE95DF44EA591B491EC91EE2281E090E011F490E080E0892B49F43E
:2050600081E090E002C0880F991FDA94E2F7A82AB92A0130110509F0BCCFB092FE04A09211
:20508000FD0480910905882309F473C04091050550910605C553DF4F59834883CB5CD0402A
:2050A00080910401909105018A159B05C9F42091FF043091000580910201909103012817C5
:2050C000390771F48091000190910101C553DF4FA881B981CB5CD0408A179B0709F452C0C4
:2050E0008091B803811103C081E08093B803C090DD03D090DE03E090DF03F090E003409169
:20510000D1035091D2036091D3037091D403F0917D04E091B7032091CF033091D003D3014E
:20512000C2018C199D09AE09BF09803B14E09107A105B10550F1FF2339F0E11105C02F3F8E
:20514000320711F02F5F3F4F10EBC10E14E0D11EE11CF11C4F5F5F4F6F4F7F4F805B9440AB
:20516000A109B109E0E0E1CF8091010590910205B6CC8FEF9FEFC553DF4F99838883CB5CFA
:20518000D0408ECF1092B803B2CFE093B7033093D0032093CF03C092DD03D092DE03E09295
:2051A000DF03F092E0034093D1035093D2036093D3037093D40388539F4FAF4FBF4F893513
:2051C0009240A105B10508F023C381E0E827FF2309F490C08091670490916804A09169043D
:2051E000B0916A04A3019201281B390B4A0B5B0BDA01C90180319742A105B1050CF40AC32F
:2052000063E271E18AE095E00E94CC0E8091670490916804A0916904B0916A04B301A201EF
:20522000481B590B6A0B7B0B8AE095E00E948D1269EF70E18AE095E00E94CC0E8091B603BE
:205240000E9490126BEE70E18AE095E00E94CC0E8091B5030E94901260EE70E18AE095E07A
:205260000E94CC0E8091B4030E94901269EC70E18AE095E00E94CC0E6091B9037091BA033A
:205280008AE095E00E94C71268EB70E18AE095E00E94CC0E6091D7037091D8038AE095E02F
:2052A0000E94C7126BEA70E18AE095E00E94CC0E60916104709162048AE095E00E94C7125B
:2052C0006DE970E18AE095E00E94CC0E6091D9037091DA038AE095E00E94C7128CE790E1E3
:2052E0000E94B2111092B4031092B5031092B6030E9431118091E1039091E203A091E30345
:20530000B091E403A3019201281B390B4A0B5B0BDA01C90180369A4EA105B10508F4ABC1E5
:2053200080917D048823E1F08091DD039091DE03A091DF03B091E00322E330E040E050E0D0
:20534000281B390B4A0B5B0BDA01C901840D951DA61DB71D89359240A105B10508F08BC15C
:205360004092E1035092E2036092E3037092E4036FE172E18AE095E00E94CC0EC301B2017A
:2053800028EE33E040E050E00E947130BA01A9018AE095E00E948D1268E172E18AE095E051
:2053A0000E94CC0E6091DB037091DC038AE095E00E94C7126FE072E18AE095E00E94CC0E6B
:2053C0006091D9037091DA038AE095E00E94C71267E072E18AE095E00E94CC0E70E060E043
:2053E0008AE095E00E94C7128FE20E94DD0F60916B0470916C048AE095E00E94C7126EEFCC
:2054000071E18AE095E00E94CC0E6091F0037091F1038AE095E00E94C71263EF71E18AE09E
:2054200095E00E94CC0E60916104709162048AE095E00E94C7126CEE71E18AE095E00E9437
:20544000CC0E6091D7037091D8038AE095E00E94C71264EE71E18AE095E00E94CC0E609181
:20546000D5037091D6038AE095E00E94C7126DED71E18AE095E00E94CC0E8091F7040E946B
:20548000901263ED71E18AE095E00E94CC0E6091F9047091FA048AE095E00E94C71268ECD2
:2054A00071E18AE095E00E94CC0E6091FB047091FC048AE095E00E94C71261EC71E18AE0EB
:2054C00095E00E94CC0E4091D1035091D2036091D3037091D4038AE095E00E948D126BEB6B
:2054E00071E18AE095E00E94CC0E60918504709186048AE095E00E94C71263EB71E18AE096
:2055000095E00E94CC0E6091CF037091D0038AE095E00E94C7126BEA71E18AE095E00E9481
:20552000CC0E6091CD037091CE038AE095E00E94C71261EA71E18AE095E00E94CC0E6091BB
:20554000CB037091CC038AE095E00E94C712E090C903F090CA03C090C703D090C8030091F4
:20556000C5031091C603A090C303B090C40366E971E18AE095E00E94CC0EB7018AE095E069
:205580000E94C7126BE871E18AE095E00E94CC0E6091C1037091C2038AE095E00E94C712BB
:2055A00060E871E18AE095E00E94CC0E6091BF037091C0038AE095E00E94C71266E771E186
:2055C0008AE095E00E94CC0E6091BD037091BE038AE095E00E94C7126CE671E18AE095E020
:2055E0000E94CC0E6091BB037091BC038AE095E00E94C71262E671E18AE095E00E94CC0E71
:20560000B8018AE095E00E94C71269E571E18AE095E00E94CC0EB6018AE095E00E94C7126B
:205620006DE471E18AE095E00E94CC0EB5018AE095E00E94C71266E471E18AE095E00E943F
:20564000CC0E6091B9037091BA038AE095E00E94C7126DE371E18AE095E00E94CC0E4091DD
:205660007D0450E070E060E02AE08AE095E00E9441120E94AC1180917D0481117FC0809138
:20568000EC039091ED03A091EE03B091EF03A3019201281B390B4A0B5B0BDA01C901883BD4
:2056A0009B40A105B10508F469C04092EC035092ED036092EE037092EF036FE572E18AE013
:2056C00095E00E94CC0E809176040E94901263E572E18AE095E00E94CC0E8091EB030E9473
:2056E00090128FE20E94DD0F8091EA030E9490128091E903882331F06DE372E18AE095E07C
:205700000E94CC0E68E372E18AE095E00E94CC0E4091E5035091E6036091E7037091E803CA
:205720008AE095E00E948D1260E372E18AE095E00E94CC0E4091890450918A0460918B040B
:2057400070918C048AE095E00E948D126BE272E18AE095E00E94CC0EC301B20128EE33E0FD
:2057600040E050E00E947130BA01A9018AE095E00E948D1289E292E10E94B2118091F203C8
:205780009091F303A091F403B091F503A3019201281B390B4A0B5B0BDA01C90180369A4ED5
:2057A000A105B10540F14092F2035092F3036092F4037092F50363EC72E18AE095E00E94B7
:2057C000CC0E60910601709107018AE095E00E94C71265EA72E18AE095E00E94CC0E6091A6
:2057E000F0037091F1038AE095E00E94C71284E792E10E94B21180E090E0892B09F406C9D4
:205800000E945A0F882309F4F8C80E940000ECC8E0E0DDCCEE2309F46DCD4091FF04509159
:205820000005C153DF4F59834883CF5CD0400E94B40E9B01AC012C193D094E095F09CF5227
:20584000DF4F288339834A835B83C15DD040E0900004EE2009F477C11F9283E08F931F923C
:2058600087E08F938AE392E09F938F931F9281EA8F938E010F5F1F4F1F930F930E94153187
:205880000FB6F894DEBF0FBECDBF181619060CF0B9C09C012D5F3F4F223A310508F0B2C04C
:2058A000682FC8010E945E11F80101900020E9F731974F01801A910A5AE8C52E5FE0D52E29
:2058C000C653DF4F1882CA5CD040F6018491C154DF4F8883CF5BD0403196E491C054DF4F9F
:2058E000E883C05CD040CF53DF4F1882C15CD040BE0166547F4FC653DF4F8881CA5CD0402D
:205900000E941911C953DF4FF881C75CD040FF93CA53DF4F2881C65CD0402F93CB53DF4FFF
:205920003881C55CD0403F93CC53DF4F4881C45CD0404F9385E492E09F938F931F92B8E10A
:20594000BF933F922F920E9415310FB6F894DEBF0FBECDBF181619060CF054C09C012D5FAE
:205960003F4F2931310508F04DC0682FC1010E945E11F10101900020E9F731977F01E218D5
:20598000F308C401805A91098E0D9F1D8F359F4FC8F194012F5F3F4FC353DF4F39832883B5
:2059A000CD5CD040F801E80DF91D3AE03083A7014F5F5F4FB101C353DF4F88819981CD5C97
:2059C000D040800F911F0E94D030C353DF4F88809980CD5CD0408E0C9F1CC653DF4F4881D3
:2059E000CA5CD0404F5FC653DF4F4883CA5CD04058E0C50ED11C433009F067CF81149104B7
:205A000009F074C080E090E10E94B211912C812CF12CE12C81E08093B70362E770E18AE05D
:205A200095E00E94CC0E4091D1035091D2036091D3037091D4038AE095E00E948D126DE608
:205A400070E18AE095E00E94CC0EB4018AE095E00E94C71267E670E18AE095E00E94CC0E92
:205A60008F2D0E94901261E670E18AE095E00E94CC0ECF52DF4F488159816A817B81C15D3C
:205A8000D0408AE095E00E948D128CE590E1E11002C087E590E10E94B2110E94B40EEE208D
:205AA00009F428CC8091B2039091B30301969093B3038093B203B0920501A0920401C1538D
:205AC000DF4FE881F981CF5CD040F0930301E0930201C553DF4F28813981CB5CD0403093DA
:205AE0000101209300011092B80304CCB401C8010E94BE1EE82E882309F4F8C110920004AA
:205B00008091B0039091B1038F3F980729F001969093B1038093B00362EF7FE08AE095E0A3
:205B20000E94CC0E68EE7FE08AE095E00E94CC0EB4018AE095E00E94C71280EF9FE00E943A
:205B4000B211F12C67CF2091FD043091FE048091AD039091AE03BE0161547F4F822B932B7A
:205B60000E94ED0DBE0166547F4F8091FF04909100050E94ED0D1091B2030091B3038091BE
:205B80000905882309F44BC0B10180910505909106050E94ED0D0E94B40E3F922F922EE4A7
:205BA00032E03F932F9328EE33E040E050E00E9471305F934F933F932F93C953DF4FB88198
:205BC000C75CD040BF93CA53DF4FE881C65CD040EF93CB53DF4FF881C55CD040FF93CC5331
:205BE000DF4F2881C45CD0402F930F931F9381E592E09F938F931F9280E48F93CE010196BF
:205C00009F938F930E9415310FB6F894DEBF0FBECDBF18161906DCF1912C812C92CF0E947A
:205C2000B40E2EE432E03F932F9328EE33E040E050E00E9471305F934F933F932F93C953AA
:205C4000DF4F5881C75CD0405F93CA53DF4F8881C65CD0408F93CB53DF4F9881C55CD040DA
:205C60009F93CC53DF4FA881C45CD040AF930F931F9387E692E09F938F931F9280E48F934C
:205C8000CE0101969F938F930E941531BDCF9C012D5F3F4F2134310508F0BECF682F8E01E9
:205CA0000F5F1F4FC8010E945E11F80101900020E9F73197E01BF10BEE2309F4ADCF4F010B
:205CC0009924F090F704FF2009F44BC08091F80490E0FC01EE0FFF1FE152FB4F40815181C0
:205CE000B091DE042DE834E0A0E0BA1709F462C02B5F3F4FF901359760817181461757077C
:205D000009F056C0A7FD56C0F12C95E0D92E28E1C22E3AE0E32E8091F704F81610F58091CD
:205D2000F8048F0D9927991F6CE070E00E94B630FC01EE0FFF1FE152FB4F40815181309146
:205D4000DE048DE894E020E0321759F00596FC013597608171814617570709F046C027FFCF
:205D600046C0B401CE0101960E94BE1EE82E882309F450CEFF2081F08091F8048F0D9927AF
:205D8000991F6CE070E00E94B6308093F8048091F7048F198093F7048091FF03882329F07F
:205DA0001092FF0381E080930004EE24E39432CEAF5F9BCF01966CE070E00E94B6308093F8
:205DC000F804FA94F092F7048091FB049091FC048F3F980729F001969093FC048093FB0439
:205DE00082EA9FE00E94B2116CCF2F5FADCF1D2D2103F0011124E357FB4F84811F928F931E
:205E00008381282F082E000C330B3F938F938281282F082E000C330B3F938F9381818F93C1
:205E200080818F932AE732E03F932F931F92CF92C753DF4F5881C95CD0405F93C853DF4FE5
:205E40008881C85CD0408F930E9415310FB6F894DEBF0FBECDBF181619060CF082CF9C017D
:205E60002D5F3F4F2931310508F07BCF682FCE018E559F4F0E945E11C853DF4FE881F981C2
:205E8000C85CD04001900020E9F73197AF01C853DF4F28813981C85CD040421B530B5527AE
:205EA000C40101968A01080F191F013A110508F058CFE1E0F0E0EC0FFD1FE80DF91DE08227
:205EC0004F5F5F4FBE016E557F4FA1E0B0E0AC0FBD1F8A0F9B1F0E94D030F39448011BCFBF
:205EE00089E89EE00E94B2110C94E22662EF7FE08AE095E00E94CC0E60EE7FE015CE81E7A3
:205F000091E09093A8058093A70580913E0390913F03875A954071F4E091BA05F091BB0540
:205F200090818091BC0580958923808310923F0310923E0308958F929F92AF92BF92CF9211
:205F4000DF92EF92FF92CF93DF93EC01688179818A819B81611571058105910521F464E290
:205F600079ED8BE597E02DE133EF41E050E00E943F3049015A019B01AC01A7EAB1E40E948C
:205F80005E306B017C01ACEEB4EFA50194010E946C30C60ED71EE81EF91EF7FE06C081E0D2
:205FA000C81AD108E10880E8F80AC882D982EA82FB82C701B6019F77DF91CF91FF90EF90D2
:205FC000DF90CF90BF90AF909F908F9008958F929F92AF92BF92CF92DF92EF92FF926091C1
:205FE0000B0170910C0180910D0190910E01611571058105910521F464E279ED8BE597E088
:206000002DE133EF41E050E00E943F3049015A019B01AC01A7EAB1E40E945E306B017C01C1
:20602000ACEEB4EFA50194010E946C30C60ED71EE81EF91EF7FE06C081E0C81AD108E10804
:2060400080E8F80AC0920B01D0920C01E0920D01F0920E01C701B6019F77FF90EF90DF90E6
:20606000CF90BF90AF909F908F90089560930B0170930C0180930D0190930E010895052E16
:2060800097FB1EF400940E94563057FD07D00E94713007FC03D04EF40C945630509540953A
:2060A000309521953F4F4F4F5F4F089590958095709561957F4F8F4F9F4F08950E9493301D
:2060C000A59F900DB49F900DA49F800D911D11240895B7FF0C945E300E945E30821B930B50
:2060E0000895A1E21A2EAA1BBB1BFD010DC0AA1FBB1FEE1FFF1FA217B307E407F50720F09A
:20610000A21BB30BE40BF50B661F771F881F991F1A9469F760957095809590959B01AC0110
:20612000BD01CF010895A29FB001B39FC001A39F700D811D1124911DB29F700D811D11244E
:20614000911D0895AA1BBB1B51E107C0AA1FBB1FA617B70710F0A61BB70B881F991F5A9571
:20616000A9F780959095BC01CD01089597FB072E16F4009407D077FD09D00E94A23007FC1D
:2061800005D03EF4909581959F4F0895709561957F4F0895EE0FFF1F0590F491E02D0994ED
:2061A000FB01DC0102C001900D9241505040D8F70895FC018191861721F08823D9F799278F
:2061C00008953197CF010895FB01DC018D91019080190110D9F3990B0895FB01DC01415044
:2061E000504030F08D910190801919F40020B9F7881B990B0895FB0151915523A9F0BF0137
:20620000DC014D9145174111E1F759F4CD010190002049F04D9140154111C9F3FB014111A9
:20622000EFCF81E090E001970895AEE0B0E0EBE1F1E30C94D1330D891E898F89988D26E0B8
:206240002C831A83098397FF02C080E090E801979E838D83AE01455E5F4F698D7A8DCE01A1
:2062600001960E9445314D815E8157FD0AC02F813885421753070CF49A01020F131FF801AD
:2062800010822E96E4E00C94ED33ABE0B0E0EBE4F1E30C94C3337C013B018A01FC011782F6
:2062A0001682838181FFC8C1CE0101965C01F7019381F30193FD859193FF81913F01882341
:2062C00009F453C1853239F493FD859193FF81913F01853229F4B70190E00E943533E7CF83
:2062E000912C212C312CFFE1F31538F08B3211F190F4803209F1833229F137FC3CC020ED2D
:20630000280F2A3050F536FE20C08AE0989E200D1124922E06C08D3291F0803371F76894B4
:2063200030F8F30193FD859193FF81913F018111DACF21C0689431F8689432F8F2CF689493
:2063400033F8EFCF689434F8ECCFEAE02E9E200D1124222E689435F8E4CF8E3229F436FC3E
:2063600004C1689436F8DDCF8C3619F4689437F8D8CF8836B1F2982F9F7D95549330E0F021
:206380008336A1F18337C1F1833509F063C02801F2E04F0E511CF801C080D180692D70E03D
:2063A00036FC02C06FEF7FEFC6010E941F334C01689437F882010AC00C5F1F4FFFE3F98366
:2063C00088248394912C6501E89437F833FE2DC0522C8114910471F5552009F468CFB7019F
:2063E00080E290E00E9435335A94F6CFF801808189830E5F1F4FE4CF2801F2E04F0E511CB5
:20640000F801C080D180692D70E036FC02C06FEF7FEFC6010E942A334C018201D5CFB7015A
:2064200080E290E00E9435332A942814190409F0B0F7CECFF60137FC859137FE81916F0135
:20644000B70190E00E94353351105A94F1E08F1A9108BFCF843619F0893609F077C0F8016F
:2064600037FE6BC060817181828193810C5F1F4FF32DFF763F2E97FF09C090958095709559
:2064800061957F4F8F4F9F4F689437F82AE030E0A5010E946533C82ECA188C2C432C36FE14
:2064A0000CC0E89440F8C91440F434FE05C032FC03C0F32DFE7E4F2E892C44FE95C0FE01FF
:2064C000EC0DF11D8081803309F087C0242D297E422E842D8870582E43FC95C040FE8FC009
:2064E0009C2C821418F42C0C922C981844FE91C0B70180E390E00E94353342FE09C088E7EC
:2065000090E041FE02C088E590E0B7010E943533C91408F48AC0CA94D12C9FEFC91AD90A99
:20652000CA0CDB1CF60182916F01B70190E00E943533AC14BD04B1F74FCF60817181072E93
:20654000000C880B990B0E5F1F4F92CFD32CE894D4F82AE030E0853739F1232D297FD22E7D
:206560008F3601F148F48835A9F0F701868197812B96E2E10C94DF33803749F08837A9F736
:20658000D4FE02C06894D2F820E130E00DC06894D4F8F6CF34FE03C0822F8660D82E20E1A3
:2065A00032E002C028E030E0F801D7FE0FC060817181828193810C5F1F4FA5010E946533AF
:2065C000C82ECA183D2CE89437F867CF6081718190E080E00E5F1F4FF0CF42FC02C0839445
:2065E00078CF8394839475CF842D867809F471CFF6CFB70180E290E00E94353383948214F0
:20660000C0F3512C73CF522C5818821408F46ECFF8CF842D867809F47BCF8BE241FE80E280
:2066200047FC8DE2B70190E071CFB70180E390E00E9435339A946CCF8FEF9FEF99CFFC01D1
:206640000590615070400110D8F7809590958E0F9F1F0895FC016150704001900110D8F763
:20666000809590958E0F9F1F08950F931F93CF93DF93182F092FEB018B8181FD09C01FEFF4
:206680000FEF812F902FDF91CF911F910F91089582FF14C02E813F818C819D812817390762
:2066A0003CF4E881F981CF0101969983888310838E819F8101969F838E83E3CFE885F98510
:2066C000812F0995892BA1F3DACFFA01AA27283051F1203181F1E8946F936E7F6E5F7F4F4C
:2066E0008F4F9F4FAF4FB1E03ED0B4E03CD0670F781F891F9A1FA11D680F791F8A1F911DFF
:20670000A11D6A0F711D811D911DA11D20D009F468943F912AE0269F11243019305D319353
:20672000DEF6CF010895462F4770405D4193B3E00FD0C9F7F6CF462F4F70405D4A3318F02E
:20674000495D31FD4052419302D0A9F7EACFB4E0A6959795879577956795BA95C9F700970F
:206760006105710508959B01AC010A2E06945795479537952795BA95C9F7620F731F841F80
:20678000951FA01D08952F923F924F925F926F927F928F929F92AF92BF92CF92DF92EF923E
:2067A000FF920F931F93CF93DF93CDB7DEB7CA1BDB0B0FB6F894DEBF0FBECDBF09942A88A6
:2067C000398848885F846E847D848C849B84AA84B984C884DF80EE80FD800C811B81AA81CE
:2067E000B981CE0FD11D0FB6F894DEBF0FBECDBFED0108951DE0C3EBDDE004C0FE010E94F5
:20680000CA302196C43BD107C9F7F894FFCFFEFFFFFFFFFFFFFFF401FF0100000053454E04
:2068200044204F4B00000000008813983A307560EA0102020202FF6572726F720062757382
:206840007900C40920033075C409B004401F2003DC05DC052823B80B3031323334353637BB
:2068600038394142434445460000000000900FF00E1D0FE20F4E0F2C0F400F000000001B56
:2068800010F00EAE101A1077108D1002100D0A002B4950442C005749464900474F542049FF
:2068A0005000444953434F4E4E4543540062757379002B43574A41503A004552524F520077
:2068C0006E6F2061700041542B006E6F206368616E6765002B43574C41503A00534B5F5797
:2068E00069466947494741353044435F322E3447006E6F20697000414C524541004C494E24
:206900004B454400434C4F53454400556E6C696E6B00554E4C494E4B006C696E6B206973FD
:20692000206E6F742076616C69640053454E44204F4B0053454E44204641494C00302E30DE
