:200000000C94F20D0C94290E0C94290E0C9461220C9461220C9461220C94290E0C94290E7C
:200020000C94290E0C94290E0C94290E0C94290E0C94290E0C94290E0C94290E0C94290E08
:200040000C94BF210C94290E0C942F220C9409220C94290E0C94290E0C94290E0C94290E31
:200060000C94290E0C94290E5B4C325D20EAB1B0ECA08820E280942037EC9E90EBA6AC2039
:20008000ECB488EAB3BC3A20005B4C325D2000EBB094EC9DB4ED8AB8EBA5BC20EB8498EC35
:2000A00096B420EBB284EBA0B8EB8BA4005B44524F502D4F56465D20ECA484EC9DB42000C2
:2000C000EBB094EC9DB4ED8AB820EBB284EBA6BC202B20ECA48420ECA1B0EBA6BD20ECB40D
:2000E00088EAB8B0ED9994005B4C41444445525D2031EB8BA820ECA1B0ECB9983A20EC8BCE
:200100009CEBA6ACEC96BC20EB939CEBA088EC9DB82000ECB48820EBB0B1EC98A4ED948459
:20012000EBA19C20EB9098ED9280EC9DB4ED959CEB8BA428ECA285ECB0A9EC97AD29005BBC
:200140004C41444445525D202020EB8C80EC8BA02034EB8BA820ECA1B0ECB998EBA5BC20B0
:20016000005B4C41444445525D202020ED9584EC9A9420EBB680ED92883A20EBA19CEC9A4B
:20018000B0EC82ACEC9DB4EB939C204D4F5346455420EC8AA4EC9C84ECB99828EC98883A5F
:2001A00020324E373030302F414F33343030202B2031306B29005B4C41444445525D20E28C
:2001C0009AA035EB8BA820EBAFB8EC8BA4ED96893A20ECA084EC9B9020EC9EACED88ACEC15
:2001E0009E85EC9D80202A2AEBB680ED928820EBAFB8EBB3B4EC9CA0EBA19C20EBAFB8EAC7
:20020000B5ACED98842A2AEC9DB4EB8BA428EBB0B0ECA09CEAB08020EC9584EB8B88EB8B7B
:20022000A42900ECB48820EC89ACEAB3A02041542B52535420EBA5BC20EB9098ED9280ECE8
:200240009DB4ED959CEB8BA42028EC9DB4EAB283EC9DB420ECA095EC838120EAB2BDEBA1FE
:200260009CEB8BA429005B4C41444445525D202020E2869220005B4C41444445525D20201D
:2002800020EC9CA0EC9DBCED9598EAB28C20ED9280EBA6ACEB8A9420ED8E8CEC9BA8EC9652
:2002A000B42068616E6720EC9D8020EC86A1EC8898EC8BA020EBA19CECA78120EC9EACECAF
:2002C00084A4EAB384EBA19C20ECA09CEAB1B0ED9688EB8BA4005B4C41444445525D202051
:2002E00020ECA084EC9B90C2B7454EC2B75253542D4C4F5720EC8381ED839CEBA9B4205244
:20030000535420ED9580EC9D8420ED9D94EB93A4EC96B4EB8F8420EB8F99EC9DBCED9598E1
:20032000EAB3A02C005B4C41444445525D2034EB8BA820EAB1B4EB8488EB9C803A20ED9535
:2003400098EB939CEC9BA8EC96B420EBA6ACEC858BEC9D80202A2AEC84A4EAB384EC83818B
:2003600020EBB0B0ECA09C2A2AEB8BA428EBAFB8EBB0B0EC84A0EC9DB420EC9584EB8B8847
:20038000EB8BA42900ECB48820EC89ACEAB3A02041542B5253542028EBAAA8EB938820EC04
:2003A000868CED9484ED8AB820EBA6ACEC858B29005B4C41444445525D2033EB8BA820EC94
:2003C000A1B0ECB9983A2000ECB48820EC89ACEAB3A02041542B435751415020EBA19C20CB
:2003E000EAB2B0ED95A9EC9D8420EBAA85EC8B9CECA081EC9CBCEBA19C20EB818AEC9D8094
:2004000020EB92A420EB8BA4EC8B9C20EBB699EB8A94EB8BA4005B4C41444445525D20321B
:20042000EB8BA820ECA1B0ECB9983A2000EB8BA8005B4C41444445525D20E28691E2869116
:2004400020EB8BA820EC8381EC8AB920E2869220005B4C41444445525D20E286912033EB2A
:200460008BA82841542B5253542920ECA781ED968920E2809420415420EAB384ECB8B5ECAE
:200480009DB420EC9EA0EAB2BCEC9CBCEBA9B420EC9584EB9E9820EB8BA8EC9D8020EC9DA7
:2004A00098EBAFB8EAB08020EC9786EB8BA400ED9A8C20EB8884ECA0812900EB8BA828004F
:2004C00020C2B720ED9884EC9EAC2000EC9786EC9D8C00ED9A8C20C2B720EAB2B0ED95A9A3
:2004E000EC9CA0ECA78020007320C2B720EC97B0EC868D2000292043574A4150EC868CEC7B
:200500009A94200043574A4150204641494C00415420EAB384ECB8B520EC9EA0EAB9800040
:2005200043574A415020EBACB4EC9D91EB8BB5005B4C41444445525D20EC8BA4ED8CA828AE
:20054000005B4C41444445525D2031ECB48820EC9588EC979020EB93A4EC96B4EC98A820BE
:20056000ECA491EBB3B520EC8BA4ED8CA820EC8BA0ED98B820E2809420EC84B8ECA78020A6
:20058000EC958AEB8A94EB8BA4005B54582D44524F505D20005B54585D2000EBB094EC9D0B
:2005A000B4ED8AB8EBA19C20EC8AA4ED8AB8EBA6BC20EBB3B5EAB5AC28EC849CEBB284EB7C
:2005C0008A9420EC9DB420ECA484EC9D8420EBB284EBA6B0EB8BA429005B54582D5245537C
:2005E000594E435D20ED9484EBA1ACED9484ED8AB820EB8693ECB9A820E2869220EB8D946C
:20060000EBAFB820005B54582D52454A4543545D2043495053454E4420EAB1B0EBB6802840
:200620004552524F522920E2809420EB8D94EBAFB8EBA5BC20EB84A3ECA78020EC958AEBCC
:200640008A94EB8BA4005B54582D425553595D2045535020EAB08020EBB094EC8198EB8B82
:20066000A428EAB1B0EBB6802920E2809420EC8BA4ED8CA8EBA19C20EC84B8ECA78020EC18
:20068000958AEB8A94EB8BA42E20EB8BA4EC9D8C20ECA3BCEAB8B0EC979020EB8BA4EC8B1A
:2006A0009C20EBB3B4EB82B8EB8BA4000D0A0041542B43495053454E443D005B54582D5748
:2006C0004149545D20E29885E2988520543220ECB488EAB3BC20E280942053454E44204FAB
:2006E0004B20EAB08020EB819DEB82B420EC958820EC98A8EB8BA420E2869220EBA781ED62
:2007000081ACEBA5BC20EB8BA4EC8B9C20EC84B8EC9AB4EB8BA4005B54582D574149545DB1
:2007200020EC959E20ECA084EC86A1EC9D982053454E44204F4B20EBA5BC20EC9584ECA7EE
:200740008120EBAABB20EBB4A4EB8BA420E2809420EC9DB4EBB28820ECA3BCEAB8B0EB8A61
:200760009420EAB1B4EB8488EB9BB4EB8BA4005B54582D574149545D20E298852054312081
:20078000ECB488EAB3BC20E2809420EAB7B8EB9E98EB8F8420EAB384EC868D20EAB8B0EB8D
:2007A0008BA4EBA6B0EB8BA428EB9190EB93A4EAB8B0ECA78020EC958AEB8A94EB8BA4297D
:2007C000005B42414420534C4F545D207269643D005B53494D5D20EC9DB420EC9EA5ECB9AA
:2007E00098EB8A9420EC8B9CEBAEAC20EC8381ED839CEAB08020EC9786EB8BA420E286924D
:2008000020726573756C743D35005B424144204649454C44535D207269643D005B44555071
:20082000207269645D20005B5245475D205120EC8898EC8BA020E2809420EB8BA4EC9D8C2D
:2008400020EC86A1EC8BA020ECB0BDEC979020EB93B1EBA19DEC9D8420EB8BA4EC8B9C20D0
:20086000EBB3B4EB82B8EB8BA40020E2809420ECBD9CEBB0B1EC9DB420EAB1B0ECA0882044
:200880006172673D0020E2809420EB93B1EBA19D20EC9786EC9D8C0020E2809420EC9DB89E
:2008A000EC9E9020ED95B4EB8F8520EC8BA4ED8CA800206172673D005B475D206964783D35
:2008C000005B475D20EAB1B0ECA088206964783D005B434B53554D204E475D20005B4E45FA
:2008E000545D20E298852045535020EAB08020495020EBA5BC20EC9E83EC9788EB8BA4204F
:20090000E2809420EBAAA8EB938820EBA6ACEC858BEC9CBCEBA19C20EBB3B8EB8BA42E20DB
:20092000EB8884ECA08120EC82ACEAB1B42000ED9A8C20EC97B0EC868D20EC8BA4ED8CA849
:2009400020E2869220EC98A4ED9484EB9DBCEC9DB820ECA084ED99982E20EB82A1EC9D80F8
:2009600020EC868CECBC93EBB680ED84B020EB8BABEB8A94EB8BA428434950434C4F5345FE
:2009800029005B4E45545D20ECA084EC86A120005B4E45545D20ECA084EC86A120EC8BA40F
:2009A000ED8CA82000ED9A8C2028EC849CEBB284EC9D982027EBB284EBA6B0ECA484272049
:2009C000EAB3BC20EBA79EEC9584EC95BC20ED959CEB8BA42900204220C2B720ED9484EBA0
:2009E000A1ACED9484ED8AB820EC9EACEB8F99EAB8B020005B52414D5D20ECB59CECA0809A
:200A000020EC97ACEC9CA0200073002075703D00206C696E65733D002072783D00205B450B
:200A20005350EBA6ACEC858BEC9CA0ECA780ECA4915D0020EC82ACEB8BA4EBA6AC3D005BF8
:200A4000444941475D206F66666C696E6520737465703D00206F6E6C696E653D0020736B28
:200A600069703D00206269676F6B6C6F73743D00206F6B6C6F73743D00206269676F6B739D
:200A8000743D002062696764726F703D002062696766696C6C3D002070656E6466696C6CBD
:200AA0003D002070656E6464726F703D00206F6B73747265616D3D0020636B73756D6E6765
:200AC0003D002073736F76663D0020736D6973733D00206F6F773D0020736C6F743D0020CE
:200AE00061636B7374616C653D002061636B64726F703D002061636B713D00207374756354
:200B00006B3D00206F6B746F3D002073656E646661696C3D0020726573796E633D002068F7
:200B2000777273743D00206573707273743D002064726F703D005B434E545D2075703D00B9
:200B40005B41434B515D20ECBA90EC8B9CEC9790EC849C20EBB080EBA0A4EB829820EBA714
:200B60008CEB93A420EC889820EC9786EB8BA420E2809420EBB284EBA6B0EB8BA400EC8B2F
:200B8000A4ED8CA82000ECA084EC86A1200042005B5245475D20EB93B1EBA19D20005B5210
:200BA00045475D20EB93B1EBA19D20EBB0B0ECB998EBA5BC20EBA78CEB93A4ECA78020EB62
:200BC000AABBED9688EB8BA420E2809420EC9E98EBA6B020EB93B1EBA19DEC9D8420EB82E0
:200BE000B4EBB3B4EB82B4ECA78020EC958AEB8A94EB8BA40020723D300020723D3100204E
:200C00006475653D002061636B3D002074783D005B534C4F545D206E3D005D20E286922028
:200C2000EBA781ED81ACEBA5BC20EB8BA4EC8B9C20EC84B8EC9AB4EB8BA400202F2045534B
:200C400050EBA6ACEC858B2000202F2053454E444641494C2000202F2053454E444F4BECF7
:200C60008381ED959C20002920C2B720EB8884ECA0815BEAB1B4EB8488EB9C802000202F35
:200C800020EAB1B0EBB6802000202F20EBACB4EC9D91EB8BB520006D7320EB8F99EC95886D
:200CA00020ED959C20ECA484EB8F8420EBAABB20EB8298EAB094EB8BA420286275737920BC
:200CC000005B4E45545D20E2988520ECA095ECA78020EAB090ECA7803A20005B4C414444DB
:200CE00045525D2034EB8BA83A2045535020EBA6ACEC858B20ED95B4ECA09C20E28094203F
:200D0000EBB680ED8C85EC9D8420EAB8B0EB8BA4EBA0B8EB8BA4EAB0802043574D4F4445C5
:200D200020EBB680ED84B020EB8BA4EC8B9C005B4E45545D2031302043575141502028EA16
:200D4000B2B0ED95A920ED95B4ECA09C20E2809420EC82ACEB8BA4EBA6AC2032EB8BA82948
:200D60000041542B43575141500D0A005B4E45545D20392043574C41502028ECA3BCEBB360
:200D80008020415020EBAAA9EBA19D20E2809420ECA784EB8BA8290041542B43574C4150D0
:200DA0000D0A005B4E45545D2038204357434F554E5452592028ECB184EB84902031322F1D
:200DC000313320EC9AB0ED9A8C20EC8B9CEB8F8420E2809420ECA784EB8BA8290041542BC1
:200DE0004357434F554E5452595F4445463D302C224B52222C312C31330D0A005B4E455437
:200E00005D203720474D522028ED8E8CEC9BA8EC96B420ED8C9020E2809420ECA784EB8B78
:200E2000A8290041542B474D520D0A005B4E45545D203620434950434C4F53452028EB8208
:200E4000A1EC9D8020EC868CECBC9320EB8BABEAB8B0290041542B434950434C4F53450DB4
:200E60000A005B4E45545D20352043495053544152540041542B43495053544152543D2261
:200E8000544350222C223139322E3136382E302E3239222C383838380D0A005B4E45545DB7
:200EA0002034204349504D55583D300041542B4349504D55583D300D0A005B4E45545D20A2
:200EC000332043494653522028495020EBA5BC20EC8BA4ECA09CEBA19C20EBB09BEC959801
:200EE000EB8A94EAB080290041542B43494653520D0A005B4E45545D20322043574A4150D2
:200F00002028EC9D91EB8BB5EAB98CECA78020ECB59CEB8C80203330ECB48820EAB8B0EBA6
:200F20008BA4EBA6B0EB8BA4290041542B43574A41503D2233465F333032222C22303432F7
:200F4000343731393232322121220D0A005B4E45545D20312043574D4F44453D31004154D9
:200F60002B43574D4F44453D310D0A005B4E45545D2030205253540041542B5253540D0A2A
:200F800000ED9A8C20EC8BA4ED8CA820E286922041542B52535420EBA19C20ECA084ECB2D9
:200FA000B420ECB488EAB8B0ED999428EC82ACEB8BA4EBA6AC20EC8381EC8AB929005B4E1F
:200FC00045545D20434950434C4F534520005B4E45545D2043494653522033ED9A8CEC976A
:200FE00090EB8F8420495020EAB08020EC9786EB8BA420E286922043574A415020EBB6803D
:20100000ED84B020EB8BA4EC8B9C005B4E45545D2043494653522033ED9A8C20EC868CECBC
:20102000A78420E2809420EAB7B8EB9FACEB8298206275737920EAB1B0EBB680EC9880EB5D
:201040008BA42E20495020EC868CEC8BA4EBA19C20EC84B8ECA78020EC958AEB8A94EB8B14
:20106000A4005B4E45545D20495020EAB08020EC9786EB8BA420E2869220434950535441F9
:20108000525420EBA5BC20EBB3B4EB82B4ECA78020EC958AEAB3A02043574A415020EBA1EF
:2010A0009C20EB9098EB8F8CEC9584EAB084EB8BA400EB8BA829005B4C41444445525D2053
:2010C000E28693203330ECB48820EC97B0EC868D20EC98A8EB9DBCEC9DB820E2809420EC25
:2010E00082ACEB8BA4EBA6ACEBA5BC2030EB8BA8EC9CBCEBA19C20EB82B4EBA6B0EB8BA4A9
:201100002028ECA781ECA0842000EB81940020C2B72036EB8BA828EC9B8CECB998EB8F85BF
:20112000292000EBB0B0ECA09C28EC84A4EAB3842920E280942068616E6720EC9D8420EC60
:201140009786EC95A020EBB688ED9584EC9A94005B424F4F545D20EC82ACEB8BA4EBA6AC6B
:201160002034EB8BA82845535020ED9598EB939CEBA6ACEC858BEC84A0292000EC9B8CEC08
:20118000B998EB8F8520002A2AEBB88CEB9DBCEC9AB4EC9584EC9B8328ECA084EC9B90EB95
:2011A000B680ECA1B1292A2A2000EC99B8EBB680EBA6ACEC858B28EBB284ED8ABC2F445444
:2011C00052292000ECA084EC9B90EC9DB8EAB08028504F52292000EC958C20EC889820EC4B
:2011E0009786EC9D8C20E2809420EC9DB420EBB680ED8AB8EBA19CEB8D94EAB080204D43DC
:2012000055535220EC9D8420ECA780EC9AB0EAB3A020EB8498EC96B4EC98A8EB8BA4005B03
:20122000424F4F545D20EBA6ACEC858B20EC9B90EC9DB83A20005B4346475D20F09F94B473
:20124000207365747570282920EC9790EC849C206E6F64652E626567696E282920EC9D8436
:2012600020EBA8BCECA08020EBB688EB9FACEB9DBC0020EAB09CEBA5BC20EBB284EBA0B80A
:20128000EB8BA420E28094207365747570282920EC9D9820EB93B1EBA19D20ECA484EC9D06
:2012A0008420ECA484EC97ACEB9DBC0020EC9D8420EB8498EAB2A820005B4346475D20F0B3
:2012C0009F94B420EBAAA8EB938820EC8381ED959C2000206D6F64756C6573202F20646525
:2012E000763D5031002073656E736F7273202F20000A5B5041524B494E47204E4F44455D0A
:201300002070726F746F207631202F2000F09F94B4ED95A8EC8898EC9786EC9D8C00ED9596
:20132000A8EC8898EC9E88EC9D8C000A5B53454E535D20000A5B4E45545D20EB8C80EC8388
:2013400081203139322E3136382E302E32393A383838380000000000240027002A000000FD
:20136000000800020100000304070000000000000000222028005C780022005B4E45545D55
:2013800020EC86A1EC8BA020EC98A4EBA59820EC9D91EB8BB528EBA19CEAB7B8EBA78C2C3B
:2013A00020ECB9B4EC9AB4ED84B0EB8A942073656E644C696E6520EC9DB420EC84BCEB8BDF
:2013C000A4293A20005B4E45545D20E298852053454E44204641494C20E2809420ED8E9859
:2013E000EC9DB4EBA19CEB939CEAB98CECA78020EC8DBCEB8A94EB8DB020ECA084EC86A163
:20140000EC9DB420EC8BA4ED8CA8ED9688EB8BA42E20EC8BA4ED8CA8EBA19C20EC84BCEB25
:201420008BA4005B4E45545D206C696E6B206973206E6F742076616C696420E2869220EC4D
:20144000A689EC8B9C20EC98A4ED9484EB9DBCEC9DB82C20EB82A1EC9D8020EC868CECBC4F
:201460009320EB8BABEAB8B028434950434C4F534529005B4E45545D206F6E6C696E65203F
:2014800028434F4E4E45435429202B20ECBA90EC8B9C20EBB984EC9B80005B4E45545D202F
:2014A0006F6E6C696E652028414C524541445920434F4E4E454354454420C2B720ECB488C9
:2014C000EAB8B020EAB2BDED95A929005B4E45545D20414C524541445920434F4E4E454356
:2014E00054454420E2809420EB82A1EC9D8020EC868CECBC9320EC9D98EC8BAC20ECA491C4
:20150000EC9DB4EBAF80EBA19C20EBAFBFECA78020EC958AEB8A94EB8BA420E286922043F5
:201520004950434C4F5345005B4E45545D206E6F20697020E2809420495020EAB08020ECF2
:201540009786EB8BA42E20434950535441525420EC9EACEC8B9CEB8F84EBA5BC20ECA091AC
:20156000EAB3A02043574A415020EBA19C20EB9098EB8F8CEC9584EAB084EB8BA4005B4E32
:2015800045545D202020322E3447487A20EC9DB8EAB080202F20ECA084ED8C8CEAB080201F
:2015A000EB8BBFEB8A94EAB080202F205353494420ECB2A0EC9E90EAB08020EBA79EEB8ADA
:2015C00094EAB080EBA5BC20EBB490EB9DBC2E005B4E45545D20EC84A4ECA095ED959C201E
:2015E0005353494420EAB08020EBAAA9EBA19DEC9790202A2AEC9786EB8BA42A2A20E28671
:201600009220EBB984EBB28820EBACB8ECA09CEAB08020EC9584EB8B88EB8BA42E005B4E06
:2016200045545D20202032EC889CEC9C843A20EBB984EBB080EBB288ED98B820202033EC88
:20164000889CEC9C843A20504D46283830322E313177292F5750413320ECA084ED9998EBA8
:20166000AAA8EB939C20EB8184EAB8B0005B4E45545D20202031EC889CEC9C843A20EC9C6E
:201680008420ECA484EC9D98202A2AEBA788ECA780EBA78920EC88ABEC9E9028ECB184EB28
:2016A0008490292A2A20EBA5BC20EBB490EB9DBC2E2031322F313320EC9DB4EBA9B420EAA7
:2016C000B3B5EC9CA0EAB8B0EBA5BC20312F362F313120EBA19C20EBB094EABF94EB9DBC7D
:2016E000005B4E45545D20EC84A4ECA095ED959C205353494420EAB08020EBAAA9EBA19DC4
:20170000EC9790202A2AEC9E88EB8BA42A2A20E2869220415020EB8A9420EBB3B4EC9DB81B
:20172000EB8BA42E20EAB2B0ED95A9EBA78C20EAB1B0EBB680EB909CEB8BA42E005B4E45D3
:20174000545D20E29480E2948020415020EC8AA4ECBA9420ED8C90ECA09520E29480E294D1
:2017600080E29480E29480E29480E29480E29480E29480E29480E29480E29480E29480E26B
:201780009480E29480E29480E29480E29480E29480E29480E29480E29480E29480E2948099
:2017A000E29480E29480E29480005B4E45545D202020E2869220EAB3B5EC9CA0EAB8B02042
:2017C000ECB184EB8490EC9D8420312F362F313120EBA19C20EBB094EABEB8EB8A9420EA8B
:2017E000B283EC9DB420ED9995ECA09520ED95B4EBB295EC9DB4EB8BA4005B4E45545D207D
:201800004357434F554E54525920EBAFB8ECA780EC9B90284552524F522920E2809420EC61
:201820009DB420ED8E8CEC9BA8EC96B4EBA19CEB8A9420ECB184EB84902031322F31332024
:20184000EC9D8420ECBD94EB939CEBA19C20EBAABB20EC97B0EB8BA42E005B4E45545D2012
:20186000E29885204357434F554E54525920EAB08020EBA8B9EC9788EB8BA420E28094207A
:20188000EAB79CECA09CEB8F84EBA994EC9DB820317E31332E20ECB184EB84902031322038
:2018A000EAB2B0ED95A9EC9DB420EC97B4EBA0B8EC9D8420EC889820EC9E88EB8BA4005BFA
:2018C0004E45545D204349504D55583D3020ECA081EC9AA9EB90A820E28692204349505379
:2018E00054415254005B4E45545D20E2988520495020ED9995EBB3B43A20005B4C414444DF
:2019000045525D2032EB8BA83A20EAB2B0ED95A920ED95B4ECA09C20EC9984EBA38C20E2CF
:20192000869220EAB9A8EB8197ED959C20EC8381ED839CEC9790EC849C2043574A41502013
:20194000EC9EACEC8B9CEB8F84005B4E45545D2043574A4150204F4B20E2809420EAB2B0D0
:20196000ED95A9EB9090EB8BA42E20495020EBA5BC20EC8BA4ECA09CEBA19C20EBB09BECF7
:201980009598EB8A94ECA78020434946535220EBA19C20ED9995EC9DB8ED959CEB8BA4006B
:2019A000ED9A8C2028EAB5ACED989520ED8E8CEC9BA8EC96B4EB8A9420EC82ACEC9CA0EB85
:2019C000A5BC20ECA3BCECA78020EC958AEB8A94EB8BA429005B4E45545D20E29885204390
:2019E000574A415020EC8BA4ED8CA82000ECA091EC868D20EC8BA4ED8CA800EAB7B82053F5
:201A000053494420EC9D9820415020EBA5BC20EBAABB20ECB0BEEC9598EB8BA400EBB98443
:201A2000EBB080EBB288ED98B8EAB08020ED8B80EBA0B8EB8BA400ECA091EC868D20EC8BE7
:201A40009CEAB084ECB488EAB3BC005B4E45545D20E298852043574A415020EC8BA4ED8C44
:201A6000A820EC82ACEC9CA03A20005B4E45545D206275737920E280942045535020EAB0A8
:201A80008020EC959E20EBAA85EBA0B9EC9D8420ECB298EBA6AC20ECA491EC9DB4EB8BA4D1
:201AA0002E20ECA084ECA784ED9598ECA78020EC958AEB8A94EB8BA4005B4E45545D205720
:201AC00049464920444953434F4E4E45435420E2809420495020EBA5BC20EC9E83EC9788B1
:201AE000EB8BA4005B4E45545D205749464920474F5420495020E2809420495020ED999511
:201B0000EBB3B42E2039ECB48820EB8C80EAB8B0ECB0BDEC9D8420EB819DEAB98CECA7808A
:201B200020EAB8B0EB8BA4EBA6ACECA78020EC958AEAB3A020EBB094EBA19C20EB8BA4ECC4
:201B40009D8C20EB8BA8EAB384EBA19C006D73005B534C4F542D4F4F575D202B005B41549E
:201B60005D20005B41434B515D20EAB080EB939D20ECB0B820E2809420EAB080EC9EA520A8
:201B8000EC98A4EB9E98EB909C20EBB3B4EBA5982041434B20EBA5BC20EBB284EBA6B0EB83
:201BA0008BA4000000000023002600290000000000250028002B00040404040404040402EA
:201BC00002020202020303030303030102040810204080010204081020010204081020006C
:201BE0001E23C23011241FBECFEFD8E0DEBFCDBF84B78093FE0514BE0FB6F894A89580913F
:201C00006000886180936000109260000FBE12E0A0E0B1E0E4E9FAE602C005900D92A438B7
:201C2000B107D9F725E0A4E8B2E001C01D92AE3FB207E1F71DE0C1EFDDE004C02197FE0126
:201C40000E940D32C03FD107C9F70E94C9230C943D350C94000090E0FC01E25AFC4E249124
:201C6000FC01E553F44E3491FC01E954F44EE491EE23C9F0222339F0233001F1A8F42130CD
:201C800019F1223029F1F0E0EE0FFF1FE355F44EA591B4918FB7F894EC91611126C0309582
:201CA0003E233C938FBF08952730A9F02830C9F0243049F7809180008F7D03C08091800083
:201CC0008F7780938000DFCF84B58F7784BDDBCF84B58F7DFBCF8091B0008F778093B000FA
:201CE000D2CF8091B0008F7DF9CF3E2BDACFCF93DF9390E0FC01E553F44E24918954944E6D
:201D0000FC0184918823D1F090E0880F991FFC01EC5AFC4EA591B491FC01E355F44EC591B1
:201D2000D49161110EC09FB7F8948C91E22FE0958E238C932881E223E8839FBFDF91CF9162
:201D400008958FB7F894EC91E22BEC938FBFF6CF2FB7F894609140047091410480914204B4
:201D6000909143042FBF089521E0672B682B692B09F420E0622F8DE00E942B0E81E00895E2
:201D8000EF92FF920F931F93CF93DF938C017B01D0E0C0E0F701EC0FFD1F6491662361F0D2
:201DA000D801ED91FC910190F081E02DC8010995892B11F02196EECFCE01DF91CF911F9151
:201DC0000F91FF90EF900895AF92BF92CF92DF92EF92FF920F931F93CF93DF936C017B0131
:201DE0008B01040F151FEB015E01AE18BF08C017D10759F06991D601ED91FC910190F08162
:201E0000E02DC6010995892B79F7C501DF91CF911F910F91FF90EF90DF90CF90BF90AF90DC
:201E20000895FC01538D448D252F30E0842F90E0821B930B541710F0CF96089501970895F3
:201E4000FC01918D828D981761F0A28DAE0FBF2FB11D5D968C91928D9F5F9F73928F90E0E0
:201E600008958FEF9FEF0895FC01918D828D981731F0828DE80FF11D858D90E008958FEF71
:201E80009FEF0895FC01918D228D892F90E0805C9F4F821B91098F739927089582E495E0EA
:201EA0000E94420F21E0892B09F420E0822F089580E090E0892B29F00E944E0F81110C9461
:201EC00000000895FC01A48DA80FB92FB11DA35ABF4F2C91848D90E001968F739927848F15
:201EE000A689B7892C93A089B1898C91837080648C93938D848D981306C00288F389E02D89
:201F000080818F7D80830895EF92FF920F931F93CF93DF93EC0181E0888F9B8D8C8D981389
:201F20001AC0E889F989808185FF15C09FB7F894EE89FF896083E889F989808183708064EB
:201F400080839FBF81E090E0DF91CF911F910F91FF90EF900895F62E0B8D10E00F5F1F4FFC
:201F60000F731127E02E8C8D8E110CC00FB607FCFACFE889F989808185FFF5CFCE010E94D7
:201F8000620FF1CFEB8DEC0FFD2FF11DE35AFF4FF0829FB7F8940B8FEA89FB898081806210
:201FA000CFCF682F82E495E00C94840FCF93DF93EC01888D8823B9F0AA89BB89E889F9894A
:201FC0008C9185FD03C0808186FD0DC00FB607FCF7CF8C9185FFF2CF808185FFEDCFCE014E
:201FE0000E94620FE9CFDF91CF91089520914403309145032817390771F49091420380914D
:202000004303981741F0E0914203F0E0EE5FFC4F808190E008958FEF9FEF08950895EF92A7
:20202000FF920F931F93CF93DF93DC015C96ED90FC905D97E114F10479F481E090E013964A
:202040009C938E93129790E080E0DF91CF911F910F91FF90EF9008955196ED91FC91529711
:2020600050968C915097982F90950FB75E962C915E97122F127021FD6095F89420811123E7
:2020800019F1282B2083E7012197F1F728E0462F50E0308160FF1AC0382B3083E70121976B
:2020A000F1F7BA0175956795215089F7112381F08081892380830FBF5C968D919C9101978E
:2020C000F1F781E090E0C1CF2923DCCF3923E5CF9081892BEFCF20914403309145032817ED
:2020E000390761F4809143032091420390E0805C9F4F821B91098F739927089590E080E05E
:202100000895209144033091450328173907B9F49091420380914303981789F0E09142035A
:20212000F0E0EE5FFC4F80812091420330E02F5F3F4F2F7333272093420390E008958FEF95
:202140009FEF089590E080E00895282FDB01FC0191918D913FE9390F3A3108F490523FE996
:20216000380F3A3108F48052981306C08E2F821B841770F381E0089580E00895FB0180831C
:202180009183FC0181E09191992391F09C32D9F7DF0111971C92841750F4A82FB0E0AA0F9B
:2021A000BB1FA60FB71FED93FC938F5FECCF8FEF08951F93CF93DF93EB01009729F1FC01C7
:2021C0002081222309F120E030E0A90111911123E9F080ED810F8A30B8F4AAE0B0E00E9497
:2021E000A131412F110F550B405351099A01550F440B550B260F371F481F591F21153105AC
:2022000081E04807510510F380E003C03983288381E0DF91CF911F910895CF92DF92EF925A
:20222000FF920F931F93CF93DF93F0E0E0E0B0E0A0E0262F30E001E010E0790171E0E71A43
:20224000F108E617C8F4E8010E2E02C0CC0FDD1F0A94E2F7C823D923CD2B61F0E701CE1B96
:20226000DF0B680102C0CC0CDD1CCA95E2F7E601AC29BD2B3196E5CF2D5F3F4FC901959513
:20228000879595958795682F840F951FEC0130E020E040E0461788F4FD01022E02C0F6958D
:2022A000E7950A94E2F7EF70FF27E65BFE4F50815A934F5F2C5F3F4FEDCFFC011082DF91D8
:2022C000CF911F910F91FF90EF90DF90CF9008951092C2041092AB041092AA041092A9047D
:2022E00010923C0510923D0580916A0390916B038F3F980729F0019690936B0380936A03DC
:2023000081E08093BC0486E08093BB040E94A80E6093B7047093B8048093B9049093BA04DB
:2023200010920901109208010895CF93DF93382FDC01E0E02A2F231B261718F42D91E2272A
:20234000F9CFDC01A60FB11DCE2FD0E084E0D595C7958A95E1F7C65BDE4F88818C93EF70B2
:20236000F0E0E65BFE4F808111968C93119712961C9282E0860FDF91CF910895CF93DF9302
:20238000EB018093BB040E94A80E6093B7047093B8048093B9049093BA04D0930901C09349
:2023A0000801DF91CF910895DC0190912F04983048F080912E048F3F19F08F5F80932E0429
:2023C0008FEF089581E0890F80932F0487E0989FF0011124EA50FC4F8C91808311968C9176
:2023E000818362831482138216821582892F089590912F04891748F497E0899FF001112450
:20240000EA50FC4F81E09281911180E00895EF92FF920F931F93CF93DF93F82EE62ED0914F
:202420002F0406EF13E0C0E0DC1781F08C2F0E94F811882339F0F8018081F81203C081817A
:20244000E81629F0CF5F095F1F4FEECFCFEF8C2FDF91CF911F910F91FF90EF9008950F93BE
:202460001F9390E0FC01E553F44E6491FC01E954F44EE491F0E0EE0FFF1FED55F44E859158
:20248000949100E31BE120E030E0462F0E94D922611571058105910529F06F5F7F4F8F4F7B
:2024A0009F4F9F701F910F910895CF92DF92EF92FF920F931F930E94A80E009185021091E9
:2024C000860220918702309188020115110521053105B1F06B017C01C01AD10AE20AF30A3F
:2024E00097018601083C11052105310548F4809184021F910F91FF90EF90DF90CF9008956B
:202500006093850270938602809387029093880260E082E00E942B0E83E090E00197F1F79D
:2025200061E082E00E942B0E83E290E00197F1F760E082E00E942B0E84E00E942F12AB0158
:20254000BC01415051096109710981E047395D406105710508F080E080938402CACFCF92AA
:20256000DF92EF92FF920F931F930E94A80E00918A0210918B0220918C0230918D0201153C
:20258000110521053105B1F06B017C01C01AD10AE20AF30A97018601083C110521053105CC
:2025A00048F4809189021F910F91FF90EF90DF90CF90089560938A0270938B0280938C02CA
:2025C00090938D0260E08BE00E942B0E83E090E00197F1F761E08BE00E942B0E83E290E014
:2025E0000197F1F760E08BE00E942B0E8AE00E942F12AB01BC01415051096109710981E0EF
:2026000047395D406105710508F080E080938902CACFFB0101900020E9F73197AF01461BCC
:20262000570BDC01ED91FC910280F381E02D09946FE771E082E495E00C940913CF93DF939E
:20264000BC0182E495E00E94C00EEC010E9418138C0F9D1FDF91CF910895EF92FF920F9340
:202660001F93CF93DF93EC0140913C0520913D0530E010E000E05CE0E52EF12C0417C8F4BF
:20268000C901800F911FB7010E94F931FC01EE0FFF1FEC5DFA4F808191810F5F1F4F8C1771
:2026A0009D0761F7DF91CF911F910F91FF90EF9008954C30D9F4C90101966CE070E00E946B
:2026C000F93180933D058BE080933C0580913E0590913F058F3F980729F0019690933F057F
:2026E00080933E0583E69BE10E941E1320913C0580913D05820F9927991F6CE070E00E9440
:20270000F931FC01EE0FFF1FEC5DFA4FD183C0832F5F20933C05C6CFDC01822FE091220511
:202720002E2F30E095E0E99FF0011124EE52FB4FB183A0836283438384832F5F3F4F2F70BB
:2027400033272093220590912305903118F49F5F90932305CD010C942D138F929F92AF92A5
:20276000BF92EF92FF920F931F93CF93DF93CDB7DEB7A1970FB6F894DEBF0FBECDBF7C01B9
:20278000FA01CB0119A2223008F42AE08E010F5D1F4F822E912CB12CA12CBF01A5019401E4
:2027A0000E94B431F901CA016A300CF5605DD8016E938D01232B242B252B79F790E080E0E0
:2027C000109721F0BD01C7010E940913A1960FB6F894DEBF0FBECDBFDF91CF911F910F915F
:2027E000FF90EF90BF90AF909F908F900895695CDECF2AE00C94AD13482F50E070E060E03F
:202800002AE082E495E00C94AD138091AB048F3F19F08F5F8093AB0460E979E082E495E0AF
:202820000E94C00E8091AB040E94FC138FE20E94D10F83E00E94FC130E9418138091AB0423
:20284000833080F062E879E082E495E00E94C00E8091AB040E94FC138FE299E00E941E1339
:202860000C9468110895AB0170E060E02AE00C94AD13CF93DF93BC0182E495E00E943314A7
:20288000EC010E9418138C0F9D1FDF91CF91089581E08093BF0480917703909178038F3F8E
:2028A000980729F0019690937803809377036DED78E082E495E00E94C00E809177039091F5
:2028C00078030C943914CF92DF92EF92FF92CF93DF930E94A80E6B017C01D0E0C0E00E94A5
:2028E000A80E6C197D098E099F09683771058105910578F48FED95E00E946B10892B79F30D
:202900008FED95E00E948110CF3FDC0799F32196F1CF1092F2021092F1021092EE0368EE8B
:2029200070E082E495E00E94C00EBE0182E495E00E94331480EC90E0DF91CF91FF90EF90BF
:20294000DF90CF900C941E138F929F92AF92BF92CF92DF92EF92FF92CF93DF93C82F0E94A3
:20296000A80E6B017C018091F702882319F18091F3029091F402A091F502B091F602A701D3
:202980009601281B390B4A0B5B0BDA01C901883E9340A105B10570F481E495E0DF91CF91B6
:2029A000FF90EF90DF90CF90BF90AF909F908F900C941E1381E08093F702C092F302D09278
:2029C000F402E092F502F092F60260E375E082E495E00E94C00E60E275E0C13031F06FE043
:2029E00075E0C23011F064E075E082E495E00E94C00E65EF74E082E495E00E94C00E8091A7
:202A0000EF039091F003A091F103B091F203A7019601281B390B4A0B5B0BCA01B90128EE39
:202A2000822E23E0922EA12CB12CA50194010E94B431BA01A90182E495E00E94F91368EE73
:202A400074E082E495E00E94C00E8091C8040E94FC1363ED74E082E495E00E94C00E809149
:202A6000C3049091C404A091C504B091C6040097A105B10509F45BC0A7019601281B390BD0
:202A80004A0B5B0BCA01B901A50194010E94B431BA01A90182E495E00E94F91383E70E943A
:202AA000D10F60EC74E082E495E00E94C00E8091F5030E94FC136BEB74E082E495E00E946A
:202AC000C00E8091F4030E94FC138FEA94E00E941E131092C3041092C4041092C5041092CF
:202AE000C6048091F503C23049F5833038F583E08093F5031092F40381E594E00E941E133F
:202B00008091C8048230F0F18091BD0481113AC064EF71E087E0DF91CF91FF90EF90DF908F
:202B2000CF90BF90AF909F908F900C94BE116CEC74E082E495E00E94C00EB3CF9091F4035A
:202B40009E3F18F49F5F9093F403E82FF0E0ED5DFE4F20819091F403921790F2853080F6E7
:202B60008F5F8093F5031092F40361E374E082E495E00E94C00E8091F5030E94FC138DE2B7
:202B800094E0BCCF8091F503E82FF0E0EE0FFF1FE95EFE4FC081D181823009F44BC0F8F45E
:202BA000882309F441C08130E9F186EB91E00E941E1381E691E00E941E136FE371E082E478
:202BC00095E00E94C00ECE0168EE73E00E94E53182E495E00E94331483E191E054C0833080
:202BE00009F440C0843009F785E293E00E941E1386ED92E00E941E1386E792E00E941E130D
:202C000066E672E082E495E00E94C00ECE0168EE73E00E94E53182E495E00E94331483E272
:202C200092E031C00E9463141092C0046CE271E083E071CF66E174E082E495E00E94C00E8A
:202C4000CE0168EE73E00E94E53182E495E00E94331488EC93E00E941E131092C904BE0198
:202C60008AE059CF61EB73E082E495E00E94C00ECE0168EE73E00E94E53182E495E00E942B
:202C8000331485E893E00E941E131092C904BE0180E041CFCF93DF93AB01BC012AE082E4EF
:202CA00095E00E94AD13EC010E9418138C0F9D1FDF91CF910895CF92DF92EF92FF926B016F
:202CC0007C0180E8C81686E9D80688E9E806F10480F068E670E082E495E00E94C00EC7016F
:202CE000B6010E944A1680E0FF90EF90DF90CF90089569E870E082E495E00E94C00EC7018E
:202D0000B6010E944A1681E0EFCFCF93DF93D0E0C0E0009731F0BC0182E495E00E940913A9
:202D2000EC010E9418138C0F9D1FDF91CF910895AF92BF92CF92DF92EF92FF920F931F934B
:202D4000CF93DF93CDB7DEB762970FB6F894DEBF0FBECDBFDC010D900020E9F79D012150BD
:202D60003109281B390B122F4FEF420F4F3308F067C0FC01A0814A2F4B7F433449F0A43537
:202D800039F0AD3429F04FEA4A0F423008F058C0B82FFC0150E040E06FEF7FEF01910C322C
:202DA00009F4BA014F5F5F4F4117C0F38C016F3F760789F13327261B370B2330310559F50E
:202DC000FC01E60FF71F918120ED290F2A3030F08FEB890F8630F8F429EC290F328190EDE9
:202DE000930F9A3030F08FEB830F8630A0F499EC930F81E0860FF80140E03E2F3B1B3817A9
:202E000018F431914327F9CF80E1289F90011124922B941731F180916203909163038F3F6F
:202E2000980729F00196909363038093620361ED78E082E495E00E94C00EC8010E9485164B
:202E400062960FB6F894DEBF0FBECDBFDF91CF911F910F91FF90EF90DF90CF90BF90AF90A9
:202E60000895A73409F01FC146E0BE016F5F7F4FC8010E94BE10188A1F8684508B3F00F76B
:202E8000BE01615F7F4F8B819C810E94D9108823B9F21A8A198ABE016F5E7F4F8D819E810D
:202EA0000E94D910182FC12CD12C7601882389F1EF81F885309749F18081C12CD12C76016A
:202EC000882331F10191002321F180ED800F8A30E0F4BAE9CB16B9E9DB06EB06B9E1FB0641
:202EE000A0F4AAE0B0E0A70196010E94A131202F000F330B205331096901330FEE08FF087F
:202F0000C60ED71EE81EF91EDDCFC12CD12C760110E02F8538894091230582ED94E0E0E0BD
:202F20004E1759F00596DC0115976D917C912617370709F06BC0E7FF6BC0112309F478C09B
:202F4000A988BA888FEFA816B10411F008F070C080912F04A81608F06BC087E08A9DF00140
:202F60008B9DF00D1124EA50FC4F8281882309F45FC00380F481E02D309709F459C081E065
:202F8000C114D104E104F10409F480E080937203C701B6010995882309F44AC081E090E028
:202FA00002C0880F991FAA94E2F72091700330917103409172034423B1F1822B932B9093B3
:202FC00071038093700368EB78E082E495E00E94C00E69897A8982E495E00E94331462EBFB
:202FE00078E082E495E00E94C00EC701B6010E944A1620E089899A896AE070E00E94E53126
:2030000040E3480F67E48F85988973C1EF5F88CF25E0E202F0011124EE52FB4F8081918131
:203020000E942D130DCF8095909582239323C7CF61EC78E082E495E00E94C00E69897A89C2
:2030400082E495E00E943314111106C088E998E00E941E1323E0CECF89899A898F3F9105CF
:2030600009F0A0F720912F04821778F427E0289FF001299FF00D1124EA50FC4F82818823EB
:2030800021F083819481892B19F485E898E0E0CF6AE678E082E495E00E94C00EC701B6013F
:2030A0000E944A16D7CFA13551F481E0809345041092440487E298E00E941E13C1CEBE01A4
:2030C0006F5F7F4FCB018F5F954020910001309101018217930720F49093010180930001D0
:2030E00047E0C8010E94BE10C82E9FEF891709F4A7CEE981FA81008125E0D22E023551F0F7
:2031000096E0D92E043531F033E0D32E0D3411F084E0D82EA2E0AC1508F092CEBE01615FFE
:203120007F4F8B819C810E94D910882309F488CEEF84F8882091230582ED94E010E0211738
:2031400051F00596FC01359740815181E416F50691F417FF12C0CD14F9F06AE078E082E403
:2031600095E00E94C00E8F8598890E94391423E04FE36FE348CF1F5FE2CF6CE178E082E46E
:2031800095E00E94C00E8F8598890E943914B5E01B02F001112440CF043509F0ADC0ED8132
:2031A000FE81118111119FC0C080E1E4CE1671F0F4E4CF1212C010923A0410923704109249
:2031C0003604109239041092380403C081E080933A041FE30FE320E089C023E5C21619F05D
:2031E00088E5C81280C0EF81F885A984BA84DF010D900020E9F7CD0103978E179F0709F0C7
:2032000072C0618180810E940712D82EBFEF8B1709F469C0E3E5CE120AC0D5018C9180532A
:20322000823008F060C011968C9181115CC080912F0400E0D81640F4B7E0DB9EF0011124D6
:20324000EA50FC4F0081118180913A0424E0882309F44CC08D2D0E94F811E3E5CE1228C0DA
:20326000D5014C91882309F4B6CF81E090E002C0880F991FDA94E2F720913604309137045E
:20328000282B392B30933704209336042091380430913904403339F0822B932B909339043A
:2032A0008093380498CF8095909582239323F6CF882309F490CF81E090E002C0880F991F15
:2032C000DA94E2F78095909520913604309137042823392330933704209336042091380407
:2032E00030913904E2CF1FE30FE323E0412F602FC7010E948C13A4CD0D3431F481ED97E064
:203300000E941E1325E034CFED81FE81DF010D900020E9F7CD0103978E179F0731F46181AE
:2033200080810E9407128F3F71F461EC77E082E495E00E94C00E8F8598890E9439144FE359
:203340006FE323E060CE282F30E090912F0460E040E0891750F497E0929FF001939FF00D23
:203360001124EA50FC4F6081418121E030E0F90102C0EE0FFF1F8A95E2F7CF010235A1F474
:2033800020913204309133042E233923232BD1F42091340430913504E223F323822B932B25
:2033A000EF2B51F022E02FCE80959095209134043091350482239323909335048093340494
:2033C00020E021CE21E01FCEBF92CF92DF92EF92FF920F931F93CF93DF938091CE049091AF
:2033E000CF04A091D004B091D1040196A11DB11D8093CE049093CF04A093D004B093D104C2
:203400006DE57BE182E495E00E94C00E06E414E0F80101900020E9F78F0107541440B02E2E
:2034200069E773E182E495E00E94C00E96E4E92E94E0F92E6701D0E0DB1528F5F601C19103
:203440006F0180EE8C0F8F3528F48C2F0E94D10FDF5FF2CF66E773E182E495E00E94C00EEB
:20346000EC2FF0E084E0F595E7958A95E1F7E65BFE4F80810E94D10FCF70EC2FF0E0E65B84
:20348000FE4F8081E3CF62E773E182E495E00E94C00E802F0E94FC1389E20E94D10F0E9455
:2034A000181362E871E086E494E00E943E32EC01892BE1F1C090CC04D090CD04F12CE12C68
:2034C000F8E5CF16F2E0DF06E104F104E0F48091CA049091CB048F3F980729F001969093B6
:2034E000CB048093CA0460E57BE182E495E00E94C00EB701A60182E495E00E94F9138DE4D7
:203500009BE10E941E136AE370E0CE010E941C320097D9F10196DF91CF911F910F91FF9059
:20352000EF90DF90CF90BF900C94981644E050E068E871E086E494E00E943032892B09F01D
:203540004DC06DE871E086E494E00E943E32892B31F181E08093C9041092C8041092C704D6
:203560000E94A80E6093C3047093C4048093C5049093C60484EE9AE10E941E138091C2040E
:2035800068EC70E0882309F4E3C0DF91CF911F910F91FF90EF90DF90CF90BF90089564E907
:2035A00071E086E494E00E943E32892B71F31092C90489EB9AE10E941E138091C204811118
:2035C000E4CF1092C704DF91CF911F910F91FF90EF90DF90CF90BF900C94A4148091C20451
:2035E0008111C1C1C0910A01CB3008F0BCC16FE971E086E494E00E943E32892BF1F08BE64C
:203600009AE10E941E1380910A01833081F491E09093C1046CED75E0DF91CF911F910F91F1
:20362000FF90EF90DF90CF90BF900C94BE119CEF980F923008F0A9CFEDCFC23009F08AC09B
:2036400047E050E064EA71E086E494E00E943032892BA1F56BE47AE182E495E00E94C00E53
:2036600080914D04823321F17CF48133A1F086E494E0DF91CF911F910F91FF90EF90DF90F1
:20368000CF90BF900C9485168333A9F0843379F78DEE99E102C087E39AE1DF91CF911F91AF
:2036A0000F91FF90EF90DF90CF90BF900C941E138DE19AE1F2CF8BEF99E1EFCF6CE172E073
:2036C00086E494E00E943E32892B41F46CEA71E086E494E00E943E32892BD9F08091C80420
:2036E0008A3F18F48F5F8093C8041092C9041092C70465ED79E182E495E00E94C00E809144
:20370000C8040E94FC1380EA99E10E941E1380E05ACF64E172E086E494E00E942732892BC8
:2037200009F0D8C28AE499E10E941E131092C8041092C0041092C7040E94A80E6093C304E8
:203740007093C4048093C5049093C6046CE271E083E062CFCA3009F564E172E086E494E035
:203760000E942732892B89F06CEA71E086E494E00E943E32892B49F462EB71E086E494E01D
:203780000E943E32892B09F4A5C28BEF98E10E941E1364EF71E082E03FCFC33009F09AC2DD
:2037A00043E050E068EB71E086E494E00E943032892B09F48FC286E494E04AE001C0CD0197
:2037C000DC012D91222309F477C220532A30B8F734E08634930731F0FC01319720812053F5
:2037E0002A3068F3FC0130E090E020E0819150ED580F5A3030F4249F800D112420ED280F6A
:20380000F5CF911101C0322F8E3211F49F5FEDCF9330A9F6332399F281E08093C90410927B
:20382000C0041092BF041092C1048091C3049091C404A091C504B091C604892B8A2B8B2B13
:2038400051F40E94A80E6093C3047093C4048093C5049093C60465EE78E182E495E00E9454
:20386000C00E86E494E00E94851668EC70E084E0D3CE883069F564E172E086E494E00E9489
:203880002732892BB1F06CEA71E086E494E00E943E32892BB1F465ED71E086E494E00E9467
:2038A0003E32892B09F45FC01092C90488E295E14EC08AE598E10E941E136CE271E089E0A8
:2038C000ABCE8AEF97E10E941E138AEA97E1F3CF893009F747E050E066EC71E086E494E06C
:2038E0000E943032892B69F46EEC71E086E494E00E943E32892B09F448CE81E08093BE041B
:2039000044CE64E172E086E494E00E942732892B49F06CEA71E086E494E00E943E32892BED
:2039200009F4B9CF81E08093BD048DE397E10E941E138091BE04882379F081EE96E10E94A3
:203940001E138DE696E10E941E138EE196E10E941E1368EE73E01FCF80ED95E10E941E1373
:203960008EE795E1F4CF6BED71E086E494E00E943E32892B09F45CC067E971E086E494E0B4
:203980000E943E32892B09F453C08091BC048823B1F08CEC94E10E941E1386E08093BB043C
:2039A0000E94A80E6093B7047093B8048093B9049093BA041092090110920801E6CD81E026
:2039C0008093C2040E94A80E6093B3047093B4048093B5049093B6048091B204882371F0D5
:2039E0008091B0049091B1048F3F980729F001969093B1048093B0041092B2040E94A80EC0
:203A00006093AC047093AD048093AE049093AF041092AB041092450481E08093440410921A
:203A2000AA041092A9041092A8048AE994E135CEC701F7012081FFEFEF1AFF0A2032C1F3E9
:203A40002930B1F32053253028F4FC0121812C3209F40296FC0101900020E9F73197E81B9A
:203A6000F90B2E2FE80FF92FF11D222309F473C03291303219F03B7F393011F42150F5CFB8
:203A800047E067E971E0273031F0263009F063C046E061EE71E00E94A510882309F45BC094
:203AA00081E08093C2040E94A80E6093B3047093B4048093B5049093B6048091B2048823F4
:203AC00071F08091B0049091B1048F3F980729F001969093B1048093B0041092B2040E9434
:203AE000A80E6093AC047093AD048093AE049093AF041092AB041092450481E08093440426
:203B00001092AA041092A9041092BC041092A8041092C8041092C0048093C9048091C304CA
:203B20009091C404A091C504B091C604892B8A2B8B2B51F40E94A80E6093C3047093C40456
:203B40008093C5049093C604109222051092230583E794E1A2CD68EE71E086E494E00E9494
:203B60003E32892BB9F46FEE71E086E494E00E943E32892B79F466EF71E086E494E00E948F
:203B80003E32892B39F48091C20481112EC086E494E0C1CC1092C2041092AB04109245046E
:203BA00081E0809344041092AA041092A9041092BC041092A804109222051092230583E004
:203BC0008093BB040E94A80E6093B7047093B8048093B9049093BA048CE291E09093090191
:203BE000809308011092C004D0CC6DEF71E086E494E00E943E32892B79F083E294E10E9471
:203C00001E13DF91CF911F910F91FF90EF90DF90CF90BF900C94681147E050E06FE072E017
:203C200086E494E00E943032892B29F41092AA041092A904AACC49E050E067E172E086E45F
:203C400094E00E943032892BF9F41092AA041092A9048091A6049091A7048F3F980729F09F
:203C600001969093A7048093A60485EC93E10E941E13DF91CF911F910F91FF90EF90DF90CD
:203C8000CF90BF900C9405146CEA71E086E494E00E943E32892B49F46FE971E086E494E0AE
:203CA0000E943E32892B09F472CF6BE773E182E495E00E94C00EDBCC61E272E086E494E0F5
:203CC0000E942732892B31F48091BF04811102C00E94481480910A01843009F0CACD64E145
:203CE00072E086E494E00E942732892B49F06CEB71E086E494E00E943E32892B09F4CBCDCB
:203D00008FEB98E10E941E1368EC70E085E084CCCF93DF93D82F80914A0390914B03A091AB
:203D20004C03B0914D030196A11DB11D80934A0390934B03A0934C03B0934D03DA3009F097
:203D4000B2C08091F1028823A1F06DEA70E082E495E00E94C00E80E60E94FC138FE890E0C1
:203D60000E941E131092F2021092F102DF91CF9108954091F2024423C9F350E0FA01EF5680
:203D8000FD4F10821092F2028091FD02882309F476C08091EE03811131C04F5F5F4F61E996
:203DA00072E08EE893E00E94133280918F029091900290938D0380938C0381E08093EE03D2
:203DC00080915603909157038F3F980729F0019690935703809356038091FC02803430F213
:203DE00080915403909155038F3F980709F4BECF01969093550380935403B8CF6FE072E047
:203E000081E992E00E943E322091FC02892BD1F080915E0390915F038F3F980729F001967E
:203E200090935F0380935E03203460F080915A0390915B038F3F980729F0019690935B035A
:203E400080935A0380915803909159038F3F980729F001969093590380935803203408F4AF
:203E600085CF80915203909153038F3F980709F47DCF0196909353038093520377CF4F5FEF
:203E80005F4F61E972E086E494E00E94133280918F02909190029093CD048093CC04DF9177
:203EA000CF910C94E4198091AA04882309F441C080918E02E82FF0E0E15FFE4F90819D13C7
:203EC00033C08F5F873019F080938E0222C010928E021092AA041092A90480916003909156
:203EE00061038F3F980729F0019690936103809360038091FC02803460F080915C039091A0
:203F00005D038F3F980729F0019690935D0380935C03DD3009F42ACFC091F202CF3560F093
:203F200081E08093F10222CF81E0D33569F280E0CBCF10928E02EDCFC1110CC00E94A80E87
:203F40002091870330918803621B730B7093900260938F0281E08C0F8093F202EC2FF0E0D8
:203F6000EF56FD4FD08302CF8FED95E00E946B10892B39F08FED95E00E9481100E94881E35
:203F8000F3CF8091FD0580FF0FC08E7F8093FD0580916403909165038F3F980729F00196BE
:203FA000909365038093640308952F923F924F925F927F928F929F92AF92BF92CF92DF9234
:203FC000EF92FF920F931F93CF93DF931F92CDB7DEB79E012E5F3540409100015091010187
:203FE0002417350720F430930101209300017090C204711015C0E12C8E2D0F90DF91CF916A
:204000001F910F91FF90EF90DF90CF90BF90AF909F908F907F905F904F903F902F90089590
:204020009B0121503109203A310528F78B016C01E090AA04EE2009F45AC00E94A80E009165
:20404000FE021091FF022091000330910103DC01CB01801B910BA20BB30B80342FE192079D
:20406000A105B10568F5803D9740A105B105B8F08091A904811113C081E08093A90480919A
:20408000790390917A038F3F980729F0019690937A03809379038FE697E00E941E138091EA
:2040A0007B0390917C038F3F980729F0019690937C0380937B0387E197E00E941E139BCF76
:2040C0001092AA041092A90480916603909167038F3F980729F00196909367038093660316
:2040E0008BEB96E00E941E130E94681184CF81E08093FD026093FC020E94A80E8090F802CD
:204100009090F902A090FA02B090FB02681979098A099B09603571058105910518F40E940C
:20412000B41FEACF6FEA76E08FED95E00E94C00E4801FFEF8F1A9F0AB4018FED95E00E9412
:2041400033146CEA76E08FED95E00E94C00E0E94A80E1B012C01B12CA12C0E94A80E6219ED
:204160007309840995096C3271408105910508F048C08FED95E00E946B10892B71F38FED8B
:2041800095E00E948110F82E8EE3F81609F470C08F2D0E94881E8FEB8F0D8A3110F4E0E20A
:2041A000FE0EEA2DF0E0E15DFE4F8081A3948F1529F0AA24A394F2E6FF12A12CEA2DF0E0EA
:2041C000E15DFE4F8081882309F4B4C0EB2DF0E0E75DFE4F8081B3948F1529F0BB24B39493
:2041E00025E6F212B12CEB2DF0E0E75DFE4F80818111BFCF92E0F92E85E096E00E941E13F2
:2042000067C083E0F82EB12CA12C63E28FED95E00E940F10C5018F7099270F9711F40E947B
:20422000B41F8FEFA81AB80A0A151B0571F76AE08FED95E00E940F100E94B41F8091680315
:20424000909169038F3F980729F00196909369038093680369ED75E082E495E00E94C00EB1
:20426000B40182E495E00E9433148BE995E0C6CFF12C0C0D1D1D560145018C189D08F501FB
:2042800061915F018FED95E00E940F10FFE08F2299242FE08216910411F40E94B41F0A15F8
:2042A0001B0551F76AE08FED95E00E940F100E94B41F81E08093AA041092A9040E94A80E5C
:2042C0006093FE027093FF0280930003909301030E94A80E6093F8027093F9028093FA0258
:2042E0009093FB021092FD026AE875E0F11002C065E975E082E495E00E94C00EC6010E943C
:204300008516F1E0FF1649F1F11019C01092AB040E94A80E6093AC047093AD048093AE0443
:204320009093AF0410927D0310927E0310927F03E72C62CEFF24F39486E496E05FCF0E94A1
:20434000051422E0F21212C080917D038F3F09F452CE8F5F80937D034FCE80917F038F3FF1
:2043600009F449CE8F5F80937F0346CE80917E038F3F09F441CE8F5F80937E033DCE1F92E8
:204380000F920FB60F9211242F933F938F939F93AF93BF938091400490914104A091420433
:2043A000B091430430913F0423E0230F2D3758F50196A11DB11D20933F04809340049093F8
:2043C0004104A0934204B093430480913B0490913C04A0913D04B0913E040196A11DB11DCC
:2043E00080933B0490933C04A0933D04B0933E04BF91AF919F918F913F912F910F900FBE33
:204400000F901F90189526E8230F0296A11DB11DD2CF1F920F920FB60F9211242F933F931B
:204420004F935F936F937F938F939F93AF93BF93EF93FF9382E495E00E94620FFF91EF919A
:20444000BF91AF919F918F917F916F915F914F913F912F910F900FBE0F901F9018951F92F4
:204460000F920FB60F9211242F938F939F93EF93FF93E0915205F09153058081E091580566
:20448000F091590582FD1BC0908180915B058F5F8F7320915C05821741F0E0915B05F0E0F4
:2044A000EE5BFA4F958F80935B05FF91EF919F918F912F910F900FBE0F901F90189580814B
:2044C000F4CF1F920F920FB60F9211242F933F934F935F936F937F938F939F93AF93BF93C8
:2044E000EF93FF93E0914403F0914503309749F0A685B7858585968D91FF14C09C91892356
:20450000A1F4FF91EF91BF91AF919F918F917F916F915F914F913F912F910F900FBE0F909B
:204520001F9018959C91892361F7A389B4899C918589809589238C93868997890197F1F7BB
:20454000608D718DA685B785558538E020E0CB010197F1F7822F90E095958795282F4C9130
:20456000452309F02068315091F7868D81FD20958091430390E001968F73992730914203DD
:20458000381799F0A0914303B0E0AE5FBC4F2C9380934303828D938D0197F1F7A389B489F4
:2045A0008C919589892B8C93ACCF868D8160868FF1CFCF92DF92EF92FF920F931F93E82F5A
:2045C000F92F05C0015011092109310961F1908196239417B9F305C0015011092109310918
:2045E00011F1908196239413F7CFC12CD12CE12CF12C0AC08FEFC81AD80AE80AF80A0C154D
:204600001D052E053F0579F080818623841791F36C2D7D2D8E2D9F2D1F910F91FF90EF90A7
:20462000DF90CF90089560E070E080E090E01F910F91FF90EF90DF90CF90089510924505FA
:204640001092440588EE93E0A0E0B0E08093460590934705A0934805B09349052FE531E073
:20466000309343052093420525EC30E030934F0520934E0524EC30E03093510520935005B6
:2046800020EC30E0309353052093520521EC30E0309355052093540522EC30E03093570556
:2046A0002093560526EC30E0309359052093580510925B0510925C0510925D0510925E058B
:2046C0001092E2051092E1058093E3059093E405A093E505B093E60581E791E09093E00596
:2046E0008093DF051092F6051092F5051092F8051092F7051092FA051092F9051092FC0569
:204700001092FB056091FD056E7F6D7F6093FD056695617081E0682787E00E942B0E61E0F7
:2047200087E00E94770EE2EDFBE1E491E093EF05EEEBFBE1E491F0E0EE0FFF1FE355F44ED5
:20474000859194919093F1058093F00560E088E00E94770E8091FD0581FD04C061E088E030
:204760000E942B0E88E08093EB05E3EDFBE1E491E093EC05EFEBFBE1E491F0E0EE0FFF1F58
:20478000ED55F44E859194919093EE058093ED050895CF93DF93CDB7DEB7C35DD1090FB6F6
:2047A000F894DEBF0FBECDBF789484B5826084BD84B5816084BD85B5826085BD85B581603B
:2047C00085BD80916E00816080936E00109281008091810082608093810080918100816018
:2047E00080938100809180008160809380008091B10084608093B1008091B0008160809301
:20480000B00080917A00846080937A0080917A00826080937A0080917A00816080937A00F9
:2048200080917A00806880937A001092C100E0915205F091530582E08083E0914E05F091CA
:204840004F051082E0915005F091510580E1808310925A05E0915605F091570586E080835E
:20486000E0915405F0915505808180618083E0915405F0915505808188608083E091540553
:20488000F0915505808180688083E0915405F091550580818F7D808381E080933104109251
:2048A000FA051092F9051092F8051092F7051092F6051092F5058DE991E09093FC058093C5
:2048C000FB059091EB05963108F047C02DEB30E03093F6052093F5052BE931E03093F80589
:2048E0002093F7052CE231E03093FA052093F9052091680084E0983048F031E09E3008F41F
:2049000030E081E001C0880F3A95EAF7822B809368002DE630E0983050F02BE630E09E30DC
:2049200030F02CE630E0963110F030E020E03093F3052093F205292F30E0983008F06CC1A4
:2049400081E001C0880F9A95EAF78093F4058091FB059091FC050197F1F78091F90590919F
:20496000FA05892B49F1E0914403F091450315E0EF3DF10709F1309739F0A389B4899C9130
:204980008589809589238C938091FD058E7F8093FD0510924303109242038FED95E0909311
:2049A000450380934403E091F205F091F30580819091F405892B80831092BB040E94A80EE9
:2049C0006093B7047093B8048093B9049093BA0484EF91E090930901809308010E94A80E34
:2049E00060938703709388038093890390938A0381E480937C0080917A00806480937A006D
:204A000080917A0086FDFCCF4091780050917900052E000C660B770B3FB7F89480913B0416
:204A200090913C04A0913D04B0913E0426B5A89B05C02F3F19F00196A11DB11D3FBFBA2FBC
:204A4000A92F982F8827820F911DA11DB11D12E0880F991FAA1FBB1F1A95D1F78A019B01BB
:204A6000082719272A273B27481759076A077B0721F0C901B8010E94793110923A04109200
:204A8000370410923604109239041092380461E082E00E94770E60E084E00E94770E61E06C
:204AA0008BE00E94770E60E08AE00E94770E61E08DE00E94770E60E089E292E00E94D4111A
:204AC00090912F04891750F427E0829FF0011124EA50FC4F85E592E19683858360E08CE21F
:204AE00092E00E94D41190912F04891750F437E0839FF0011124EA50FC4F8FEA92E196839C
:204B0000858361E08FE292E00E94D41190912F04891750F447E0849FF0011124EA50FC4FB5
:204B200084EB9EE09483838361E082E392E00E94D41190912F04891750F457E0859FF00148
:204B40001124EA50FC4F8BE596E194838383CE0181549F4FCC53DF4F99838883C45CD04061
:204B6000FE01E654FF4FCA53DF4FF983E883C65CD0404E01F2EA8F0E911C9E012F5F3F4F1A
:204B80005901809130048111C7C081E08093300464E373E182E495E00E94C00E0E94181302
:204BA0006BE273E182E495E00E94C00EF12CE7E0EE2E80912F04F816E0F58F2D0E94F8117B
:204BC000882341F1EF9C800111240A501C4FF8018081898381818A831B82B50182E495E0AF
:204BE0000E9409138DE30E94D10F8F2D0E94F811882339F0F801858196816EE173E1892B5D
:204C000011F46DE073E182E495E00E94C00E80E20E94D10FF394CDCF9E3040F428503109E8
:204C200081E001C0880F2A95EAF78FCE2E503109F7CF0E94181361EF72E182E495E00E9453
:204C4000C00EF0902F0410E000E0F11639F0812F0E94F81181110F5F1F5FF7CF802F0E94E3
:204C6000FC1365EE72E182E495E00E94C00E80912F040E94FC1383ED92E10E941E13809178
:204C80002E048823E9F069EB72E182E495E00E94C00E2AE048E050E060E070E082E495E09F
:204CA0000E94AD136CEA72E182E495E00E94C00E80912E040E94FC1382E792E10E941E13FB
:204CC00080913104811104C086E392E10E941E136FE172E182E495E00E94C00E8091FE0587
:204CE0008111B3C087ED91E10E941E1360E571E182E495E00E94C00E63E271E182E495E0A2
:204D00000E94C00E6EE071E182E495E00E94C00E8AE091E10E941E130E94A80E2B013C01C8
:204D20008091C204882309F4B9C08091F503882339F18091B3049091B404A091B504B091D1
:204D4000B604A3019201281B390B4A0B5B0BDA01C90180339547A105B10594F067EB70E169
:204D600082E495E00E94C00E8091F5030E94FC1382EB90E10E941E131092F5031092F4034A
:204D80000E94B41F8091EE038823A9F080E6EEE8F3E0A6E4B4E001900D928A95E1F78091F3
:204DA0008C0390918D039093CD048093CC041092EE030E94E419D12CC853DF4F198218822F
:204DC000C85CD04067E0262E01E010E030902F04C0903A04D31408F0A1C28D2D0E94F8110B
:204DE000882389F1ED2CF12CCC2009F485C280913604909137040D2C02C0969587950A94A1
:204E0000E2F780FF79C280913804909139040D2C02C0969587950A94E2F780FF14C0C8017F
:204E200002C0880F991FEA94E2F7C853DF4F48815981C85CD040482B592BC853DF4F5983CE
:204E40004883C85CD040D394C1CF80FF06C064EC71E182E495E00E94C00E8091FE0581FF96
:204E600006C06AEA71E182E495E00E94C00E8091FE0582FF06C067E871E182E495E00E9402
:204E8000C00E8091FE0583FF06C06CE771E182E495E00E94C00E0E94181328CF8091F3032D
:204EA000882379F077FC0DC01092F3030E9463146CED75E081E00E94BE118BED9CE00E94D7
:204EC0001E138091F30381115BCF8091B7049091B804A091B904B091BA04B301A201481B8E
:204EE000590B6A0B7B0B8091080190910901B0E0A0E0481759076A077B0708F441CF80912F
:204F0000BB04853059F48091C904811107C082E690E10E941E1382E08093BB041091BB0459
:204F2000123091F48091C704882309F455C01092C7048091C8048A3F18F48F5F8093C80425
:204F400081E00E94A4141CCF1B3008F060C0E12FF0E0E355F84D0C940D32B827C92707280E
:204F60002F287A289B28C028032924294529692968E77FE08FED95E00E94C00E6CE67FE054
:204F800082E495E00E94C00E0E9418131092C7043EC06EE57FE08FED95E00E94C00E6DE42A
:204FA0007FE082E495E00E94C00E0E94181381E080930A014092B7045092B8046092B90421
:204FC0007092BA0480E293E090930901809308011F5F1093BB04D4CE6AE27FE08FED95E0D5
:204FE0000E94C00E63EF7EE082E495E00E94C00E0E94181381E08093C7040E94A80E6093EF
:20500000EF037093F0038093F1039093F20310930A014092B7045092B8046092B9047092FF
:20502000BA04E12FF0E0EE0FFF1FEC5CFE4F808191819093090180930801EEEFE10FE930E0
:2050400038F6F0E0EA5DF74D0C940D3267294E289928BA28DF28222943296429672968EE0E
:205060007EE08FED95E00E94C00E6AEB7EE082E495E00E94C00E0E94181383E080930A0125
:205080004092B7045092B8046092B9047092BA0484EC99E090930901809308018091C0046F
:2050A0008F5F8093C004833008F41CC18091C1041092C0041092C10481110C94B3308091D6
:2050C000BF04811102C00E9448148EEC9FE00E941E1382E08093BB0480E00E94A4148091F0
:2050E000BB04833009F04CCE68EE73E082E00E94BE1146CE6CEA7EE08FED95E00E94C00E86
:205100006BE97EE082E495E00E94C00E0E94181384E080930A014092B7045092B804609226
:20512000B9047092BA0480EB94E0909309018093080185E0D8C063E77EE08FED95E00E9492
:20514000C00E62E67EE082E495E00E94C00E0E94181385E080930A014092B7045092B80415
:205160006092B9047092BA0480E49FE190930901809308018091BC048823D9F286E0B3C073
:2051800064E57EE08FED95E00E94C00E6CE27EE082E495E00E94C00E0E94181386E08093CA
:2051A0000A014092B7045092B8046092B9047092BA0480E293E0909309018093080180911B
:2051C000A8048F5F8093A804833008F48FC06EEB7FE082E495E00E94C00E8091A8040E9416
:2051E000FC1381E89FE00E941E131092BB041092BC041092A80488EC90E0909309018093B0
:20520000080182E09ECE63E27EE08FED95E00E94C00E6CEF7DE082E495E00E94C00E0E940E
:20522000181387E080930A014092B7045092B8046092B9047092BA048CED95E09093090109
:205240008093080188E04FC06DED7DE08FED95E00E94C00E63EA7DE082E495E00E94C00EAE
:205260000E94181388E080930A014092B7045092B8046092B9047092BA048CED95E0909330
:2052800009018093080189E02EC068E97DE08FED95E00E94C00E6CE67DE082E495E00E9456
:2052A000C00E0E94181389E080930A014092B7045092B8046092B9047092BA0488E293E253
:2052C000909309018093080181E08093BD0482E00AC061E67DE08FED95E00E94C00E6FE2CE
:2052E0007DE04ECE83E08093BB044ACD83E08093BB041092C00444CD2E9CF0012F9CF00DBA
:205300001124EA50FC4F0580F681E02D309709F49ACD0995882309F496CD81CDC853DF4F5F
:2053200088819981C85CD0409093330480933204CC2009F474C0E0913604F0913704C653D6
:20534000DF4FF983E883CA5CD0408091060190910701C853DF4F48815981C85CD040841706
:205360009507C9F4209134043091350480910401909105012817390771F48091020190919B
:205380000301C653DF4FE881F981CA5CD0408E179F0709F44DC080918B03811103C081E0FF
:2053A00080938B03C0908703D0908803E0908903F0908A0340918303509184036091850346
:2053C00070918603F091C204E09182032091800330918103D301C2018C199D09AE09BF092C
:2053E000803B14E09107A105B10528F110EBC10E14E0D11EE11CF11CFF2339F0E11105C038
:205400002F3F320711F02F5F3F4F4F5F5F4F6F4F7F4F805B9440A109B109E0E0E1CF2FEF3F
:205420003FEFC653DF4F39832883CA5CD0408DCF10928B03B7CFC0928703D0928803E0920D
:205440008903F0928A03E093820330938103209380034093830350938403609385037093FB
:20546000860388539F4FAF4FBF4F89359240A105B10508F020C381E0E827FF2309F490C028
:205480008091AC049091AD04A091AE04B091AF04A3019201281B390B4A0B5B0BDA01C90184
:2054A00080319742A105B1050CF407C361EC7CE082E495E00E94C00E8091AC049091AD04B5
:2054C000A091AE04B091AF04B301A201481B590B6A0B7B0B82E495E00E94F91367E97CE0A7
:2054E00082E495E00E94C00E80917F030E94FC1369E87CE082E495E00E94C00E80917E0393
:205500000E94FC136EE77CE082E495E00E94C00E80917D030E94FC1367E67CE082E495E018
:205520000E94C00E60917B0370917C0382E495E00E94331466E57CE082E495E00E94C00E56
:205540006091790370917A0382E495E00E94331469E47CE082E495E00E94C00E6091A6040D
:205560007091A70482E495E00E9433146BE37CE082E495E00E94C00E6091770370917803DF
:2055800082E495E00E9433148AE19CE00E941E1310927D0310927E0310927F030E94681109
:2055A00080916C0390916D03A0916E03B0916F03A3019201281B390B4A0B5B0BDA01C90167
:2055C00080369A4EA105B10508F4A8C18091C2048823C9F08091870390918803A09189032D
:2055E000B0918A03A3019201281B390B4A0B5B0BDA01C901C296A11DB11D89359240A105A5
:20560000B10508F08BC140926C0350926D0360926E0370926F0366E37BE082E495E00E9405
:20562000C00EC301B20128EE33E040E050E00E94B431BA01A90182E495E00E94F9136FE2E6
:205640007BE082E495E00E94C00E60916A0370916B0382E495E00E94331466E27BE082E40A
:2056600095E00E94C00E609177037091780382E495E00E9433146EE17BE082E495E00E9473
:20568000C00E70E060E082E495E00E9433148FE20E94D10F6091B0047091B10482E495E0BF
:2056A0000E94331465E17BE082E495E00E94C00E609168037091690382E495E00E94331488
:2056C0006AE07BE082E495E00E94C00E6091A6047091A70482E495E00E94331463E07BE031
:2056E00082E495E00E94C00E6091790370917A0382E495E00E9433146BEF7AE082E495E021
:205700000E94C00E609166037091670382E495E00E94331464EF7AE082E495E00E94C00E98
:2057200080913C050E94FC136AEE7AE082E495E00E94C00E60913E0570913F0582E495E015
:205740000E9433146FED7AE082E495E00E94C00E609140057091410582E495E00E9433141E
:2057600068ED7AE082E495E00E94C00E4091830350918403609185037091860382E495E092
:205780000E94F91362ED7AE082E495E00E94C00E6091CA047091CB0482E495E00E94331414
:2057A0006AEC7AE082E495E00E94C00E609180037091810382E495E00E94331462EC7AE089
:2057C00082E495E00E94C00E609164037091650382E495E00E94331468EB7AE082E495E071
:2057E0000E94C00E609162037091630382E495E00E9433142090600330906103E0905E03B0
:20580000F0905F03C0905C03D0905D0300915A0310915B036DEA7AE082E495E00E94C00E4E
:20582000B10182E495E00E94331462EA7AE082E495E00E94C00E609158037091590382E4F2
:2058400095E00E94331467E97AE082E495E00E94C00E609156037091570382E495E00E94D3
:2058600033146DE87AE082E495E00E94C00E609154037091550382E495E00E94331463E837
:205880007AE082E495E00E94C00E609152037091530382E495E00E94331469E77AE082E4F2
:2058A00095E00E94C00EB60182E495E00E94331460E77AE082E495E00E94C00EB70182E47E
:2058C00095E00E94331464E67AE082E495E00E94C00EB80182E495E00E9433146DE57AE052
:2058E00082E495E00E94C00E60917B0370917C0382E495E00E94331464E57AE082E495E02C
:205900000E94C00E4091C20450E070E060E02AE082E495E00E94AD130E9418138091C204D5
:2059200081117FC080914E0390914F03A0915003B0915103A3019201281B390B4A0B5B0B2F
:20594000DA01C901883B9B40A105B10508F469C040924E0350924F03609250037092510391
:205960006FE37AE082E495E00E94C00E8091BB040E94FC1363E37AE082E495E00E94C00EC4
:205980008091F5030E94FC138FE20E94D10F8091F4030E94FC138091F303882331F06DE180
:2059A0007AE082E495E00E94C00E68E17AE082E495E00E94C00E40914A0350914B03609116
:2059C0004C0370914D0382E495E00E94F91360E17AE082E495E00E94C00E4091CE04509134
:2059E000CF046091D0047091D10482E495E00E94F9136BE07AE082E495E00E94C00EC301FC
:205A0000B20128EE33E040E050E00E94B431BA01A90182E495E00E94F91389E09AE00E9460
:205A20001E138091460390914703A0914803B0914903A3019201281B390B4A0B5B0BDA0113
:205A4000C90180369A4EA105B10540F14092460350924703609248037092490364EF79E0D3
:205A600082E495E00E94C00E609100017091010182E495E00E94331466ED79E082E495E09B
:205A80000E94C00E609168037091690382E495E00E94331485EA99E00E941E1380E090E07E
:205AA000892B09F46EC80E944E0F882309F469C80E94000062C8E0E0E0CCEE2309F470CDA4
:205AC0004091340450913504C253DF4F59834883CE5CD0400E94A80E9B01AC012C193D0953
:205AE0004E095F09C053DF4F288339834A835B83C05DD040F0904504FF2009F48BC11F9285
:205B00003F921F9287E08F9385E392E09F938F931F9281EA8F93BF92AF920E9458320FB68B
:205B2000F894DEBF0FBECDBF181619060CF0CBC09C012D5F3F4F223A310508F0C4C0682FB3
:205B4000C5010E949511F50101900020E9F731978F010A191B0956EFC52E53E0D52E212C56
:205B6000321409F4ACC080912F0490E0281610F4F6019081C154DF4F9883CF5BD0402816A2
:205B800008F099C0F6018181C054DF4F8883C05CD040CF53DF4F1882C15CD040F601828131
:205BA0009FE4811101C099E4C654DF4F9883CA5BD040882309F481C087E4C554DF4F888354
:205BC000CB5BD040C454DF4F1882CC5BD040C354DF4F1882CD5BD040C953DF4FF881C75C7B
:205BE000D040FF93CA53DF4F2881C65CD0402F93CB53DF4F3881C55CD0403F93CC53DF4FC6
:205C00004881C45CD0404F9380E492E09F938F931F92F8E1FF939F928F920E9458320FB620
:205C2000F894DEBF0FBECDBF181619060CF04BC09C012D5F3F4F2931310508F044C0682FB4
:205C4000C4010E949511F40101900020E9F731977F01E818F90837E0C30ED11CC801805AF0
:205C600091098E0D9F1D8F359F4F68F1C8010196C453DF4F99838883CC5CD040F501E00F3F
:205C8000F11F9AE09083A7014F5F5F4FB401C453DF4F88819981CC5CD0408A0D9B1D0E941D
:205CA0001332C453DF4F08811981CC5CD0400E0D1F1D239455CF80E067CF80E57ECF01156F
:205CC000110509F07AC08EE99BE00E941E1310E000E0D12CF12C81E08093820360E17CE036
:205CE00082E495E00E94C00E4091830350918403609185037091860382E495E00E94F9130E
:205D00006BE07CE082E495E00E94C00EB80182E495E00E94331465E07CE082E495E00E94F6
:205D2000C00E8D2D0E94FC136FEF7BE082E495E00E94C00EC053DF4F488159816A817B815B
:205D4000C05DD04082E495E00E94F9138AEF9BE0F11002C085EF9BE00E941E130E94A80EBC
:205D6000FF2009F41DCC809175039091760301969093760380937503C853DF4F2881398191
:205D8000C85CD0403093070120930601C253DF4F48815981CE5CD040509305014093040169
:205DA000C653DF4F88819981CA5CD040909303018093020110928B03F3CBB801C5010E94F7
:205DC000D51FF82E882309F4D4C11092450480917303909174038F3F980729F00196909322
:205DE00074038093730360E97BE082E495E00E94C00E66E87BE082E495E00E94C00EB80107
:205E000082E495E00E9433148EE89BE00E941E13D12C61CF2091320430913304809170036A
:205E200090917103AE0141545F4F632D822B932B0E940D11AE0146545F4F632D8091340450
:205E4000909135040E940D11109175030091760380913A04882309F44AC0A401632D8091BE
:205E60003604909137040E940D110E94A80E9F928F9229E432E03F932F9328EE33E040E026
:205E800050E00E94B4315F934F933F932F93C953DF4FF881C75CD040FF93CA53DF4F288167
:205EA000C65CD0402F93CB53DF4F3881C55CD0403F93CC53DF4F4881C45CD0404F930F931C
:205EC0001F938CE492E09F938F931F9280E48F93BF92AF920E9458320FB6F894DEBF0FBE2A
:205EE000CDBF18161906CCF110E000E091CF0E94A80E29E432E03F932F9328EE33E040E088
:205F000050E00E94B4315F934F933F932F93C953DF4FF881C75CD040FF93CA53DF4F2881E6
:205F2000C65CD0402F93CB53DF4F3881C55CD0403F93CC53DF4F4881C45CD0404F930F939B
:205F40001F9382E692E09F938F931F9280E48F93BF92AF920E945832BFCF9C012D5F3F4F27
:205F60002134310508F6682FC5010E949511F50101900020E9F731978F010A191B090023AA
:205F800009F4B2CF11274CE0E42EF12CD0903C05DD2009F449C080913D0590E0FC01EE0F8F
:205FA000FF1FEC5DFA4F40815181B091230522ED34E0A0E0BA1709F45FC02B5F3F4FF90193
:205FC0003597608171814617570709F053C0A7FD53C0D12C9CE0292E312C28E1C22E80916D
:205FE0003C05D81608F580913D058D0D9927991FB1010E94F931FC01EE0FFF1FEC5DFA4FE8
:20600000408151813091230582ED94E020E0321759F00596FC01359760817181461757079D
:2060200009F044C027FF44C0B801C5010E94D51FF82E882309F44FCEDD2081F080913D0578
:206040008D0D9927991F6CE070E00E94F93180933D0580913C058D1980933C0580914404CC
:20606000882329F01092440481E080934504FF24F39431CEAF5F9ECF0196B7010E94F93176
:2060800080933D05DA94D0923C0580914005909141058F3F980729F0019690934105809344
:2060A000400580E49BE00E941E1370CF2F5FAFCF35E02303F0011124EE52FB4F84811F92FD
:2060C0008F938381282F082E000C330B3F938F938281282F082E000C330B3F938F938181FF
:2060E0008F9380818F9345E752E05F934F931F92CF929F928F920E9458320FB6F894DEBFAB
:206100000FBECDBF181619060CF08ECF9C012D5F3F4F2931310508F087CF682FC4010E94ED
:206120009511F40101900020E9F73197AF01481959095527C80101967A01E80EF91EF1EAB9
:20614000EF16F10408F070CFF501E00FF11F1AE010834F5F5F4FB4018A0D9B1D0E94133245
:20616000D39487013CCF8BE090E10E941E130C94652860E97BE082E495E00E94C00E6EE705
:206180007BE039CE81E791E09093E0058093DF0580914403909145038F5D954071F4E0916D
:2061A000F205F091F30590818091F405809589238083109245031092440308958F929F92CE
:2061C000AF92BF92CF92DF92EF92FF92CF93DF93EC01688179818A819B816115710581050C
:2061E000910521F464E279ED8BE597E02DE133EF41E050E00E94823149015A019B01AC019D
:20620000A7EAB1E40E94A1316B017C01ACEEB4EFA50194010E94AF31C60ED71EE81EF91E1B
:20622000F7FE06C081E0C81AD108E10880E8F80AC882D982EA82FB82C701B6019F77DF91A1
:20624000CF91FF90EF90DF90CF90BF90AF909F908F9008958F929F92AF92BF92CF92DF92D3
:20626000EF92FF9260910B0170910C0180910D0190910E01611571058105910521F464E24F
:2062800079ED8BE597E02DE133EF41E050E00E94823149015A019B01AC01A7EAB1E40E9425
:2062A000A1316B017C01ACEEB4EFA50194010E94AF31C60ED71EE81EF91EF7FE06C081E027
:2062C000C81AD108E10880E8F80AC0920B01D0920C01E0920D01F0920E01C701B6019F773D
:2062E000FF90EF90DF90CF90BF90AF909F908F90089560930B0170930C0180930D019093F6
:206300000E010895052E97FB1EF400940E94993157FD07D00E94B43107FC03D04EF40C9490
:20632000993150954095309521953F4F4F4F5F4F089590958095709561957F4F8F4F9F4F18
:2063400008950E94D631A59F900DB49F900DA49F800D911D11240895B7FF0C94A1310E940C
:20636000A131821B930B0895A1E21A2EAA1BBB1BFD010DC0AA1FBB1FEE1FFF1FA217B30701
:20638000E407F50720F0A21BB30BE40BF50B661F771F881F991F1A9469F760957095809505
:2063A00090959B01AC01BD01CF010895A29FB001B39FC001A39F700D811D1124911DB29FAE
:2063C000700D811D1124911D0895AA1BBB1B51E107C0AA1FBB1FA617B70710F0A61BB70BED
:2063E000881F991F5A95A9F780959095BC01CD01089597FB072E16F4009407D077FD09D0C4
:206400000E94E53107FC05D03EF4909581959F4F0895709561957F4F0895EE0FFF1F0590DE
:20642000F491E02D0994FB01DC0102C001900D9241505040D8F70895FC018191861721F018
:206440008823D9F7992708953197CF010895FB01DC018D91019080190110D9F3990B0895F0
:20646000FB01DC014150504030F08D910190801919F40020B9F7881B990B0895FB0151911B
:206480005523A9F0BF01DC014D9145174111E1F759F4CD010190002049F04D914015411160
:2064A000C9F3FB014111EFCF81E090E001970895AEE0B0E0EEE5F2E30C9414350D891E8922
:2064C0008F89988D26E02C831A83098397FF02C080E090E801979E838D83AE01455E5F4FA8
:2064E000698D7A8DCE0101960E9488324D815E8157FD0AC02F813885421753070CF49A0157
:20650000020F131FF80110822E96E4E00C943035ABE0B0E0EEE8F2E30C9406357C013B01C6
:206520008A01FC0117821682838181FFC8C1CE0101965C01F7019381F30193FD859193FF9A
:2065400081913F01882309F453C1853239F493FD859193FF81913F01853229F4B70190E0C3
:206560000E947834E7CF912C212C312CFFE1F31538F08B3211F190F4803209F1833229F1E2
:2065800037FC3CC020ED280F2A3050F536FE20C08AE0989E200D1124922E06C08D3291F00D
:2065A000803371F7689430F8F30193FD859193FF81913F018111DACF21C0689431F86894E1
:2065C00032F8F2CF689433F8EFCF689434F8ECCFEAE02E9E200D1124222E689435F8E4CFE4
:2065E0008E3229F436FC04C1689436F8DDCF8C3619F4689437F8D8CF8836B1F2982F9F7D0C
:2066000095549330E0F08336A1F18337C1F1833509F063C02801F2E04F0E511CF801C08075
:20662000D180692D70E036FC02C06FEF7FEFC6010E9462344C01689437F882010AC00C5F34
:206640001F4FFFE3F98388248394912C6501E89437F833FE2DC0522C8114910471F555203C
:2066600009F468CFB70180E290E00E9478345A94F6CFF801808189830E5F1F4FE4CF28019E
:20668000F2E04F0E511CF801C080D180692D70E036FC02C06FEF7FEFC6010E946D344C01D7
:2066A0008201D5CFB70180E290E00E9478342A942814190409F0B0F7CECFF60137FC859147
:2066C00037FE81916F01B70190E00E94783451105A94F1E08F1A9108BFCF843619F089361B
:2066E00009F077C0F80137FE6BC060817181828193810C5F1F4FF32DFF763F2E97FF09C0ED
:2067000090958095709561957F4F8F4F9F4F689437F82AE030E0A5010E94A834C82ECA1869
:206720008C2C432C36FE0CC0E89440F8C91440F434FE05C032FC03C0F32DFE7E4F2E892CB7
:2067400044FE95C0FE01EC0DF11D8081803309F087C0242D297E422E842D8870582E43FCD2
:2067600095C040FE8FC09C2C821418F42C0C922C981844FE91C0B70180E390E00E947834BB
:2067800042FE09C088E790E041FE02C088E590E0B7010E947834C91408F48AC0CA94D12CAF
:2067A0009FEFC91AD90ACA0CDB1CF60182916F01B70190E00E947834AC14BD04B1F74FCF81
:2067C00060817181072E000C880B990B0E5F1F4F92CFD32CE894D4F82AE030E0853739F1EB
:2067E000232D297FD22E8F3601F148F48835A9F0F701868197812B96E2E10C94223580370F
:2068000049F08837A9F7D4FE02C06894D2F820E130E00DC06894D4F8F6CF34FE03C0822F75
:206820008660D82E20E132E002C028E030E0F801D7FE0FC060817181828193810C5F1F4F1F
:20684000A5010E94A834C82ECA183D2CE89437F867CF6081718190E080E00E5F1F4FF0CFB5
:2068600042FC02C0839478CF8394839475CF842D867809F471CFF6CFB70180E290E00E946B
:20688000783483948214C0F3512C73CF522C5818821408F46ECFF8CF842D867809F47BCFB3
:2068A0008BE241FE80E247FC8DE2B70190E071CFB70180E390E00E9478349A946CCF8FEFF0
:2068C0009FEF99CFFC010590615070400110D8F7809590958E0F9F1F0895FC01615070405F
:2068E00001900110D8F7809590958E0F9F1F08950F931F93CF93DF93182F092FEB018B8156
:2069000081FD09C01FEF0FEF812F902FDF91CF911F910F91089582FF14C02E813F818C8127
:206920009D81281739073CF4E881F981CF0101969983888310838E819F8101969F838E838D
