:200000000C948E0D0C94C50D0C94C50D0C94F2200C94F2200C94F2200C94C50D0C94C50DC7
:200020000C94C50D0C94C50D0C94C50D0C94C50D0C94C50D0C94C50D0C94C50D0C94C50D30
:200040000C9450200C94C50D0C94C0200C949A200C94C50D0C94C50D0C94C50D0C94C50D7C
:200060000C94C50D0C94C50DEBB094EC9DB4ED8AB8EBA5BC20EB8498EC96B420EBB284EB2C
:20008000A0B8EB8BA4005B44524F502D4F56465D20ECA484EC9DB42000EBB094EC9DB4EDFF
:2000A0008AB820EBB284EBA6BC202B20ECA48420ECA1B0EBA6BD20ECB488EAB8B0ED999492
:2000C000005B4C41444445525D2031EB8BA820ECA1B0ECB9983A20EC8B9CEBA6ACEC96BCCB
:2000E00020EB939CEBA088EC9DB82000ECB48820EBB0B1EC98A4ED9484EBA19C20EB909836
:20010000ED9280EC9DB4ED959CEB8BA428ECA285ECB0A9EC97AD29005B4C41444445525D2E
:20012000202020EB8C80EC8BA02034EB8BA820ECA1B0ECB998EBA5BC20005B4C4144444524
:20014000525D202020ED9584EC9A9420EBB680ED92883A20EBA19CEC9AB0EC82ACEC9DB419
:20016000EB939C204D4F5346455420EC8AA4EC9C84ECB99828EC98883A20324E373030301F
:200180002F414F33343030202B2031306B29005B4C41444445525D20E29AA035EB8BA82066
:2001A000EBAFB8EC8BA4ED96893A20ECA084EC9B9020EC9EACED88ACEC9E85EC9D80202A6C
:2001C0002AEBB680ED928820EBAFB8EBB3B4EC9CA0EBA19C20EBAFB8EAB5ACED98842A2A9F
:2001E000EC9DB4EB8BA428EBB0B0ECA09CEAB08020EC9584EB8B88EB8BA42900ECB4882045
:20020000EC89ACEAB3A02041542B52535420EBA5BC20EB9098ED9280EC9DB4ED959CEB8B38
:20022000A42028EC9DB4EAB283EC9DB420ECA095EC838120EAB2BDEBA19CEB8BA429005BC9
:200240004C41444445525D202020E2869220005B4C41444445525D202020EC9CA0EC9DBCEA
:20026000ED9598EAB28C20ED9280EBA6ACEB8A9420ED8E8CEC9BA8EC96B42068616E67206D
:20028000EC9D8020EC86A1EC8898EC8BA020EBA19CECA78120EC9EACEC84A4EAB384EBA18C
:2002A0009C20ECA09CEAB1B0ED9688EB8BA4005B4C41444445525D202020ECA084EC9B90FF
:2002C000C2B7454EC2B75253542D4C4F5720EC8381ED839CEBA9B42052535420ED9580ECF6
:2002E0009D8420ED9D94EB93A4EC96B4EB8F8420EB8F99EC9DBCED9598EAB3A02C005B4CA7
:2003000041444445525D2034EB8BA820EAB1B4EB8488EB9C803A20ED9598EB939CEC9BA884
:20032000EC96B420EBA6ACEC858BEC9D80202A2AEC84A4EAB384EC838120EBB0B0ECA09CF9
:200340002A2AEB8BA428EBAFB8EBB0B0EC84A0EC9DB420EC9584EB8B88EB8BA42900ECB417
:200360008820EC89ACEAB3A02041542B5253542028EBAAA8EB938820EC868CED9484ED8A79
:20038000B820EBA6ACEC858B29005B4C41444445525D2033EB8BA820ECA1B0ECB9983A205A
:2003A00000ECB48820EC89ACEAB3A02041542B435751415020EBA19C20EAB2B0ED95A9EC70
:2003C0009D8420EBAA85EC8B9CECA081EC9CBCEBA19C20EB818AEC9D8020EB92A420EB8B40
:2003E000A4EC8B9C20EBB699EB8A94EB8BA4005B4C41444445525D2032EB8BA820ECA1B098
:20040000ECB9983A2000EB8BA8005B4C41444445525D20E28691E2869120EB8BA820EC83E4
:2004200081EC8AB920E2869220005B4C41444445525D20E286912033EB8BA82841542B52AA
:2004400053542920ECA781ED968920E2809420415420EAB384ECB8B5EC9DB420EC9EA0EAB6
:20046000B2BCEC9CBCEBA9B420EC9584EB9E9820EB8BA8EC9D8020EC9D98EBAFB8EAB08048
:2004800020EC9786EB8BA400ED9A8C20EB8884ECA0812900EB8BA8280020C2B720ED9884B1
:2004A000EC9EAC2000EC9786EC9D8C00ED9A8C20C2B720EAB2B0ED95A9EC9CA0ECA780202A
:2004C000007320C2B720EC97B0EC868D2000292043574A4150EC868CEC9A94200043574AC4
:2004E0004150204641494C00415420EAB384ECB8B520EC9EA0EAB9800043574A415020EB13
:20050000ACB4EC9D91EB8BB5005B4C41444445525D20EC8BA4ED8CA828005B4C4144444599
:20052000525D2031ECB48820EC9588EC979020EB93A4EC96B4EC98A820ECA491EBB3B520FF
:20054000EC8BA4ED8CA820EC8BA0ED98B820E2809420EC84B8ECA78020EC958AEB8A94EB5B
:200560008BA4005B54582D44524F505D20005B54585D2000EBB094EC9DB4ED8AB8EBA19C1F
:2005800020EC8AA4ED8AB8EBA6BC20EBB3B5EAB5AC28EC849CEBB284EB8A9420EC9DB4200C
:2005A000ECA484EC9D8420EBB284EBA6B0EB8BA429005B54582D524553594E435D20ED944F
:2005C00084EBA1ACED9484ED8AB820EB8693ECB9A820E2869220EB8D94EBAFB820005B5453
:2005E000582D52454A4543545D2043495053454E4420EAB1B0EBB680284552524F522920AF
:20060000E2809420EB8D94EBAFB8EBA5BC20EB84A3ECA78020EC958AEB8A94EB8BA4005B2C
:2006200054582D425553595D2045535020EAB08020EBB094EC8198EB8BA428EAB1B0EBB67D
:20064000802920E2809420EC8BA4ED8CA8EBA19C20EC84B8ECA78020EC958AEB8A94EB8B52
:20066000A42E20EB8BA4EC9D8C20ECA3BCEAB8B0EC979020EB8BA4EC8B9C20EBB3B4EB825D
:20068000B8EB8BA4000D0A0041542B43495053454E443D005B54582D574149545D20E2980E
:2006A00085E2988520543220ECB488EAB3BC20E280942053454E44204F4B20EAB08020EB10
:2006C000819DEB82B420EC958820EC98A8EB8BA420E2869220EBA781ED81ACEBA5BC20EB8E
:2006E0008BA4EC8B9C20EC84B8EC9AB4EB8BA4005B54582D574149545D20EC959E20ECA06B
:2007000084EC86A1EC9D982053454E44204F4B20EBA5BC20EC9584ECA78120EBAABB20EBFD
:20072000B4A4EB8BA420E2809420EC9DB4EBB28820ECA3BCEAB8B0EB8A9420EAB1B4EB840B
:2007400088EB9BB4EB8BA4005B54582D574149545D20E2988520543120ECB488EAB3BC2072
:20076000E2809420EAB7B8EB9E98EB8F8420EAB384EC868D20EAB8B0EB8BA4EBA6B0EB8B68
:20078000A428EB9190EB93A4EAB8B0ECA78020EC958AEB8A94EB8BA429005B4241442053EE
:2007A0004C4F545D207269643D0020E28692206F636375706965643D005B53494D5D20EDE0
:2007C000959C20EAB1B8EC9D8C3A20005B53494D5D20EBB094EABF8020EC8B9CEBAEAC2055
:2007E000ECB9B8EC9DB420EC9786EB8BA420E2869220726573756C743D35005B424144208F
:200800004649454C44535D207269643D005B445550207269645D20005B5245475D205120E1
:20082000EC8898EC8BA020E2809420EB8BA4EC9D8C20EC86A1EC8BA020ECB0BDEC9790203A
:20084000EB93B1EBA19DEC9D8420EB8BA4EC8B9C20EBB3B4EB82B8EB8BA400206F703D00F9
:200860005B475D206964783D005B475D20EAB1B0ECA088206964783D005B434B53554D20B9
:200880004E475D20005B4E45545D20E298852045535020EAB08020495020EBA5BC20EC9E77
:2008A00083EC9788EB8BA420E2809420EBAAA8EB938820EBA6ACEC858BEC9CBCEBA19C2032
:2008C000EBB3B8EB8BA42E20EB8884ECA08120EC82ACEAB1B42000ED9A8C20EC97B0EC86D5
:2008E0008D20EC8BA4ED8CA820E2869220EC98A4ED9484EB9DBCEC9DB820ECA084ED9998D5
:200900002E20EB82A1EC9D8020EC868CECBC93EBB680ED84B020EB8BABEB8A94EB8BA4284B
:20092000434950434C4F534529005B4E45545D20ECA084EC86A120005B4E45545D20ECA0EF
:2009400084EC86A120EC8BA4ED8CA82000EB81940020C2B72036EB8BA828EC9B8CECB998FF
:20096000EB8F85292000EBAFB8EBB0B0EC84A020E2809420413220EBA5BC204553502052F3
:20098000535420EC979020EBACBCEBA6ACEAB3A0204553505F5253545F57495245443D31E8
:2009A000005B424F4F545D20EC82ACEB8BA4EBA6AC2034EB8BA82845535020ED9598EB9380
:2009C0009CEBA6ACEC858BEC84A0292000EC9B8CECB998EB8F8520002A2AEBB88CEB9DBCB3
:2009E000EC9AB4EC9584EC9B8328ECA084EC9B90EBB680ECA1B1292A2A2000EC99B8EBB685
:200A000080EBA6ACEC858B28EBB284ED8ABC2F445452292000ECA084EC9B90EC9DB8EAB03D
:200A20008028504F52292000EBB688EBAA852028EBB680ED8AB8EBA19CEB8D94EAB080208B
:200A40004D4355535220EC9D8420ECA780EC9AB0EAB3A020EB8498EC96B4EC9994EB8BA4A9
:200A600029005B424F4F545D20EBA6ACEC858B20EC9B90EC9DB83A2000206D6F64756C6590
:200A800073202F206465763D50310020736C6F7473202F20000A5B5041524B494E47204ED4
:200AA0004F44455D2070726F746F207631202F20005B4C41444445525D2034EB8BA83A2047
:200AC00045535020EBA6ACEC858B20ED95B4ECA09C20E2809420EBB680ED8C85EC9D8420D5
:200AE000EAB8B0EB8BA4EBA0B8EB8BA4EAB0802043574D4F444520EBB680ED84B020EB8B3C
:200B0000A4EC8B9C005B4E45545D2031302043575141502028EAB2B0ED95A920ED95B4EC61
:200B2000A09C20E2809420EC82ACEB8BA4EBA6AC2032EB8BA8290041542B43575141500DF0
:200B40000A005B4E45545D20392043574C41502028ECA3BCEBB38020415020EBAAA9EBA1B0
:200B60009D20E2809420ECA784EB8BA8290041542B43574C41500D0A005B4E45545D2038FF
:200B8000204357434F554E5452592028ECB184EB84902031322F313320EC9AB0ED9A8C2060
:200BA000EC8B9CEB8F8420E2809420ECA784EB8BA8290041542B4357434F554E5452595FA3
:200BC0004445463D302C224B52222C312C31330D0A005B4E45545D203720474D522028ED97
:200BE0008E8CEC9BA8EC96B420ED8C9020E2809420ECA784EB8BA8290041542B474D520D06
:200C00000A005B4E45545D203620434950434C4F53452028EB82A1EC9D8020EC868CECBC3E
:200C20009320EB8BABEAB8B0290041542B434950434C4F53450D0A005B4E45545D20352028
:200C400043495053544152540041542B43495053544152543D22544350222C223139322E80
:200C60003136382E33352E3231222C393939310D0A005B4E45545D2034204349504D555884
:200C80003D300041542B4349504D55583D300D0A005B4E45545D20332043494653522028FC
:200CA000495020EBA5BC20EC8BA4ECA09CEBA19C20EBB09BEC9598EB8A94EAB080290041A8
:200CC000542B43494653520D0A005B4E45545D20322043574A41502028EC9D91EB8BB5EA0A
:200CE000B98CECA78020ECB59CEB8C80203330ECB48820EAB8B0EB8BA4EBA6B0EB8BA4298D
:200D00000041542B43574A41503D22534B5F5769466947494741353044435F322E34472273
:200D20002C2232303131303530373936220D0A005B4E45545D20312043574D4F44453D31F0
:200D40000041542B43574D4F44453D310D0A005B4E45545D2030205253540041542B525322
:200D6000540D0A00ED9A8C20EC8BA4ED8CA820E286922041542B52535420EBA19C20ECA0B2
:200D800084ECB2B420ECB488EAB8B0ED999428EC82ACEB8BA4EBA6AC20EC8381EC8AB929C8
:200DA000005B4E45545D20434950434C4F534520005B4E45545D2043494653522033ED9AF2
:200DC0008CEC9790EB8F8420495020EAB08020EC9786EB8BA420E286922043574A41502071
:200DE000EBB680ED84B020EB8BA4EC8B9C005B4E45545D2043494653522033ED9A8C20ECBC
:200E0000868CECA78420E2809420EAB7B8EB9FACEB8298206275737920EAB1B0EBB680EC84
:200E20009880EB8BA42E20495020EC868CEC8BA4EBA19C20EC84B8ECA78020EC958AEB8A3D
:200E400094EB8BA4005B4E45545D20495020EAB08020EC9786EB8BA420E2869220434950F9
:200E6000535441525420EBA5BC20EBB3B4EB82B4ECA78020EC958AEAB3A02043574A4150D5
:200E800020EBA19C20EB9098EB8F8CEC9584EAB084EB8BA400EB8BA829005B4C4144444598
:200EA000525D20E28693203330ECB48820EC97B0EC868D20EC98A8EB9DBCEC9DB820E28018
:200EC0009420EC82ACEB8BA4EBA6ACEBA5BC2030EB8BA8EC9CBCEBA19C20EB82B4EBA6B045
:200EE000EB8BA42028ECA781ECA08420000203040506090A0B0C0E413100495000000241B2
:200F0000320049500000034133004950000004413400495000000541350049500000064288
:200F200031004950000009423200495000000A423300495000000B423400495000000C4251
:200F40003500495000000E4531004F420000FF5831004F420000FF5B41434B515D20ECBAF8
:200F600090EC8B9CEC9790EC849C20EBB080EBA0A4EB829820EBA78CEB93A420EC88982094
:200F8000EC9786EB8BA420E2809420EBB284EBA6B0EB8BA400EC8BA4ED8CA82000ECA08410
:200FA000EC86A1200042005B5245475D20EB93B1EBA19D20005B5245475D20EB93B1EBA11D
:200FC0009D20EBB0B0ECB998EBA5BC20EBA78CEB93A4ECA78020EBAABBED9688EB8BA42058
:200FE000E2809420EC9E98EBA6B020EB93B1EBA19DEC9D8420EB82B4EBB3B4EB82B4ECA7AC
:201000008020EC958AEB8A94EB8BA40020723D300020723D3100206475653D002061636B19
:201020003D002074783D005B534C4F545D206E3D005D20E2869220EBA781ED81ACEBA5BC55
:2010400020EB8BA4EC8B9C20EC84B8EC9AB4EB8BA400202F20455350EBA6ACEC858B2000F7
:20106000202F2053454E444641494C2000202F2053454E444F4BEC8381ED959C20002920F1
:20108000C2B720EB8884ECA0815BEAB1B4EB8488EB9C802000202F20EAB1B0EBB6802000F0
:2010A000202F20EBACB4EC9D91EB8BB520006D7320EB8F99EC958820ED959C20ECA484EB98
:2010C0008F8420EBAABB20EB8298EAB094EB8BA420286275737920005B4E45545D20E298BC
:2010E0008520ECA095ECA78020EAB090ECA7803A2000206F6E6C696E653D0020736B6970A7
:201100003D00206269676F6B6C6F73743D00206F6B6C6F73743D00206269676F6B73743D1E
:20112000002062696764726F703D002062696766696C6C3D002070656E6466696C6C3D008A
:201140002070656E6464726F703D00206F6B73747265616D3D0020636B73756D6E673D00BE
:201160002073736F76663D0020736D6973733D00206F6F773D0020736C6F743D00206163A0
:201180006B7374616C653D002061636B64726F703D002061636B713D0020737475636B3DC9
:2011A00000206F6B746F3D002073656E646661696C3D0020726573796E633D002068777210
:2011C00073743D00206573707273743D002064726F703D005B434E545D2075703D00730089
:2011E0002075703D00206C696E65733D002072783D00205B455350EBA6ACEC858BEC9CA02A
:20120000ECA780ECA4915D0020EC82ACEB8BA4EBA6AC3D005B444941475D206F66666C6972
:201220006E6520737465703D00ED9A8C2028EC849CEBB284EC9D982027EBB284EBA6B0EC84
:20124000A4842720EAB3BC20EBA79EEC9584EC95BC20ED959CEB8BA42900204220C2B72098
:20126000ED9484EBA1ACED9484ED8AB820EC9EACEB8F99EAB8B020005B52414D5D20ECB5C9
:201280009CECA08020EC97ACEC9CA0200000000000240027002A000000000800020100008F
:2012A0000304070000000000000000222028005C780022005B4E45545D20EC86A1EC8BA0D7
:2012C00020EC98A4EBA59820EC9D91EB8BB528EBA19CEAB7B8EBA78C2C20ECB9B4EC9AB493
:2012E000ED84B0EB8A942073656E644C696E6520EC9DB420EC84BCEB8BA4293A20005B4E83
:2013000045545D20E298852053454E44204641494C20E2809420ED8E98EC9DB4EBA19CEB99
:20132000939CEAB98CECA78020EC8DBCEB8A94EB8DB020ECA084EC86A1EC9DB420EC8BA4FB
:20134000ED8CA8ED9688EB8BA42E20EC8BA4ED8CA8EBA19C20EC84BCEB8BA4005B4E4554ED
:201360005D206C696E6B206973206E6F742076616C696420E2869220ECA689EC8B9C20EC31
:2013800098A4ED9484EB9DBCEC9DB82C20EB82A1EC9D8020EC868CECBC9320EB8BABEAB8E8
:2013A000B028434950434C4F534529005B4E45545D206F6E6C696E652028434F4E4E454398
:2013C0005429202B20ECBA90EC8B9C20EBB984EC9B80005B4E45545D206F6E6C696E652029
:2013E00028414C524541445920434F4E4E454354454420C2B720ECB488EAB8B020EAB2BD64
:20140000ED95A929005B4E45545D20414C524541445920434F4E4E454354454420E28094EE
:2014200020EB82A1EC9D8020EC868CECBC9320EC9D98EC8BAC20ECA491EC9DB4EBAF80EB35
:20144000A19C20EBAFBFECA78020EC958AEB8A94EB8BA420E2869220434950434C4F5345E9
:20146000005B4E45545D206E6F20697020E2809420495020EAB08020EC9786EB8BA42E203D
:20148000434950535441525420EC9EACEC8B9CEB8F84EBA5BC20ECA091EAB3A02043574AB1
:2014A000415020EBA19C20EB9098EB8F8CEC9584EAB084EB8BA4005B4E45545D20202032AC
:2014C0002E3447487A20EC9DB8EAB080202F20ECA084ED8C8CEAB08020EB8BBFEB8A94EA40
:2014E000B080202F205353494420ECB2A0EC9E90EAB08020EBA79EEB8A94EAB080EBA5BCC9
:2015000020EBB490EB9DBC2E005B4E45545D20EC84A4ECA095ED959C205353494420EAB0EB
:201520008020EBAAA9EBA19DEC9790202A2AEC9786EB8BA42A2A20E2869220EBB984EBB2A7
:201540008820EBACB8ECA09CEAB08020EC9584EB8B88EB8BA42E005B4E45545D20202032B6
:20156000EC889CEC9C843A20EBB984EBB080EBB288ED98B820202033EC889CEC9C843A2047
:20158000504D46283830322E313177292F5750413320ECA084ED9998EBAAA8EB939C20EB7C
:2015A0008184EAB8B0005B4E45545D20202031EC889CEC9C843A20EC9C8420ECA484EC9D65
:2015C00098202A2AEBA788ECA780EBA78920EC88ABEC9E9028ECB184EB8490292A2A20EB8E
:2015E000A5BC20EBB490EB9DBC2E2031322F313320EC9DB4EBA9B420EAB3B5EC9CA0EAB8D2
:20160000B0EBA5BC20312F362F313120EBA19C20EBB094EABF94EB9DBC005B4E45545D20B0
:20162000EC84A4ECA095ED959C205353494420EAB08020EBAAA9EBA19DEC9790202A2AECD0
:201640009E88EB8BA42A2A20E2869220415020EB8A9420EBB3B4EC9DB8EB8BA42E20EAB24B
:20166000B0ED95A9EBA78C20EAB1B0EBB680EB909CEB8BA42E005B4E45545D20E29480E2EF
:20168000948020415020EC8AA4ECBA9420ED8C90ECA09520E29480E29480E29480E29480CF
:2016A000E29480E29480E29480E29480E29480E29480E29480E29480E29480E29480E29418
:2016C00080E29480E29480E29480E29480E29480E29480E29480E29480E29480E29480E20C
:2016E0009480005B4E45545D202020E2869220EAB3B5EC9CA0EAB8B020ECB184EB8490ECC5
:201700009D8420312F362F313120EBA19C20EBB094EABEB8EB8A9420EAB283EC9DB420EDD8
:201720009995ECA09520ED95B4EBB295EC9DB4EB8BA4005B4E45545D204357434F554E5499
:20174000525920EBAFB8ECA780EC9B90284552524F522920E2809420EC9DB420ED8E8CECE1
:201760009BA8EC96B4EBA19CEB8A9420ECB184EB84902031322F313320EC9D8420ECBD94DF
:20178000EB939CEBA19C20EBAABB20EC97B0EB8BA42E005B4E45545D20E298852043574341
:2017A0004F554E54525920EAB08020EBA8B9EC9788EB8BA420E2809420EAB79CECA09CEBE7
:2017C0008F84EBA994EC9DB820317E31332E20ECB184EB849020313220EAB2B0ED95A9ECE6
:2017E0009DB420EC97B4EBA0B8EC9D8420EC889820EC9E88EB8BA4005B4E45545D2043492E
:20180000504D55583D3020ECA081EC9AA9EB90A820E28692204349505354415254005B4E45
:2018200045545D20E2988520495020ED9995EBB3B43A20005B4C41444445525D2032EB8BC7
:20184000A83A20EAB2B0ED95A920ED95B4ECA09C20EC9984EBA38C20E2869220EAB9A8EBDE
:201860008197ED959C20EC8381ED839CEC9790EC849C2043574A415020EC9EACEC8B9CEB0E
:201880008F84005B4E45545D2043574A4150204F4B20E2809420EAB2B0ED95A9EB9090EBA4
:2018A0008BA42E20495020EBA5BC20EC8BA4ECA09CEBA19C20EBB09BEC9598EB8A94ECA710
:2018C0008020434946535220EBA19C20ED9995EC9DB8ED959CEB8BA400ED9A8C2028EAB5FB
:2018E000ACED989520ED8E8CEC9BA8EC96B4EB8A9420EC82ACEC9CA0EBA5BC20ECA3BCEC88
:20190000A78020EC958AEB8A94EB8BA429005B4E45545D20E298852043574A415020EC8B3F
:20192000A4ED8CA82000ECA091EC868D20EC8BA4ED8CA800EAB7B8205353494420EC9D985D
:2019400020415020EBA5BC20EBAABB20ECB0BEEC9598EB8BA400EBB984EBB080EBB288EDF8
:2019600098B8EAB08020ED8B80EBA0B8EB8BA400ECA091EC868D20EC8B9CEAB084ECB488F3
:20198000EAB3BC005B4E45545D20E298852043574A415020EC8BA4ED8CA820EC82ACEC9C7D
:2019A000A03A20005B4E45545D206275737920E280942045535020EAB08020EC959E20EB09
:2019C000AA85EBA0B9EC9D8420ECB298EBA6AC20ECA491EC9DB4EB8BA42E20ECA084ECA76B
:2019E00084ED9598ECA78020EC958AEB8A94EB8BA4005B4E45545D205749464920444953FA
:201A0000434F4E4E45435420E2809420495020EBA5BC20EC9E83EC9788EB8BA4005B4E4541
:201A2000545D205749464920474F5420495020E2809420495020ED9995EBB3B42E2039EC14
:201A4000B48820EB8C80EAB8B0ECB0BDEC9D8420EB819DEAB98CECA78020EAB8B0EB8BA484
:201A6000EBA6ACECA78020EC958AEAB3A020EBB094EBA19C20EB8BA4EC9D8C20EB8BA8EAC0
:201A8000B384EBA19C006D73005B534C4F542D4F4F575D202B005B41545D20005B41434B09
:201AA000515D20EAB080EB939D20ECB0B820E2809420EAB080EC9EA520EC98A4EB9E98EBDC
:201AC000909C20EBB3B4EBA5982041434B20EBA5BC20EBB284EBA6B0EB8BA4000000000049
:201AE00023002600290000000000250028002B0004040404040404040202020202020303CA
:201B00000303030301020408102040800102040810200102040810209821D72E11241FBE6C
:201B2000CFEFD8E0DEBFCDBF84B78093BE0514BE0FB6F894A89580916000886180936000C8
:201B4000109260000FBE12E0A0E0B1E0E6EDF6E602C005900D92A638B107D9F725E0A6E815
:201B6000B2E001C01D92AE3BB207E1F71DE0CDE8DDE004C02197FE010E942E30CC38D10723
:201B8000C9F70E9443220C945E330C9400000F931F93CF93DF93DB0150E040E030E020E049
:201BA00061E070E0CBE0D0E0FB01042E02C0EE0FFF1F0A94E2F7E823F923EF2B61F0FE0126
:201BC000E41BF50B8B0102C0000F111FEA95E2F7F801202B3F2B4F5F5F4F4C30510521F72D
:201BE000F901EF70FF27E65BFE4F808112968C931297F90184E0F695E7958A95E1F7EF70AC
:201C0000FF27E65BFE4F808111968C931197232F3327F901E65BFE4F80818C9313961C92F6
:201C2000DF91CF911F910F91089521E030E0A90102C0440F551F8A95E2F7CA012091FB0430
:201C40003091FC0424233923232B69F420910105222359F02091FD043091FE042423392318
:201C600081E0232B19F080E0089581E00895833081F028F4813099F08230A9F00895873098
:201C8000A9F08830C9F08430B1F4809180008F7D03C0809180008F7780938000089584B581
:201CA0008F7784BD089584B58F7DFBCF8091B0008F778093B00008958091B0008F7DF9CF75
:201CC000CF93DF9390E0FC01EC5FF44E24918051954EFC0184918823C9F090E0880F991F98
:201CE000FC01E357FD4EA591B491FC01EA51F54EC591D49161110DC09FB7F8948C912095BE
:201D000082238C938881282328839FBFDF91CF910895623051F49FB7F8943C91822F8095E9
:201D200083238C93E8812E2BEFCF8FB7F894EC912E2B2C938FBFEACF2FB7F8946091F30397
:201D40007091F4038091F5039091F6032FBF0895EF92FF920F931F93CF93DF938C017B019A
:201D6000D0E0C0E0F701EC0FFD1F6491662361F0D801ED91FC910190F081E02DC8010995DB
:201D8000892B11F02196EECFCE01DF91CF911F910F91FF90EF900895AF92BF92CF92DF921C
:201DA000EF92FF920F931F93CF93DF936C017B018B01040F151FEB015E01AE18BF08C0177E
:201DC000D10759F06991D601ED91FC910190F081E02DC6010995892B79F7C501DF91CF91D8
:201DE0001F910F91FF90EF90DF90CF90BF90AF900895FC01538D448D252F30E0842F90E057
:201E0000821B930B541710F0CF96089501970895FC01918D828D981761F0A28DAE0FBF2FE1
:201E2000B11D5D968C91928D9F5F9F73928F90E008958FEF9FEF0895FC01918D828D9817E5
:201E400031F0828DE80FF11D858D90E008958FEF9FEF0895FC01918D228D892F90E0805CB7
:201E60009F4F821B91098F739927089582E095E00E942A0F21E0892B09F420E0822F08952C
:201E800080E090E0892B29F00E94360F81110C9400000895FC01A48DA80FB92FB11DA35A57
:201EA000BF4F2C91848D90E001968F739927848FA689B7892C93A089B1898C9183708064E5
:201EC0008C93938D848D981306C00288F389E02D80818F7D80830895EF92FF920F931F931B
:201EE000CF93DF93EC0181E0888F9B8D8C8D98131AC0E889F989808185FF15C09FB7F894B4
:201F0000EE89FF896083E889F98980818370806480839FBF81E090E0DF91CF911F910F91C2
:201F2000FF90EF900895F62E0B8D10E00F5F1F4F0F731127E02E8C8D8E110CC00FB607FC5A
:201F4000FACFE889F989808185FFF5CFCE010E944A0FF1CFEB8DEC0FFD2FF11DE35AFF4FBA
:201F6000F0829FB7F8940B8FEA89FB8980818062CFCF682F82E095E00C946C0FCF93DF939E
:201F8000EC01888D8823B9F0AA89BB89E889F9898C9185FD03C0808186FD0DC00FB607FC06
:201FA000F7CF8C9185FFF2CF808185FFEDCFCE010E944A0FE9CFDF91CF91089520913C03D9
:201FC00030913D032817390771F490913A0380913B03981741F0E0913A03F0E0E650FD4F8F
:201FE000808190E008958FEF9FEF08950895EF92FF920F931F93CF93DF93DC015C96ED9007
:20200000FC905D97E114F10479F481E090E013969C938E93129790E080E0DF91CF911F9126
:202020000F91FF90EF9008955196ED91FC91529750968C915097982F90950FB75E962C912D
:202040005E97122F127021FD6095F8942081112319F1282B2083E7012197F1F728E0462F4F
:2020600050E0308160FF1AC0382B3083E7012197F1F7BA0175956795215089F7112381F051
:202080008081892380830FBF5C968D919C910197F1F781E090E0C1CF2923DCCF3923E5CF9D
:2020A0009081892BEFCF20913C0330913D032817390761F480913B0320913A0390E0805C4F
:2020C0009F4F821B91098F739927089590E080E0089520913C0330913D0328173907B9F4F2
:2020E00090913A0380913B03981789F0E0913A03F0E0E650FD4F808120913A0330E02F5F7E
:202100003F4F2F73332720933A0390E008958FEF9FEF089590E080E00895282FDB01FC01F2
:2021200091918D913FE9390F3A3108F490523FE9380F3A3108F48052981306C08E2F821B33
:20214000841770F381E0089580E00895FB0180839183FC0181E09191992391F09C32D9F718
:20216000DF0111971C92841750F4A82FB0E0AA0FBB1FA60FB71FED93FC938F5FECCF8FEF8F
:2021800008951F93CF93DF93EB01009729F1FC012081222309F120E030E0A9011191112312
:2021A000E9F080ED810F8A30B8F4AAE0B0E00E94B62F412F110F550B405351099A01550F66
:2021C000440B550B260F371F481F591F2115310581E04807510510F380E003C039832883E7
:2021E00081E0DF91CF911F9108951092750410925E0410925D0410925C041092EF04109206
:20220000F0048091D3039091D4038F3F980729F001969093D4038093D30381E080936F0404
:2022200086E080936E040E949C0E60936A0470936B0480936C0490936D041092090110922F
:2022400008010895CF93DF93382FDC01E0E02A2F231B261718F42D91E227F9CFDC01A60FFF
:20226000B11DCE2FD0E084E0D595C7958A95E1F7C65BDE4F88818C93EF70F0E0E65BFE4F8F
:20228000808111968C93119712961C9282E0860FDF91CF910895CF93DF93EB0180936E04D0
:2022A0000E949C0E60936A0470936B0480936C0490936D04D0930901C0930801DF91CF914F
:2022C0000895FB0101900020E9F73197AF01461B570BDC01ED91FC910280F381E02D099411
:2022E0006FE771E082E095E00C946111CF93DF93BC0182E095E00E94A80EEC010E9470117E
:202300008C0F9D1FDF91CF910895EF92FF920F931F93CF93DF93EC014091EF042091F00469
:2023200030E010E000E05CE0E52EF12C0417C8F4C901800F911FB7010E941A30FC01EE0FD3
:20234000FF1FE952FB4F808191810F5F1F4F8C179D0761F7DF91CF911F910F91FF90EF901E
:2023600008954C30D9F4C90101966CE070E00E941A308093F0048BE08093EF048091F10410
:202380009091F2048F3F980729F001969093F2048093F1048CE99AE10E9476112091EF042B
:2023A0008091F004820F9927991F6CE070E00E941A30FC01EE0FFF1FE952FB4FD183C08353
:2023C0002F5F2093EF04C6CFDC01822FE091D5042E2F30E095E0E99FF0011124EB57FB4F40
:2023E000B183A0836283438384832F5F3F4F2F7033272093D5049091D604903118F49F5F6D
:202400009093D604CD010C9485118F929F92AF92BF92EF92FF920F931F93CF93DF93CDB719
:20242000DEB7A1970FB6F894DEBF0FBECDBF7C01FA01CB0119A2223008F42AE08E010F5D36
:202440001F4F822E912CB12CA12CBF01A50194010E94C92FF901CA016A300CF5605DD8016C
:202460006E938D01232B242B252B79F790E080E0109721F0BD01C7010E946111A1960FB652
:20248000F894DEBF0FBECDBFDF91CF911F910F91FF90EF90BF90AF909F908F900895695C4E
:2024A000DECF2AE00C940512482F50E070E060E02AE082E095E00C94051280915E048F3F9E
:2024C00019F08F5F80935E0468E379E082E095E00E94A80E80915E040E9454128FE20E942F
:2024E000B90F83E00E9454120E94701180915E04833080F06AE279E082E095E00E94A80E1C
:2025000080915E040E94541287ED98E00E9476110C94F5100895AB0170E060E02AE00C9403
:202520000512CF93DF93BC0182E095E00E948B12EC010E9470118C0F9D1FDF91CF91089509
:2025400081E0809372048091D1039091D2038F3F980729F001969093D2038093D10365E86D
:2025600078E082E095E00E94A80E8091D1039091D2030C949112CF92DF92EF92FF92CF9370
:20258000DF930E949C0E6B017C01D0E0C0E00E949C0E6C197D098E099F0968377105810513
:2025A000910578F48FE995E00E945310892B79F38FE995E00E946910CF3FDC0799F32196CB
:2025C000F1CF1092EA021092E9021092A40361EC70E082E095E00E94A80EBE0182E095E075
:2025E0000E948B1289E990E0DF91CF91FF90EF90DF90CF900C9476118F929F92AF92BF9203
:20260000CF92DF92EF92FF92CF93DF93C82F0E949C0E6B017C018091EF02882319F180910E
:20262000EB029091EC02A091ED02B091EE02A7019601281B390B4A0B5B0BDA01C901883E61
:202640009340A105B10570F48AE195E0DF91CF91FF90EF90DF90CF90BF90AF909F908F907F
:202660000C94761181E08093EF02C092EB02D092EC02E092ED02F092EE0269E075E082E06C
:2026800095E00E94A80E69EF74E0C13031F068EE74E0C23011F06DED74E082E095E00E94EB
:2026A000A80E6EEC74E082E095E00E94A80E80913E0390913F03A0914003B0914103A70131
:2026C0009601281B390B4A0B5B0BCA01B90128EE822E23E0922EA12CB12CA50194010E948C
:2026E000C92FBA01A90182E095E00E94511261EC74E082E095E00E94A80E80917B040E949F
:2027000054126CEA74E082E095E00E94A80E8091760490917704A0917804B0917904009751
:20272000A105B10509F45BC0A7019601281B390B4A0B5B0BCA01B901A50194010E94C92F4A
:20274000BA01A90182E095E00E94511283E70E94B90F69E974E082E095E00E94A80E80917E
:20276000E3030E94541264E974E082E095E00E94A80E8091E2030E94541288E894E00E9417
:202780007611109276041092770410927804109279048091E303C23049F5833038F583E0D2
:2027A0008093E3031092E2038AE294E00E94761180917B048230F0F18091700481113AC05C
:2027C00064EF71E087E0DF91CF91FF90EF90DF90CF90BF90AF909F908F900C944B1165EA1B
:2027E00074E082E095E00E94A80EB3CF9091E2039E3F18F49F5F9093E203E82FF0E0ED5DAE
:20280000FE4F20819091E203921790F2853080F68F5F8093E3031092E2036AE074E082E000
:2028200095E00E94A80E8091E3030E94541286E094E0BCCF8091E303E82FF0E0EE0FFF1F6E
:20284000E95EFE4FC081D181823009F44BC0F8F4882309F441C08130E9F18FE891E00E94ED
:2028600076118AE391E00E94761168E171E082E095E00E94A80ECE0168EE73E00E940630B1
:2028800082E095E00E948B128CEE90E054C0833009F440C0843009F78EEF92E00E947611A8
:2028A0008FEA92E00E9476118FE492E00E9476116FE372E082E095E00E94A80ECE0168EEFE
:2028C00073E00E94063082E095E00E948B128CEF91E031C00E94BB12109273046CE271E0B3
:2028E00083E071CF6FEE73E082E095E00E94A80ECE0168EE73E00E94063082E095E00E948D
:202900008B1281EA93E00E94761110927C04BE018AE059CF6AE873E082E095E00E94A80ECC
:20292000CE0168EE73E00E94063082E095E00E948B128EE593E00E94761110927C04BE0141
:2029400080E041CFCF93DF93D0E0C0E0009731F0BC0182E095E00E946111EC010E94701173
:202960008C0F9D1FDF91CF9108958F929F92AF92BF92CF92DF92EF92FF920F931F93CF9315
:20298000DF93CDB7DEB764970FB6F894DEBF0FBECDBFDC010D900020E9F79D0121503109A7
:2029A000281B390B122F4FEF420F4F3308F067C0FC01A0814A2F4B7F433449F0A43539F00C
:2029C000AD3429F04FEA4A0F423008F058C0B82FFC0150E040E06FEF7FEF01910C3209F41C
:2029E000BA014F5F5F4F4117C0F38C016F3F760789F13327261B370B2330310559F5FC01D2
:202A0000E60FF71F918120ED290F2A3030F08FEB890F8630F8F429EC290F328190ED930F07
:202A20009A3030F08FEB830F8630A0F499EC930F81E0860FF80140E03E2F3B1B381718F402
:202A400031914327F9CF80E1289F90011124922B941741F18091C3039091C4038F3F9807CE
:202A600029F001969093C4038093C30369E778E082E095E00E94A80EC8010E94A2146496F1
:202A80000FB6F894DEBF0FBECDBFDF91CF911F910F91FF90EF90DF90CF90BF90AF909F9036
:202AA0008F900895A73409F0DCC046E0BE016F5F7F4FC8010E94A610188A1F8684508B3F63
:202AC000F0F6BE01615F7F4F8B819C810E94C1108823A9F21A8A198A1C8A1B8ABE016F5EC3
:202AE0007F4F8D819E810E94C110882339F0BE016D5E7F4F8F8198850E94C1104F855889E7
:202B00009091D60425E834E0E0E09E1759F02B5F3F4FD90115976D917C914617570719F569
:202B2000E7FF23C0882341F089899A899C012A5031092230310520F169E678E082E095E053
:202B40000E94A80E89899A890E94911223E089899A896AE070E00E94063040E3480F67E434
:202B60008F85988919C1EF5FD0CFB5E0EB02F0011124EB57FB4F808191810E9485117FCF8C
:202B800016EF180F8090C9039090CA03A090CB03B090CC03E090A603F090A7038091A50337
:202BA00081112DC081E08093A503C501B40124E130E040E050E00E94C92F6A30710581056A
:202BC000910530F46894E0F8F092A703E092A603E090A603F090A703C501B4012EE030E044
:202BE00040E050E00E94C92F673071058105910530F46894E1F8F092A703E092A6032091D1
:202C0000A6033091A70381E090E002C0880F991F1A95E2F74B895C89452BF1F0822B932BC1
:202C20009093A7038093A60360E678E082E095E00E94A80E69897A8982E095E00E948B1233
:202C40006BE578E082E095E00E94A80E8B899C890E94911220E07BCF809590958223932340
:202C6000DFCFA13551F481E08093F8031092F70388E198E00E94761102CFBE016F5F7F4F4A
:202C8000CB018F5B954020910601309107018217930720F4909307018093060147E0C801AC
:202CA0000E94A610E82EEFEF8E1709F4E8CEE981FA81008175E0F72E023551F066E0F62EAE
:202CC000043531F0E3E0FE2E0D3411F054E0F52EF2E0FE1508F0D3CEBE01615F7F4F8B813B
:202CE0009C810E94C110882309F4C9CECF84D8882091D60485E894E010E0211751F00596E2
:202D0000DC0115974D915C91C416D50691F417FF12C0EF14F9F06BEF77E082E095E00E9427
:202D2000A80E8F8598890E94911223E04FE36FE317CF1F5FE2CF6DE078E082E095E00E94A9
:202D4000A80E8F8598890E94911225E01202F00111240FCF043509F095C0AD81BE8111968B
:202D60008C911197811188C05C91513469F05434B1F4109201051092FE041092FD0410922B
:202D800000051092FF0403C081E0809301054FE33FE320E0632FC6010E94E41170CE533542
:202DA00019F0583509F068C0AF81B88509851A85FD0101900020E9F7CF0103978A179B0786
:202DC00009F05AC03C9111968C912FEC280F253008F052C0313409F484C1323409F04CC08C
:202DE00024ED280F533569F4D8018C918053823008F042C011968C9181113EC031E4253073
:202E000008F032E4822F65E00E94FA2F41E3490F809101058823A1F181E090E002C0880FE9
:202E2000991F2A95E2F76091FD047091FE04A091FF04B09100055335B1F4F8012081682B79
:202E4000792B7093FE046093FD04203339F08A2B9B2B909300058093FF049BCF80959095FC
:202E60008A239B23F6CF80959095682379237093FE046093FD04F4CF4FE33FE323E08ACF55
:202E800024E088CF0D3409F0D2C08090F7049090F804A090F904B090FA04F12CE12CCC245F
:202EA000C394D12C1E2D8E2D0E94150E882309F45DC096010E2C02C0220F331F0A94E2F7A1
:202EC000C90188219921892B09F450C0C9018A219B21892B09F04AC0A22AB32AB092FA0433
:202EE000A092F904C70105966AE070E00E941A30082F0E94150E882361F0C60102C0880FA2
:202F0000991F0A95E2F78A299B299093FA048093F90482E4F82E153010F491E4F92E812FB8
:202F200065E00E94FA2F01E3090F69EB77E082E095E00E94A80E8F2D0E94B90F802F0E9434
:202F4000B90F6AEA77E082E095E00E94A80E8091F9049091FA0402C0969587951A95E2F711
:202F6000817099270E94911220E05EC0FFEFEF1AFF0A2AE0E216F10409F094CF10E000E01A
:202F8000802F0E94150E81111F5F0F5F0A30C1F7112309F441C00E943F2F212F30E050E07B
:202FA00040E00E94972F062F10E0812F0E94150E882379F18FEF800F01112AC0812F90E0B1
:202FC000CC24C394D12C7601012E02C0EE0CFF1C0A94E2F72091F9043091FA04E226F3262B
:202FE000F092FA04E092F90405966AE070E00E941A30082F0E94150E882309F48ACFC601FD
:2030000002C0880F991F0A95E2F78E259F257DCF082F1F5F1A3049F68CEC97E00E9476110E
:203020000FE32FE3F22E25E0402F6F2D99CDED81FE81DF010D900020E9F7CD0103978E177F
:203040009F0761F481812FEC280F253038F45081513499F024ED280F523479F06AE977E0E0
:2030600082E095E00E94A80E8F8598890E9491124FE35FE323E0652F73CD822F65E00E94C4
:20308000FA2F41E3490F81E090E002C0880F991F2A95E2F70235A9F42091F5043091F604D8
:2030A00028233923232BD9F42091F7043091F804BC0162237323822B932B672B51F022E0CD
:2030C000DACF809590952091F7043091F804822393239093F8048093F70420E0CCCF21E080
:2030E000CACF533509F08ECE7FCEBF92CF92DF92EF92FF920F931F93CF93DF93809181041A
:2031000090918204A0918304B09184040196A11DB11D8093810490938204A0938304B09326
:20312000840466E97AE182E095E00E94A80E09EF13E0F80101900020E9F78F010A5F13406D
:20314000B02E62EB72E182E095E00E94A80E99EFE92E93E0F92E6701D0E0DB1528F5F6016D
:20316000C1916F0180EE8C0F8F3528F48C2F0E94B90FDF5FF2CF6FEA72E182E095E00E945B
:20318000A80EEC2FF0E084E0F595E7958A95E1F7E65BFE4F80810E94B90FCF70EC2FF0E00A
:2031A000E65BFE4F8081E3CF6BEA72E182E095E00E94A80E802F0E94541289E20E94B90F6B
:2031C0000E94701162E871E089EF93E00E945F30EC01892BE1F1C0907F04D0908004F12CCE
:2031E000E12CF8E5CF16F2E0DF06E104F104E0F480917D0490917E048F3F980729F0019649
:2032000090937E0480937D0469E87AE182E095E00E94A80EB701A60182E095E00E9451125F
:2032200086E89AE10E9476116AE370E0CE010E943D300097D9F10196DF91CF911F910F91E9
:20324000FF90EF90DF90CF90BF900C94B51444E050E068E871E089EF93E00E945130892B23
:2032600009F04DC06DE871E089EF93E00E945F30892B31F181E080937C0410927B041092F9
:203280007A040E949C0E609376047093770480937804909379048DE19AE10E947611809127
:2032A000750468EC70E0882309F4E3C0DF91CF911F910F91FF90EF90DF90CF90BF900895BE
:2032C00064E971E089EF93E00E945F30892B71F310927C0482EF99E10E947611809175045C
:2032E0008111E4CF10927A04DF91CF911F910F91FF90EF90DF90CF90BF900C94FC1280915F
:2033000075048111C1C1C0910A01CB3008F0BCC16FE971E089EF93E00E945F30892BF1F0FA
:2033200084EA99E10E94761180910A01833081F491E0909374046CED75E0DF91CF911F91FE
:203340000F91FF90EF90DF90CF90BF900C944B119CEF980F923008F0A9CFEDCFC23009F09B
:203360008AC047E050E064EA71E089EF93E00E945130892BA1F564E879E182E095E00E9496
:20338000A80E80910004823321F17CF48133A1F089EF93E0DF91CF911F910F91FF90EF90CD
:2033A000DF90CF90BF900C94A2148333A9F0843379F786E299E102C080E799E1DF91CF91CF
:2033C0001F910F91FF90EF90DF90CF90BF900C94761186E599E1F2CF84E399E1EFCF6AE2BA
:2033E00072E089EF93E00E945F30892B41F46CEA71E089EF93E00E945F30892BD9F0809125
:203400007B048A3F18F48F5F80937B0410927C0410927A046EE079E182E095E00E94A80EBF
:2034200080917B040E94541289ED98E10E94761180E05ACF62E272E089EF93E00E944830B8
:20344000892B09F0D8C283E898E10E94761110927B041092730410927A040E949C0E60937F
:2034600076047093770480937804909379046CE271E083E062CFCA3009F562E272E089EFEC
:2034800093E00E944830892B89F06CEA71E089EF93E00E945F30892B49F462EB71E089EFA8
:2034A00093E00E945F30892B09F4A5C284E398E10E94761164EF71E082E03FCFC33009F047
:2034C0009AC243E050E068EB71E089EF93E00E945130892B09F48FC289EF93E04AE001C0B3
:2034E000CD01DC012D91222309F477C220532A30B8F733E0893F930731F0FC013197208170
:2035000020532A3068F3FC0130E090E020E0819150ED580F5A3030F4249F800D112420ED10
:20352000280FF5CF911101C0322F8E3211F49F5FEDCF9330A9F6332399F281E080937C0416
:203540001092730410927204109274048091760490917704A0917804B0917904892B8A2B25
:203560008B2B51F40E949C0E609376047093770480937804909379046EE178E182E095E06B
:203580000E94A80E89EF93E00E94A21468EC70E084E0D3CE883069F562E272E089EF93E050
:2035A0000E944830892BB1F06CEA71E089EF93E00E945F30892BB1F463EE71E089EF93E0F3
:2035C0000E945F30892B09F45FC010927C0481E694E14EC083E997E10E9476116CE271E032
:2035E00089E0ABCE83E397E10E94761183EE96E1F3CF893009F747E050E066EC71E089EF0D
:2036000093E00E945130892B69F46EEC71E089EF93E00E945F30892B09F448CE81E0809301
:20362000710444CE62E272E089EF93E00E944830892B49F06CEA71E089EF93E00E945F30B8
:20364000892B09F4B9CF81E08093700486E796E10E94761180917104882379F08AE196E1C0
:203660000E94761186EA95E10E94761187E595E10E94761168EE73E01FCF89E095E10E94EF
:20368000761187EB94E1F4CF69EE71E089EF93E00E945F30892B09F45CC067E971E089EF4F
:2036A00093E00E945F30892B09F453C080916F048823B1F085E094E10E94761186E0809356
:2036C0006E040E949C0E60936A0470936B0480936C0490936D041092090110920801E6CD38
:2036E00081E0809375040E949C0E6093660470936704809368049093690480916504882392
:2037000071F080916304909164048F3F980729F001969093640480936304109265040E9478
:203720009C0E60935F0470936004809361049093620410925E041092F80381E08093F70312
:2037400010925D0410925C0410925B0483ED93E135CEC701F7012081FFEFEF1AFF0A2032C9
:20376000C1F32930B1F32053253028F4FC0121812C3209F40296FC0101900020E9F73197CC
:20378000E81BF90B2E2FE80FF92FF11D222309F473C03291303219F03B7F393011F421505C
:2037A000F5CF47E067E971E0273031F0263009F063C046E06FEE71E00E948D10882309F4D8
:2037C0005BC081E0809375040E949C0E609366047093670480936804909369048091650441
:2037E000882371F080916304909164048F3F980729F001969093640480936304109265048F
:203800000E949C0E60935F0470936004809361049093620410925E041092F80381E0809389
:20382000F70310925D0410925C0410926F0410925B0410927B041092730480937C04809195
:20384000760490917704A0917804B0917904892B8A2B8B2B51F40E949C0E609376047093C7
:20386000770480937804909379041092D5041092D6048CEA93E1A2CD66EF71E089EF93E0BD
:203880000E945F30892BB9F46DEF71E089EF93E00E945F30892B79F464E072E089EF93E02B
:2038A0000E945F30892B39F48091750481112EC089EF93E0C1CC1092750410925E041092B3
:2038C000F80381E08093F70310925D0410925C0410926F0410925B041092D5041092D6046D
:2038E00083E080936E040E949C0E60936A0470936B0480936C0490936D048CE291E09093A8
:2039000009018093080110927304D0CC6BE072E089EF93E00E945F30892B79F08CE593E111
:203920000E947611DF91CF911F910F91FF90EF90DF90CF90BF900C94F51047E050E06DE1C9
:2039400072E089EF93E00E945130892B29F410925D0410925C04AACC49E050E065E272E0C9
:2039600089EF93E00E945130892BF9F410925D0410925C048091590490915A048F3F980739
:2039800029F0019690935A04809359048EEF92E10E947611DF91CF911F910F91FF90EF903F
:2039A000DF90CF90BF900C945D126CEA71E089EF93E00E945F30892B49F46FE971E089EF06
:2039C00093E00E945F30892B09F472CF64EB72E182E095E00E94A80EDBCC6FE272E089EFBE
:2039E00093E00E944830892B31F480917204811102C00E94A01280910A01843009F0CACDD2
:203A000062E272E089EF93E00E944830892B49F06CEB71E089EF93E00E945F30892B09F4A9
:203A2000CBCD88EF97E10E94761168EC70E085E084CCCF93DF93D82F8091DD039091DE03AF
:203A4000A091DF03B091E0030196A11DB11D8093DD039093DE03A093DF03B093E003DA30D0
:203A600009F0B2C08091E9028823A1F066E870E082E095E00E94A80E80E60E94541288E6FA
:203A800090E00E9476111092EA021092E902DF91CF9108954091EA024423C9F350E0FA01FA
:203AA000E757FD4F10821092EA028091F502882309F476C08091A403811131C04F5F5F4FDF
:203AC00069E872E084E493E00E9434308091870290918802909343038093420381E08093E8
:203AE000A4038091B7039091B8038F3F980729F001969093B8038093B7038091F4028034F5
:203B000030F28091B5039091B6038F3F980709F4BECF01969093B6038093B503B8CF6DE1D6
:203B200072E089E892E00E945F302091F402892BD1F08091BF039091C0038F3F980729F0C6
:203B400001969093C0038093BF03203460F08091BB039091BC038F3F980729F00196909380
:203B6000BC038093BB038091B9039091BA038F3F980729F001969093BA038093B9032034EA
:203B800008F485CF8091B3039091B4038F3F980709F47DCF01969093B4038093B30377CF00
:203BA0004F5F5F4F69E872E089EF93E00E94343080918702909188029093800480937F0493
:203BC000DF91CF910C94751880915D04882309F441C080918602E82FF0E0E15FFE4F9081AF
:203BE0009D1333C08F5F873019F08093860222C01092860210925D0410925C048091C103F3
:203C00009091C2038F3F980729F001969093C2038093C1038091F402803460F08091BD0306
:203C20009091BE038F3F980729F001969093BE038093BD03DD3009F42ACFC091EA02CF358A
:203C400060F081E08093E90222CF81E0D33569F280E0CBCF10928602EDCFC1110CC00E94E0
:203C60009C0E2091D5033091D603621B730B709388026093870281E08C0F8093EA02EC2F5D
:203C8000F0E0E757FD4FD08302CF8FE995E00E945310892B39F08FE995E00E9469100E942D
:203CA000191DF3CF8091BD0580FF0FC08E7F8093BD058091C5039091C6038F3F980729F0C0
:203CC00001969093C6038093C50308952F923F924F925F927F928F929F92AF92BF92CF922F
:203CE000DF92EF92FF920F931F93CF93DF931F92CDB7DEB79E012E5B3540409106015091F9
:203D000007012417350720F4309307012093060170907504711015C0E12C8E2D0F90DF91E5
:203D2000CF911F910F91FF90EF90DF90CF90BF90AF909F908F907F905F904F903F902F90B0
:203D400008959B0121503109203A310528F78B016C01E0905D04EE2009F45AC00E949C0E95
:203D60000091F6021091F7022091F8023091F902DC01CB01801B910BA20BB30B80342FE1AA
:203D80009207A105B10568F5803D9740A105B105B8F080915C04811113C081E080935C048F
:203DA0008091CF039091D0038F3F980729F001969093D0038093CF0388E497E00E94761128
:203DC0008091B1039091B2038F3F980729F001969093B2038093B10380EF96E00E9476117E
:203DE0009BCF10925D0410925C048091CD039091CE038F3F980729F001969093CE0380935D
:203E0000CD0384E996E00E9476110E94F51084CF81E08093F5026093F4020E949C0E80901C
:203E2000F0029090F102A090F202B090F302681979098A099B09603571058105910518F4B7
:203E40000E94451EEACF68E876E08FE995E00E94A80E4801FFEF8F1A9F0AB4018FE995E08E
:203E60000E948B1265E876E08FE995E00E94A80E0E949C0E1B012C01B12CA12C0E949C0E90
:203E800062197309840995096C3271408105910508F048C08FE995E00E945310892B71F38B
:203EA0008FE995E00E946910F82E8EE3F81609F470C08F2D0E94191D8FEB8F0D8A3110F4BF
:203EC000E0E2FE0EEA2DF0E0E15DFE4F8081A3948F1529F0AA24A394F2E6FF12A12CEA2DDB
:203EE000F0E0E15DFE4F8081882309F4B4C0EB2DF0E0E75DFE4F8081B3948F1529F0BB24ED
:203F0000B39425E6F212B12CEB2DF0E0E75DFE4F80818111BFCF92E0F92E8EED95E00E94A9
:203F2000761167C083E0F82EB12CA12C63E28FE995E00E94F70FC5018F7099270F9711F496
:203F40000E94451E8FEFA81AB80A0A151B0571F76AE08FE995E00E94F70F0E94451E8091BE
:203F6000E8039091E9038F3F980729F001969093E9038093E80362EB75E082E095E00E9404
:203F8000A80EB40182E095E00E948B1284E795E0C6CFF12C0C0D1D1D560145018C189D08D5
:203FA000F50161915F018FE995E00E94F70FFFE08F2299242FE08216910411F40E94451E91
:203FC0000A151B0551F76AE08FE995E00E94F70F0E94451E81E080935D0410925C040E94FD
:203FE0009C0E6093F6027093F7028093F8029093F9020E949C0E6093F0027093F1028093CB
:20400000F2029093F3021092F50263E675E0F11002C06EE675E082E095E00E94A80EC601FB
:204020000E94A214F1E0FF1649F1F11019C010925E040E949C0E60935F047093600480930E
:204040006104909362041092AC031092AD031092AE03E72C62CEFF24F3948FE196E05FCF7B
:204060000E945D1222E0F21212C08091AC038F3F09F452CE8F5F8093AC034FCE8091AE031D
:204080008F3F09F449CE8F5F8093AE0346CE8091AD038F3F09F441CE8F5F8093AD033DCE21
:2040A0001F920F920FB60F9211242F933F938F939F93AF93BF938091F3039091F403A09147
:2040C000F503B091F6033091F20323E0230F2D3758F50196A11DB11D2093F2038093F3033E
:2040E0009093F403A093F503B093F6038091EE039091EF03A091F003B091F1030196A11D7C
:20410000B11D8093EE039093EF03A093F003B093F103BF91AF919F918F913F912F910F904C
:204120000FBE0F901F90189526E8230F0296A11DB11DD2CF1F920F920FB60F9211242F9303
:204140003F934F935F936F937F938F939F93AF93BF93EF93FF9382E095E00E944A0FFF9147
:20416000EF91BF91AF919F918F917F916F915F914F913F912F910F900FBE0F901F90189508
:204180001F920F920FB60F9211242F938F939F93EF93FF93E0911205F09113058081E09175
:2041A0001805F091190582FD1BC0908180911B058F5F8F7320911C05821741F0E0911B058A
:2041C000F0E0EE5FFA4F958F80931B05FF91EF919F918F912F910F900FBE0F901F9018959B
:2041E0008081F4CF1F920F920FB60F9211242F933F934F935F936F937F938F939F93AF93FC
:20420000BF93EF93FF93E0913C03F0913D03309749F0A685B7858585968D91FF14C09C91A2
:204220008923A1F4FF91EF91BF91AF919F918F917F916F915F914F913F912F910F900FBE71
:204240000F901F9018959C91892361F7A389B4899C918589809589238C93868997890197E7
:20426000F1F7608D718DA685B785558538E020E0CB010197F1F7822F90E095958795282F08
:204280004C91452309F02068315091F7868D81FD209580913B0390E001968F739927309130
:2042A0003A03381799F0A0913B03B0E0A650BD4F2C9380933B03828D938D0197F1F7A389FD
:2042C000B4898C919589892B8C93ACCF868D8160868FF1CF1F93CF93DF93282F30E0F90168
:2042E000E956FD4E8491F901EC5FF44ED491F901E051F54EC491CC23A9F0162F81110E946F
:20430000370EEC2FF0E0EE0FFF1FEA51F54EA591B4918FB7F894EC91111108C0D095DE23BA
:20432000DC938FBFDF91CF911F910895DE2BF8CF109205051092040588EE93E0A0E0B0E083
:204340008093060590930705A0930805B09309052FE531E0309303052093020525EC30E0B4
:2043600030930F0520930E0524EC30E0309311052093100520EC30E030931305209312051E
:2043800021EC30E0309315052093140522EC30E0309317052093160526EC30E03093190589
:2043A0002093180510921B0510921C0510921D0510921E051092A2051092A1058093A305D3
:2043C0009093A405A093A505B093A60581E791E09093A00580939F051092B6051092B50535
:2043E0001092B8051092B7051092BA051092B9051092BC051092BB056091BD056E7F6D7FEE
:204400006093BD056695617081E0682787E00E946A2161E087E00E94600EEBE0FBE1E491C3
:20442000E093AF05E7EFFAE1E491F0E0EE0FFF1FEA51F54E859194919093B1058093B005EA
:2044400060E088E00E94600E8091BD0581FD04C061E088E00E946A2188E08093AB05ECE0C2
:20446000FBE1E491E093AC05E8EFFAE1E491F0E0EE0FFF1FE452F54E859194919093AE052B
:204480008093AD050895CF93DF93CDB7DEB7C35DD1090FB6F894DEBF0FBECDBF789484B547
:2044A000826084BD84B5816084BD85B5826085BD85B5816085BD80916E00816080936E00E2
:2044C000109281008091810082608093810080918100816080938100809180008160809325
:2044E00080008091B10084608093B1008091B00081608093B00080917A00846080937A0071
:2045000080917A00826080937A0080917A00816080937A0080917A00806880937A00109206
:20452000C100E0911205F091130582E08083E0910E05F0910F051082E0911005F09111056C
:2045400080E1808310921A05E0911605F091170586E08083E0911405F0911505808180619D
:204560008083E0911405F0911505808188608083E0911405F0911505808180688083E091A5
:204580001405F091150580818F7D80831092BA051092B9051092B8051092B7051092B6057C
:2045A0001092B5058DE991E09093BC058093BB059091AB05963108F047C02DEB30E030937F
:2045C000B6052093B5052BE931E03093B8052093B7052CE231E03093BA052093B9052091DC
:2045E000680084E0983048F031E09E3008F430E081E001C0880F3A95EAF7822B8093680073
:204600002DE630E0983050F02BE630E09E3030F02CE630E0963110F030E020E03093B305EC
:204620002093B205292F30E0983008F097C181E001C0880F9A95EAF78093B4058091BB052A
:204640009091BC050197F1F78091B9059091BA05892B49F1E0913C03F0913D0305E0EF39DD
:20466000F00709F1309739F0A389B4899C918589809589238C938091BD058E7F8093BD0520
:2046800010923B0310923A038FE995E090933D0380933C03E091B205F091B3058081909136
:2046A000B405892B808310926E040E949C0E60936A0470936B0480936C0490936D0484EFCD
:2046C00091E090930901809308010E949C0E6093D5037093D6038093D7039093D80381E4DD
:2046E00080937C0080917A00806480937A0080917A0086FDFCCF4091780050917900052E80
:20470000000C660B770B3FB7F8948091EE039091EF03A091F003B091F10326B5A89B05C0C7
:204720002F3F19F00196A11DB11D3FBFBA2FA92F982F8827820F911DA11DB11D02E0880F66
:20474000991FAA1FBB1F0A95D1F78A019B01082719272A273B27481759076A077B0721F08B
:20476000C901B8010E948E2F1092FC041092FB0410E000E08091FB049091FC04002E02C023
:20478000969587950A94E2F780FF07C0F801E351F14F849162E00E94600E0F5F1F4F0A302B
:2047A000110541F7109201051092FE041092FD04109200051092FF048EEC91E09093FA0464
:2047C0008093F90465E97AE082E095E00E94A80E8AE00E9454126BE87AE082E095E00E945A
:2047E000A80E8CE00E94541289E79AE00E94761162E67AE082E095E00E94A80E8091BE05D7
:204800008111B9C088E29AE00E94761161EA79E082E095E00E94A80E66E679E082E095E031
:204820000E94A80E61E579E082E095E00E94A80E8DE499E00E9476118E010E551F4FC853C4
:20484000DF4F19830883C85CD0408E0101541F4FCC53DF4F19830883C45CD0408E010654F0
:204860001F4FCA53DF4F19830883C65CD0400E949C0E2B013C0180917504882309F4A4C0DB
:204880008091E303882339F18091660490916704A0916804B0916904A3019201281B390B3C
:2048A0004A0B5B0BDA01C90180339547A105B10594F06AE97EE082E095E00E94A80E809138
:2048C000E3030E94541285E99EE00E9476111092E3031092E2030E94451E8091A40388235E
:2048E000A9F080E6E4E4F3E0A9EFB3E001900D928A95E1F780914203909143039093800468
:2049000080937F041092A4030E94751810E000E0C653DF4F19821882CA5CD040D02E8091F8
:204920000105882309F47EC28091FD049091FE04002E02C0969587950A94E2F780FF72C2F3
:204940008091FF04909100050D2C02C0969587950A94E2F7817009F099C2ADC29E3040F4AE
:204960002850310981E001C0880F2A95EAF764CE2E503109F7CF80FF06C065E17AE082E035
:2049800095E00E94A80E8091BE0581FF06C06BEF79E082E095E00E94A80E8091BE0582FFF9
:2049A00006C068ED79E082E095E00E94A80E8091BE0583FF06C06DEC79E082E095E00E940D
:2049C000A80E0E94701122CF8091E103882379F077FC0DC01092E1030E94BB126CED75E021
:2049E00081E00E944B1181EB9AE00E9476118091E103811170CF80916A0490916B04A09143
:204A00006C04B0916D04B301A201481B590B6A0B7B0B8091080190910901B0E0A0E04817A7
:204A200059076A077B0708F456CF80916E04853059F480917C04811107C085E49EE00E940A
:204A4000761182E080936E0410916E04123091F480917A04882309F455C010927A04809191
:204A60007B048A3F18F48F5F80937B0481E00E94FC1231CF1B3008F060C0E12FF0E0ED5BC6
:204A8000FA4D0C942E304E255F259D25C5251026312656269926BA26DB26FF266BE57DE0B3
:204AA0008FE995E00E94A80E6FE47DE082E095E00E94A80E0E94701110927A043EC061E44C
:204AC0007DE08FE995E00E94A80E60E37DE082E095E00E94A80E0E94701181E080930A01C3
:204AE00040926A0450926B0460926C0470926D0480E293E090930901809308011F5F109311
:204B00006E04E9CE61E07DE08FE995E00E94A80E6AEC7CE082E095E00E94A80E0E94701185
:204B200081E080937A040E949C0E60933E0370933F03809340039093410310930A01409281
:204B40006A0450926B0460926C0470926D04E12FF0E0EE0FFF1FEC5CFE4F808191819093FB
:204B6000090180930801EEEFE10FE93038F6F0E0E454FA4D0C942E30FD26E4252F265026B7
:204B80007526B826D926FA26FD266FEB7CE08FE995E00E94A80E61E97CE082E095E00E9440
:204BA000A80E0E94701183E080930A0140926A0450926B0460926C0470926D0484EC99E04C
:204BC0009093090180930801809173048F5F80937304833008F41CC180917404109273045E
:204BE0001092740481110C94C82E80917204811102C00E94A01281EB9DE00E94761182E0D0
:204C000080936E0480E00E94FC1280916E04833009F061CE68EE73E082E00E944B115BCE6F
:204C200063E87CE08FE995E00E94A80E62E77CE082E095E00E94A80E0E94701184E080931A
:204C40000A0140926A0450926B0460926C0470926D0480EB94E0909309018093080185E056
:204C6000D8C069E47CE08FE995E00E94A80E68E37CE082E095E00E94A80E0E94701185E050
:204C800080930A0140926A0450926B0460926C0470926D0480E49FE1909309018093080163
:204CA00080916F048823D9F286E0B3C06AE27CE08FE995E00E94A80E62E07CE082E095E0BF
:204CC0000E94A80E0E94701186E080930A0140926A0450926B0460926C0470926D0480E20D
:204CE00093E0909309018093080180915B048F5F80935B04833008F48FC061EA7DE082E020
:204D000095E00E94A80E80915B040E94541284E69DE00E94761110926E0410926F04109273
:204D20005B0488EC90E0909309018093080182E09ECE69EF7BE08FE995E00E94A80E62EDD2
:204D40007BE082E095E00E94A80E0E94701187E080930A0140926A0450926B0460926C042E
:204D600070926D048CED95E0909309018093080188E04FC063EB7BE08FE995E00E94A80E24
:204D800069E77BE082E095E00E94A80E0E94701188E080930A0140926A0450926B0460920D
:204DA0006C0470926D048CED95E0909309018093080189E02EC06EE67BE08FE995E00E9444
:204DC000A80E62E47BE082E095E00E94A80E0E94701189E080930A0140926A0450926B0412
:204DE00060926C0470926D0488E293E2909309018093080181E08093700482E00AC067E358
:204E00007BE08FE995E00E94A80E65E07BE04ECE83E080936E045FCD83E080936E04109298
:204E2000730459CD8091FB049091FC040D2C02C0969587950A94E2F780FFC8C0F801E351B7
:204E4000F14FE4912E2F30E0F901E956FD4E8491F901EC5FF44EE490F901E051F54EF490AA
:204E6000FF20A1F081110E94370EEF2DF0E0EE0FFF1FE452F54EA591B491EC91EE2281E020
:204E800090E011F490E080E0892BA9F481E090E002C0880F991FDA94E2F7C653DF4F488143
:204EA0005981CA5CD040482B592BC653DF4F59834883CA5CD0400F5F1F4F0A30110509F0A2
:204EC0002DCDC653DF4F08811981CA5CD0401093F6040093F504809101050091FD041091C5
:204EE000FE04811102C00FEF1FEFC453DF4F19830883CC5CD0408091040190910501C65356
:204F0000DF4F08811981CA5CD04080179107C9F42091F7043091F80480910201909103017C
:204F20002817390771F48091000190910101C453DF4F08811981CC5CD0408017910709F48C
:204F40004AC08091B003811103C081E08093B003C090D503D090D603E090D703F090D80301
:204F60008090C9039090CA03A090CB03B090CC03909175048091AF032091C7033091C803F7
:204F8000B301A2014C195D096E097F09403B14E051076105710510F1E0EBCE0EE4E0DE1EE5
:204FA000E11CF11C992339F0811105C02F3F320711F02F5F3F4F0FEF801A900AA00AB00A51
:204FC000405B54406109710980E0E0CF8091F9049091FA04B9CC1092B003BACF8093AF035A
:204FE0003093C8032093C703C092D503D092D603E092D703F092D8038092C9039092CA03CB
:20500000A092CB03B092CC0348535F4F6F4F7F4F21E08227493552406105710508F080E0BC
:20502000992309F490C040915F0450916004609161047091620493018201041B150B260BAA
:20504000370BB901A80140315742610571050CF405C368ED70E182E095E00E94A80E809117
:205060005F0490916004A0916104B0916204B301A201481B590B6A0B7B0B82E095E00E9479
:2050800051126EEA70E182E095E00E94A80E8091AE030E94541260EA70E182E095E00E94F7
:2050A000A80E8091AD030E94541265E970E182E095E00E94A80E8091AC030E9454126EE786
:2050C00070E182E095E00E94A80E6091B1037091B20382E095E00E948B126DE670E182E0D9
:2050E00095E00E94A80E6091CF037091D00382E095E00E948B1260E670E182E095E00E9426
:20510000A80E6091590470915A0482E095E00E948B1262E570E182E095E00E94A80E60915E
:20512000D1037091D20382E095E00E948B1281E390E10E9476111092AC031092AD0310926C
:20514000AE030E94F5108091D9039091DA03A091DB03B091DC03A3019201281B390B4A0BCA
:205160005B0BDA01C90180369A4EA105B10508F4A8C1809175048823C9F08091D5039091CD
:20518000D603A091D703B091D80393018201081B190B2A0B3B0BD901C801C296A11DB11DAF
:2051A00089359240A105B10508F08BC14092D9035092DA036092DB037092DC0364ED71E1FE
:2051C00082E095E00E94A80EC301B20128EE33E040E050E00E94C92FBA01A90182E095E0DA
:2051E0000E9451126DEC71E182E095E00E94A80E6091D3037091D40382E095E00E948B121B
:2052000064EC71E182E095E00E94A80E6091D1037091D20382E095E00E948B126CEB71E163
:2052200082E095E00E94A80E70E060E082E095E00E948B128FE20E94B90F60916304709165
:20524000640482E095E00E948B1263EB71E182E095E00E94A80E6091E8037091E90382E0D6
:2052600095E00E948B1268EA71E182E095E00E94A80E6091590470915A0482E095E00E9481
:205280008B1261EA71E182E095E00E94A80E6091CF037091D00382E095E00E948B1269E9A6
:2052A00071E182E095E00E94A80E6091CD037091CE0382E095E00E948B1262E971E182E0C5
:2052C00095E00E94A80E8091EF040E94541268E871E182E095E00E94A80E6091F10470913D
:2052E000F20482E095E00E948B126DE771E182E095E00E94A80E6091F3047091F40482E08A
:2053000095E00E948B1266E771E182E095E00E94A80E4091C9035091CA036091CB03709100
:20532000CC0382E095E00E94511260E771E182E095E00E94A80E60917D0470917E0482E0A3
:2053400095E00E948B1268E671E182E095E00E94A80E6091C7037091C80382E095E00E94CA
:205360008B1260E671E182E095E00E94A80E6091C5037091C60382E095E00E948B1266E5E5
:2053800071E182E095E00E94A80E6091C3037091C40382E095E00E948B12A090C103B090C3
:2053A000C203E090BF03F090C003C090BD03D090BE030091BB031091BC036BE471E182E0D0
:2053C00095E00E94A80EB50182E095E00E948B1260E471E182E095E00E94A80E6091B903C2
:2053E0007091BA0382E095E00E948B1265E371E182E095E00E94A80E6091B7037091B803A9
:2054000082E095E00E948B126BE271E182E095E00E94A80E6091B5037091B60382E095E06E
:205420000E948B1261E271E182E095E00E94A80E6091B3037091B40382E095E00E948B12F4
:2054400067E171E182E095E00E94A80EB60182E095E00E948B126EE071E182E095E00E949D
:20546000A80EB70182E095E00E948B1262E071E182E095E00E94A80EB80182E095E00E94B3
:205480008B126BEF70E182E095E00E94A80E6091B1037091B20382E095E00E948B1262EFD3
:2054A00070E182E095E00E94A80E4091750450E070E060E02AE082E095E00E9405120E9426
:2054C00070118091750481117FC08091E4039091E503A091E603B091E703A3019201281B30
:2054E000390B4A0B5B0BDA01C901883B9B40A105B10508F469C04092E4035092E503609274
:20550000E6037092E70364E172E182E095E00E94A80E80916E040E94541268E072E182E067
:2055200095E00E94A80E8091E3030E9454128FE20E94B90F8091E2030E9454128091E103D1
:20554000882331F062EF71E182E095E00E94A80E6DEE71E182E095E00E94A80E4091DD0320
:205560005091DE036091DF037091E00382E095E00E94511265EE71E182E095E00E94A80E02
:205580004091810450918204609183047091840482E095E00E94511260EE71E182E095E0FA
:2055A0000E94A80EC301B20128EE33E040E050E00E94C92FBA01A90182E095E00E945112C8
:2055C0008EED91E10E9476118091EA039091EB03A091EC03B091ED0393018201081B190BF9
:2055E0002A0B3B0BD901C80180369A4EA105B10540F14092EA035092EB036092EC037092F0
:20560000ED0368E772E182E095E00E94A80E609106017091070182E095E00E948B126AE563
:2056200072E182E095E00E94A80E6091E8037091E90382E095E00E948B1289E292E10E9489
:20564000761180E090E0892B09F411C90E94360F882309F403C90E940000F7C8882309F404
:2056600072CD0091F7041091F804C253DF4F19830883CE5CD0400E949C0E9B01AC012C1944
:205680003D094E095F09C053DF4F288339834A835B83C05DD0401091F803AE014F5F5F4FDE
:2056A0001A01112309F47FC11F928CE08F931F9287E08F9387E392E09F938F931F9281EA99
:2056C0008F935F934F930E9479300FB6F894DEBF0FBECDBF181619060CF0BEC09C012D5F52
:2056E0003F4F223A310508F0B7C0682FC1010E942211F10101900020E9F731975F01A21888
:20570000B308F12CE12C62E4862E62E0962EF701E950F14FE491C154DF4FE883CF5BD040D6
:20572000F701E850F14FE491C054DF4FE883C05CD040CF53DF4F1882C15CD0409E0126547B
:205740003F4F90E080E0D901A7014650514FFA01E80FF91F6491F90161939F01662339F0F4
:2057600001968330910599F713961C921397BF93AF93CB53DF4FF881C55CD040FF93CC537D
:20578000DF4F0881C45CD0400F939F928F921F9218E11F93C753DF4F2881C95CD0402F93EA
:2057A000C853DF4F3881C85CD0403F930E9479300FB6F894DEBF0FBECDBF181619060CF006
:2057C0004BC09C012D5F3F4F2931310508F044C0682FCE018E559F4F0E942211C853DF4F26
:2057E000E881F981C85CD04001900020E9F731978F01C853DF4F88819981C85CD040081BE6
:20580000190BC501805A9109800F911F8F359F4F18F16501FFEFCF1ADF0AF101EA0DFB1D09
:205820002AE02083A8014F5F5F4FBE016E557F4FC1018C0D9D1D0E9434305801AC0CBD1C61
:2058400038E0E30EF11C40E6E416F10409F05FCFA114B10409F07AC085EB9FE00E94761141
:20586000B12CA12CF12C10E081E08093AF0367E270E182E095E00E94A80E4091C903509104
:20588000CA036091CB037091CC0382E095E00E94511262E270E182E095E00E94A80EB50156
:2058A00082E095E00E948B126CE170E182E095E00E94A80E8F2D0E94541266E170E182E047
:2058C00095E00E94A80EC053DF4F488159816A817B81C05DD04082E095E00E94511281E1C5
:2058E00090E1111102C08CE090E10E9476110E949C0E112309F427CC8091AA039091AB0350
:2059000001969093AB038093AA03C653DF4F08811981CA5CD0401093050100930401C25369
:20592000DF4F08811981CE5CD0401093030100930201C453DF4F08811981CC5CD04010935C
:205940000101009300011092B003FDCBB501C1010E94661E182F882309F420C21092F80388
:205960008091A8039091A9038F3F980729F001969093A9038093A80367EA7FE082E095E06D
:205980000E94A80E6DE97FE082E095E00E94A80EB50182E095E00E948B1285EA9FE00E946F
:2059A0007611F12C61CFE090F504F090F6040091A50301118DC0C501B40124E130E040E0E8
:2059C00050E00E94C92F6A3071058105910520F46894F2F8011180C0C501B4012EE030E0EC
:2059E00040E050E00E94C92F673071058105910508F47AC0BE0161547F4FC7010E94C70DDE
:205A0000BE0166547F4F8091F7049091F8040E94C70D0091AA03F090AB0380910105882372
:205A200009F465C0BE016E557F4F8091FD049091FE040E94C70D0E949C0EC753DF4FE8814C
:205A4000C95CD040EF93C853DF4FF881C85CD040FF932BE432E03F932F9328EE33E040E009
:205A600050E00E94C92F5F934F933F932F93C953DF4F2881C75CD0402F93CA53DF4F388108
:205A8000C65CD0403F93CB53DF4F4881C55CD0404F93CC53DF4F5881C45CD0405F93FF9201
:205AA0000F938EE492E09F938F931F9280E48F933F922F920E9479300FB6F894DEBF0FBE3D
:205AC000CDBF181619060CF448C0B12CA12C69CF8091A60380FD7CCF8091A6039091A703FC
:205AE0009695879580FF86CF6894F3F883CF0E949C0E2BE432E03F932F9328EE33E040E008
:205B000050E00E94C92F5F934F933F932F93C953DF4FF881C75CD040FF93CA53DF4F2881D7
:205B2000C65CD0402F93CB53DF4F3881C55CD0403F93CC53DF4F4881C45CD0404F93FF92B0
:205B40000F9384E692E09F938F931F9280E48F933F922F920E947930AFCF9C012D5F3F4F2A
:205B60002134310508F0B1CF682FC1010E942211F10101900020E9F731975F01A218B308D4
:205B8000AA2009F4A2CFBB24F090EF04FF2009F44BC08091F00490E0FC01EE0FFF1FE9528C
:205BA000FB4F40815181B091D60425E834E0A0E0BA1709F460C02B5F3F4FF901359760819F
:205BC00071814617570709F054C0A7FD54C0F12C95E0D92E28E1C22E3AE0E32E8091EF0492
:205BE000F81610F58091F0048F0D9927991F6CE070E00E941A30FC01EE0FFF1FE952FB4F54
:205C0000408151813091D60485E894E020E0321759F00596FC0135976081718146175707F1
:205C200009F044C027FF44C0B501C1010E94661E182F882309F418CEFF2081F08091F00435
:205C40008F0D9927991F6CE070E00E941A308093F0048091EF048F198093EF048091F703E4
:205C6000882329F01092F70381E08093F80311E0FBCDAF5F9DCF01966CE070E00E941A3003
:205C80008093F004FA94F092EF048091F3049091F4048F3F980729F001969093F40480938E
:205CA000F30487E59FE00E9476116ECF2F5FAFCF0D2D2003F0011124EB57FB4F84811F92CB
:205CC0008F938381282F082E000C330B3F938F938281282F082E000C330B3F938F93818103
:205CE0008F9380818F9327E732E03F932F931F92CF92C753DF4F5881C95CD0405F93C85336
:205D0000DF4F8881C85CD0408F930E9479300FB6F894DEBF0FBECDBF181619060CF084CFC8
:205D20009C012D5F3F4F2931310508F07DCF682FCE018E559F4F0E942211C853DF4FE8811A
:205D4000F981C85CD04001900020E9F73197AF01C853DF4F08811981C85CD040401B510B35
:205D60005527C50101968C01040F151F013A110508F05ACFF101EA0DFB1DE082BE016E551F
:205D80007F4F820D931D0E943430F394580126CF8EEE9DE00E9476110C94FB2567EA7FE089
:205DA00082E095E00E94A80E65E97FE0EDCD81E791E09093A00580939F0580913C03909184
:205DC0003D038F59954071F4E091B205F091B30590818091B40580958923808310923D037F
:205DE00010923C0308958F929F92AF92BF92CF92DF92EF92FF92CF93DF93EC0168817981B9
:205E00008A819B81611571058105910521F464E279ED8BE597E02DE133EF41E050E00E9488
:205E2000972F49015A019B01AC01A7EAB1E40E94B62F6B017C01ACEEB4EFA50194010E94FE
:205E4000C42FC60ED71EE81EF91EF7FE06C081E0C81AD108E10880E8F80AC882D982EA822E
:205E6000FB82C701B6019F77DF91CF91FF90EF90DF90CF90BF90AF909F908F9008958F92CA
:205E80009F92AF92BF92CF92DF92EF92FF9260910B0170910C0180910D0190910E0161158B
:205EA00071058105910521F464E279ED8BE597E02DE133EF41E050E00E94972F49015A011A
:205EC0009B01AC01A7EAB1E40E94B62F6B017C01ACEEB4EFA50194010E94C42FC60ED71E0D
:205EE000E81EF91EF7FE06C081E0C81AD108E10880E8F80AC0920B01D0920C01E0920D010E
:205F0000F0920E01C701B6019F77FF90EF90DF90CF90BF90AF909F908F90089560930B0107
:205F200070930C0180930D0190930E010895052E97FB1EF400940E94AE2F57FD07D00E94AA
:205F4000C92F07FC03D04EF40C94AE2F50954095309521953F4F4F4F5F4F089590958095CE
:205F6000709561957F4F8F4F9F4F08950E94EB2FA59F900DB49F900DA49F800D911D1124AF
:205F80000895B7FF0C94B62F0E94B62F821B930B0895A1E21A2EAA1BBB1BFD010DC0AA1FD0
:205FA000BB1FEE1FFF1FA217B307E407F50720F0A21BB30BE40BF50B661F771F881F991F8E
:205FC0001A9469F760957095809590959B01AC01BD01CF010895A29FB001B39FC001A39FC4
:205FE000700D811D1124911DB29F700D811D1124911D0895991B79E004C0991F961708F089
:20600000961B881F7A95C9F780950895AA1BBB1B51E107C0AA1FBB1FA617B70710F0A61B34
:20602000B70B881F991F5A95A9F780959095BC01CD01089597FB072E16F4009407D077FD9E
:2060400009D00E94063007FC05D03EF4909581959F4F0895709561957F4F0895EE0FFF1F3E
:206060000590F491E02D0994FB01DC0102C001900D9241505040D8F70895FC018191861758
:2060800021F08823D9F7992708953197CF010895FB01DC018D91019080190110D9F3990B40
:2060A0000895FB01DC014150504030F08D910190801919F40020B9F7881B990B0895FB0124
:2060C00051915523A9F0BF01DC014D9145174111E1F759F4CD010190002049F04D91401594
:2060E0004111C9F3FB014111EFCF81E090E001970895AEE0B0E0EFE7F0E30C9435330D891B
:206100001E898F89988D26E02C831A83098397FF02C080E090E801979E838D83AE01455E72
:206120005F4F698D7A8DCE0101960E94A9304D815E8157FD0AC02F813885421753070CF4E8
:206140009A01020F131FF80110822E96E4E00C945133ABE0B0E0EFEAF0E30C9427337C01EC
:206160003B018A01FC0117821682838181FFC8C1CE0101965C01F7019381F30193FD8591B4
:2061800093FF81913F01882309F453C1853239F493FD859193FF81913F01853229F4B70165
:2061A00090E00E949932E7CF912C212C312CFFE1F31538F08B3211F190F4803209F1833231
:2061C00029F137FC3CC020ED280F2A3050F536FE20C08AE0989E200D1124922E06C08D3238
:2061E00091F0803371F7689430F8F30193FD859193FF81913F018111DACF21C0689431F820
:20620000689432F8F2CF689433F8EFCF689434F8ECCFEAE02E9E200D1124222E689435F85E
:20622000E4CF8E3229F436FC04C1689436F8DDCF8C3619F4689437F8D8CF8836B1F2982F38
:206240009F7D95549330E0F08336A1F18337C1F1833509F063C02801F2E04F0E511CF8015D
:20626000C080D180692D70E036FC02C06FEF7FEFC6010E9483324C01689437F882010AC004
:206280000C5F1F4FFFE3F98388248394912C6501E89437F833FE2DC0522C8114910471F50A
:2062A000552009F468CFB70180E290E00E9499325A94F6CFF801808189830E5F1F4FE4CFF7
:2062C0002801F2E04F0E511CF801C080D180692D70E036FC02C06FEF7FEFC6010E948E32A0
:2062E0004C018201D5CFB70180E290E00E9499322A942814190409F0B0F7CECFF60137FCB5
:20630000859137FE81916F01B70190E00E94993251105A94F1E08F1A9108BFCF843619F068
:20632000893609F077C0F80137FE6BC060817181828193810C5F1F4FF32DFF763F2E97FFBA
:2063400009C090958095709561957F4F8F4F9F4F689437F82AE030E0A5010E94C932C82E27
:20636000CA188C2C432C36FE0CC0E89440F8C91440F434FE05C032FC03C0F32DFE7E4F2E4E
:20638000892C44FE95C0FE01EC0DF11D8081803309F087C0242D297E422E842D8870582E20
:2063A00043FC95C040FE8FC09C2C821418F42C0C922C981844FE91C0B70180E390E00E94EC
:2063C000993242FE09C088E790E041FE02C088E590E0B7010E949932C91408F48AC0CA9486
:2063E000D12C9FEFC91AD90ACA0CDB1CF60182916F01B70190E00E949932AC14BD04B1F747
:206400004FCF60817181072E000C880B990B0E5F1F4F92CFD32CE894D4F82AE030E08537BA
:2064200039F1232D297FD22E8F3601F148F48835A9F0F701868197812B96E2E10C94433340
:20644000803749F08837A9F7D4FE02C06894D2F820E130E00DC06894D4F8F6CF34FE03C033
:20646000822F8660D82E20E132E002C028E030E0F801D7FE0FC060817181828193810C5FA0
:206480001F4FA5010E94C932C82ECA183D2CE89437F867CF6081718190E080E00E5F1F4FAB
:2064A000F0CF42FC02C0839478CF8394839475CF842D867809F471CFF6CFB70180E290E012
:2064C0000E94993283948214C0F3512C73CF522C5818821408F46ECFF8CF842D867809F400
:2064E0007BCF8BE241FE80E247FC8DE2B70190E071CFB70180E390E00E9499329A946CCFC9
:206500008FEF9FEF99CFFC010590615070400110D8F7809590958E0F9F1F0895FC01615054
:20652000704001900110D8F7809590958E0F9F1F08950F931F93CF93DF93182F092FEB0175
:206540008B8181FD09C01FEF0FEF812F902FDF91CF911F910F91089582FF14C02E813F81EC
:206560008C819D81281739073CF4E881F981CF0101969983888310838E819F8101969F8355
:206580008E83E3CFE885F985812F0995892BA1F3DACFFA01AA27283051F1203181F1E89469
:2065A0006F936E7F6E5F7F4F8F4F9F4FAF4FB1E03ED0B4E03CD0670F781F891F9A1FA11D1C
:2065C000680F791F8A1F911DA11D6A0F711D811D911DA11D20D009F468943F912AE0269FFE
:2065E00011243019305D3193DEF6CF010895462F4770405D4193B3E00FD0C9F7F6CF462F82
:206600004F70405D4A3318F0495D31FD4052419302D0A9F7EACFB4E0A69597958795779511
:206620006795BA95C9F700976105710508959B01AC010A2E06945795479537952795BA9585
:20664000C9F7620F731F841F951FA01D08952F923F924F925F926F927F928F929F92AF92BD
:20666000BF92CF92DF92EF92FF920F931F93CF93DF93CDB7DEB7CA1BDB0B0FB6F894DEBFEB
:206680000FBECDBF09942A88398848885F846E847D848C849B84AA84B984C884DF80EE8038
:2066A000FD800C811B81AA81B981CE0FD11D0FB6F894DEBF0FBECDBFED0108951DE0CDE880
:2066C000DDE004C0FE010E942E302196CE38D107C9F7F894FFCFFEFFFFFFFFFFFFFFF4019F
:2066E000FF0100000053454E44204F4B00000000008813983A307560EA0102020202FF65ED
:2067000072726F72006275737900C40920033075C409B004401F2003DC05DC052823B80B89
:206720003031323334353637383941424344454600000000006C0FCC0EF90EBE0F2A0F084D
:206740000F1C0F00000000F70FCC0E8A10F60F53106910DE0F0D0A002B4950442C005749CC
:20676000464900474F5420495000444953434F4E4E4543540062757379002B43574A41509A
:206780003A004552524F52006E6F2061700041542B006E6F206368616E6765002B43574C33
:2067A00041503A00534B5F5769466947494741353044435F322E3447006E6F20697000414D
:2067C0004C524541004C494E4B454400434C4F53454400556E6C696E6B00554E4C494E4BE2
:2067E000006C696E6B206973206E6F742076616C69640053454E44204F4B0053454E442020
:206800004641494C00302E302E302E3000442C2A2C25752C25752C00442C25732C25732CC8
:2068200000503100532C25752C25732C25732C256C752C25732C25732C00532C25752C25E6
:20684000732C25732C256C752C25732C00412C25752C256325632C25752C0000FFFFFFFFAE
:20686000FFFFFFFFFFFFFFFFFFFFFFFFFFFFFFFFFFFFFFFFFFFFFFFFFFFFFFFFFFFFFFFF38
:20688000FFFFFFFFFFFFFFFFFFFFFFFFFFFFFFFFFFFFFFFFFFFFFFFFFFFFFFFFFFFFFFFF18
:2068A000FFFFFFFFFFFFFFFFFFFFFFFFFFFFFFFFFFFFFFFFFFFFFFFFFFFFFFFFFFFFFFFFF8
:2068C000FFFFFFFFFFFFFFFFFFFFFFFFFFFFFFFFFFFFFFFFFFFFFFFFFFFFFFFFFFFFFFFFD8
:207E0000112484B714BE81FFF0D085E08093810082E08093C00088E18093C10086E08093FC
:207E2000C20080E18093C4008EE0C9D0259A86E020E33CEF91E0309385002093840096BBAD
:207E4000B09BFECF1D9AA8958150A9F7CC24DD2488248394B5E0AB2EA1E19A2EF3E0BF2E79
