:020000040000FA
:100000000C94AB0D0C94E20D0C94E20D0C941121A8
:100010000C9411210C9411210C94E20D0C94E20D1E
:100020000C94E20D0C94E20D0C94E20D0C94E20D94
:100030000C94E20D0C94E20D0C94E20D0C94E20D84
:100040000C946F200C94E20D0C94DF200C94B920DA
:100050000C94E20D0C94E20D0C94E20D0C94E20D64
:100060000C94E20D0C94E20DEBB094EC9DB4ED8A8F
:10007000B8EBA5BC20EB8498EC96B420EBB284EBF3
:10008000A0B8EB8BA4005B44524F502D4F56465DF9
:1000900020ECA484EC9DB42000EBB094EC9DB4ED76
:1000A0008AB820EBB284EBA6BC202B20ECA48420E1
:1000B000ECA1B0EBA6BD20ECB488EAB8B0ED999401
:1000C000005B4C41444445525D2031EB8BA820EC51
:1000D000A1B0ECB9983A20EC8B9CEBA6ACEC96BCAA
:1000E00020EB939CEBA088EC9DB82000ECB488201A
:1000F000EBB0B1EC98A4ED9484EBA19C20EB90982C
:10010000ED9280EC9DB4ED959CEB8BA428ECA28540
:10011000ECB0A9EC97AD29005B4C41444445525DDD
:10012000202020EB8C80EC8BA02034EB8BA820ECE3
:10013000A1B0ECB998EBA5BC20005B4C4144444510
:10014000525D202020ED9584EC9A9420EBB680ED52
:1001500092883A20EBA19CEC9AB0EC82ACEC9DB476
:10016000EB939C204D4F5346455420EC8AA4EC9CC5
:1001700084ECB99828EC98883A20324E37303030E9
:100180002F414F33343030202B2031306B29005B2E
:100190004C41444445525D20E29AA035EB8BA820A7
:1001A000EBAFB8EC8BA4ED96893A20ECA084EC9BE5
:1001B0009020EC9EACED88ACEC9E85EC9D80202AD6
:1001C0002AEBB680ED928820EBAFB8EBB3B4EC9C91
:1001D000A0EBA19C20EBAFB8EAB5ACED98842A2A3D
:1001E000EC9DB4EB8BA428EBB0B0ECA09CEAB08003
:1001F00020EC9584EB8B88EB8BA42900ECB4882051
:10020000EC89ACEAB3A02041542B52535420EBA507
:10021000BC20EB9098ED9280EC9DB4ED959CEB8B1F
:10022000A42028EC9DB4EAB283EC9DB420ECA09508
:10023000EC838120EAB2BDEBA19CEB8BA429005B8F
:100240004C41444445525D202020E2869220005BD0
:100250004C41444445525D202020EC9CA0EC9DBCC8
:10026000ED9598EAB28C20ED9280EBA6ACEB8A94E7
:1002700020ED8E8CEC9BA8EC96B42068616E672014
:10028000EC9D8020EC86A1EC8898EC8BA020EBA163
:100290009CECA78120EC9EACEC84A4EAB384EBA197
:1002A0009C20ECA09CEAB1B0ED9688EB8BA4005B9F
:1002B0004C41444445525D202020ECA084EC9B90AE
:1002C000C2B7454EC2B75253542D4C4F5720EC8302
:1002D00081ED839CEBA9B42052535420ED9580EC22
:1002E0009D8420ED9D94EB93A4EC96B4EB8F842039
:1002F000EB8F99EC9DBCED9598EAB3A02C005B4C7C
:1003000041444445525D2034EB8BA820EAB1B4EB64
:100310008488EB9C803A20ED9598EB939CEC9BA80D
:10032000EC96B420EBA6ACEC858BEC9D80202A2AC1
:10033000EC84A4EAB384EC838120EBB0B0ECA09C05
:100340002A2AEB8BA428EBAFB8EBB0B0EC84A0EC7E
:100350009DB420EC9584EB8B88EB8BA42900ECB446
:100360008820EC89ACEAB3A02041542B525354208E
:1003700028EBAAA8EB938820EC868CED9484ED8A78
:10038000B820EBA6ACEC858B29005B4C414444457E
:10039000525D2033EB8BA820ECA1B0ECB9983A2049
:1003A00000ECB48820EC89ACEAB3A02041542B4384
:1003B0005751415020EBA19C20EAB2B0ED95A9EC39
:1003C0009D8420EBAA85EC8B9CECA081EC9CBCEB83
:1003D000A19C20EB818AEC9D8020EB92A420EB8BEA
:1003E000A4EC8B9C20EBB699EB8A94EB8BA4005B7E
:1003F0004C41444445525D2032EB8BA820ECA1B027
:10040000ECB9983A2000EB8BA8005B4C4144444582
:10041000525D20E28691E2869120EB8BA820EC834E
:1004200081EC8AB920E2869220005B4C414444452D
:10043000525D20E286912033EB8BA82841542B5249
:1004400053542920ECA781ED968920E28094204125
:100450005420EAB384ECB8B5EC9DB420EC9EA0EA3D
:10046000B2BCEC9CBCEBA9B420EC9584EB9E98202C
:10047000EB8BA8EC9D8020EC9D98EBAFB8EAB080A8
:1004800020EC9786EB8BA400ED9A8C20EB8884EC13
:10049000A0812900EB8BA8280020C2B720ED98840A
:1004A000EC9EAC2000EC9786EC9D8C00ED9A8C20A5
:1004B000C2B720EAB2B0ED95A9EC9CA0ECA78020D1
:1004C000007320C2B720EC97B0EC868D2000292065
:1004D00043574A4150EC868CEC9A94200043574A8B
:1004E0004150204641494C00415420EAB384ECB8C5
:1004F000B520EC9EA0EAB9800043574A415020EB5A
:10050000ACB4EC9D91EB8BB5005B4C41444445523F
:100510005D20EC8BA4ED8CA828005B4C4144444545
:10052000525D2031ECB48820EC9588EC979020EB5C
:1005300093A4EC96B4EC98A820ECA491EBB3B5206E
:10054000EC8BA4ED8CA820EC8BA0ED98B820E28079
:100550009420EC84B8ECA78020EC958AEB8A94EB8D
:100560008BA4005B54582D44524F505D20005B54C7
:10057000585D2000EBB094EC9DB4ED8AB8EBA19CE3
:1005800020EC8AA4ED8AB8EBA6BC20EBB3B5EAB5A3
:10059000AC28EC849CEBB284EB8A9420EC9DB420D4
:1005A000ECA484EC9D8420EBB284EBA6B0EB8BA48E
:1005B00029005B54582D524553594E435D20ED940C
:1005C00084EBA1ACED9484ED8AB820EB8693ECB972
:1005D000A820E2869220EB8D94EBAFB820005B540C
:1005E000582D52454A4543545D2043495053454E8A
:1005F0004420EAB1B0EBB680284552524F52292030
:10060000E2809420EB8D94EBAFB8EBA5BC20EB849B
:10061000A3ECA78020EC958AEB8A94EB8BA4005B7B
:1006200054582D425553595D2045535020EAB0800F
:1006300020EBB094EC8198EB8BA428EAB1B0EBB638
:10064000802920E2809420EC8BA4ED8CA8EBA19C67
:1006500020EC84B8ECA78020EC958AEB8A94EB8B95
:10066000A42E20EB8BA4EC9D8C20ECA3BCEAB8B0AC
:10067000EC979020EB8BA4EC8B9C20EBB3B4EB823B
:10068000B8EB8BA4000D0A0041542B43495053454D
:100690004E443D005B54582D574149545D20E2982B
:1006A00085E2988520543220ECB488EAB3BC20E27D
:1006B00080942053454E44204F4B20EAB08020EBDD
:1006C000819DEB82B420EC958820EC98A8EB8BA45C
:1006D00020E2869220EBA781ED81ACEBA5BC20EB5C
:1006E0008BA4EC8B9C20EC84B8EC9AB4EB8BA4002C
:1006F0005B54582D574149545D20EC959E20ECA049
:1007000084EC86A1EC9D982053454E44204F4B200D
:10071000EBA5BC20EC9584ECA78120EBAABB20EBD9
:10072000B4A4EB8BA420E2809420EC9DB4EBB288BF
:1007300020ECA3BCEAB8B0EB8A9420EAB1B4EB8415
:1007400088EB9BB4EB8BA4005B54582D5741495464
:100750005D20E2988520543120ECB488EAB3BC20B7
:10076000E2809420EAB7B8EB9E98EB8F8420EAB33E
:1007700084EC868D20EAB8B0EB8BA4EBA6B0EB8BB3
:10078000A428EB9190EB93A4EAB8B0ECA78020ECFE
:10079000958AEB8A94EB8BA429005B424144205359
:1007A0004C4F545D207269643D005B53494D5D20A0
:1007B000EC9DB420EC9EA5ECB998EB8A9420EC8BD0
:1007C0009CEBAEAC20EC8381ED839CEAB08020EC06
:1007D0009786EB8BA420E2869220726573756C7409
:1007E0003D35005B424144204649454C44535D2021
:1007F0007269643D005B445550207269645D20005D
:100800005B5245475D205120EC8898EC8BA020E29C
:10081000809420EB8BA4EC9D8C20EC86A1EC8BA02B
:1008200020ECB0BDEC979020EB93B1EBA19DEC9D3B
:100830008420EB8BA4EC8B9C20EBB3B4EB82B8EB65
:100840008BA40020E2809420ECBD9CEBB0B1EC9D29
:10085000B420EAB1B0ECA088206172673D0020E2CC
:10086000809420EB93B1EBA19D20EC9786EC9D8CBE
:100870000020E2809420EC9DB8EC9E9020ED95B491
:10088000EB8F8520EC8BA4ED8CA800206172673D76
:10089000005B475D206964783D005B475D20EAB1FD
:1008A000B0ECA088206964783D005B434B53554D04
:1008B000204E475D20005B4C325D20EAB1B0ECA0D9
:1008C0008820E280942037EC9E90EBA6AC20ECB41C
:1008D00088EAB3BC3A20005B4C325D20005B4E4599
:1008E000545D20E298852045535020EAB08020498D
:1008F0005020EBA5BC20EC9E83EC9788EB8BA420CA
:10090000E2809420EBAAA8EB938820EBA6ACEC85C0
:100910008BEC9CBCEBA19C20EBB3B8EB8BA42E2002
:10092000EB8884ECA08120EC82ACEAB1B42000ED2D
:100930009A8C20EC97B0EC868D20EC8BA4ED8CA8E3
:1009400020E2869220EC98A4ED9484EB9DBCEC9D73
:10095000B820ECA084ED99982E20EB82A1EC9D802C
:1009600020EC868CECBC93EBB680ED84B020EB8B56
:10097000ABEB8A94EB8BA428434950434C4F53452F
:1009800029005B4E45545D20ECA084EC86A120003C
:100990005B4E45545D20ECA084EC86A120EC8BA43A
:1009A000ED8CA82000ED9A8C2028EC849CEBB2847E
:1009B000EC9D982027EBB284EBA6B0ECA484272012
:1009C000EAB3BC20EBA79EEC9584EC95BC20ED959A
:1009D0009CEB8BA42900204220C2B720ED9484EB2D
:1009E000A1ACED9484ED8AB820EC9EACEB8F99EA33
:1009F000B8B020005B52414D5D20ECB59CECA0806E
:100A000020EC97ACEC9CA0200073002075703D009A
:100A1000206C696E65733D002072783D00205B4557
:100A20005350EBA6ACEC858BEC9CA0ECA780ECA41F
:100A3000915D0020EC82ACEB8BA4EBA6AC3D005B9F
:100A4000444941475D206F66666C696E652073742A
:100A500065703D00206F6E6C696E653D0020736BA4
:100A600069703D00206269676F6B6C6F73743D0045
:100A7000206F6B6C6F73743D00206269676F6B73DE
:100A8000743D002062696764726F703D0020626986
:100A90006766696C6C3D002070656E6466696C6C9D
:100AA0003D002070656E6464726F703D00206F6B56
:100AB00073747265616D3D0020636B73756D6E6755
:100AC0003D002073736F76663D0020736D6973730C
:100AD0003D00206F6F773D0020736C6F743D0020E8
:100AE00061636B7374616C653D002061636B64725C
:100AF0006F703D002061636B713D002073747563FE
:100B00006B3D00206F6B746F3D002073656E6466F3
:100B100061696C3D0020726573796E633D002068E9
:100B2000777273743D00206573707273743D00209A
:100B300064726F703D005B434E545D2075703D00E4
:100B40005B41434B515D20ECBA90EC8B9CEC979051
:100B5000EC849C20EBB080EBA0A4EB829820EBA768
:100B60008CEB93A420EC889820EC9786EB8BA42048
:100B7000E2809420EBB284EBA6B0EB8BA400EC8B6C
:100B8000A4ED8CA82000ECA084EC86A120004200FB
:100B90005B5245475D20EB93B1EBA19D20005B527A
:100BA00045475D20EB93B1EBA19D20EBB0B0ECB9D4
:100BB00098EBA5BC20EBA78CEB93A4ECA78020EBD3
:100BC000AABBED9688EB8BA420E2809420EC9E9843
:100BD000EBA6B020EB93B1EBA19DEC9D8420EB82C2
:100BE000B4EBB3B4EB82B4ECA78020EC958AEB8A2B
:100BF00094EB8BA40020723D300020723D31002028
:100C00006475653D002061636B3D002074783D0094
:100C10005B534C4F545D206E3D005D20E286922078
:100C2000EBA781ED81ACEBA5BC20EB8BA4EC8B9CFE
:100C300020EC84B8EC9AB4EB8BA400202F20455311
:100C400050EBA6ACEC858B2000202F2053454E4462
:100C50004641494C2000202F2053454E444F4BEC39
:100C60008381ED959C20002920C2B720EB8884EC7D
:100C7000A0815BEAB1B4EB8488EB9C802000202F3C
:100C800020EAB1B0EBB6802000202F20EBACB4EC12
:100C90009D91EB8BB520006D7320EB8F99EC9588BF
:100CA00020ED959C20ECA484EB8F8420EBAABB2044
:100CB000EB8298EAB094EB8BA420286275737920BC
:100CC000005B4E45545D20E2988520ECA095ECA792
:100CD0008020EAB090ECA7803A20005B4C4144446D
:100CE00045525D2034EB8BA83A2045535020EBA6AB
:100CF000ACEC858B20ED95B4ECA09C20E280942098
:100D0000EBB680ED8C85EC9D8420EAB8B0EB8BA42B
:100D1000EBA0B8EB8BA4EAB0802043574D4F44457D
:100D200020EBB680ED84B020EB8BA4EC8B9C005BB9
:100D30004E45545D2031302043575141502028EA20
:100D4000B2B0ED95A920ED95B4ECA09C20E2809482
:100D500020EC82ACEB8BA4EBA6AC2032EB8BA82969
:100D60000041542B43575141500D0A005B4E4554EE
:100D70005D20392043574C41502028ECA3BCEBB3F5
:100D80008020415020EBAAA9EBA19D20E280942075
:100D9000ECA784EB8BA8290041542B43574C4150BE
:100DA0000D0A005B4E45545D2038204357434F5594
:100DB0004E5452592028ECB184EB84902031322FCC
:100DC000313320EC9AB0ED9A8C20EC8B9CEB8F8425
:100DD00020E2809420ECA784EB8BA8290041542BBF
:100DE0004357434F554E5452595F4445463D302C6E
:100DF000224B52222C312C31330D0A005B4E4554CC
:100E00005D203720474D522028ED8E8CEC9BA8ECBE
:100E100096B420ED8C9020E2809420ECA784EB8B9C
:100E2000A8290041542B474D520D0A005B4E4554F2
:100E30005D203620434950434C4F53452028EB82D8
:100E4000A1EC9D8020EC868CECBC9320EB8BABEA74
:100E5000B8B0290041542B434950434C4F53450DE2
:100E60000A005B4E45545D203520434950535441A0
:100E700052540041542B43495053544152543D2243
:100E8000544350222C223139322E3136382E302E16
:100E90003239222C383838380D0A005B4E45545D03
:100EA0002034204349504D55583D300041542B4388
:100EB00049504D55583D300D0A005B4E45545D205C
:100EC000332043494653522028495020EBA5BC20EB
:100ED000EC8BA4ECA09CEBA19C20EBB09BEC959838
:100EE000EB8A94EAB080290041542B43494653527F
:100EF0000D0A005B4E45545D20322043574A415055
:100F00002028EC9D91EB8BB5EAB98CECA78020EC06
:100F1000B59CEB8C80203330ECB48820EAB8B0EB81
:100F20008BA4EBA6B0EB8BA4290041542B43574A6A
:100F300041503D2233465F333032222C223034324E
:100F4000343731393232322121220D0A005B4E45CD
:100F5000545D20312043574D4F44453D31004154AD
:100F60002B43574D4F44453D310D0A005B4E4554D0
:100F70005D2030205253540041542B5253540D0ADB
:100F800000ED9A8C20EC8BA4ED8CA820E2869220B8
:100F900041542B52535420EBA19C20ECA084ECB282
:100FA000B420ECB488EAB8B0ED999428EC82ACEBAC
:100FB0008BA4EBA6AC20EC8381EC8AB929005B4EB4
:100FC00045545D20434950434C4F534520005B4EF0
:100FD00045545D2043494653522033ED9A8CEC979B
:100FE00090EB8F8420495020EAB08020EC9786EB6C
:100FF0008BA420E286922043574A415020EBB680D2
:10100000ED84B020EB8BA4EC8B9C005B4E45545DD3
:101010002043494653522033ED9A8C20EC868CECC9
:10102000A78420E2809420EAB7B8EB9FACEB8298CB
:10103000206275737920EAB1B0EBB680EC9880EB52
:101040008BA42E20495020EC868CEC8BA4EBA19C29
:1010500020EC84B8ECA78020EC958AEB8A94EB8B8B
:10106000A4005B4E45545D20495020EAB08020EC3E
:101070009786EB8BA420E28692204349505354413B
:10108000525420EBA5BC20EBB3B4EB82B4ECA780A8
:1010900020EC958AEAB3A02043574A415020EBA1A7
:1010A0009C20EB9098EB8F8CEC9584EAB084EB8BD2
:1010B000A400EB8BA829005B4C41444445525D20C1
:1010C000E28693203330ECB48820EC97B0EC868D28
:1010D00020EC98A8EB9DBCEC9DB820E2809420EC1D
:1010E00082ACEB8BA4EBA6ACEBA5BC2030EB8BA8C1
:1010F000EC9CBCEBA19C20EB82B4EBA6B0EB8BA4E8
:101100002028ECA781ECA0842000EB81940020C271
:10111000B72036EB8BA828EC9B8CECB998EB8F852D
:10112000292000EBB0B0ECA09C28EC84A4EAB384A6
:101130002920E280942068616E6720EC9D8420EC79
:101140009786EC95A020EBB688ED9584EC9A9400F8
:101150005B424F4F545D20EC82ACEB8BA4EBA6AC12
:101160002034EB8BA82845535020ED9598EB939CA9
:10117000EBA6ACEC858BEC84A0292000EC9B8CECDE
:10118000B998EB8F8520002A2AEBB88CEB9DBCEC3C
:101190009AB4EC9584EC9B8328ECA084EC9B90EBB8
:1011A000B680ECA1B1292A2A2000EC99B8EBB680D0
:1011B000EBA6ACEC858B28EBB284ED8ABC2F4454B3
:1011C00052292000ECA084EC9B90EC9DB8EAB08002
:1011D00028504F52292000EC958C20EC889820EC68
:1011E0009786EC9D8C20E2809420EC9DB420EBB699
:1011F00080ED8AB8EBA19CEB8D94EAB080204D4342
:1012000055535220EC9D8420ECA780EC9AB0EAB3B1
:10121000A020EB8498EC96B4EC98A8EB8BA4005B30
:10122000424F4F545D20EBA6ACEC858B20EC9B909D
:10123000EC9DB83A2000206D6F64756C6573202FAB
:10124000206465763D5031002073656E736F727354
:10125000202F20000A5B5041524B494E47204E4FF1
:1012600044455D2070726F746F207631202F20000E
:10127000ED958000EC9588EC9DBDEC9D8C000A5BA3
:1012800053454E535D20000A5B4E45545D20EB8C68
:1012900080EC8381203139322E3136382E302E3297
:1012A000393A383838380000000000240027002A76
:1012B0000000000008000201000003040700000015
:1012C0000000000000222028005C780022005B4E15
:1012D00045545D20EC86A1EC8BA020EC98A4EBA5F6
:1012E0009820EC9D91EB8BB528EBA19CEAB7B8EB6D
:1012F000A78C2C20ECB9B4EC9AB4ED84B0EB8A94B2
:101300002073656E644C696E6520EC9DB420EC849E
:10131000BCEB8BA4293A20005B4E45545D20E2983B
:10132000852053454E44204641494C20E28094207C
:10133000ED8E98EC9DB4EBA19CEB939CEAB98CEC00
:10134000A78020EC8DBCEB8A94EB8DB020ECA084C0
:10135000EC86A1EC9DB420EC8BA4ED8CA8ED9688D6
:10136000EB8BA42E20EC8BA4ED8CA8EBA19C20ECA5
:1013700084BCEB8BA4005B4E45545D206C696E6BA6
:10138000206973206E6F742076616C696420E28638
:101390009220ECA689EC8B9C20EC98A4ED9484EB35
:1013A0009DBCEC9DB82C20EB82A1EC9D8020EC86AE
:1013B0008CECBC9320EB8BABEAB8B028434950438C
:1013C0004C4F534529005B4E45545D206F6E6C6950
:1013D0006E652028434F4E4E45435429202B20EC68
:1013E000BA90EC8B9C20EBB984EC9B80005B4E4563
:1013F000545D206F6E6C696E652028414C524541EA
:10140000445920434F4E4E454354454420C2B720D3
:10141000ECB488EAB8B020EAB2BDED95A929005B2A
:101420004E45545D20414C524541445920434F4E56
:101430004E454354454420E2809420EB82A1EC9D2C
:101440008020EC868CECBC9320EC9D98EC8BAC203F
:10145000ECA491EC9DB4EBAF80EBA19C20EBAFBF73
:10146000ECA78020EC958AEB8A94EB8BA420E28693
:101470009220434950434C4F5345005B4E45545DC9
:10148000206E6F20697020E2809420495020EAB0DD
:101490008020EC9786EB8BA42E2043495053544177
:1014A000525420EC9EACEC8B9CEB8F84EBA5BC20C3
:1014B000ECA091EAB3A02043574A415020EBA19CF5
:1014C00020EB9098EB8F8CEC9584EAB084EB8BA4A6
:1014D000005B4E45545D202020322E3447487A2050
:1014E000EC9DB8EAB080202F20ECA084ED8C8CEA33
:1014F000B08020EB8BBFEB8A94EAB080202F205382
:1015000053494420ECB2A0EC9E90EAB08020EBA7B7
:101510009EEB8A94EAB080EBA5BC20EBB490EB9DE7
:10152000BC2E005B4E45545D20EC84A4ECA095EDF0
:10153000959C205353494420EAB08020EBAAA9EBA4
:10154000A19DEC9790202A2AEC9786EB8BA42A2A5F
:1015500020E2869220EBB984EBB28820EBACB8ECA9
:10156000A09CEAB08020EC9584EB8B88EB8BA42EBA
:10157000005B4E45545D20202032EC889CEC9C841E
:101580003A20EBB984EBB080EBB288ED98B820201C
:101590002033EC889CEC9C843A20504D462838300F
:1015A000322E313177292F5750413320ECA084ED72
:1015B0009998EBAAA8EB939C20EB8184EAB8B00041
:1015C0005B4E45545D20202031EC889CEC9C843A95
:1015D00020EC9C8420ECA484EC9D98202A2AEBA784
:1015E00088ECA780EBA78920EC88ABEC9E9028ECD8
:1015F000B184EB8490292A2A20EBA5BC20EBB4907F
:10160000EB9DBC2E2031322F313320EC9DB4EBA961
:10161000B420EAB3B5EC9CA0EAB8B0EBA5BC20318D
:101620002F362F313120EBA19C20EBB094EABF94F0
:10163000EB9DBC005B4E45545D20EC84A4ECA09572
:10164000ED959C205353494420EAB08020EBAAA991
:10165000EBA19DEC9790202A2AEC9E88EB8BA42A84
:101660002A20E2869220415020EB8A9420EBB3B4EA
:10167000EC9DB8EB8BA42E20EAB2B0ED95A9EBA7B8
:101680008C20EAB1B0EBB680EB909CEB8BA42E00E3
:101690005B4E45545D20E29480E2948020415020CE
:1016A000EC8AA4ECBA9420ED8C90ECA09520E29406
:1016B00080E29480E29480E29480E29480E29480DC
:1016C000E29480E29480E29480E29480E29480E26A
:1016D0009480E29480E29480E29480E29480E294A8
:1016E00080E29480E29480E29480E29480E29480AC
:1016F000E29480E29480E29480E29480005B4E4524
:10170000545D202020E2869220EAB3B5EC9CA0EA4A
:10171000B8B020ECB184EB8490EC9D8420312F365E
:101720002F313120EBA19C20EBB094EABEB8EB8ABC
:101730009420EAB283EC9DB420ED9995ECA095201D
:10174000ED95B4EBB295EC9DB4EB8BA4005B4E45EC
:10175000545D204357434F554E54525920EBAFB878
:10176000ECA780EC9B90284552524F522920E280F2
:101770009420EC9DB420ED8E8CEC9BA8EC96B4EB01
:10178000A19CEB8A9420ECB184EB84902031322F21
:10179000313320EC9D8420ECBD94EB939CEBA19C19
:1017A00020EBAABB20EC97B0EB8BA42E005B4E4540
:1017B000545D20E29885204357434F554E5452596B
:1017C00020EAB08020EBA8B9EC9788EB8BA420E24C
:1017D000809420EAB79CECA09CEB8F84EBA994EC5E
:1017E0009DB820317E31332E20ECB184EB849020E3
:1017F000313220EAB2B0ED95A9EC9DB420EC97B45B
:10180000EBA0B8EC9D8420EC889820EC9E88EB8BB4
:10181000A4005B4E45545D204349504D55583D3022
:1018200020ECA081EC9AA9EB90A820E286922043BC
:1018300049505354415254005B4E45545D20E29848
:101840008520495020ED9995EBB3B43A20005B4CCC
:1018500041444445525D2032EB8BA83A20EAB2B0B5
:10186000ED95A920ED95B4ECA09C20EC9984EBA318
:101870008C20E2869220EAB9A8EB8197ED959C2016
:10188000EC8381ED839CEC9790EC849C2043574A39
:10189000415020EC9EACEC8B9CEB8F84005B4E4562
:1018A000545D2043574A4150204F4B20E280942002
:1018B000EAB2B0ED95A9EB9090EB8BA42E204950A5
:1018C00020EBA5BC20EC8BA4ECA09CEBA19C20EB16
:1018D000B09BEC9598EB8A94ECA780204349465343
:1018E0005220EBA19C20ED9995EC9DB8ED959CEBD9
:1018F0008BA400ED9A8C2028EAB5ACED989520EDEC
:101900008E8CEC9BA8EC96B4EB8A9420EC82ACEC29
:101910009CA0EBA5BC20ECA3BCECA78020EC958A96
:10192000EB8A94EB8BA429005B4E45545D20E29832
:10193000852043574A415020EC8BA4ED8CA8200011
:10194000ECA091EC868D20EC8BA4ED8CA800EAB77E
:10195000B8205353494420EC9D9820415020EBA5DA
:10196000BC20EBAABB20ECB0BEEC9598EB8BA4009E
:10197000EBB984EBB080EBB288ED98B8EAB0802088
:10198000ED8B80EBA0B8EB8BA400ECA091EC868DE6
:1019900020EC8B9CEAB084ECB488EAB3BC005B4ECC
:1019A00045545D20E298852043574A415020EC8BF6
:1019B000A4ED8CA820EC82ACEC9CA03A20005B4EFD
:1019C00045545D206275737920E280942045535020
:1019D00020EAB08020EC959E20EBAA85EBA0B9EC24
:1019E0009D8420ECB298EBA6AC20ECA491EC9DB4C5
:1019F000EB8BA42E20ECA084ECA784ED9598ECA7AB
:101A00008020EC958AEB8A94EB8BA4005B4E4554C6
:101A10005D205749464920444953434F4E4E454364
:101A20005420E2809420495020EBA5BC20EC9E83FA
:101A3000EC9788EB8BA4005B4E45545D20574946DC
:101A40004920474F5420495020E28094204950209B
:101A5000ED9995EBB3B42E2039ECB48820EB8C8053
:101A6000EAB8B0ECB0BDEC9D8420EB819DEAB98C66
:101A7000ECA78020EAB8B0EB8BA4EBA6ACECA78077
:101A800020EC958AEAB3A020EBB094EBA19C20EB6C
:101A90008BA4EC9D8C20EB8BA8EAB384EBA19C007B
:101AA0006D73005B534C4F542D4F4F575D202B00EF
:101AB0005B41545D20004131004950000002423139
:101AC0000049500000094C44004F4700000D4C32C3
:101AD000004F4C0000FF5B41434B515D20EAB0805A
:101AE000EB939D20ECB0B820E2809420EAB080EC2B
:101AF0009EA520EC98A4EB9E98EB909C20EBB3B4B1
:101B0000EBA5982041434B20EBA5BC20EBB284EB26
:101B1000A6B0EB8BA40000000000230026002900E3
:101B200000000000250028002B0004040404040425
:101B3000040402020202020203030303030301027C
:101B4000040810204080010204081020010204084B
:101B500010208921CB2E11241FBECFEFD8E0DEBF8D
:101B6000CDBF84B78093BB0514BE0FB6F894A8957B
:101B700080916000886180936000109260000FBEC9
:101B800012E0A0E0B1E0E6EAF6E602C005900D92B0
:101B9000AE37B107D9F725E0AEE7B2E001C01D923C
:101BA000AB3BB207E1F71DE0CAEADDE004C02197D4
:101BB000FE010E941630C93AD107C9F70E943422AB
:101BC0000C9446330C94000028E030E080FD02C005
:101BD00030E020E081FD246082FD226083FD2160F1
:101BE000265B3E4FF9018081FB01808311820895BD
:101BF000833081F028F4813099F08230A9F0089583
:101C00008730A9F08830C9F08430B1F48091800029
:101C10008F7D03C0809180008F778093800008952E
:101C200084B58F7784BD089584B58F7DFBCF809177
:101C3000B0008F778093B00008958091B0008F7DC1
:101C4000F9CF1F93CF93DF93282F30E0F901EF54A2
:101C5000FD4E8491F901E25CF44ED491F901E65D08
:101C6000F44EC491CC23A9F0162F81110E94F80DD7
:101C7000EC2FF0E0EE0FFF1FE05EF44EA591B49163
:101C80008FB7F894EC91111108C0D095DE23DC9346
:101C90008FBFDF91CF911F910895DE2BF8CFCF93A7
:101CA000DF9390E0FC01E25CF44E2491865D944E5B
:101CB000FC0184918823C9F090E0880F991FFC01F2
:101CC000E955FD4EA591B491FC01E05EF44EC5913D
:101CD000D49161110DC09FB7F8948C912095822307
:101CE0008C938881282328839FBFDF91CF9108950B
:101CF000623051F49FB7F8943C91822F80958323F2
:101D00008C93E8812E2BEFCF8FB7F894EC912E2B8C
:101D10002C938FBFEACF2FB7F8946091F2037091A4
:101D2000F3038091F4039091F5032FBF089521E010
:101D3000672B682B692B09F420E0622F8DE00E944D
:101D4000210E81E00895EF92FF920F931F93CF939E
:101D5000DF938C017B01D0E0C0E0F701EC0FFD1FA9
:101D60006491662361F0D801ED91FC910190F081BE
:101D7000E02DC8010995892B11F02196EECFCE01F7
:101D8000DF91CF911F910F91FF90EF900895AF9247
:101D9000BF92CF92DF92EF92FF920F931F93CF9358
:101DA000DF936C017B018B01040F151FEB015E01BA
:101DB000AE18BF08C017D10759F06991D601ED914F
:101DC000FC910190F081E02DC6010995892B79F7EE
:101DD000C501DF91CF911F910F91FF90EF90DF90A0
:101DE000CF90BF90AF900895FC01538D448D252F67
:101DF00030E0842F90E0821B930B541710F0CF96A5
:101E0000089501970895FC01918D828D981761F0D6
:101E1000A28DAE0FBF2FB11D5D968C91928D9F5FED
:101E20009F73928F90E008958FEF9FEF0895FC01CC
:101E3000918D828D981731F0828DE80FF11D858D7F
:101E400090E008958FEF9FEF0895FC01918D228D12
:101E5000892F90E0805C9F4F821B91098F73992797
:101E600008958FEF94E00E94250F21E0892B09F45B
:101E700020E0822F089580E090E0892B29F00E94D5
:101E8000310F81110C9400000895FC01A48DA80F5E
:101E9000B92FB11DA35ABF4F2C91848D90E00196AC
:101EA0008F739927848FA689B7892C93A089B189CC
:101EB0008C91837080648C93938D848D981306C06D
:101EC0000288F389E02D80818F7D80830895EF92D1
:101ED000FF920F931F93CF93DF93EC0181E0888FE4
:101EE0009B8D8C8D98131AC0E889F989808185FFB4
:101EF00015C09FB7F894EE89FF896083E889F98956
:101F000080818370806480839FBF81E090E0DF9157
:101F1000CF911F910F91FF90EF900895F62E0B8DAA
:101F200010E00F5F1F4F0F731127E02E8C8D8E1165
:101F30000CC00FB607FCFACFE889F989808185FFCC
:101F4000F5CFCE010E94450FF1CFEB8DEC0FFD2FA9
:101F5000F11DE35AFF4FF0829FB7F8940B8FEA8987
:101F6000FB8980818062CFCF682F8FEF94E00C9443
:101F7000670FCF93DF93EC01888D8823B9F0AA898E
:101F8000BB89E889F9898C9185FD03C0808186FD34
:101F90000DC00FB607FCF7CF8C9185FFF2CF808183
:101FA00085FFEDCFCE010E94450FE9CFDF91CF91A4
:101FB000089520913403309135032817390771F4BF
:101FC0009091320380913303981741F0E0913203EE
:101FD000F0E0EE50FD4F808190E008958FEF9FEF8D
:101FE00008950895EF92FF920F931F93CF93DF937D
:101FF000DC015C96ED90FC905D97E114F10479F4BE
:1020000081E090E013969C938E93129790E080E08D
:10201000DF91CF911F910F91FF90EF90089551960E
:10202000ED91FC91529750968C915097982F9095E6
:102030000FB75E962C915E97122F127021FD60955E
:10204000F8942081112319F1282B2083E70121978F
:10205000F1F728E0462F50E0308160FF1AC0382B9E
:102060003083E7012197F1F7BA0175956795215003
:1020700089F7112381F08081892380830FBF5C96CB
:102080008D919C910197F1F781E090E0C1CF2923D8
:10209000DCCF3923E5CF9081892BEFCF209134031A
:1020A000309135032817390761F48091330320916B
:1020B000320390E0805C9F4F821B91098F739927B8
:1020C000089590E080E00895209134033091350325
:1020D00028173907B9F49091320380913303981788
:1020E00089F0E0913203F0E0EE50FD4F80812091C5
:1020F000320330E02F5F3F4F2F733327209332039B
:1021000090E008958FEF9FEF089590E080E00895AC
:10211000282FDB01FC0191918D913FE9390F3A3174
:1021200008F490523FE9380F3A3108F4805298137E
:1021300006C08E2F821B841770F381E0089580E023
:102140000895FB0180839183FC0181E091919923A3
:1021500091F09C32D9F7DF0111971C92841750F44B
:10216000A82FB0E0AA0FBB1FA60FB71FED93FC93DB
:102170008F5FECCF8FEF08951F93CF93DF93EB0129
:10218000009729F1FC012081222309F120E030E0B1
:10219000A90111911123E9F080ED810F8A30B8F483
:1021A000AAE0B0E00E94AA2F412F110F550B405317
:1021B00051099A01550F440B550B260F371F481F25
:1021C000591F2115310581E04807510510F380E0C2
:1021D00003C03983288381E0DF91CF911F91089557
:1021E00028E0829FC0011124DB0130E020E0875409
:1021F000954EFC01E20FF31FE491ED93EE2339F0CD
:102200002F5F3F4F23303105A1F7FB011382089563
:102210001092740410925D0410925C0410925B049E
:102220001092F9041092FA0480915A0390915B0382
:102230008F3F980729F0019690935B0380935A0390
:1022400081E080936E0486E080936D040E948B0E83
:102250006093690470936A0480936B0490936C0498
:1022600010920901109208010895CF93DF93382F3F
:10227000DC01E0E02A2F231B261718F42D91E2271A
:10228000F9CFDC01A60FB11DCE2FD0E084E0D595AB
:10229000C7958A95E1F7C65BDE4F88818C93EF7016
:1022A000F0E0E65BFE4F808111968C9311971296B9
:1022B0001C9282E0860FDF91CF910895CF93DF9338
:1022C000EB0180936D040E948B0E60936904709300
:1022D0006A0480936B0490936C04D0930901C093BB
:1022E0000801DF91CF910895AF92BF92CF92DF9214
:1022F000EF92FF920F931F93CF93DF93CDB7DEB78B
:1023000028970FB6F894DEBF0FBECDBF5C016B01FE
:1023100096EBE92E9AE1F92E10E000E0F7018491A6
:102320008D833196E491EE831F82B501CE0105962F
:102330000E943030892B11F5BE016F5F7F4F802FD7
:102340000E94F01089818F3409F5000F111FF801E8
:10235000EC57FB4FD182C08281E028960FB6F894EB
:10236000DEBF0FBECDBFDF91CF911F910F91FF90C8
:10237000EF90DF90CF90BF90AF9008950F5F1F4F09
:10238000F8E0EF0EF11C0430110541F680E0E5CFD6
:10239000FB0101900020E9F73197AF01461B570B75
:1023A000DC01ED91FC910280F381E02D09946FE74F
:1023B00071E08FEF94E00C94C811CF93DF93BC01D0
:1023C0008FEF94E00E94A30EEC010E94D7118C0FB6
:1023D0009D1FDF91CF910895EF92FF920F931F936E
:1023E000CF93DF93EC014091F9042091FA0430E09F
:1023F00010E000E05CE0E52EF12C0417C8F4C90100
:10240000800F911FB7010E940230FC01EE0FFF1FE9
:10241000EF51FB4F808191810F5F1F4F8C179D07FC
:1024200061F7DF91CF911F910F91FF90EF90089589
:102430004C30D9F4C90101966CE070E00E94023082
:102440008093FA048BE08093F9048091FB049091CF
:10245000FC048F3F980729F001969093FC04809329
:10246000FB0486ED9AE10E94DD112091F904809130
:10247000FA04820F9927991F6CE070E00E940230E5
:10248000FC01EE0FFF1FEF51FB4FD183C0832F5F85
:102490002093F904C6CFDC01822FE091DF042E2FB8
:1024A00030E095E0E99FF0011124E157FB4FB18343
:1024B000A0836283438384832F5F3F4F2F70332732
:1024C0002093DF049091E004903118F49F5F909383
:1024D000E004CD010C94EC118F929F92AF92BF92C9
:1024E000EF92FF920F931F93CF93DF93CDB7DEB799
:1024F000A1970FB6F894DEBF0FBECDBF7C01FA01E5
:10250000CB0119A2223008F42AE08E010F5D1F4F83
:10251000822E912CB12CA12CBF01A50194010E9407
:10252000BD2FF901CA016A300CF5605DD8016E93C8
:102530008D01232B242B252B79F790E080E0109739
:1025400021F0BD01C7010E94C811A1960FB6F894F1
:10255000DEBF0FBECDBFDF91CF911F910F91FF90D6
:10256000EF90BF90AF909F908F900895695CDECF01
:102570002AE00C946C12482F50E070E060E02AE0F2
:102580008FEF94E00C946C1280915D048F3F19F0F2
:102590008F5F80935D0460E979E08FEF94E00E94A3
:1025A000A30E80915D040E94BB128FE20E94B40FC3
:1025B00083E00E94BB120E94D71180915D0483309A
:1025C00080F062E879E08FEF94E00E94A30E8091A2
:1025D0005D040E94BB128FE299E00E94DD110C9411
:1025E00008110895AB0170E060E02AE00C946C12D1
:1025F000CF93DF93BC018FEF94E00E94F212EC01C5
:102600000E94D7118C0F9D1FDF91CF91089581E01B
:102610008093710480916403909165038F3F9807C4
:1026200029F0019690936503809364036DED78E043
:102630008FEF94E00E94A30E809164039091650354
:102640000C94F812CF92DF92EF92FF92CF93DF9328
:102650000E948B0E6B017C01D0E0C0E00E948B0ECB
:102660006C197D098E099F096837710581059105EF
:1026700078F48CE995E00E944E10892B79F38CE96F
:1026800095E00E946410CF3FDC0799F32196F1CFCB
:102690001092E2021092E1021092DB0361EC70E012
:1026A0008FEF94E00E94A30EBE018FEF94E00E9492
:1026B000F21289E990E0DF91CF91FF90EF90DF90E7
:1026C000CF900C94DD118F929F92AF92BF92CF92D8
:1026D000DF92EF92FF92CF93DF93C82F0E948B0E71
:1026E0006B017C018091E702882319F18091E3025C
:1026F0009091E402A091E502B091E602A701960153
:10270000281B390B4A0B5B0BDA01C901883E934049
:10271000A105B10570F48AE195E0DF91CF91FF90BA
:10272000EF90DF90CF90BF90AF909F908F900C94E0
:10273000DD1181E08093E702C092E302D092E402CF
:10274000E092E502F092E60269E075E08FEF94E036
:102750000E94A30E69EF74E0C13031F068EE74E0BE
:10276000C23011F06DED74E08FEF94E00E94A30E83
:102770006EEC74E08FEF94E00E94A30E8091DC0376
:102780009091DD03A091DE03B091DF03A7019601D4
:10279000281B390B4A0B5B0BCA01B90128EE822EAC
:1027A00023E0922EA12CB12CA50194010E94BD2FF3
:1027B000BA01A9018FEF94E00E94B81261EC74E0B5
:1027C0008FEF94E00E94A30E80917A040E94BB12C6
:1027D0006CEA74E08FEF94E00E94A30E8091750480
:1027E00090917604A0917704B09178040097A105A8
:1027F000B10509F45BC0A7019601281B390B4A0BF0
:102800005B0BCA01B901A50194010E94BD2FBA0159
:10281000A9018FEF94E00E94B81283E70E94B40FE1
:1028200069E974E08FEF94E00E94A30E8091E203C7
:102830000E94BB1264E974E08FEF94E00E94A30E43
:102840008091E1030E94BB1288E894E00E94DD11B0
:102850001092750410927604109277041092780406
:102860008091E203C23049F5833038F583E08093EC
:10287000E2031092E1038AE294E00E94DD1180916C
:102880007A048230F0F180916F0481113AC064EFD4
:1028900071E087E0DF91CF91FF90EF90DF90CF90D4
:1028A000BF90AF909F908F900C945E1165EA74E09A
:1028B0008FEF94E00E94A30EB3CF9091E1039E3F6F
:1028C00018F49F5F9093E103E82FF0E0ED5DFE4F79
:1028D00020819091E103921790F2853080F68F5F0E
:1028E0008093E2031092E1036AE074E08FEF94E0DA
:1028F0000E94A30E8091E2030E94BB1286E094E046
:10290000BCCF8091E203E82FF0E0EE0FFF1FE95EFD
:10291000FE4FC081D181823009F44BC0F8F4882386
:1029200009F441C08130E9F18FE891E00E94DD11A6
:102930008AE391E00E94DD1168E171E08FEF94E09D
:102940000E94A30ECE0168EE73E00E94EE2F8FEF7F
:1029500094E00E94F2128CEE90E054C0833009F4AF
:1029600040C0843009F78EEF92E00E94DD118FEABB
:1029700092E00E94DD118FE492E00E94DD116FE38E
:1029800072E08FEF94E00E94A30ECE0168EE73E038
:102990000E94EE2F8FEF94E00E94F2128CEF91E0F4
:1029A00031C00E942213109272046CE271E083E045
:1029B00071CF6FEE73E08FEF94E00E94A30ECE0113
:1029C00068EE73E00E94EE2F8FEF94E00E94F21207
:1029D00081EA93E00E94DD1110927B04BE018AE03F
:1029E00059CF6AE873E08FEF94E00E94A30ECE0106
:1029F00068EE73E00E94EE2F8FEF94E00E94F212D7
:102A00008EE593E00E94DD1110927B04BE0180E010
:102A100041CFCF93DF93AB01BC012AE08FEF94E06D
:102A20000E946C12EC010E94D7118C0F9D1FDF9148
:102A3000CF910895CF92DF92EF92FF926B017C01CC
:102A400080E8C81686E9D80688E9E806F10480F02F
:102A500066EB78E08FEF94E00E94A30EC701B60109
:102A60000E94091580E0FF90EF90DF90CF900895CD
:102A700067ED78E08FEF94E00E94A30EC701B601E6
:102A80000E94091581E0EFCFCF93DF93D0E0C0E043
:102A9000009731F0BC018FEF94E00E94C811EC0167
:102AA0000E94D7118C0F9D1FDF91CF910895AF9297
:102AB000BF92CF92DF92EF92FF920F931F93CF932B
:102AC000DF93CDB7DEB762970FB6F894DEBF0FBEC7
:102AD000CDBFDC010D900020E9F79D0121503109A7
:102AE000281B390B122F4FEF420F4F3308F067C0EE
:102AF000FC01A0814A2F4B7F433449F0A43539F0C3
:102B0000AD3429F04FEA4A0F423008F058C0B82FD0
:102B1000FC0150E040E06FEF7FEF01910C3209F4CF
:102B2000BA014F5F5F4F4117C0F38C016F3F7607CB
:102B300089F13327261B370B2330310559F5FC016A
:102B4000E60FF71F918120ED290F2A3030F08FEB2F
:102B5000890F8630F8F429EC290F328190ED930F1C
:102B60009A3030F08FEB830F8630A0F499EC930FFE
:102B700081E0860FF80140E03E2F3B1B381718F428
:102B800031914327F9CF80E1289F90011124922BA6
:102B9000941731F180915203909153038F3F98071E
:102BA00029F0019690935303809352036AEA78E0E8
:102BB0008FEF94E00E94A30EC8010E944415629614
:102BC0000FB6F894DEBF0FBECDBFDF91CF911F913E
:102BD0000F91FF90EF90DF90CF90BF90AF9008954E
:102BE000A73409F00FC146E0BE016F5F7F4FC801F7
:102BF0000E94A110188A1F8684508B3F00F7BE01E7
:102C0000615F7F4F8B819C810E94BC108823B9F249
:102C10001A8A198ABE016F5E7F4F8D819E810E9444
:102C2000BC10182FC12CD12C7601882389F1EF819B
:102C3000F885309749F18081C12CD12C7601882309
:102C400031F10191002321F180ED800F8A30E0F411
:102C5000BAE9CB16B9E9DB06EB06B9E1FB06A0F44D
:102C6000AAE0B0E0A70196010E94AA2F202F000F32
:102C7000330B205331096901330FEE08FF08C60EEC
:102C8000D71EE81EF91EDDCFC12CD12C760110E035
:102C90002F8538894091E0048FE894E0E0E04E17FA
:102CA00059F00596DC0115976D917C912617370731
:102CB00009F063C0E7FF63C0112309F470C0A9885D
:102CC000BA888FEFA816B10411F008F068C0A3E02D
:102CD000AA1508F464C0F501EE0FFF1FEC57FB4F77
:102CE0000190F081E02D309709F459C081E0C114C2
:102CF000D104E104F10409F480E080938E04C7015B
:102D0000B6010995882309F44AC081E090E002C029
:102D1000880F991FAA94E2F720918C0430918D04BA
:102D200040918E044423B1F1822B932B90938D0418
:102D300080938C0461E978E08FEF94E00E94A30E09
:102D400069897A898FEF94E00E94F2126BE878E04B
:102D50008FEF94E00E94A30EC701B6010E940915EF
:102D600020E089899A896AE070E00E94EE2F40E3B2
:102D7000480F67E48F859889DDC0EF5F90CF25E02D
:102D8000E202F0011124E157FB4F808191810E9402
:102D9000EC1115CF8095909582239323C7CF6AE9D4
:102DA00078E08FEF94E00E94A30E69897A898FEF13
:102DB00094E00E94F212111106C081E798E00E948F
:102DC000DD1123E0CECF89899A898F3F910509F0E3
:102DD000A0F7843048F4880F991FFC01EC57FB4F93
:102DE00080819181892B19F48EE598E0E8CF63E426
:102DF00078E08FEF94E00E94A30EC701B6010E9415
:102E00000915DFCFA13551F481E08093F7031092CB
:102E1000F60380E098E00E94DD11D1CEBE016F5F25
:102E20007F4FCB018C5B95402091000130910101D7
:102E30008217930720F4909301018093000147E0EB
:102E4000C8010E94A110E82EBFEF8B1709F4B7CE7E
:102E5000E981FA81008175E0F72E023551F066E0D4
:102E6000F62E043531F0E3E0FE2E0D3411F054E07F
:102E7000F52EE2E0EE1508F0A2CEBE01615F7F4FB5
:102E80008B819C810E94BC10882309F498CE8F8589
:102E900098894091E0042FE834E010E0411759F0A0
:102EA0002B5F3F4FF9013597608171818617970736
:102EB00091F417FF12C0EF14F9F063EE77E08FEF93
:102EC00094E00E94A30E8F8598890E94F81223E057
:102ED0004FE36FE34FCF1F5FE1CF65EF77E08FEFF9
:102EE00094E00E94A30E8F8598890E94F81225E035
:102EF0001202F001112447CF043509F09DC0ED8185
:102F0000FE812181211142C05081513469F0543435
:102F1000A1F41092EC031092E9031092E8031092CE
:102F2000EB031092EA0303C021E02093EC034FE38C
:102F30006FE320E00E944B1242CE533511F058351A
:102F400029F5EF81F88509851A85DF010D900020AC
:102F5000E9F79D01235031092E173F07B9F421816C
:102F60003081E6EBFAE1E4913E1305C0E7EBFAE1CC
:102F7000E491E21779F0EEEBFAE1E4913E1306C03A
:102F8000EFEBFAE1E49171E02E1729F04FE36FE3E4
:102F900023E0D0CF70E0533541F4F8012081205375
:102FA0002230A0F721812111F1CF272F30E043E01B
:102FB000220F331F4A95E1F7F901EA54F54E649167
:102FC000F901E954F54E44912091EC03222391F14B
:102FD00021E030E002C0220F331F7A95E2F7E09043
:102FE000E803F090E903A091EA03B091EB035335B5
:102FF000B9F4F8015081F701E22BF32BF093E903C8
:10300000E093E803503339F02A2B3B2B3093EB034A
:103010002093EA038ECF209530952A233B23F6CFC9
:1030200020953095F701E223F323F093E903E09331
:10303000E803F3CF24E07ECF0D3431F48AEA97E041
:103040000E94DD1125E044CFED81FE81DF010D906E
:103050000020E9F7CD0103978E179F07B9F481810E
:103060009081E6EBFAE1E4919E1305C0E7EBFAE10B
:10307000E4918E17C9F0EEEBFAE1E4919E1306C0DD
:10308000EFEBFAE1E4918E1709F43CC06AE977E0CE
:103090008FEF94E00E94A30E8F8598890E94F8120A
:1030A0004FE36FE323E066CE20E0422F50E083E061
:1030B000440F551F8A95E1F7FA01EA54F54E6491E1
:1030C0004954554EFA01449181E090E002C0880FC6
:1030D000991F2A95E2F70235B9F42091E403309163
:1030E000E50328233923232BE9F42091E6033091CB
:1030F000E703FC01E223F323822B932BEF2B61F0F8
:1031000022E038CE21E0D1CF809590952091E60342
:103110003091E703822393239093E7038093E603A0
:1031200020E028CE21E026CEBF92CF92DF92EF9210
:10313000FF920F931F93CF93DF9380918004909120
:103140008104A0918204B09183040196A11DB11D58
:103150008093800490938104A0938204B0938304AD
:1031600060EB7AE18FEF94E00E94A30E08EF13E08A
:10317000F80101900020E9F78F01095F1340B02E9C
:103180006CEC72E18FEF94E00E94A30E98EFE92EB1
:1031900093E0F92E6701D0E0DB1528F5F601C19127
:1031A0006F0180EE8C0F8F3528F48C2F0E94B40FA6
:1031B000DF5FF2CF69EC72E18FEF94E00E94A30E23
:1031C000EC2FF0E084E0F595E7958A95E1F7E65B72
:1031D000FE4F80810E94B40FCF70EC2FF0E0E65BD1
:1031E000FE4F8081E3CF65EC72E18FEF94E00E94A7
:1031F000A30E802F0E94BB1289E20E94B40F0E948E
:10320000D71162E871E088EF93E00E944730EC014B
:10321000892BE1F1C0907E04D0907F04F12CE12C49
:10322000F8E5CF16F2E0DF06E104F104E0F4809166
:103230007C0490917D048F3F980729F0019690932C
:103240007D0480937C0463EA7AE18FEF94E00E942E
:10325000A30EB701A6018FEF94E00E94B81280EA96
:103260009AE10E94DD116AE370E0CE010E942530F0
:103270000097D9F10196DF91CF911F910F91FF90A7
:10328000EF90DF90CF90BF900C94571544E050E042
:1032900068E871E088EF93E00E943930892B09F0EB
:1032A0004DC06DE871E088EF93E00E944730892BB4
:1032B00031F181E080937B0410927A0410927904BA
:1032C0000E948B0E6093750470937604809377044C
:1032D0009093780487E39AE10E94DD118091740451
:1032E00068EC70E0882309F4E3C0DF91CF911F916F
:1032F0000F91FF90EF90DF90CF90BF90089564E919
:1033000071E088EF93E00E944730892B71F31092AF
:103310007B048CE09AE10E94DD118091740481119C
:10332000E4CF10927904DF91CF911F910F91FF901C
:10333000EF90DF90CF90BF900C9463138091740452
:103340008111C1C1C0910A01CB3008F0BCC16FE945
:1033500071E088EF93E00E944730892BF1F08EEB0B
:1033600099E10E94DD1180910A01833081F491E09E
:10337000909373046CED75E0DF91CF911F910F91E5
:10338000FF90EF90DF90CF90BF900C945E119CEF78
:10339000980F923008F0A9CFEDCFC23009F08AC063
:1033A00047E050E064EA71E088EF93E00E94393032
:1033B000892BA1F56EE979E18FEF94E00E94A30ECD
:1033C0008091FF03823321F17CF48133A1F088EFF7
:1033D00093E0DF91CF911F910F91FF90EF90DF90DD
:1033E000CF90BF900C9444158333A9F0843379F7C0
:1033F00080E499E102C08AE899E1DF91CF911F91C1
:103400000F91FF90EF90DF90CF90BF900C94DD1163
:1034100080E799E1F2CF8EE499E1EFCF6CE172E0C1
:1034200088EF93E00E944730892B41F46CEA71E009
:1034300088EF93E00E944730892BD9F080917A047D
:103440008A3F18F48F5F80937A0410927B04109265
:10345000790468E279E18FEF94E00E94A30E8091F5
:103460007A040E94BB1283EF98E10E94DD1180E094
:103470005ACF64E172E088EF93E00E943030892BEC
:1034800009F0D8C28DE998E10E94DD1110927A040A
:1034900010927204109279040E948B0E609375044E
:1034A0007093760480937704909378046CE271E0D3
:1034B00083E062CFCA3009F564E172E088EF93E0FF
:1034C0000E943030892B89F06CEA71E088EF93E03C
:1034D0000E944730892B49F462EB71E088EF93E05A
:1034E0000E944730892B09F4A5C28EE498E10E941E
:1034F000DD1164EF71E082E03FCFC33009F09AC282
:1035000043E050E068EB71E088EF93E00E943930CF
:10351000892B09F48FC288EF93E04AE001C0CD0106
:10352000DC012D91222309F477C220532A30B8F709
:1035300033E0883F930731F0FC013197208120531D
:103540002A3068F3FC0130E090E020E0819150EDFA
:10355000580F5A3030F4249F800D112420ED280F8D
:10356000F5CF911101C0322F8E3211F49F5FEDCF54
:103570009330A9F6332399F281E080937B04109273
:1035800072041092710410927304809175049091EA
:103590007604A0917704B0917804892B8A2B8B2B29
:1035A00051F40E948B0E609375047093760480939F
:1035B00077049093780468E378E18FEF94E00E94B9
:1035C000A30E88EF93E00E94441568EC70E084E05D
:1035D000D3CE883069F564E172E088EF93E00E9411
:1035E0003030892BB1F06CEA71E088EF93E00E94F3
:1035F0004730892BB1F465ED71E088EF93E00E94CC
:103600004730892B09F45FC010927B048BE794E16B
:103610004EC08DEA97E10E94DD116CE271E089E015
:10362000ABCE8DE497E10E94DD118DEF96E1F3CFF3
:10363000893009F747E050E066EC71E088EF93E0ED
:103640000E943930892B69F46EEC71E088EF93E0C9
:103650000E944730892B09F448CE81E080937004A2
:1036600044CE64E172E088EF93E00E943030892B11
:1036700049F06CEA71E088EF93E00E944730892BB3
:1036800009F4B9CF81E080936F0480E996E10E944C
:10369000DD1180917004882379F084E396E10E9423
:1036A000DD1180EC95E10E94DD1181E795E10E943A
:1036B000DD1168EE73E01FCF83E295E10E94DD111A
:1036C00081ED94E1F4CF6BED71E088EF93E00E941F
:1036D0004730892B09F45CC067E971E088EF93E01B
:1036E0000E944730892B09F453C080916E048823CF
:1036F000B1F08FE194E10E94DD1186E080936D04CA
:103700000E948B0E6093690470936A0480936B042B
:1037100090936C041092090110920801E6CD81E0AB
:10372000809374040E948B0E60936504709366040A
:10373000809367049093680480916404882371F0F7
:1037400080916204909163048F3F980729F001965D
:103750009093630480936204109264040E948B0E21
:1037600060935E0470935F0480936004909361049F
:1037700010925D041092F70381E08093F60310929B
:103780005C0410925B0410925A048DEE93E135CEE6
:10379000C701F7012081FFEFEF1AFF0A2032C1F3C2
:1037A0002930B1F32053253028F4FC0121812C323B
:1037B00009F40296FC0101900020E9F73197E81B1B
:1037C000F90B2E2FE80FF92FF11D222309F473C0F6
:1037D0003291303219F03B7F393011F42150F5CF5E
:1037E00047E067E971E0273031F0263009F063C027
:1037F00046E061EE71E00E948810882309F45BC006
:1038000081E0809374040E948B0E60936504709332
:10381000660480936704909368048091640488230D
:1038200071F080916204909163048F3F980729F0B2
:1038300001969093630480936204109264040E9442
:103840008B0E60935E0470935F048093600490938A
:10385000610410925D041092F70381E08093F603F7
:1038600010925C0410925B0410926E0410925A0441
:1038700010927A041092720480937B0480917504F4
:1038800090917604A0917704B0917804892B8A2BCB
:103890008B2B51F40E948B0E609375047093760409
:1038A00080937704909378041092DF041092E004E0
:1038B00086EC93E1A2CD68EE71E088EF93E00E9480
:1038C0004730892BB9F46FEE71E088EF93E00E94E6
:1038D0004730892B79F466EF71E088EF93E00E941E
:1038E0004730892B39F48091740481112EC088EF00
:1038F00093E0C1CC1092740410925D041092F7030F
:1039000081E08093F60310925C0410925B041092A5
:103910006E0410925A041092DF041092E00483E0C7
:1039200080936D040E948B0E6093690470936A0407
:1039300080936B0490936C048CE291E09093090166
:103940008093080110927204D0CC6DEF71E088EF83
:1039500093E00E944730892B79F086E793E10E943B
:10396000DD11DF91CF911F910F91FF90EF90DF90CC
:10397000CF90BF900C94081147E050E06FE072E0E8
:1039800088EF93E00E943930892B29F410925C046F
:1039900010925B04AACC49E050E067E172E088EF46
:1039A00093E00E943930892BF9F410925C04109254
:1039B0005B0480915804909159048F3F980729F037
:1039C0000196909359048093580488E193E10E94F2
:1039D000DD11DF91CF911F910F91FF90EF90DF905C
:1039E000CF90BF900C94C4126CEA71E088EF93E022
:1039F0000E944730892B49F46FE971E088EF93E02A
:103A00000E944730892B09F472CF6EEC72E18FEF80
:103A100094E00E94A30EDBCC61E272E088EF93E0B9
:103A20000E943030892B31F480917104811102C0E1
:103A30000E94071380910A01843009F0CACD64E125
:103A400072E088EF93E00E943030892B49F06CEBF4
:103A500071E088EF93E00E944730892B09F4CBCDC9
:103A600082E198E10E94DD1168EC70E085E084CC91
:103A7000CF93DF93D82F80913A0390913B03A0918D
:103A80003C03B0913D030196A11DB11D80933A0303
:103A900090933B03A0933C03B0933D03DA3009F0CD
:103AA000B2C08091E1028823A1F066E870E08FEF58
:103AB00094E00E94A30E80E60E94BB1288E690E08C
:103AC0000E94DD111092E2021092E102DF91CF918B
:103AD00008954091E2024423C9F350E0FA01EF5700
:103AE000FD4F10821092E2028091ED02882309F4CA
:103AF00076C08091DB03811131C04F5F5F4F61E879
:103B000072E08BE793E00E941C3080917F029091DD
:103B1000800290937A038093790381E08093DB03A2
:103B200080914603909147038F3F980729F00196B3
:103B300090934703809346038091EC02803430F2E7
:103B400080914403909145038F3F980709F4BECFBD
:103B500001969093450380934403B8CF6FE072E0E1
:103B600081E892E00E9447302091EC02892BD1F04D
:103B700080914E0390914F038F3F980729F0019653
:103B800090934F0380934E03203460F080914A035A
:103B900090914B038F3F980729F0019690934B0328
:103BA00080934A0380914803909149038F3F98077F
:103BB00029F001969093490380934803203408F438
:103BC00085CF80914203909143038F3F980709F47A
:103BD0007DCF0196909343038093420377CF4F5F4D
:103BE0005F4F61E872E088EF93E00E941C308091A3
:103BF0007F029091800290937F0480937E04DF91F6
:103C0000CF910C94941880915C04882309F441C0EE
:103C100080917E02E82FF0E0E15FFE4F90819D13DE
:103C200033C08F5F873019F080937E0222C01092DC
:103C30007E0210925C0410925B048091500390917C
:103C400051038F3F980729F0019690935103809379
:103C500050038091EC02803460F080914C0390918D
:103C60004D038F3F980729F0019690934D03809361
:103C70004C03DD3009F42ACFC091E202CF3560F069
:103C800081E08093E10222CF81E0D33569F280E0C8
:103C9000CBCF10927E02EDCFC1110CC00E948B0ED3
:103CA0002091740330917503621B730B7093800233
:103CB00060937F0281E08C0F8093E202EC2FF0E0B2
:103CC000EF57FD4FD08302CF8CE995E00E944E1054
:103CD000892B39F08CE995E00E9464100E94381D10
:103CE000F3CF8091BA0580FF0FC08E7F8093BA0515
:103CF00080915403909155038F3F980729F00196C6
:103D0000909355038093540308952F923F924F92BE
:103D10005F927F928F929F92AF92BF92CF92DF92EB
:103D2000EF92FF920F931F93CF93DF931F92CDB724
:103D3000DEB79E012B5B354040910001509101019F
:103D40002417350720F4309301012093000170906F
:103D50007404711015C0E12C8E2D0F90DF91CF915E
:103D60001F910F91FF90EF90DF90CF90BF90AF9099
:103D70009F908F907F905F904F903F902F900895ED
:103D80009B0121503109203A310528F78B016C0144
:103D9000E0905C04EE2009F45AC00E948B0E009162
:103DA000EE021091EF022091F0023091F102DC015D
:103DB000CB01801B910BA20BB30B80342FE1920738
:103DC000A105B10568F5803D9740A105B105B8F0A2
:103DD00080915B04811113C081E080935B0480912A
:103DE0006603909167038F3F980729F0019690939F
:103DF00067038093660388E497E00E94DD11809159
:103E00006803909169038F3F980729F0019690937A
:103E100069038093680380EF96E00E94DD119BCFD9
:103E200010925C0410925B048091560390915703AA
:103E30008F3F980729F0019690935703809356037C
:103E400084E996E00E94DD110E94081184CF81E090
:103E50008093ED026093EC020E948B0E8090E8024A
:103E60009090E902A090EA02B090EB0268197909FB
:103E70008A099B09603571058105910518F40E9436
:103E8000641EEACF68E876E08CE995E00E94A30E14
:103E90004801FFEF8F1A9F0AB4018CE995E00E9458
:103EA000F21265E876E08CE995E00E94A30E0E948C
:103EB0008B0E1B012C01B12CA12C0E948B0E6219C0
:103EC0007309840995096C3271408105910508F0E8
:103ED00048C08CE995E00E944E10892B71F38CE963
:103EE00095E00E946410F82E8EE3F81609F470C075
:103EF0008F2D0E94381D8FEB8F0D8A3110F4E0E278
:103F0000FE0EEA2DF0E0E15DFE4F8081A3948F1557
:103F100029F0AA24A394F2E6FF12A12CEA2DF0E0E6
:103F2000E15DFE4F8081882309F4B4C0EB2DF0E001
:103F3000E75DFE4F8081B3948F1529F0BB24B394C5
:103F400025E6F212B12CEB2DF0E0E75DFE4F80810B
:103F50008111BFCF92E0F92E8EED95E00E94DD1128
:103F600067C083E0F82EB12CA12C63E28CE995E0C8
:103F70000E94F20FC5018F7099270F9711F40E94CC
:103F8000641E8FEFA81AB80A0A151B0571F76AE0BC
:103F90008CE995E00E94F20F0E94641E8091580304
:103FA000909159038F3F980729F0019690935903F8
:103FB0008093580362EB75E08FEF94E00E94A30EAC
:103FC000B4018FEF94E00E94F21284E795E0C6CF2F
:103FD000F12C0C0D1D1D560145018C189D08F50195
:103FE00061915F018CE995E00E94F20FFFE08F2262
:103FF00099242FE08216910411F40E94641E0A1580
:104000001B0551F76AE08CE995E00E94F20F0E94CF
:10401000641E81E080935C0410925B040E948B0E0E
:104020006093EE027093EF028093F0029093F1029E
:104030000E948B0E6093E8027093E9028093EA027B
:104040009093EB021092ED0263E675E0F11002C06E
:104050006EE675E08FEF94E00E94A30EC6010E9409
:104060004415F1E0FF1649F1F11019C010925D04FA
:104070000E948B0E60935E0470935F0480936004D3
:104080009093610410926A0310926B0310926C0378
:10409000E72C62CEFF24F3948FE196E05FCF0E947D
:1040A000C41222E0F21212C080916A038F3F09F419
:1040B00052CE8F5F80936A034FCE80916C038F3F07
:1040C00009F449CE8F5F80936C0346CE80916B03D9
:1040D0008F3F09F441CE8F5F80936B033DCE1F92DB
:1040E0000F920FB60F9211242F933F938F939F93AC
:1040F000AF93BF938091F2039091F303A091F403E7
:10410000B091F5033091F10323E0230F2D3758F5DB
:104110000196A11DB11D2093F1038093F2039093AA
:10412000F303A093F403B093F5038091ED03909112
:10413000EE03A091EF03B091F0030196A11DB11D14
:104140008093ED039093EE03A093EF03B093F003FD
:10415000BF91AF919F918F913F912F910F900FBE83
:104160000F901F90189526E8230F0296A11DB11DF0
:10417000D2CF1F920F920FB60F9211242F933F931D
:104180004F935F936F937F938F939F93AF93BF935F
:10419000EF93FF938FEF94E00E94450FFF91EF9113
:1041A000BF91AF919F918F917F916F915F914F914F
:1041B0003F912F910F900FBE0F901F9018951F9257
:1041C0000F920FB60F9211242F938F939F93EF931B
:1041D000FF93E0910F05F09110058081E0911505A6
:1041E000F091160582FD1BC09081809118058F5FAC
:1041F0008F7320911905821741F0E0911805F0E0C6
:10420000E150FB4F958F80931805FF91EF919F919F
:104210008F912F910F900FBE0F901F901895808156
:10422000F4CF1F920F920FB60F9211242F933F934A
:104230004F935F936F937F938F939F93AF93BF93AE
:10424000EF93FF93E0913403F0913503309749F0F9
:10425000A685B7858585968D91FF14C09C9189238D
:10426000A1F4FF91EF91BF91AF919F918F917F91B9
:104270006F915F914F913F912F910F900FBE0F90D3
:104280001F9018959C91892361F7A389B4899C910B
:104290008589809589238C93868997890197F1F781
:1042A000608D718DA685B785558538E020E0CB01FE
:1042B0000197F1F7822F90E095958795282F4C91E3
:1042C000452309F02068315091F7868D81FD2095B6
:1042D0008091330390E001968F73992730913203D8
:1042E000381799F0A0913303B0E0AE50BD4F2C9336
:1042F00080933303828D938D0197F1F7A389B4895D
:104300008C919589892B8C93ACCF868D8160868F1B
:10431000F1CF109202051092010588EE93E0A0E023
:10432000B0E08093030590930405A0930505B09336
:1043300006052FE531E0309300052093FF0425ECBE
:1043400030E030930C0520930B0524EC30E03093E3
:104350000E0520930D0520EC30E0309310052093DE
:104360000F0521EC30E0309312052093110522EC6B
:1043700030E0309314052093130526EC30E03093A1
:104380001605209315051092180510921905109224
:104390001A0510921B0510929F0510929E0580939E
:1043A000A0059093A105A093A205B093A30581E772
:1043B00091E090939D0580939C051092B305109217
:1043C000B2051092B5051092B4051092B70510927F
:1043D000B6051092B9051092B8056091BA056E7FC6
:1043E0006D7F6093BA056695617081E0682787E00C
:1043F0000E94210E61E087E00E944F0EE5E4FBE1A0
:10440000E491E093AC05E1E3FBE1E491F0E0EE0F31
:10441000FF1FE05EF44E859194919093AE058093DA
:10442000AD0560E088E00E944F0E8091BA0581FDE5
:1044300004C061E088E00E94210E88E08093A80516
:10444000E6E4FBE1E491E093A905E2E3FBE1E4911A
:10445000F0E0EE0FFF1FEA5EF44E85919491909389
:10446000AB058093AA050895CF93DF93CDB7DEB750
:10447000C25DD1090FB6F894DEBF0FBECDBF7894F0
:1044800084B5826084BD84B5816084BD85B5826059
:1044900085BD85B5816085BD80916E00816080930A
:1044A0006E00109281008091810082608093810073
:1044B0008091810081608093810080918000816083
:1044C000809380008091B10084608093B1008091DE
:1044D000B00081608093B00080917A008460809306
:1044E0007A0080917A00826080937A0080917A00CD
:1044F000816080937A0080917A00806880937A004E
:104500001092C100E0910F05F091100582E08083C8
:10451000E0910B05F0910C051082E0910D05F091F2
:104520000E0580E1808310921705E0911305F0914C
:10453000140586E08083E0911105F09112058081D9
:1045400080618083E0911105F0911205808188607F
:104550008083E0911105F09112058081806880834D
:10456000E0911105F091120580818F7D808310927A
:10457000B7051092B6051092B5051092B4051092C9
:10458000B3051092B2058DE991E09093B90580933F
:10459000B8059091A805963108F047C02DEB30E0A2
:1045A0003093B3052093B2052BE931E03093B50584
:1045B0002093B4052CE231E03093B7052093B60583
:1045C0002091680084E0983048F031E09E3008F493
:1045D00030E081E001C0880F3A95EAF7822B8093A2
:1045E00068002DE630E0983050F02BE630E09E3049
:1045F00030F02CE630E0963110F030E020E03093DF
:10460000B0052093AF05292F30E0983008F092C212
:1046100081E001C0880F9A95EAF78093B1058091F7
:10462000B8059091B9050197F1F78091B605909181
:10463000B705892B49F1E0913403F091350315E07A
:10464000EC39F10709F1309739F0A389B4899C91CD
:104650008589809589238C938091BA058E7F80937C
:10466000BA0510923303109232038CE995E09093CF
:10467000350380933403E091AF05F091B00580815C
:104680009091B105892B808310926D040E948B0E4E
:104690006093690470936A0480936B0490936C0434
:1046A00084EF91E090930901809308010E948B0EA2
:1046B00060937403709375038093760390937703EC
:1046C00081E480937C0080917A00806480937A00FA
:1046D00080917A0086FDFCCF40917800509179005E
:1046E000052E000C660B770B3FB7F8948091ED0315
:1046F0009091EE03A091EF03B091F00326B5A89B33
:1047000005C02F3F19F00196A11DB11D3FBFBA2F63
:10471000A92F982F8827820F911DA11DB11DF2E0AE
:10472000880F991FAA1FBB1FFA95D1F78A019B0119
:10473000082719272A273B27481759076A077B07A5
:1047400021F0C901B8010E94822FEDEBFAE18491BA
:104750008F3F21F0849162E00E944F0EE5ECFAE178
:1047600084918F3F21F0849162E00E944F0E10925D
:10477000EC031092E9031092E8031092EB031092FD
:10478000EA0361E08DE00E944F0E67E97EE089E276
:1047900092E00E9474116AE175E18CE292E00E945D
:1047A00074111E01F2EA2F0E311C4E011FEB810E17
:1047B000911C9E0126543F4FCC53DF4F39832883F1
:1047C000C45CD0408091E303811196C081E0809366
:1047D000E30367E872E18FEF94E00E94A30E0E946A
:1047E000D7116EE772E18FEF94E00E94A30EE6EB23
:1047F000FAE1E491E983E7EBFAE1E491EA831B82D1
:10480000BE016F5F7F4F8FEF94E00E94C8118DE370
:104810000E94B40FEDEBFAE184918F3F09F497C148
:1048200060E772E18FEF94E00E94A30EEDEBFAE1F6
:1048300084910E94BB1280E20E94B40FEEEBFAE179
:10484000E491E983EFEBFAE1E491EA831B82BE0194
:104850006F5F7F4F8FEF94E00E94C8118DE30E943D
:10486000B40FE5ECFAE184918F3F09F077C164E77A
:1048700072E18FEF94E00E94A30E80E20E94B40FD9
:104880000E94D71164E572E18FEF94E00E94A30EBD
:1048900082E00E94BB1268E472E18FEF94E00E9414
:1048A000A30E84E00E94BB1286E392E10E94DD1118
:1048B0006FE172E18FEF94E00E94A30E8091BB053F
:1048C000811158C187ED91E10E94DD1160E571E130
:1048D0008FEF94E00E94A30E63E271E18FEF94E00A
:1048E0000E94A30E6EE071E18FEF94E00E94A30E90
:1048F0008AE091E10E94DD110E948B0E2B013C01A8
:1049000080917404882309F45EC18091E2038823B6
:1049100039F18091650490916604A0916704B0918B
:104920006804A3019201281B390B4A0B5B0BDA01C7
:10493000C90180339547A105B10594F067EB70E19B
:104940008FEF94E00E94A30E8091E2030E94BB12BD
:1049500082EB90E10E94DD111092E2031092E103DC
:104960000E94641E8091DB038823A9F080E6EBE7B8
:10497000F3E0A8EFB3E001900D928A95E1F7809102
:10498000790390917A0390937F0480937E04109230
:10499000DB030E94941846EB5AE1C853DF4F59835A
:1049A0004883C85CD0407A0110E000E0CA53DF4F72
:1049B00019821882C65CD040B02E8091EC03882307
:1049C00009F431C38091E8039091E903002E02C0FD
:1049D000969587950A94E2F780FF25C38091EA03B4
:1049E0009091EB03002E02C0969587950A94E2F70A
:1049F00080FF15C081E090E002C0880F991FBA9433
:104A0000E2F7CA53DF4FA881B981C65CD040A82B1A
:104A1000B92BCA53DF4FB983A883C65CD040B8E036
:104A2000EB0EF11C0130110509F0FAC2CA53DF4F39
:104A3000E881F981C65CD040F093E503E093E4039C
:104A40008091EC03882309F41CC32091E803309182
:104A5000E903C553DF4F39832883CB5CD040809175
:104A6000060190910701CA53DF4FA881B981C65C46
:104A7000D0408A179B07C9F42091E6033091E703E1
:104A800080910401909105012817390771F48091F4
:104A9000020190910301C553DF4FE881F981CB5C9E
:104AA000D0408E179F0709F4F5C2809178038111D9
:104AB00003C081E080937803C0907403D0907503A5
:104AC000E0907603F090770340917003509171036A
:104AD0006091720370917303F0917404E0916F031D
:104AE00020916D0330916E03D301C2018C199D0991
:104AF000AE09BF09803B14E09107A105B10508F498
:104B0000CCC210EBC10E14E0D11EE11CF11CFF233E
:104B100039F0E11105C02F3F320711F02F5F3F4FF1
:104B20004F5F5F4F6F4F7F4F805B9440A109B1098A
:104B3000E0E0E0CF9E3040F42850310981E001C030
:104B4000880F2A95EAF769CD2E503109F7CF64E72F
:104B500072E18FEF94E00E94A30E6DCE60E772E1E8
:104B60008FEF94E00E94A30EE5ECFAE184910E949D
:104B7000BB1283CE80FF06C064EC71E18FEF94E03E
:104B80000E94A30E8091BB0581FF06C06AEA71E115
:104B90008FEF94E00E94A30E8091BB0582FF06C0B8
:104BA00067E871E18FEF94E00E94A30E8091BB054E
:104BB00083FF06C06CE771E18FEF94E00E94A30EC3
:104BC0000E94D71183CE8091E003882379F077FC8F
:104BD0000DC01092E0030E9422136CED75E081E09D
:104BE0000E945E118BED9CE00E94DD118091E0033C
:104BF0008111B6CE8091690490916A04A0916B04F2
:104C0000B0916C04B301A201481B590B6A0B7B0BDA
:104C10008091080190910901B0E0A0E04817590780
:104C20006A077B0708F49CCE80916D04853059F4A7
:104C300080917B04811107C082E690E10E94DD1122
:104C400082E080936D0410916D04123091F4809194
:104C50007904882309F455C01092790480917A046C
:104C60008A3F18F48F5F80937A0481E00E94631377
:104C700077CE1B3008F060C0E12FF0E0EE5BF94D1D
:104C80000C9416304D265E269C26C4260E272F2710
:104C900054279727B827D927FD2768E77FE08CE9B5
:104CA00095E00E94A30E6CE67FE08FEF94E00E94F7
:104CB000A30E0E94D711109279043EC06EE57FE0EA
:104CC0008CE995E00E94A30E6DE47FE08FEF94E005
:104CD0000E94A30E0E94D71181E080930A014092A6
:104CE000690450926A0460926B0470926C0480E2D2
:104CF00093E090930901809308011F5F10936D0466
:104D00002FCE6AE27FE08CE995E00E94A30E63EF6C
:104D10007EE08FEF94E00E94A30E0E94D71181E005
:104D2000809379040E948B0E6093DC037093DD0303
:104D30008093DE039093DF0310930A01409269048D
:104D400050926A0460926B0470926C04E12FF0E060
:104D5000EE0FFF1FEC5CFE4F808191819093090163
:104D600080930801EEEFE10FE93038F6F0E0E5540A
:104D7000F94D0C941630FB27E3262D274E27732779
:104D8000B627D727F827FB2768EE7EE08CE995E069
:104D90000E94A30E6AEB7EE08FEF94E00E94A30EC8
:104DA0000E94D71183E080930A01409269045092D7
:104DB0006A0460926B0470926C0484EC99E09093A6
:104DC000090180930801809172048F5F80937204BF
:104DD000833008F41BC18091730410927204109206
:104DE00073048111CAC780917104811102C00E94AD
:104DF00007138EEC9FE00E94DD1182E080936D042A
:104E000080E00E94631380916D04833009F0A8CD87
:104E100068EE73E082E00E945E11A2CD6CEA7EE053
:104E20008CE995E00E94A30E6BE97EE08FEF94E0A1
:104E30000E94A30E0E94D71184E080930A01409241
:104E4000690450926A0460926B0470926C0480EB67
:104E500094E0909309018093080185E0D8C063E74E
:104E60007EE08CE995E00E94A30E62E67EE08FEF83
:104E700094E00E94A30E0E94D71185E080930A015E
:104E80004092690450926A0460926B0470926C04C0
:104E900080E49FE1909309018093080180916E0462
:104EA0008823D9F286E0B3C064E57EE08CE995E022
:104EB0000E94A30E6CE27EE08FEF94E00E94A30EAE
:104EC0000E94D71186E080930A01409269045092B3
:104ED0006A0460926B0470926C0480E293E0909399
:104EE00009018093080180915A048F5F80935A04CE
:104EF000833008F48FC06EEB7FE08FEF94E00E9468
:104F0000A30E80915A040E94BB1281E89FE00E9488
:104F1000DD1110926D0410926E0410925A0488EC08
:104F200090E0909309018093080182E09FCE63E2B4
:104F30007EE08CE995E00E94A30E6CEF7DE08FEFA0
:104F400094E00E94A30E0E94D71187E080930A018B
:104F50004092690450926A0460926B0470926C04EF
:104F60008CED95E0909309018093080188E04FC093
:104F70006DED7DE08CE995E00E94A30E63EA7DE093
:104F80008FEF94E00E94A30E0E94D71188E08093D7
:104F90000A014092690450926A0460926B04709214
:104FA0006C048CED95E0909309018093080189E0F1
:104FB0002EC068E97DE08CE995E00E94A30E6CE6C6
:104FC0007DE08FEF94E00E94A30E0E94D71189E04C
:104FD00080930A014092690450926A0460926B04C3
:104FE00070926C0488E293E2909309018093080127
:104FF00081E080936F0482E00AC061E67DE08CE985
:1050000095E00E94A30E6FE27DE04FCE83E0809397
:105010006D04A6CC83E080936D0410927204A0CC42
:1050200001E010E0C9CCF701379684918F3F09F475
:10503000F6CCE4912E2F30E0F901EF54FD4E84912F
:10504000F901E25CF44EC490F901E65DF44ED490AF
:10505000DD2009F4CFCC81110E94F80DED2DF0E098
:10506000EE0FFF1FEA5EF44EA591B491EC91CE22B3
:1050700081E090E011F490E080E0892B09F0CFCC42
:10508000B9CC4FEF5FEFC553DF4F59834883CB5CFB
:10509000D040E5CC109278030FCDE0936F03C0921F
:1050A0007403D0927503E0927603F09277034093F5
:1050B0007003509371036093720370937303309382
:1050C0006E0320936D0388539F4FAF4FBF4F8935B9
:1050D0009240A105B10508F024C381E0E827FF2331
:1050E00009F490C080915E0490915F04A0916004E7
:1050F000B0916104A3019201281B390B4A0B5B0B91
:10510000DA01C90180319742A105B1050CF40BC346
:1051100061EC7CE08FEF94E00E94A30E80915E042E
:1051200090915F04A0916004B0916104B301A20169
:10513000481B590B6A0B7B0B8FEF94E00E94B8124F
:1051400067E97CE08FEF94E00E94A30E80916C03EE
:105150000E94BB1269E87CE08FEF94E00E94A30EEE
:1051600080916B030E94BB126EE77CE08FEF94E0AE
:105170000E94A30E80916A030E94BB1267E67CE046
:105180008FEF94E00E94A30E609168037091690311
:105190008FEF94E00E94F21266E57CE08FEF94E0DE
:1051A0000E94A30E60916603709167038FEF94E0F5
:1051B0000E94F21269E47CE08FEF94E00E94A30E5B
:1051C00060915804709159048FEF94E00E94F2129C
:1051D0006BE37CE08FEF94E00E94A30E6091640388
:1051E000709165038FEF94E00E94F2128AE19CE0D7
:1051F0000E94DD1110926A0310926B0310926C03EF
:105200000E94081180915C0390915D03A0915E0360
:10521000B0915F03A3019201281B390B4A0B5B0B72
:10522000DA01C90180369A4EA105B10508F4ABC177
:10523000809174048823E1F0809174039091750348
:10524000A0917603B091770322E330E040E050E094
:10525000281B390B4A0B5B0BDA01C901840D951D24
:10526000A61DB71D89359240A105B10508F08BC177
:1052700040925C0350925D0360925E0370925F0304
:1052800066E37BE08FEF94E00E94A30EC301B201BE
:1052900028EE33E040E050E00E94BD2FBA01A901A2
:1052A0008FEF94E00E94B8126FE27BE08FEF94E002
:1052B0000E94A30E60915A0370915B038FEF94E0FC
:1052C0000E94F21266E27BE08FEF94E00E94A30E50
:1052D00060916403709165038FEF94E00E94F21275
:1052E0006EE17BE08FEF94E00E94A30E70E060E03F
:1052F0008FEF94E00E94F2128FE20E94B40F60914F
:105300006204709163048FEF94E00E94F21265E1F1
:105310007BE08FEF94E00E94A30E609158037091A0
:1053200059038FEF94E00E94F2126AE07BE08FEF66
:1053300094E00E94A30E60915804709159048FEF7D
:1053400094E00E94F21263E07BE08FEF94E00E9411
:10535000A30E60916603709167038FEF94E00E9443
:10536000F2126BEF7AE08FEF94E00E94A30E60914F
:105370005603709157038FEF94E00E94F21264EF8E
:105380007AE08FEF94E00E94A30E8091F9040E94CE
:10539000BB126AEE7AE08FEF94E00E94A30E609158
:1053A000FB047091FC048FEF94E00E94F2126FED09
:1053B0007AE08FEF94E00E94A30E6091FD0470915B
:1053C000FE048FEF94E00E94F21268ED7AE08FEF16
:1053D00094E00E94A30E409170035091710360917C
:1053E0007203709173038FEF94E00E94B81262ED24
:1053F0007AE08FEF94E00E94A30E60917C0470919C
:105400007D048FEF94E00E94F2126AEC7AE08FEF55
:1054100094E00E94A30E60916D0370916E038FEF74
:1054200094E00E94F21262EC7AE08FEF94E00E9426
:10543000A30E60915403709155038FEF94E00E9486
:10544000F21268EB7AE08FEF94E00E94A30E609175
:105450005203709153038FEF94E00E94F212E09098
:105460005003F0905103C0904E03D0904F03009131
:105470004C0310914D03A0904A03B0904B036DEA8A
:105480007AE08FEF94E00E94A30EB7018FEF94E0D3
:105490000E94F21262EA7AE08FEF94E00E94A30E7B
:1054A00060914803709149038FEF94E00E94F212DB
:1054B00067E97AE08FEF94E00E94A30E60914603C3
:1054C000709147038FEF94E00E94F2126DE87AE04A
:1054D0008FEF94E00E94A30E609144037091450306
:1054E0008FEF94E00E94F21263E87AE08FEF94E08D
:1054F0000E94A30E60914203709143038FEF94E0EA
:105500000E94F21269E77AE08FEF94E00E94A30E06
:10551000B8018FEF94E00E94F21260E77AE08FEF1B
:1055200094E00E94A30EB6018FEF94E00E94F21265
:1055300064E67AE08FEF94E00E94A30EB5018FEF4E
:1055400094E00E94F2126DE57AE08FEF94E00E9401
:10555000A30E60916803709169038FEF94E00E943D
:10556000F21264E57AE08FEF94E00E94A30E40917E
:10557000740450E070E060E02AE08FEF94E00E9455
:105580006C120E94D7118091740481117FC08091A8
:105590003E0390913F03A0914003B0914103A301CA
:1055A0009201281B390B4A0B5B0BDA01C901883BBE
:1055B0009B40A105B10508F469C040923E0350929A
:1055C0003F0360924003709241036FE37AE08FEFF4
:1055D00094E00E94A30E80916D040E94BB1263E3CD
:1055E0007AE08FEF94E00E94A30E8091E2030E9484
:1055F000BB128FE20E94B40F8091E1030E94BB12A4
:105600008091E003882331F06DE17AE08FEF94E040
:105610000E94A30E68E17AE08FEF94E00E94A30E4F
:1056200040913A0350913B0360913C0370913D03DC
:105630008FEF94E00E94B81260E17AE08FEF94E07F
:105640000E94A30E409180045091810460918204D5
:10565000709183048FEF94E00E94B8126BE07AE0BF
:105660008FEF94E00E94A30EC301B20128EE33E055
:1056700040E050E00E94BD2FBA01A9018FEF94E0F5
:105680000E94B81289E09AE00E94DD1180913603F1
:1056900090913703A0913803B0913903A30192018F
:1056A000281B390B4A0B5B0BDA01C90180369A4E75
:1056B000A105B10540F14092360350923703609244
:1056C00038037092390364EF79E08FEF94E00E9421
:1056D000A30E60910001709101018FEF94E00E9490
:1056E000F21266ED79E08FEF94E00E94A30E6091D4
:1056F0005803709159038FEF94E00E94F21285EAEB
:1057000099E00E94DD1180E090E0892B09F45AC8ED
:105710000E94310F882309F44CC80E9400000C94A9
:10572000D523E0E0DCCCEE2309F46CCD4091E60318
:105730005091E703C353DF4F59834883CD5CD0407A
:105740000E948B0E9B01AC012C193D094E095F098B
:10575000C153DF4F288339834A835B83CF5CD040BA
:10576000F090F703FF2009F469C11F9284E08F9342
:105770001F9287E08F938FE292E09F938F931F9207
:1057800081EA8F93AE014F5F5F4F7A015F934F9332
:105790000E9461300FB6F894DEBF0FBECDBF181661
:1057A00019060CF0A4C09C012D5F3F4F223A310531
:1057B00008F09DC0682FC7010E943511F7010190C4
:1057C0000020E9F731978F010E191F09C653DF4FEB
:1057D0001882CA5CD040C853DF4FE881F981C85CA9
:1057E000D0408491D4018C933196E4911196EC933E
:1057F000119712961C92BE0166547F4FC653DF4F1D
:105800008881CA5CD0400E94F010CB53DF4FB88132
:10581000C55CD040BF93CC53DF4FE881C45CD0401F
:10582000EF939F928F922AE332E03F932F931F9240
:1058300058E15F933F922F920E9461300FB6F89427
:10584000DEBF0FBECDBF181619060CF050C09C016C
:105850002D5F3F4F2931310508F049C0682FC10144
:105860000E943511F10101900020E9F731976F0195
:10587000C218D308C801805A91098C0D9D1D8F351F
:105880009F4FA8F15801EFEFAE1ABE0AF701E00FE3
:10589000F11F1AE01083A6014F5F5F4FB101C701EE
:1058A0008A0D9B1D0E941C3086010A0D1B1DC653CC
:1058B000DF4F2881CA5CD0402F5FC653DF4F28835B
:1058C000CA5CD040C853DF4F48815981C85CD04082
:1058D000485F5F4FC853DF4F59834883C85CD0404F
:1058E000243009F078CF0115110509F07AC08EE94E
:1058F0009BE00E94DD1110E000E0D12CF12C81E052
:1059000080936F0360E17CE08FEF94E00E94A30E30
:105910004091700350917103609172037091730311
:105920008FEF94E00E94B8126BE07CE08FEF94E080
:105930000E94A30EB8018FEF94E00E94F21265E07E
:105940007CE08FEF94E00E94A30E8D2D0E94BB128D
:105950006FEF7BE08FEF94E00E94A30EC153DF4F07
:10596000488159816A817B81CF5CD0408FEF94E080
:105970000E94B8128AEF9BE0F11002C085EF9BE015
:105980000E94DD110E948B0EFF2009F43BCC809118
:105990006203909163030196909363038093620383
:1059A000CA53DF4F28813981C65CD040309307014C
:1059B00020930601C353DF4F48815981CD5CD0400D
:1059C0005093050140930401C553DF4F88819981AD
:1059D000CB5CD04090930301809302011092780336
:1059E00011CCB801C7010E94851EF82E882309F446
:1059F000C9C11092F70380916003909161038F3FBA
:105A0000980729F00196909361038093600360E901
:105A10007BE08FEF94E00E94A30E66E87BE08FEFBF
:105A200094E00E94A30EB8018FEF94E00E94F2125E
:105A30008EE89BE00E94DD11D12C61CF2091E40320
:105A40003091E50380918C0490918D04B401822BF8
:105A5000932B0E94E40DBE0166547F4F8091E603B4
:105A60009091E7030E94E40D10916203009163039B
:105A70008091EC03882309F441C0B1018091E803CF
:105A80009091E9030E94E40D0E948B0E3F922F92A9
:105A900023E432E03F932F9328EE33E040E050E0E0
:105AA0000E94BD2F5F934F933F932F93CB53DF4FB4
:105AB0008881C55CD0408F93CC53DF4F9881C45C04
:105AC000D0409F939F928F920F931F9386E492E012
:105AD0009F938F931F9280E48F93CE0101969F93A3
