:100000000C94B20D0C94E90D0C94E90D0C9418218C
:100010000C9418210C9418210C94E90D0C94E90D02
:100020000C94E90D0C94E90D0C94E90D0C94E90D78
:100030000C94E90D0C94E90D0C94E90D0C94E90D68
:100040000C9476200C94E90D0C94E6200C94C020BE
:100050000C94E90D0C94E90D0C94E90D0C94E90D48
:100060000C94E90D0C94E90DEBB094EC9DB4ED8A81
:10007000B8EBA5BC20EB8498EC96B420EBB284EBF3
:10008000A0B8EB8BA4005B44524F502D4F56465DF9
:1000900020ECA484EC9DB42000EBB094EC9DB4ED76
:1000A0008AB820EBB284EBA6BC202B20ECA48420E1
:1000B000ECA1B0EBA6BD20ECB488EAB8B0ED999401
:1000C000005B4C41444445525D2031EB8BA820EC51
:1000D000A1B0ECB9983A20EC8B9CEBA6ACEC96BCAA
:1000E00020EB939CEBA088EC9DB82000ECB488201A
:1000F000EBB0B1EC98A4ED9484EBA19C20EB90982C
:10010000ED9280EC9DB4ED959CEB8BA428ECA28540
:10011000ECB0A9EC97AD29005B4C41444445525DDD
:10012000202020EB8C80EC8BA02034EB8BA820ECE3
:10013000A1B0ECB998EBA5BC20005B4C4144444510
:10014000525D202020ED9584EC9A9420EBB680ED52
:1001500092883A20EBA19CEC9AB0EC82ACEC9DB476
:10016000EB939C204D4F5346455420EC8AA4EC9CC5
:1001700084ECB99828EC98883A20324E37303030E9
:100180002F414F33343030202B2031306B29005B2E
:100190004C41444445525D20E29AA035EB8BA820A7
:1001A000EBAFB8EC8BA4ED96893A20ECA084EC9BE5
:1001B0009020EC9EACED88ACEC9E85EC9D80202AD6
:1001C0002AEBB680ED928820EBAFB8EBB3B4EC9C91
:1001D000A0EBA19C20EBAFB8EAB5ACED98842A2A3D
:1001E000EC9DB4EB8BA428EBB0B0ECA09CEAB08003
:1001F00020EC9584EB8B88EB8BA42900ECB4882051
:10020000EC89ACEAB3A02041542B52535420EBA507
:10021000BC20EB9098ED9280EC9DB4ED959CEB8B1F
:10022000A42028EC9DB4EAB283EC9DB420ECA09508
:10023000EC838120EAB2BDEBA19CEB8BA429005B8F
:100240004C41444445525D202020E2869220005BD0
:100250004C41444445525D202020EC9CA0EC9DBCC8
:10026000ED9598EAB28C20ED9280EBA6ACEB8A94E7
:1002700020ED8E8CEC9BA8EC96B42068616E672014
:10028000EC9D8020EC86A1EC8898EC8BA020EBA163
:100290009CECA78120EC9EACEC84A4EAB384EBA197
:1002A0009C20ECA09CEAB1B0ED9688EB8BA4005B9F
:1002B0004C41444445525D202020ECA084EC9B90AE
:1002C000C2B7454EC2B75253542D4C4F5720EC8302
:1002D00081ED839CEBA9B42052535420ED9580EC22
:1002E0009D8420ED9D94EB93A4EC96B4EB8F842039
:1002F000EB8F99EC9DBCED9598EAB3A02C005B4C7C
:1003000041444445525D2034EB8BA820EAB1B4EB64
:100310008488EB9C803A20ED9598EB939CEC9BA80D
:10032000EC96B420EBA6ACEC858BEC9D80202A2AC1
:10033000EC84A4EAB384EC838120EBB0B0ECA09C05
:100340002A2AEB8BA428EBAFB8EBB0B0EC84A0EC7E
:100350009DB420EC9584EB8B88EB8BA42900ECB446
:100360008820EC89ACEAB3A02041542B525354208E
:1003700028EBAAA8EB938820EC868CED9484ED8A78
:10038000B820EBA6ACEC858B29005B4C414444457E
:10039000525D2033EB8BA820ECA1B0ECB9983A2049
:1003A00000ECB48820EC89ACEAB3A02041542B4384
:1003B0005751415020EBA19C20EAB2B0ED95A9EC39
:1003C0009D8420EBAA85EC8B9CECA081EC9CBCEB83
:1003D000A19C20EB818AEC9D8020EB92A420EB8BEA
:1003E000A4EC8B9C20EBB699EB8A94EB8BA4005B7E
:1003F0004C41444445525D2032EB8BA820ECA1B027
:10040000ECB9983A2000EB8BA8005B4C4144444582
:10041000525D20E28691E2869120EB8BA820EC834E
:1004200081EC8AB920E2869220005B4C414444452D
:10043000525D20E286912033EB8BA82841542B5249
:1004400053542920ECA781ED968920E28094204125
:100450005420EAB384ECB8B5EC9DB420EC9EA0EA3D
:10046000B2BCEC9CBCEBA9B420EC9584EB9E98202C
:10047000EB8BA8EC9D8020EC9D98EBAFB8EAB080A8
:1004800020EC9786EB8BA400ED9A8C20EB8884EC13
:10049000A0812900EB8BA8280020C2B720ED98840A
:1004A000EC9EAC2000EC9786EC9D8C00ED9A8C20A5
:1004B000C2B720EAB2B0ED95A9EC9CA0ECA78020D1
:1004C000007320C2B720EC97B0EC868D2000292065
:1004D00043574A4150EC868CEC9A94200043574A8B
:1004E0004150204641494C00415420EAB384ECB8C5
:1004F000B520EC9EA0EAB9800043574A415020EB5A
:10050000ACB4EC9D91EB8BB5005B4C41444445523F
:100510005D20EC8BA4ED8CA828005B4C4144444545
:10052000525D2031ECB48820EC9588EC979020EB5C
:1005300093A4EC96B4EC98A820ECA491EBB3B5206E
:10054000EC8BA4ED8CA820EC8BA0ED98B820E28079
:100550009420EC84B8ECA78020EC958AEB8A94EB8D
:100560008BA4005B54582D44524F505D20005B54C7
:10057000585D2000EBB094EC9DB4ED8AB8EBA19CE3
:1005800020EC8AA4ED8AB8EBA6BC20EBB3B5EAB5A3
:10059000AC28EC849CEBB284EB8A9420EC9DB420D4
:1005A000ECA484EC9D8420EBB284EBA6B0EB8BA48E
:1005B00029005B54582D524553594E435D20ED940C
:1005C00084EBA1ACED9484ED8AB820EB8693ECB972
:1005D000A820E2869220EB8D94EBAFB820005B540C
:1005E000582D52454A4543545D2043495053454E8A
:1005F0004420EAB1B0EBB680284552524F52292030
:10060000E2809420EB8D94EBAFB8EBA5BC20EB849B
:10061000A3ECA78020EC958AEB8A94EB8BA4005B7B
:1006200054582D425553595D2045535020EAB0800F
:1006300020EBB094EC8198EB8BA428EAB1B0EBB638
:10064000802920E2809420EC8BA4ED8CA8EBA19C67
:1006500020EC84B8ECA78020EC958AEB8A94EB8B95
:10066000A42E20EB8BA4EC9D8C20ECA3BCEAB8B0AC
:10067000EC979020EB8BA4EC8B9C20EBB3B4EB823B
:10068000B8EB8BA4000D0A0041542B43495053454D
:100690004E443D005B54582D574149545D20E2982B
:1006A00085E2988520543220ECB488EAB3BC20E27D
:1006B00080942053454E44204F4B20EAB08020EBDD
:1006C000819DEB82B420EC958820EC98A8EB8BA45C
:1006D00020E2869220EBA781ED81ACEBA5BC20EB5C
:1006E0008BA4EC8B9C20EC84B8EC9AB4EB8BA4002C
:1006F0005B54582D574149545D20EC959E20ECA049
:1007000084EC86A1EC9D982053454E44204F4B200D
:10071000EBA5BC20EC9584ECA78120EBAABB20EBD9
:10072000B4A4EB8BA420E2809420EC9DB4EBB288BF
:1007300020ECA3BCEAB8B0EB8A9420EAB1B4EB8415
:1007400088EB9BB4EB8BA4005B54582D5741495464
:100750005D20E2988520543120ECB488EAB3BC20B7
:10076000E2809420EAB7B8EB9E98EB8F8420EAB33E
:1007700084EC868D20EAB8B0EB8BA4EBA6B0EB8BB3
:10078000A428EB9190EB93A4EAB8B0ECA78020ECFE
:10079000958AEB8A94EB8BA429005B424144205359
:1007A0004C4F545D207269643D005B53494D5D20A0
:1007B000EC9DB420EC9EA5ECB998EB8A9420EC8BD0
:1007C0009CEBAEAC20EC8381ED839CEAB08020EC06
:1007D0009786EB8BA420E2869220726573756C7409
:1007E0003D35005B424144204649454C44535D2021
:1007F0007269643D005B445550207269645D20005D
:100800005B5245475D205120EC8898EC8BA020E29C
:10081000809420EB8BA4EC9D8C20EC86A1EC8BA02B
:1008200020ECB0BDEC979020EB93B1EBA19DEC9D3B
:100830008420EB8BA4EC8B9C20EBB3B4EB82B8EB65
:100840008BA40020E2809420ECBD9CEBB0B1EC9D29
:10085000B420EAB1B0ECA088206172673D0020E2CC
:10086000809420EB93B1EBA19D20EC9786EC9D8CBE
:100870000020E2809420EC9DB8EC9E9020ED95B491
:10088000EB8F8520EC8BA4ED8CA800206172673D76
:10089000005B475D206964783D005B475D20EAB1FD
:1008A000B0ECA088206964783D005B434B53554D04
:1008B000204E475D20005B4C325D20EAB1B0ECA0D9
:1008C0008820E280942037EC9E90EBA6AC20ECB41C
:1008D00088EAB3BC3A20005B4C325D20005B4E4599
:1008E000545D20E298852045535020EAB08020498D
:1008F0005020EBA5BC20EC9E83EC9788EB8BA420CA
:10090000E2809420EBAAA8EB938820EBA6ACEC85C0
:100910008BEC9CBCEBA19C20EBB3B8EB8BA42E2002
:10092000EB8884ECA08120EC82ACEAB1B42000ED2D
:100930009A8C20EC97B0EC868D20EC8BA4ED8CA8E3
:1009400020E2869220EC98A4ED9484EB9DBCEC9D73
:10095000B820ECA084ED99982E20EB82A1EC9D802C
:1009600020EC868CECBC93EBB680ED84B020EB8B56
:10097000ABEB8A94EB8BA428434950434C4F53452F
:1009800029005B4E45545D20ECA084EC86A120003C
:100990005B4E45545D20ECA084EC86A120EC8BA43A
:1009A000ED8CA82000EB81940020C2B72036EB8BA1
:1009B000A828EC9B8CECB998EB8F85292000EBAF35
:1009C000B8EBB0B0EC84A020E2809420413220EB60
:1009D000A5BC204553502052535420EC979020EB57
:1009E000ACBCEBA6ACEAB3A0204553505F525354C5
:1009F0005F57495245443D31005B424F4F545D20A3
:100A0000EC82ACEB8BA4EBA6AC2034EB8BA8284596
:100A1000535020ED9598EB939CEBA6ACEC858BECBA
:100A200084A0292000EC9B8CECB998EB8F852000EA
:100A30002A2AEBB88CEB9DBCEC9AB4EC9584EC9B29
:100A40008328ECA084EC9B90EBB680ECA1B1292A22
:100A50002A2000EC99B8EBB680EBA6ACEC858B288D
:100A6000EBB284ED8ABC2F445452292000ECA084C0
:100A7000EC9B90EC9DB8EAB08028504F52292000A2
:100A8000EC958C20EC889820EC9786EC9D8C20E2ED
:100A9000809420EC9DB420EBB680ED8AB8EBA19C4D
:100AA000EB8D94EAB080204D4355535220EC9D8449
:100AB00020ECA780EC9AB0EAB3A020EB8498EC96E7
:100AC000B4EC98A8EB8BA4005B424F4F545D20EB35
:100AD000A6ACEC858B20EC9B90EC9DB83A200020D6
:100AE0006D6F64756C6573202F206465763D5031A1
:100AF000002073656E736F7273202F20000A5B50A5
:100B000041524B494E47204E4F44455D2070726F15
:100B1000746F207631202F2000ED958000EC9588B1
:100B2000EC9DBDEC9D8C000A5B53454E535D20004F
:100B30000A5B4E45545D20EB8C80EC83812031397B
:100B4000322E3136382E302E32393A383838380095
:100B50005B4C41444445525D2034EB8BA83A204520
:100B6000535020EBA6ACEC858B20ED95B4ECA09C0B
:100B700020E2809420EBB680ED8C85EC9D8420EA09
:100B8000B8B0EB8BA4EBA0B8EB8BA4EAB080204309
:100B9000574D4F444520EBB680ED84B020EB8BA43D
:100BA000EC8B9C005B4E45545D2031302043575107
:100BB00041502028EAB2B0ED95A920ED95B4ECA003
:100BC0009C20E2809420EC82ACEB8BA4EBA6AC20C2
:100BD00032EB8BA8290041542B43575141500D0A49
:100BE000005B4E45545D20392043574C415020282E
:100BF000ECA3BCEBB38020415020EBAAA9EBA19D54
:100C000020E2809420ECA784EB8BA8290041542B90
:100C100043574C41500D0A005B4E45545D2038202F
:100C20004357434F554E5452592028ECB184EB841E
:100C3000902031322F313320EC9AB0ED9A8C20EC99
:100C40008B9CEB8F8420E2809420ECA784EB8BA814
:100C5000290041542B4357434F554E5452595F443A
:100C600045463D302C224B52222C312C31330D0A7B
:100C7000005B4E45545D203720474D522028ED8EB5
:100C80008CEC9BA8EC96B420ED8C9020E280942014
:100C9000ECA784EB8BA8290041542B474D520D0A39
:100CA000005B4E45545D203620434950434C4F5322
:100CB000452028EB82A1EC9D8020EC868CECBC9337
:100CC00020EB8BABEAB8B0290041542B4349504389
:100CD0004C4F53450D0A005B4E45545D2035204373
:100CE000495053544152540041542B43495053549A
:100CF0004152543D22544350222C223139322E315C
:100D000036382E302E3239222C383838380D0A0039
:100D10005B4E45545D2034204349504D55583D307D
:100D20000041542B4349504D55583D300D0A005B4E
:100D30004E45545D203320434946535220284950A4
:100D400020EBA5BC20EC8BA4ECA09CEBA19C20EBA1
:100D5000B09BEC9598EB8A94EAB080290041542B23
:100D600043494653520D0A005B4E45545D203220E4
:100D700043574A41502028EC9D91EB8BB5EAB98C42
:100D8000ECA78020ECB59CEB8C80203330ECB48851
:100D900020EAB8B0EB8BA4EBA6B0EB8BA429004102
:100DA000542B43574A41503D2233465F3330322261
:100DB0002C22303432343731393232322121220D73
:100DC0000A005B4E45545D20312043574D4F44454A
:100DD0003D310041542B43574D4F44453D310D0AA1
:100DE000005B4E45545D2030205253540041542B3B
:100DF0005253540D0A00ED9A8C20EC8BA4ED8CA874
:100E000020E286922041542B52535420EBA19C2087
:100E1000ECA084ECB2B420ECB488EAB8B0ED9994BC
:100E200028EC82ACEB8BA4EBA6AC20EC8381EC8AA3
:100E3000B929005B4E45545D20434950434C4F5304
:100E40004520005B4E45545D2043494653522033B4
:100E5000ED9A8CEC9790EB8F8420495020EAB0807B
:100E600020EC9786EB8BA420E286922043574A41E0
:100E70005020EBB680ED84B020EB8BA4EC8B9C0073
:100E80005B4E45545D2043494653522033ED9A8CC6
:100E900020EC868CECA78420E2809420EAB7B8EBA3
:100EA0009FACEB8298206275737920EAB1B0EBB603
:100EB00080EC9880EB8BA42E20495020EC868CECA3
:100EC0008BA4EBA19C20EC84B8ECA78020EC958A45
:100ED000EB8A94EB8BA4005B4E45545D2049502077
:100EE000EAB08020EC9786EB8BA420E28692204328
:100EF0004950535441525420EBA5BC20EBB3B4EB02
:100F000082B4ECA78020EC958AEAB3A02043574A2C
:100F1000415020EBA19C20EB9098EB8F8CEC9584BA
:100F2000EAB084EB8BA400EB8BA829005B4C414416
:100F30004445525D20E28693203330ECB48820ECA7
:100F400097B0EC868D20EC98A8EB9DBCEC9DB8206A
:100F5000E2809420EC82ACEB8BA4EBA6ACEBA5BCBE
:100F60002030EB8BA8EC9CBCEBA19C20EB82B4EB7B
:100F7000A6B0EB8BA42028ECA781ECA08420005B1A
:100F800041434B515D20ECBA90EC8B9CEC9790EC7C
:100F9000849C20EBB080EBA0A4EB829820EBA78C84
:100FA000EB93A420EC889820EC9786EB8BA420E2AE
:100FB000809420EBB284EBA6B0EB8BA400EC8BA466
:100FC000ED8CA82000ECA084EC86A1200042005B00
:100FD0005245475D20EB93B1EBA19D20005B52454C
:100FE000475D20EB93B1EBA19D20EBB0B0ECB9983D
:100FF000EBA5BC20EBA78CEB93A4ECA78020EBAA7D
:10100000BBED9688EB8BA420E2809420EC9E98EBBD
:10101000A6B020EB93B1EBA19DEC9D8420EB82B4B4
:10102000EBB3B4EB82B4ECA78020EC958AEB8A9406
:10103000EB8BA40020723D300020723D3100206413
:1010400075653D002061636B3D002074783D005B59
:10105000534C4F545D206E3D005D20E2869220EBA4
:10106000A781ED81ACEBA5BC20EB8BA4EC8B9C2085
:10107000EC84B8EC9AB4EB8BA400202F204553509D
:10108000EBA6ACEC858B2000202F2053454E444628
:1010900041494C2000202F2053454E444F4BEC83B8
:1010A00081ED959C20002920C2B720EB8884ECA01C
:1010B000815BEAB1B4EB8488EB9C802000202F2078
:1010C000EAB1B0EBB6802000202F20EBACB4EC9D51
:1010D00091EB8BB520006D7320EB8F99EC958820F8
:1010E000ED959C20ECA484EB8F8420EBAABB20EB35
:1010F0008298EAB094EB8BA4202862757379200063
:101100005B4E45545D20E2988520ECA095ECA780CD
:1011100020EAB090ECA7803A2000206F6E6C696ED8
:10112000653D0020736B69703D00206269676F6BDD
:101130006C6F73743D00206F6B6C6F73743D002097
:101140006269676F6B73743D002062696764726FD8
:10115000703D002062696766696C6C3D00207065B7
:101160006E6466696C6C3D002070656E6464726FBD
:10117000703D00206F6B73747265616D3D0020637C
:101180006B73756D6E673D002073736F76663D00FF
:1011900020736D6973733D00206F6F773D0020737E
:1011A0006C6F743D002061636B7374616C653D000E
:1011B0002061636B64726F703D002061636B713DF1
:1011C0000020737475636B3D00206F6B746F3D007E
:1011D0002073656E646661696C3D00207265737989
:1011E0006E633D002068777273743D0020657370F4
:1011F0007273743D002064726F703D005B434E5407
:101200005D2075703D0073002075703D00206C6995
:101210006E65733D002072783D00205B455350EBB6
:10122000A6ACEC858BEC9CA0ECA780ECA4915D00B7
:1012300020EC82ACEB8BA4EBA6AC3D005B444941B7
:10124000475D206F66666C696E6520737465703DDE
:1012500000ED9A8C2028EC849CEBB284EC9D9820C5
:1012600027EBB284EBA6B0ECA4842720EAB3BC2021
:10127000EBA79EEC9584EC95BC20ED959CEB8BA4A4
:101280002900204220C2B720ED9484EBA1ACED945C
:1012900084ED8AB820EC9EACEB8F99EAB8B02000C0
:1012A0005B52414D5D20ECB59CECA08020EC97ACEE
:1012B000EC9CA0200000000000240027002A000071
:1012C0000000080002010000030407000000000005
:1012D000000000222028005C780022005B4E45546C
:1012E0005D20EC86A1EC8BA020EC98A4EBA59820C7
:1012F000EC9D91EB8BB528EBA19CEAB7B8EBA78CE2
:101300002C20ECB9B4EC9AB4ED84B0EB8A94207341
:10131000656E644C696E6520EC9DB420EC84BCEB7A
:101320008BA4293A20005B4E45545D20E29885202D
:1013300053454E44204641494C20E2809420ED8E96
:1013400098EC9DB4EBA19CEB939CEAB98CECA78044
:1013500020EC8DBCEB8A94EB8DB020ECA084EC8665
:10136000A1EC9DB420EC8BA4ED8CA8ED9688EB8BC2
:10137000A42E20EC8BA4ED8CA8EBA19C20EC84BCCB
:10138000EB8BA4005B4E45545D206C696E6B20694D
:1013900073206E6F742076616C696420E2869220FF
:1013A000ECA689EC8B9C20EC98A4ED9484EB9DBC7E
:1013B000EC9DB82C20EB82A1EC9D8020EC868CEC7F
:1013C000BC9320EB8BABEAB8B028434950434C4F59
:1013D000534529005B4E45545D206F6E6C696E6508
:1013E0002028434F4E4E45435429202B20ECBA90E1
:1013F000EC8B9C20EBB984EC9B80005B4E45545DEC
:10140000206F6E6C696E652028414C5245414459ED
:1014100020434F4E4E454354454420C2B720ECB4C0
:1014200088EAB8B020EAB2BDED95A929005B4E4527
:10143000545D20414C524541445920434F4E4E4546
:101440004354454420E2809420EB82A1EC9D80200F
:10145000EC868CECBC9320EC9D98EC8BAC20ECA43F
:1014600091EC9DB4EBAF80EBA19C20EBAFBFECA760
:101470008020EC958AEB8A94EB8BA420E286922064
:10148000434950434C4F5345005B4E45545D206EDD
:101490006F20697020E2809420495020EAB08020BB
:1014A000EC9786EB8BA42E20434950535441525461
:1014B00020EC9EACEC8B9CEB8F84EBA5BC20ECA0CD
:1014C00091EAB3A02043574A415020EBA19C20EB66
:1014D0009098EB8F8CEC9584EAB084EB8BA4005B46
:1014E0004E45545D202020322E3447487A20EC9D12
:1014F000B8EAB080202F20ECA084ED8C8CEAB0807C
:1015000020EB8BBFEB8A94EAB080202F2053534905
:101510004420ECB2A0EC9E90EAB08020EBA79EEBBA
:101520008A94EAB080EBA5BC20EBB490EB9DBC2E76
:10153000005B4E45545D20EC84A4ECA095ED959C99
:10154000205353494420EAB08020EBAAA9EBA19D87
:10155000EC9790202A2AEC9786EB8BA42A2A20E28B
:10156000869220EBB984EBB28820EBACB8ECA09C5F
:10157000EAB08020EC9584EB8B88EB8BA42E005B8B
:101580004E45545D20202032EC889CEC9C843A200F
:10159000EBB984EBB080EBB288ED98B82020203313
:1015A000EC889CEC9C843A20504D46283830322EF2
:1015B000313177292F5750413320ECA084ED999891
:1015C000EBAAA8EB939C20EB8184EAB8B0005B4EB9
:1015D00045545D20202031EC889CEC9C843A20EC22
:1015E0009C8420ECA484EC9D98202A2AEBA788EC0C
:1015F000A780EBA78920EC88ABEC9E9028ECB18407
:10160000EB8490292A2A20EBA5BC20EBB490EB9D1B
:10161000BC2E2031322F313320EC9DB4EBA9B42005
:10162000EAB3B5EC9CA0EAB8B0EBA5BC20312F36EC
:101630002F313120EBA19C20EBB094EABF94EB9DBD
:10164000BC005B4E45545D20EC84A4ECA095ED9568
:101650009C205353494420EAB08020EBAAA9EBA177
:101660009DEC9790202A2AEC9E88EB8BA42A2A20B6
:10167000E2869220415020EB8A9420EBB3B4EC9D9B
:10168000B8EB8BA42E20EAB2B0ED95A9EBA78C2085
:10169000EAB1B0EBB680EB909CEB8BA42E005B4ED6
:1016A00045545D20E29480E2948020415020EC8AF1
:1016B000A4ECBA9420ED8C90ECA09520E29480E20A
:1016C0009480E29480E29480E29480E29480E294B8
:1016D00080E29480E29480E29480E29480E29480BC
:1016E000E29480E29480E29480E29480E29480E24A
:1016F0009480E29480E29480E29480E29480E29488
:1017000080E29480E29480E29480005B4E45545DD8
:10171000202020E2869220EAB3B5EC9CA0EAB8B083
:1017200020ECB184EB8490EC9D8420312F362F3156
:101730003120EBA19C20EBB094EABEB8EB8A942058
:10174000EAB283EC9DB420ED9995ECA09520ED953F
:10175000B4EBB295EC9DB4EB8BA4005B4E45545DAD
:10176000204357434F554E54525920EBAFB8ECA786
:1017700080EC9B90284552524F522920E2809420C1
:10178000EC9DB420ED8E8CEC9BA8EC96B4EBA19C68
:10179000EB8A9420ECB184EB84902031322F3133EA
:1017A00020EC9D8420ECBD94EB939CEBA19C20EB62
:1017B000AABB20EC97B0EB8BA42E005B4E45545D8A
:1017C00020E29885204357434F554E54525920EA02
:1017D000B08020EBA8B9EC9788EB8BA420E2809432
:1017E00020EAB79CECA09CEB8F84EBA994EC9DB80D
:1017F00020317E31332E20ECB184EB8490203132C5
:1018000020EAB2B0ED95A9EC9DB420EC97B4EBA022
:10181000B8EC9D8420EC889820EC9E88EB8BA4008B
:101820005B4E45545D204349504D55583D3020ECAA
:10183000A081EC9AA9EB90A820E28692204349501F
:101840005354415254005B4E45545D20E29885202C
:10185000495020ED9995EBB3B43A20005B4C4144DC
:101860004445525D2032EB8BA83A20EAB2B0ED95A8
:10187000A920ED95B4ECA09C20EC9984EBA38C20DE
:10188000E2869220EAB9A8EB8197ED959C20EC8343
:1018900081ED839CEC9790EC849C2043574A415007
:1018A00020EC9EACEC8B9CEB8F84005B4E45545D32
:1018B0002043574A4150204F4B20E2809420EAB207
:1018C000B0ED95A9EB9090EB8BA42E20495020EB26
:1018D000A5BC20EC8BA4ECA09CEBA19C20EBB09BC6
:1018E000EC9598EB8A94ECA780204349465352200C
:1018F000EBA19C20ED9995EC9DB8ED959CEB8BA40C
:1019000000ED9A8C2028EAB5ACED989520ED8E8CF0
:10191000EC9BA8EC96B4EB8A9420EC82ACEC9CA0F7
:10192000EBA5BC20ECA3BCECA78020EC958AEB8A4D
:1019300094EB8BA429005B4E45545D20E2988520F2
:1019400043574A415020EC8BA4ED8CA82000ECA01A
:1019500091EC868D20EC8BA4ED8CA800EAB7B82022
:101960005353494420EC9D9820415020EBA5BC20C6
:10197000EBAABB20ECB0BEEC9598EB8BA400EBB9C6
:1019800084EBB080EBB288ED98B8EAB08020ED8BA4
:1019900080EBA0B8EB8BA400ECA091EC868D20EC42
:1019A0008B9CEAB084ECB488EAB3BC005B4E45542F
:1019B0005D20E298852043574A415020EC8BA4EDEE
:1019C0008CA820EC82ACEC9CA03A20005B4E4554E5
:1019D0005D206275737920E280942045535020EA9F
:1019E000B08020EC959E20EBAA85EBA0B9EC9D84FD
:1019F00020ECB298EBA6AC20ECA491EC9DB4EB8B60
:101A0000A42E20ECA084ECA784ED9598ECA7802070
:101A1000EC958AEB8A94EB8BA4005B4E45545D20D9
:101A20005749464920444953434F4E4E454354205D
:101A3000E2809420495020EBA5BC20EC9E83EC97DB
:101A400088EB8BA4005B4E45545D205749464920E6
:101A5000474F5420495020E2809420495020ED996E
:101A600095EBB3B42E2039ECB48820EB8C80EAB827
:101A7000B0ECB0BDEC9D8420EB819DEAB98CECA765
:101A80008020EAB8B0EB8BA4EBA6ACECA78020ECEE
:101A9000958AEAB3A020EBB094EBA19C20EB8BA439
:101AA000EC9D8C20EB8BA8EAB384EBA19C006D73BA
:101AB000005B534C4F542D4F4F575D202B005B4123
:101AC000545D20004131004950000002423100497C
:101AD000500000094C44004F4700000D4C32004FAD
:101AE0004C0000FF5B41434B515D20EAB080EB931B
:101AF0009D20ECB0B820E2809420EAB080EC9EA556
:101B000020EC98A4EB9E98EB909C20EBB3B4EBA553
:101B1000982041434B20EBA5BC20EBB284EBA6B050
:101B2000EB8BA40000000000230026002900000029
:101B30000000250028002B0004040404040404040D
:101B40000202020202020303030303030102040868
:101B50001020408001020408102001020408102017
:101B60009021D32E11241FBECFEFD8E0DEBFCDBF12
:101B700084B78093BA0514BE0FB6F894A8958091E7
:101B80006000886180936000109260000FBE12E0D8
:101B9000A0E0B1E0E6EBF6E602C005900D92AE37AC
:101BA000B107D9F725E0AEE7B2E001C01D92AA3B2C
:101BB000B207E1F71DE0C1EBDDE004C02197FE01B3
:101BC0000E941E30C03BD107C9F70E943B220C94F3
:101BD0004E330C94000028E030E080FD02C030E07D
:101BE00020E081FD246082FD226083FD2160265B70
:101BF0003E4FF9018081FB0180831182089583307B
:101C000081F028F4813099F08230A9F0089587306E
:101C1000A9F08830C9F08430B1F4809180008F7DC4
:101C200003C0809180008F7780938000089584B5F1
:101C30008F7784BD089584B58F7DFBCF8091B000F0
:101C40008F778093B00008958091B0008F7DF9CF99
:101C50001F93CF93DF93282F30E0F901E154FD4E1D
:101C60008491F901E45BF44ED491F901E85CF44EFF
:101C7000C491CC23A9F0162F81110E94FF0DEC2FE7
:101C8000F0E0EE0FFF1FE25DF44EA591B4918FB727
:101C9000F894EC91111108C0D095DE23DC938FBF2E
:101CA000DF91CF911F910895DE2BF8CFCF93DF9373
:101CB00090E0FC01E45BF44E2491885C944EFC01BE
:101CC00084918823C9F090E0880F991FFC01EB54A0
:101CD000FD4EA591B491FC01E25DF44EC591D49105
:101CE00061110DC09FB7F8948C91209582238C933D
:101CF0008881282328839FBFDF91CF910895623088
:101D000051F49FB7F8943C91822F809583238C9354
:101D1000E8812E2BEFCF8FB7F894EC912E2B2C93DC
:101D20008FBFEACF2FB7F8946091F1037091F2035F
:101D30008091F3039091F4032FBF089521E0672B66
:101D4000682B692B09F420E0622F8DE00E94280E99
:101D500081E00895EF92FF920F931F93CF93DF934B
:101D60008C017B01D0E0C0E0F701EC0FFD1F649116
:101D7000662361F0D801ED91FC910190F081E02D96
:101D8000C8010995892B11F02196EECFCE01DF9184
:101D9000CF911F910F91FF90EF900895AF92BF9256
:101DA000CF92DF92EF92FF920F931F93CF93DF9327
:101DB0006C017B018B01040F151FEB015E01AE1856
:101DC000BF08C017D10759F06991D601ED91FC9178
:101DD0000190F081E02DC6010995892B79F7C501A5
:101DE000DF91CF911F910F91FF90EF90DF90CF90F7
:101DF000BF90AF900895FC01538D448D252F30E0A6
:101E0000842F90E0821B930B541710F0CF96089507
:101E100001970895FC01918D828D981761F0A28D34
:101E2000AE0FBF2FB11D5D968C91928D9F5F9F73FA
:101E3000928F90E008958FEF9FEF0895FC01918DB0
:101E4000828D981731F0828DE80FF11D858D90E01D
:101E500008958FEF9FEF0895FC01918D228D892FBA
:101E600090E0805C9F4F821B91098F7399270895A2
:101E70008EEF94E00E942C0F21E0892B09F420E0E2
:101E8000822F089580E090E0892B29F00E94380F7E
:101E900081110C9400000895FC01A48DA80FB92FA6
:101EA000B11DA35ABF4F2C91848D90E001968F7382
:101EB0009927848FA689B7892C93A089B1898C91A1
:101EC000837080648C93938D848D981306C00288F0
:101ED000F389E02D80818F7D80830895EF92FF92BA
:101EE0000F931F93CF93DF93EC0181E0888F9B8D3D
:101EF0008C8D98131AC0E889F989808185FF15C0F7
:101F00009FB7F894EE89FF896083E889F989808119
:101F10008370806480839FBF81E090E0DF91CF91E8
:101F20001F910F91FF90EF900895F62E0B8D10E00A
:101F30000F5F1F4F0F731127E02E8C8D8E110CC079
:101F40000FB607FCFACFE889F989808185FFF5CFC4
:101F5000CE010E944C0FF1CFEB8DEC0FFD2FF11D48
:101F6000E35AFF4FF0829FB7F8940B8FEA89FB8901
:101F700080818062CFCF682F8EEF94E00C946E0F3B
:101F8000CF93DF93EC01888D8823B9F0AA89BB89B0
:101F9000E889F9898C9185FD03C0808186FD0DC09B
:101FA0000FB607FCF7CF8C9185FFF2CF808185FFBC
:101FB000EDCFCE010E944C0FE9CFDF91CF91089574
:101FC00020913403309135032817390771F490912B
:101FD000320380913303981741F0E0913203F0E02F
:101FE000EE50FD4F808190E008958FEF9FEF0895B0
:101FF0000895EF92FF920F931F93CF93DF93DC012D
:102000005C96ED90FC905D97E114F10479F481E029
:1020100090E013969C938E93129790E080E0DF916E
:10202000CF911F910F91FF90EF9008955196ED91F0
:10203000FC91529750968C915097982F90950FB78E
:102040005E962C915E97122F127021FD6095F89488
:102050002081112319F1282B2083E7012197F1F723
:1020600028E0462F50E0308160FF1AC0382B3083C3
:10207000E7012197F1F7BA0175956795215089F726
:10208000112381F08081892380830FBF5C968D911D
:102090009C910197F1F781E090E0C1CF2923DCCF3B
:1020A0003923E5CF9081892BEFCF209134033091F4
:1020B00035032817390761F48091330320913203E7
:1020C00090E0805C9F4F821B91098F739927089540
:1020D00090E080E008952091340330913503281773
:1020E0003907B9F49091320380913303981789F03E
:1020F000E0913203F0E0EE50FD4F808120913203F9
:1021000030E02F5F3F4F2F7333272093320390E04F
:1021100008958FEF9FEF089590E080E00895282FB5
:10212000DB01FC0191918D913FE9390F3A3108F4BF
:1021300090523FE9380F3A3108F48052981306C0A4
:102140008E2F821B841770F381E0089580E008953C
:10215000FB0180839183FC0181E09191992391F0AF
:102160009C32D9F7DF0111971C92841750F4A82FE5
:10217000B0E0AA0FBB1FA60FB71FED93FC938F5FB4
:10218000ECCF8FEF08951F93CF93DF93EB01009770
:1021900029F1FC012081222309F120E030E0A9018E
:1021A00011911123E9F080ED810F8A30B8F4AAE093
:1021B000B0E00E94B22F412F110F550B405351092F
:1021C0009A01550F440B550B260F371F481F591FF7
:1021D0002115310581E04807510510F380E003C067
:1021E0003983288381E0DF91CF911F91089528E002
:1021F000829FC0011124DB0130E020E08953954E1D
:10220000FC01E20FF31FE491ED93EE2339F02F5F11
:102210003F4F23303105A1F7FB011382089510923F
:10222000730410925C0410925B0410925A04109292
:10223000F8041092F9048091C8039091C9038F3F6C
:10224000980729F001969093C9038093C80381E011
:1022500080936D0486E080936C040E94920E6093DC
:1022600068047093690480936A0490936B041092DD
:102270000901109208010895CF93DF93382FDC01F4
:10228000E0E02A2F231B261718F42D91E227F9CF1F
:10229000DC01A60FB11DCE2FD0E084E0D595C79507
:1022A0008A95E1F7C65BDE4F88818C93EF70F0E092
:1022B000E65BFE4F808111968C93119712961C92CB
:1022C00082E0860FDF91CF910895CF93DF93EB01EA
:1022D00080936C040E94920E60936804709369046A
:1022E00080936A0490936B04D0930901C093080112
:1022F000DF91CF910895AF92BF92CF92DF92EF928C
:10230000FF920F931F93CF93DF93CDB7DEB728973C
:102310000FB6F894DEBF0FBECDBF5C016B0194EC2D
:10232000E92E9AE1F92E10E000E0F70184918D8307
:102330003196E491EE831F82B501CE0105960E948D
:102340003830892B11F5BE016F5F7F4F802F0E94BF
:10235000F71089818F3409F5000F111FF801ED572F
:10236000FB4FD182C08281E028960FB6F894DEBF81
:102370000FBECDBFDF91CF911F910F91FF90EF90D6
:10238000DF90CF90BF90AF9008950F5F1F4FF8E0A0
:10239000EF0EF11C0430110541F680E0E5CFFB01A2
:1023A00001900020E9F73197AF01461B570BDC0184
:1023B000ED91FC910280F381E02D09946FE771E0CB
:1023C0008EEF94E00C94CF11CF93DF93BC018EEF8E
:1023D00094E00E94AA0EEC010E94DE118C0F9D1F5A
:1023E000DF91CF910895EF92FF920F931F93CF93B8
:1023F000DF93EC014091F8042091F90430E010E003
:1024000000E05CE0E52EF12C0417C8F4C901800F50
:10241000911FB7010E940A30FC01EE0FFF1FE0522E
:10242000FB4F808191810F5F1F4F8C179D0761F7D4
:10243000DF91CF911F910F91FF90EF9008954C3055
:10244000D9F4C90101966CE070E00E940A308093D3
:10245000F9048BE08093F8048091FA049091FB04D6
:102460008F3F980729F001969093FB048093FA041C
:1024700084EE9AE10E94E4112091F8048091F9041D
:10248000820F9927991F6CE070E00E940A30FC01CE
:10249000EE0FFF1FE052FB4FD183C0832F5F2093CD
:1024A000F804C6CFDC01822FE091DE042E2F30E04D
:1024B00095E0E99FF0011124E257FB4FB183A0831F
:1024C0006283438384832F5F3F4F2F703327209392
:1024D000DE049091DF04903118F49F5F9093DF0445
:1024E000CD010C94F3118F929F92AF92BF92EF9215
:1024F000FF920F931F93CF93DF93CDB7DEB7A197D2
:102500000FB6F894DEBF0FBECDBF7C01FA01CB0140
:1025100019A2223008F42AE08E010F5D1F4F822E8F
:10252000912CB12CA12CBF01A50194010E94C52FB3
:10253000F901CA016A300CF5605DD8016E938D0116
:10254000232B242B252B79F790E080E0109721F0A6
:10255000BD01C7010E94CF11A1960FB6F894DEBF4E
:102560000FBECDBFDF91CF911F910F91FF90EF90E4
:10257000BF90AF909F908F900895695CDECF2AE066
:102580000C947312482F50E070E060E02AE08EEF68
:1025900094E00C94731280915C048F3F19F08F5F6C
:1025A00080935C0460E979E08EEF94E00E94AA0ECB
:1025B00080915C040E94C2128FE20E94BB0F83E0F4
:1025C0000E94C2120E94DE1180915C04833080F070
:1025D00062E879E08EEF94E00E94AA0E80915C049C
:1025E0000E94C2128FE299E00E94E4110C940F1134
:1025F0000895AB0170E060E02AE00C947312CF9371
:10260000DF93BC018EEF94E00E94F912EC010E946E
:10261000DE118C0F9D1FDF91CF91089581E0809393
:1026200070048091C6039091C7038F3F980729F0EB
:1026300001969093C7038093C6036DED78E08EEF0B
:1026400094E00E94AA0E8091C6039091C7030C9457
:10265000FF12CF92DF92EF92FF92CF93DF930E940F
:10266000920E6B017C01D0E0C0E00E94920E6C19CA
:102670007D098E099F09683771058105910578F4F8
:102680008BE995E00E945510892B79F38BE995E051
:102690000E946B10CF3FDC0799F32196F1CF109287
:1026A000E2021092E10210929C0361EC70E08EEF66
:1026B00094E00E94AA0EBE018EEF94E00E94F912EF
:1026C00089E990E0DF91CF91FF90EF90DF90CF907C
:1026D0000C94E4118F929F92AF92BF92CF92DF92AF
:1026E000EF92FF92CF93DF93C82F0E94920E6B015F
:1026F0007C018091E702882319F18091E302909197
:10270000E402A091E502B091E602A7019601281B20
:10271000390B4A0B5B0BDA01C901883E9340A105D6
:10272000B10570F48AE195E0DF91CF91FF90EF90D1
:10273000DF90CF90BF90AF909F908F900C94E4115A
:1027400081E08093E702C092E302D092E402E0923B
:10275000E502F092E60269E075E08EEF94E00E94F7
:10276000AA0E69EF74E0C13031F068EE74E0C23057
:1027700011F06DED74E08EEF94E00E94AA0E6EEC05
:1027800074E08EEF94E00E94AA0E8091360390913F
:102790003703A0913803B0913903A7019601281B94
:1027A000390B4A0B5B0BCA01B90128EE822E23E0DC
:1027B000922EA12CB12CA50194010E94C52FBA0123
:1027C000A9018EEF94E00E94BF1261EC74E08EEFDD
:1027D00094E00E94AA0E809179040E94C2126CEAD1
:1027E00074E08EEF94E00E94AA0E809174049091A0
:1027F0007504A0917604B09177040097A105B10506
:1028000009F45BC0A7019601281B390B4A0B5B0B2F
:10281000CA01B901A50194010E94C52FBA01A901FD
:102820008EEF94E00E94BF1283E70E94BB0F69E91C
:1028300074E08EEF94E00E94AA0E8091D8030E946B
:10284000C21264E974E08EEF94E00E94AA0E8091B7
:10285000D7030E94C21288E894E00E94E41110920B
:10286000740410927504109276041092770480918B
:10287000D803C23049F5833038F583E08093D8031C
:102880001092D7038AE294E00E94E41180917904C7
:102890008230F0F180916E0481113AC064EF71E0F2
:1028A00087E0DF91CF91FF90EF90DF90CF90BF90C6
:1028B000AF909F908F900C94651165EA74E08EEF55
:1028C00094E00E94AA0EB3CF9091D7039E3F18F4D4
:1028D0009F5F9093D703E82FF0E0ED5DFE4F2081DE
:1028E0009091D703921790F2853080F68F5F809396
:1028F000D8031092D7036AE074E08EEF94E00E9450
:10290000AA0E8091D8030E94C21286E094E0BCCF48
:102910008091D803E82FF0E0EE0FFF1FE95EFE4F35
:10292000C081D181823009F44BC0F8F4882309F4C6
:1029300041C08130E9F18FE891E00E94E4118AE31F
:1029400091E00E94E41168E171E08EEF94E00E9452
:10295000AA0ECE0168EE73E00E94F62F8EEF94E08F
:102960000E94F9128CEE90E054C0833009F440C00C
:10297000843009F78EEF92E00E94E4118FEA92E032
:102980000E94E4118FE492E00E94E4116FE372E090
:102990008EEF94E00E94AA0ECE0168EE73E00E94D2
:1029A000F62F8EEF94E00E94F9128CEF91E031C087
:1029B0000E942913109271046CE271E083E071CFE0
:1029C0006FEE73E08EEF94E00E94AA0ECE0168EEE7
:1029D00073E00E94F62F8EEF94E00E94F91281EAD4
:1029E00093E00E94E41110927A04BE018AE059CF6C
:1029F0006AE873E08EEF94E00E94AA0ECE0168EEC2
:102A000073E00E94F62F8EEF94E00E94F9128EE59B
:102A100093E00E94E41110927A04BE0180E041CF5D
:102A2000CF93DF93AB01BC012AE08EEF94E00E94CC
:102A30007312EC010E94DE118C0F9D1FDF91CF916C
:102A40000895CF92DF92EF92FF926B017C0180E8B4
:102A5000C81686E9D80688E9E806F10480F066EB36
:102A600078E08EEF94E00E94AA0EC701B6010E94A2
:102A7000101580E0FF90EF90DF90CF90089567ED04
:102A800078E08EEF94E00E94AA0EC701B6010E9482
:102A9000101581E0EFCFCF93DF93D0E0C0E0009737
:102AA00031F0BC018EEF94E00E94CF11EC010E9446
:102AB000DE118C0F9D1FDF91CF910895AF92BF92D1
:102AC000CF92DF92EF92FF920F931F93CF93DF93FA
:102AD000CDB7DEB762970FB6F894DEBF0FBECDBF9D
:102AE000DC010D900020E9F79D0121503109281BE0
:102AF000390B122F4FEF420F4F3308F067C0FC0124
:102B0000A0814A2F4B7F433449F0A43539F0AD34CE
:102B100029F04FEA4A0F423008F058C0B82FFC01A4
:102B200050E040E06FEF7FEF01910C3209F4BA0101
:102B30004F5F5F4F4117C0F38C016F3F760789F1FC
:102B40003327261B370B2330310559F5FC01E60FDF
:102B5000F71F918120ED290F2A3030F08FEB890F7C
:102B60008630F8F429EC290F328190ED930F9A30DA
:102B700030F08FEB830F8630A0F499EC930F81E057
:102B8000860FF80140E03E2F3B1B381718F43191B7
:102B90004327F9CF80E1289F90011124922B9417AD
:102BA00031F18091B8039091B9038F3F980729F0D4
:102BB00001969093B9038093B8036AEA78E08EEFA8
:102BC00094E00E94AA0EC8010E944B1562960FB6AF
:102BD000F894DEBF0FBECDBFDF91CF911F910F9153
:102BE000FF90EF90DF90CF90BF90AF900895A73403
:102BF00009F00FC146E0BE016F5F7F4FC8010E9420
:102C0000A810188A1F8684508B3F00F7BE01615FB1
:102C10007F4F8B819C810E94C3108823B9F21A8A4E
:102C2000198ABE016F5E7F4F8D819E810E94C31005
:102C3000182FC12CD12C7601882389F1EF81F885DA
:102C4000309749F18081C12CD12C7601882331F154
:102C50000191002321F180ED800F8A30E0F4BAE980
:102C6000CB16B9E9DB06EB06B9E1FB06A0F4AAE056
:102C7000B0E0A70196010E94B22F202F000F330B66
:102C8000205331096901330FEE08FF08C60ED71E25
:102C9000E81EF91EDDCFC12CD12C760110E02F8566
:102CA00038894091DF048EE894E0E0E04E1759F057
:102CB0000596DC0115976D917C912617370709F071
:102CC00063C0E7FF63C0112309F470C0A988BA8804
:102CD0008FEFA816B10411F008F068C0A3E0AA15A0
:102CE00008F464C0F501EE0FFF1FED57FB4F019094
:102CF000F081E02D309709F459C081E0C114D1046E
:102D0000E104F10409F480E080938D04C701B60169
:102D10000995882309F44AC081E090E002C0880F39
:102D2000991FAA94E2F720918B0430918C04409172
:102D30008D044423B1F1822B932B90938C048093C8
:102D40008B0461E978E08EEF94E00E94AA0E698915
:102D50007A898EEF94E00E94F9126BE878E08EEFAA
:102D600094E00E94AA0EC701B6010E94101520E04F
:102D700089899A896AE070E00E94F62F40E3480F43
:102D800067E48F859889DDC0EF5F90CF25E0E20290
:102D9000F0011124E257FB4F808191810E94F311D1
:102DA00015CF8095909582239323C7CF6AE978E069
:102DB0008EEF94E00E94AA0E69897A898EEF94E0E2
:102DC0000E94F912111106C081E798E00E94E411F7
:102DD00023E0CECF89899A898F3F910509F0A0F72A
:102DE000843048F4880F991FFC01ED57FB4F808118
:102DF0009181892B19F48EE598E0E8CF63E478E0BF
:102E00008EEF94E00E94AA0EC701B6010E94101531
:102E1000DFCFA13551F481E08093F6031092F503E2
:102E200080E098E00E94E411D1CEBE016F5F7F4F39
:102E3000CB018B5B954020910601309107018217F1
:102E4000930720F4909307018093060147E0C8019F
:102E50000E94A810E82EBFEF8B1709F4B7CEE981C6
:102E6000FA81008175E0F72E023551F066E0F62E0A
:102E7000043531F0E3E0FE2E0D3411F054E0F52E70
:102E8000E2E0EE1508F0A2CEBE01615F7F4F8B81BC
:102E90009C810E94C310882309F498CE8F8598895D
:102EA0004091DF042EE834E010E0411759F02B5F29
:102EB0003F4FF9013597608171818617970791F42B
:102EC00017FF12C0EF14F9F063EE77E08EEF94E095
:102ED0000E94AA0E8F8598890E94FF1223E04FE37B
:102EE0006FE34FCF1F5FE1CF65EF77E08EEF94E0A8
:102EF0000E94AA0E8F8598890E94FF1225E0120277
:102F0000F001112447CF043509F09DC0ED81FE8109
:102F10002181211142C05081513469F05434A1F40F
:102F20001092EB031092E8031092E7031092EA0369
:102F30001092E90303C021E02093EB034FE36FE31A
:102F400020E00E94521242CE533511F0583529F537
:102F5000EF81F88509851A85DF010D900020E9F7DA
:102F60009D01235031092E173F07B9F4218130818B
:102F7000E4ECFAE1E4913E1305C0E5ECFAE1E491FA
:102F8000E21779F0ECECFAE1E4913E1306C0EDECC7
:102F9000FAE1E49171E02E1729F04FE36FE323E0AB
:102FA000D0CF70E0533541F4F80120812053223016
:102FB000A0F721812111F1CF272F30E043E0220F2C
:102FC000331F4A95E1F7F901EC53F54E6491F9018D
:102FD000EB53F54E44912091EB03222391F121E034
:102FE00030E002C0220F331F7A95E2F7E090E7034A
:102FF000F090E803A091E903B091EA035335B9F4E6
:10300000F8015081F701E22BF32BF093E803E093F2
:10301000E703503339F02A2B3B2B3093EA032093FC
:10302000E9038ECF209530952A233B23F6CF2095B8
:103030003095F701E223F323F093E803E093E703ED
:10304000F3CF24E07ECF0D3431F48AEA97E00E947A
:10305000E41125E044CFED81FE81DF010D900020D9
:10306000E9F7CD0103978E179F07B9F4818190810D
:10307000E4ECFAE1E4919E1305C0E5ECFAE1E49199
:103080008E17C9F0ECECFAE1E4919E1306C0EDEC6A
:10309000FAE1E4918E1709F43CC06AE977E08EEF1B
:1030A00094E00E94AA0E8F8598890E94FF124FE338
:1030B0006FE323E066CE20E0422F50E083E0440F30
:1030C000551F8A95E1F7FA01EC53F54E64914B5385
:1030D000554EFA01449181E090E002C0880F991F9B
:1030E0002A95E2F70235B9F42091E3033091E40325
:1030F00028233923232BE9F42091E5033091E603BB
:10310000FC01E223F323822B932BEF2B61F022E0CF
:1031100038CE21E0D1CF809590952091E503309174
:10312000E603822393239093E6038093E50320E054
:1031300028CE21E026CEBF92CF92DF92EF92FF926F
:103140000F931F93CF93DF9380917F04909180041E
:10315000A0918104B09182040196A11DB11D8093BC
:103160007F0490938004A0938104B09382046EEB5B
:103170007AE18EEF94E00E94AA0E07EF13E0F801C7
:1031800001900020E9F78F01085F1340B02E6AED2F
:1031900072E18EEF94E00E94AA0E97EFE92E93E081
:1031A000F92E6701D0E0DB1528F5F601C1916F011A
:1031B00080EE8C0F8F3528F48C2F0E94BB0FDF5FC1
:1031C000F2CF67ED72E18EEF94E00E94AA0EEC2F31
:1031D000F0E084E0F595E7958A95E1F7E65BFE4F30
:1031E00080810E94BB0FCF70EC2FF0E0E65BFE4FBA
:1031F0008081E3CF63ED72E18EEF94E00E94AA0E2E
:10320000802F0E94C21289E20E94BB0F0E94DE1131
:1032100062E871E087EF93E00E944F30EC01892B68
:10322000E1F1C0907D04D0907E04F12CE12CF8E512
:10323000CF16F2E0DF06E104F104E0F480917B04B4
:1032400090917C048F3F980729F0019690937C041D
:1032500080937B0461EB7AE18EEF94E00E94AA0EEA
:10326000B701A6018EEF94E00E94BF128EEA9AE1A8
:103270000E94E4116AE370E0CE010E942D300097B5
:10328000D9F10196DF91CF911F910F91FF90EF90AF
:10329000DF90CF90BF900C945E1544E050E068E85A
:1032A00071E087EF93E00E944130892B09F04DC017
:1032B0006DE871E087EF93E00E944F30892B31F188
:1032C00081E080937A0410927904109278040E942D
:1032D000920E6093740470937504809376049093B7
:1032E000770485E49AE10E94E4118091730468EC0C
:1032F00070E0882309F4E3C0DF91CF911F910F9113
:10330000FF90EF90DF90CF90BF90089564E971E057
:1033100087EF93E00E944F30892B71F310927A046B
:103320008AE19AE10E94E411809173048111E4CF53
:1033300010927804DF91CF911F910F91FF90EF9041
:10334000DF90CF90BF900C946A1380917304811129
:10335000C1C1C0910A01CB3008F0BCC16FE971E076
:1033600087EF93E00E944F30892BF1F08CEC99E1CC
:103370000E94E41180910A01833081F491E09093DE
:1033800072046CED75E0DF91CF911F910F91FF906A
:10339000EF90DF90CF90BF900C9465119CEF980F49
:1033A000923008F0A9CFEDCFC23009F08AC047E0D3
:1033B00050E064EA71E087EF93E00E944130892B8E
:1033C000A1F56CEA79E18EEF94E00E94AA0E80915B
:1033D000FE03823321F17CF48133A1F087EF93E087
:1033E000DF91CF911F910F91FF90EF90DF90CF90E1
:1033F000BF900C944B158333A9F0843379F78EE496
:1034000099E102C088E999E1DF91CF911F910F9175
:10341000FF90EF90DF90CF90BF900C94E4118EE777
:1034200099E1F2CF8CE599E1EFCF6CE172E087EFA3
:1034300093E00E944F30892B41F46CEA71E087EFF2
:1034400093E00E944F30892BD9F0809179048A3F14
:1034500018F48F5F8093790410927A0410927804A4
:1034600066E379E18EEF94E00E94AA0E80917904E0
:103470000E94C21281E099E10E94E41180E05ACFDB
:1034800064E172E087EF93E00E943830892B09F005
:10349000D8C28BEA98E10E94E4111092790410924C
:1034A0007104109278040E94920E609374047093D9
:1034B000750480937604909377046CE271E083E066
:1034C00062CFCA3009F564E172E087EF93E00E94B1
:1034D0003830892B89F06CEA71E087EF93E00E9425
:1034E0004F30892B49F462EB71E087EF93E00E9443
:1034F0004F30892B09F4A5C28CE598E10E94E411B4
:1035000064EF71E082E03FCFC33009F09AC243E03C
:1035100050E068EB71E087EF93E00E944130892B27
:1035200009F48FC287EF93E04AE001C0CD01DC01CE
:103530002D91222309F477C220532A30B8F733E0C3
:10354000873F930731F0FC013197208120532A30C7
:1035500068F3FC0130E090E020E0819150ED580FDD
:103560005A3030F4249F800D112420ED280FF5CF20
:10357000911101C0322F8E3211F49F5FEDCF933045
:10358000A9F6332399F281E080937A0410927104B2
:1035900010927004109272048091740490917504DA
:1035A000A0917604B0917704892B8A2B8B2B51F450
:1035B0000E94920E60937404709375048093760455
:1035C0009093770466E478E18EEF94E00E94AA0E6F
:1035D00087EF93E00E944B1568EC70E084E0D3CE57
:1035E000883069F564E172E087EF93E00E9438303B
:1035F000892BB1F06CEA71E087EF93E00E944F30C5
:10360000892BB1F465ED71E087EF93E00E944F30B4
:10361000892B09F45FC010927A0489E894E14EC0C6
:103620008BEB97E10E94E4116CE271E089E0ABCE94
:103630008BE597E10E94E4118BE097E1F3CF8930AD
:1036400009F747E050E066EC71E087EF93E00E94F5
:103650004130892B69F46EEC71E087EF93E00E94B2
:103660004F30892B09F448CE81E080936F0444CE1B
:1036700064E172E087EF93E00E943830892B49F0D3
:103680006CEA71E087EF93E00E944F30892B09F4D8
:10369000B9CF81E080936E048EE996E10E94E41137
:1036A00080916F04882379F082E496E10E94E4110E
:1036B0008EEC95E10E94E4118FE795E10E94E41100
:1036C00068EE73E01FCF81E395E10E94E4118FED76
:1036D00094E1F4CF6BED71E087EF93E00E944F30FF
:1036E000892B09F45CC067E971E087EF93E00E94E1
:1036F0004F30892B09F453C080916D048823B1F0B9
:103700008DE294E10E94E41186E080936C040E94B3
:10371000920E609368047093690480936A04909396
:103720006B041092090110920801E6CD81E08093AC
:1037300073040E94920E60936404709365048093F6
:1037400066049093670480916304882371F08091EC
:103750006104909162048F3F980729F0019690933D
:10376000620480936104109263040E94920E60933D
:103770005D0470935E0480935F04909360041092E4
:103780005C041092F60381E08093F50310925B04D1
:1037900010925A04109259048BEF93E135CEC70171
:1037A000F7012081FFEFEF1AFF0A2032C1F3293021
:1037B000B1F32053253028F4FC0121812C3209F487
:1037C0000296FC0101900020E9F73197E81BF90B04
:1037D0002E2FE80FF92FF11D222309F473C0329127
:1037E000303219F03B7F393011F42150F5CF47E0EA
:1037F00067E971E0273031F0263009F063C046E018
:1038000061EE71E00E948F10882309F45BC081E0B3
:10381000809373040E94920E609364047093650415
:10382000809366049093670480916304882371F009
:1038300080916104909162048F3F980729F001966E
:103840009093620480936104109263040E94920E2C
:1038500060935D0470935E0480935F0490936004B2
:1038600010925C041092F60381E08093F5031092AD
:103870005B0410925A0410926D0410925904109235
:1038800079041092710480937A0480917404909169
:103890007504A0917604B0917704892B8A2B8B2B29
:1038A00051F40E94920E6093740470937504809397
:1038B0007604909377041092DE041092DF0484ED76
:1038C00093E1A2CD68EE71E087EF93E00E944F3064
:1038D000892BB9F46FEE71E087EF93E00E944F30CF
:1038E000892B79F466EF71E087EF93E00E944F3007
:1038F000892B39F48091730481112EC087EF93E0F6
:10390000C1CC1092730410925C041092F60381E013
:103910008093F50310925B0410925A0410926D0488
:10392000109259041092DE041092DF0483E0809319
:103930006C040E94920E60936804709369048093F3
:103940006A0490936B048CE291E090930901809358
:10395000080110927104D0CC6DEF71E087EF93E015
:103960000E944F30892B79F084E893E10E94E411A2
:10397000DF91CF911F910F91FF90EF90DF90CF904B
:10398000BF900C940F1147E050E06FE072E087EFBA
:1039900093E00E944130892B29F410925B0410922D
:1039A0005A04AACC49E050E067E172E087EF93E067
:1039B0000E944130892BF9F410925B0410925A0452
:1039C00080915704909158048F3F980729F00196F1
:1039D000909358048093570486E293E10E94E41187
:1039E000DF91CF911F910F91FF90EF90DF90CF90DB
:1039F000BF900C94CB126CEA71E087EF93E00E94C9
:103A00004F30892B49F46FE971E087EF93E00E9412
:103A10004F30892B09F472CF6CED72E18EEF94E098
:103A20000E94AA0EDBCC61E272E087EF93E00E9475
:103A30003830892B31F480917004811102C00E94CA
:103A40000E1380910A01843009F0CACD64E172E05E
:103A500087EF93E00E943830892B49F06CEB71E0DE
:103A600087EF93E00E944F30892B09F4CBCD80E2A1
:103A700098E10E94E41168EC70E085E084CCCF937B
:103A8000DF93D82F8091D2039091D303A091D403D8
:103A9000B091D5030196A11DB11D8093D2039093DF
:103AA000D303A093D403B093D503DA3009F0B2C0A6
:103AB0008091E1028823A1F066E870E08EEF94E047
:103AC0000E94AA0E80E60E94C21288E690E00E9440
:103AD000E4111092E2021092E102DF91CF91089579
:103AE0004091E2024423C9F350E0FA01EF57FD4F41
:103AF00010821092E2028091ED02882309F476C0D0
:103B000080919C03811131C04F5F5F4F61E872E08B
:103B10008CE393E00E94243080917F029091800298
:103B200090933B0380933A0381E080939C038091C0
:103B3000AC039091AD038F3F980729F001969093C5
:103B4000AD038093AC038091EC02803430F280911D
:103B5000AA039091AB038F3F980709F4BECF01965B
:103B60009093AB038093AA03B8CF6FE072E081E833
:103B700092E00E944F302091EC02892BD1F080918D
:103B8000B4039091B5038F3F980729F00196909365
:103B9000B5038093B403203460F08091B00390911A
:103BA000B1038F3F980729F001969093B10380935A
:103BB000B0038091AE039091AF038F3F980729F037
:103BC00001969093AF038093AE03203408F485CF21
:103BD0008091A8039091A9038F3F980709F47DCFA6
:103BE00001969093A9038093A80377CF4F5F5F4F0F
:103BF00061E872E087EF93E00E94243080917F02B9
:103C00009091800290937E0480937D04DF91CF9108
:103C10000C949B1880915B04882309F441C0809127
:103C20007E02E82FF0E0E15FFE4F90819D1333C0EC
:103C30008F5F873019F080937E0222C010927E023F
:103C400010925B0410925A048091B6039091B703CE
:103C50008F3F980729F001969093B7038093B6039E
:103C60008091EC02803460F08091B2039091B303B4
:103C70008F3F980729F001969093B3038093B20386
:103C8000DD3009F42ACFC091E202CF3560F081E047
:103C90008093E10222CF81E0D33569F280E0CBCF7F
:103CA00010927E02EDCFC1110CC00E94920E2091A5
:103CB000CA033091CB03621B730B70938002609335
:103CC0007F0281E08C0F8093E202EC2FF0E0EF574F
:103CD000FD4FD08302CF8BE995E00E945510892BD0
:103CE00039F08BE995E00E946B100E943F1DF3CFE5
:103CF0008091B90580FF0FC08E7F8093B9058091B8
:103D0000BA039091BB038F3F980729F001969093D7
:103D1000BB038093BA0308952F923F924F925F9214
:103D20007F928F929F92AF92BF92CF92DF92EF924B
:103D3000FF920F931F93CF93DF931F92CDB7DEB700
:103D40009E012A5B354040910601509107012417DE
:103D5000350720F430930701209306017090730417
:103D6000711015C0E12C8E2D0F90DF91CF911F9116
:103D70000F91FF90EF90DF90CF90BF90AF909F900A
:103D80008F907F905F904F903F902F9008959B0170
:103D900021503109203A310528F78B016C01E09060
:103DA0005B04EE2009F45AC00E94920E0091EE02CC
:103DB0001091EF022091F0023091F102DC01CB0171
:103DC000801B910BA20BB30B80342FE19207A1054E
:103DD000B10568F5803D9740A105B105B8F0809127
:103DE0005A04811113C081E080935A048091C40366
:103DF0009091C5038F3F980729F001969093C503D2
:103E00008093C40388E497E00E94E4118091A603A4
:103E10009091A7038F3F980729F001969093A703ED
:103E20008093A60380EF96E00E94E4119BCF10924E
:103E30005B0410925A048091C2039091C3038F3F98
:103E4000980729F001969093C3038093C20384E9F5
:103E500096E00E94E4110E940F1184CF81E08093CC
:103E6000ED026093EC020E94920E8090E802909026
:103E7000E902A090EA02B090EB02681979098A0978
:103E80009B09603571058105910518F40E946B1E30
:103E9000EACF68E876E08BE995E00E94AA0E480137
:103EA000FFEF8F1A9F0AB4018BE995E00E94F91287
:103EB00065E876E08BE995E00E94AA0E0E94920EDA
:103EC0001B012C01B12CA12C0E94920E62197309C6
:103ED000840995096C3271408105910508F048C04C
:103EE0008BE995E00E945510892B71F38BE995E0E1
:103EF0000E946B10F82E8EE3F81609F470C08F2D17
:103F00000E943F1D8FEB8F0D8A3110F4E0E2FE0E10
:103F1000EA2DF0E0E15DFE4F8081A3948F1529F03A
:103F2000AA24A394F2E6FF12A12CEA2DF0E0E15DB1
:103F3000FE4F8081882309F4B4C0EB2DF0E0E75DEB
:103F4000FE4F8081B3948F1529F0BB24B39425E6EE
:103F5000F212B12CEB2DF0E0E75DFE4F8081811174
:103F6000BFCF92E0F92E8EED95E00E94E41167C07C
:103F700083E0F82EB12CA12C63E28BE995E00E943E
:103F8000F90FC5018F7099270F9711F40E946B1ECE
:103F90008FEFA81AB80A0A151B0571F76AE08BE9BA
:103FA00095E00E94F90F0E946B1E8091DD039091B5
:103FB000DE038F3F980729F001969093DE038093EC
:103FC000DD0362EB75E08EEF94E00E94AA0EB4016F
:103FD0008EEF94E00E94F91284E795E0C6CFF12CB1
:103FE0000C0D1D1D560145018C189D08F5016191B0
:103FF0005F018BE995E00E94F90FFFE08F22992481
:104000002FE08216910411F40E946B1E0A151B0505
:1040100051F76AE08BE995E00E94F90F0E946B1E50
:1040200081E080935B0410925A040E94920E609388
:10403000EE027093EF028093F0029093F1020E94DF
:10404000920E6093E8027093E9028093EA029093E3
:10405000EB021092ED0263E675E0F11002C06EE62D
:1040600075E08EEF94E00E94AA0EC6010E944B15E7
:10407000F1E0FF1649F1F11019C010925C040E94A2
:10408000920E60935D0470935E0480935F0490933E
:1040900060041092A1031092A2031092A303E72CD4
:1040A00062CEFF24F3948FE196E05FCF0E94CB12A3
:1040B00022E0F21212C08091A1038F3F09F452CE88
:1040C0008F5F8093A1034FCE8091A3038F3F09F4AC
:1040D00049CE8F5F8093A30346CE8091A2038F3F8A
:1040E00009F441CE8F5F8093A2033DCE1F920F92C1
:1040F0000FB60F9211242F933F938F939F93AF93FB
:10410000BF938091F1039091F203A091F303B091DA
:10411000F4033091F00323E0230F2D3758F5019677
:10412000A11DB11D2093F0038093F1039093F2033E
:10413000A093F303B093F4038091EC039091ED030B
:10414000A091EE03B091EF030196A11DB11D8093E4
:10415000EC039093ED03A093EE03B093EF03BF91B4
:10416000AF919F918F913F912F910F900FBE0F9024
:104170001F90189526E8230F0296A11DB11DD2CFDE
:104180001F920F920FB60F9211242F933F934F93CC
:104190005F936F937F938F939F93AF93BF93EF93AF
:1041A000FF938EEF94E00E944C0FFF91EF91BF912F
:1041B000AF919F918F917F916F915F914F913F91BF
:1041C0002F910F900FBE0F901F9018951F920F9276
:1041D0000FB60F9211242F938F939F93EF93FF931A
:1041E000E0910E05F0910F058081E0911405F091AA
:1041F000150582FD1BC09081809117058F5F8F731D
:1042000020911805821741F0E0911705F0E0E25087
:10421000FB4F958F80931705FF91EF919F918F91A1
:104220002F910F900FBE0F901F9018958081F4CFA3
:104230001F920F920FB60F9211242F933F934F931B
:104240005F936F937F938F939F93AF93BF93EF93FE
:10425000FF93E0913403F0913503309749F0A68540
:10426000B7858585968D91FF14C09C918923A1F413
:10427000FF91EF91BF91AF919F918F917F916F913E
:104280005F914F913F912F910F900FBE0F901F9014
:1042900018959C91892361F7A389B4899C9185899C
:1042A000809589238C93868997890197F1F7608D92
:1042B000718DA685B785558538E020E0CB01019743
:1042C000F1F7822F90E095958795282F4C91452303
:1042D00009F02068315091F7868D81FD20958091FD
:1042E000330390E001968F7399273091320338178A
:1042F00099F0A0913303B0E0AE50BD4F2C93809362
:104300003303828D938D0197F1F7A389B4898C9142
:104310009589892B8C93ACCF868D8160868FF1CF68
:10432000109201051092000588EE93E0A0E0B0E045
:104330008093020590930305A0930405B0930505AF
:104340002FE531E03093FF042093FE0425EC30E0AC
:1043500030930B0520930A0524EC30E030930D05D3
:1043600020930C0520EC30E030930F0520930E05D0
:1043700021EC30E0309311052093100522EC30E061
:10438000309313052093120526EC30E03093150589
:104390002093140510921705109218051092190514
:1043A00010921A0510929E0510929D0580939F050C
:1043B0009093A005A093A105B093A20581E791E099
:1043C00090939C0580939B051092B2051092B105C5
:1043D0001092B4051092B3051092B6051092B5056F
:1043E0001092B8051092B7056091B9056E7F6D7F88
:1043F0006093B9056695617081E0682787E00E9447
:10440000280E61E087E00E94560EE3E5FBE1E491AF
:10441000E093AB05EFE3FBE1E491F0E0EE0FFF1F6B
:10442000E25DF44E859194919093AD058093AC0537
:1044300060E088E00E94560E8091B90581FD04C0BD
:1044400061E088E00E94280E88E08093A705E4E5FB
:10445000FBE1E491E093A805E0E4FBE1E491F0E006
:10446000EE0FFF1FEC5DF44E859194919093AA0599
:104470008093A9050895CF93DF93CDB7DEB7C25DD2
:10448000D1090FB6F894DEBF0FBECDBF789484B5C6
:10449000826084BD84B5816084BD85B5826085BD40
:1044A00085B5816085BD80916E00816080936E00CE
:1044B00010928100809181008260809381008091C0
:1044C0008100816080938100809180008160809371
:1044D00080008091B10084608093B1008091B00031
:1044E00081608093B00080917A00846080937A002C
:1044F00080917A00826080937A0080917A00816056
:1045000080937A0080917A00806880937A0010927C
:10451000C100E0910E05F0910F0582E08083E091EB
:104520000A05F0910B051082E0910C05F0910D0544
:1045300080E1808310921605E0911205F091130539
:1045400086E08083E0911005F09111058081806103
:104550008083E0911005F09111058081886080834F
:10456000E0911005F0911105808180688083E091D1
:104570001005F091110580818F7D80831092B60522
:104580001092B5051092B4051092B3051092B205C1
:104590001092B1058DE991E09093B8058093B7052D
:1045A0009091A705963108F047C02DEB30E030938D
:1045B000B2052093B1052BE931E03093B405209387
:1045C000B3052CE231E03093B6052093B505209178
:1045D000680084E0983048F031E09E3008F430E024
:1045E00081E001C0880F3A95EAF7822B809368003A
:1045F0002DE630E0983050F02BE630E09E3030F081
:104600002CE630E0963110F030E020E03093AF053A
:104610002093AE05292F30E0983008F08CC281E05D
:1046200001C0880F9A95EAF78093B0058091B7058D
:104630009091B8050197F1F78091B5059091B60575
:10464000892B49F1E0913403F091350315E0EB3902
:10465000F10709F1309739F0A389B4899C918589D4
:10466000809589238C938091B9058E7F8093B905BD
:1046700010923303109232038BE995E09093350347
:1046800080933403E091AE05F091AF058081909165
:10469000B005892B808310926C040E94920E609367
:1046A00068047093690480936A0490936B0484EFA8
:1046B00091E090930901809308010E94920E60930B
:1046C000CA037093CB038093CC039093CD0381E412
:1046D00080937C0080917A00806480937A0080913E
:1046E0007A0086FDFCCF4091780050917900052E2C
:1046F000000C660B770B3FB7F8948091EC03909118
:10470000ED03A091EE03B091EF0326B5A89B05C081
:104710002F3F19F00196A11DB11D3FBFBA2FA92F40
:10472000982F8827820F911DA11DB11D02E0880FCF
:10473000991FAA1FBB1F0A95D1F78A019B01082761
:1047400019272A273B27481759076A077B0721F0B3
:10475000C901B8010E948A2FBBECEB2EBAE1FB2EF7
:10476000F70184918F3F21F0849162E00E94560E00
:1047700003ED1AE1F80184918F3F21F0849162E00A
:104780000E94560E61E08DE00E94560E6EE97EE0BA
:1047900089E292E00E947B1161E275E18CE292E095
:1047A0000E947B111092EB031092E8031092E70332
:1047B0001092EA031092E90360E37BE08EEF94E04D
:1047C0000E94AA0E0E94DE1167E27BE08EEF94E069
:1047D0000E94AA0EE4ECFAE1E491E983E5ECFAE147
:1047E000E491EA831B829E012F5F3F4F1901B901BB
:1047F0008EEF94E00E94CF118DE30E94BB0FF70172
:1048000084918F3F09F4A4C169E17BE08EEF94E0CD
:104810000E94AA0EF70184910E94C21280E20E94B7
:10482000BB0FECECFAE1E491E983EDECFAE1E49101
:10483000EA831B82B1018EEF94E00E94CF118DE3D9
:104840000E94BB0FF80184918F3F09F088C16DE190
:104850007BE08EEF94E00E94AA0E80E20E94BB0FE4
:104860000E94DE116DEF7AE08EEF94E00E94AA0EB6
:1048700082E00E94C21261EF7AE08EEF94E00E9423
:10488000AA0E84E00E94C2128FED9AE00E94E41109
:1048900068EC7AE08EEF94E00E94AA0E8091BA054F
:1048A000811168C180E89AE00E94E41169EF79E023
:1048B0008EEF94E00E94AA0E6EEB79E08EEF94E00A
:1048C0000E94AA0E69EA79E08EEF94E00E94AA0E97
:1048D00085EA99E00E94E4119E0121543F4FCC5398
:1048E000DF4F39832883C45CD0404E0132EA830E07
:1048F000911CAE0146545F4FCA53DF4F5983488322
:10490000C65CD0400E94920E2B013C018091730442
:10491000882309F458C18091D803882339F1809104
:10492000640490916504A0916604B0916704A301AA
:104930009201281B390B4A0B5B0BDA01C90180334A
:104940009547A105B10594F06CE27FE08EEF94E00D
:104950000E94AA0E8091D8030E94C21287E29FE0B3
:104960000E94E4111092D8031092D7030E946B1E8C
:1049700080919C038823A9F080E6ECE3F3E0A7EFA5
:10498000B3E001900D928A95E1F780913A039091FE
:104990003B0390937E0480937D0410929C030E94BD
:1049A0009B1874ECE72E7AE1F72E10E000E0C85374
:1049B000DF4F19821882C85CD040B02E8091EB0383
:1049C000882309F430C38091E7039091E803002E17
:1049D00002C0969587950A94E2F780FF24C38091E0
:1049E000E9039091EA03002E02C0969587950A94F8
:1049F000E2F780FF15C081E090E002C0880F991FA8
:104A0000BA94E2F7C853DF4F48815981C85CD0405F
:104A1000482B592BC853DF4F59834883C85CD0407B
:104A200058E0E50EF11C0130110509F0F9C2C85338
:104A3000DF4F88819981C85CD0409093E4038093D4
:104A4000E3038091EB03882309F41BC3E091E703A0
:104A5000F091E803C553DF4FF983E883CB5CD04086
:104A60008091040190910501C853DF4F488159811D
:104A7000C85CD04084179507C9F42091E5033091B4
:104A8000E60380910201909103012817390771F420
:104A90008091000190910101C553DF4FE881F981B8
:104AA000CB5CD0408E179F0709F4F4C28091A50318
:104AB000811103C081E08093A503C090CA03D09008
:104AC000CB03E090CC03F090CD034091BE03509116
:104AD000BF036091C0037091C103F09173042091F2
:104AE000BC033091BD03E091A403D301C2018C1932
:104AF0009D09AE09BF09803B14E09107A105B105EE
:104B000008F4CBC210EBC10E14E0D11EE11CF11C65
:104B1000FF2339F0E11105C02F3F320711F02F5F5D
:104B20003F4F4F5F5F4F6F4F7F4F805B9440A109B6
:104B3000B109E0E0E0CF9E3040F42850310981E037
:104B400001C0880F2A95EAF76FCD2E503109F7CFB3
:104B50006DE17BE08EEF94E00E94AA0E5FCE69E1EA
:104B60007BE08EEF94E00E94AA0EF80184910E94EF
:104B7000C21273CE80FF06C06DE67AE08EEF94E03D
:104B80000E94AA0E8091BA0581FF06C063E57AE013
:104B90008EEF94E00E94AA0E8091BA0582FF06C0B3
:104BA00060E37AE08EEF94E00E94AA0E8091BA054D
:104BB00083FF06C065E27AE08EEF94E00E94AA0EC1
:104BC0000E94DE1173CE8091D603882379F077FCA2
:104BD0000DC01092D6030E9429136CED75E081E0A0
:104BE0000E94651180E59BE00E94E4118091D6034C
:104BF0008111BCCE8091680490916904A0916A04EF
:104C0000B0916B04B301A201481B590B6A0B7B0BDB
:104C10008091080190910901B0E0A0E04817590780
:104C20006A077B0708F4A2CE80916C04853059F4A2
:104C300080917A04811107C087ED9EE00E94E41103
:104C400082E080936C0410916C04123091F4809196
:104C50007804882309F455C010927804809179046F
:104C60008A3F18F48F5F8093790481E00E946A1371
:104C70007DCE1B3008F060C0E12FF0E0EE5BF94D17
:104C80000C941E304D265E269C26C4260E272F2708
:104C900054279727B827D927FD276DEE7DE08BE9AC
:104CA00095E00E94AA0E61EE7DE08EEF94E00E94F6
:104CB000AA0E0E94DE11109278043EC063ED7DE0E2
:104CC0008BE995E00E94AA0E62EC7DE08EEF94E005
:104CD0000E94AA0E0E94DE1181E080930A01409298
:104CE00068045092690460926A0470926B0480E2D6
:104CF00093E090930901809308011F5F10936C0467
:104D000035CE6FE97DE08BE995E00E94AA0E68E65A
:104D10007DE08EEF94E00E94AA0E0E94DE1181E0F9
:104D2000809378040E94920E609336037093370349
:104D3000809338039093390310930A0140926804DA
:104D40005092690460926A0470926B04E12FF0E063
:104D5000EE0FFF1FEC5CFE4F808191819093090163
:104D600080930801EEEFE10FE93038F6F0E0E5540A
:104D7000F94D0C941E30FB27E3262D274E27732771
:104D8000B627D727F827FB276DE57DE08BE995E06F
:104D90000E94AA0E6FE27DE08EEF94E00E94AA0EC0
:104DA0000E94DE1183E080930A01409268045092D1
:104DB000690460926A0470926B0484EC99E09093A9
:104DC000090180930801809171048F5F80937104C1
:104DD000833008F41BC18091720410927104109208
:104DE00072048111D2C780917004811102C00E94A7
:104DF0000E1383E49EE00E94E41182E080936C0431
:104E000080E00E946A1380916C04833009F0AECD7B
:104E100068EE73E082E00E946511A8CD61E27DE05A
:104E20008BE995E00E94AA0E60E17DE08EEF94E0B0
:104E30000E94AA0E0E94DE1184E080930A01409233
:104E400068045092690460926A0470926B0480EB6B
:104E500094E0909309018093080185E0D8C068EE42
:104E60007CE08BE995E00E94AA0E67ED7CE08EEF76
:104E700094E00E94AA0E0E94DE1185E080930A0150
:104E8000409268045092690460926A0470926B04C4
:104E900080E49FE1909309018093080180916D0463
:104EA0008823D9F286E0B3C069EC7CE08BE995E019
:104EB0000E94AA0E61EA7CE08EEF94E00E94AA0EA6
:104EC0000E94DE1186E080930A01409268045092AD
:104ED000690460926A0470926B0480E293E090939C
:104EE000090180930801809159048F5F80935904D0
:104EF000833008F48FC063E37EE08EEF94E00E947D
:104F0000AA0E809159040E94C21286EF9DE00E9471
:104F1000E41110926C0410926D041092590488EC04
:104F200090E0909309018093080182E09FCE68E9A8
:104F30007CE08BE995E00E94AA0E61E77CE08EEFB1
:104F400094E00E94AA0E0E94DE1187E080930A017D
:104F5000409268045092690460926A0470926B04F3
:104F60008CED95E0909309018093080188E04FC093
:104F700062E57CE08BE995E00E94AA0E68E17CE0A6
:104F80008EEF94E00E94AA0E0E94DE1188E08093CA
:104F90000A01409268045092690460926A04709217
:104FA0006B048CED95E0909309018093080189E0F2
:104FB0002EC06DE07CE08BE995E00E94AA0E61EEC8
:104FC0007BE08EEF94E00E94AA0E0E94DE1189E041
:104FD00080930A01409268045092690460926A04C6
:104FE00070926B0488E293E2909309018093080128
:104FF00081E080936E0482E00AC066ED7BE08BE97D
:1050000095E00E94AA0E64EA7BE04FCE83E0809395
:105010006C04ACCC83E080936C0410927104A6CC39
:1050200001E010E0CACCF701379684918F3F09F474
:10503000F7CCE4912E2F30E0F901E154FD4E84913C
:10504000F901E45BF44EC490F901E85CF44ED490AD
:10505000DD2009F4D0CC81110E94FF0DED2DF0E090
:10506000EE0FFF1FEC5DF44EA591B491EC91CE22B2
:1050700081E090E011F490E080E0892B09F0D0CC41
:10508000BACC2FEF3FEFC553DF4F39832883CB5C7A
:10509000D040E6CC1092A50310CDE093A403C092BB
:1050A000CA03D092CB03E092CC03F092CD0340939D
:1050B000BE035093BF036093C0037093C10330934A
:1050C000BD032093BC0388539F4FAF4FBF4F89351B
:1050D0009240A105B10508F020C381E0E827FF2335
:1050E00009F490C080915D0490915E04A0915F04EA
:1050F000B0916004A3019201281B390B4A0B5B0B92
:10510000DA01C90180319742A105B1050CF407C34A
:1051100060E071E18EEF94E00E94AA0E80915D0440
:1051200090915E04A0915F04B0916004B301A2016C
:10513000481B590B6A0B7B0B8EEF94E00E94BF1249
:1051400066ED70E18EEF94E00E94AA0E8091A303B9
:105150000E94C21268EC70E18EEF94E00E94AA0EE9
:105160008091A2030E94C2126DEB70E18EEF94E079
:105170000E94AA0E8091A1030E94C21266EA70E109
:105180008EEF94E00E94AA0E6091A6037091A7038F
:105190008EEF94E00E94F91265E970E18EEF94E0E1
:1051A0000E94AA0E6091C4037091C5038EEF94E033
:1051B0000E94F91268E870E18EEF94E00E94AA0E56
:1051C00060915704709158048EEF94E00E94F91298
:1051D0006AE770E18EEF94E00E94AA0E6091C60328
:1051E0007091C7038EEF94E00E94F91289E590E177
:1051F0000E94E4111092A1031092A2031092A30343
:105200000E940F118091CE039091CF03A091D00303
:10521000B091D103A3019201281B390B4A0B5B0B00
:10522000DA01C90180369A4EA105B10508F4A8C17A
:10523000809173048823C9F08091CA039091CB03B5
:10524000A091CC03B091CD03A3019201281B390B8F
:105250004A0B5B0BDA01C901C296A11DB11D89354C
:105260009240A105B10508F08BC14092CE03509247
:10527000CF036092D0037092D1036CEF71E18EEF97
:1052800094E00E94AA0EC301B20128EE33E040E090
:1052900050E00E94C52FBA01A9018EEF94E00E9450
:1052A000BF1265EF71E18EEF94E00E94AA0E60914B
:1052B000C8037091C9038EEF94E00E94F9126CEE5E
:1052C00071E18EEF94E00E94AA0E6091C603709186
:1052D000C7038EEF94E00E94F91264EE71E18EEF45
:1052E00094E00E94AA0E70E060E08EEF94E00E94CD
:1052F000F9128FE20E94BB0F609161047091620409
:105300008EEF94E00E94F9126BED71E18EEF94E064
:105310000E94AA0E6091DD037091DE038EEF94E08F
:105320000E94F91260ED71E18EEF94E00E94AA0EE6
:1053300060915704709158048EEF94E00E94F91226
:1053400069EC71E18EEF94E00E94AA0E6091C403B3
:105350007091C5038EEF94E00E94F91261EC71E147
:105360008EEF94E00E94AA0E6091C2037091C30375
:105370008EEF94E00E94F9126AEB71E18EEF94E0F7
:105380000E94AA0E8091F8040E94C21260EB71E1A3
:105390008EEF94E00E94AA0E6091FA047091FB04D3
:1053A0008EEF94E00E94F91265EA71E18EEF94E0CD
:1053B0000E94AA0E6091FC047091FD048EEF94E0AF
:1053C0000E94F9126EE971E18EEF94E00E94AA0E3C
:1053D0004091BE035091BF036091C0037091C1031F
:1053E0008EEF94E00E94BF1268E971E18EEF94E0C5
:1053F0000E94AA0E60917B0470917C048EEF94E071
:105400000E94F91260E971E18EEF94E00E94AA0E09
:105410006091BC037091BD038EEF94E00E94F9127D
:1054200068E871E18EEF94E00E94AA0E6091BA03E1
:105430007091BB038EEF94E00E94F9126EE771E168
:105440008EEF94E00E94AA0E6091B8037091B903A8
:105450008EEF94E00E94F912A090B603B090B703CB
:10546000E090B403F090B503C090B203D090B303C2
:105470000091B0031091B10363E771E18EEF94E006
:105480000E94AA0EB5018EEF94E00E94F91268E620
:1054900071E18EEF94E00E94AA0E6091AE037091CC
:1054A000AF038EEF94E00E94F9126DE571E18EEF8B
:1054B00094E00E94AA0E6091AC037091AD038EEF50
:1054C00094E00E94F91263E571E18EEF94E00E948E
:1054D000AA0E6091AA037091AB038EEF94E00E9434
:1054E000F91269E471E18EEF94E00E94AA0E6091D6
:1054F000A8037091A9038EEF94E00E94F9126FE364
:1055000071E18EEF94E00E94AA0EB6018EEF94E056
:105510000E94F91266E371E18EEF94E00E94AA0EF8
:10552000B7018EEF94E00E94F9126AE271E18EEF0A
:1055300094E00E94AA0EB8018EEF94E00E94F91246
:1055400063E271E18EEF94E00E94AA0E6091A603DF
:105550007091A7038EEF94E00E94F9126AE171E165
:105560008EEF94E00E94AA0E4091730450E070E028
:1055700060E02AE08EEF94E00E9473120E94DE1138
:105580008091730481117FC08091D9039091DA03D7
:10559000A091DB03B091DC03A3019201281B390B1E
:1055A0004A0B5B0BDA01C901883B9B40A105B105A1
:1055B00008F469C04092D9035092DA036092DB0389
:1055C0007092DC036CE372E18EEF94E00E94AA0E0D
:1055D00080916C040E94C21260E372E18EEF94E04D
:1055E0000E94AA0E8091D8030E94C2128FE20E94EC
:1055F000BB0F8091D7030E94C2128091D6038823EB
:1056000031F06AE172E18EEF94E00E94AA0E65E14A
:1056100072E18EEF94E00E94AA0E4091D203509165
:10562000D3036091D4037091D5038EEF94E00E9470
:10563000BF126DE072E18EEF94E00E94AA0E4091DD
:105640007F045091800460918104709182048EEFF8
:1056500094E00E94BF1268E072E18EEF94E00E9435
:10566000AA0EC301B20128EE33E040E050E00E94F0
:10567000C52FBA01A9018EEF94E00E94BF1286E007
:1056800092E10E94E4118091DF039091E003A091E8
:10569000E103B091E203A3019201281B390B4A0BED
:1056A0005B0BDA01C90180369A4EA105B10540F1C4
:1056B0004092DF035092E0036092E1037092E203B4
:1056C00060EA72E18EEF94E00E94AA0E60910601FA
:1056D000709107018EEF94E00E94F91262E872E186
:1056E0008EEF94E00E94AA0E6091DD037091DE03BC
:1056F0008EEF94E00E94F91281E592E10E94E4119C
:1057000080E090E0892B09F4FDC80E94380F8823BF
:1057100009F4F8C80E940000ECC8E0E0E0CCEE23F9
:1057200009F470CD4091E5035091E603C353DF4F78
:1057300059834883CD5CD0400E94920E9B01AC01FE
:105740002C193D094E095F09C153DF4F2883398366
:105750004A835B83CF5CD0401091F603112309F498
:105760006AC11F9284E08F931F9287E08F938FE22C
:1057700092E09F938F931F9281EA8F933F922F9293
:105780000E9469300FB6F894DEBF0FBECDBF181669
:1057900019060CF0A9C09C012D5F3F4F223A31053C
:1057A00008F0A2C0682FC1010E943C11F1010190D4
:1057B0000020E9F731975F01A218B30854ECE52EF9
:1057C0005AE1F52EC653DF4F1882CA5CD040F7016C
:1057D0008491C154DF4F8883CF5BD0403196E491F0
:1057E000C054DF4FE883C05CD040CF53DF4F1882F6
:1057F000C15CD040BE0166547F4FC653DF4F8881E5
:10580000CA5CD0400E94F710C953DF4FF881C75CD3
:10581000D040FF93CA53DF4F1881C65CD0401F931E
:10582000CB53DF4F2881C55CD0402F93CC53DF4F43
:105830003881C45CD0403F934AE352E05F934F937A
:105840001F9298E19F939F928F920E9469300FB6AA
:10585000F894DEBF0FBECDBF181619060CF044C079
:105860009C012D5F3F4F29313105F0F5682FC401B0
:105870000E943C11F40101900020E9F731978F015B
:1058800008191909C501805A9109800F911F8F3598
:105890009F4F50F165012FEFC21AD20AF101EA0DB4
:1058A000FB1D3AE03083A8014F5F5F4FB401C10197
:1058B0008C0D9D1D0E9424305801AC0CBD1CC6539C
:1058C000DF4F1881CA5CD0401F5FC653DF4F18837B
:1058D000CA5CD04028E0E20EF11C143009F077CF0A
:1058E000A114B10409F07AC08DED9FE00E94E4118B
:1058F000B12CA12CF12C10E081E08093A4036FE483
:1059000070E18EEF94E00E94AA0E4091BE03509188
:10591000BF036091C0037091C1038EEF94E00E94B9
:10592000BF126AE470E18EEF94E00E94AA0EB50106
:105930008EEF94E00E94F91264E470E18EEF94E03F
:105940000E94AA0E8F2D0E94C2126EE370E18EEFAC
:1059500094E00E94AA0EC153DF4F488159816A81A9
:105960007B81CF5CD0408EEF94E00E94BF1289E330
:1059700090E1111102C084E390E10E94E4110E94C1
:10598000920E112309F43ECC80919F039091A003C5
:1059900001969093A00380939F03C853DF4F4881E3
:1059A0005981C85CD0405093050140930401C35312
:1059B000DF4F88819981CD5CD04090930301809323
:1059C0000201C553DF4FE881F981CB5CD040F093F1
:1059D0000101E09300011092A50314CCB501C101AF
:1059E0000E948C1E182F882309F4D4C11092F6034C
:1059F00080919D0390919E038F3F980729F0019617
:105A000090939E0380939D036FEC7FE08EEF94E074
:105A10000E94AA0E65EC7FE08EEF94E00E94AA0E31
:105A2000B5018EEF94E00E94F9128DEC9FE00E9488
:105A3000E411F12C61CF2091E3033091E4038091D4
:105A40008B0490918C04BE0161547F4F822B932B69
:105A50000E94EB0DBE0166547F4F8091E50390914B
:105A6000E6030E94EB0D00919F03F090A00380914C
:105A7000EB03882309F449C0B4018091E7039091B6
:105A8000E8030E94EB0D0E94920E9F928F9223E4F6
:105A900032E03F932F9328EE33E040E050E00E9445
:105AA000C52F5F934F933F932F93C953DF4F488187
:105AB000C75CD0404F93CA53DF4F5881C65CD0407B
:105AC0005F93CB53DF4F8881C55CD0408F93CC531D
:105AD000DF4F9881C45CD0409F93FF920F9386E480
